:020000040000FA
:080000003FF0000000000000C9
:080001003FEFFFFD88586EE699
:080002003FEFFFF621621D0231
:080003003FEFFFE9CB1E2E8D3B
:080004003FEFFFD8858E8A92C0
:080005003FEFFFC250B5DAEF36
:080006003FEFFFA72C978C4F80
:080007003FEFFF871937CE2FF0
:080008003FEFFF62169B92DB43
:080009003FEFFF3824C88F6FA0
:08000A003FEFFF0943C53BD1A4
:08000B003FEFFED57398D2B758
:08000C003FEFFE9CB44B51A133
:08000D003FEFFE5F05E578DB23
:08000E003FEFFE1C6870CB7788
:08000F003FEFFDD4DBF78F5237
:080010003FEFFD886084CD0D77
:080011003FEFFD36F624500C10
:080012003FEFFCE09CE2A6793F
:080013003FEFFC8554CD213ABA
:080014003FEFFC251DF1D3F8BC
:080015003FEFFBBFF85F9515FA
:080016003FEFFB55E425FDAEB0
:080017003FEFFAE6E15569989C
:080018003FEFFA72EFFEF75D05
:080019003FEFF9FA10348837BB
:08001A003FEFF97C4208C0141D
:08001B003FEFF8F9858F058B1A
:08001C003FEFF871DADB81DF30
:08001D003FEFF7E5420320F973
:08001E003FEFF753BB1B916497
:08001F003FEFF6BD463B444DE6
:080020003FEFF621E3796D7E4C
:080021003FEFF58192EE035858
:080022003FEFF4DC54B1BED342
:080023003FEFF43228DE1B77E9
:080024003FEFF3830F8D575CE1
:080025003FEFF2CF08DA73216E
:080026003FEFF21614E131ED89
:080027003FEFF15833BE1965EB
:080028003FEFF095658E71AD0C
:080029003FEFEFCDAA70456224
:08002A003FEFEF01028261913A
:08002B003FEFEE2F6DE455BA22
:08002C003FEFED58ECB673C480
:08002D003FEFEC7D7F19CFFCD1
:08002E003FEFEB9D2530410F6F
:08002F003FEFEAB7DF1C60059A
:080030003FEFE9CDAD01883A74
:080031003FEFE8DE8F03D75C0E
:080032003FEFE7EA85482D606D
:080033003FEFE6F18FF42C848D
:080034003FEFE5F3AF2E394068
:080035003FEFE4F0E31D7A4AFD
:080036003FEFE3E92BE9D88656
:080037003FEFE2DC89BBFF088A
:080038003FEFE1CAFCBD5B09CA
:080039003FEFE0B485181BE362
:08003A003FEFDF9922F73307C5
:08003B003FEFDE78D68653FD8D
:08003C003FEFDD539FF1F45684
:08003D003FEFDC297F674BA9AE
:08003E003FEFDAFA7514538C50
:08003F003FEFD9C68127C78CF1
:080040003FEFD88DA3D1252666
:080041003FEFD74FDD40ABBFDC
:080042003FEFD60D2DA75C9ED7
:080043003FEFD4C59536FAE445
:080044003FEFD37914220B8475
:080045003FEFD227AA9BD53B37
:080046003FEFD0D158D86087CC
:080047003FEFCF761F0C77A3F9
:080048003FEFCE15FD6DA67B14
:080049003FEFCCB0F4323AA302
:08004A003FEFCB470391435443
:08004B003FEFC9D82BC2915E02
:08004C003FEFC8646CFEB72110
:08004D003FEFC6EBC77F0887F7
:08004E003FEFC56E3B7D9AF601
:08004F003FEFC3EBC935454C3E
:080050003FEFC26470E19FD391
:080051003FEFC0D832BF043AB2
:080052003FEFBF470F0A8D8844
:080053003FEFBDB106021816D3
:080054003FEFBC1617E44186E2
:080055003FEFBA7644F068B5F4
:080056003FEFB8D18D66ADB794
:080057003FEFB727F187F1C765
:080058003FEFB5797195D74126
:080059003FEFB3C60DD2C199BF
:08005A003FEFB20DC681D54D48
:08005B003FEFB0509BE6F7DB1C
:08005C003FEFAE8E8E46CFBBD4
:08005D003FEFACC79DE6C44F64
:08005E003FEFAAFBCB0CFDDC17
:08005F003FEFA92B1600657CA0
:080060003FEFA7557F08A5172B
:080061003FEFA57B066E27545A
:080062003FEFA39BAC7A17915C
:080063003FEFA1B7717661D5F2
:080064003FEF9FCE55ADB2C87D
:080065003FEF9DE0596B77A30A
:080066003FEF9BED7CFBDE295E
:080067003FEF99F5C0ABD49600
:080068003FEF97F924C9099B41
:080069003FEF95F7A9A1EC4758
:08006A003FEF93F14F85AC0854
:08006B003FEF91E616C4389145
:08006C003FEF8FD5FFAE41DB31
:08006D003FEF8DC10A95380D2B
:08006E003FEF8BA737CB4B7865
:08006F003FEF898887A36C8430
:080070003FEF8764FA714BA910
:080071003FEF853C9089595EC8
:080072003FEF830F4A40C60C6A
:080073003FEF80DD27ED820460
:080074003FEF7EA629E63D6E78
:080075003FEF7C6A50826840F5
:080076003FEF7A299C1A322A9F
:080077003FEF77E40D068A90CB
:080078003FEF7599A3A1207769
:080079003FEF734A6044627915
:08007A003FEF70F6434B7EB727
:08007B003FEF6E9D4D1262CAB9
:08007C003FEF6C3F7DF5BBB7BF
:08007D003FEF69DCD652F5DE0D
:08007E003FEF677556883CEE68
:08007F003FEF6508FEF47BD59C
:080080003FEF6297CFF75CB07F
:080081003FEF6021C9F148C204
:080082003FEF5DA6ED43685D50
:080083003FEF5B273A4FA2D9C1
:080084003FEF58A2B1789E8401
:080085003FEF56195321C09012
:080086003FEF538B1FAF2D0764
:080087003FEF50F81785C6B9E0
:080088003FEF4E603B0B2F2DF2
:080089003FEF4BC38AA5C694AA
:08008A003FEF492206BCABB4B4
:08008B003FEF467BAFB7BBE07D
:08008C003FEF43D085FF92DD38
:08008D003FEF412089FD8ADCF0
:08008E003FEF3E6BBC1BBC659B
:08008F003FEF3BB21CC4FE4729
:080090003FEF38F3AC64E58991
:080091003FEF36306B67C556E6
:080092003FEF33685A3AAEF06B
:080093003FEF309B794B719F98
:080094003FEF2DC9C9089A9D38
:080095003FEF2AF349E1750772
:080096003FEF2817FC4609CEDC
:080097003FEF2537E0A71F9F92
:080098003FEF2252F7763ADA3D
:080099003FEF1F6941259D7A2C
:08009A003FEF1C7ABE28470865
:08009B003FEF19876EF1F486B6
:08009C003FEF168F53F7205DC2
:08009D003FEF13926DAD024E1E
:08009E003FEF1090BC898F5F59
:08009F003FEF0D8A410379C512
:0800A0003FEF0A7EFB9230D70E
:0800A1003FEF076EECADE0FA41
:0800A2003FEF045A14CF738CE8
:0800A3003FEF014074708ED3A1
:0800A4003FEEFE220C0B95EC6F
:0800A5003FEEFAFEDC1BA8B7D8
:0800A6003FEEF7D6E51CA3C0F4
:0800A7003FEEF4AA278B203282
:0800A8003FEEF178A3E473C2FE
:0800A9003FEEEE425AA6B09AA8
:0800AA003FEEEB074C50A544AA
:0800AB003FEEE7C77961DC9E1E
:0800AC003FEEE482E25A9DBC24
:0800AD003FEEE13987BBEBDCFB
:0800AE003FEEDDEB6A0786510D
:0800AF003FEEDA9889BFE86A10
:0800B0003FEED740E768496309
:0800B1003FEED3E483849C516F
:0800B2003FEED0835E99900936
:0800B3003FEECD1D792C8F10EA
:0800B4003FEEC9B2D3C3BF84C3
:0800B5003FEEC6436EE60309AD
:0800B6003FEEC2CF4B1AF6B277
:0800B7003FEEBF5668EAF2EFCC
:0800B8003FEEBBD8C8DF0B745A
:0800B9003FEEB8566B810F2ADF
:0800BA003FEEB4CF515B881149
:0800BB003FEEB1437AF9BB34BA
:0800BC003FEEADB2E8E7A88EAB
:0800BD003FEEAA1D9BB20AF3FD
:0800BE003FEEA68393E6580013
:0800BF003FEEA2E4D212C000E2
:0800C0003FEE9F4156C62DDA08
:0800C1003FEE9B99229046F8E6
:0800C2003FEE97EC36016B30B4
:0800C3003FEE943A91AAB4B497
:0800C4003FEE9084361DF7F3B6
:0800C5003FEE8CC923EDC38856
:0800C6003FEE89095BAD6025E6
:0800C7003FEE8544DDF0D07529
:0800C8003FEE817BAB4CD10D32
:0800C9003FEE7DADC456D85096
:0800CA003FEE79DB29A5165A6F
:0800CB003FEE7603DBCE74E981
:0800CC003FEE7227DB6A974446
:0800CD003FEE6E472911DA270E
:0800CE003FEE6A61C55D53A716
:0800CF003FEE6677B0E6D31E98
:0800D0003FEE6288EC48E112EA
:0800D1003FEE5E95781EBF1C96
:0800D2003FEE5A9D550467D36F
:0800D3003FEE56A083968EB1AA
:0800D4003FEE529F04729FFCF5
:0800D5003FEE4E98D836C0AF93
:0800D6003FEE4A8DFF81CE5E72
:0800D7003FEE467E7AF35F2341
:0800D8003FEE426A4B2BC17E92
:0800D9003FEE3E5170CBFC46E6
:0800DA003FEE3A33EC75CE85D0
:0800DB003FEE3611BECBAF6908
:0800DC003FEE31EAE870CE2589
:0800DD003FEE2DBF6A0911D9A5
:0800DE003FEE298F4439197A25
:0800DF003FEE255A77A63BB85D
:0800E0003FEE212104F686E544
:0800E1003FEE1CE2ECD0C0D898
:0800E2003FEE18A02FDC66D9E7
:0800E3003FEE1458CEC1AD83BD
:0800E4003FEE100CCA2980ACAC
:0800E5003FEE0BBC22BD834974
:0800E6003FEE0766D9280F5414
:0800E7003FEE030CEE1435B8E6
:0800E8003FEDFEAE622DBE2BC0
:0800E9003FEDFA4B3621271D03
:0800EA003FEDF5E36A9BA59CC4
:0800EB003FEDF177004B2534D5
:0800EC003FEDED05F7DE47DAF8
:0800ED003FEDE890520465CEDE
:0800EE003FEDE4160F6D8D815A
:0800EF003FEDDF9730CA837B6F
:0800F0003FEDDB13B6CCC23D6D
:0800F1003FEDD68BA2267A2513
:0800F2003FEDD1FEF38A915AA3
:0800F3003FEDCD6DABACA3A500
:0800F4003FEDC8D7CB410260CB
:0800F5003FEDC43D52FCB45381
:0800F6003FEDBF9E4395759A92
:0800F7003FEDBAFA9DC1B78D7F
:0800F8003FEDB6526238A09BF7
:0800F9003FEDB1A591B20C38F6
:0800FA003FEDACF42CE68AB9DD
:0800FB003FEDA83E348F613B8C
:0800FC003FEDA383A96689888A
:0800FD003FED9EC48C26B1F317
:0800FE003FED9A00DD8B3D4649
:0800FF003FED95389E50429B35
:080100003FED906BCF328D46FC
:080101003FED8B9A70EF9CB4F6
:080102003FED86C48445A450C2
:080103003FED81EA09F38B6373
:080104003FED7D0B02B8ECF9A0
:080105003FED78276F5617C685
:080106003FED733F508C0DFF2B
:080107003FED6E52A71C854775
:080108003FED696173C9E68B4C
:080109003FED646BB7574DE5B3
:08010A003FED5F7172888A7FEE
:08010B003FED5A72A6221E739B
:08010C003FED556F52E93EB1D1
:08010D003FED506779A3D2D940
:08010E003FED4B5B1B1875244B
:08010F003FED464A380E724232
:080110003FED4134D14DC93A25
:080111003FED3C1AE79F2B4E65
:080112003FED36FC7BCBFBDC6A
:080113003FED31D98E9E503AF8
:080114003FED2CB220E0EF9F4B
:080115003FED2786335F52FC29
:080116003FED2255C6E5A4E10E
:080117003FED1D20DC40C15C3E
:080118003FED17E7743E35DCF2
:080119003FED12A98FAC410C6F
:08011A003FED0D672F59D2B92A
:08011B003FED082054168BACE7
:08011C003FED02D4FEB2BD92DA
:08011D003FECFD852FFF6AD4C1
:08011E003FECF830E8CE467B0F
:08011F003FECF2D829F1B40E07
:080120003FECED7AF43CC773DB
:080121003FECE819488344CECD
:080122003FECE2B32799A06055
:080123003FECDD489254FE653B
:080124003FECD7D9898B32F6BC
:080125003FECD2660E12C1E6A8
:080126003FECCCEE20C2DE9F8D
:080127003FECC771C2736C09C3
:080128003FECC1F0F3FCFC5CAC
:080129003FECBC6BB638D10BB2
:08012A003FECB6E20A00DA998D
:08012B003FECB153F02FB87D49
:08012C003FECABC169A0B90171
:08012D003FECA62A772FD91937
:08012E003FECA08F19B9C44990
:08012F003FEC9AEF521BD48053
:080130003FEC954B213411F561
:080131003FEC8FA287E13305CA
:080132003FEC89F587029C13E4
:080133003FEC84441F785F617A
:080134003FEC7E8E52233CF3E8
:080135003FEC78D41FE4A2673F
:080136003FEC7315899EAAD766
:080137003FEC6D5290341EB242
:080138003FEC678B3488739BD8
:080139003FEC61BF777FCC4869
:08013A003FEC5BEF59FEF85A9F
:08013B003FEC561ADCEB743EA8
:08013C003FEC5042012B690762
:08013D003FEC4A64C7A5AC4C7D
:08013E003FEC44833141C00491
:08013F003FEC3E9D3EE7D26259
:080140003FEC38B2F180BDB1C3
:080141003FEC32C449F608311D
:080142003FEC2CD14931E3F13F
:080143003FEC26D9F01F2EAF9E
:080144003FEC20DE3FA971B081
:080145003FEC1ADE38BCE19B1F
:080146003FEC14D9DC465E58C1
:080147003FEC0ED12B3372E9ED
:080148003FEC08C42672554982
:080149003FEC02B2CEF1E641E9
:08014A003FEBFC9D25A1B1472C
:08014B003FEBF6832B71EC5B26
:08014C003FEBF064E15377DDA5
:08014D003FEBEA424837DE6D8A
:08014E003FEBE41B611154C1F9
:08014F003FEBDDF02CD2B98377
:080150003FEBD7C0AC6F952A0C
:080151003FEBD18CE0DC19D674
:080152003FEBCB54CB0D23273A
:080153003FEBC5186BF8361DE7
:080154003FEBBED7C49380EA23
:080155003FEBB892D5D5DAD5D5
:080156003FEBB249A0B6C40D55
:080157003FEBABFC262E658690
:080158003FEBA5AA673590D228
:080159003FEB9F5464C5BFFC9D
:08015A003FEB98FA1FD9155E76
:08015B003FEB929B996A5B7F68
:08015C003FEB8C38D27504E979
:08015D003FEB85D1CBF52C022C
:08015E003FEB7F6686E792EAA1
:08015F003FEB78F70449A34BC4
:080160003FEB728345196E3E6E
:080161003FEB6C0B4A55AC1793
:080162003FEB658F14FDBC4763
:080163003FEB5F0EA611A5326F
:080164003FEB5889FE921405DF
:080165003FEB52011F805C9288
:080166003FEB4B7409DE792523
:080167003FEB44E2BEAF0A6168
:080168003FEB3E4D3EF557123E
:080169003FEB37B38BB54C09E5
:08016A003FEB3115A5F37BF416
:08016B003FEB2A738EB51F3330
:08016C003FEB23CD470013B463
:08016D003FEB1D22CFDADCC6D6
:08016E003FEB16742A4CA2F5C8
:08016F003FEB0FC1575D33DBCC
:080170003FEB090A58150200DB
:080171003FEB024F2D7D24A994
:080172003FEAFB8FD89F57B64E
:080173003FEAF4CC5A85FB734E
:080174003FEAEE04B43C1474F0
:080175003FEAE738E6CD4B67D5
:080176003FEAE068F345ECEFFD
:080177003FEAD994DAB2E979FC
:080178003FEAD2BC9E21D51123
:080179003FEACBE03EA0E73BAA
:08017A003FEAC4FFBD3EFAC8D4
:08017B003FEABE1B1B0B8DAC1B
:08017C003FEAB7325916C0D466
:08017D003FEAB045787157FF1D
:08017E003FEAA9547A2CB98E66
:08017F003FEAA25F5F5AEE6047
:080180003FEA9B66290EA1A3D2
:080181003FEA9468D85B20AE50
:080182003FEA8D676E545AD26A
:080183003FEA8661EC0EE13356
:080184003FEA7F58529FE69DFF
:080185003FEA784AA31D3F5533
:080186003FEA7138DE9D60F5CF
:080187003FEA6A230637623BE0
:080188003FEA63091B02FAE2E1
:080189003FEA5BEB1E188375D1
:08018A003FEA54C91090F5246E
:08018B003FEA4DA2F385E9975C
:08018C003FEA4678C8119AC849
:08018D003FEA3F4A8F4EE2D227
:08018E003FEA38184A593BC64C
:08018F003FEA30E1FA4CBF81A8
:080190003FEA29A7A0462782DF
:080191003FEA22693D62CCB98E
:080192003FEA1B26D2C0A75E64
:080193003FEA13E0617E4EC754
:080194003FEA0C95EABAF937C5
:080195003FEA05476F967BB5B8
:080196003FE9FDF4F13149DEFF
:080197003FE9F69E70AC75BC57
:080198003FE9EF43EF29AF94AA
:080199003FE9E7E56DCB45BD30
:08019A003FE9E082EDB424729C
:08019B003FE9D91C7007D5A64D
:08019C003FE9D1B1F5EA80D67C
:08019D003FE9CA438080EADB60
:08019E003FE9C2D110F075C366
:08019F003FE9BB5AA85F20985C
:0801A0003FE9B3E047F387419A
:0801A1003FE9AC61F0D4E24734
:0801A2003FE9A4DFA42B06B223
:0801A3003FE99D59631E65D57B
:0801A4003FE995CF2ED80D2292
:0801A5003FE98E410881A6002C
:0801A6003FE986AEF1457594B6
:0801A7003FE97F18EA4E5C9E5F
:0801A8003FE9777EF4C7D7425E
:0801A9003FE96FE111DDFCE00C
:0801AA003FE9683F42BD7FE11F
:0801AB003FE960998893AD8CD7
:0801AC003FE958EFE48E6DD726
:0801AD003FE9514257DC4335E4
:0801AE003FE94990E3AC4A6C03
:0801AF003FE941DB892E3A65AE
:0801B0003FE93A22499263FC89
:0801B1003FE932652609B1CFD8
:0801B2003FE92AA41FC5A815AE
:0801B3003FE922DF37F8646A1E
:0801B4003FE91B166FD49DA268
:0801B5003FE91349C88DA3982E
:0801B6003FE90B7943575EFE9F
:0801B7003FE903A4E1665133A6
:0801B8003FE8FBCCA3EF940D1E
:0801B9003FE8F3F08C28D9ACFB
:0801BA003FE8EC109B486C4982
:0801BB003FE8E42CD2852E0A76
:0801BC003FE8DC45331698CC46
:0801BD003FE8D459BE34BDFA3D
:0801BE003FE8CC6A75184655B4
:0801BF003FE8C47758FA71CB48
:0801C0003FE8BC806B151741FC
:0801C1003FE8B485ACA2A4687C
:0801C2003FE8AC871EDE1D883A
:0801C3003FE8A484C3031D50B2
:0801C4003FE89C7E9A4DD4AB8C
:0801C5003FE89474A5FB0A84D5
:0801C6003FE88C66E7481BA12D
:0801C7003FE884555F72FA6BFA
:0801C8003FE87C400FBA2EBF96
:0801C9003FE87426F95CD5BD86
:0801CA003FE86C0A1D9AA195A3
:0801CB003FE863E97DB3D95A56
:0801CC003FE85BC51AE958CCBD
:0801CD003FE8539CF67C9029E9
:0801CE003FE84B7111AF83F90A
:0801CF003FE843416DC4CCE29E
:0801D0003FE83B0E0BFF976EA8
:0801D1003FE832D6EDA3A3E0E4
:0801D2003FE82A9C13F545FFEC
:0801D3003FE8225D803964E57C
:0801D4003FE81A1B33B57ACC99
:0801D5003FE811D52FAF94DCC7
:0801D6003FE8098B756E52FA37
:0801D7003FE8013E0638E79500
:0801D8003FE7F8ECE357177153
:0801D9003FE7F0980E113978A0
:0801DA003FE7E83F87B03686DD
:0801DB003FE7DFE3517D8937A6
:0801DC003FE7D7836CC33DB27D
:0801DD003FE7CF1FDACBF179F7
:0801DE003FE7C6B89CE2D333F1
:0801DF003FE7BE4DB453A27CC2
:0801E0003FE7B5DF226AAFB072
:0801E1003FE7AD6CE874DBB6EA
:0801E2003FE7A4F707BF97D225
:0801E3003FE79C7D8198E56E69
:0801E4003FE79400574F55E47A
:0801E5003FE78B7F8A320A52CA
:0801E6003FE782FB1B90B35BB5
:0801E7003FE77A730CBB9100A5
:0801E8003FE771E75F0372615C
:0801E9003FE7695813B9B59412
:0801EA003FE760C52C304764BB
:0801EB003FE7582EA9B9A32932
:0801EC003FE74F948DA8D28D6E
:0801ED003FE746F6D9516D59B8
:0801EE003FE73E558E079942E0
:0801EF003FE735B0AD2009B275
:0801F0003FE72D0837EFFF97F0
:0801F1003FE7245C2FCD492AF1
:0801F2003FE71BAC960E41BF74
:0801F3003FE712F96C09D18D00
:0801F4003FE70A42B3176D7AE0
:0801F5003FE701886C8F16E65C
:0801F6003FE6F8CA99C95B75E8
:0801F7003FE6F0093C1F54DE55
:0801F8003FE6E74454EAA8AE1B
:0801F9003FE6DE7BE585881D71
:0801FA003FE6D5AFEF4AAFCCA0
:0801FB003FE6CCE07395679F1D
:0801FC003FE6C40D73C18275DA
:0801FD003FE6BB36F12B5E0664
:0801FE003FE6B25CED2FE29C2C
:0801FF003FE6A97F692C82EAAA
:080200003FE6A09E667F3BCDA6
:080201003FE697B9E686941C64
:080202003FE68ED1EAA19C72D7
:080203003FE685E6742FEEEFE3
:080204003FE67CF78491AF1086
:080205003FE674051D27896C1A
:080206003FE66B0F3F52B38786
:080207003FE66215EC74EB9177
:080208003FE6591925F0783E8C
:080209003FE65018ED282880A3
:08020A003FE64715437F535BFB
:08020B003FE63E0E2A59D7AA76
:08020C003FE63503A31C1BE9CA
:08020D003FE62BF5AF2B0DFEBF
:08020E003FE622E44FEC22FF61
:08020F003FE619CF86C5570335
:080210003FE610B7551D2CDF7D
:080211003FE6079BBC5AADFB60
:080212003FE5FE7CBDE56A102A
:080213003FE5F55A5B2576F981
:080214003FE5EC3495837074A2
:080215003FE5E30B6E6877F48E
:080216003FE5D9DEE73E345C50
:080217003FE5D0AF016ED1D527
:080218003FE5C77BBE65018DC7
:080219003FE5BE451F8BF98192
:08021A003FE5B50B264F7448C7
:08021B003FE5ABCDD41BB0D9C7
:08021C003FE5A28D2A5D72513D
:08021D003FE599492A81FFBC6D
:08021E003FE59001D5F723E054
:08021F003FE586B72E2B2CFEF3
:080220003FE57D69348CECA080
:080221003FE57417EA8BB75C9E
:080222003FE56AC35197649E99
:080223003FE5616B6B204E6F9B
:080224003FE5581038975137EF
:080225003FE54EB1BB6DCB8F2C
:080226003FE5454FF5159DFC75
:080227003FE53BEAE7012ABFB5
:080228003FE5328292A35596D6
:080229003FE52916F96F8388F7
:08022A003FE51FA81CD99AA6AC
:08022B003FE51635FE5601D730
:08022C003FE50CC09F59A09CA6
:08022D003FE503480159DED34F
:08022E003FE4F9CC25CCA487C4
:08022F003FE4F04D0E2859AB2D
:080230003FE4E6CABBE3E5EA86
:080231003FE4DD453076B064C6
:080232003FE4D3BC6D589F802E
:080233003FE4CA30740218A375
:080234003FE4C0A145EC000508
:080235003FE4B70EE48FB86945
:080236003FE4AD79516722F1AC
:080237003FE4A3E08DEC9ED72B
:080238003FE49A449B9B093945
:080239003FE490A57BEDBCDF62
:08023A003FE48703306091FFEF
:08023B003FE47D5DBA6FDE01B6
:08023C003FE473B51B98734702
:08023D003FE46A095557A0F2E5
:08023E003FE4605A692B32A273
:08023F003FE456A858917047F6
:080240003FE44CF325091DD633
:080241003FE4433AD0117B1E9B
:080242003FE4397F5B2A438091
:080243003FE42FC0C7D3ADBC9E
:080244003FE425FF178E6BB2A9
:080245003FE41C3A4BDBAA2741
:080246003FE41272663D108DC9
:080247003FE408A76834C0C0C1
:080248003FE3FED9534556D5F2
:080249003FE3F50828F1E8D3BA
:08024A003FE3EB33EABE06813D
:08024B003FE3E15C9A2DB923A9
:08024C003FE3D78238C583446B
:08024D003FE3CDA4C80A60766E
:08024E003FE3C3C44981C51858
:08024F003FE3B9E0BEB19E18C7
:080250003FE3AFFA292050B989
:080251003FE3A6108A54BA58DD
:080252003FE39C23E3D63029B1
:080253003FE39234372C7F05D4
:080254003FE3884185DFEB2246
:080255003FE37E4BD1792FE25B
:080256003FE374531B817F8E0E
:080257003FE36A576582831B37
:080258003FE36058B10659F3C1
:080259003FE35656FF9799AFF1
:08025A003FE34C5252C14DE29A
:08025B003FE3424AAC0EF7D666
:08025C003FE338400D0C8E5702
:08025D003FE32E3277467D6B72
:08025E003FE32421EC49A62036
:08025F003FE31A0E6DA35E459A
:080260003FE30FF7FCE17036EB
:080261003FE305DE9B921A95B4
:080262003FE2FBC24B44101502
:080263003FE2F1A30D86773A9A
:080264003FE2E780E3E8EA173E
:080265003FE2DD5BCFFB7616E2
:080266003FE2D333D34E9BB8F5
:080267003FE2C908EF734E5895
:080268003FE2BEDB25FAF3EAD8
:080269003FE2B4AA787764C4F7
:08026A003FE2AA76E87AEB58A6
:08026B003FE2A040779843FC3C
:08026C003FE2960727629CA8FF
:08026D003FE28BCAF96D94BB5E
:08026E003FE2818BEF4D3CBA29
:08026F003FE2774A0A961613DC
:080270003FE26D054CDD12DFD9
:080271003FE262BDB7B795A2A0
:080272003FE258734CBB71110F
:080273003FE24E260D7EE7C9B3
:080274003FE243D5FB98AC20EA
:080275003FE23983189FDFD638
:080276003FE22F2D662C13E17D
:080277003FE224D4E5D5482E36
:080278003FE21A799933EB59BA
:080279003FE2101B81E0DA787E
:08027A003FE205BAA17560D650
:08027B003FE1FB56F98B37B996
:08027C003FE1F0F08BBC861B92
:08027D003FE1E68759A3E0749C
:08027E003FE1DC1B64DC487267
:08027F003FE1D1ACAF012CC23C
:080280003FE1C73B39AE68C93C
:080281003FE1BCC706804468A0
:080282003FE1B250171373BFF6
:080283003FE1A7D66D0516E767
:080284003FE19D5A09F2B9B8EF
:080285003FE192DAEF7A5387A2
:080286003FE188591F3A46E5EB
:080287003FE17DD49AD16161D1
:080288003FE1734D63DEDB4929
:080289003FE168C37C025765E8
:08028A003FE15E36E4DBE2BD5A
:08028B003FE153A7A00BF4545E
:08028C003FE14915AF336CECB2
:08028D003FE13E8113F396C12D
:08028E003FE133E9CFEE254FFB
:08028F003FE1294FE4C5350AE7
:080290003FE11EB3541B4B2398
:080291003FE114141F935545D1
:080292003FE1097248D0A957B1
:080293003FE0FECDD1770537F5
:080294003FE0F426BB2A8E7F37
:080295003FE0E97D078FD23B39
:080296003FE0DED0B84BC4B616
:080297003FE0D421CF03C12C8C
:080298003FE0C9704D5D898E45
:080299003FE0BEBC34FF464605
:08029A003FE0B405878F85ECFD
:08029B003FE0A94C46B53D0C03
:08029C003FE09E907417C5E0DD
:08029D003FE093D2115EE0186E
:08029E003FE089112032B08D10
:08029F003FE07E4DA23BC104CB
:0802A0003FE073879922FFED96
:0802A1003FE068BF0691C0298F
:0802A2003FE05DF3EC31B8B858
:0802A3003FE053264BAD04823D
:0802A4003FE0485626AE221B84
:0802A5003FE03D837EDFF370B2
:0802A6003FE032AE55EDBD97BB
:0802A7003FE027D6AD83287D5E
:0802A8003FE01CFC874C3EB74F
:0802A9003FE0121FE4F56D2D8A
:0802AA003FE00740C82B82E28F
:0802AB003FDFF8BE6537615F1B
:0802AC003FDFE2F64BE7121000
:0802AD003FDFCD2947C1FF5AD4
:0802AE003FDFB7575C24D2DDED
:0802AF003FDFA1808C6CF7E138
:0802B0003FDF8BA4DBF89ABBD1
:0802B1003FDF75C44E26A8557D
:0802B2003FDF5FDEE656CDA23E
:0802B3003FDF49F4A7E9772AB7
:0802B4003FDF3405963FD069DD
:0802B5003FDF1E11B4BBC35E64
:0802B6003FDF081906BFF7FE47
:0802B7003FDEF21B8FAFD3B64E
:0802B8003FDEDC1952EF78D79C
:0802B9003FDEC61253E3C61A32
:0802BA003FDEB00695F256206C
:0802BB003FDE99F61C817EDC98
:0802BC003FDE83E0EAF8511671
:0802BD003FDE6DC704BE97E2AD
:0802BE003FDE57A86D3CD82576
:0802BF003FDE418527DC4FFC06
:0802C0003FDE2B5D3806F63E1F
:0802C1003FDE1530A12779F49E
:0802C2003FDDFEFF66A941DEED
:0802C3003FDDE8C98BF86BD7A1
:0802C4003FDDD28F1481CC57FD
:0802C5003FDDBC5003B2EDF86F
:0802C6003FDDA60C5CFA10DA22
:0802C7003FDD8FC423C62A2885
:0802C8003FDD79775B86E389D5
:0802C9003FDD632607AC9AAA91
:0802CA003FDD4CD02BA8609E23
:0802CB003FDD3675CAEBF96155
:0802CC003FDD2016E8E9DB5BD1
:0802CD003FDD09B389152EC2C3
:0802CE003FDCF34BAEE1CD2350
:0802CF003FDCDCDF5DC440CD23
:0802D0003FDCC66E9931C45EEB
:0802D1003FDCAFF964A0421FFD
:0802D2003FDC997FC386538BCA
:0802D3003FDC8301B95B40C26E
:0802D4003FDC6C7F4997000B31
:0802D5003FDC55F877B2353922
:0802D6003FDC3F6D4726312893
:0802D7003FDC28DDBB6CF145A2
:0802D8003FDC1249D8011EE8C9
:0802D9003FDBFBB1A05E0EDE6D
:0802DA003FDBE51517FFC0D959
:0802DB003FDBCE744262DEEF4E
:0802DC003FDBB7CF2304BD0294
:0802DD003FDBA125BD63584081
:0802DE003FDB8A7814FD569302
:0802DF003FDB73C62D5206251A
:0802E0003FDB5D1009E15CC287
:0802E1003FDB4655AE2BF75739
:0802E2003FDB2F971DB31972D9
:0802E3003FDB18D45BF8ACA767
:0802E4003FDB020D6C7F400BB3
:0802E5003FDAEB4252CA07ABFD
:0802E6003FDAD473125CDC095D
:0802E7003FDABD9FAEBC398275
:0802E8003FDAA6C82B6D3FCCE4
:0802E9003FDA8FEC8BF5B166E2
:0802EA003FDA790CD3DBF31BB2
:0802EB003FDA622906A70B654A
:0802EC003FDA4B4127DEA1E4DB
:0802ED003FDA34553B0AFEE63E
:0802EE003FDA1D6543B50AC1AA
:0802EF003FDA067145664D5926
:0802F0003FD9EF7943A8ED8A24
:0802F1003FD9D87D4207B0ACF3
:0802F2003FD9C17D440DF9F470
:0802F3003FD9AA794D47C9F17A
:0802F4003FD993716141BDFE89
:0802F5003FD97C6583890FC32A
:0802F6003FD96555B7AB9491A7
:0802F7003FD94E420137BCE281
:0802F8003FD9372A63BC93D7FC
:0802F9003FD9200EE2C9BE98B6
:0802FA003FD908EF81EF7BD32F
:0802FB003FD8F1CC44BEA32959
:0802FC003FD8DAA52EC8A4B01A
:0802FD003FD8C37A439F8851EA
:0802FE003FD8AC4B86D5ED475B
:0802FF003FD89518FBFF098EA2
:080300003FD87DE2A6AEA9641E
:080301003FD866A88A792EA2FC
:080302003FD84F6AAAF3903EB8
:080303003FD838290BB359C89B
:080304003FD820E3B04EAAC56A
:080305003FD8099A9C5C362FD9
:080306003FD7F24DD37341E42F
:080307003FD7DAFD592BA622B5
:080308003FD7C3A9311DCCE869
:080309003FD7AC515EE2B17573
:08030A003FD794F5E613DFAEC6
:08030B003FD77D96CA4B73A792
:08030C003FD766340F2418F8F6
:08030D003FD74ECDB8390A3D7F
:08030E003FD73763C9261092A6
:08030F003FD71FF6458782ED80
:080310003FD7088530FA45A132
:080311003FD6F1108F1BC9C596
:080312003FD6D998638A0CB6AE
:080313003FD6C21CB1E3977351
:080314003FD6AA9D7DC77E19AA
:080315003FD6931ACAD55F51CF
:080316003FD67B949CAD63CB44
:080317003FD6640AF6F03DA098
:080318003FD64C7DDD3F27C5F7
:080319003FD634ED533BE58EA5
:08031A003FD61D595C88C204A6
:08031B003FD605C1FCC88F6646
:08031C003FD5EE27379EA693A2
:08031D003FD5D68910AEE6873A
:08031E003FD5BEE78B9DB3B88B
:08031F003FD5A742AC0FF79097
:080320003FD58F9A75AB1FDD7C
:080321003FD577EEEC151E48F4
:080322003FD5604012F467B6FC
:080323003FD5488DEDEFF3BE5C
:080324003FD530D880AF3C2426
:080325003FD5191FCEDA3C366A
:080326003FD50163DC19704AA8
:080327003FD4E9A4AC15D52177
:080328003FD4D1E24278E76BFB
:080329003FD4BA1CA2ECA31E94
:08032A003FD4A253D11B82F65F
:08032B003FD48A87D0B07FD7D0
:08032C003FD472B8A55710552B
:08032D003FD45AE652BB28023E
:08032E003FD44310DC8936F0D6
:08032F003FD42B38466E29284B
:080330003FD4135C941766032F
:080331003FD3FB7DC932CFA7C9
:080332003FD3E39BE96EC271A9
:080333003FD3CBB6F87A146F3A
:080334003FD3B3CEFA0414B963
:080335003FD39BE3F1BC8AF207
:080336003FD383F5E353B6AB9E
:080337003FD36C04D27A4EE0C2
:080338003FD35410C2E18154CF
:080339003FD33C19B83AF2066B
:08033A003FD3241FB638BAAF0F
:08033B003FD30C22C08D6A15AE
:08033C003FD2F422DAEC038940
:08033D003FD2DC200907FE514C
:08033E003FD2C41A4E9545217F
:08033F003FD2AC11AF48357448
:080340003FD294062ED59F0563
:080341003FD27BF7D0F2C34666
:080342003FD263E6995554BB5C
:080343003FD24BD28BB376745C
:080344003FD233BBABC3BB7118
:080345003FD21BA1FD3D262360
:080346003FD2038583D727BFD6
:080347003FD1EB6643499FBE64
:080348003FD1D3443F4CDB3DE3
:080349003FD1BB1F7B99948199
:08034A003FD1A2F7FBE8F245E8
:08034B003FD18ACDC3F48739CC
:08034C003FD172A0D776517772
:08034D003FD15A713A28B9DAD8
:08034E003FD1423EEFC6937A55
:08034F003FD12A09FC0B1B122F
:080350003FD111D262B1F67831
:080351003FD0F998277733F93A
:080352003FD0E15B4E1749D0DA
:080353003FD0C91BDA4F158DE4
:080354003FD0B0D9CFDBDB91F3
:080355003FD09895327B466011
:080356003FD0804E05EB661D4F
:080357003FD068044DEAB0023A
:080358003FD04FB80E37FDAF96
:080359003FD037694A928CAED7
:08035A003FD01F1806B9FDD1C8
:08035B003FD006C4466E54B009
:08035C003FCFDCDC1ADFEDFCF1
:08035D003FCFAC2ABEFF58059A
:08035E003FCF7B7480BD380124
:08035F003FCF4AB9679C9F5E85
:080360003FCF19F97B215F1E5C
:080361003FCEE934C2D006C60C
:080362003FCEB86B462DE348C5
:080363003FCE879D0CC0FDB2E6
:080364003FCE56CA1E101A20FC
:080365003FCE25F281A2B68310
:080366003FCDF5163F01099B94
:080367003FCDC4355DB40198DF
:080368003FCD934FE54543171B
:080369003FCD6265DD3F27E393
:08036A003FCD31774D2CBDF0B1
:08036B003FCD00843C99C5FD63
:08036C003FCCCF8CB312B28428
:08036D003FCC9E90B824A6AA23
:08036E003FCC6D90535D74DF7C
:08036F003FCC3C8B8C4B9DDC64
:080370003FCC0B826A7E4F6254
:080371003FCBDA74F58563311E
:080372003FCBA96334F15DB03B
:080373003FCB784D30536CE0E4
:080374003FCB4732EF3D672249
:080375003FCB16147941CA2C9C
:080376003FCAE4F1D5F3B9AF71
:080377003FCAB3CB0CE6FE43C4
:080378003FCA82A025B0045128
:080379003FCA517127E3DABF0E
:08037A003FCA203E1B1831DFD1
:08037B003FC9EF0706E35A3405
:08037C003FC9BDCBF2DC436870
:08037D003FC98C8CE69A7AEF6F
:08037E003FC95B49E9B62AFF03
:08037F003FC92A0303C8194F0E
:080380003FC8F8B83C69A60D66
:080381003FC8C7699B34CA8321
:080382003FC8961727C41803B9
:080383003FC864C0E9B2B6D125
:080384003FC83366E89C64C821
:080385003FC802092C1D745051
:080386003FC7D0A7BBD2CB1B7F
:080387003FC79F429F59E11E90
:080388003FC76DD9DE50BF35FF
:080389003FC73C6D8055FE10DA
:08038A003FC70AFD8D08C4FF06
:08038B003FC6D98A0C08C8DD49
:08038C003FC6A81304F64AB6AF
:08038D003FC676987F7216B797
:08038E003FC6451A831D830ED2
:08038F003FC61399179A6E97FF
:080390003FC5E214448B3FCB92
:080391003FC5B08C1192E3801E
:080392003FC57F008654CBE05B
:080393003FC54D71AA74EF068D
:080394003FC51BDF8597C5F88A
:080395003FC4EA4A1F624B61FC
:080396003FC4B8B17F79FA8B76
:080397003FC48715AD84CDF9C8
:080398003FC45576B1293E581F
:080399003FC423D4920E41671A
:08039A003FC3F22F57DB489628
:08039B003FC3C0870A383FFB95
:08039C003FC38EDBB0CD8D13D1
:08039D003FC35D2D53440DB375
:08039E003FC32B7BF94516ABB0
:08039F003FC2F9C7AA7A72B54A
:0803A0003FC2C8106E8E613AE5
:0803A1003FC296564D2B95401A
:0803A2003FC264994DFD340EC9
:0803A3003FC232D978AED4123A
:0803A4003FC20116D4EC7BCF2F
:0803A5003FC1CF516A62A07A4A
:0803A6003FC19D8940BE24EC1B
:0803A7003FC16BBE5FAC58655D
:0803A8003FC139F0CEDAF5780F
:0803A9003FC1082095F820B4C3
:0803AA003FC0D64DBCB2678CC8
:0803AB003FC0A4784AB8BF1D51
:0803AC003FC072A047BA831F95
:0803AD003FC040C5BB6774822C
:0803AE003FC00EE8AD6FB85A24
:0803AF003FBFBA124B07AD88F5
:0803B0003FBF564E56A973141D
:0803B1003FBEF2858D275625A1
:0803B2003FBE8EB7FDE4AA3E38
:0803B3003FBE2AE5B8457F7A40
:0803B4003FBDC70ECBAE9FD187
:0803B5003FBD633347858CF066
:0803B6003FBCFF533B307DC248
:0803B7003FBC9B6EB6165C47CB
:0803B8003FBC3785C79EC2DE81
:0803B9003FBBD3987F31FA0B22
:0803BA003FBB6FA6EC38F64EC4
:0803BB003FBB0BB11E1D555F95
:0803BC003FBAA7B724495C0E0B
:0803BD003FBA43B90E27F3C457
:0803BE003FB9DFB6EB24A86093
:0803BF003FB97BB0CAABA57881
:0803C0003FB917A6BC29B438AF
:0803C1003FB8B398CF0C38E1FE
:0803C2003FB84F8712C130A5BE
:0803C3003FB7EB7196B72EED78
:0803C4003FB787586A5D5B1F1B
:0803C5003FB7233B9D236E733B
:0803C6003FB6BF1B3E79B12FC9
:0803C7003FB65AF75DD0F8873C
:0803C8003FB5F6D00A9AA41813
:0803C9003FB592A554489BCCFE
:0803CA003FB52E774A4D4D129C
:0803CB003FB4CA45FC1BA8B2B7
:0803CC003FB466117927209669
:0803CD003FB401D9D0E3A50DF6
:0803CE003FB39D9F12C5A2A2DE
:0803CF003FB339614E41FFA468
:0803D0003FB2D52092CE19F8CE
:0803D1003FB270DCEFDFC461F4
:0803D2003FB20C9674ED445794
:0803D3003FB1A84D316D4F89C7
:0803D4003FB1440134D709B622
:0803D5003FB0DFB28EA201EF80
:0803D6003FB07B614E46306030
:0803D7003FB0170D833BF42237
:0803D8003FAF656E79F820EAE1
:0803D9003FAE9CBD15FF553B32
:0803DA003FADD406F9808EC589
:0803DB003FAD0B4C436F91D5BF
:0803DC003FAC428D12C0D7F0C6
:0803DD003FAB79C986698B8FE3
:0803DE003FAAB101BD5F8316C7
:0803DF003FA9E835D6993C8FD7
:0803E0003FA91F65F10DD824AF
:0803E1003FA856922BB513BB97
:0803E2003FA78DBAA5874688EC
:0803E3003FA6C4DF7D7D5B8FA6
:0803E4003FA5FC00D290CD57AB
:0803E5003FA5331EC3BBA0E7D6
:0803E6003FA46A396FF8617E43
:0803E7003FA3A150F6421B0ADE
:0803E8003FA2D865759455E4AD
:0803E9003FA20F770CEB11C6D7
:0803EA003FA14685DB42C187FB
:0803EB003FA07D91FF984591B0
:0803EC003F9F693731D1CEF4C7
:0803ED003F9DD7458C64AB3E37
:0803EE003F9C454F4CE53B33F9
:0803EF003F9AB354B1504FF2E4
:0803F0003F992155F7A3667740
:0803F1003F978F535DDC9F0F65
:0803F2003F95FD4D21FAB242D6
:0803F3003F946B4381FCE849D3
:0803F4003F92D936BBE30EFD78
:0803F5003F9147270DAD714453
:0803F6003F8F6A296AB9980FD4
:0803F7003F8C45FFE1E48AC1DF
:0803F8003F8921D1FCDEC78F13
:0803F9003F85FDA037AC060FA3
:0803FA003F82D96B0E509754AD
:0803FB003F7F6A65F9A2A3AE81
:0803FC003F7921F0FE67009F2C
:0803FD003F72D97822F9973113
:0803FE003F6921F8BECCA62FD7
:0803FF003F5921FAAEE6473038
:00000001ff
