:020000040000FA
:080000003FF0000000000000C9
:080001003FEFFFFF62161A3405
:080002003FEFFFFD88586EE698
:080003003FEFFFFA72C7105B2A
:080004003FEFFFF621621D022F
:080005003FEFFFF09429BF7AE0
:080006003FEFFFE9CB1E2E8D38
:080007003FEFFFE1C63FAD33FE
:080008003FEFFFD8858E8A92BC
:080009003FEFFFCE090B21FCC3
:08000A003FEFFFC250B5DAEF31
:08000B003FEFFFB55C8F2917E0
:08000C003FEFFFA72C978C4F7A
:08000D003FEFFF97C0CF909B6D
:08000E003FEFFF871937CE2FE9
:08000F003FEFFF7535D0E96BEE
:080010003FEFFF62169B92DB3B
:080011003FEFFF4DBB98873A59
:080012003FEFFF3824C88F6F97
:080013003FEFFF21522C808B0E
:080014003FEFFF0943C53BD19A
:080015003FEFFEEFF993AEACE2
:080016003FEFFED57398D2B74D
:080017003FEFFEB9B1D5ADB712
:080018003FEFFE9CB44B51A127
:080019003FEFFE7E7AFADC9451
:08001A003FEFFE5F05E578DB16
:08001B003FEFFE3E550C5CF0C6
:08001C003FEFFE1C6870CB777A
:08001D003FEFFDF9401413440C
:08001E003FEFFDD4DBF78F5228
:08001F003FEFFDAF3C1CA6CE33
:080020003FEFFD886084CD0D67
:080021003FEFFD6049318192BF
:080022003FEFFD36F624500CFF
:080023003FEFFD0C675ED057B2
:080024003FEFFCE09CE2A6792D
:080025003FEFFCB396B182A588
:080026003FEFFC8554CD213AA7
:080027003FEFFC55D7374AC436
:080028003FEFFC251DF1D3F8A8
:080029003FEFFBF328FE9DB937
:08002A003FEFFBBFF85F9515E5
:08002B003FEFFB8B8C16B3457F
:08002C003FEFFB55E425FDAE9A
:08002D003FEFFB1F008F85E18E
:08002E003FEFFAE6E155699885
:08002F003FEFFAAD8679D2BC67
:080030003FEFFA72EFFEF75DED
:080031003FEFFA371DE719B992
:080032003FEFF9FA10348837A2
:080033003FEFF9BBC6E99D6C2B
:080034003FEFF97C4208C01403
:080035003FEFF93B81946318D1
:080036003FEFF8F9858F058BFF
:080037003FEFF8B64DFB32ABC0
:080038003FEFF871DADB81DF14
:080039003FEFF82C2C3296BABF
:08003A003FEFF7E5420320F956
:08003B003FEFF79D1C4FDC8133
:08003C003FEFF753BB1B916479
:08003D003FEFF7091E6913DC17
:08003E003FEFF6BD463B444DC7
:08003F003FEFF67032950F4609
:080040003FEFF621E3796D7E2C
:080041003FEFF5D258EB63D646
:080042003FEFF58192EE035837
:080043003FEFF52F91846938AD
:080044003FEFF4DC54B1BED320
:080045003FEFF487DC7939ADCF
:080046003FEFF43228DE1B77C6
:080047003FEFF3DB39E3B207E0
:080048003FEFF3830F8D575CBD
:080049003FEFF329A9DE719FCE
:08004A003FEFF2CF08DA732149
:08004B003FEFF2732C84DA5B35
:08004C003FEFF21614E131ED63
:08004D003FEFF1B7C1F310A071
:08004E003FEFF15833BE1965C4
:08004F003FEFF0F76A45FB5496
:080050003FEFF095658E71ADE4
:080051003FEFF032259B43D87C
:080052003FEFEFCDAA704562FB
:080053003FEFEF67F4115601C5
:080054003FEFEF010282619110
:080055003FEFEE98D5C76016DD
:080056003FEFEE2F6DE455BAF7
:080057003FEFEDC4CADD52CCFD
:080058003FEFED58ECB673C454
:080059003FEFECEBD373E13D36
:08005A003FEFEC7D7F19CFFCA4
:08005B003FEFEC0DEFAC80E873
:08005C003FEFEB9D2530410F41
:08005D003FEFEB2B1FA969A680
:08005E003FEFEAB7DF1C60056B
:08005F003FEFEA43638D95AB0E
:080060003FEFE9CDAD01883A44
:080061003FEFE956BB7CC17CB6
:080062003FEFE8DE8F03D75CDD
:080063003FEFE865279B6BEB02
:080064003FEFE7EA85482D603B
:080065003FEFE76EA80ED61470
:080066003FEFE6F18FF42C845A
:080067003FEFE6733CFD03517D
:080068003FEFE5F3AF2E394034
:080069003FEFE572E68CB93AA5
:08006A003FEFE4F0E31D7A4AC8
:08006B003FEFE46DA4E57F9D69
:08006C003FEFE3E92BE9D88620
:08006D003FEFE363782FA07858
:08006E003FEFE2DC89BBFF0853
:08006F003FEFE254609427F01A
:080070003FEFE1CAFCBD5B0992
:080071003FEFE1405E3CE4506A
:080072003FEFE0B485181BE329
:080073003FEFE027715465FF27
:080074003FEFDF9922F733078B
:080075003FEFDF099A05FF7B54
:080076003FEFDE78D68653FD52
:080077003FEFDDE6D87DC55026
:080078003FEFDD539FF1F45648
:080079003FEFDCBF2CE88E1301
:08007A003FEFDC297F674BA971
:08007B003FEFDB929773F25B8B
:08007C003FEFDAFA7514538C12
:08007D003FEFDA61184E4CBCA4
:08007E003FEFD9C68127C78CB2
:08007F003FEFD92AAFA6B9BB7F
:080080003FEFD88DA3D1252626
:080081003FEFD7EF5DAD17C999
:080082003FEFD74FDD40ABBF9B
:080083003FEFD6AF2292073FC8
:080084003FEFD60D2DA75C9E95
:080085003FEFD569FE86EA5049
:080086003FEFD4C59536FAE402
:080087003FEFD41FF1BDE508B5
:080088003FEFD37914220B8431
:080089003FEFD2D0FC69DD3F1E
:08008A003FEFD227AA9BD53BF2
:08008B003FEFD17D1EBE7A9506
:08008C003FEFD0D158D8608786
:08008D003FEFD02458F0266774
:08008E003FEFCF761F0C77A3B2
:08008F003FEFCEC6AB340BC8F5
:080090003FEFCE15FD6DA67BCC
:080091003FEFCD6415C0177BA1
:080092003FEFCCB0F4323AA3B9
:080093003FEFCBFC98CAF7E730
:080094003FEFCB4703914354F9
:080095003FEFCA90348C1D11ED
:080096003FEFC9D82BC2915EB7
:080097003FEFC91EE93BB893DD
:080098003FEFC8646CFEB721C4
:080099003FEFC7A8B712BD92AA
:08009A003FEFC6EBC77F0887AA
:08009B003FEFC62D9E4AE0B8BC
:08009C003FEFC56E3B7D9AF6B3
:08009D003FEFC4AD9F1E98283F
:08009E003FEFC3EBC935454CEF
:08009F003FEFC328B9C91B772C
:0800A0003FEFC26470E19FD341
:0800A1003FEFC19EEE8663A251
:0800A2003FEFC0D832BF043A61
:0800A3003FEFC0103D932B0656
:0800A4003FEFBF470F0A8D88F2
:0800A5003FEFBE7CA72CED54D7
:0800A6003FEFBDB10602181680
:0800A7003FEFBCE42B91E78B55
:0800A8003FEFBC1617E441868E
:0800A9003FEFBB46CB0117EC51
:0800AA003FEFBA7644F068B59F
:0800AB003FEFB9A485BA3DEF57
:0800AC003FEFB8D18D66ADB73E
:0800AD003FEFB7FD5BFDDA3EF9
:0800AE003FEFB727F187F1C70E
:0800AF003FEFB6514E0D2EA6E5
:0800B0003FEFB5797195D741CE
:0800B1003FEFB4A05C2A3E10F1
:0800B2003FEFB3C60DD2C19966
:0800B3003FEFB2EA8697CC751D
:0800B4003FEFB20DC681D54DEE
:0800B5003FEFB12FCD995ED79A
:0800B6003FEFB0509BE6F7DBC1
:0800B7003FEFAF7031733B30E5
:0800B8003FEFAE8E8E46CFBB78
:0800B9003FEFADABB26A686FC6
:0800BA003FEFACC79DE6C44F07
:0800BB003FEFABE250C4AE6957
:0800BC003FEFAAFBCB0CFDDCB9
:0800BD003FEFAA140CC895CF17
:0800BE003FEFA92B1600657C41
:0800BF003FEFA840E6BD6824F4
:0800C0003FEFA7557F08A517CB
:0800C1003FEFA668DEEB2FAF54
:0800C2003FEFA57B066E2754F9
:0800C3003FEFA48BF59AB7761C
:0800C4003FEFA39BAC7A1791FA
:0800C5003FEFA2AA2B158B2BC3
:0800C6003FEFA1B7717661D58F
:0800C7003FEFA0C37FA5F7295C
:0800C8003FEF9FCE55ADB2C819
:0800C9003FEF9ED7F39708609A
:0800CA003FEF9DE0596B77A3A5
:0800CB003FEF9CE787348C50E5
:0800CC003FEF9BED7CFBDE29F8
:0800CD003FEF9AF23ACB10FA62
:0800CE003FEF99F5C0ABD49699
:0800CF003FEF98F80EA7E4D7FB
:0800D0003FEF97F924C9099BD9
:0800D1003FEF96F9031916C771
:0800D2003FEF95F7A9A1EC47EF
:0800D3003FEF94F5186D760B68
:0800D4003FEF93F14F85AC08EA
:0800D5003FEF92EC4EF492356E
:0800D6003FEF91E616C43891DA
:0800D7003FEF90DEA6FEBB1D09
:0800D8003FEF8FD5FFAE41DBC5
:0800D9003FEF8ECC20DD00D3C7
:0800DA003FEF8DC10A95380DBE
:0800DB003FEF8CB4BCE133954A
:0800DC003FEF8BA737CB4B78F7
:0800DD003FEF8A987B5DE3C24E
:0800DE003FEF898887A36C84C1
:0800DF003FEF88775CA661CCBD
:0800E0003FEF8764FA714BA9A0
:0800E1003FEF8651610EBE2BBA
:0800E2003FEF853C9089595E57
:0800E3003FEF842688EBC950B1
:0800E4003FEF830F4A40C60CF8
:0800E5003FEF81F6D493139B59
:0800E6003FEF80DD27ED8204ED
:0800E7003FEF7FC2445AED4ACD
:0800E8003FEF7EA629E63D6E04
:0800E9003FEF7D88D89A666D97
:0800EA003FEF7C6A5082684080
:0800EB003FEF7B4A91A94EDAB8
:0800EC003FEF7A299C1A322A29
:0800ED003FEF79076FE0361BBD
:0800EE003FEF77E40D068A9054
:0800EF003FEF76BF73986B67C9
:0800F0003FEF7599A3A12077F1
:0800F1003FEF74729D2BFD909E
:0800F2003FEF734A604462799C
:0800F3003FEF7220ECF5BAF4B6
:0800F4003FEF70F6434B7EB7AD
:0800F5003FEF6FCA6351317245
:0800F6003FEF6E9D4D1262CA3E
:0800F7003FEF6D6F009AAE5C53
:0800F8003FEF6C3F7DF5BBB743
:0800F9003FEF6B0EC52F3E64C2
:0800FA003FEF69DCD652F5DE90
:0800FB003FEF68A9B16CAD965E
:0800FC003FEF677556883CEEEA
:0800FD003FEF663FC5B18740EB
:0800FE003FEF6508FEF47BD51D
:0800FF003FEF63D1025D15EA39
:080100003FEF6297CFF75CB0FE
:080101003FEF615D67CF63472A
:080102003FEF6021C9F148C282
:080103003FEF5EE4F6693822CB
:080104003FEF5DA6ED43685DCD
:080105003FEF5C67AE8C1C5457
:080106003FEF5B273A4FA2D93D
:080107003FEF59E5909A56AF55
:080108003FEF58A2B1789E847C
:080109003FEF575E9CF6ECF697
:08010A003FEF56195321C0908C
:08010B003FEF54D2D405A3CA52
:08010C003FEF538B1FAF2D07DD
:08010D003FEF5242362AFE9832
:08010E003FEF50F81785C6B958
:08010F003FEF4FACC3CC3F8F62
:080110003FEF4E603B0B2F2D69
:080111003FEF4D127D4F678D99
:080112003FEF4BC38AA5C69420
:080113003FEF4A73631B360F36
:080114003FEF492206BCABB429
:080115003FEF47CF7597292346
:080116003FEF467BAFB7BBE0F1
:080117003FEF4526B52B7D5793
:080118003FEF43D085FF92DDAB
:080119003FEF427922412DA9BC
:08011A003FEF412089FD8ADC62
:08011B003FEF3FC6BD41F37840
:08011C003FEF3E6BBC1BBC650C
:08011D003FEF3D0F869846708C
:08011E003FEF3BB21CC4FE4799
:08011F003FEF3A537EAF5C7E16
:080120003FEF38F3AC64E58900
:080121003FEF3792A5F329BE60
:080122003FEF36306B67C55654
:080123003FEF34CCFCD0606911
:080124003FEF33685A3AAEF0D8
:080125003FEF320283B470C504
:080126003FEF309B794B719F04
:080127003FEF2F333B0D89155A
:080128003FEF2DC9C9089A9DA3
:080129003FEF2C5F234A95888B
:08012A003FEF2AF349E17507DC
:08012B003FEF29863CDB402672
:08012C003FEF2817FC4609CE45
:08012D003FEF26A8882FF0C166
:08012E003FEF2537E0A71F9FFA
:08012F003FEF23C605B9CCE146
:080130003FEF2252F7763ADAA4
:080131003FEF20DEB5EAB7B68E
:080132003FEF1F6941259D7A92
:080133003FEF1DF29935520463
:080134003FEF1C7ABE284708CA
:080135003FEF1B01B00CFA13AF
:080136003FEF19876EF1F4861A
:080137003FEF180BFAE5CB9A2B
:080138003FEF168F53F7205D25
:080139003FEF15117A349FB16C
:08013A003FEF13926DAD024E80
:08013B003FEF12122E6F0CBE03
:08013C003FEF1090BC898F5FBA
:08013D003FEF0F0E180B666086
:08013E003FEF0D8A410379C572
:08013F003FEF0C053780BD60A5
:080140003FEF0A7EFB9230D76D
:080141003FEF08F78D46DF9E39
:080142003FEF076EECADE0FA9F
:080143003FEF05E519D657FE58
:080144003FEF045A14CF738C45
:080145003FEF02CDDDA86E546E
:080146003FEF014074708ED3FD
:080147003FEEFFB1D937275448
:080148003FEEFE220C0B95ECCA
:080149003FEEFC910CFD447E29
:08014A003FEEFAFEDC1BA8B732
:08014B003FEEF96B7976440CDC
:08014C003FEEF7D6E51CA3C04D
:08014D003FEEF6411F1E60DBCE
:08014E003FEEF4AA278B2032DA
:08014F003FEEF311FE72925F16
:080150003FEEF178A3E473C255
:080151003FEEEFDE17F08C8693
:080152003FEEEE425AA6B09AFE
:080153003FEEECA56C16BFB1F4
:080154003FEEEB074C50A544FF
:080155003FEEE967FB645893DB
:080156003FEEE7C77961DC9E72
:080157003FEEE625C6594029E0
:080158003FEEE482E25A9DBC77
:080159003FEEE2DECD761B9FB4
:08015A003FEEE13987BBEBDC4D
:08015B003FEEDF93113C4C3F25
:08015C003FEEDDEB6A0786515E
:08015D003FEEDC42922DEF5C45
:08015E003FEEDA9889BFE86A60
:08015F003FEED8ED50CDDE406B
:080160003FEED740E768496358
:080161003FEED5934D9FAE1552
:080162003FEED3E483849C51BD
:080163003FEED2348927AFD131
:080164003FEED0835E99900983
:080165003FEECED103EAF026C3
:080166003FEECD1D792C8F1036
:080167003FEECB68BE6F376765
:080168003FEEC9B2D3C3BF840E
:080169003FEEC7FBB93B09782A
:08016A003FEEC6436EE60309F7
:08016B003FEEC489F4D5A5B6EE
:08016C003FEEC2CF4B1AF6B2C0
:08016D003FEEC11371C706E665
:08016E003FEEBF5668EAF2EF14
:08016F003FEEBD983097E31D3F
:080170003FEEBBD8C8DF0B74A1
:080171003FEEBA1831D1ABAB2F
:080172003FEEB8566B810F2A25
:080173003FEEB69375FE8D0806
:080174003FEEB4CF515B88118E
:080175003FEEB309FDA96EBDC8
:080176003FEEB1437AF9BB34FE
:080177003FEEAF7BC95DF34EC2
:080178003FEEADB2E8E7A88EEE
:080179003FEEABE8D9A87825A0
:08017A003FEEAA1D9BB20AF33F
:08017B003FEEA8512F1615807C
:08017C003FEEA68393E6580054
:08017D003FEEA4B4CA349E5306
:08017E003FEEA2E4D212C00022
:08017F003FEEA113AB92A03A80
:080180003FEE9F4156C62DDA47
:080181003FEE9D6DD3BF6361E9
:080182003FEE9B99229046F824
:080183003FEE99C3434AEA6B09
:080184003FEE97EC36016B30F1
:080185003FEE9613FAC5F25F8C
:080186003FEE943A91AAB4B4D3
:080187003FEE925FFAC1F28F16
:080188003FEE9084361DF7F3F1
:080189003FEE8EA743D11C8458
:08018A003FEE8CC923EDC38890
:08018B003FEE8AE9D6865BE62F
:08018C003FEE89095BAD60251F
:08018D003FEE8727B3755668A9
:08018E003FEE8544DDF0D07561
:08018F003FEE8360DB326BAC34
:080190003FEE817BAB4CD10D69
:080191003FEE7F954E52B5319F
:080192003FEE7DADC456D850CC
:080193003FEE7BC50D6C063A3E
:080194003FEE79DB29A5165AA4
:080195003FEE77F01914EBB501
:080196003FEE7603DBCE74E9B5
:080197003FEE741671E4AC2A7E
:080198003FEE7227DB6A974479
:080199003FEE70381873479B1C
:08019A003FEE6E472911DA2740
:08019B003FEE6C550D5977751C
:08019C003FEE6A61C55D53A747
:08019D003FEE686D5130AE72B7
:08019E003FEE6677B0E6D31EC8
:08019F003FEE6480E493188533
:0801A0003FEE6288EC48E11219
:0801A1003FEE608FC81B9AC1FC
:0801A2003FEE5E95781EBF1CC4
:0801A3003FEE5C99FC65D340BE
:0801A4003FEE5A9D550467D39C
:0801A5003FEE589F820E190E77
:0801A6003FEE56A083968EB1D6
:0801A7003FEE54A059B17C0D9C
:0801A8003FEE529F04729FFC20
:0801A9003FEE509C83EDC4E31E
:0801AA003FEE4E98D836C0AFBD
:0801AB003FEE4C94016174D891
:0801AC003FEE4A8DFF81CE5E9B
:0801AD003FEE4886D2ABC5C845
:0801AE003FEE467E7AF35F2369
:0801AF003FEE4474F86CAA0253
:0801B0003FEE426A4B2BC17EB9
:0801B1003FEE405E7344CC35C3
:0801B2003FEE3E5170CBFC460C
:0801B3003FEE3C4343D58F549D
:0801B4003FEE3A33EC75CE85F5
:0801B5003FEE38236AC10E7F02
:0801B6003FEE3611BECBAF692C
:0801B7003FEE33FEE8AA1CE94B
:0801B8003FEE31EAE870CE25AC
:0801B9003FEE2FD5BE3445BF17
:0801BA003FEE2DBF6A0911D9C7
:0801BB003FEE2BA7EC03CC0F73
:0801BC003FEE298F4439197A46
:0801BD003FEE277572BDAAAEEA
:0801BE003FEE255A77A63BB87D
:0801BF003FEE233E530794209C
:0801C0003FEE212104F686E563
:0801C1003FEE1F028D87F27D65
:0801C2003FEE1CE2ECD0C0D8B6
:0801C3003FEE1AC222E5E759E4
:0801C4003FEE18A02FDC66D904
:0801C5003FEE167D13C94BA7A4
:0801C6003FEE1458CEC1AD83D9
:0801C7003FEE123360DAAFA332
:0801C8003FEE100CCA2980ACC7
:0801C9003FEE0DE50AC35AB632
:0801CA003FEE0BBC22BD83498E
:0801CB003FEE0992122D4B5B7F
:0801CC003FEE0766D9280F542D
:0801CD003FEE053A77C3370845
:0801CE003FEE030CEE1435B8FE
:0801CF003FEE00DE3C308A1017
:0801D0003FEDFEAE622DBE2BD7
:0801D1003FEDFC7D6021678B0E
:0801D2003FEDFA4B3621271D19
:0801D3003FEDF817E442A939E1
:0801D4003FEDF5E36A9BA59CD9
:0801D5003FEDF3ADC941DF6C01
:0801D6003FEDF177004B2534E9
:0801D7003FEDEF3F0FCD50E6B4
:0801D8003FEDED05F7DE47DA0B
:0801D9003FEDEACBB893FAC830
:0801DA003FEDE890520465CEF0
:0801DB003FEDE653C445906BB3
:0801DC003FEDE4160F6D8D816B
:0801DD003FEDE1D733927B51A5
:0801DE003FEDDF9730CA837B7F
:0801DF003FEDDD56072BDB00AC
:0801E0003FEDDB13B6CCC23D7C
:0801E1003FEDD8D03FC384ECD0
:0801E2003FEDD68BA2267A2521
:0801E3003FEDD445DE0C045B86
:0801E4003FEDD1FEF38A915AB0
:0801E5003FEDCFB6E2B89A48E5
:0801E6003FEDCD6DABACA3A50C
:0801E7003FEDCB234E7D3D49A5
:0801E8003FEDC8D7CB410260D6
:0801E9003FEDC68B220E997157
:0801EA003FEDC43D52FCB4538B
:0801EB003FEDC1EE5E2210366B
:0801EC003FEDBF9E4395759A9B
:0801ED003FEDBD4D036DB85557
:0801EE003FEDBAFA9DC1B78D87
:0801EF003FEDB8A712A85DB7AF
:0801F0003FEDB6526238A09BFE
:0801F1003FEDB3FC8C89814F46
:0801F2003FEDB1A591B20C38FC
:0801F3003FEDAF4D71C9590643
:0801F4003FEDACF42CE68AB9E2
:0801F5003FEDAA99C320CF9948
:0801F6003FEDA83E348F613B90
:0801F7003FEDA5E18149847E82
:0801F8003FEDA383A96689888D
:0801F9003FEDA124ACFDCBC8D1
:0801FA003FED9EC48C26B1F319
:0801FB003FED9C6346F8AE08DD
:0801FC003FED9A00DD8B3D464A
:0801FD003FED979D4FF5E8343A
:0801FE003FED95389E50429B35
:0801FF003FED92D2C8B1EB887C
:080200003FED906BCF328D46FB
:080201003FED8E03B1E9DD665B
:080202003FED8B9A70EF9CB4F4
:080203003FED89300C5B973ED2
:080204003FED86C48445A450BF
:080205003FED8457D8C5A66F38
:080206003FED81EA09F38B636F
:080207003FED7F7B17E74C2857
:080208003FED7D0B02B8ECF99B
:080209003FED7A99CA807D4A9D
:08020A003FED78276F5617C67F
:08020B003FED75B3F151E24F24
:08020C003FED733F508C0DFF24
:08020D003FED70C98D1CD726DE
:08020E003FED6E52A71C85476D
:08020F003FED6BDA9EA36B1BAF
:080210003FED696173C9E68B43
:080211003FED66E726A860B589
:080212003FED646BB7574DE5A9
:080213003FED61EF25EF2D998D
:080214003FED5F7172888A7FE3
:080215003FED5CF29D3BFA7025
:080216003FED5A72A6221E738F
:080217003FED57F18D53A2BF2A
:080218003FED556F52E93EB1C4
:080219003FED52EBF6FBB4D3FC
:08021A003FED506779A3D2D932
:08021B003FED4DE1DAFA719D9F
:08021C003FED4B5B1B1875243C
:08021D003FED48D33A16CC96E0
:08021E003FED464A380E724222
:08021F003FED43C015186B9B75
:080220003FED4134D14DC93A14
:080221003FED3EA86CC7A6D713
:080222003FED3C1AE79F2B4E53
:080223003FED398C41ED889C90
:080224003FED36FC7BCBFBDC57
:080225003FED346B9553CD4809
:080226003FED31D98E9E503AE4
:080227003FED2F4667C4E327F9
:080228003FED2CB220E0EF9F36
:080229003FED2A1CBA0BEA4F5D
:08022A003FED2786335F52FC13
:08022B003FED24EE8CF4B485D4
:08022C003FED2255C6E5A4E1F7
:08022D003FED1FBBE14BC51DB5
:08022E003FED1D20DC40C15C26
:08022F003FED1A84B7DE50D840
:080230003FED17E7743E35DCD9
:080231003FED1549117A3DC8AB
:080232003FED12A98FAC410C55
:080233003FED1008EEEE232C54
:080234003FED0D672F59D2B90F
:080235003FED0AC451094954D0
:080236003FED082054168BACCB
:080237003FED057B389BA97F18
:080238003FED02D4FEB2BD92BD
:080239003FED002DA675EDBBA1
:08023A003FECFD852FFF6AD4A3
:08023B003FECFADB9B6970C582
:08023C003FECF830E8CE467BF0
:08023D003FECF58518483DEA8D
:08023E003FECF2D829F1B40EE7
:08023F003FECF02A1DE510E57B
:080240003FECED7AF43CC773BA
:080241003FECEACAAD1355BE03
:080242003FECE819488344CEAB
:080243003FECE566C6A728ACFC
:080244003FECE2B32799A06032
:080245003FECDFFE6B7555F183
:080246003FECDD489254FE6517
:080247003FECDA919C5359BD14
:080248003FECD7D9898B32F697
:080249003FECD5205A176008B4
:08024A003FECD2660E12C1E682
:08024B003FECCFAAA59844770F
:08024C003FECCCEE20C2DE9F66
:08024D003FECCA307FAD923690
:08024E003FECC771C2736C099B
:08024F003FECC4B1E92F83D993
:080250003FECC1F0F3FCFC5C83
:080251003FECBF2EE2F7033A77
:080252003FECBC6BB638D10B88
:080253003FECB9A76DDDA958CD
:080254003FECB6E20A00DA9962
:080255003FECB41B8ABDBE346E
:080256003FECB153F02FB87D1D
:080257003FECAE8B3A7238B3A4
:080258003FECABC169A0B90144
:080259003FECA8F67DD6BE784B
:08025A003FECA62A772FD91909
:08025B003FECA35D55C7A3C5EC
:08025C003FECA08F19B9C44961
:08025D003FEC9DBFC321EB56ED
:08025E003FEC9AEF521BD48023
:08025F003FEC981DC6C34641A7
:080260003FEC954B213411F530
:080261003FEC9277618A13D78C
:080262003FEC8FA287E1330598
:080263003FEC8CCC9455617B4B
:080264003FEC89F587029C13B1
:080265003FEC871D6004EA84F0
:080266003FEC84441F785F6146
:080267003FEC8169C57918190B
:080268003FEC7E8E52233CF3B3
:080269003FEC7BB1C5930110CD
:08026A003FEC78D41FE4A26709
:08026B003FEC75F5613469C830
:08026C003FEC7315899EAAD72F
:08026D003FEC7034993FC40B13
:08026E003FEC6D5290341EB20A
:08026F003FEC6A6F6E982EE768
:080270003FEC678B3488739B9F
:080271003FEC64A5E221768C4C
:080272003FEC61BF777FCC482F
:080273003FEC5ED7F4C0142A31
:080274003FEC5BEF59FEF85A64
:080275003FEC5905A7592DCCFF
:080276003FEC561ADCEB743E6C
:080277003FEC532EFAD296373A
:080278003FEC5042012B690725
:080279003FEC4D53F012CCC51F
:08027A003FEC4A64C7A5AC4C3F
:08027B003FEC47748800FD40D0
:08027C003FEC44833141C00452
:08027D003FEC4190C384FFC275
:08027E003FEC3E9D3EE7D26219
:08027F003FEC3BA8A387588F58
:080280003FEC38B2F180BDB182
:080281003FEC35BC28F137F019
:080282003FEC32C449F60831DB
:080283003FEC2FCB54AC7A12C2
:080284003FEC2CD14931E3F1FC
:080285003FEC29D627A3A6E1F6
:080286003FEC26D9F01F2EAF5A
:080287003FEC23DCA2C1F1E110
:080288003FEC20DE3FA971B03C
:080289003FEC1DDEC6F33A0C48
:08028A003FEC1ADE38BCE19BD9
:08028B003FEC17DC952409B1DA
:08028C003FEC14D9DC465E587A
:08028D003FEC11D60E4196482A
:08028E003FEC0ED12B3372E9A5
:08028F003FEC0BCB3339C053E7
:080290003FEC08C42672554939
:080291003FEC05BC04FB133A2D
:080292003FEC02B2CEF1E6419F
:080293003FEBFFA88474C521B4
:080294003FEBFC9D25A1B147E1
:080295003FEBF990B296B6C7E9
:080296003FEBF6832B71EC5BDA
:080297003FEBF3749051736119
:080298003FEBF064E15377DD58
:080299003FEBED541E9630749A
:08029A003FEBEA424837DE6D3C
:08029B003FEBE72F5E56CDAFEB
:08029C003FEBE41B611154C1AA
:08029D003FEBE1065085D4C7D8
:08029E003FEBDDF02CD2B98327
:08029F003FEBDAD8F6167951A5
:0802A0003FEBD7C0AC6F952ABB
:0802A1003FEBD4A74FFC989E2F
:0802A2003FEBD18CE0DC19D622
:0802A3003FEBCE715F2CB99115
:0802A4003FEBCB54CB0D2327E7
:0802A5003FEBC837249C0C81DB
:0802A6003FEBC5186BF8361D93
:0802A7003FEBC1F8A1406B0A16
:0802A8003FEBBED7C49380EACE
:0802A9003FEBBBB5D61057EE88
:0802AA003FEBB892D5D5DAD57F
:0802AB003FEBB56EC402FEEC4E
:0802AC003FEBB249A0B6C40DFE
:0802AD003FEBAF236C10349C01
:0802AE003FEBABFC262E658638
:0802AF003FEBA8D3CF307644E9
:0802B0003FEBA5AA673590D2CF
:0802B1003FEBA27FEE5CE9B80F
:0802B2003FEB9F5464C5BFFC43
:0802B3003FEB9C27CA8F5D2E72
:0802B4003FEB98FA1FD9155E1B
:0802B5003FEB95CB64C2471E2C
:0802B6003FEB929B996A5B7F0C
:0802B7003FEB8F6ABDF0C61396
:0802B8003FEB8C38D27504E91C
:0802B9003FEB8905D716A08B6D
:0802BA003FEB85D1CBF52C02CE
:0802BB003FEB829CB13044CE00
:0802BC003FEB7F6686E792EA42
:0802BD003FEB7C2F4D3AC8C64F
:0802BE003FEB78F70449A34B64
:0802BF003FEB75BDAC33E9D83B
:0802C0003FEB728345196E3E0D
:0802C1003FEB6F47CF1A0CC0A0
:0802C2003FEB6C0B4A55AC1731
:0802C3003FEB68CDB6EC3D678E
:0802C4003FEB658F14FDBC4700
:0802C5003FEB624F64AA2EBB5F
:0802C6003FEB5F0EA611A5320B
:0802C7003FEB5BCCD9543A89EE
:0802C8003FEB5889FE9214057A
:0802C9003FEB554615EB6156B1
:0802CA003FEB52011F805C9222
:0802CB003FEB4EBB1B714A36EC
:0802CC003FEB4B7409DE7925BC
:0802CD003FEB482BEAE842A6D2
:0802CE003FEB44E2BEAF0A6100
:0802CF003FEB419885533E61AD
:0802D0003FEB3E4D3EF55712D5
:0802D1003FEB3B00EBB5D73C0D
:0802D2003FEB37B38BB54C097B
:0802D3003FEB34651F144CFBE6
:0802D4003FEB3115A5F37BF4AB
:0802D5003FEB2DC52073852BC2
:0802D6003FEB2A738EB51F33C4
:0802D7003FEB2720F0D90AF6E5
:0802D8003FEB23CD470013B4F6
:0802D9003FEB2078914B0F026E
:0802DA003FEB1D22CFDADCC668
:0802DB003FEB19CC02D0673E95
:0802DC003FEB16742A4CA2F559
:0802DD003FEB131B46708EC6B7
:0802DE003FEB0FC1575D33DB5C
:0802DF003FEB0C665D33A5AD99
:0802E0003FEB090A581502006A
:0802E1003FEB05AD482270E17E
:0802E2003FEB024F2D7D24A922
:0802E3003FEAFEF0084659F95C
:0802E4003FEAFB8FD89F57B6DB
:0802E5003FEAF82E9EA96F0FFD
:0802E6003FEAF4CC5A85FB73DA
:0802E7003FEAF1690C5662992F
:0802E8003FEAEE04B43C14747B
:0802E9003FEAEA9F52588B3CEA
:0802EA003FEAE738E6CD4B675F
:0802EB003FEAE3D171BBE3A877
:0802EC003FEAE068F345ECEF86
:0802ED003FEADCFF6B8D0A689B
:0802EE003FEAD994DAB2E97984
:0802EF003FEAD62940D941BFC6
:0802F0003FEAD2BC9E21D511AA
:0802F1003FEACF4EF2AE6F7A36
:0802F2003FEACBE03EA0E73B30
:0802F3003FEAC870821B1CC821
:0802F4003FEAC4FFBD3EFAC859
:0802F5003FEAC18DF02E7612E4
:0802F6003FEABE1B1B0B8DAC9F
:0802F7003FEABAA73DF84ACC2A
:0802F8003FEAB7325916C0D4E9
:0802F9003FEAB3BC6C890D5310
:0802FA003FEAB045787157FF9F
:0802FB003FEAACCD7CF1D2BA60
:0802FC003FEAA9547A2CB98EE7
:0802FD003FEAA5DA704452A9A2
:0802FE003FEAA25F5F5AEE60C7
:0802FF003FEA9EE34792E72A63
:080300003FEA9B66290EA1A350
:080301003FEA97E803F08C8647
:080302003FEA9468D85B20AECD
:080303003FEA90E8A670E11545
:080304003FEA8D676E545AD2E6
:080305003FEA89E530282518C4
:080306003FEA8661EC0EE133D1
:080307003FEA82DDA22B3A8BD4
:080308003FEA7F58529FE69D79
:080309003FEA7BD1FD8FA4FD4A
:08030A003FEA784AA31D3F55AC
:08030B003FEA74C2436B8962F2
:08030C003FEA7138DE9D60F547
:08030D003FEA6DAE74D5ADECC2
:08030E003FEA6A230637623B57
:08030F003FEA669692E579DEF3
:080310003FEA63091B02FAE257
:080311003FEA5F7A9EB2F55E3F
:080312003FEA5BEB1E18837546
:080313003FEA585A9956C950FF
:080314003FEA54C91090F524E2
:080315003FEA513683EA3F265E
:080316003FEA4DA2F385E997CF
:080317003FEA4A0E5F8740B780
:080318003FEA4678C8119AC8BB
:080319003FEA42E22D485810B2
:08031A003FEA3F4A8F4EE2D298
:08031B003FEA3BB1EE48AF4F91
:08031C003FEA38184A593BC6BC
:08031D003FEA347DA3A4107037
:08031E003FEA30E1FA4CBF8117
:08031F003FEA2D454E76E5276B
:080320003FEA29A7A04627824D
:080321003FEA2608EFDE36AECC
:080322003FEA22693D62CCB9FB
:080323003FEA1EC888F7ADA2F5
:080324003FEA1B26D2C0A75ED0
:080325003FEA17841AE191CFB1
:080326003FEA13E0617E4EC7BF
:080327003FEA103BA6BACA052B
:080328003FEA0C95EABAF9372F
:080329003FEA08EF2DA2DBF111
:08032A003FEA05476F967BB521
:08032B003FEA019EB0B9EBE9C5
:08032C003FE9FDF4F13149DE67
:08032D003FE9FA4A3120BCC887
:08032E003FE9F69E70AC75BCBE
:08032F003FE9F2F1AFF8AFB7AE
:080330003FE9EF43EF29AF9410
:080331003FE9EB952E63C40EB9
:080332003FE9E7E56DCB45BD95
:080333003FE9E434AD849719A1
:080334003FE9E082EDB4247200
:080335003FE9DCD02E7E63F6E7
:080336003FE9D91C7007D5A6B0
:080337003FE9D567B2750360D0
:080338003FE9D1B1F5EA80D6DE
:080339003FE9CDFB3A8CEB8C8F
:08033A003FE9CA438080EADBC1
:08033B003FE9C68AC7EB2FF071
:08033C003FE9C2D110F075C3C6
:08033D003FE9BF165BB5811E0C
:08033E003FE9BB5AA85F2098BB
:08033F003FE9B79DF7122C9570
:080340003FE9B3E047F38741F8
:080341003FE9B0219B281C924A
:080342003FE9AC61F0D4E24791
:080343003FE9A8A1491ED7E41F
:080344003FE9A4DFA42B06B27F
:080345003FE9A11D021E81BD6C
:080346003FE99D59631E65D5D6
:080347003FE99994C74FD987E3
:080348003FE995CF2ED80D22EC
:080349003FE9920899DC3AB289
:08034A003FE98E410881A60085
:08034B003FE98A787AED9C8BF2
:08034C003FE986AEF14575940E
:08034D003FE982E46BAE920C63
:08034E003FE97F18EA4E5C9EB6
:08034F003FE97B4C6D4A49A90E
:080350003FE9777EF4C7D742B4
:080351003FE973B080EC8D2D33
:080352003FE96FE111DDFCE061
:080353003FE96C10A7C1C18055
:080354003FE9683F42BD7FE173
:080355003FE9646CE2F6E68268
:080356003FE960998893AD8C2A
:080357003FE95CC533B996D5FE
:080358003FE958EFE48E6DD778
:080359003FE955199B3807B577
:08035A003FE9514257DC433535
:08035B003FE94D6A1AA108C335
:08035C003FE94990E3AC4A6C53
:08035D003FE945B6B32403DEBD
:08035E003FE941DB892E3A65FD
:08035F003FE93DFF65F0FCEDF4
:080360003FE93A22499263FCD7
:080361003FE93644343891B342
:080362003FE932652609B1CF25
:080363003FE92E851F2BF9A2D2
:080364003FE92AA41FC5A815FA
:080365003FE926C227FD05A7B0
:080366003FE922DF37F8646A69
:080367003FE91EFB4FDE2002FE
:080368003FE91B166FD49DA2B2
:080369003FE9173098024C0E29
:08036A003FE91349C88DA39877
:08036B003FE90F62019D261A13
:08036C003FE90B7943575EFEE7
:08036D003FE9078F8DE2E33444
:08036E003FE903A4E1665133ED
:08036F003FE8FFB93E0850FB16
:080370003FE8FBCCA3EF940D64
:080371003FE8F7DF1342D570ED
:080372003FE8F3F08C28D9AC40
:080373003FE8F0010EC86EC75F
:080374003FE8EC109B486C49C6
:080375003FE8E81F31CFB3356A
:080376003FE8E42CD2852E0AB9
:080377003FE8E0397D8FD0C1A1
:080378003FE8DC45331698CC88
:080379003FE8D84FF3408D1559
:08037A003FE8D459BE34BDFA7E
:08037B003FE8D062941A454DE1
:08037C003FE8CC6A75184655F4
:08037D003FE8C8716155EDC7AE
:08037E003FE8C47758FA71CB87
:08037F003FE8C07C5C2D11F287
:080380003FE8BC806B1517413A
:080381003FE8B88385D9D421BF
:080382003FE8B485ACA2A468B9
:080383003FE8B086DF96ED5360
:080384003FE8AC871EDE1D8876
:080385003FE8A8866A9FAD0E57
:080386003FE8A484C3031D50ED
:080387003FE8A082282FF920B5
:080388003FE89C7E9A4DD4ABC6
:080389003FE8987A19844D7ECB
:08038A003FE89474A5FB0A840E
:08038B003FE8906E3FD9BC056C
:08038C003FE88C66E7481BA165
:08038D003FE8885E9C6DEC5214
:08038E003FE884555F72FA6B31
:08038F003FE8804B307F1B9119
:080390003FE87C400FBA2EBFCC
:080391003FE87833FD4C1C43EA
:080392003FE87426F95CD5BDBB
:080393003FE87019041456192B
:080394003FE86C0A1D9AA195D7
:080395003FE867FA4617C5BAFC
:080396003FE863E97DB3D95A89
:080397003FE85FD7C496FC9417
:080398003FE85BC51AE958CCEF
:080399003FE857B180D320AE0C
:08039A003FE8539CF67C90291A
:08039B003FE84F877C0DEC7177
:08039C003FE84B7111AF83F93A
:08039D003FE84759B789AE792A
:08039E003FE843416DC4CCE2CD
:08039F003FE83F28348949665C
:0803A0003FE83B0E0BFF976ED6
:0803A1003FE836F2F45033A2EC
:0803A2003FE832D6EDA3A3E011
:0803A3003FE82EB9F822773B78
:0803A4003FE82A9C13F545FF18
:0803A5003FE8267D4144B1A8A8
:0803A6003FE8225D803964E5A7
:0803A7003FE81E3CD0FC139757
:0803A8003FE81A1B33B57ACCC3
:0803A9003FE815F8A88E60C1C1
:0803AA003FE811D52FAF94DCF0
:0803AB003FE80DB0C941EFB1BC
:0803AC003FE8098B756E52FA5F
:0803AD003FE80565345DA99AE3
:0803AE003FE8013E0638E79527
:0803AF003FE7FD15EB290A18D8
:0803B0003FE7F8ECE357177179
:0803B1003FE7F4C2EEEC1F0C63
:0803B2003FE7F0980E113978C5
:0803B3003FE7EC6C40EF885EAF
:0803B4003FE7E83F87B0368601
:0803B5003FE7E411E27C77D17F
:0803B6003FE7DFE3517D8937C9
:0803B7003FE7DBB3D4DCB0CB5F
:0803B8003FE7D7836CC33DB29F
:0803B9003FE7D352195A8828CE
:0803BA003FE7CF1FDACBF17918
:0803BB003FE7CAECB140E40386
:0803BC003FE7C6B89CE2D33311
:0803BD003FE7C2839DDB3B8496
:0803BE003FE7BE4DB453A27CE1
:0803BF003FE7BA16E07596ACA9
:0803C0003FE7B5DF226AAFB090
:0803C1003FE7B1A67A5C8E252E
:0803C2003FE7AD6CE874DBB607
:0803C3003FE7A9326CDD4B0B92
:0803C4003FE7A4F707BF97D241
:0803C5003FE7A0BAB94586BA72
:0803C6003FE79C7D8198E56E84
:0803C7003FE7983F60E38A9BC9
:0803C8003FE79400574F55E494
:0803C9003FE78FC065062FEF2E
:0803CA003FE78B7F8A320A52E3
:0803CB003FE7873DC6FCDF9E01
:0803CC003FE782FB1B90B35BCD
:0803CD003FE77EB7881792029A
:0803CE003FE77A730CBB9100BC
:0803CF003FE7762DA9A6CEB090
:0803D0003FE771E75F03726172
:0803D1003FE76DA02CFBAC4CD2
:0803D2003FE7695813B9B59427
:0803D3003FE7650F1367D049F5
:0803D4003FE760C52C304764CF
:0803D5003FE75C7A5E3D6EC358
:0803D6003FE7582EA9B9A32945
:0803D7003FE753E20ECF4A3E5E
:0803D8003FE74F948DA8D28D80
:0803D9003FE74B462670B37E9E
:0803DA003FE746F6D9516D59C9
:0803DB003FE742A6A675894523
:0803DC003FE73E558E079942F0
:0803DD003FE73A039032382B90
:0803DE003FE735B0AD2009B284
:0803DF003FE7315CE4FBBA6169
:0803E0003FE72D0837EFFF97FE
:0803E1003FE728B2A62797832D
:0803E2003FE7245C2FCD492AFE
:0803E3003FE72004D50BE45EA6
:0803E4003FE71BAC960E41BF80
:0803E5003FE7175372FF42BC11
:0803E6003FE712F96C09D18D0B
:0803E7003FE70E9E8158E1344E
:0803E8003FE70A42B3176D7AEA
:0803E9003FE705E601707AEE22
:0803EA003FE701886C8F16E665
:0803EB003FE6FD29F49E577660
:0803EC003FE6F8CA99C95B75F0
:0803ED003FE6F46A5C3B4A7C28
:0803EE003FE6F0093C1F54DE5C
:0803EF003FE6EBA739A0B3AC17
:0803F0003FE6E74454EAA8AE21
:0803F1003FE6E2E08E287E6C7D
:0803F2003FE6DE7BE585881D76
:0803F3003FE6DA165B2D21B292
:0803F4003FE6D5AFEF4AAFCCA4
:0803F5003FE6D148A2099FC4B4
:0803F6003FE6CCE07395679F20
:0803F7003FE6C8776419860E89
:0803F8003FE6C40D73C18275DC
:0803F9003FE6BFA2A2B8ECE050
:0803FA003FE6BB36F12B5E0665
:0803FB003FE6B6CA5F447742F9
:0803FC003FE6B25CED2FE29C2C
:0803FD003FE6ADEE9B1952BA78
:0803FE003FE6A97F692C82EAA9
:0803FF003FE6A50F57953716E4
:080400003FE6A09E667F3BCDA4
:080401003FE69C2C96166638BC
:080402003FE697B9E686941C61
:080403003FE6934657FBABDD19
:080404003FE68ED1EAA19C72D3
:080405003FE68A5C9EA45D6BDA
:080406003FE685E6742FEEEFDE
:080407003FE6816F6B7059B8EC
:080408003FE67CF78491AF1080
:080409003FE6787EBFC008D475
:08040A003FE674051D27896C13
:08040B003FE66F8A9CF45BD20E
:08040C003FE66B0F3F52B3877E
:08040D003FE66693046ECC95F6
:08040E003FE66215EC74EB916E
:08040F003FE65D97F7915D9552
:080410003FE6591925F0783E82
:080411003FE6549977BE99AB58
:080412003FE65018ED28288098
:080413003FE64B97865993DB8D
:080414003FE64715437F535BEF
:080415003FE6429224C5E719FD
:080416003FE63E0E2A59D7AA69
:080417003FE639895467B61A6B
:080418003FE63503A31C1BE9BC
:080419003FE6307D16A3AB1293
:08041A003FE62BF5AF2B0DFEB0
:08041B003FE6276D6CDEF78956
:08041C003FE622E44FEC22FF51
:08041D003FE61E5A587F541BF4
:08041E003FE619CF86C5570324
:08041F003FE61543DAEB00464D
:080420003FE610B7551D2CDF6B
:080421003FE60C29F588C22E0C
:080422003FE6079BBC5AADFB4D
:080423003FE6030CA9BFE66CE3
:080424003FE5FE7CBDE56A1016
:080425003FE5F9EBF8F83FD0C8
:080426003FE5F55A5B2576F96C
:080427003FE5F0C7E49A272E1F
:080428003FE5EC34958370748C
:080429003FE5E7A06E0E7B2504
:08042A003FE5E30B6E6877F477
:08042B003FE5DE7596BE9FE778
:08042C003FE5D9DEE73E345C38
:08042D003FE5D54760147F0193
:08042E003FE5D0AF016ED1D50E
:08042F003FE5CC15CB7A8725CF
:080430003FE5C77BBE65018DAD
:080431003FE5C2E0DA5BABF12C
:080432003FE5BE451F8BF98177
:080433003FE5B9A88E2365B472
:080434003FE5B50B264F7448AB
:080435003FE5B06CE83DB13E6B
:080436003FE5ABCDD41BB0D9AA
:080437003FE5A72DEA170F9E17
:080438003FE5A28D2A5D72511F
:080439003FE59DEB951C85F1E8
:08043A003FE599492A81FFBC4E
:08043B003FE594A5EABB9D27F3
:08043C003FE59001D5F723E034
:08043D003FE58B5CEC6261CA33
:08043E003FE586B72E2B2CFED2
:08043F003FE582109B7F63C7BB
:080440003FE57D69348CECA05E
:080441003FE578C0F981B634F3
:080442003FE57417EA8BB75C7B
:080443003FE56F6E07D8EF1CC6
:080444003FE56AC35197649E75
:080445003FE56617C7F5273CEF
:080446003FE5616B6B204E6F76
:080447003FE55CBE3B46F9D71E
:080448003FE5581038975137C9
:080449003FE55361633F847439
:08044A003FE54EB1BB6DCB8F05
:08044B003FE54A01415066A89B
:08044C003FE5454FF5159DFC4D
:08044D003FE5409DD6EBC1DF45
:08044E003FE53BEAE7012ABF8C
:08044F003FE537372584391E13
:080450003FE5328292A35596AC
:080451003FE52DCD2E8CF0D00B
:080452003FE52916F96F8388CC
:080453003FE5245FF3798E8779
:080454003FE51FA81CD99AA680
:080455003FE51AEF75BE38C83F
:080456003FE51635FE5601D703
:080457003FE5117BB6CF96CA08
:080458003FE50CC09F59A09C78
:080459003FE50804B822D04978
:08045A003FE503480159DED320
:08045B003FE4FE8A7B2D8D3D7C
:08045C003FE4F9CC25CCA48794
:08045D003FE4F50D0165F5AE69
:08045E003FE4F04D0E2859ABFC
:08045F003FE4EB8C4C42B1714B
:080460003FE4E6CABBE3E5EA54
:080461003FE4E2085D3AE7F414
:080462003FE4DD453076B06493
:080463003FE4D88135C64001D9
:080464003FE4D3BC6D589F80FA
:080465003FE4CEF6D75CDF8511
:080466003FE4CA30740218A340
:080467003FE4C56943776B56C1
:080468003FE4C0A145EC0005D2
:080469003FE4BBD87B8F06FACB
:08046A003FE4B70EE48FB8690E
:08046B003FE4B244811D546915
:08046C003FE4AD79516722F174
:08046D003FE4A8AD559C73D9D2
:08046E003FE4A3E08DEC9ED7F2
:08046F003FE49F12FA87037DB0
:080470003FE49A449B9B09390B
:080471003FE4957571581F501E
:080472003FE490A57BEDBCDF27
:080473003FE48BD4BB8B60D881
:080474003FE48703306091FFB3
:080475003FE48230DA9CDEEB6B
:080476003FE47D5DBA6FDE0179
:080477003FE47889D0092D75DE
:080478003FE473B51B987347C4
:080479003FE46EDF9D4D5D4084
:08047A003FE46A095557A0F2A6
:08047B003FE4653243E6FBB3E8
:08047C003FE4605A692B32A233
:08047D003FE45B81C554129EAF
:08047E003FE456A858917047B5
:08047F003FE451CE231327FADC
:080480003FE44CF325091DD6F1
:080481003FE448175EA33DB201
:080482003FE4433AD0117B1E58
:080483003FE43E5D7983D16383
:080484003FE4397F5B2A43804D
:080485003FE434A07534DC27CC
:080486003FE42FC0C7D3ADBC59
:080487003FE42AE05336D25491
:080488003FE425FF178E6BB263
:080489003FE4211D150AA34503
:08048A003FE41C3A4BDBAA27FA
:08048B003FE41756BC31B91C17
:08048C003FE41272663D108D81
:08048D003FE40D8D4A2DF888B3
:08048E003FE408A76834C0C078
:08048F003FE403C0C081C089F5
:080490003FE3FED9534556D5A8
:080491003FE3F9F120AFEA346A
:080492003FE3F50828F1E8D36F
:080493003FE3F01E6C3BC8784A
:080494003FE3EB33EABE0681F1
:080495003FE3E648A4A927E1BA
:080496003FE3E15C9A2DB9235C
:080497003FE3DC6FCB7C4E60FB
:080498003FE3D78238C583441D
:080499003FE3D293E239FB09B5
:08049A003FE3CDA4C80A60761F
:08049B003FE3C8B4EA6765DD28
:08049C003FE3C3C44981C51808
:08049D003FE3BED2E58A3F896E
:08049E003FE3B9E0BEB19E1876
:08049F003FE3B4EDD528B12FB5
:0804A0003FE3AFFA292050B937
:0804A1003FE3AB05BAC95C247E
:0804A2003FE3A6108A54BA588A
:0804A3003FE3A11A97F359B9D8
:0804A4003FE39C23E3D630295D
:0804A5003FE3972C6E2E3AFE96
:0804A6003FE39234372C7F057F
:0804A7003FE38D3B3F02087F9B
:0804A8003FE3884185DFEB22F0
:0804A9003FE383470BF7421209
:0804AA003FE37E4BD1792FE204
:0804AB003FE3794FD696DE9283
:0804AC003FE374531B817F8EB6
:0804AD003FE36F55A06A4BA864
:0804AE003FE36A576582831BDE
:0804AF003FE365586AFB6D890B
:0804B0003FE36058B10659F367
:0804B1003FE35B5837D49EBF06
:0804B2003FE35656FF9799AF96
:0804B3003FE351550880AFE65C
:0804B4003FE34C5252C14DE23E
:0804B5003FE3474EDE8AE778C1
:0804B6003FE3424AAC0EF7D609
:0804B7003FE33D45BB7F0184DA
:0804B8003FE338400D0C8E57A4
:0804B9003FE33339A0E92F7B7A
:0804BA003FE32E3277467D6B13
:0804BB003FE3292A905617F0D7
:0804BC003FE32421EC49A620D6
:0804BD003FE31F188B52D659D2
:0804BE003FE31A0E6DA35E4539
:0804BF003FE31503936CFAD32F
:0804C0003FE30FF7FCE1703689
:0804C1003FE30AEBAA3289E3D4
:0804C2003FE305DE9B921A9551
:0804C3003FE300D0D131FC3F02
:0804C4003FE2FBC24B4410159E
:0804C5003FE2F6B309FA3E869E
:0804C6003FE2F1A30D86773A35
:0804C7003FE2EC92561AB10E5F
:0804C8003FE2E780E3E8EA17D8
:0804C9003FE2E26EB723279C1D
:0804CA003FE2DD5BCFFB76167B
:0804CB003FE2D8482EA3E92D01
:0804CC003FE2D333D34E9BB88D
:0804CD003FE2CE1EBE2DAFB8C8
:0804CE003FE2C908EF734E582C
:0804CF003FE2C3F26751A7EA06
:0804D0003FE2BEDB25FAF3EA6E
:0804D1003FE2B9C32BA170F357
:0804D2003FE2B4AA787764C48C
:0804D3003FE2AF910CAF1C3CAD
:0804D4003FE2AA76E87AEB583A
:0804D5003FE2A55C0C0D2D3285
:0804D6003FE2A040779843FCCF
:0804D7003FE29B242B4E990328
:0804D8003FE2960727629CA891
:0804D9003FE290E96C06C663E6
:0804DA003FE28BCAF96D94BBEF
:0804DB003FE286ABCFC98D4B57
:0804DC003FE2818BEF4D3CBAB9
:0804DD003FE27C6B582B36BD99
:0804DE003FE2774A0A9616136B
:0804DF003FE2722806C07C8494
:0804E0003FE26D054CDD12DF67
:0804E1003FE267E1DD1E88F730
:0804E2003FE262BDB7B795A22D
:0804E3003FE25D98DCDAF6B996
:0804E4003FE258734CBB71119B
:0804E5003FE2534D078BD07B71
:0804E6003FE24E260D7EE7C93E
:0804E7003FE248FE5EC790C130
:0804E8003FE243D5FB98AC2074
:0804E9003FE23EACE42521993D
:0804EA003FE23983189FDFD6C1
:0804EB003FE23458993BDC6C40
:0804EC003FE22F2D662C13E105
:0804ED003FE22A017FA389AD63
:0804EE003FE224D4E5D5482EBD
:0804EF003FE21FA798F460AD85
:0804F0003FE21A799933EB5940
:0804F1003FE2154AE6C7074A85
:0804F2003FE2101B81E0DA7803
:0804F3003FE20AEB6AB491BE7E
:0804F4003FE205BAA17560D6D4
:0804F5003FE2008926568259FE
:0804F6003FE1FB56F98B37B919
:0804F7003FE1F6241B46C94257
:0804F8003FE1F0F08BBC861B14
:0804F9003FE1EBBC4B1FC43CCA
:0804FA003FE1E68759A3E0741D
:0804FB003FE1E151B77C3E60D6
:0804FC003FE1DC1B64DC4872E7
:0804FD003FE1D6E461F76FE670
:0804FE003FE1D1ACAF012CC2BB
:0804FF003FE1CC744C2CFDDA46
:080500003FE1C73B39AE68C9B9
:080501003FE1C20177B8F9ECFB
:080502003FE1BCC7068044681C
:080503003FE1B78BE637E2226D
:080504003FE1B250171373BF71
:080505003FE1AD139946A0A1EE
:080506003FE1A7D66D0516E7E1
:080507003FE1A29892828B698A
:080508003FE19D5A09F2B9B868
:080509003FE1981AD389641A3E
:08050A003FE192DAEF7A53871A
:08050B003FE18D9A5DF957AC48
:08050C003FE188591F3A46E562
:08050D003FE183173370FE3A51
:08050E003FE17DD49AD1616147
:08050F003FE17891558F5ABAC3
:080510003FE1734D63DEDB499E
:080511003FE16E08C5F3DABCFE
:080512003FE168C37C0257655C
:080513003FE1637D863E563492
:080514003FE15E36E4DBE2BDCD
:080515003FE158EF980F0F2E93
:080516003FE153A7A00BF454D0
:080517003FE14E5EFD06B194C8
:080518003FE14915AF336CEC23
:080519003FE143CBB6C652EEF0
:08051A003FE13E8113F396C19D
:08051B003FE13935C6EF721F04
:08051C003FE133E9CFEE254F6A
:08051D003FE12E9D2F23F7287A
:08051E003FE1294FE4C5350A55
:08051F003FE12401F10632E284
:080520003FE11EB3541B4B2305
:080521003FE119640E38DEC54C
:080522003FE114141F9355453D
:080523003FE10EC3885F1CA23A
:080524003FE1097248D0A9571C
:080525003FE10420611C766136
:080526003FE0FECDD17705375F
:080527003FE0F97A9A14DDC8E7
:080528003FE0F426BB2A8E7FA0
:080529003FE0EED234ECAC34EB
:08052A003FE0E97D078FD23BA1
:08052B003FE0E4273348A2572A
:08052C003FE0DED0B84BC4B67D
:08052D003FE0D97996CDE7F912
:08052E003FE0D421CF03C12CF2
:08052F003FE0CEC961220BBFC1
:080530003FE0C9704D5D898EAA
:080531003FE0C41693EB02DB6E
:080532003FE0BEBC34FF464669
:080533003FE0B96130CF28D68A
:080534003FE0B405878F85EC60
:080535003FE0AEA939753F4A11
:080536003FE0A94C46B53D0C65
:080537003FE0A3EEAF846DA4C8
:080538003FE09E907417C5E03E
:080539003FE0993194A440E277
:08053A003FE093D2115EE018CE
:08053B003FE08E71EA7CAB4B3E
:08053C003FE089112032B08D6F
:08053D003FE083AFB2B6043BBE
:08053E003FE07E4DA23BC10429
:08053F003FE078EAEEF907D66F
:080540003FE073879922FFEDF3
:080541003FE06E23A0EED6CAD4
:080542003FE068BF0691C029EB
:080543003FE06359CA40F60DC8
:080544003FE05DF3EC31B8B8B3
:080545003FE0588D6C994EA1B6
:080546003FE053264BAD048297
:080547003FE04DBE89A22D4AE0
:080548003FE0485626AE221BDD
:080549003FE042ED2306424FA2
:08054A003FE03D837EDFF3700A
:08054B003FE038193A70A13AB3
:08054C003FE032AE55EDBD9712
:08054D003FE02D42D18CC09863
:08054E003FE027D6AD83287DB4
:08054F003FE02269EA0679B0E1
:080550003FE01CFC874C3EB7A4
:080551003FE0178E858A084582
:080552003FE0121FE4F56D2DDE
:080553003FE00CB0A5C40A5BF7
:080554003FE00740C82B82E2E2
:080555003FE001D04C617FE79B
:080556003FDFF8BE6537615F6D
:080557003FDFEDDAF61F952DE0
:080558003FDFE2F64BE7121051
:080559003FDFD81066F95B11C9
:08055A003FDFCD2947C1FF5A24
:08055B003FDFC240EEAC9A281C
:08055C003FDFB7575C24D2DD3C
:08055D003FDFAC6C90965CF1ED
:08055E003FDFA1808C6CF7E186
:08055F003FDF969350146F4832
:080560003FDF8BA4DBF89ABB1E
:080561003FDF80B530855DDE4F
:080562003FDF75C44E26A855C9
:080563003FDF6AD2354875B88C
:080564003FDF5FDEE656CDA289
:080565003FDF54EA61BDC3A1B0
:080566003FDF49F4A7E9772A01
:080567003FDF3EFDB94613A67B
:080568003FDF3405963FD06926
:080569003FDF290C3F42F09E28
:08056A003FDF1E11B4BBC35EAC
:08056B003FDF1315F716A39101
:08056C003FDF081906BFF7FE8E
:08056D003FDEFD1AE424333FD8
:08056E003FDEF21B8FAFD3B694
:08056F003FDEE71B09CF639595
:080570003FDEDC1952EF78D7E1
:080571003FDED1166B7CB530B2
:080572003FDEC61253E3C61A76
:080573003FDEBB0D0C9164CAD0
:080574003FDEB00695F25620AF
:080575003FDEA4FEF0736ABC36
:080576003FDE99F61C817EDCDA
:080577003FDE8EEC1A897A7256
:080578003FDE83E0EAF85116B2
:080579003FDE78D48E3B01F453
:08057A003FDE6DC704BE97E2ED
:08057B003FDE62B84EF0294B8F
:08057C003FDE57A86D3CD825B5
:08057D003FDE4C976011D20231
:08057E003FDE418527DC4FFC44
:08057F003FDE3671C50996ACA0
:080580003FDE2B5D3806F63E5C
:080581003FDE20478141CA4B17
:080582003FDE1530A12779F4DA
:080583003FDE0A18982577D02D
:080584003FDDFEFF66A941DE28
:080585003FDDF3E50D20619656
:080586003FDDE8C98BF86BD7DB
:080587003FDDDDACE39F00E065
:080588003FDDD28F1481CC5736
:080589003FDDC7701F0E854322
:08058A003FDDBC5003B2EDF8A7
:08058B003FDDB12EC2DCD429D2
:08058C003FDDA60C5CFA10DA59
:08058D003FDD9AE8D2788850A6
:08058E003FDD8FC423C62A28BB
:08058F003FDD849E5150F13163
:080590003FDD79775B86E3890A
:080591003FDD6E4F42D61286D9
:080592003FDD632607AC9AAAC5
:080593003FDD57FBAA78A3B875
:080594003FDD4CD02BA8609E56
:080595003FDD41A38BAA0F6CAE
:080596003FDD3675CAEBF96187
:080597003FDD2B46E9DC72DFB9
:080598003FDD2016E8E9DB5B02
:080599003FDD14E5C8829D70EE
:08059A003FDD09B389152EC2F3
:08059B003FDCFE802B10100F65
:08059C003FDCF34BAEE1CD237F
:08059D003FDCE81614F8FCC570
:08059E003FDCDCDF5DC440CD51
:08059F003FDCD1A789B246132D
:0805A0003FDCC66E9931C45E18
:0805A1003FDCBB348CB17E7914
:0805A2003FDCAFF964A0421F29
:0805A3003FDCA4BD216CE7F26E
:0805A4003FDC997FC386538BF5
:0805A5003FDC8E414B5B735CEF
:0805A6003FDC8301B95B40C298
:0805A7003FDC77C10DF4BFF940
:0805A8003FDC6C7F4997000B5A
:0805A9003FDC613C6CB11AE279
:0805AA003FDC55F877B235394A
:0805AB003FDC4AB36B097E8BB3
:0805AC003FDC3F6D47263128BA
:0805AD003FDC34260C77922498
:0805AE003FDC28DDBB6CF145C8
:0805AF003FDC1D945475A91DE9
:0805B0003FDC1249D8011EE8EE
:0805B1003FDC06FE467EC29B02
:0805B2003FDBFBB1A05E0EDE91
:0805B3003FDBF063E60E88F661
:0805B4003FDBE51517FFC0D97C
:0805B5003FDBD9C536A1511E40
:0805B6003FDBCE744262DEEF70
:0805B7003FDBC3223BB41A1B19
:0805B8003FDBB7CF2304BD02B5
:0805B9003FDBAC7AF8C48C8E24
:0805BA003FDBA125BD635840A1
:0805BB003FDB95CF7150FA14EB
:0805BC003FDB8A7814FD569321
:0805BD003FDB7F1FA8D85CC6DC
:0805BE003FDB73C62D52062538
:0805BF003FDB686BA2DA56AACB
:0805C0003FDB5D1009E15CC2A4
:0805C1003FDB51B362D7313A70
:0805C2003FDB4655AE2BF75755
:0805C3003FDB3AF6EC4FDCBF10
:0805C4003FDB2F971DB31972F4
:0805C5003FDB243642C5EFD9EB
:0805C6003FDB18D45BF8ACA781
:0805C7003FDB0D7169BBA6ECDE
:0805C8003FDB020D6C7F400BCC
:0805C9003FDAF6A864B3E3A4D5
:0805CA003FDAEB4252CA07AB15
:0805CB003FDADFDB37322C546C
:0805CC003FDAD473125CDC0974
:0805CD003FDAC909E4BAAB787A
:0805CE003FDABD9FAEBC39828B
:0805CF003FDAB23470D22F3282
:0805D0003FDAA6C82B6D3FCCF9
:0805D1003FDA9B5ADEFE28AE62
:0805D2003FDA8FEC8BF5B166F6
:0805D3003FDA847D32C4ABA0C5
:0805D4003FDA790CD3DBF31BC5
:0805D5003FDA6D9B6FAC6DB7BE
:0805D6003FDA622906A70B655C
:0805D7003FDA56B5993CC61B42
:0805D8003FDA4B4127DEA1E4EC
:0805D9003FDA3FCBB2FDACD0CC
:0805DA003FDA34553B0AFEE64E
:0805DB003FDA28DDC077BA37D2
:0805DC003FDA1D6543B50AC1B9
:0805DD003FDA11EBC534267E64
:0805DE003FDA067145664D5934
:0805DF003FD9FAF5C4BCC91EA6
:0805E0003FD9EF7943A8ED8A31
:0805E1003FD9E3FBC29C183D69
:0805E2003FD9D87D4207B0ACFF
:0805E3003FD9CCFDC25D282FB9
:0805E4003FD9C17D440DF9F47B
:0805E5003FD9B5FBC78BAAEF5B
:0805E6003FD9AA794D47C9F184
:0805E7003FD99EF5D5B3EF8367
:0805E8003FD993716141BDFE92
:0805E9003FD987EBF062E17CD1
:0805EA003FD97C6583890FC332
:0805EB003FD970DE1B260861F8
:0805EC003FD96555B7AB9491AE
:0805ED003FD959CC598B873529
:0805EE003FD94E420137BCE287
:0805EF003FD942B6AF221BD236
:0805F0003FD9372A63BC93D701
:0805F1003FD92B9D1F791E6DFF
:0805F2003FD9200EE2C9BE98BA
:0805F3003FD9147FAE2080FF08
:0805F4003FD908EF81EF7BD332
:0805F5003FD8FD5E5EA8CECAEE
:0805F6003FD8F1CC44BEA3295B
:0805F7003FD8E63934A32BB80C
:0805F8003FD8DAA52EC8A4B01B
:0805F9003FD8CF1033A153D20B
:0805FA003FD8C37A439F8851EA
:0805FB003FD8B7E35F359AC653
:0805FC003FD8AC4B86D5ED475A
:0805FD003FD8A0B2BAF2EB40B6
:0805FE003FD89518FBFF098EA0
:0805FF003FD8897E4A6CC66CEE
:080600003FD87DE2A6AEA9641B
:080601003FD872461137436136
:080602003FD866A88A792EA2F8
:080603003FD85B0A12E70EA5C7
:080604003FD84F6AAAF3903EB3
:080605003FD843CA5311698676
:080606003FD838290BB359C895
:080607003FD82C86D54C299E3A
:080608003FD820E3B04EAAC563
:080609003FD8153F9D2DB83CC0
:08060A003FD8099A9C5C362FD1
:08060B003FD7FDF4AE4D11E8EC
:08060C003FD7F24DD37341E426
:08060D003FD7E6A60C41C5BD74
:08060E003FD7DAFD592BA622AB
:08060F003FD7CF53BAA3F4E476
:080610003FD7C3A9311DCCE85E
:080611003FD7B7FDBD0C5218E4
:080612003FD7AC515EE2B17567
:080613003FD7A0A4171420FA40
:080614003FD794F5E613DFAEB9
:080615003FD78946CC5535970B
:080616003FD77D96CA4B73A784
:080617003FD771E5E069F3D162
:080618003FD766340F2418F8E7
:080619003FD75A8156ED4EE077
:08061A003FD74ECDB8390A3D6F
:08061B003FD74319337AC8AA46
:08061C003FD73763C926109295
:08061D003FD72BAD79AE714A05
:08061E003FD71FF6458782ED6E
:08061F003FD7143E2D24E673C1
:080620003FD7088530FA45A11F
:080621003FD6FCCB517B52F7E0
:080622003FD6F1108F1BC9C582
:080623003FD6E554EA4F6E1BBF
:080624003FD6D998638A0CB699
:080625003FD6CDDAFB3F7B1943
:080626003FD6C21CB1E397733B
:080627003FD6B65D87EA489A50
:080628003FD6AA9D7DC77E1993
:080629003FD69EDC93EF301276
:08062A003FD6931ACAD55F51B7
:08062B003FD6875822EE153D71
:08062C003FD67B949CAD63CB2B
:08062D003FD66FD03887658DC0
:08062E003FD6640AF6F03DA07E
:08062F003FD65844D85C17A423
:080630003FD64C7DDD3F27C5DC
:080631003FD640B6060DAAB445
:080632003FD634ED533BE58E89
:080633003FD62923C53E25FB3B
:080634003FD61D595C88C20489
:080635003FD6118E1990182D1B
:080636003FD605C1FCC88F6628
:080637003FD5F9F506A696F681
:080638003FD5EE27379EA69383
:080639003FD5E25890253E4E2A
:08063A003FD5D68910AEE6871A
:08063B003FD5CAB8B9B02FFB8E
:08063C003FD5BEE78B9DB3B86A
:08063D003FD5B31586EC13094B
:08063E003FD5A742AC0FF79075
:08063F003FD59B6EFB7E1323E7
:080640003FD58F9A75AB1FDD59
:080641003FD583C51B0BE0153A
:080642003FD577EEEC151E48D0
:080643003FD56C17E93BAD3215
:080644003FD5604012F467B6D7
:080645003FD5546769B430D6BB
:080646003FD5488DEDEFF3BE36
:080647003FD53CB3A01CA3BA8F
:080648003FD530D880AF3C24FF
:080649003FD524FC901CC07990
:08064A003FD5191FCEDA3C3642
:08064B003FD50D423D5CC2F3F6
:08064C003FD50163DC19704A7F
:08064D003FD4F584AB8567CFB3
:08064E003FD4E9A4AC15D5214D
:08064F003FD4DDC3DE3FEBD414
:080650003FD4D1E24278E76BD0
:080651003FD4C5FFD9360B614F
:080652003FD4BA1CA2ECA31E68
:080653003FD4AE38A01201E80B
:080654003FD4A253D11B82F632
:080655003FD4966E367E894CFD
:080656003FD48A87D0B07FD7A2
:080657003FD47EA0A026D95873
:080658003FD472B8A5571055FC
:080659003FD466CFE0B6A72BE9
:08065A003FD45AE652BB28020E
:08065B003FD44EFBFBDA24B68C
:08065C003FD44310DC8936F0A5
:08065D003FD43724F53E0011E3
:08065E003FD42B38466E292819
:08065F003FD41F4AD08F62FF57
:080660003FD4135C94176603FC
:080661003FD4076D917BF24FBD
:080662003FD3FB7DC932CFA795
:080663003FD3EF8D3BB1CD5FE9
:080664003FD3E39BE96EC27174
:080665003FD3D7A9D2DF8D6F4E
:080666003FD3CBB6F87A146F04
:080667003FD3BFC35AB4452084
:080668003FD3B3CEFA0414B92C
:080669003FD3A7D9D6DF7FEBD8
:08066A003FD39BE3F1BC8AF2CF
:08066B003FD38FED4B114179E3
:08066C003FD383F5E353B6AB65
:08066D003FD377FDBAFA052323
:08066E003FD36C04D27A4EE088
:08066F003FD3600B2A4ABD5382
:080670003FD35410C2E1815494
:080671003FD348159CB4D30AE5
:080672003FD33C19B83AF2062F
:080673003FD3301D15EA252FCD
:080674003FD3241FB638BAAFD2
:080675003FD31821999D0811E3
:080676003FD30C22C08D6A1570
:080677003FD300232B8044CD8A
:080678003FD2F422DAEC038901
:080679003FD2E821CF4718CA67
:08067A003FD2DC200907FE510C
:08067B003FD2D01D88A5351205
:08067C003FD2C41A4E9545213E
:08067D003FD2B8165B4EBDC868
:08067E003FD2AC11AF48357406
:08067F003FD2A00C4AF849A685
:080680003FD294062ED59F0520
:080681003FD287FF5B56E14EFA
:080682003FD27BF7D0F2C34622
:080683003FD26FEF901FFECD86
:080684003FD263E6995554BB17
:080685003FD257DCED098CFBAC
:080686003FD24BD28BB3767416
:080687003FD23FC775C9E6FD33
:080688003FD233BBABC3BB71D1
:080689003FD227AF2E17D799CD
:08068A003FD21BA1FD3D262318
:08068B003FD20F9419AA98AEAA
:08068C003FD2038583D727BF8D
:08068D003FD1F7763C39D2AEF3
:08068E003FD1EB6643499FBE1A
:08068F003FD1DF55997D9BF678
:080690003FD1D3443F4CDB3D98
:080691003FD1C732352E784736
:080692003FD1BB1F7B9994814D
:080693003FD1AF0C1305582CF8
:080694003FD1A2F7FBE8F2459B
:080695003FD196E336BB987AD1
:080696003FD18ACDC3F487397E
:080697003FD17EB7A40B01A2C4
:080698003FD172A0D776517723
:080699003FD166895EADC73058
:08069A003FD15A713A28B9DA88
:08069B003FD14E586A5E872D25
:08069C003FD1423EEFC6937A04
:08069D003FD13624CAD8499E62
:08069E003FD12A09FC0B1B12DD
:08069F003FD11DEE83D67FD987
:0806A0003FD111D262B1F678DE
:0806A1003FD105B5991503FDD9
:0806A2003FD0F998277733F9E6
:0806A3003FD0ED7A0E501869FA
:0806A4003FD0E15B4E1749D085
:0806A5003FD0D53BE744671389
:0806A6003FD0C91BDA4F158D8E
:0806A7003FD0BCFB27AF0104AA
:0806A8003FD0B0D9CFDBDB919C
:0806A9003FD0A4B7D34D5DBAA8
:0806AA003FD09895327B4660B9
:0806AB003FD08C71EDDD5AAA6D
:0806AC003FD0804E05EB661DF6
:0806AD003FD074297B1D3A8C3B
:0806AE003FD068044DEAB002E0
:0806AF003FD05BDE7ECBA4DE30
:0806B0003FD04FB80E37FDAF3B
:0806B1003FD04390FCA7A547D0
:0806B2003FD037694A928CAE7B
:0806B3003FD02B40F870AB10A2
:0806B4003FD01F1806B9FDD16B
:0806B5003FD012EE75E6887BD0
:0806B6003FD006C4466E54B0AB
:0806B7003FCFF532F192E4752A
:0806B8003FCFDCDC1ADFEDFC92
:0806B9003FCFC48409B3FDCE5C
:0806BA003FCFAC2ABEFF58053A
:0806BB003FCF93D03BB24CAFDE
:0806BC003FCF7B7480BD3801C3
:0806BD003FCF63178F1082325A
:0806BE003FCF4AB9679C9F5E23
:0806BF003FCF325A0B520FA984
:0806C0003FCF19F97B215F1EF9
:0806C1003FCF0197B7FB259222
:0806C2003FCEE934C2D006C6A8
:0806C3003FCED0D09C90B2455F
:0806C4003FCEB86B462DE34860
:0806C5003FCEA004C09860E1E3
:0806C6003FCE879D0CC0FDB280
:0806C7003FCE6F342B98981D03
:0806C8003FCE56CA1E101A2095
:0806C9003FCE3E5EE5187938D2
:0806CA003FCE25F281A2B683A8
:0806CB003FCE0D84F49FDEA474
:0806CC003FCDF5163F01099B2B
:0806CD003FCDDCA661B75AF233
:0806CE003FCDC4355DB4019875
:0806CF003FCDABC333E837C295
:0806D0003FCD934FE5454317B0
:0806D1003FCD7ADB72BC7469B5
:0806D2003FCD6265DD3F27E327
:0806D3003FCD49EF25BEC4E84C
:0806D4003FCD31774D2CBDF044
:0806D5003FCD18FE547A90B1EC
:0806D6003FCD00843C99C5FDF5
:0806D7003FCCE809067BF19F0E
:0806D8003FCCCF8CB312B284B9
:0806D9003FCCB70F434FB2996B
:0806DA003FCC9E90B824A6AAB3
:0806DB003FCC861112834E8D05
:0806DC003FCC6D90535D74DF0B
:0806DD003FCC550E7BA4EF2F6A
:0806DE003FCC3C8B8C4B9DDCF2
:0806DF003FCC240786436BF6B3
:0806E0003FCC0B826A7E4F62E1
:0806E1003FCBF2FC39EE48BBEF
:0806E2003FCBDA74F5856331AA
:0806E3003FCBC1EC9E35B4AC25
:0806E4003FCBA96334F15DB0C6
:0806E5003FCB90D8BAAA893678
:0806E6003FCB784D30536CE06E
:0806E7003FCB5FC096DE48AB7B
:0806E8003FCB4732EF3D6722D2
:0806E9003FCB2EA43A631D393A
:0806EA003FCB16147941CA2C24
:0806EB003FCAFD83ACCBD7AB85
:0806EC003FCAE4F1D5F3B9AFF8
:0806ED003FCACC5EF5ABEE63E1
:0806EE003FCAB3CB0CE6FE434A
:0806EF003FCA9B361C977BFCFF
:0806F0003FCA82A025B00451AD
:0806F1003FCA6A0929233E40BB
:0806F2003FCA517127E3DABF92
:0806F3003FCA38D822E494EA62
:0806F4003FCA203E1B1831DF54
:0806F5003FCA07A31171809FA9
:0806F6003FC9EF0706E35A3487
:0806F7003FC9D669FC60A18F28
:0806F8003FC9BDCBF2DC4368F1
:0806F9003FC9A52CEB49366353
:0806FA003FC98C8CE69A7AEFEF
:0806FB003FC973EBE5C31B28A6
:0806FC003FC95B49E9B62AFF82
:0806FD003FC942A6F366C7F7EE
:0806FE003FC92A0303C8194F8C
:0806FF003FC9115E1BCD4FE461
:080700003FC8F8B83C69A60DE2
:080701003FC8E01166905FC4DF
:080702003FC8C7699B34CA839C
:080703003FC8AEC0DB4A3D23F4
:080704003FC8961727C4180333
:080705003FC87D6C8195C4E53D
:080706003FC864C0E9B2B6D19E
:080707003FC84C14610E6A3C6E
:080708003FC83366E89C64C899
:080709003FC81AB88150356B9E
:08070A003FC802092C1D7450C8
:08070B003FC7E958E9F7C2B746
:08070C003FC7D0A7BBD2CB1BF5
:08070D003FC7B7F5A2A2410F9E
:08070E003FC79F429F59E11E05
:08070F003FC7868EB2ED70F3C6
:080710003FC76DD9DE50BF3573
:080711003FC755242277A365C0
:080712003FC73C6D8055FE104D
:080713003FC723B5F8DFB885EC
:080714003FC70AFD8D08C4FF78
:080715003FC6F2443DC51E8AF7
:080716003FC6D98A0C08C8DDBA
:080717003FC6C0CEF8C7D08236
:080718003FC6A81304F64AB61F
:080719003FC68F563188554799
:08071A003FC676987F7216B706
:08071B003FC65DD9EFA7BE1F28
:08071C003FC6451A831D830E40
:08071D003FC62C5A3AC7A5B3F0
:08071E003FC61399179A6E976C
:08071F003FC5FAD71A8A2ECD5E
:080720003FC5E214448B3FCBFE
:080721003FC5C9509692034F39
:080722003FC5B08C1192E38089
:080723003FC597C6B68252D211
:080724003FC57F008654CBE0C5
:080725003FC5663981FED19346
:080726003FC54D71AA74EF06F6
:080727003FC534A900ABB75D2A
:080728003FC51BDF8597C5F8F2
:080729003FC503153A2DBE295E
:08072A003FC4EA4A1F624B6163
:08072B003FC4D17E362A2113E0
:08072C003FC4B8B17F79FA8BDC
:08072D003FC49FE3FC469B1B47
:08072E003FC48715AD84CDF92D
:08072F003FC46E4694296619CF
:080730003FC45576B1293E5883
:080731003FC43CA60579395ACA
:080732003FC423D4920E41677D
:080733003FC40B0257DD489999
:080734003FC3F22F57DB48968A
:080735003FC3D95B92FD42BAFB
:080736003FC3C0870A383FFBF6
:080737003FC3A7B1BE8150C110
:080738003FC38EDBB0CD8D1331
:080739003FC37604E2121470C4
:08073A003FC35D2D53440DB3D4
:08073B003FC344550558A734E3
:08073C003FC32B7BF94516AB0E
:08073D003FC312A22FFE990B2D
:08073E003FC2F9C7AA7A72B5A7
:08073F003FC2E0EC69ADEF2AB6
:080740003FC2C8106E8E613A41
:080741003FC2AF33BA1122E8F8
:080742003FC296564D2B954075
:080743003FC27D7828D3208617
:080744003FC264994DFD340E23
:080745003FC24BB9BD9F461DE8
:080746003FC232D978AED41293
:080747003FC219F88021624055
:080748003FC20116D4EC7BCF87
:080749003FC1E8347805B2EC71
:08074A003FC1CF516A62A07AA1
:08074B003FC1B66DACF8E449B2
:08074C003FC19D8940BE24EC71
:08074D003FC184A426A80F9E01
:08074E003FC16BBE5FAC5865B2
:08074F003FC152D7ECC0B9EF25
:080750003FC139F0CEDAF57863
:080751003FC1210906F0D2E7C7
:080752003FC1082095F820B416
:080753003FC0EF377CE6B3C0A4
:080754003FC0D64DBCB2678C1A
:080755003FC0BD6356511DE5D4
:080756003FC0A4784AB8BF1DA2
:080757003FC08B8C9ADF39E2F0
:080758003FC072A047BA831FE5
:080759003FC059B35240962441
:08075A003FC040C5BB6774827B
:08075B003FC027D7842525ECDF
:08075C003FC00EE8AD6FB85A72
:08075D003FBFEBF2707A7FD779
:08075E003FBFBA124B07AD8842
:08075F003FBF8830EC733A72D1
:080760003FBF564E56A9731469
:080761003FBF246A8B96B01D16
:080762003FBEF2858D275625EC
:080763003FBEC09F5D47D57247
:080764003FBE8EB7FDE4AA3E82
:080765003FBE5CCF70EA5C7638
:080766003FBE2AE5B8457F7A89
:080767003FBDF8FAD5E2B266CD
:080768003FBDC70ECBAE9FD1CF
:080769003FBD95219B95FD8821
:08076A003FBD633347858CF0AD
:08076B003FBD3143D16A1A6D54
:08076C003FBCFF533B307DC28E
:08076D003FBCCD6186C599CDAA
:08076E003FBC9B6EB6165C4710
:08076F003FBC697ACB0FBE0DFF
:080770003FBC3785C79EC2DEC5
:080771003FBC058FADB0791A01
:080772003FBBD3987F31FA0B65
:080773003FBBA1A03E1069A9E3
:080774003FBB6FA6EC38F64E06
:080775003FBB3DAC8B98D91B82
:080776003FBB0BB11E1D555FD6
:080777003FBAD9B4A5B3B8F8EC
:080778003FBAA7B724495C0E4B
:080779003FBA75B89BCBA0D17B
:08077A003FBA43B90E27F3C496
:08077B003FBA11B87D4BCB7DA4
:08077C003FB9DFB6EB24A860D1
:08077D003FB9ADB459A014EB23
:08077E003FB97BB0CAABA578BE
:08077F003FB949AC4034F7F228
:080780003FB917A6BC29B438EB
:080781003FB8E5A040778B8929
:080782003FB8B398CF0C38E139
:080783003FB8819069D580B1F7
:080784003FB84F8712C130A5F8
:080785003FB81D7CCBBD1FEA4B
:080786003FB7EB7196B72EEDB1
:080787003FB7B965759D4718E5
:080788003FB787586A5D5B1F53
:080789003FB7554A76E566BE54
:08078A003FB7233B9D236E7372
:08078B003FB6F12BDF057FCF23
:08078C003FB6BF1B3E79B12FFF
:08078D003FB68D09BD6E217C11
:08078E003FB65AF75DD0F88771
:08078F003FB628E421906673D7
:080790003FB5F6D00A9AA41847
:080791003FB5C4BB1ADDF2BB49
:080792003FB592A554489BCC31
:080793003FB5608EB8C8F134D7
:080794003FB52E774A4D4D12CE
:080795003FB4FC5F0AC41177B8
:080796003FB4CA45FC1BA8B2E8
:080797003FB4982C20428510AC
:080798003FB466117927209699
:080799003FB433F608B7FD6020
:08079A003FB401D9D0E3A50D25
:08079B003FB3CFBCD398A91AAB
:08079C003FB39D9F12C5A2A20C
:08079D003FB36B809059321D3F
:08079E003FB339614E41FFA495
:08079F003FB307414E6EBAB7EB
:0807A0003FB2D52092CE19F8FA
:0807A1003FB2A2FF1D4EDB7305
:0807A2003FB270DCEFDFC4611F
:0807A3003FB23EBA0C6FA0E169
:0807A4003FB20C9674ED4457BE
:0807A5003FB1DA722B4788D93D
:0807A6003FB1A84D316D4F89F0
:0807A7003FB17627894D805611
:0807A8003FB1440134D709B64A
:0807A9003FB111DA35F8E0F56B
:0807AA003FB0DFB28EA201EFA7
:0807AB003FB0AD8A40C16ED0E1
:0807AC003FB07B614E46306056
:0807AD003FB04937B91F55BFE9
:0807AE003FB0170D833BF4225C
:0807AF003FAFC9C55D164E64A1
:0807B0003FAF656E79F820EA05
:0807B1003FAF011660FBAF5FD2
:0807B2003FAE9CBD15FF553B55
:0807B3003FAE38629CE179645D
:0807B4003FADD406F9808EC5AB
:0807B5003FAD6FAA2FBB13C971
:0807B6003FAD0B4C436F91D5E0
:0807B7003FACA6ED387C9DE08B
:0807B8003FAC428D12C0D7F0E6
:0807B9003FABDE2BD61AEA91DA
:0807BA003FAB79C986698B8F02
:0807BB003FAB1566278B7AD2D3
:0807BC003FAAB101BD5F8316E5
:0807BD003FAA4C9C4BC4796477
:0807BE003FA9E835D6993C8FF4
:0807BF003FA983CE61BCB5CA5D
:0807C0003FA91F65F10DD824CB
:0807C1003FA8BAFC886BA003FD
:0807C2003FA856922BB513BBB2
:0807C3003FA7F226DEC943073F
:0807C4003FA78DBAA587468806
:0807C5003FA7294D83CE407AC5
:0807C6003FA6C4DF7D7D5B8FBF
:0807C7003FA660709673CBAAF7
:0807C8003FA5FC00D290CD57C3
:0807C9003FA5979035B3A54749
:0807CA003FA5331EC3BBA0E7ED
:0807CB003FA4CEAC808815DDCF
:0807CC003FA46A396FF8617E59
:0807CD003FA405C595EBE96BA3
:0807CE003FA3A150F6421B0AF3
:0807CF003FA33CDB94DA6AFE53
:0807D0003FA2D865759455E4C1
:0807D1003FA273EE9C4F5F286C
:0807D2003FA20F770CEB11C6EA
:0807D3003FA1AAFECB46FFBBCB
:0807D4003FA14685DB42C1870D
:0807D5003FA0E20C40BDF6C09C
:0807D6003FA07D91FF984591C1
:0807D7003FA019171BB15A30B5
:0807D8003F9F693731D1CEF4D7
:0807D9003F9EA03EF63D4CDA04
:0807DA003F9DD7458C64AB3E46
:0807DB003F9D0E4AFC0773F775
:0807DC003F9C454F4CE53B3307
:0807DD003F9B7C5286BDA0F198
:0807DE003F9AB354B1504FF2F1
:0807DF003F99EA55D45CFCAA25
:0807E0003F992155F7A366774C
:0807E1003F98585522E356969B
:0807E2003F978F535DDC9F0F70
:0807E3003F96C650B04F1BF217
:0807E4003F95FD4D21FAB242E0
:0807E5003F953448BA9F4EF025
:0807E6003F946B4381FCE849DC
:0807E7003F93A23D7FD37BACE0
:0807E8003F92D936BBE30EFD80
:0807E9003F92102F3DEBAF978A
:0807EA003F9147270DAD71445A
:0807EB003F907E1E32E86F6BA7
:0807EC003F8F6A296AB9980FDA
:0807ED003F8DD81539955D36EA
:0807EE003F8C45FFE1E48AC1E4
:0807EF003F8AB3E973278883F8
:0807F0003F8921D1FCDEC78F17
:0807F1003F878FB98E8AC524F1
:0807F2003F85FDA037AC060FA6
:0807F3003F846B8607C31993D4
:0807F4003F82D96B0E509754AF
:0807F5003F81474F5AD51D3921
:0807F6003F7F6A65F9A2A3AE82
:0807F7003F7C462C078BC4A7D0
:0807F8003F7921F0FE67009F2C
:0807F9003F75FDB4FD35C89CFD
:0807FA003F72D97822F9973112
:0807FB003F6F6A751D67D89F6E
:0807FC003F6921F8BECCA62FD5
:0807FD003F62D97B6824B14280
:0807FE003F5921FAAEE6473035
:0807FF003F4921FB2AECB87D03
:00000001ff
