:020000040000FA
:080000003F3921FB49EE4EA639
:080001003F5F6A78E659D4B6AE
:080002003F6C463710FC08C8F2
:080003003F746B96A948F72039
:080004003F7AB40EA3EB0803E0
:080005003F807E41402C3701D1
:080006003F83A278A3430152DD
:080007003F86C6ACFF34B421B2
:080008003F89EADDD7FC9825D1
:080009003F8D0F0AB19680BD86
:08000A003F90199987FF6F89EF
:08000B003F91ABAB3B996A9CED
:08000C003F933DBA359824A58D
:08000D003F94CFC637FAFC470F
:08000E003F9661CF04C1C54813
:08000F003F97F3D45DECD2220F
:080010003F9985D6057CFD93A4
:080011003F9B17D3BD73B42C13
:080012003F9CA9CD47D2FDDFA0
:080013003F9E3BC2669D8793EE
:080014003F9FCDB2DBD6ACAC7E
:080015003FA0AFCF34C1405100
:080016003FA178C268D2EC455D
:080017003FA241B2EB232A5283
:080018003FA30AA09CB534FBD4
:080019003FA3D38B5E8CB5E41C
:08001A003FA49C7311ADCAA0C4
:08001B003FA56557971D097709
:08001C003FA62E38CFDF862C31
:08001D003FA6F7169CFAD6C3BA
:08001E003FA7BFF0DF75184C8D
:08001F003FA888C77854F3A242
:080020003FA9519A48A1A2403A
:080021003FAA1A693162F2F6F0
:080022003FAAE33413A14EBE16
:080023003FABABFAD065BD78DC
:080024003FAC74BD48B9EABC11
:080025003FAD3D7B5DA82A956B
:080026003FAE0634F03B7E4CB6
:080027003FAECEE9E17F992E06
:080028003FAF979A1280E557E3
:080029003FB03022B22644363C
:08002A003FB09475DBF8343897
:08002B003FB0F8C6773D983B99
:08002C003FB15D14747E2ABF90
:08002D003FB1C15FC4420D9414
:08002E003FB225A85711CC3F99
:08002F003FB289EE1D765E630D
:080030003FB2EE3107F92A1678
:080031003FB35271072406528F
:080032003FB3B6AE0B813D5057
:080033003FB41AE8059B8EE7BB
:080034003FB47F1EE5FE32F827
:080035003FB4E3529D34DBC629
:080036003FB547831BCBB86006
:080037003FB5ABB0524F770159
:080038003FB60FDA314D476BB2
:080039003FB67400A952DD542A
:08003A003FB6D823AAEE72C301
:08003B003FB73C4326AECA6B3F
:08003C003FB7A05F0D23321B4A
:08003D003FB804774EDB85108B
:08003E003FB8688BDC682E62FC
:08003F003FB8CC9CA65A2B63CC
:080040003FB930A99D430DF901
:080041003FB994B2B1B4FF0A0B
:080042003FB9F8B7D442C0D564
:080043003FBA5CB8F57FB1562D
:080044003FBAC0B605FFCCA8CD
:080045003FBB24AEF657AF6487
:080046003FBB88A3B71C99021F
:080047003FBBEC9438E46E3D70
:080048003FBC50806C45BB6A0F
:080049003FBCB46841D7B6E7E3
:08004A003FBD184BAA32436EC2
:08004B003FBD7C2A95EDF27C1B
:08004C003FBDE004F5A406B07D
:08004D003FBE43DAB9EE762B49
:08004E003FBEA7ABD367ECEE47
:08004F003FBF0B7832ABCF3E3E
:080050003FBF6F3FC8563BFFA4
:080051003FBFD30285040F1626
:080052003FC01B602CA971E501
:080053003FC04D3C9AF08B9078
:080054003FC07F1685A6E51EE2
:080055003FC0B0EDE51C725F35
:080056003FC0E2C2B1A18B958D
:080057003FC11494E386EE9A08
:080058003FC14664731DC0198D
:080059003FC1783158B78CBBA0
:08005A003FC1A9FB8CA64A522C
:08005B003FC1DBC3073C590C57
:08005C003FC20D87C0CC84A057
:08005D003FC23F49B1AA058032
:08005E003FC27108D22882059F
:08005F003FC2A2C51A9C0FA0CC
:080060003FC2D47E835934092C
:080061003FC3063504B4E66755
:080062003FC337E89704908CBE
:080063003FC36999329E101899
:080064003FC39B46CFD7B7ADA7
:080065003FC3CCF16708501BFA
:080066003FC3FE98F0871991D9
:080067003FC4303D64ABCCCA7C
:080068003FC461DEBBCE9C39F0
:080069003FC4937CEE48353ED4
:08006A003FC4C517F471C14B3E
:08006B003FC4F6AFC6A4E71C78
:08006C003FC528445D3BCBDADF
:08006D003FC559D5B0911452B2
:08006E003FC58B63B8FFE620DB
:08006F003FC5BCEE6EE3E8DCC6
:080070003FC5EE75CA99474730
:080071003FC61FF9C47CB07A00
:080072003FC6517A54EB59130B
:080073003FC682F77442FC65F0
:080074003FC6B4711AE1DD9FE3
:080075003FC6E5E74126C90181
:080076003FC71759DF711505A2
:080077003FC748C8EE20A38832
:080078003FC77A346595E303EC
:080079003FC7AB9C3E31CFAB49
:08007A003FC7DD007055F4A63C
:08007B003FC80E60F4646D360D
:08007C003FC83FBDC2BFE5E231
:08007D003FC87116D3CB9DA80A
:08007E003FC8A26C1FEB6727CD
:08007F003FC8D3BD9F83A9CB4C
:080080003FC9050B4AF962FBC0
:080081003FC936551AB22742AF
:080082003FC9679B0714237FAF
:080083003FC998DD08861E0E3E
:080084003FC9CA1B176F77F892
:080085003FC9FB552C382E1A6F
:080086003FCA2C8B3F48DA55FC
:080087003FCA5DBD490AB4B394
:080088003FCA8EEB41E7949E94
:080089003FCAC0152249F20034
:08008A003FCAF13AE29CE67561
:08008B003FCB225C7B4C2E767A
:08008C003FCB5379E4C42A8044
:08008D003FCB84931771E042A0
:08008E003FCBB5A80BC2FBCB70
:08008F003FCBE6B8BA25D0B062
:080090003FCC17C51B095B38CA
:080091003FCC48CD26DD41887B
:080092003FCC79D0D611D4CC8B
:080093003FCCAAD02118126431
:080094003FCCDBCB0061A50DA0
:080095003FCD0CC16C60E609CF
:080096003FCD3DB35D88DE4F54
:080097003FCD6EA0CC4D47AD3A
:080098003FCD9F89B1228DFAD2
:080099003FCDD06E047DD03B89
:08009A003FCE014DBED4E1CDC3
:08009B003FCE3228D89E4B92A3
:08009C003FCE62FF4A514D17EF
:08009D003FCE93D10C65DDBDDF
:08009E003FCEC49E1754ADE9EA
:08009F003FCEF56663972822AD
:0800A0003FCF2629E9A77247B2
:0800A1003FCF56E8A2006EAB50
:0800A2003FCF87A2851DBD4779
:0800A3003FCFB8578B7BBCE393
:0800A4003FCFE907AD978C3551
:0800A5003FD00CD971F7858BE7
:0800A6003FD0252C93806DD1A1
:0800A7003FD03D7D37A631B2C8
:0800A8003FD055CB5AA8E63EFB
:0800A9003FD06E16F8C9036494
:0800AA003FD086600E47648719
:0800AB003FD09EA697654910A5
:0800AC003FD0B6EA9064550351
:0800AD003FD0CF2BF5869193A3
:0800AE003FD0E76AC30E6DB5F7
:0800AF003FD0FFA6F53EBEB3F1
:0800B0003FD117E0885AC0C2DD
:0800B1003FD1301778A6179526
:0800B2003FD1484BC264CEEDC2
:0800B3003FD1607D61DB5B3190
:0800B4003FD178AC534E99FFD7
:0800B5003FD190D89303D2BFA4
:0800B6003FD1A9021D40B7373C
:0800B7003FD1C128EE4B64208B
:0800B8003FD1D94D026A61B687
:0800B9003FD1F16E55E4A449AA
:0800BA003FD2098CE5018CD94D
:0800BB003FD221A8AC08E9A026
:0800BC003FD239C1A742F6A7AB
:0800BD003FD251D7D2F85E5B7F
:0800BE003FD269EB2B723A20DE
:0800BF003FD281FBACFA12DF15
:0800C0003FD29A0953D9E19ED9
:0800C1003FD2B2141C5C100FC9
:0800C2003FD2CA1C02CB7924D5
:0800C3003FD2E221037369A1A1
:0800C4003FD2FA231A9FA0AD00
:0800C5003FD31222449C506756
:0800C6003FD32A1E7DB61E7611
:0800C7003FD34217C23A249D09
:0800C8003FD35A0E0E75F14BF7
:0800C9003FD372015EB7882CE1
:0800CA003FD389F1AF4D62BF85
:0800CB003FD3A1DEFC8670E4C6
:0800CC003FD3B9C942B219701B
:0800CD003FD3D1B07E203ABE02
:0800CE003FD3E994AB212B4163
:0800CF003FD40175C605BA110A
:0800D0003FD41953CB1F2F850B
:0800D1003FD4312EB6BF4DBE35
:0800D2003FD449068538513A7C
:0800D3003FD460DB32DCF16672
:0800D4003FD478ACBC00612EA2
:0800D5003FD4907B1CF64F8D17
:0800D6003FD4A8465212E823B2
:0800D7003FD4C00E57AAD3C0AC
:0800D8003FD4D7D32A1338FAF4
:0800D9003FD4EF94C5A1BCB5B2
:0800DA003FD5075326AC82C19B
:0800DB003FD51F0E498A2E5F7C
:0800DC003FD536C62A91E2D996
:0800DD003FD54E7AC61B440D0D
:0800DE003FD5662C187E770166
:0800DF003FD57DDA1E142272E8
:0800E0003FD59584D3356F660E
:0800E1003FD5AD2C343C09B8F9
:0800E2003FD5C4D03D8220ACE3
:0800E3003FD5DC70EB62678081
:0800E4003FD5F40E3A3815F483
:0800E5003FD60BA8265EE8E5FA
:0800E6003FD6233EAC3322D4C7
:0800E7003FD63AD1C8118C7B11
:0800E8003FD6526176577559AD
:0800E9003FD669EDB362B44497
:0800EA003FD681767B91A7F857
:0800EB003FD698FBCB4337A57B
:0800EC003FD6B07D9ED6D37E05
:0800ED003FD6C7FBF2AC754DD4
:0800EE003FD6DF76C324A0FB1E
:0800EF003FD6F6EE0CA06522DD
:0800F0003FD70E61CB815BA13B
:0800F1003FD725D1FC29AA210B
:0800F2003FD73D3E9AFC02AD30
:0800F3003FD754A7A45BA43B16
:0800F4003FD76C0D14AC5B3D1D
:0800F5003FD7836EE852822E12
:0800F6003FD79ACD1BB3022392
:0800F7003FD7B227AB3353558C
:0800F8003FD7C97E93397DB6A4
:0800F9003FD7E0D1D02C1976AD
:0800FA003FD7F8215E724F9B15
:0800FB003FD80F6D3A73DA875C
:0800FC003FD826B56099068C7F
:0800FD003FD83DF9CD4AB27570
:0800FE003FD8553A7CF2501581
:0800FF003FD86C776BF9E4D8DF
:080100003FD883B096CC0A4CF5
:080101003FD89AE5F9D3EEB0F6
:080102003FD8B217917D55852D
:080103003FD8C9455A34981495
:080104003FD8E06F5066A6022F
:080105003FD8F795708105DA7F
:080106003FD90EB7B6F1D59800
:080107003FD925D62027CB3D8E
:080108003FD93CF0A8923553E9
:080109003FD954074CA0FB8113
:08010A003FD96B1A08C49F12D3
:08010B003FD98228D96E3B8622
:08010C003FD99933BB0F871C9A
:08010D003FD9B03AAA1AD35FF2
:08010E003FD9C73DA3030DB466
:08010F003FD9DE3CA23BBFE139
:080110003FD9F537A43910A016
:080111003FDA0C2EA56FC42596
:080112003FDA2321A2553CAFA6
:080113003FDA3A10975F7B0F01
:080114003FDA50FB81051F38A2
:080115003FDA67E25BBD68C739
:080116003FDA7EC52400379298
:080117003FDA95A3D6460C3037
:080118003FDAAC7E6F08088895
:080119003FDAC354EABFF056BF
:08011A003FDADA2745E829BEAF
:08011B003FDAF0F57CFBBDD4D6
:08011C003FDB07BF8C7659237D
:08011D003FDB1E8570D44C3E4F
:08011E003FDB354726928C46B9
:08011F003FDB4C04AA2EB3786B
:080120003FDB62BDF82701B4CA
:080121003FDB79730CFA5D0D60
:080122003FDB9023E528524C5D
:080123003FDBA6D07D31158100
:080124003FDBBD78D195828814
:080125003FDBD41CDED71D9660
:080126003FDBEABCA17813C421
:080127003FDC015815FB3B957C
:080128003FDC17EF38E41583FA
:080129003FDC2E8206B6CC86F5
:08012A003FDC45107BF836A014
:08012B003FDC5B9A952DD566BF
:08012C003FDC72204EDDD68796
:08012D003FDC88A1A58F1459E5
:08012E003FDC9F1E95C9165F1E
:08012F003FDCB5971C1411D24E
:080130003FDCCC0B34F8EA2C93
:080131003FDCE27ADD0131B18F
:080132003FDCF8E610B729F5E7
:080133003FDD0F4CCCA5C466B2
:080134003FDD25AF0D58A2D5F7
:080135003FDD3C0CCF5C17FE1E
:080136003FDD52660F3D281168
:080137003FDD68BAC98989386F
:080138003FDD7F0AFACFA4218C
:080139003FDD95569F9E948561
:08013A003FDDAB9DB48629B145
:08013B003FDDC1E03616E70CC0
:08013C003FDDD81E20E204A201
:08013D003FDDEE5771796FA55B
:08013E003FDE048C246FCAFCB3
:08013F003FDE1ABC36586FC602
:080140003FDE30E7A3C76DE2CA
:080141003FDE470E69518C7589
:080142003FDE5D30838C4A743E
:080143003FDE734DEF0DDF28D4
:080144003FDE8966A86D3AB4A4
:080145003FDE9F7AAC4206A0E8
:080146003FDEB589F724A65C39
:080147003FDECB9485AE37C505
:080148003FDEE19A547893B404
:080149003FDEF79B601E4E76BD
:08014A003FDF0D97A53AB85CF8
:08014B003FDF238F2069DE4431
:08014C003FDF3981CE488A1221
:08014D003FDF4F6FAB74434428
:08014E003FDF6558B48B4F6BD5
:08014F003FDF7B3CE62CB2BC53
:080150003FDF911C3CF8308BED
:080151003FDFA6F6B58E4BDB83
:080152003FDFBCCC4C9047D606
:080153003FDFD29CFEA02861F1
:080154003FDFE868C860B293C8
:080155003FDFFE2FA6756D428D
:080156003FE009F8CAC150C5E1
:080157003FE014D74916ADA3E7
:080158003FE01FB34C8DB4D24F
:080159003FE02A8CD379AFCC02
:08015A003FE03563DC2E4A3959
:08015B003FE0403864FF922AE6
:08015C003FE04B0A6C41F86022
:08015D003FE055D9F04A50893A
:08015E003FE060A6EF6DD187C0
:08015F003FE06B71680215AE70
:080160003FE07639585D1B06F3
:080161003FE080FEBED5439291
:080162003FE08BC199C15589F2
:080163003FE09681E7787B9FE5
:080164003FE0A13FA652454116
:080165003FE0ABFAD4A6A6DDD1
:080166003FE0B6B370CDFA19B9
:080167003FE0C1697920FE228E
:080168003FE0CC1CEBF8D7E2EC
:080169003FE0D6CDC7AF124400
:08016A003FE0E17C0A9D9E7A52
:08016B003FE0EC27B31ED4377E
:08016C003FE0F6D0BF8D71F8F1
:08016D003FE101772E449D3AA9
:08016E003FE10C1AFD9FE2C8FD
:08016F003FE116BC2BFB36F04A
:080170003FE1215AB7B2F5CDC1
:080171003FE12BF69F23E37F21
:080172003FE1368FE0AB2C7673
:080173003FE141267AA665A9CF
:080174003FE14BBA6B738CDB19
:080175003FE1564BB17108DBBC
:080176003FE160DA4AFDA9C572
:080177003FE16B663678A943F5
:080178003FE175EF7241AAC7D7
:080179003FE18075FCB8BBD624
:08017A003FE18AF9D43E543D37
:08017B003FE1957AF733565C71
:08017C003FE19FF963F90F5AFE
:08017D003FE1AA7518F1377289
:08017E003FE1B4EE147DF2260E
:08017F003FE1BF645501CE8988
:080180003FE1C9D7D8DFC779C0
:080181003FE1D4489E7B43E1FD
:080182003FE1DEB6A43816FAD5
:080183003FE1E921E87A8084E4
:080184003FE1F38A69A72D0E8B
:080185003FE1FDF026233631B5
:080186003FE208531C5422CF94
:080187003FE212B34A9FE75466
:080188003FE21D10AF6CE5F42D
:080189003FE2276B4921EEEC77
:08018A003FE231C3162640BC20
:08018B003FE23C1814E1886F0B
:08018C003FE2466A43BBE1D1EA
:08018D003FE250B9A11DD7B4F7
:08018E003FE25B062B706429BF
:08018F003FE2654FE11CF0C7DF
:080190003FE26F96C08D56E0BE
:080191003FE279DAC82BDFCB55
:080192003FE2841BF6634515F2
:080193003FE28E5A499EB0CCF8
:080194003FE29895C049BDB59A
:080195003FE2A2CE58D0778EA4
:080196003FE2AD04119F5B4F35
:080197003FE2B736E923575F90
:080198003FE2C166DDC9CBDEC8
:080199003FE2CB93EE008AD88F
:08019A003FE2D5BE1835D88FF5
:08019B003FE2DFE55AD86BAA30
:08019C003FE2EA09B4576D824D
:08019D003FE2F42B23227A5407
:08019E003FE2FE49A5A9A1887A
:08019F003FE308653A5D65E8E5
:0801A0003FE3127DDFAEBDDD7F
:0801A1003FE31C93940F13B51A
:0801A2003FE326A655F045D805
:0801A3003FE330B623C4A709B5
:0801A4003FE33AC2FBFEFEA19D
:0801A5003FE344CCDD1288D1D8
:0801A6003FE34ED3C572F6D908
:0801A7003FE358D7B3946F4CFD
:0801A8003FE362D8A5EB8E4491
:0801A9003FE36CD69AED65A856
:0801AA003FE376D1910F7D6661
:0801AB003FE380C986C7D3AA17
:0801AC003FE38ABE7A8CDD26D8
:0801AD003FE394B06AD58543DD
:0801AE003FE39E9F56192E67E6
:0801AF003FE3A88B3ACFB22B0D
:0801B0003FE3B2741771619C7A
:0801B1003FE3BC59EA77057237
:0801B2003FE3C63CB259DE56E2
:0801B3003FE3D01C6D93A5137E
:0801B4003FE3D9F91A9E8AD637
:0801B5003FE3E3D2B7F5397115
:0801B6003FE3EDA94412D38DD3
:0801B7003FE3F77CBD72F4EC9C
:0801B8003FE4014D2291B2A2C7
:0801B9003FE40B1A71EB9B55AA
:0801BA003FE414E4A9FDB77154
:0801BB003FE41EABC945896E4B
:0801BC003FE4286FCE410E0064
:0801BD003FE43230B76EBC6074
:0801BE003FE43BEE834D867A1D
:0801BF003FE445A9305CD92F93
:0801C0003FE44F60BD1C9C945C
:0801C1003FE45915280D342517
:0801C2003FE462C66FAF7F0647
:0801C3003FE46C749284D83A09
:0801C4003FE4761F8F0F16E5E2
:0801C5003FE47FC763D08E7C8C
:0801C6003FE4896C0F4C0F0BA4
:0801C7003FE4930D9004E5688C
:0801C8003FE49CABE47EDB7315
:0801C9003FE4A6470B3E384B52
:0801CA003FE4AFDF02C7C08D66
:0801CB003FE4B973C9A0B6902E
:0801CC003FE4C3055E4EDA9822
:0801CD003FE4CC93BF586B190D
:0801CE003FE4D61EEB4424E9D6
:0801CF003FE4DFA6E099438341
:0801D0003FE4E92B9DDF8138BB
:0801D1003FE4F2AD219F17721B
:0801D2003FE4FC2B6A60BEE56E
:0801D3003FE505A676ADAFD2B1
:0801D4003FE50F1E450FA237A5
:0801D5003FE51892D410CE1290
:0801D6003FE52204223BEB95FA
:0801D7003FE52B722E1C335F83
:0801D8003FE534DCF63D5EBD9D
:0801D9003FE53E44792BA7D756
:0801DA003FE547A8B573C9F623
:0801DB003FE55109A9A301B49D
:0801DC003FE55A6754470D3A54
:0801DD003FE563C1B3EE2C798C
:0801DE003FE56D18C727216001
:0801DF003FE5766C8C813017BE
:0801E0003FE57FBD028C1F37D3
:0801E1003FE5890A27D8380721
:0801E2003FE59253FAF646AC2A
:0801E3003FE59B9A7A779A6BC5
:0801E4003FE5A4DDA4EE05DAFD
:0801E5003FE5AE1D78EBDF20C1
:0801E6003FE5B759F5040023C1
:0801E7003FE5C09317C9C6CD26
:0801E8003FE5C9C8DFD115395C
:0801E9003FE5D2FB4BAE51F2E1
:0801EA003FE5DC2A59F6682804
:0801EB003FE5E556093EC7EAB5
:0801EC003FE5EE7E581D665C44
:0801ED003FE5F7A34528BDEE34
:0801EE003FE600C4CEF7CE9BF2
:0801EF003FE609E2F4221E14B0
:0801F0003FE612FDB33FB80425
:0801F1003FE61C150AE92E3E51
:0801F2003FE62528F9B798FD4E
:0801F3003FE62E397E4497140B
:0801F4003FE63746972A4E282A
:0801F5003FE6405043036AE9B4
:0801F6003FE64956806B2147EA
:0801F7003FE652594DFD2CAA10
:0801F8003FE65B58AA55D02533
:0801F9003FE664549411D6B7EF
:0801FA003FE66D4D09CE937440
:0801FB003FE676420A29E1C942
:0801FC003FE67F3393C225A703
:0801FD003FE68821A5364BC343
:0801FE003FE6910C3D25C9C745
:0801FF003FE699F35A309E8897
:080200003FE6A2D6FAF75241D5
:080201003FE6ABB71E1AF6C47C
:080202003FE6B493C23D27B5AD
:080203003FE6BD6CE6000AB9FC
:080204003FE6C64288064FB632
:080205003FE6CF14A6F330FE22
:080206003FE6D7E3416A738D66
:080207003FE6E0AE5610673A35
:080208003FE6E975E389E6F227
:080209003FE6F239E87C58E5FC
:08020A003FE6FAFA638DAEC273
:08020B003FE703B7536465ED02
:08020C003FE70C70B6A787AEB6
:08020D003FE715268BFEA96EE8
:08020E003FE71DD8D211ECE618
:08020F003FE72687878A0057AC
:080210003FE72F32AB101EBCCA
:080211003FE737DA3B4E10060F
:080212003FE7407E36EE29486B
:080213003FE7491E9C9B4CF0E3
:080214003FE751BB6B00EAFE5D
:080215003FE75A54A0CB012F72
:080216003FE762EA3CA61B4130
:080217003FE76B7C3D3F5318EB
:080218003FE7740AA14450FB0A
:080219003FE77C9567634BC5CC
:08021A003FE7851C8E4B091C17
:08021B003FE78DA014AADDA14C
:08021C003FE7961FF932AD2700
:08021D003FE79E9C3A92EAE5DE
:08021E003FE7A714D77C99AB60
:08021F003FE7AF89CEA14C16A8
:080220003FE7B7FB1EB324BF4A
:080221003FE7C068C664D6780F
:080222003FE7C8D2C469A474CF
:080223003FE7D1391775628530
:080224003FE7D99BBE3C754683
:080225003FE7E1FAB773D2557F
:080226003FE7EA5601D1008216
:080227003FE7F2AD9C0A180448
:080228003FE7FB0184D5C2AAE7
:080229003FE80351BAEB3C0F62
:08022A003FE80B9E3D0251D09C
:08022B003FE813E709D363B7B4
:08022C003FE81C2C201763F4CD
:08022D003FE8246D7E87D74CE9
:08022E003FE82CAB23DED550A4
:08022F003FE834E50ED7088515
:080230003FE83D1B3E2BAEA68A
:080231003FE8454DB09898C468
:080232003FE84D7C64DA2B89E2
:080233003FE855A759AD5F5DDE
:080234003FE85DCE8DCFC09DB7
:080235003FE865F1FFFF6FD007
:080236003FE86E11AEFB21D27E
:080237003FE8762D9982200AB0
:080238003FE87E45BE544899E1
:080239003FE8865A1C320E8FCB
:08023A003FE88E6AB1DC7A177F
:08023B003FE896777E1528AE1E
:08023C003FE89E807F9E4D4DBE
:08023D003FE8A685B53AB0A226
:08023E003FE8AE871DADB13CA5
:08023F003FE8B684B7BB43BCE5
:080240003FE8BE7E8227F307B0
:080241003FE8C6747BB8E075CC
:080242003FE8CE66A333C408B7
:080243003FE8D654F75EEC8F92
:080244003FE8DE3F77013FE6D1
:080245003FE8E62620E23B1B26
:080246003FE8EE08F3C9F2A441
:080247003FE8F5E7EE81128BA0
:080248003FE8FDC30FD0DEA367
:080249003FE9059A568332B427
:08024A003FE90D6DC16282AABB
:08024B003FE9153D4F39DACB04
:08024C003FE91D08FED4DFDECE
:08024D003FE924D0CEFFCF628F
:08024E003FE92C94BE877FB844
:08024F003FE93454CC3960583A
:080250003FE93C10F6E379FAE6
:080251003FE943C93D546ECAA8
:080252003FE94B7D9E5B7A93AE
:080253003FE9532E18C872F3B5
:080254003FE95ADAAB6BC786E3
:080255003FE962835516821691
:080256003FE96A28149A46CA28
:080257003FE971C8E8C95455E4
:080258003FE97965D0768422AC
:080259003FE980FECA754A85E9
:08025A003FE98893D599B6EB4A
:08025B003FE99024F0B87403A0
:08025C003FE997B21AA6C7F1B1
:08025D003FE99F3B523A9478FF
:08025E003FE9A6C0964A572EA5
:08025F003FE9AE41E5AD29A322
:080260003FE9B5BF3F3AC19030
:080261003FE9BD38A1CB710C8F
:080262003FE9C4AE0C3826AFE1
:080263003FE9CC1F7D5A6DC874
:080264003FE9D38CF40C6E8617
:080265003FE9DAF66F28EE25EF
:080266003FE9E25BED8B4F1E46
:080267003FE9E9BD6E0F915261
:080268003FE9F11AEF9252394F
:080269003FE9F87470F0CD0CC0
:08026A003FE9FFC9F108DAF4D5
:08026B003FEA071B6EB8F336F1
:08026C003FEA0E68E8E02B6296
:08026D003FEA15B25E5E37792D
:08026E003FEA1CF7CE136A23DE
:08026F003FEA243936E0B4D364
:080270003FEA2B7697A7A7F7E0
:080271003FEA32AFEF4A7324AB
:080272003FEA39E53CABE5432E
:080273003FEA41167EAF6CBAB0
:080274003FEA4843B439179931
:080275003FEA4F6CDC2D93C938
:080276003FEA5691F5722F33A7
:080277003FEA5DB2FEECD7F096
:080278003FEA64CFF7841C6E1D
:080279003FEA6BE8DE1F2BA534
:08027A003FEA72FDB1A5D53980
:08027B003FEA7A0E710089AA26
:08027C003FEA811B1B185A7FA9
:08027D003FEA8823AED6FA71B6
:08027E003FEA8F282B26BD92F8
:08027F003FEA96288EF2997EF9
:080280003FEA9D24D9262582E6
:080281003FEAA41D08AD9AC676
:080282003FEAAB111C75D47BAF
:080283003FEAB201136C5002C6
:080284003FEAB8ECEC7F2D17F6
:080285003FEABFD4A69D2DFE47
:080286003FEAC6B840B5B7A974
:080287003FEACD97B9B8D1E5BB
:080288003FEAD47310972783AD
:080289003FEADB4A4442068112
:08028A003FEAE21D53AB6035B1
:08028B003FEAE8EC3DC5C9772C
:08028C003FEAEFB701847AC9D3
:08028D003FEAF67D9DDB508184
:08028E003FEAFD4011BECAF475
:08028F003FEB03FE5C240E9C12
:080290003FEB0AB87C00E443D7
:080291003FEB116E704BB92D1B
:080292003FEB182037FB9F42EF
:080293003FEB1ECDD2084D2FF8
:080294003FEB25773D6A1E9A3D
:080295003FEB2C1C791A144404
:080296003FEB32BD8411D431AD
:080297003FEB395A5D4BA9D47D
:080298003FEB3FF303C2863483
:080299003FEB46877672001A64
:08029A003FEB4D17B456542E42
:08029B003FEB53A3BC6C652C82
:08029C003FEB5A2B8DB1BC05AC
:08029D003FEB60AF2724880647
:08029E003FEB672E87C39F03AD
:08029F003FEB6DA9AE8E7D7DE1
:0802A0003FEB74209A8546CA69
:0802A1003FEB7A934AA8C53C2B
:0802A2003FEB8101BDFA6A493E
:0802A3003FEB876BF37C4EB3C7
:0802A4003FEB8DD1EA3132ACD1
:0802A5003FEB9433A11C7E0025
:0802A6003FEB9A911742403C26
:0802A7003FEBA0EA4BA730D3A6
:0802A8003FEBA73F3D50AF48BA
:0802A9003FEBAD8FEB44C34DA8
:0802AA003FEBB3DC548A1CF4A5
:0802AB003FEBBA24782814D0BF
:0802AC003FEBC0685526AC18B9
:0802AD003FEBC6A7EA8E8CD4DA
:0802AE003FEBCCE337690A01C4
:0802AF003FEBD31A3AC01FB463
:0802B0003FEBD94CF39E7343B0
:0802B1003FEBDF7B610F536797
:0802B2003FEBE5A5821EB86ACE
:0802B3003FEBEBCB55D94445AC
:0802B4003FEBF1ECDB4C42C60C
:0802B5003FEBF80A1185A9B81E
:0802B6003FEBFE22F794190A48
:0802B7003FEC04378C86DAEEFF
:0802B8003FEC0A47CF6DE4059D
:0802B9003FEC1053BF59D38044
:0802BA003FEC165B5B5BF347B0
:0802BB003FEC1C5EA28638181E
:0802BC003FEC225D93EB41B51C
:0802BD003FEC28582E9E5B0463
:0802BE003FEC2E4E71B37A31C2
:0802BF003FEC34405C3F40D6E7
:0802C0003FEC3A2DED56FC1F46
:0802C1003FEC40172410A4ECEF
:0802C2003FEC45FBFF82DFF673
:0802C3003FEC4BDC7EC4FDF5AD
:0802C4003FEC51B8A0EEFBC3B2
:0802C5003FEC57906519827DA2
:0802C6003FEC5D63CA5DE7AA8D
:0802C7003FEC6332CFD62D5B42
:0802C8003FEC68FD749D025734
:0802C9003FEC6EC3B7CDC22F5C
:0802CA003FEC74859884757304
:0802CB003FEC7A4315DDD1C8B8
:0802CC003FEC7FFC2EF73A1114
:0802CD003FEC85B0E2EEBE8FAC
:0802CE003FEC8B6130E31D08D9
:0802CF003FEC910D17F3C0E6AE
:0802D0003FEC96B49740C35ABD
:0802D1003FEC9C57ADEAEB8104
:0802D2003FECA1F65B13AE82C4
:0802D3003FECA7909DDD2FB761
:0802D4003FECAD26756A40C73E
:0802D5003FECB2B7E0DE61D09E
:0802D6003FECB844DF5DC18478
:0802D7003FECBDCD700D3D4D63
:0802D8003FECC3519212616B6F
:0802D9003FECC8D14493691DFC
:0802DA003FECCE4C86B73EBCA0
:0802DB003FECD3C357A57BE102
:0802DC003FECD935B686697FBD
:0802DD003FECDEA3A283001038
:0802DE003FECE40D1AC4E7AD8A
:0802DF003FECE9721E76782F56
:0802E0003FECEED2ACC2B956AE
:0802E1003FECF42EC4D562E7E6
:0802E2003FECF98665DADCCA85
:0802E3003FECFED98F003F2D16
:0802E4003FED04283F7352A511
:0802E5003FED09727662904EB4
:0802E6003FED0EB832FD21EDE1
:0802E7003FED13F97472E20906
:0802E8003FED193639F45C15F5
:0802E9003FED1E6E82B2CC8BCA
:0802EA003FED23A24DE0210AC3
:0802EB003FED28D19AAEF87A2C
:0802EC003FED2DFC6852A3292F
:0802ED003FED3322B5FF22ECC6
:0802EE003FED384482E92B3C8E
:0802EF003FED3D61CE46215AAE
:0802F0003FED427A974C1C68B7
:0802F1003FED478EDD31E59081
:0802F2003FED4C9E9F2EF81910
:0802F3003FED51A9DC7B818E77
:0802F4003FED56B0945061DDAE
:0802F5003FED5BB2C5E72B6F82
:0802F6003FED60B0707A234B6C
:0802F7003FED65A99344413776
:0802F8003FED6A9E2D812FD11C
:0802F9003FED6F8E3E6D4CAF2E
:0802FA003FED7479C545A880B1
:0802FB003FED7960C1480727BF
:0802FC003FED7E4331B2DFDB70
:0802FD003FED832115C55D42B0
:0802FE003FED87FA6CBF5D9132
:0802FF003FED8CCF35E172AA3E
:080300003FED919F706CE237A4
:080301003FED966B1BA3A5CB99
:080302003FED9B3236C86AFC96
:080303003FED9FF4C11E93843D
:080304003FEDA4B2B9EA355740
:080305003FEDA96C20701AC83D
:080306003FEDAE20F3F5C2A2A9
:080307003FEDB2D133C16046A5
:080308003FEDB77CDF19DBC4F7
:080309003FEDBC23F546D1FDD8
:08030A003FEDC0C6759094BFE1
:08030B003FEDC5645F402AD8F4
:08030C003FEDC9FDB19F504116
:08030D003FEDCE926BF8762F54
:08030E003FEDD3228D96C333AD
:08030F003FEDD7AE15C61354F3
:080310003FEDDC3503D2F82FAC
:080311003FEDE0B7570AB90EF9
:080312003FEDE5350EBB530879
:080313003FEDE9AE2A33791435
:080314003FEDEE22A8C2943077
:080315003FEDF29289B8C376B6
:080316003FEDF6FDCC66DC347E
:080317003FEDFB64701E6A0C4F
:080318003FEDFFC67431AF1187
:080319003FEE0423D7F3A3DA41
:08031A003FEE087C9AB7F7A240
:08031B003FEE0CD0BBD31063D0
:08031C003FEE11203A9A0AEDB0
:08031D003FEE156B1662BB05F3
:08031E003FEE19B14E83AB79EB
:08031F003FEE1DF2E2541E4105
:080320003FEE222FD12C0C94BA
:080321003FEE26681A6427056F
:080322003FEE2A9BBD55D59961
:080323003FEE2ECAB95B37E77B
:080324003FEE32F50DCF252A52
:080325003FEE371ABA0D2C61FE
:080326003FEE3B3BBD71946307
:080327003FEE3F5817595BFC43
:080328003FEE436FC7223A08C3
:080329003FEE4782CC2A9D83C0
:08032A003FEE4B9125D1ADAC73
:08032B003FEE4F9AD3774A1A06
:08032C003FEE539FD47C0AD17F
:08032D003FEE57A02841406299
:08032E003FEE5B9BCE28F3FDBE
:08032F003FEE5F92C595E78CDB
:080330003FEE63850DEB95CC57
:080331003FEE6772A68E3264F4
:080332003FEE6B5B8EE2A9FBBC
:080333003FEE6F3FC64EA257DA
:080334003FEE731F4C387A6B99
:080335003FEE76FA20074A763C
:080336003FEE7AD04122E418E9
:080337003FEE7EA1AEF3D26A95
:080338003FEE826E68E35A13E8
:080339003FEE86366E5B79652C
:08033A003FEE89F9BEC6E86D33
:08033B003FEE8DB85991190F36
:08033C003FEE91723E26371BD3
:08033D003FEE95276BF32864E5
:08033E003FEE98D7E2658CD870
:08033F003FEE9C83A0EBBE948D
:080340003FEEA02AA6F4D1FB58
:080341003FEEA3CCF3F095D1CF
:080342003FEEA76A874F9349C3
:080343003FEEAB0360830E23C3
:080344003FEEAE977EFD04BB05
:080345003FEEB226E230302841
:080346003FEEB5B189900446B9
:080347003FEEB9377490AFD608
:080348003FEEBCB8A2A71C8E19
:080349003FEEC0351348EF310F
:08034A003FEEC3ACC5EC87A235
:08034B003FEEC71FBA0900FBD9
:08034C003FEECA8DEF1631A24D
:08034D003FEECDF7648CAB5EBE
:08034E003FEED15C19E5BB6A2A
:08034F003FEED4BC0E9B6A8C4A
:080350003FEED81742287D2A78
:080351003FEEDB6DB408735CA4
:080352003FEEDEBF63B7890333
:080353003FEEE20C50B2B5DCF4
:080354003FEEE5547A77AD930A
:080355003FEEE897E084DFDBD6
:080356003FEEEBD68259787DE1
:080357003FEEEF105F755F72CD
:080358003FEEF245775938EE43
:080359003FEEF575C986657CD5
:08035A003FEEF8A1557F0210EF
:08035B003FEEFBC81AC5E815CE
:08035C003FEEFEEA18DEAD865B
:08035D003FEF02074F4DA4FE23
:08035E003FEF051FBD97DDCF45
:08035F003FEF08336343240F54
:080360003FEF0B423FD600B055
:080361003FEF0E4C52D7B98F9B
:080362003FEF11519BD0518CBB
:080363003FEF14521A4888957F
:080364003FEF174DCDC9DBBED0
:080365003FEF1A44B5DE85529A
:080366003FEF1D36D2117CE5CA
:080367003FEF202421EE776432
:080368003FEF230CA501E72A79
:080369003FEF25F05AD8FC1209
:08036A003FEF28CF4301A384FB
:08036B003FEF2BA95D0A888C0D
:08036C003FEF2E7EA88313E988
:08036D003FEF314F24FB6C1F30
:08036E003FEF341AD204758838
:08036F003FEF36E1AF2FD2632E
:080370003FEF39A3BC0FE2EAE4
:080371003FEF3C60F837C56066
:080372003FEF3F19633B561FEA
:080373003FEF41CCFCAF2FADC0
:080374003FEF447BC428AACC32
:080375003FEF4725B93DDE888A
:080376003FEF49CADB85A04AF4
:080377003FEF4C6B2A9783E66F
:080378003FEF4F06A60BDBADC1
:080379003FEF519D4D7BB87B65
:08037A003FEF542F2080E9CA77
:08037B003FEF56BC1EB5FDBEAC
:08037C003FEF594447B6413739
:08037D003FEF5BC79B1DBFE0D1
:08037E003FEF5E461889443E82
:08037F003FEF60BFBF9657C0BD
:080380003FEF63348FE342CD2F
:080381003FEF65A4890F0CD5C4
:080382003FEF680FAAB97C608F
:080383003FEF6A75F4831718BF
:080384003FEF6CD7660D21DF8D
:080385003FEF6F33FEF9A0D831
:080386003FEF718BBEEB5779CC
:080387003FEF73DEA585C89667
:080388003FEF762CB26D3673D5
:080389003FEF7875E546A2CFB5
:08038A003FEF7ABA3DB7CEF453
:08038B003FEF7CF9BB673BC5A5
:08038C003FEF7F345DFC29C93D
:08038D003FEF816A251E993C37
:08038E003FEF839B10774A1C2E
:08038F003FEF85C71FAFBC352D
:080390003FEF87EE52722F2FA0
:080391003FEF8A10A869A29B4E
:080392003FEF8C2E2141D60241
:080393003FEF8E46BCA748EFC6
:080394003FEF905A7A473AFD51
:080395003FEF926959CFABE67E
:080396003FEF94735AEF5B8BFB
:080397003FEF96787D55CA0680
:080398003FEF9878C0B337B2C3
:080399003FEF9A7424B8A53A65
:08039A003FEF9C6AA917D3A2F2
:08039B003FEF9E5C4D834458C6
:08039C003FEFA04911AE393C0E
:08039D003FEFA230F54CB4ADB6
:08039E003FEFA413F81379945A
:08039F003FEFA5F219B80B7144
:0803A0003FEFA7CB59F0AE6658
:0803A1003FEFA99FB874674308
:0803A2003FEFAB6F34FAFB8D55
:0803A3003FEFAD39CF3CF191B1
:0803A4003FEFAEFF86F3906805
:0803A5003FEFB0C05BD8E0049B
:0803A6003FEFB27C4DA7A93E18
:0803A7003FEFB4335C1B75DC71
:0803A8003FEFB5E586F0909DE2
:0803A9003FEFB792CDE40545DA
:0803AA003FEFB93B30B3A0A600
:0803AB003FEFBADEAF1DF0AC1C
:0803AC003FEFBC7D48E2446212
:0803AD003FEFBE16FDC0AC03DA
:0803AE003FEFBFABCD79F8FF72
:0803AF003FEFC13BB7CFBE07D1
:0803B0003FEFC2C6BC844F13ED
:0803B1003FEFC44CDB5AC1739D
:0803B2003FEFC5CE1416EBCF9E
:0803B3003FEFC74A667D663981
:0803B4003FEFC8C1D2538A2FAC
:0803B5003FEFCA34575F72A943
:0803B6003FEFCBA1F567FC1F2E
:0803B7003FEFCD0AAC34C49401
:0803B8003FEFCE6E7B8E2B9C03
:0803B9003FEFCFCD633D526917
:0803BA003FEFD127630C1BCFBC
:0803BB003FEFD27C7AC52C4C07
:0803BC003FEFD3CCAA33EA1590
:0803BD003FEFD517F1247D1C70
:0803BE003FEFD65E4F63CF1440
:0803BF003FEFD79FC4BF8B7F05
:0803C0003FEFD8DC51061FB12C
:0803C1003FEFDA13F406BADD88
:0803C2003FEFDB46AD914E1543
:0803C3003FEFDC747D768C57DE
:0803C4003FEFDD9D6387EA9520
:0803C5003FEFDEC15F979FB717
:0803C6003FEFDFE07178A4A70E
:0803C7003FEFE0FA98FEB45587
:0803C8003FEFE20FD5FE4BBF31
:0803C9003FEFE320284CA9F9E5
:0803CA003FEFE42B8FBFD0319F
:0803CB003FEFE5320C2E81B575
:0803CC003FEFE6339D7043FF93
:0803CD003FEFE730435D5EB332
:0803CE003FEFE827FDCEDBAC98
:0803CF003FEFE91ACC9E86FF06
:0803D0003FEFEA08AFA6EF01C0
:0803D1003FEFEAF1A6C3644D01
:0803D2003FEFEBD5B1CFF9C9F3
:0803D3003FEFECB4D0A984AEA9
:0803D4003FEFED8F032D9C8A21
:0803D5003FEFEE64493A9B483A
:0803D6003FEFEF34A2AF9D33AD
:0803D7003FEFF0000F6C80FE07
:0803D8003FEFF0C68F51E7C6AC
:0803D9003FEFF18822413517C6
:0803DA003FEFF244C81C8EF550
:0803DB003FEFF2FC80C6DDDA01
:0803DC003FEFF3AF4C23CCBF4F
:0803DD003FEFF45D2A17C9206F
:0803DE003FEFF5061A8802FF4B
:0803DF003FEFF5AA1D5A6CE77F
:0803E0003FEFF6493275BBF551
:0803E1003FEFF6E359C167D5B7
:0803E2003FEFF7789325AACC48
:0803E3003FEFF808DE8B81B842
:0803E4003FEFF8943BDCAC1282
:0803E5003FEFF91AAB03ABF97D
:0803E6003FEFF99C2BEBC62C44
:0803E7003FEFFA18BE8102137A
:0803E8003FEFFA9062B029C258
:0803E9003FEFFB031866C9F7A2
:0803EA003FEFFB70DF933223AB
:0803EB003FEFFBD9B82474694F
:0803EC003FEFFC3DA20A65A4ED
:0803ED003FEFFC9C9D359D6370
:0803EE003FEFFCF6A99775F33F
:0803EF003FEFFD4BC7220C5C3F
:0803F0003FEFFD9BF5C84066DC
:0803F1003FEFFDE7357DB499F3
:0803F2003FEFFE2D8636CE41DF
:0803F3003FEFFE6EE7E8B56E76
:0803F4003FEFFEAB5A8954F6FD
:0803F5003FEFFEE2DE0F5A7833
:0803F6003FEFFF157272365B48
:0803F7003FEFFF4317AA1BD2E0
:0803F8003FEFFF6BCDB000DA0E
:0803F9003FEFFF8F947D9E3F52
:0803FA003FEFFFAE6C0D6F9A9E
:0803FB003FEFFFC8545AB35252
:0803FC003FEFFFDD4D616AA037
:0803FD003FEFFFED571E598987
:0803FE003FEFFFF8718F06E7E5
:0803FF003FEFFFFE9CB1BC6260
:080400003FEFFFFFD885867570
:080401003FEFFFFC250A346AFD
:080402003FEFFFF38240586058
:080403003FEFFFE5F02947443B
:080404003FEFFFD36EC718D7CC
:080405003FEFFFBBFE1CA7A89E
:080406003FEFFF9F9E2D9118AE
:080407003FEFFF7E4EFE355869
:080408003FEFFF581093B768A5
:080409003FEFFF2CE2F3FD15AB
:08040A003FEFFEFCC625AEFB2E
:08040B003FEFFEC7BA30388252
:08040C003FEFFE8DBF1BC7DEB0
:08040D003FEFFE4ED4F14E0A50
:08040E003FEFFE0AFBBA7ECEAF
:08040F003FEFFDC23381D0B6BE
:080410003FEFFD747C527D15E5
:080411003FEFFD21D638800009
:080412003FEFFCCA4140985184
:080413003FEFFC6DBD78479E30
:080414003FEFFC0C4AEDD23F62
:080415003FEFFBA5E9B03F45F4
:080416003FEFFB3A99CF587C3F
:080417003FEFFACA5B5BAA6427
:080418003FEFFA552E66843611
:080419003FEFF9DB1301F7D8F6
:08041A003FEFF95C0940D9E253
:08041B003FEFF8D81136C1983B
:08041C003FEFF84F2AF808E554
:08041D003FEFF7C15699CC5BDB
:08041E003FEFF72E9431EB30A3
:08041F003FEFF696E3D7073624
:080420003FEFF5FA45A084DE70
:080421003FEFF558B9A68B2F3F
:080422003FEFF4B2400203C6F3
:080423003FEFF406D8CC9ACF9C
:080424003FEFF3568420BF04F2
:080425003FEFF2A14219A1A66C
:080426003FEFF1E712D3367C31
:080427003FEFF127F66A33CC28
:080428003FEFF063ECFC1258F9
:080429003FEFEF9AF6A70D5A10
:08042A003FEFEECD138A227CA6
:08042B003FEFEDFA43C511D7C4
:08042C003FEFED2287785DED42
:08042D003FEFEC45DEC54BA4D6
:08042E003FEFEB6449CDE24011
:08042F003FEFEA7DC8B4EB5E6B
:080430003FEFE9925B9DF2EF42
:080431003FEFE8A202AD4733E2
:080432003FEFE7ACBE07F8B391
:080433003FEFE6B28DD3DA3B86
:080434003FEFE5B3723780D4FD
:080435003FEFE4AF6B5A43BF37
:080436003FEFE3A679643C6D81
:080437003FEFE2989C7E467C39
:080438003FEFE185D4D1FFAED6
:080439003FEFE06E2289C7E3EA
:08043A003FEFDF5185D0C11234
:08043B003FEFDE2FFED2CF4798
:08043C003FEFDD098DBC98942F
:08043D003FEFDBDE32BB85114D
:08043E003FEFDAADEDFDBED386
:08043F003FEFD978BFB231E2B2
:080440003FEFD83EA8088C37FD
:080441003FEFD6FFA7313DB1EA
:080442003FEFD5BBBD5D780C56
:080443003FEFD472EABF2EE086
:080444003FEFD3252F89179328
:080445003FEFD1D28BEEA9516B
:080446003FEFD07B00241D0BE9
:080447003FEFCF1E8C5E6D67D4
:080448003FEFCDBD30D356BCDF
:080449003FEFCC56EDB9570A54
:08044A003FEFCAEBC347ADED23
:08044B003FEFC97BB1B65C9DD7
:08044C003FEFC806B93E25DCB4
:08044D003FEFC68CDA188DF3B5
:08044E003FEFC50E147FDAA98F
:08044F003FEFC38A68AF1337C9
:080450003FEFC201D6E20040BB
:080451003FEFC0745F552BCA98
:080452003FEFBEE20245E13379
:080453003FEFBD4ABFF22D2668
:080454003FEFBBAE9898DD9468
:080455003FEFBA0D8C7981AB79
:080456003FEFB8679BD469C7B2
:080457003FEFB6BCC6EAA76D39
:080458003FEFB50D0DFE0D4252
:080459003FEFB35871512EFB77
:08045A003FEFB19EF12761574D
:08045B003FEFAFE08DC4BA15BC
:08045C003FEFAE1D476E0FE8F3
:08045D003FEFAC551E68FA6B7D
:08045E003FEFAA8812FBD21A3D
:08045F003FEFA8B6256DB04483
:080460003FEFA6DF56066F0016
:080461003FEFA503A50EA9263B
:080462003FEFA32312CFBA3DC6
:080463003FEFA13D9F93BE781D
:080464003FEF9F534BA592A24C
:080465003FEF9D641750D4190C
:080466003FEF9B7002E1E0BDD5
:080467003FEF99770EA5D6ECDA
:080468003FEF97793AEA956D28
:080469003FEF957687FEBB6AA8
:08046A003FEF936EF631A8612B
:08046B003FEF916285D37C197B
:08046C003FEF8F513735169761
:08046D003FEF8D3B0AA8180FB8
:08046E003FEF8B20007EE0D778
:08046F003FEF8900190C915EBA
:080470003FEF86DB54A50A1DD5
:080471003FEF84B1B39CEB8660
:080472003FEF82833649960139
:080473003FEF804FDD0129D4A9
:080474003FEF7E17A81A871B59
:080475003FEF7BDA97ED4DBD6E
:080476003FEF7998ACD1DD588D
:080477003FEF7751E721553AF0
:080478003FEF75064735944E75
:080479003FEF72B5CD693911A6
:08047A003FEF70607A17A183C7
:08047B003FEF6E064D9CEB1BE8
:08047C003FEF6BA74855F2B4F5
:08047D003FEF69436AA05484BB
:08047E003FEF66DAB4DA6C0B03
:08047F003FEF646D2763540494
:080480003FEF61FAC29AE65851
:080481003FEF5F8386E1BC0E32
:080482003FEF5D0774992D3B6B
:080483003FEF5A868C2350F76D
:080484003FEF5800CDE2FD49F5
:080485003FEF55763A3BC71B1F
:080486003FEF52E6D19202297A
:080487003FEF5052944AC0F40B
:080488003FEF4DB982CBD4AE69
:080489003FEF4B1B9D7BCD2FC3
:08048A003FEF4878E4C1F8E2FD
:08048B003FEF45D1590664B6AC
:08048C003FEF4324FAB1DC103C
:08048D003FEF4073CA2DE8B6F1
:08048E003FEF3DBDC7E4D2C3FE
:08048F003FEF3B02F441A0978E
:080490003FEF38434FB016C2E4
:080491003FEF357EDA9CB7F85D
:080492003FEF32B59574C4FD83
:080493003FEF2FE780A63C9724
:080494003FEF2D149C9FDB7B60
:080495003FEF2A3CE9D11C3CB9
:080496003FEF276068AA373B25
:080497003FEF247F199C229520
:080498003FEF2198FD189212BC
:080499003FEF1EAE1391F712B4
:08049A003FEF1BBE5D7B807E7D
:08049B003FEF18C9DB491AB25A
:08049C003FEF15D08D6F6F7169
:08049D003FEF12D27463E5CDBC
:08049E003FEF0FCF909CA21A62
:08049F003FEF0CC7E29085D885
:0804A0003FEF09BB6AB72FA36F
:0804A1003FEF06AA2988FB20A9
:0804A2003FEF03941F7F00E807
:0804A3003FEF00794D131679BB
:0804A4003FEEFD59B2BFCE226C
:0804A5003FEEFA35510076F03C
:0804A6003FEEF70C28511C9AEF
:0804A7003FEEF3DE392E876FF2
:0804A8003FEEF0AB84163C406E
:0804A9003FEEED7409867C545E
:0804AA003FEEEA37C9FE454BA5
:0804AB003FEEE6F6C5FD51111C
:0804AC003FEEE3B0FE0415C9A8
:0804AD003FEEE0667293C5B753
:0804AE003FEEDD17242E4F2E56
:0804AF003FEED9C313565C7A3D
:0804B0003FEED66A408F53D1E4
:0804B1003FEED30CAC5D57389F
:0804B2003FEECFAA5745447349
:0804B3003FEECC4341CCB4EF55
:0804B4003FEEC8D76C79FDADE5
:0804B5003FEEC566D7D42F2FDE
:0804B6003FEEC1F18463156102
:0804B7003FEEBE7772AF3787FC
:0804B8003FEEBAF8A341D8247D
:0804B9003FEEB77516A4F4E74D
:0804BA003FEEB3ECCD63469662
:0804BB003FEEB05FC80840FBF2
:0804BC003FEEACCE072012C791
:0804BD003FEEA9378B37A5843F
:0804BE003FEEA59C54DC9D7C7F
:0804BF003FEEA1FC649D59A46D
:0804C0003FEE9E57BB08F385D7
:0804C1003FEE9AAE58AF3F2454
:0804C2003FEE97003E20CAF551
:0804C3003FEE934D6BEEDFB636
:0804C4003FEE8F95E2AB80676B
:0804C5003FEE8BD9A2E96A2A7F
:0804C6003FEE8818AD3C142F35
:0804C7003FEE84530237AFA1A0
:0804C8003FEE8088A271278934
:0804C9003FEE7CB98E7E20BAE3
:0804CA003FEE78E5C6F4F9BC31
:0804CB003FEE750D4C6CCAB147
:0804CC003FEE71301F7D653E1B
:0804CD003FEE6D4E40BF547973
:0804CE003FEE6967B0CBDCCB07
:0804CF003FEE657C703CFBD997
:0804D0003FEE618C7FAD687204
:0804D1003FEE5D97DFB8927069
:0804D2003FEE599E90FAA2A52D
:0804D3003FEE55A094107AC021
:0804D4003FEE519DE997B53799
:0804D5003FEE4D96922EA52D7D
:0804D6003FEE498A8E74565B6B
:0804D7003FEE4579DF088CF5CA
:0804D8003FEE4164848BC596E0
:0804D9003FEE3D4A7F9F3520F4
:0804DA003FEE392BD0E4C8AC61
:0804DB003FEE350878FF2569AA
:0804DC003FEE30E07891A889A1
:0804DD003FEE2CB3D040672470
:0804DE003FEE288280B02E1FC2
:0804DF003FEE244C8A868216D0
:0804E0003FEE2011EE699F3D83
:0804E1003FEE1BD2AD00794B88
:0804E2003FEE178EC6F2BB5F6E
:0804E3003FEE13463CE8C7E5BB
:0804E4003FEE0EF90F8BB87D0D
:0804E5003FEE0AA73F855DE12F
:0804E6003FEE0650CD803FC837
:0804E7003FEE01F5BA279CD29B
:0804E8003FEDFD9606276A684E
:0804E9003FEDF931B22C54A3E0
:0804EA003FEDF4C8BEE3BE3291
:0804EB003FEDF05B2CFBC03F6C
:0804EC003FEDEBE8FD232A546B
:0804ED003FEDE7723009824087
:0804EE003FEDE2F6C65F03FCDE
:0804EF003FEDDE76C0D4A191BF
:0804F0003FEDD9F2201C02F9D6
:0804F1003FEDD568E4E7860841
:0804F2003FEDD0DB0FEA3E4FA5
:0804F3003FEDCC48A1D7F50054
:0804F4003FEDC7B19B6528D064
:0804F5003FEDC315FD470DE0CA
:0804F6003FEDBE75C8338D9F78
:0804F7003FEDB9D0FCE146AB7A
:0804F8003FEDB5279C078CB80D
:0804F9003FEDB079A65E6876C4
:0804FA003FEDABC71C9E976E9D
:0804FB003FEDA70FFF818BEB21
:0804FC003FEDA2544FC16CD981
:0804FD003FED9D940E1915B0AE
:0804FE003FED98CF3B44164F7F
:0804FF003FED9405D7FEB2DFCA
:080500003FED8F37E505E3C173
:080501003FED8A6563175561A7
:080502003FED858E52F16825E2
:080503003FED80B2B553304B0F
:080504003FED7BD28AFC75CBB0
:080505003FED76EDD4ADB43AF0
:080506003FED720493281AAFC7
:080507003FED6D16C72D8B9F1F
:080508003FED682471809CC7DF
:080509003FED632D92E497071A
:08050A003FED5E322C1D764826
:08050B003FED59323DEFE95DBF
:08050C003FED542DC92151E41B
:08050D003FED4F24CE77C42717
:08050E003FED4A174EBA06FD4D
:08050F003FED45054AAF93B230
:080510003FED3FEEC32095DE34
:080511003FED3AD3B8D5EB4CE5
:080512003FED35B42C9923DA0A
:080513003FED30901F34815BC5
:080514003FED2B679172F776B1
:080515003FED263A84202B88FB
:080516003FED2108F808748391
:080517003FED1BD2EDF8DAD133
:080518003FED169866BF183094
:080519003FED11596329979B86
:08051A003FED0C15E407751C10
:08051B003FED06CDEA287DBC8E
:08051C003FED0181765D2F59CE
:08051D003FECFC308976B88543
:08051E003FECF6DB2446F86D0A
:08051F003FECF18147A07EB51D
:080520003FECEC22F4568B5273
:080521003FECE6C02B3D0E7615
:080522003FECE158ED28A85F51
:080523003FECDBED3AEEA946C6
:080524003FECD67D156511388E
:080525003FECD1087D628FEC70
:080526003FECCB8F73BE84B2E1
:080527003FECC611F950FE483B
:080528003FECC0900EF2BAB8DE
:080529003FECBB09B57D273B47
:08052A003FECB57EEDCA60183C
:08052B003FECAFEFB8B5307AE8
:08052C003FECAA5C1719125AFA
:08052D003FECA4C409D22E52D8
:08052E003FEC9F2791BD5B86A5
:08052F003FEC9986AFB81F7A7A
:080530003FEC93E164A0ADF083
:080531003FEC8E37B155E8CA1A
:080532003FEC888996B75FE9F0
:080533003FEC82D715A550FF33
:080534003FEC7D202F00A77AA7
:080535003FEC7764E3AAFC5ED1
:080536003FEC71A53486961913
:080537003FEC6BE12276686ED7
:080538003FEC6618AE5E1444AE
:080539003FEC604BD921E79271
:08053A003FEC5A7AA3A6DD3163
:08053B003FEC54A50ED29CB563
:08053C003FEC4ECB1B8B7A5AF9
:08053D003FEC48ECCAB876D38C
:08053E003FEC430A1D413F267A
:08053F003FEC3D23140E2C904B
:080540003FEC3737B0084460BE
:080541003FEC3147F21937C805
:080542003FEC2B53DB2B63CCD3
:080543003FEC255B6C29D10996
:080544003FEC1F5EA60033A28C
:080545003FEC195D899AEB15EA
:080546003FEC135817E7021007
:080547003FEC0D4E51D22E597C
:080548003FEC0740384AD0A146
:080549003FEC012DCC3FF45FF3
:08054A003FEBFB170EA14FAFC0
:08054B003FEBF4FC005F4330BC
:08054C003FEBEEDCA26AD9D0FE
:08054D003FEBE8B8F5B5C8BDAD
:08054E003FEBE290FB326F2944
:08054F003FEBDC64B3D3D637A7
:080550003FEBD634208DB0CE44
:080551003FEBCFFF42545B6D4C
:080552003FEBC9C61A1CDC12C4
:080553003FEBC388A8DCE20FB6
:080554003FEBBD46EF8AC5DB59
:080555003FEBB700EF1D88FC2D
:080556003FEBB0B6A88CD5D72D
:080557003FEBAA681CD0FF8AEB
:080558003FEBA4154CE301CABE
:080559003FEB9DBE39BC80B6EA
:08055A003FEB9762E457C8BAB9
:08055B003FEB91034DAFCE62AE
:08055C003FEB8A9F76C02E2FB1
:08055D003FEB843760852C7C24
:08055E003FEB7DCB0BFBB55018
:08055F003FEB775A7A215C336F
:080560003FEB70E5ABF45C0E0B
:080561003FEB6A6CA2739705E1
:080562003FEB63EF5E9E96463D
:080563003FEB5D6DE17589EDD0
:080564003FEB56E82BF948D0EB
:080565003FEB505E3F2B506795
:080566003FEB49D01C0DC498C5
:080567003FEB433DC3A36F907D
:080568003FEB3CA736EFC1A3F5
:080569003FEB360C76F6D11EC3
:08056A003FEB2F6D84BD5A1C0C
:08056B003FEB28CA6148BE679E
:08056C003FEB22230D9F05491E
:08056D003FEB1B778AC6DB613E
:08056E003FEB14C7D9C79286C8
:08056F003FEB0E13FBA9218FE5
:080570003FEB075BF174243638
:080571003FEB009FBC31DAF002
:080572003FEAF9DF5CEC2AB658
:080573003FEAF31AD4AD9CEC41
:080574003FEAEC5224815F31E3
:080575003FEAE5854D734333B5
:080576003FEADEB4508FBE8C99
:080577003FEAD7DF2EE3EA960C
:080578003FEAD105E97D843C56
:080579003FEACA28816AEBDCAD
:08057A003FEAC346F7BB25115F
:08057B003FEABC614D7DD69200
:08057C003FEAB57783C34A078B
:08057D003FEAAE899B9C6BD79D
:08057E003FEAA797961ACB0A89
:08057F003FEAA0A17450991796
:080580003FEA99A73750A9B624
:080581003FEA92A8E02E72C4CB
:080582003FEA8BA66FFE0C0C92
:080583003FEA849FE7D42F1C1E
:080584003FEA7D9548C63726C9
:080585003FEA768693EA20C5E7
:080586003FEA6F73CA5689E1D8
:080587003FEA685CED22B17E41
:080588003FEA6141FD66778B3B
:080589003FEA5A22FC3A5CC271
:08058A003FEA52FFEAB7827854
:08058B003FEA4BD8C9F7AA6949
:08058C003FEA44AD9B15369DCA
:08058D003FEA3D7E5F2B29329D
:08058E003FEA364B1755242DFE
:08058F003FEA2F13C4AF695CC1
:080590003FEA27D86856DA198A
:080591003FEA20990368F72EF0
:080592003FEA19559703E09FB1
:080593003FEA120E2446557EDA
:080594003FEA0AC2AC4FB3C6F6
:080595003FEA0373303FF82830
:080596003FE9FC1FB137BDDE97
:080597003FE9F4C830583E862C
:080598003FE9ED6CAEC351F028
:080599003FE9E60D2D9B6DEB1F
:08059A003FE9DEA9AE03A62B28
:08059B003FE9D742311FAC0219
:08059C003FE9CFD6B813CE4EA3
:08059D003FE9C8674404F93985
:08059E003FE9C0F3D618B611C5
:08059F003FE9B97C6F752B1ECA
:0805A0003FE9B20111411B7596
:0805A1003FE9AA81BCA3E6BFFB
:0805A2003FE9A2FE72C5891DAC
:0805A3003FE99B7734CE9AF189
:0805A4003FE993EC03E850AAC3
:0805A5003FE98C5CE13C7AA601
:0805A6003FE984C9CDF584F2A0
:0805A7003FE97D32CB3E772DC8
:0805A8003FE97597DA42F451B6
:0805A9003FE96DF8FC2F3A7FD9
:0805AA003FE96656323022E001
:0805AB003FE95EAF7D73216C96
:0805AC003FE95704DF2644B8C3
:0805AD003FE94F56587835D2A2
:0805AE003FE947A3EA98381267
:0805AF003FE93FED96B628DAA2
:0805B0003FE938335E027F824F
:0805B1003FE9307541AE4D0D2C
:0805B2003FE928B342EB3C12C3
:0805B3003FE920ED62EB9083AB
:0805B4003FE91923A2E22773BD
:0805B5003FE91156040276FC37
:0805B6003FE9098487808E02F1
:0805B7003FE901AF2E9113FF93
:0805B8003FE8F9D5FA6948E4B7
:0805B9003FE8F1F8EC3F04DF1C
:0805BA003FE8EA180548B822E9
:0805BB003FE8E23346BD6ACCC3
:0805BC003FE8DA4AB1D4BC9C0F
:0805BD003FE8D25E47C6E4DA14
:0805BE003FE8CA6E09CCB21837
:0805BF003FE8C279F91F8A032D
:0805C0003FE8BA8216F969391F
:0805C1003FE8B2866494E318E0
:0805C2003FE8AA86E32D218227
:0805C3003FE8A28393FDE4BCB4
:0805C4003FE89A7C784383357F
:0805C5003FE89271913AE953FD
:0805C6003FE88A62E021994C34
:0805C7003FE882506635AAE509
:0805C8003FE87A3A24B5CB5458
:0805C9003FE872201CE13D0433
:0805CA003FE86A024FF7D75D1C
:0805CB003FE861E0BF3A06A51C
:0805CC003FE859BB6BE8CBC20C
:0805CD003FE851925745BC04C0
:0805CE003FE849658293010238
:0805CF003FE84134EF135862CC
:0805D0003FE839009E0A139C6C
:0805D1003FE830C890BB17DEC3
:0805D2003FE8288CC86ADDC374
:0805D3003FE8204D465E713542
:0805D4003FE8180A0BDB71304F
:0805D5003FE80FC31A280F8C48
:0805D6003FE80778728B10D595
:0805D7003FE7FF2A164BCC1987
:0805D8003FE7F6D806B22AA4A1
:0805D9003FE7EE824506A7E5AD
:0805DA003FE7E628D292512F01
:0805DB003FE7DDCBB09EC57FB8
:0805DC003FE7D56AE076355FC8
:0805DD003FE7CD06636362975E
:0805DE003FE7C49E3AB1A015ED
:0805DF003FE7BC3267ACD1AB71
:0805E0003FE7B3C2EBA16BD8A9
:0805E1003FE7AB4FC7DC73A23A
:0805E2003FE7A2D8FDAB7E5EED
:0805E3003FE79A5E8E5CB171E6
:0805E4003FE791E07B3EC22DD0
:0805E5003FE7895EC5A0F5990E
:0805E6003FE780D96ED32030FD
:0805E7003FE778507825A5C418
:0805E8003FE76FC3E2E979333C
:0805E9003FE76733B0701C46C8
:0805EA003FE75E9FE20B9F75E5
:0805EB003FE75608790EA1ABB1
:0805EC003FE74D6D76CC502174
:0805ED003FE744CEDC986623D1
:0805EE003FE73C2CABC72CD306
:0805EF003FE73386E5AD7B0315
:0805F0003FE72ADD8BA0B4FBFC
:0805F1003FE722309EF6CC3DED
:0805F2003FE7198021063F5D7F
:0805F3003FE710CC132619BEEE
:0805F4003FE7081476ADF36E39
:0805F5003FE6FF594CF5F0E36D
:0805F6003FE6F69A9756C2C8D1
:0805F7003FE6EDD85729A5CE1F
:0805F8003FE6E5128DC86278B0
:0805F9003FE6DC493C8D4CD5C6
:0805FA003FE6D37C64D34460AA
:0805FB003FE6CAAC07F5B3C2EC
:0805FC003FE6C1D8275090939F
:0805FD003FE6B900C4405B3683
:0805FE003FE6B025E0221E9249
:0805FF003FE6A7477C536FEBB8
:080600003FE69E659A326EA4EC
:080601003FE695803B1DC40695
:080602003FE68C976074A3121F
:080603003FE683AB0B96C84BE8
:080604003FE67ABB3DE4797288
:080605003FE671C7F8BE8560F5
:080606003FE668D13D8643CEBA
:080607003FE65FD70D9D950C45
:080608003FE656D96A66E1E401
:080609003FE64DD855451B5694
:08060A003FE644D3CF9BBA5C2C
:08060B003FE63BCBDACEBFC293
:08060C003FE632C07842B3DF83
:08060D003FE629B1A95CA66DCE
:08060E003FE6209F6F822E4A97
:08060F003FE61789CC19693C94
:080610003FE60E70C088FBC537
:080611003FE605544E3810E9E4
:080612003FE5FC34768E59EA45
:080613003FE5F3113AF40E2259
:080614003FE5E9EA9CD1EAC7C9
:080615003FE5E0C09D9132A415
:080616003FE5D7933E9BADFCCC
:080617003FE5CE62815BAA36CB
:080618003FE5C52E673BF9BD6B
:080619003FE5BBF6F1A7F3BDBC
:08061A003FE5B2BC220B73E4C2
:08061B003FE5A97DF9D2DA3BAD
:08061C003FE5A03C7A6B0AE205
:08061D003FE596F7A5416DD4FD
:08061E003FE58DAF7BC3EEBD8B
:08061F003FE58463FF60FCBAB3
:080620003FE57B1531878A16C6
:080621003FE571C313A70C298A
:080622003FE5686DA72F7B0482
:080623003FE55F14ED91515019
:080624003FE555B8E83D8C0CE0
:080625003FE54C5998A5AA49D4
:080626003FE542F7003BAD0483
:080627003FE53991207216E74E
:080628003FE53027FABBEC00AE
:080629003FE526BB908CB1A057
:08062A003FE51D4BE3586E197A
:08062B003FE513D8F493A87514
:08062C003FE50A62C5B36858FE
:08062D003FE500E9582D35AD51
:08062E003FE4F76CAD77187E84
:08062F003FE4EDECC70798B7AA
:080630003FE4E469A655BDDFBB
:080631003FE4DAE34CD90EF1BD
:080632003FE4D159BC09921903
:080633003FE4C7CCF55FCC7376
:080634003FE4BE3CFA54C1E1B1
:080635003FE4B4A9CC61F4C854
:080636003FE4AB136D0165CC3C
:080637003FE4A179DDAD93AFB2
:080638003FE497DD1FE17AF7B2
:080639003FE48E3D351895D118
:08063A003FE4849A1ECEDBC6EA
:08063B003FE47AF3DE80C17F89
:08063C003FE4714A75AB3894EC
:08063D003FE4679DE5CBAF4EE1
:08063E003FE45DEE3060106343
:08063F003FE4543B56E6C2CB38
:080640003FE44A855ADEA97A65
:080641003FE440CC3DC7232338
:080642003FE4371001200A0C0F
:080643003FE42D50A669B3BA93
:080644003FE4238E2F24F0D0C7
:080645003FE419C89CD30CC866
:080646003FE40FFFF0F5CDAC1D
:080647003FE406342D0F73F0AF
:080648003FE3FC6552A2BA2E4B
:080649003FE3F2936332D4DCBD
:08064A003FE3E8BE6043722AA1
:08064B003FE3DEE64B58B9B6AF
:08064C003FE3D50B25F74C4BF1
:08064D003FE3CB2CF1A443BCF8
:08064E003FE3C14BAFE5328927
:08064F003FE3B767624023C0DE
:080650003FE3AD800A3B9AB3C1
:080651003FE3A395A95E92B2FC
:080652003FE399A841307EE668
:080653003FE38FB7D3394A06DB
:080654003FE385C46101561467
:080655003FE37BCDEC117C3387
:080656003FE371D475F30C6061
:080657003FE367D8002FCD2F0F
:080658003FE35DD88C51FB9ECD
:080659003FE353D61BE44AC73E
:08065A003FE349D0B071E3B2A7
:08065B003FE33FC84B86651325
:08065C003FE335BCEEADE30302
:08065D003FE32BAE9B74E6D5D0
:08065E003FE3219D53686ECDBE
:08065F003FE317891815EDE0D7
:080660003FE30D71EB0B4B822F
:080661003FE30357CDD6E3642B
:080662003FE2F93AC207852BC3
:080663003FE2EF1AC92C744CB0
:080664003FE2E4F7E4D567AEC4
:080665003FE2DAD21692898B04
:080666003FE2D0A95FF4772305
:080667003FE2C67DC28C407623
:080668003FE2BC4F3FEB681CB0
:080669003FE2B21DD9A3E2F744
:08066A003FE2A7E9914817F5F2
:08066B003FE29DB2686ADFDB8B
:08066C003FE29378609F8506D0
:08066D003FE2893B7B79C31CCD
:08066E003FE27EFBBA8DC6E9F4
:08066F003FE274B91F702E0672
:080670003FE26A73ABB606AF6E
:080671003FE2602B60F4CF7F33
:080672003FE255E040C2772190
:080673003FE24B924CB55C2DF7
:080674003FE2414186644CDACB
:080675003FE236EDEF6686B6A8
:080676003FE22C978953B67F87
:080677003FE2223E55C3F7D516
:080678003FE217E2564FD4F2F5
:080679003FE20D838C904687DF
:08067A003FE20321FA1EB35D0B
:08067B003FE1F8BDA094F02F4F
:08067C003FE1EE56818D3F6065
:08067D003FE1E3EC9EA250B640
:08067E003FE1D97FF96F41272C
:08067F003FE1CF10938F9A9721
:080680003FE1C49E6E9F538A06
:080681003FE1BA298C3ACEFBDF
:080682003FE1AFB1EDFEDC0F1A
:080683003FE1A5379588B5D0D1
:080684003FE19ABA84760301FC
:080685003FE1903ABC64D5C6C8
:080686003FE185B83EF3AB78BB
:080687003FE17B330DC16C6102
:080688003FE170AB2A6D6B6AC3
:080689003FE16620969765F63B
:08068A003FE15B9353DF839411
:08068B003FE1510363E655B89D
:08068C003FE14670C84CD78B1A
:08068D003FE13BDB82B46DA3E9
:08068E003FE1314394BEE5B7E2
:08068F003FE126A9000E767977
:080690003FE11C0BC645BF3819
:080691003FE1116BE907C7B658
:080692003FE106C969F7FFE32F
:080693003FE0FC244ABA3F8954
:080694003FE0F17C8CF2C62A64
:080695003FE0E6D232463AAB29
:080696003FE0DC253C59AB11EB
:080697003FE0D175ACD28C519B
:080698003FE0C6C38556BA031A
:080699003FE0BC0EC78C76198E
:08069A003FE0B157751A68B882
:08069B003FE0A69D8FA79FD749
:08069C003FE09BE118DB8F1722
:08069D003FE09122125E0F798B
:08069E003FE086607DD75F128A
:08069F003FE07B9C5CF020DCD5
:0806A0003FE070D5B1515C6E22
:0806A1003FE0660C7CA47DAC77
:0806A2003FE05B40C093549D52
:0806A3003FE050727EC8151EF5
:0806A4003FE045A1B8ED5695B9
:0806A5003FE03ACE70AE13C92C
:0806A6003FE02FF8A7B5AA847C
:0806A7003FE025205FAFDB6995
:0806A8003FE01A459A48C9A77A
:0806A9003FE00F68592CFAAF85
:0806AA003FE004889E0956049C
:0806AB003FDFF34CD51649DCDA
:0806AC003FDFDD8380C02465FF
:0806AD003FDFC7B5426C53C0EA
:0806AE003FDFB1E21D77B20E3F
:0806AF003FDF9C0A153FDAD47D
:0806B0003FDF862D2D232AA94E
:0806B1003FDF704B6880BE784A
:0806B2003FDF5A64CAB8732F40
:0806B3003FDF4479572AE520DE
:0806B4003FDF2E8911396F6C44
:0806B5003FDF1893FC462BA166
:0806B6003FDF029A1BB3F1279C
:0806B7003FDEEC9B72E654A04B
:0806B8003FDED6980541A78D35
:0806B9003FDEC08FD62AF7B521
:0806BA003FDEAA82E9080E8769
:0806BB003FDE9471413F70C95C
:0806BC003FDE7E5AE2385DD7F3
:0806BD003FDE683FCF5ACF4C2D
:0806BE003FDE52200C0F786CA6
:0806BF003FDE3BFB9BBFC58041
:0806C0003FDE25D281D5DB8568
:0806C1003FDE0FA4C1BC9783CA
:0806C2003FDDF9725EDF8DFCE3
:0806C3003FDDE33B5CAB0A8A5A
:0806C4003FDDCCFFBE8C0F40AE
:0806C5003FDDB6BF87F05416BB
:0806C6003FDDA07ABC46468B23
:0806C7003FDD8A315EFD08E908
:0806C8003FDD73E3738471ED63
:0806C9003FDD5D90FD4D0C2D9D
:0806CA003FDD4739FFC8157838
:0806CB003FDD30DE7E677E7A20
:0806CC003FDD1A7E7C9DEA1D52
:0806CD003FDD0419FDDEACF075
:0806CE003FDCEDB1059DCCC439
:0806CF003FDCD74397500011F6
:0806D0003FDCC0D1B66AAD5950
:0806D1003FDCAA5B6663EACF7F
:0806D2003FDC93E0AAB27D9821
:0806D3003FDC7D6186CDD97387
:0806D4003FDC66DDFE2E20185C
:0806D5003FDC5056144C209F3D
:0806D6003FDC39C9CCA1571D1E
:0806D7003FDC23392AA7EC0ADD
:0806D8003FDC0CA431DAB39BF6
:0806D9003FDBF60AE5B52D6DCB
:0806DA003FDBDF6D49B383DF54
:0806DB003FDBC8CB61528B74B8
:0806DC003FDBB225300FC280A4
:0806DD003FDB9B7AB969505D17
:0806DE003FDB84CC00DE051CAB
:0806DF003FDB6E1909ED58E044
:0806E0003FDB5761D8176B3DA9
:0806E1003FDB40A66EDD02DFE5
:0806E2003FDB29E6D1BF8CE5E6
:0806E3003FDB132304411C441A
:0806E4003FDAFC5B09E46964E4
:0806E5003FDAE58EE62CD18519
:0806E6003FDACEBE9C9E561ABD
:0806E7003FDAB7EA30BD9C7355
:0806E8003FDAA111A60FECF9A5
:0806E9003FDA8A35001B32D311
:0806EA003FDA73544265FB473F
:0806EB003FDA5C6F7077751BAC
:0806EC003FDA45868DD770301E
:0806ED003FDA2E999E0E5CE637
:0806EE003FDA17A8A4A54B7721
:0806EF003FDA00B3A525EB9BE7
:0806F0003FD9E9BAA31A8BE11E
:0806F1003FD9D2BDA20E19147D
:0806F2003FD9BBBCA58C1DDD46
:0806F3003FD9A4B7B120C1FEFC
:0806F4003FD98DAEC858C9FAC8
:0806F5003FD976A1EEC1967316
:0806F6003FD95F9127E923863B
:0806F7003FD9487C775E086DD5
:0806F8003FD93163E0AF76DC6D
:0806F9003FD91A47676D3A5C16
:0806FA003FD903270F27B7ECDD
:0806FB003FD8EC02DB6FED6358
:0806FC003FD8D4DACFD770C358
:0806FD003FD8BDAEEFF06FE83D
:0806FE003FD8A67F3F4DAFC0BD
:0806FF003FD88F4BC1828BEA4A
:080700003FD878147A22F61BA1
:080701003FD860D96CC3757686
:080702003FD8499A9CF9262E0C
:080703003FD832580E59B8DF4F
:080704003FD81B11C47B71EC0E
:080705003FD803C7C2F5291F0C
:080706003FD7EC7A0D5E4903B8
:080707003FD7D528A74ECE41D3
:080708003FD7BDD3945F473ECB
:080709003FD7A67AD828D37867
:08070A003FD78F1E764522E265
:08070B003FD777BE724E7585E1
:08070C003FD7605ACFDF9ABF0E
:08070D003FD748F39293F0DF9F
:08070E003FD73188BE07648A61
:08070F003FD71A1A55D6700EEF
:080710003FD702A85D9E1B0308
:080711003FD6EB32D8FBF9AA38
:080712003FD6D3B9CB8E2C4178
:080713003FD6BC3D38F35EA6A1
:080714003FD6A4BD24CAC7AE04
:080715003FD68D3992B428850E
:080716003FD675B2864FCC4CB2
:080717003FD65E28033E875522
:080718003FD6469A0D21B6C33D
:080719003FD62F08A79B3FE724
:08071A003FD61773D64D8F99ED
:08071B003FD5FFDB9CDB99D701
:08071C003FD5E83FFEE8D91CBF
:08071D003FD5D0A100194DBC2D
:08071E003FD5B8FEA4117D8255
:08071F003FD5A158EE767308E6
:080720003FD589AFE2EDBD11E8
:080721003FD57203851D6E2E09
:080722003FD55A53D8AC1BF17E
:080723003FD542A0E140DE9346
:080724003FD52AEAA283504CE4
:080725003FD51331201B8CAC01
:080726003FD4FB745DB2303AD0
:080727003FD4E3B45EF057C9B2
:080728003FD4CBF1277F9FD4E1
:080729003FD4B42ABB0A241BD3
:08072A003FD49C611D3A7EF9E9
:08072B003FD4849451BBC8BF08
:08072C003FD46CC45C39975600
:08072D003FD454F1405FFD755B
:08072E003FD43D1B01DB8A40B2
:08072F003FD42541A45948A65E
:080730003FD40D652B86BEB31A
:080731003FD3F5859B11ED3269
:080732003FD3DDA2F6A94F013F
:080733003FD3C5BD41FBD86CAA
:080734003FD3ADD480B8F6C537
:080735003FD395E8B6908FC197
:080736003FD37DF9E73300CA4F
:080737003FD3660816511EA70E
:080738003FD34E13479C34AC83
:080739003FD3361B7EC6045DB0
:08073A003FD31E20BF80C4C69E
:08073B003FD306230D7F21D2FC
:08073C003FD2EE226C743BE594
:08073D003FD2D61EE013A737DE
:08073E003FD2BE186C116B27BD
:08073F003FD2A60F142201D9DC
:080740003FD28E02DBFA578D57
:080741003FD275F3C74FC9F365
:080742003FD25DE1D9D827D2B6
:080743003FD245CD1749B03348
:080744003FD22DB5835B120CBE
:080745003FD2159B21C36B8E0E
:080746003FD1FD7DF63A498127
:080747003FD1E55E0477A6DC5A
:080748003FD1CD3B5033EC1E04
:080749003FD1B515DD27EEA23A
:08074A003FD19CEDAF0CF03A29
:08074B003FD184C2C99C9E87C6
:08074C003FD16C953091124D74
:08074D003FD15464E7A4CF166C
:08074E003FD13C31F292C2627E
:08074F003FD123FC551643497C
:080750003FD10BC412EB11D1E3
:080751003FD0F3892FCD564281
:080752003FD0DB4BAF79A0C4DE
:080753003FD0C30B95ACE8B1E7
:080754003FD0AAC8E6248BEC9B
:080755003FD09283A49E4E7B6D
:080756003FD07A3BD4D859DDF5
:080757003FD061F17A913C5F93
:080758003FD049A49987E8BCD9
:080759003FD03155357BB54F4F
:08075A003FD01903522C5BB3E0
:08075B003FD000AEF359F8167F
:08075C003FCFD0B0398A11250E
:08075D003FCF9FFDA45CD98B86
:08075E003FCF6F462EAECA4AE0
:08075F003FCF3E89E00324A90D
:080760003FCF0DC8BFDDE97DAC
:080761003FCEDD02D5C3D7D560
:080762003FCEAC38293A6B9C34
:080763003FCE7B68C1C7DCE456
:080764003FCE4A94A6F31E3EAD
:080765003FCE19BBE043DBFCB1
:080766003FCDE8DE75427ADAAE
:080767003FCDB7FC6D7816A828
:080768003FCD8715D06E817BA7
:080769003FCD562AA5B042560F
:08076A003FCD253AF4C893D2FB
:08076B003FCCF446C543635086
:08076C003FCCC34E1EAD4FA4AB
:08076D003FCC92510893A7B79D
:08076E003FCC614F8A8469CD84
:08076F003FCC3049AC0E41DF24
:080770003FCBFF3F74C088DCA1
:080771003FCBCE30EC2B4350CE
:080772003FCB9D1E19DF200A98
:080773003FCB6C07056D7751C7
:080774003FCB3AEBB668498A5D
:080775003FCB09CC34623DDBEF
:080776003FCAD8A886EEA1637A
:080777003FCAA780B5A165DBB4
:080778003FCA7654C80F20406F
:080779003FCA4524C5CD081458
:08077A003FCA13F0B670F5B29E
:08077B003FC9E2B8A1916196AB
:08077C003FC9B17C8EC562FF8C
:08077D003FC9803C85A4AE9445
:08077E003FC94EF88DC79597A5
:08077F003FC91DB0AEC7048C98
:080780003FC8EC64F03C81DA93
:080781003FC8BB1559C22D034E
:080782003FC889C1F2F2BD413C
:080783003FC8586AC3698032C7
:080784003FC8270FD2C259162D
:080785003FC7F5B12899BF241C
:080786003FC7C44ECC8CBCCE71
:080787003FC792E8C638EE6698
:080788003FC7617F1D3C80BEEC
:080789003FC73011D936305C86
:08078A003FC6FEA101C5482293
:08078B003FC6CD2C9E899FE8BA
:08078C003FC69BB4B7239BB8E4
:08078D003FC66A3953342A6C9F
:08078E003FC638BA7A5CC45280
:08078F003FC60738343F6A6ED3
:080790003FC5D5B2887EA4CD5F
:080791003FC5A4297EBD81CB08
:080792003FC5729D1E9F94AF4C
:080793003FC5410D6FC8F4528F
:080794003FC50F7A79DE3A50EF
:080795003FC4DDE4448481ACA3
:080796003FC4AC4AD761656E57
:080797003FC47AAE3A1AFFDB01
:080798003FC4490E7457E9113A
:080799003FC4176B8DBF35ADA5
:08079A003FC3E5C58DF8760CA4
:08079B003FC3B41C7CABB49C0D
:08079C003FC382706181751DED
:08079D003FC350C14422B347E1
:08079E003FC31F0F2C38E16678
:08079F003FC2ED5A216DE78E07
:0807A0003FC2BBA22B6C223DFD
:0807A1003FC289E751DE60FD53
:0807A2003FC258299C6FE5924B
:0807A3003FC2266912CC629FDF
:0807A4003FC1F4A5BC9FFA451A
:0807A5003FC1C2DFA1973D64D2
:0807A6003FC19116C95F29ED66
:0807A7003FC15F4B3BA52A2472
:0807A8003FC12D7D0017133D38
:0807A9003FC0FBAC1E632403FA
:0807AA003FC0C9D89E380402CB
:0807AB003FC098028744C22BF5
:0807AC003FC06629E138D37853
:0807AD003FC0344EB3C4121525
:0807AE003FC002710696BC0772
:0807AF003FBFA121C2C2E39289
:0807B0003FBF3D5C97AA6B1FDF
:0807B1003FBED9929B46D329FB
:0807B2003FBE75C3DCFB9EB8DD
:0807B3003FBE11F06C2D0CA4F7
:0807B4003FBDAE18584014D5FA
:0807B5003FBD4A3BB09A66A665
:0807B6003FBCE65A84A2662351
:0807B7003FBC8274E3BF294B33
:0807B8003FBC1E8ADD58766D7E
:0807B9003FBBBA9C80D6C16B66
:0807BA003FBB56A9DDA328F6A0
:0807BB003FBAF2B303277511E8
:0807BC003FBA8EB800CE13B263
:0807BD003FBA2AB8E602173921
:0807BE003FB9C6B5C22F33BBE1
:0807BF003FB962AEA4C1BC37D2
:0807C0003FB8FEA39D26A0FC3A
:0807C1003FB89A94BACB6CE436
:0807C2003FB836820D1E42947F
:0807C3003FB7D26BA38DDADC15
:0807C4003FB76E518D8981F5EC
:0807C5003FB70A33DA8114C0CA
:0807C6003FB6A61299E4FF43BF
:0807C7003FB641EDDB26394984
:0807C8003FB5DDC5ADB644E10B
:0807C9003FB5799A21072B9935
:0807CA003FB5156B448B7BC2A7
:0807CB003FB4B13927B646C85E
:0807CC003FB44D03D9FB1E747C
:0807CD003FB3E8CB6ACE12280D
:0807CE003FB3848FE9A3AD40A5
:0807CF003FB3205165F0F44A2C
:0807D0003FB2BC0FEF2B624B9E
:0807D1003FB257CB94C8E73793
:0807D2003FB1F384663FE4919E
:0807D3003FB18F3A73072BE9D7
:0807D4003FB12AEDCA95FC18A3
:0807D5003FB0C69E7C63FE806C
:0807D6003FB0624C97E9456455
:0807D7003FAFFBF0593C925AC0
:0807D8003FAF334293F7CB4120
:0807D9003FAE6A8FFEF6B0840A
:0807DA003FADA1D8B92C7B1939
:0807DB003FACD91CE18D1C6745
:0807DC003FAC105C970D3B3BA4
:0807DD003FAB4797F8A22D0184
:0807DE003FAA7ECF2541F2C4C1
:0807DF003FA9B6023BE3339F82
:0807E0003FA8ED315B7D373EBF
:0807E1003FA8245CA307E29489
:0807E2003FA75B84317BB25696
:0807E3003FA692A825D1B571D3
:0807E4003FA5C9C89F0389C8A5
:0807E5003FA500E5BC0B56AB7B
:0807E6003FA437FF9BE3C74E5F
:0807E7003FA36F165D8807C5F2
:0807E8003FA2A62A1FF3BE3C4C
:0807E9003FA1DD3B022307EFF5
:0807EA003FA11449231273A57D
:0807EB003FA04B54A1BEFC2508
:0807EC003F9F04BB3A4C09E3F6
:0807ED003F9D72C8688AA982D1
:0807EE003F9BE0D10C361FEB2C
:0807EF003F9A4ED5634B6AAA44
:0807F0003F98BCD5ABC83106EF
:0807F1003F972AD223AAB8EDBC
:0807F2003F9598CB08F1E0EC03
:0807F3003F9406C0999D129786
:0807F4003F9274B313AC3C808A
:0807F5003F90E2A2B51FC725E9
:0807F6003F8EA11F77F113BF34
:0807F7003F8B7CF4CC6F88AC51
:0807F8003F8858C5E3BE26D777
:0807F9003F85349339E0CC5F29
:0807FA003F82105D4ADBEE9D19
:0807FB003F7DD849256908097A
:0807FC003F778FD31ADFDC0008
:0807FD003F7147596E27D9AB8B
:0807FE003F65FDBA2E9A120BB3
:0807FF003F52D97C396F84F9E7
:00000001ff
