:020000040000FA
:0400000000000001FB
:0400010015D6050A01
:040002001F1EE928AC
:040003001BF028FFC7
:040004003580637B65
:040005003841B7AD1A
:04000600091B646707
:04000700337976D6FD
:040008000C1B337C1E
:040009000EE6B4CC7F
:04000A001E30334F22
:04000B0038D498EA63
:04000C001F81729A44
:04000D00382295E31D
:04000E000399EC3D29
:04000F003746B82593
:04001000060ECB54B9
:04001100169ACE4A23
:040012003DB0C81124
:040013002DA1994A38
:04001400209F8ABBE4
:040015000A02F64C99
:040016002D84554799
:04001700374EF9A9BE
:04001800194E1192DA
:0400190036621A5DD4
:04001A0030BB00D225
:04001B0017F01BF5CA
:04001C000C5DCCB4F7
:04001D000D37B0BC2F
:04001E003AB331E8D8
:04001F0004066B4127
:040020000AC1229B54
:040021000AC7A8D78B
:04002200195DCFFD98
:040023000E5C2BE460
:040024003B7A5C9B2C
:040025000678845085
:040026003D9C4AAA09
:040027002D7ECB3E21
:040028001FF9540C5C
:040029000F230BFE98
:04002A00269EA88ED8
:04002B002B84E855E5
:04002C00213157C265
:04002D0001958C2B82
:04002E000839AE6679
:04002F003C8A9B2D3F
:0400300009E967A7CC
:040031002B3666A95B
:0400320027E3246B31
:040033000E128A120D
:040034001CC6790E5F
:0400350022BF7D8FDA
:040036002893F5D145
:040037002680652199
:040038003201A3B13D
:0400390016998EB3D3
:04003A002294C7FE47
:04003B002B45D8A5D4
:04003C002882291ECF
:04003D0037FB134A30
:04003E0028B188C29B
:04003F000C4A9620B1
:04004000368D54990C
:0400410010A775AAE5
:040042002D54741FA6
:0400430037D300941B
:0400440028ED251E60
:0400450003D7D1CD3F
:04004600364808EB45
:040047003C9C228E2D
:0400480000358254A9
:0400490013B82D0AB1
:04004A000D305F1105
:04004B003DF233F857
:04004C001E66A38DFC
:04004D0039DF5097B0
:04004E003E7482A6D4
:04004F00320DEC6121
:040050001B9B931350
:0400510027BA414F3A
:040052002FC84CB7B0
:04005300199AB5CA77
:0400540005CB08BD13
:040055001A0DC0C3FD
:0400560028766E9802
:0400570016493D41C8
:04005800190A39BE8A
:040059001F840ED121
:04005A00150ADB5058
:04005B002C9919962D
:04005C0020A7C274A3
:04005D000636E7017B
:04005E000CE65B78D9
:04005F0016B7BD8D86
:040060003DB667073B
:04006100308EA9E74D
:040062000F5F7FFFAE
:040063000D983EE5D1
:04006400189C10DBF9
:040065002CCE3A5310
:0400660015824E6F42
:0400670004FBC7B51A
:040068002A47ED53E3
:040069003E5A6B7818
:04006A0039C22AC2AB
:04006B0021EFFAE89F
:04006C001A918DEC6C
:04006D001D8E8A97C3
:04006E003B0078EEED
:04006F000C7783394E
:04007000082E804690
:040071000E600E709F
:04007200162C99307F
:0400730033E36AA960
:04007400123F1ADA43
:040075001F1D7B7D53
:040076001C5C081FE7
:040077003AA5527CD8
:04007800157B6495FB
:0400790017FBC8EFBA
:04007A00073363F7EE
:04007B001E907C92C5
:04007C003AF660C62A
:04007D00003549C839
:04007E0018B34F2E36
:04007F0032B039243E
:040080000EF4199AC7
:040081003A0D84555B
:040082003C993880ED
:04008300171B1A7FAE
:040084000EDA4D92B1
:04008500138056226C
:040086003CF2CF2158
:040087002D53109F46
:04008800229C18DBC3
:040089000C96C8D039
:04008A001A125308EB
:04008B002EBBE87828
:04008C003234A2A9BF
:04008D002FF0AD3F64
:04008E00365322A61D
:04008F000B69F16A9E
:040090001CE13E1819
:040091002CAF197CFB
:0400920020C79E6F76
:040093000EE059849E
:0400940018926ECC84
:040095002464F1E806
:04009600207417E1DA
:040097001FD548EA3F
:040098000533726852
:040099001CB0C98648
:04009A0006C07F61BC
:04009B002BE0784698
:04009C002F12EBC76D
:04009D0013D722371C
:04009E0030CB1792BA
:04009F0017BD2B2D31
:0400A00011C6271D41
:0400A1003A15369244
:0400A2003834B4A793
:0400A3000B9AAB49C0
:0400A4000CD2F62C58
:0400A50024BA066D06
:0400A60017D5FD204D
:0400A7003E117E3751
:0400A80007C1EB4160
:0400A9002298CA913E
:0400AA00134B6D6522
:0400AB0020925FBA86
:0400AC003BF6D43E0D
:0400AD002CF23628D3
:0400AE000B56D351C9
:0400AF001674354549
:0400B0001621175DA1
:0400B1002E3936F5B9
:0400B2002D5D76C981
:0400B300357B4D53F9
:0400B40026C1D5ABE1
:0400B5000B0009B67D
:0400B600198466BC87
:0400B700021468A522
:0400B80012A4AF1FC0
:0400B9002AA5658B84
:0400BA0031C9CBF08D
:0400BB003699B99425
:0400BC00026A0228AA
:0400BD001DE88E2C80
:0400BE00229D4ECD64
:0400BF001BD432C953
:0400C0000D2F69A9EE
:0400C1000A65EB01E0
:0400C200116D1C960A
:0400C300010B0AE043
:0400C4001D083230B1
:0400C500199B985893
:0400C600177459B999
:0400C7001EC7F4FB61
:0400C8001505E585B0
:0400C9001D4240FD97
:0400CA000CE40B4CEB
:0400CB0025788D2FD8
:0400CC0019EAF8D164
:0400CD00129AF4CFC0
:0400CE001A23EDFF05
:0400CF001426AE360F
:0400D0001D90F4CCBF
:0400D1003C80D19FFF
:0400D20030F726F9E4
:0400D3002F2580C88D
:0400D4003E2987A595
:0400D50032A519B285
:0400D6002B378093B1
:0400D7001A2357CCC5
:0400D8001CE0054ED5
:0400D90000F35C0FC5
:0400DA003A837F7670
:0400DB003329C316EC
:0400DC0016EF118189
:0400DD003A1842D9B2
:0400DE00279183D80B
:0400DF000AA1B3BF00
:0400E0000CE5EEB38A
:0400E1001925CA9380
:0400E2001188510030
:0400E3001B63B9EEF4
:0400E4002B436AC37D
:0400E50013214BF1A7
:0400E6000F546953F7
:0400E70020E3D88FAB
:0400E800398B74EDEF
:0400E9002D3CB07783
:0400EA00136351AD9E
:0400EB0016EE699014
:0400EC00007438ABB9
:0400ED00195F403027
:0400EE003AAD0D34E6
:0400EF00079B999939
:0400F0000A269BC081
:0400F10013EFB35303
:0400F200163DC9C12D
:0400F3003AC22F518D
:0400F40010102BA31A
:0400F5002A5BE37827
:0400F600226FD5D7C9
:0400F70037B46FFAB1
:0400F800202F167B24
:0400F9001E882ADB58
:0400FA0022D37F2866
:0400FB003B9B12C059
:0400FC0028C102D045
:0400FD00287E42BB5C
:0400FE0025DB7EA3DD
:0400FF0006655BB780
:040100002EDA5C7B1C
:0401010037D8AA50F1
:04010200067C7BBA42
:04010300362BA6AF42
:040104002576F7F66F
:040105003D1B941DED
:0401060035AD8B2D5B
:040107000880160254
:040108003DC8492085
:040109000823C84EB1
:04010A002FB8BE4B01
:04010B0036E46E94D4
:04010C001D642C142E
:04010D000DA4EA1D36
:04010E002196746062
:04010F000838B031CB
:040110003603FC4274
:040111001D15F002C6
:040112000A8958A757
:0401130034B359F1B7
:040114003E52C05E39
:04011500225CA27F47
:040116002A425F0F0B
:0401170003E5760482
:04011800201ACB0DD1
:0401190031271C3539
:04011A000A769FAE14
:04011B000393C14C3D
:04011C0008767944A4
:04011D0032EFC907ED
:04011E003B6B1CC853
:04011F00024430D294
:040120002980D01052
:04012100361404206C
:040122000F64058FD2
:04012300100FB51BE9
:040124000786C34245
:0401250030E3C32CD4
:0401260031815319B7
:040127002A6FEFD973
:040128003BC542D9B8
:040129003DD6BF956B
:04012A003A25ADF5D0
:04012B00304297BA0D
:04012C0039304A68B4
:04012D000B020B7E38
:04012E000528AE6191
:04012F001ED2B9F92A
:040130003C0AD16351
:040131002B92E41A0F
:0401320032512D1405
:0401330019AA46BD02
:040134003E600B5AC4
:04013500328BE045E4
:0401360038CEE09847
:040137000BD4A13014
:040138002941FAC798
:0401390026AD0C41A2
:04013A0010FC4EE87F
:04013B0010C1BA260F
:04013C001F687114B3
:04013D003305948B67
:04013E002B4715191D
:04013F00269C5BE9B6
:0401400004017D0336
:040141000F5E53E614
:040142000C4270FCFF
:0401430021D500447E
:04014400331FEA92E9
:04014500348D72671C
:04014600067327EC29
:040147002ABA96AB8F
:0401480024B3FDE3FC
:040149002B350D58ED
:04014A0015698A00A9
:04014B000DC4871444
:04014C001EDA7295B0
:04014D001DE0660A41
:04014E002531E796DA
:04014F0019FF037B16
:040150001D2DBE4360
:04015100227C6ADBC7
:040152003C2EF92A1C
:040153002F78CB3303
:0401540006F3A4BB4F
:040155002064F356D9
:04015600140A64C65D
:040157001B38B59309
:0401580010FC63052F
:04015900332D0D4FE6
:04015A0010A7F0AB4F
:04015B0014D61C8119
:04015C00224FE4F159
:04015D0030279C8A21
:04015E002F33E5C690
:04015F0015F171B372
:04016000084CF22A2B
:04016100012F669D67
:0401620014BFDCE00A
:0401630038CCFAC2D8
:040164001591214E82
:0401650037CB3B74E5
:0401660003D083A59A
:0401670029DABBE1F5
:040168002B71209542
:04016900272BA63E5C
:04016A003D225CCE08
:04016B0030C07CD94B
:04016C000D7B30597E
:04016D00042AD6E4A6
:04016E001A24E4C4A7
:04016F000A47D55511
:040170000A16569E77
:040171002C9CFA5D6B
:0401720034B314F599
:040173003AEF3A72B3
:040174002140A1374E
:040175000F1E66A64D
:040176000D2F178DA5
:040177003B90466310
:0401780029B4F4CBE7
:04017900332D056BB2
:04017A0031003080A0
:04017B003EB660C864
:04017C00134C6C555F
:04017D001D76ACB28D
:04017E0004469BBEDA
:04017F000CAD361B72
:04018000363F4806B8
:04018100296529B211
:040182001365450EAE
:040183001E38232ED1
:0401840010129205BE
:040185000CCEF83E66
:0401860011A1D7826A
:0401870008B6AB000B
:040188001D04238EA1
:04018900125F44308D
:04018A0033F69FBBEE
:04018B0030FDDE70F5
:04018C00189DAA29E7
:04018D0021902F6F1F
:04018E000FBD7655D6
:04018F000076F6CD33
:040190003874640952
:040191003B3A59811B
:04019200101B15F138
:040193002B84C7856D
:0401940026A40B038F
:0401950021932BE3A4
:040196000C808DC587
:0401970037C2831ECA
:040198002206A8682B
:04019900336FF7B811
:04019A003CBFF15E17
:04019B0010113BA163
:04019C00289A1B1270
:04019D001C53FD1AD8
:04019E001ED2954E8A
:04019F0030A8186C00
:0401A000192B9881FE
:0401A1003BF9FF0423
:0401A2002DAAA6BC20
:0401A3002496278DEA
:0401A4000BB958C576
:0401A500192E859FEB
:0401A6001D03D469F8
:0401A70011528F3032
:0401A80014A3BC10D0
:0401A90014B963B270
:0401AA00256497A190
:0401AB000DBA8723DF
:0401AC003C3435E5C5
:0401AD001BA50092FC
:0401AE0022EABE542F
:0401AF00124756BFDE
:0401B00031BE707874
:0401B100302ABF2110
:0401B20010C91C5AFA
:0401B30015E2BBA2F4
:0401B4001C229A7BF4
:0401B50002EEC03E58
:0401B600173C60E1B1
:0401B7001D1F6D6F2C
:0401B8000F2E15727F
:0401B9003390774ABE
:0401BA002CB3820CD4
:0401BB00063CFCB34F
:0401BC0034B1924187
:0401BD002313218364
:0401BE000D072035D4
:0401BF001CD9C0ED9A
:0401C000046AF7A135
:0401C1000F91A03AC0
:0401C20008A7464CF8
:0401C3001EB0071053
:0401C4003E774FA98A
:0401C50009D404DA7B
:0401C6003BE3F42EF5
:0401C7002F5BB12CCD
:0401C800269694F2F1
:0401C9002B74E53C72
:0401CA0009E9493FB7
:0401CB001855392466
:0401CC0024C9CB3245
:0401CD0025C40DF840
:0401CE003045BEEC0E
:0401CF001136B471C0
:0401D000367F1E5FF9
:0401D1001F63230C79
:0401D200102C37298D
:0401D30014203B05B4
:0401D400305CBC7A65
:0401D5001E74690625
:0401D60000CD9DC4F7
:0401D7002885B02D9A
:0401D8001D926BB752
:0401D90007738BC954
:0401DA000156E56580
:0401DB003B3F06851B
:0401DC002DC14D01E3
:0401DD0005F6248C73
:0401DE0036D2EEE740
:0401DF001D16DFC347
:0401E0000CB7280D23
:0401E100389D029BA8
:0401E20037A74F3DAF
:0401E30027AEAB8513
:0401E40012DF854958
:0401E50035A82DFF0D
:0401E6003186686690
:0401E7000081829879
:0401E8002B0F28BEF3
:0401E9000E58BDEA05
:0401EA00008F5F4CD7
:0401EB0003347D2B31
:0401EC000254342E57
:0401ED00108C301929
:0401EE0026735C7E9A
:0401EF002096A36350
:0401F00022384B481E
:0401F10017357E0937
:0401F200375EBC4F69
:0401F300146772F02B
:0401F40011A5D0463B
:0401F5000048D611D7
:0401F600151B6FABBB
:0401F70010E8EC4DD3
:0401F8001A3F920117
:0401F9001A598A8184
:0401FA002D76BDF8A9
:0401FB003D7D3C1DED
:0401FC001FBC3DCA1D
:0401FD0027821261E2
:0401FE0011A34D10EC
:0401FF00111487024E
:040200000DD8071FEF
:040201002838E6E5CE
:040202000246C79059
:0402030010F783A9C4
:040204000651384423
:040205001204B6C564
:04020600385F694CA8
:04020700130C238F22
:0402080021AA41C422
:040209003112CC29B9
:04020A00241A4E76EE
:04020B001F365D6BD2
:04020C003321E07C3E
:04020D000079F17D06
:04020E000676966D6D
:04020F001B023C1082
:04021000165CF8DDA3
:04021100210AC210EC
:040212001FA89A8FF8
:040213002DB25A6549
:040214002E70CD6E0D
:0402150038C46DBCC0
:0402160036A9782C61
:04021700007AF66211
:0402180037C6E5E719
:040219000EFCEBE705
:04021A001CDC2D3784
:04021B003A43CD6C29
:04021C000FACB33A36
:04021D000F0BA0CC57
:04021E0006F89D96AB
:04021F0027AB397F51
:04022000069824EA2E
:04022100314C9AFAC8
:040222000BF86BC2A8
:0402230013745520DB
:040224000DADE4B187
:040225002A42051153
:0402260003241B4D45
:040227002290B9D791
:040228000E35F0207F
:0402290037C6751B44
:04022A002F4CAF0D99
:04022B000D41191652
:04022C00099BC44323
:04022D002C1FFD0D78
:04022E000E21F7B6F0
:04022F0035AF9BD379
:04023000283B432CF8
:040231001CE4F3CA0C
:040232001BD3631B5C
:04023300227D2EE218
:040234000BBC80750A
:040235001CE36A69F3
:040236001AAFA8BB98
:0402370025813125C7
:0402380009862F5FA5
:0402390010A7340ACC
:04023A003839DAA1D4
:04023B0038D640036E
:04023C00317AE3DC54
:04023D00393FA1B0F4
:04023E00278A8A6C15
:04023F000E1744ABA7
:0402400029EF1C3A4C
:0402410017B5902835
:0402420024D7A31901
:04024300311B330E2A
:040244000AE3E28760
:040245000F36B72C8D
:040246000CC86C462E
:040247003DD6CD02D1
:0402480031C7508FDB
:040249001A5ADF1F3F
:04024A00352EAC069B
:04024B001AF99A758D
:04024C002D67A00C6E
:04024D00241DB2E3D7
:04024E00239B3D872A
:04024F001E6D1951B6
:04025000092A80C235
:040251000A4B1BF049
:040252003B98FCDEFB
:040253001D3B771FB9
:0402540038E52D4715
:040255002F7D4F6545
:04025600310037BF7D
:0402570010A4E1BA54
:0402580005EFE19835
:040259001F67B93C26
:04025A000AD76DDB77
:04025B001DA71E3588
:04025C000923CD5253
:04025D0002F13C6FFF
:04025E003B9F532E41
:04025F001CA833ABF9
:04026000241E57FD04
:04026100179EF94AA1
:04026200199F3DC8DB
:0402630033FABC6846
:0402640022AAF127B2
:040265002AAF91EF3C
:0402660011C1F4B41A
:040267002B8AA60C2C
:040268002E5F563F70
:040269003185E9658D
:04026A0012D3B3995F
:04026B003B1DA65B36
:04026C0031424C458A
:04026D00116D62BAF3
:04026E002D1463F6F2
:04026F003071C926FB
:040270000A8EF715E6
:040271002D75BD6DBD
:040272001F8ED8A55E
:04027300107C23DCFC
:04027400318541BFD0
:0402750018AB23405F
:040276003121B1463B
:0402770033B9A84DA2
:0402780039B8326AF5
:040279001E6E048F62
:04027A002937959BF0
:04027B0018E6D75D4D
:04027C00186497402B
:04027D000CA4B00914
:04027E0028C2A602EA
:04027F001F7A0B5186
:0402800037E8B14664
:040281001B4E008888
:04028200121EB7553C
:040283003B653A9706
:04028400282A70387C
:0402850033CBC7CEE2
:0402860024CAA99647
:040287000DB464C18D
:040288003ED114A3AC
:040289003EEB77626F
:04028A000F91E77673
:04028B003ACE21F155
:04028C000B40A13B47
:04028D003DF784D2E3
:04028E0019B2362843
:04028F000763BC1530
:040290000B0FC0028E
:0402910033DB8EDFEE
:040292002CAC4C9AAA
:0402930025F82C34EA
:0402940002140681C9
:04029500395647C0CF
:0402960030037C6C49
:040297002CFA959F09
:040298000D66F9AA4C
:04029900056C4B8223
:04029A00360F0FE22A
:04029B002A3AFCEF10
:04029C00095B903733
:04029D002FB7FC3348
:04029E001292A4F222
:04029F00196660413B
:0402A00021202A539C
:0402A10001E28FC126
:0402A200219F0B612C
:0402A30026CCA0AC19
:0402A4001E553E9C09
:0402A5000F70B258CC
:0402A6001C9FFCBFDE
:0402A7002D8470032F
:0402A8000D2DA7BBB6
:0402A900375F4DBCB2
:0402AA001AD20FC491
:0402AB0031D6766F63
:0402AC0035EA791F97
:0402AD00019DFA7A3B
:0402AE00394C9C0A21
:0402AF002F0793D4AE
:0402B0002967E2BE1A
:0402B10012E4C9CEBC
:0402B2000077A08EA3
:0402B3002D118FB5C5
:0402B4001EA334C38E
:0402B50016C209DF85
:0402B60000DB6A04FB
:0402B70018B821C78B
:0402B80025E9C3FD74
:0402B90024A5E05741
:0402BA0035590EF7AD
:0402BB0018AF7A08F6
:0402BC0034B57BE5F5
:0402BD002CA11A93C3
:0402BE001BC7F6CC98
:0402BF001F475EE097
:0402C00032FB526259
:0402C10026D3412FD0
:0402C2001DB1C66B39
:0402C3002D8FBB5B65
:0402C40033CB66864C
:0402C5001ED096822F
:0402C600020AD995BA
:0402C7002175191470
:0402C80010E6347197
:0402C900352E08B80E
:0402CA000886EC0AAC
:0402CB0008E06E9148
:0402CC003E2F20A6FB
:0402CD00012627CD12
:0402CE002D448D81AD
:0402CF0035EC6BFFA0
:0402D00019A72A3B05
:0402D100195F787BBE
:0402D20013AAA39C2C
:0402D300193A8C7FC9
:0402D400044A4D7B10
:0402D50028EF9088F6
:0402D6000F043F25AD
:0402D70009E71959C1
:0402D8002AC49E5145
:0402D900132F0DF9D9
:0402DA003423604920
:0402DB002FF4A52235
:0402DC002C5AE03B7D
:0402DD0035D651CFF2
:0402DE002636DE7A68
:0402DF0008289D66E8
:0402E0000918DC3CE1
:0402E10001A62EEC58
:0402E20038FE0A1CBC
:0402E3002423798CCB
:0402E40038124C5E22
:0402E500014719EEC6
:0402E60015D33B0BE6
:0402E700352001CBF2
:0402E8001DC6E30745
:0402E9000FD293435A
:0402EA003D1F6BCE7B
:0402EB0023F717F8E6
:0402EC001975FC8004
:0402ED0012D615FC14
:0402EE002D3A998E7E
:0402EF003A1E991208
:0402F0002883CC860D
:0402F1001DB3EBE965
:0402F200271BE9BA23
:0402F3001E9BE0A3CB
:0402F4001256AB37BC
:0402F5002390C43F4F
:0402F6000411964E0B
:0402F7003E7232AB76
:0402F8000155B2DB1F
:0402F900057AC56D50
:0402FA00386664F10D
:0402FB00236FC51890
:0402FC00121D4D0C76
:0402FD001036245E35
:0402FE002D4016DD9C
:0402FF001F7021D477
:0403000026FB9154F3
:040301000CE5A6174A
:0403020021E001A94C
:040303002707208325
:0403040010CB26C133
:040305001684718069
:040306002974F764FB
:04030700395E4D10FE
:04030800239B798238
:040309000DD5435279
:04030A003D553556D2
:04030B003915F8594F
:04030C00161FAC808C
:04030D002DAF3728B1
:04030E00294C52978D
:04030F003637F42F5A
:0403100038C93ACBE3
:040311003B0B1B8DFA
:04031200220D484C24
:040313002A275E88AF
:04031400363C2AD772
:0403150004E32F4D81
:0403160013F078B3B5
:040317000DF01B0FBB
:04031800092D04C4E3
:04031900283B6EB15E
:04031A0037A630E5ED
:04031B00261C276114
:04031C00269D3D0ECF
:04031D0009F5B362C9
:04031E0038E9BF6992
:04031F002D2018F382
:040320003A29BCC0FA
:04032100063DBA6D6E
:040322002D415BBA54
:0403230004D2B2CE80
:040324003630D84E49
:040325000333361751
:0403260034C47AD38E
:04032700321882A066
:040328000C6300B0B2
:040329001D45D6AEEA
:04032A0032C11AFBC7
:04032B001B62444BC2
:04032C00111F24F683
:04032D000A744822E4
:04032E00247769BD0A
:04032F001D8387B4EF
:04033000299DBE95B0
:040331003D31E5EC89
:0403320018700ADA5B
:040333002AE93D7204
:040334002EC237336B
:040335002BE52D0483
:0403360008D40F6C6C
:0403370012A5FA7D94
:040338002806BA4E8B
:0403390039C17CDB6F
:04033A001BF9E93092
:04033B00008D78C6F3
:04033C000AE586A6A2
:04033D0011E529B2EB
:04033E00271B787C85
:04033F001D65657C57
:040340002C2FC37F1C
:040341000D5E79BB19
:04034200295093BCEF
:04034300081CBEF0E4
:040344001159FB4A06
:040345003903E42C68
:0403460014EE46AEBD
:040347000F620A7CBB
:040348003E73373594
:040349000F9A37E6EA
:04034A003A08943A9F
:04034B00274706CE6C
:04034C00289D74086C
:04034D002E351B8AA4
:04034E002662BA3633
:04034F002C42A93E55
:040350002E1BA0952B
:040351001437F9A4C0
:04035200163D0DC582
:040353002CE72CA9BE
:040354000A12CD2B91
:0403550038C196DC39
:04035600389BAF7CA5
:040357002448EAA0AC
:040358001D611F47BD
:0403590000D177DE7A
:04035A001451613C9D
:04035B002A90426C36
:04035C000BDC262B65
:04035D00353D780CA6
:04035E0015488F1996
:04035F002E2DA6D9C0
:040360001DC54C2F3C
:04036100389103E9E3
:040362001AB60B209C
:040363000A40CB522F
:040364001CF65465CA
:040365000C48297E99
:040366001F2AC37D0A
:04036700308C3D1683
:04036800242A021E23
:040369001F18381011
:04036A0018B2181E8F
:04036B0018412E62A5
:04036C0005E688D644
:04036D002625B56824
:04036E001E619C1B55
:04036F00259D8A97A7
:040370001143131F03
:04037100124BED0A34
:04037200044C2F2EDA
:040373001064397B5E
:04037400273C800C96
:04037500359A0CEEBB
:040376001FAAAF0B00
:04037700300CDA96D6
:040378002247D5A3A0
:04037900395148FFAF
:04037A0001037F52AA
:04037B0028C9967582
:04037C0038C946C86E
:04037D000C0D80469D
:04037E00140666E714
:04037F0014D2D23989
:040380001BE4BA368A
:040381003B62199131
:040382000B331DC25A
:04038300007DB4C085
:040384000BB538027B
:0403850038B0DD7738
:040386000D7D45386C
:040387001B5949D1E4
:040388000978174099
:0403890006148B09C2
:04038A001AAED602CF
:04038B00321DA1FE80
:04038C000AC5499CB9
:04038D003380C342B4
:04038E001A87C3C83F
:04038F00049D564033
:040390003682F5E7D5
:040391003EEDE14C10
:04039200108EC653B0
:040393001C1F771D97
:0403940020D39F29AA
:040395000133D93C1B
:0403960035D1E73E38
:04039700085967DDBD
:040398003E6E2C8009
:040399001736036AA6
:04039A00211CA8D8A2
:04039B002897512D21
:04039C00335998B881
:04039D001734FD59BB
:04039E002CB6720FF8
:04039F0023C3670A03
:0403A00026425A0F88
:0403A100048F5ED88F
:0403A2003B4F1BB4FE
:0403A30029F8781AA3
:0403A4003EBB481400
:0403A50029F83DFFF7
:0403A6002CD4902C97
:0403A700042AB37EF3
:0403A8003AF6910F81
:0403A9001F1E88E4A7
:0403AA00202333B920
:0403AB000A43A46EEF
:0403AC0031675EA7B0
:0403AD00145B29862E
:0403AE002C1C22E3FE
:0403AF003EC5F60D44
:0403B0002E8332A6C0
:0403B1001D9818E19A
:0403B2000288298113
:0403B3002F3E5FC5B5
:0403B4000E4A8E9CC3
:0403B5002DE5EB80C7
:0403B600165A1DAA0C
:0403B7002A8530A2C1
:0403B8003CB458F801
:0403B90009734F0372
:0403BA003BAF3031F4
:0403BB0030246487FF
:0403BC002082C46770
:0403BD0001258D7A0F
:0403BE0029B91CC776
:0403BF001F7D104C42
:0403C0003558BE07E7
:0403C1000CEFBCB9C8
:0403C2001EDE8E6548
:0403C30026631F6C22
:0403C400292C884117
:0403C50006CD64FFFE
:0403C600084D0D864B
:0403C70034813AB98A
:0403C800379AD1BBD4
:0403C9001C8E8F42B5
:0403CA00132AC343EC
:0403CB001358642E31
:0403CC0001E771B420
:0403CD0009F9EC6BD3
:0403CE0010BDAFE2CD
:0403CF0004F61D14FF
:0403D00032CE151400
:0403D10000D8063F0B
:0403D20024969001DC
:0403D3003C7F8D15C9
:0403D4003DE03820B0
:0403D500213DD19D58
:0403D6003CE1422D97
:0403D7000198E12286
:0403D80029C4AB4346
:0403D9001ECD0B36F4
:0403DA000CA0273E0E
:0403DB0033F0E99D75
:0403DC0002F4264AB7
:0403DD003886BA178D
:0403DE001495A0448E
:0403DF00353E36363B
:0403E00003B28CCB0D
:0403E100262B396D21
:0403E2003390F3A6BB
:0403E300290DFE845E
:0403E4000FF7E99D89
:0403E50039439AB846
:0403E60004B60C0D40
:0403E7002C6C7F47B4
:0403E8003333A7F50F
:0403E9002EE0EEE133
:0403EA003D8818E250
:0403EB003B8AF22F28
:0403EC000CD47FD5D9
:0403ED0023D72B8463
:0403EE00399B8DFAB0
:0403EF003CD356E5C0
:0403F0001F021BFBD2
:0403F100198A411311
:0403F20019FA9B75E4
:0403F3002E971733F7
:0403F4000974E16A3D
:0403F50001145FABE5
:0403F60017BC3CBE36
:0403F7001CD2FE76A0
:0403F8003933641120
:0403F9003CA645E0F9
:0403FA0011C3F98AA8
:0403FB00226A512EF3
:0403FC002AA1DE4014
:0403FD001969453FF6
:0403FE002EB1114AC1
:0403FF00253C173A48
:040400001A878B9F2D
:040401001E6C6B20E2
:040402001886FA401E
:040403000B2FA15FBB
:04040400337C1F58CE
:040405003B036695BA
:040406000D820AC990
:0404070018792EDF53
:040408002FD3932E2D
:040409003881E07CDA
:04040A001A1CC7C52C
:04040B00363688A059
:04040C000A87BA475A
:04040D0038BBD9E33C
:04040E0024556E29DA
:04040F002D3198B93A
:0404100025A5870295
:040411001D904159A0
:040412001C06CE5B9B
:04041300238DCAB1BA
:040414001AA918D930
:04041500342E6EDC37
:040416002522404D0E
:0404170029157B42E6
:0404180005F3E65BA7
:0404190013A8531AB7
:04041A003325AAE3F9
:04041B003EBC8C0156
:04041C00011E15ECBC
:04041D00155F421C09
:04041E001AF9D4D91A
:04041F001425C7B425
:040420000FE3B9A786
:040421002DF4ED3B8E
:040422000505A1C06B
:0404230031C33E2C77
:04042400034DA1BA29
:0404250015D7B4BA79
:040426001555A05573
:040427001089F7251C
:0404280004E924427D
:040429002748C2742A
:04042A0013E46CABC0
:04042B0036CFA837E9
:04042C0018C5CFB967
:04042D00043F8B0DF0
:04042E00206F8D6747
:04042F000E0911445D
:0404300026F303DFCD
:040431000F01CDC525
:040432003268A47711
:040433000C5BBC643E
:04043400214A34D154
:040435003C50DA83DA
:04043600392C95F9CF
:040437001C661D0D15
:040438002B6B4AC719
:0404390035724C3696
:04043A00144F58E41F
:04043B001A3AEB6D11
:04043C001B4BC196FF
:04043D00327A4F427E
:04043E00392E3EEE27
:04043F003278EC42E1
:040440003C59DC093E
:04044100268F23B52A
:040442000678DC8AD2
:040443000F9CC055F5
:04044400127D32B340
:0404450020A21EAD26
:040446001E1B92E601
:04044700063D6EED13
:040448000F5502E862
:040449002B878C1F52
:04044A001721C54D64
:04044B003DA4AFBE5F
:04044C00048138C629
:04044D001BA42D0BB4
:04044E0014172168F6
:04044F001F76D3320F
:040450003B7F02D913
:0404510010B09BFD4F
:0404520018E6661A28
:0404530027F002E9A3
:0404540008D33A8B04
:0404550004CF8E85BD
:040456003517175CE3
:040457002322A72F86
:040458003CC152F55C
:04045900013083E902
:04045A001A5D1AE924
:04045B0008932DA134
:04045C000828B16D4E
:04045D0003E7C09061
:04045E0039DDA51FC0
:04045F0029DB0C3257
:040460002E8BBCE53E
:04046100185FC43428
:040462002106E1DAB4
:040463001D6622866A
:0404640022B4165553
:040465002F1DBFDEAA
:040466000DF61CD2A1
:040467000B81D02015
:04046800329D382960
:040469003EEDBFDBCA
:04046A0020A84E82F6
:04046B00183474FCD1
:04046C0009D8B67085
:04046D000965315B91
:04046E001922A4C1EA
:04046F003D98D43DA3
:040470002CCF3D60F0
:040471001C21541CDA
:0404720026A896B66C
:0404730016738C561A
:04047400165C0D9C69
:040475003D6B9E1B22
:0404760031A023ACE2
:040477003C0E4507EB
:040478001C766A156F
:040479001E11CDFC87
:04047A002B5A8F0B5F
:04047B001C0E185CDF
:04047C0008CC2CA5D7
:04047D001511F7C797
:04047E00243E11F116
:04047F002F5B00549B
:0404800018F3B1D5E7
:0404810007E502E2A7
:04048200305FB08EA9
:040483003B8D4F9EC0
:0404840011207F388C
:040485000208A0A326
:040486002B96EAECDB
:0404870016DE25D187
:040488001FC27C18FB
:040489001531DD2C20
:04048A001BD2F1543C
:04048B000146019095
:04048C0037EAD299E0
:04048D0014432FAB3A
:04048E00269969CA78
:04048F00152872506A
:040490002541BCC383
:0404910005B7BAB23F
:040492003E5B2F1D81
:040493000A51C45BEB
:0404940032FD58FFDE
:040495001005E079F5
:0404960011ECB3A30F
:040497000D9BF3A422
:0404980035F1925157
:04049900286C7A460B
:04049A001E078BBFEF
:04049B002AF6566087
:04049C001A694BC8C6
:04049D003A4F371A81
:04049E0039EF44DC12
:04049F000021DE0456
:0404A0001655019C50
:0404A100304397B09D
:0404A2002CF5BF4135
:0404A30030F4716E52
:0404A4003345A2DB5F
:0404A5003118FDB15C
:0404A6001495BFF3F7
:0404A700220FD30F3E
:0404A8002D4FB77BA2
:0404A90013C612AFB5
:0404AA0015C0BECFEC
:0404AB0004B06478BD
:0404AC001482007145
:0404AD0014E7A71B8E
:0404AE001E423BBAF5
:0404AF000806C33B3D
:0404B00016E53CC54C
:0404B1000481B03ED4
:0404B2000DBE064D28
:0404B3002C4DC91DE6
:0404B40005285EB801
:0404B5002BFB6BFFB3
:0404B6000DBFB55968
:0404B7002AA1461B15
:0404B8003564CF9048
:0404B9000A41E9B358
:0404BA00262705E00C
:0404BB0014C0A41DA8
:0404BC000B76AF0C00
:0404BD0012EC655E7A
:0404BE003912E0D13E
:0404BF0022FC2BAC44
:0404C000374A491A54
:0404C100198C014F42
:0404C2000C74AE5DAB
:0404C300061ADF0B2B
:0404C4003373F64F49
:0404C50036F973A8E9
:0404C600013878D5AC
:0404C700099285C64B
:0404C80036F04FCFEC
:0404C9000C8F00C2D2
:0404CA002ECAEF48FF
:0404CB002A9FC0CED6
:0404CC00365DA08E6B
:0404CD000B74C112D9
:0404CE0030CFE2E762
:0404CF000AD21BE34F
:0404D0001729EAD12D
:0404D10025AEE7B1BC
:0404D2003D1032B0F7
:0404D30039CA8E395B
:0404D4002A2C47DEA9
:0404D5000EFE422FA6
:0404D60013587D55E5
:0404D70039C027827F
:0404D8001DE44D15BD
:0404D900089CCA921F
:0404DA003E2C32730F
:0404DB001C88DEF6A5
:0404DC0010EA5D4D78
:0404DD000D327C0B55
:0404DE00395B7C23E7
:0404DF002E4DA940B5
:0404E0001F104D9705
:0404E10011D3511FC3
:0404E2002C2A540369
:0404E300370C956CD1
:0404E4002ED1FC1108
:0404E5002501BBCD65
:0404E600116D14FD83
:0404E70021E6C489BD
:0404E8000C26C50910
:0404E9001BFC225086
:0404EA0032588EAB4B
:0404EB00332B7A60D5
:0404EC000220140FC7
:0404ED001FBA674D7E
:0404EE001089E3A6E8
:0404EF001444ED0FB5
:0404F0003B8D293FD8
:0404F100387D31D150
:0404F200103C3DC2BB
:0404F3001931EB517F
:0404F4000EA519C672
:0404F50023DBC72D11
:0404F60029B856804B
:0404F700212C334839
:0404F8001D8185EDF0
:0404F90014D77BF9A0
:0404FA00009A7DBF28
:0404FB000AFA119553
:0404FC002084225DD9
:0404FD0027848DBB08
:0404FE0012F80441AB
:0404FF0000577D1015
:040500000A1DDBE015
:0405010020BBDD4FEF
:0405020028F941C2D1
:0405030038BBF0FC15
:0405040003C7CA203F
:040505000480EA364E
:0405060005C866A915
:040507001D09F1BC1D
:040508000A0A349D0A
:040509002EF7D6698A
:04050A000442DADDF0
:04050B0028FE9587AA
:04050C0036A036C21D
:04050D001BFE8BE660
:04050E002B33C65D68
:04050F0033084E96C9
:0405100006BD9E7610
:040511000A9617A38C
:0405120029C1504368
:040513000BDDA7173E
:0405140005F897C887
:04051500126AC1BCE9
:040516000C59472411
:040517000AC03A8656
:040518000CD07F8004
:040519003EE8E2696D
:04051A002DBA1DF2E7
:04051B00244B80B439
:04051C0007E07A7703
:04051D000EDFD7C74F
:04051E003B16D96847
:04051F00371DE77F1E
:040520001EFD8E2E00
:0405210001134A5622
:0405220016D91E9830
:040523003BBFD53FC6
:0405240031BA57721F
:040525000E5212ABB5
:04052600050CC3DE1F
:040527001BCEB01720
:040528001B10BDE700
:04052900291C3665EE
:04052A002C6E8F2F75
:04052B001B0F17F497
:04052C00141C8E39D4
:04052D003E5946C12C
:04052E0012FD8E1D0F
:04052F00308E3FFBD0
:040530000529E58232
:0405310032A81A5F73
:040532001F6DDDC696
:0405330022AD6BEE9C
:040534002D87649516
:0405350016FD091393
:0405360019E0F0A137
:040537002D412D85A0
:04053800046BEBC2A3
:040539002A3579DC0A
:04053A002E14FBCDB3
:04053B00133FEF9EDD
:04053C002B3C8F17AE
:04053D001934BC0CA5
:04053E002D95EE26E3
:04053F0024CF333161
:040540000AAA38FECD
:040541000FB469C2C8
:040542001156BD642D
:0405430005231AF979
:040544000CE3DEE600
:04054500092CE29803
:0405460002FF48D296
:040547001946DEE88B
:04054800111B4CB681
:04054900360DEAF38E
:04054A002805462E0C
:04054B002C56D4A6B0
:04054C0023FF5C1A13
:04054D00031E720116
:04054E003ADB977489
:04054F0031181C88BB
:040550003539756E56
:0405510038F0C2EFCD
:040552001AA16B8AF5
:04055300214FC84B21
:040554001E841043AE
:040555002686E98A83
:0405560005249A3AA4
:0405570017FC97896D
:0405580004283056ED
:0405590003A68886E7
:04055A0012C3E08167
:04055B0005CD6C3C22
:04055C002AA84AACD3
:04055D0009056338F1
:04055E002DBD21731B
:04055F001CA01D348B
:040560000505F25348
:040561002DC326F987
:040562001B79DBE046
:040563000B8ECB67C9
:0405640006D4EB804E
:04056500238C37802C
:04056600133BEFC094
:04056700181A9D7849
:040568000189AD61F7
:0405690008592649BE
:04056A001483CF75B2
:04056B0013DC30B3BA
:04056C003E14538561
:04056D002B5BCAC971
:04056E001308B64A6E
:04056F001700D44954
:040570000B799DF274
:040571003B1733F60B
:0405720033D217A4C5
:040573002722C59DD9
:040574001D1B859B2B
:040575003E893DE29C
:0405760038FE384EC5
:040577002200317BB2
:0405780025A8EF596A
:040579000084D93DE4
:04057A0014C69BD137
:04057B001126CE4F28
:04057C00349AFA773C
:04057D0021FE174CF8
:04057E0026BFB924B7
:04057F0007FB04E191
:040580003E401DC913
:040581001E5DD5FF27
:040582002D02908531
:040583002046803955
:040584003E26E3CC60
:04058500300260964A
:040586001418B3B0E2
:0405870033916682C4
:040588000EE09F479B
:040589001C7BDF39BF
:04058A003B9830E684
:04058B000F0FEE2A36
:04058C001BA0FB5560
:04058D001B5BBDDC5B
:04058E001655FCE41E
:04058F000885795C06
:040590000EC90E5032
:040591003D998EA959
:040592000DF260F214
:0405930035A264DA4F
:040594003972D5944F
:04059500090C43D535
:0405960012F0960BBE
:040597000AA4B49866
:04059800115D298F39
:0405990011AFF17F2E
:04059A000416BC0780
:04059B000AAE7FF035
:04059C001E246D8329
:04059D00241DF80E13
:04059E0039C9B0396E
:04059F002DEDE8DA7C
:0405A0001B0DFFE749
:0405A1003BCBBDD5BE
:0405A2001F843A2157
:0405A30017ED0D6BD8
:0405A4002AAB98AE38
:0405A500045753ECB8
:0405A600027381A4B7
:0405A70012D9A9D6E6
:0405A8003E3C647AF7
:0405A9003DE1587F59
:0405AA0021548C53F9
:0405AB0009D6397FB5
:0405AC003E5E77D266
:0405AD00207300E4D3
:0405AE001CE1D2C7B3
:0405AF0001661FC200
:0405B0000D93D74B85
:0405B100077F89DD5A
:0405B2002B790D8D07
:0405B30014310055AA
:0405B4001D4130C9EC
:0405B5001FE8C3A9CF
:0405B600003F379635
:0405B70035642DCBAF
:0405B800099CF71A89
:0405B9001023C20B3E
:0405BA0006F900A896
:0405BB0022824FD871
:0405BC00289ED0C4E1
:0405BD001CB1EDF38D
:0405BE0003DFA73B75
:0405BF00382ACDC841
:0405C000100EBA9BC4
:0405C10006A8D12097
:0405C20006569AF946
:0405C30014443CBDE3
:0405C4000C68E92FA7
:0405C500232B5A2565
:0405C60014481A4F6C
:0405C700332E13BB01
:0405C8002819F1E31A
:0405C900180EE7AF72
:0405CA00080DB6164C
:0405CB0017E0977628
:0405CC00337F864FA4
:0405CD0019E11133EC
:0405CE00085141EDA2
:0405CF0039F1D47AB0
:0405D00005ECACD6B4
:0405D1000824FC46B8
:0405D2002178332F2A
:0405D3002518AD1F1B
:0405D4001855277817
:0405D50030A0C49BF3
:0405D6002DA3C7D4B6
:0405D70022794C6FCA
:0405D8001C38C1D139
:0405D90005DD48EC08
:0405DA000CE0D966F2
:0405DB00041C37D3F2
:0405DC00223E6B1B35
:0405DD000BE9BB98D3
:0405DE0025E1B96BEF
:0405DF000137667FFB
:0405E00007387F8CCD
:0405E1001B59B3F4FB
:0405E2001840C6D027
:0405E3002B78C70D9D
:0405E4002D35D7C812
:0405E5002B4BCFA12C
:0405E6003A5EA9715F
:0405E7001EA213FD40
:0405E800286F4847E9
:0405E90039DEA3CD87
:0405EA002DDA0CAD4D
:0405EB000EDB683685
:0405EC0025403287ED
:0405ED00081DB11024
:0405EE00328DBC94FA
:0405EF003C98618251
:0405F000221C09219F
:0405F100043FF223AE
:0405F20039D2DE8498
:0405F300340FFFC200
:0405F40018FCF50CEE
:0405F50022C07FC1E0
:0405F60032BCAC3C2B
:0405F700395BBF5657
:0405F80013B230F01A
:0405F90028EE175978
:0405FA003BE61B1CA5
:0405FB00108F1D6BD5
:0405FC00098637D95C
:0405FD00304DE7DEB8
:0405FE0016C633806A
:0405FF002BA9BDC6A1
:0406000021661D460C
:0406010025E68A8FD1
:040602001D8B9A486A
:0406030007208FB984
:04060400368983B1FF
:040605003856175FED
:0406060039EA8AAF94
:040607000F6B5AEB30
:0406080039114BAEAB
:040609002ED135CCED
:04060A001364E8DCB1
:04060B0037D3AF33FF
:04060C0022B6D5C677
:04060D0019EB7B5812
:04060E00321E83D243
:04060F003BE6F19540
:040610003CE590C66F
:04061100250171C28C
:04061200095E133C2E
:040613001F6D54699A
:040614000C2B6CEE51
:04061500126E8CF0E5
:04061600113DEA6246
:0406170019506EA860
:0406180004565964C7
:040619000FCD673565
:04061A002A2D3868E5
:04061B003D5E062A10
:04061C002C9F3604D5
:04061D003E6CE63F0A
:04061E00155C7103F3
:04061F00156B26EE43
:040620003560BF2F53
:04062100027AC9B0E0
:0406220008D02FE6E7
:04062300126EF91743
:040624001C00C1678E
:0406250001029E4CE4
:040626001317FC4169
:040627002374170E13
:040628001AACCF2316
:04062900110DB636C3
:04062A002E8A40359F
:04062B0002A9F957D0
:04062C001387F27FBF
:04062D003C30181E27
:04062E0037266139D1
:04062F00386C010A18
:040630001AA0691192
:040631002F03AC33B4
:0406320005FE0C199C
:040633002542FDB1AE
:040634001D4C7AB42B
:04063500227153B02B
:040636000DF61309A1
:04063700202284AB4E
:040638003075C497BE
:0406390024349CFBCE
:04063A0008DAE83FB3
:04063B00193631E556
:04063C00367743FCCE
:04063D0019D965550D
:04063E0031E7DE477B
:04063F000B99B661FC
:0406400030A1320AA9
:04064100282D133716
:0406420010D636B1E7
:040643000D3EEAD4AA
:0406440005BB6D463F
:040645003EB3C4A557
:0406460032548BA9F6
:040647002C29B67034
:0406480012F0C55295
:040649000C14DFF9B5
:04064A0037A6144A71
:04064B000AA20C3EB5
:04064C00194DBFF98C
:04064D00048909AE65
:04064E0038DC283E2E
:04064F0012CF10C2F4
:040650003380B286BB
:04065100349B763E22
:040652003327A5267F
:040653000834F20F66
:0406540005B5312F88
:040655003931223BDA
:04065600365B4DE5DD
:0406570020C307AF06
:0406580018424D6493
:040659000470656361
:04065A00138ED1DF4B
:04065B0025EF4FC276
:04065C0039FC42B271
:04065D001C00750FF9
:04065E0028220556F3
:04065F000A681C3CCD
:040660000EC26D4514
:04066100341259B93D
:0406620021477AF3BF
:04066300090133D77F
:040664002559D6300E
:0406650033757E8DDE
:040666003DAD740F23
:0406670009916EAADD
:0406680004C23D800B
:040669003383725411
:04066A002F29063AF4
:04066B001602BF7F35
:04066C000A28F7FD64
:04066D001119AD2C86
:04066E0024BC8DA873
:04066F003B6C8BFD58
:04067000297C128E41
:040671001306B7DCD9
:040672000DF96EFE12
:04067300308CBB0705
:040674003C7A76DC7A
:0406750032FA007ADB
:0406760009D4FB4C5C
:0406770000C1792B1A
:040678001A937B2F27
:0406790021AD732814
:04067A000E60929DDF
:04067B000C14761CC9
:04067C003A22C55EFB
:04067D000AC1910815
:04067E000A69F3CE44
:04067F00294E0F727F
:040680002B2B0179A6
:040681002F7B342770
:040682003397AC52AC
:040683001C323C8C5D
:04068400206DFE17D0
:040685001C85729DC1
:040686003B1594B9D3
:040687000FB83E402A
:040688003E062C4EB0
:04068900248D181490
:04068A00093E85613F
:04068B0036C5740FED
:04068C00204687FE7F
:04068D002D8C07CCDD
:04068E0030E3E087EE
:04068F0032973579F0
:0406900030E64A8F77
:040691000E00AB7735
:04069200074EF25CC1
:040693003720773A5B
:040694002856EF18DD
:0406950007D3AE7A5F
:040696003EA25EEE34
:040697001D3607F312
:04069800135CDBFB19
:0406990017E79412B9
:04069A002E120428F0
:04069B000EF71199AC
:04069C000C9427BED5
:04069D003A8797BC45
:04069E00306EA84EC4
:04069F0029848C5CC2
:0406A00028658F79C1
:0406A1002040C4CF62
:0406A20001CA7C8489
:0406A3000648734151
:0406A4001E35002BD4
:0406A500120B3B5E9B
:0406A600342351A503
:0406A70002FAE3CDA3
:0406A80015ED59D71C
:0406A9003AC622F239
:0406AA000706761EAB
:0406AB00285B89A798
:0406AC00051EEA5EDF
:0406AD000B9665CC77
:0406AE001440497C2F
:0406AF0027BC82538F
:0406B000024322C619
:0406B1001800653D8B
:0406B20005096BB615
:0406B300255D9F6CB6
:0406B400079036C9AC
:0406B50007A2A2698D
:0406B60019469366E8
:0406B700067AE9D105
:0406B8001E84F1F4B7
:0406B900100DE1300F
:0406BA003ABF875864
:0406BB000128AAB5B3
:0406BC00196B539FC4
:0406BD001A94CA8140
:0406BE001B12B21445
:0406BF002029F3B447
:0406C00030D6B40478
:0406C1002EAF7ADC02
:0406C2003EC09DDFBA
:0406C300108AB54D97
:0406C400069F17E195
:0406C500200082B9D6
:0406C60030C7C22552
:0406C7003A3BDBDE01
:0406C8001B743EDE83
:0406C900210B91A5CB
:0406CA001F2C576525
:0406CB0015F700150A
:0406CC001D2E7EBFA2
:0406CD000FEE18F321
:0406CE001915896809
:0406CF0028C391505B
:0406D000231770C4B8
:0406D10001BAFF2A41
:0406D2003D4C2AD49D
:0406D30026F627E2FE
:0406D4003DCE2E14D5
:0406D5002BED729205
:0406D60000BBAEA710
:0406D700343F00218B
:0406D8000C6E873AE3
:0406D9000719CAE54E
:0406DA00390008508B
:0406DB00260DBAA787
:0406DC0028165C562A
:0406DD0010AA8D5C76
:0406DE00050CC888B7
:0406DF001EF22F1DBB
:0406E00021AC3029F0
:0406E10019CB69A91F
:0406E2000BF686E6A7
:0406E30009E9C0ABB6
:0406E4000046D5F205
:0406E5000265850C19
:0406E6003603AD909A
:0406E700146D7E58B8
:0406E8001FD931BC29
:0406E90019E9498D35
:0406EA0038D65DB5EC
:0406EB003D3C7C8492
:0406EC00009738D269
:0406ED001F93E18DE9
:0406EE00117945F643
:0406EF0015AF50FCF7
:0406F0003479067BD8
:0406F10039F2699FD2
:0406F200148A0590D1
:0406F3000900AD58F5
:0406F400306A48DE42
:0406F5000955262D50
:0406F60022B3DF3A12
:0406F700319624EC28
:0406F8000BBC08D659
:0406F90009C6CCAEB4
:0406FA0030237C022B
:0406FB002CB166D7E1
:0406FC0010729E9D3D
:0406FD001D7D1F76CA
:0406FE003D22AEF5F6
:0406FF0032E058E2AB
:0407000010AF5CD703
:04070100097A9F4A88
:040702001BF92CB4FF
:040703001947F14B56
:040704003373946E49
:040705002D6E5DCF29
:040706000DB5950D8B
:0407070032860A1517
:04070800091F98DD50
:0407090006A45C27BF
:04070A00336CB7E9AC
:04070B0023BF88BBC5
:04070C001C6B776388
:04070D0024DEA4F052
:04070E0001A20A64D6
:04070F00304F649073
:040710001930087024
:04071100386E7F704F
:040712003A7C79AC08
:040713003D7D06A082
:0407140006D0C874CF
:040715000CAD0C48D3
:040716003B029549C4
:040717003E33AA665D
:04071800326AB6701B
:04071900102F9556B2
:04071A00228D9ECCC2
:04071B002ABEBE66CE
:04071C002DF4C151A6
:04071D0027B467D7BF
:04071E002CB87D5026
:04071F000B0567203F
:040720002347429C8D
:040721002989D46FDF
:0407220016D2EA59A8
:040723000BBCB68CC9
:04072400103DE78D10
:040725003C7CF09890
:0407260010BA920E65
:0407270011B2E377B1
:0407280010E5024294
:040729002275920F94
:04072A001190E50540
:04072B003DF8A19A5A
:04072C002D84DB3706
:04072D000729B6964C
:04072E0018FA2CE0A9
:04072F00353CC9008C
:04073000282EB95561
:040731002040B77C31
:040732000B2D5CE54A
:0407330012BBD9DF3D
:0407340004FAC86794
:0407350007CDC6CF57
:040736001A490775E0
:040737002D901D568E
:040738003E5AFF5ACC
:0407390008DF284D60
:04073A0039CB7F2216
:04073B001607EA6D46
:04073C002535808758
:04073D002174728928
:04073E001F6535C43A
:04073F0022BDD24FB6
:040740002E63997A11
:040741000EA1364986
:040742002516CC812B
:040743003473F1F723
:040744001222CB733F
:040745003A9D2FB0FA
:0407460004DEDEE00F
:040747001D2EB26E43
:040748001B9C76DDA3
:040749001F01CA358D
:04074A0000924DB21A
:04074B0012FCC6EFE7
:04074C002B9ED741C8
:04074D0021D64AC3A4
:04074E001BAADBEC1B
:04074F002F2809E85E
:040750002E7FA1CB8C
:040751000B1F65E134
:040752000339F771FF
:040753000AA072A4E2
:040754000E324BFF17
:0407550025F0AA0ED3
:04075600100CCD9323
:040757001F7D11C928
:040758003CFE3D65C1
:040759001FD0BC856C
:04075A002193913F17
:04075B0014972C378C
:04075C0002A2E365AD
:04075D000D49D2135D
:04075E0024CAE8CDF4
:04075F00054CD9FB71
:0407600002CDE4FCE6
:040761000702EB1E82
:040762000A52562DB4
:040763003AEFF2A2D5
:040764002AF88338B4
:040765003BB6831FFD
:040766002D6DBDA593
:040767002E1AB8F49A
:04076800247B18AD29
:040769001199C61705
:04076A002AB7B20FE9
:04076B001621049EB1
:04076C002330C6FF71
:04076D003AC8BB3596
:04076E0026E2D1634B
:04076F00089106D314
:040770002D0DE66302
:04077100155542993F
:040772000281C24EF0
:0407730028E29136B1
:0407740001562DC637
:040775000457FEFB2C
:040776002AE33FE94A
:0407770039B6B6A435
:0407780011E0D48533
:040779000599C45CBE
:04077A002C7645A3F1
:04077B002169CFCB56
:04077C00198CD4867A
:04077D002B86B845CA
:04077E001602864099
:04077F000A8E9461E9
:04078000193C809F01
:040781001A51C94DF3
:040782001295DE5B93
:0407830031428D2052
:0407840031AE1BCBAC
:04078500153FB92043
:040786000E5C7E8403
:040787003B129A3453
:040788003C20E47BB2
:040789002F1F73614A
:04078A00233A17EA0D
:04078B003569405B31
:04078C001902BE6B25
:04078D0021F136C35D
:04078E00151ABDF289
:04078F0001BB9BB45B
:040790002904C3EF86
:040791000CA3EA14B7
:0407920006E76615FB
:0407930028C981DF11
:0407940018E5920FC3
:040795002751CD0318
:04079600070A7E9F31
:0407970029E2FDA5B1
:040798000BE9A93C84
:040799002FAD3C3113
:04079A000A1ED5322C
:04079B0032D7DE0E65
:04079C00046F5D5930
:04079D001780AB0B0B
:04079E003B5176B1A4
:04079F00292425E202
:0407A00004AE9A9871
:0407A1002BFF5C7955
:0407A2000E4C1E6675
:0407A30032B7F0C1B8
:0407A40014D2A9A41E
:0407A50031F249776D
:0407A6001B8639571E
:0407A7002FF37B5958
:0407A8003D58B8A55B
:0407A90024B26C9377
:0407AA00171F5B6258
:0407AB0026D1CBD7B1
:0407AC000410FA72C9
:0407AD002919061FE1
:0407AE001B5A6983E6
:0407AF000A0D6A7055
:0407B000316DF2AA0B
:0407B10027C8B8ABF2
:0407B2002970BE13D9
:0407B3002498F1DFB6
:0407B40026FBE244FA
:0407B50018A56366BA
:0407B60037B6EF293A
:0407B7002D451BAA07
:0407B8000366954CF3
:0407B9002EFE6B6144
:0407BA00152B3C3F80
:0407BB002BB0538686
:0407BC0009B26E32DE
:0407BD001ED66F6B6A
:0407BE001EFDD898AC
:0407BF0005962AACC5
:0407C0001643146167
:0407C100063263D0C9
:0407C2002974D72699
:0407C3002777DFD2E3
:0407C4000E8211C1CF
:0407C500041B83DEB0
:0407C6003BA5D8F186
:0407C7002DC5F94102
:0407C80025A08038B0
:0407C9001991C9AF0A
:0407CA002FAE60C22C
:0407CB0025B6B26835
:0407CC00320AFD1ED2
:0407CD0022A8EFFA75
:0407CE002F5057222F
:0407CF001B1ACE4CD7
:0407D00032AD55E908
:0407D1001A4E12A505
:0407D2001020BD75C1
:0407D3000B10F0B661
:0407D4002BA2903D87
:0407D50010072622C1
:0407D600260B484F57
:0407D700119B061953
:0407D8000D77CD2AA2
:0407D900111038C6FD
:0407DA0039274B026E
:0407DB00075232454A
:0407DC00122D62D7A1
:0407DD0012886159C4
:0407DE002D4B4E77DA
:0407DF0020166C0B69
:0407E0001A1DE02CD2
:0407E1001BBD1E69B5
:0407E20008A2BECAE1
:0407E3002F7AC41392
:0407E40008C30E67D1
:0407E50008A6BCD0D6
:0407E60017EB6BE5BD
:0407E7000F283C3B60
:0407E800138FEF5626
:0407E90025F7666A20
:0407EA00199B9F3484
:0407EB001386E7F09A
:0407EC0015EF3FF7CF
:0407ED001BB7179E81
:0407EE001C8C9ADDE8
:0407EF0001B3EBD790
:0407F000234D3EB5A2
:0407F10036EE171EAB
:0407F20038B81A0EEB
:0407F3003C9C13B067
:0407F4000B169CD074
:0407F5001261D3B307
:0407F60022E6E68889
:0407F7000D2341EF9E
:0407F8000B1DF2CF14
:0407F9001D709F6B65
:0407FA002E67CD3960
:0407FB0003CE81B4F4
:0407FC00307FA5B0F5
:0407FD003D1777EE3F
:0407FE0030B6F336E8
:0407FF000794EFAEBE
:00000001ff
