:020000040000FA
:0400000000000001FB
:040001001BF028FFC9
:04000200091B64670B
:040003000EE6B4CC85
:040004001F81729A4C
:040005003746B8259D
:040006003DB0C81130
:040007000A02F64CA7
:04000800194E1192EA
:0400090017F01BF5DC
:04000A003AB331E8EC
:04000B000AC7A8D7A1
:04000C003B7A5C9B44
:04000D002D7ECB3E3B
:04000E00269EA88EF4
:04000F0001958C2BA0
:0400100009E967A7EC
:040011000E128A122F
:040012002893F5D169
:0400130016998EB3F9
:040014002882291EF7
:040015000C4A9620DB
:040016002D54741FD2
:0400170003D7D1CD6D
:0400180000358254D9
:040019003DF233F889
:04001A003E7482A608
:04001B0027BA414F70
:04001C0005CB08BD4B
:04001D0016493D4102
:04001E00150ADB5094
:04001F000636E701B9
:040020003DB667077B
:040021000D983EE513
:0400220015824E6F86
:040023003E5A6B785E
:040024001A918DECB4
:040025000C77833998
:04002600162C9930CB
:040027001F1D7B7DA1
:04002800157B64954B
:040029001E907C9217
:04002A0018B34F2E8A
:04002B003A0D8455B1
:04002C000EDA4D9209
:04002D002D53109FA0
:04002E001A12530847
:04002F002FF0AD3FC2
:040030001CE13E1879
:040031000EE0598400
:04003200207417E13E
:040033001CB0C986AE
:040034002F12EBC7D5
:0400350017BD2B2D9B
:040036003834B4A7FF
:0400370024BA066D74
:0400380007C1EB41D0
:0400390020925FBAF8
:04003A000B56D3513D
:04003B002E3936F52F
:04003C0026C1D5AB59
:04003D00021468A59C
:04003E0031C9CBF009
:04003F001DE88E2CFE
:040040000D2F69A96E
:04004100010B0AE0C5
:04004200177459B91D
:040043001D4240FD1D
:0400440019EAF8D1EC
:040045001426AE3699
:0400460030F726F970
:0400470032A519B213
:040048001CE0054E65
:040049003329C3167E
:04004A00279183D89F
:04004B001925CA9316
:04004C002B436AC315
:04004D0020E3D88F45
:04004E00136351AD3A
:04004F00195F4030C5
:040050000A269BC021
:040051003AC22F512F
:04005200226FD5D76D
:040053001E882ADBFE
:0400540028C102D0ED
:0400550006655BB72A
:04005600067C7BBAEF
:040057003D1B941D9C
:040058003DC8492036
:0400590036E46E9487
:04005A002196746017
:04005B001D15F0027D
:04005C003E52C05EF2
:04005D0003E576043D
:04005E000A769FAED1
:04005F0032EFC907AC
:040060002980D01013
:04006100100FB51BAC
:04006200318153197C
:040063003DD6BF9532
:0400640039304A687D
:040065001ED2B9F9F5
:0400660032512D14D2
:04006700328BE045B3
:040068002941FAC769
:0400690010C1BA26E2
:04006A002B471519F2
:04006B000F5E53E6EB
:04006C00331FEA92C2
:04006D002ABA96AB6A
:04006E0015698A0086
:04006F001DE0660A20
:040070001D2DBE4341
:040071002F78CB33E6
:04007200140A64C642
:04007300332D0D4FCD
:04007400224FE4F142
:0400750015F171B35D
:0400760014BFDCE0F7
:0400770037CB3B74D4
:040078002B71209533
:0400790030C07CD93E
:04007A001A24E4C49C
:04007B002C9CFA5D62
:04007C002140A13747
:04007D003B9046630B
:04007E00310030809D
:04007F001D76ACB28C
:04008000363F4806B9
:040081001E38232ED4
:0400820011A1D7826F
:04008300125F443094
:04008400189DAA29F0
:040085000076F6CD3E
:04008600101B15F145
:0400870021932BE3B3
:040088002206A8683C
:0400890010113BA176
:04008A001ED2954E9F
:04008B003BF9FF043A
:04008C000BB958C58F
:04008D0011528F304D
:04008E00256497A1AD
:04008F001BA500921B
:0400900031BE707895
:0400910015E2BBA217
:04009200173C60E1D6
:040093003390774AE5
:0400940034B19241B0
:040095001CD9C0EDC5
:0400960008A7464C25
:0400970009D404DAAA
:04009800269694F222
:040099001855392499
:04009A003045BEEC43
:04009B001F63230CB0
:04009C00305CBC7A9E
:04009D002885B02DD5
:04009E000156E565BD
:04009F0005F6248CB2
:0400A0000CB7280D64
:0400A10027AEAB8556
:0400A20031866866D5
:0400A3000E58BDEA4C
:0400A4000254342EA0
:0400A5002096A3639B
:0400A600375EBC4FB6
:0400A7000048D61126
:0400A8001A3F920168
:0400A9003D7D3C1D40
:0400AA0011A34D1041
:0400AB002838E6E526
:0400AC00065138447D
:0400AD00130C238F7E
:0400AE00241A4E764C
:0400AF000079F17D66
:0400B000165CF8DD05
:0400B1002DB25A65AD
:0400B20036A9782CC7
:0400B3000EFCEBE76D
:0400B4000FACB33AA0
:0400B50027AB397FBD
:0400B6000BF86BC216
:0400B7002A420511C3
:0400B8000E35F020F1
:0400B9000D411916C6
:0400BA000E21F7B666
:0400BB001CE4F3CA84
:0400BC000BBC807584
:0400BD002581312543
:0400BE003839DAA152
:0400BF00393FA1B074
:0400C00029EF1C3ACE
:0400C100311B330EAE
:0400C2000CC86C46B4
:0400C3001A5ADF1FC7
:0400C4002D67A00CF8
:0400C5001E6D195142
:0400C6003B98FCDE89
:0400C7002F7D4F65D5
:0400C80005EFE198C7
:0400C9001DA71E351C
:0400CA003B9F532ED7
:0400CB00179EF94A39
:0400CC0022AAF1274C
:0400CD002B8AA60CC8
:0400CE0012D3B399FD
:0400CF00116D62BA93
:0400D0000A8EF71588
:0400D100107C23DCA0
:0400D2003121B146E1
:0400D3001E6E048F0A
:0400D40018649740D5
:0400D5001F7A0B5132
:0400D600121EB755EA
:0400D70033CBC7CE92
:0400D8003ED114A35E
:0400D9003ACE21F109
:0400DA0019B23628F9
:0400DB0033DB8EDFA6
:0400DC000214068183
:0400DD002CFA959FC5
:0400DE00360F0FE2E8
:0400DF002FB7FC3308
:0400E00021202A535E
:0400E10026CCA0ACDD
:0400E2001C9FFCBFA4
:0400E300375F4DBC7A
:0400E40035EA791F61
:0400E5002F0793D47A
:0400E6000077A08E71
:0400E70016C209DF55
:0400E80025E9C3FD46
:0400E90018AF7A08CA
:0400EA001BC7F6CC6E
:0400EB0026D3412FA8
:0400EC0033CB668626
:0400ED00217519144C
:0400EE000886EC0A8A
:0400EF00012627CDF2
:0400F00019A72A3BE7
:0400F100193A8C7FAD
:0400F2000F043F2593
:0400F300132F0DF9C1
:0400F4002C5AE03B67
:0400F50008289D66D4
:0400F60038FE0A1CAA
:0400F700014719EEB6
:0400F8001DC6E30737
:0400F90023F717F8DA
:0400FA002D3A998E74
:0400FB001DB3EBE95D
:0400FC001256AB37B6
:0400FD003E7232AB72
:0400FE00386664F10B
:0400FF001036245E35
:0401000026FB9154F5
:040101002707208329
:040102002974F76401
:040103000DD5435281
:04010400161FAC8096
:040105003637F42F66
:04010600220D484C32
:0401070004E32F4D91
:04010800092D04C4F5
:04010900261C276128
:04010A0038E9BF69A8
:04010B00063DBA6D86
:04010C003630D84E63
:04010D00321882A082
:04010E0032C11AFBE5
:04010F000A74482204
:04011000299DBE95D2
:040111002AE93D7228
:0401120008D40F6C92
:0401130039C17CDB97
:040114000AE586A6CC
:040115001D65657C83
:04011600295093BC1D
:040117003903E42C98
:040118003E733735C6
:04011900274706CEA0
:04011A002662BA3669
:04011B001437F9A4F8
:04011C000A12CD2BCB
:04011D002448EAA0E8
:04011E001451613CDB
:04011F00353D780CE6
:040120001DC54C2F7E
:040121000A40CB5273
:040122001F2AC37D50
:040123001F18381059
:0401240005E688D68E
:04012500259D8A97F3
:04012600044C2F2E28
:04012700359A0CEE0B
:040128002247D5A3F2
:0401290028C99675D6
:04012A00140666E76A
:04012B003B62199189
:04012C000BB53802D5
:04012D001B5949D140
:04012E001AAED6022D
:04012F003380C34214
:040130003682F5E737
:040131001C1F771DFB
:0401320035D1E73E9E
:040133001736036A0E
:04013400335998B8EB
:0401350023C3670A6F
:040136003B4F1BB46C
:0401370029F83DFF67
:040138003AF6910FF3
:040139000A43A46E63
:04013A002C1C22E374
:04013B001D9818E112
:04013C000E4A8E9C3D
:04013D002A8530A23D
:04013E003BAF303172
:04013F0001258D7A8F
:040140003558BE0769
:0401410026631F6CA6
:04014200084D0D86D1
:040143001C8E8F423D
:0401440001E771B4AA
:0401450004F61D148B
:04014600249690016A
:04014700213DD19DE8
:0401480029C4AB43D8
:0401490033F0E99D09
:04014A001495A04424
:04014B00262B396DB9
:04014C000FF7E99D23
:04014D002C6C7F4750
:04014E003D8818E2EE
:04014F0023D72B8403
:040150001F021BFB74
:040151002E9717339B
:0401520017BC3CBEDC
:040153003CA645E0A1
:040154002AA1DE40BE
:04015500253C173AF4
:040156001886FA40CD
:040157003B0366956B
:040158002FD3932EE0
:04015900363688A00E
:04015A0024556E2991
:04015B001D90415959
:04015C001AA918D9EB
:04015D0029157B42A3
:04015E003325AAE3B8
:04015F00155F421CCA
:040160000FE3B9A749
:0401610031C33E2C3C
:040162001555A0553A
:040163002748C274F3
:0401640018C5CFB932
:040165000E0911442A
:040166003268A477E0
:040167003C50DA83AB
:040168002B6B4AC7EC
:040169001A3AEB6DE6
:04016A00392E3EEEFE
:04016B00268F23B503
:04016C00127D32B31B
:04016D00063D6EEDF0
:04016E001721C54D43
:04016F001BA42D0B95
:040170003B7F02D9F6
:0401710027F002E988
:040172003517175CCA
:04017300013083E9EB
:040174000828B16D39
:0401750029DB0C3244
:040176002106E1DAA3
:040177002F1DBFDE9B
:04017800329D382953
:04017900183474FCC6
:04017A001922A4C1E1
:04017B001C21541CD3
:04017C00165C0D9C64
:04017D003C0E4507E8
:04017E002B5A8F0B5E
:04017F001511F7C798
:0401800018F3B1D5EA
:040181003B8D4F9EC5
:040182002B96EAECE2
:040183001531DD2C29
:0401840037EAD299EB
:040185001528725077
:040186003E5B2F1D90
:040187001005E07906
:0401880035F192516A
:040189002AF656609C
:04018A0039EF44DC29
:04018B00304397B0B6
:04018C003345A2DB7A
:04018D00220FD30F5B
:04018E0015C0BECF0B
:04018F0014E7A71BAF
:0401900016E53CC56F
:040191002C4DC91D0B
:040192000DBFB5598F
:040193000A41E9B381
:040194000B76AF0C2B
:0401950022FC2BAC71
:040196000C74AE5DDA
:0401970036F973A81A
:0401980036F04FCF1F
:040199002A9FC0CE0B
:04019A0030CFE2E799
:04019B0025AEE7B1F5
:04019C002A2C47DEE4
:04019D0039C02782BC
:04019E003E2C32734E
:04019F000D327C0B96
:0401A0001F104D9748
:0401A100370C956C16
:0401A200116D14FDCA
:0401A3001BFC2250CF
:0401A4000220140F12
:0401A5001444ED0F02
:0401A600103C3DC20A
:0401A70023DBC72D62
:0401A8001D8185ED43
:0401A9000AFA1195A8
:0401AA0012F8044102
:0401AB0020BBDD4F49
:0401AC0003C7CA209B
:0401AD001D09F1BC7B
:0401AE000442DADD50
:0401AF001BFE8BE6C2
:0401B00006BD9E7674
:0401B1000BDDA717A4
:0401B2000C59472479
:0401B3003EE8E269D7
:0401B40007E07A776F
:0401B500371DE77F8C
:0401B60016D91E98A0
:0401B7000E5212AB27
:0401B8001B10BDE774
:0401B9001B0F17F40D
:0401BA0012FD8E1D87
:0401BB0032A81A5FED
:0401BC002D87649592
:0401BD002D412D851E
:0401BE002E14FBCD33
:0401BF001934BC0C27
:0401C0000AAA38FE51
:0401C10005231AF9FF
:0401C20002FF48D21E
:0401C300360DEAF318
:0401C40023FF5C1A9F
:0401C50031181C8849
:0401C6001AA16B8A85
:0401C7002686E98A15
:0401C8000428305681
:0401C90005CD6C3CB8
:0401CA002DBD2173B3
:0401CB002DC326F921
:0401CC0006D4EB80EA
:0401CD00181A9D78E7
:0401CE001483CF7552
:0401CF002B5BCAC913
:0401D0000B799DF218
:0401D1002722C59D7F
:0401D20038FE384E6D
:0401D3000084D93D8E
:0401D400349AFA77E8
:0401D50007FB04E13F
:0401D6002D029085E1
:0401D70030026096FC
:0401D8000EE09F474F
:0401D9000F0FEE2AEC
:0401DA001655FCE4D6
:0401DB003D998EA913
:0401DC003972D5940B
:0401DD000AA4B49824
:0401DE000416BC0740
:0401DF00241DF80ED5
:0401E0001B0DFFE70D
:0401E10017ED0D6B9E
:0401E200027381A47F
:0401E3003DE1587F23
:0401E4003E5E77D232
:0401E50001661FC2CE
:0401E6002B790D8DD7
:0401E7001FE8C3A9A1
:0401E800099CF71A5D
:0401E90022824FD847
:0401EA0003DFA73B4D
:0401EB0006A8D12071
:0401EC000C68E92F83
:0401ED00332E13BBDF
:0401EE00080DB6162C
:0401EF0019E11133CE
:0401F00005ECACD698
:0401F1002518AD1F01
:0401F2002DA3C7D49E
:0401F30005DD48ECF2
:0401F400223E6B1B21
:0401F5000137667FE9
:0401F6001840C6D017
:0401F7002B4BCFA11E
:0401F800286F4847DD
:0401F9000EDB68367B
:0401FA00328DBC94F2
:0401FB00043FF223A8
:0401FC0018FCF50CEA
:0401FD00395BBF5655
:0401FE003BE61B1CA5
:0401FF00304DE7DEBA
:0402000021661D4610
:0402010007208FB98A
:0402020039EA8AAF9C
:040203002ED135CCF7
:0402040022B6D5C683
:040205003BE6F1954E
:04020600095E133C3E
:04020700126E8CF0F7
:0402080004565964DB
:040209003D5E062A26
:04020A00155C71030B
:04020B00027AC9B0FA
:04020C001C00C167AA
:04020D002374170E31
:04020E002E8A4035BF
:04020F003C30181E49
:040210001AA06911B6
:040211002542FDB1D4
:040212000DF61309C9
:0402130024349CFBF8
:04021400367743FCFA
:040215000B99B6612A
:0402160010D636B117
:040217003EB3C4A589
:0402180012F0C552C9
:040219000AA20C3EEB
:04021A0038DC283E66
:04021B00349B763E5C
:04021C0005B5312FC4
:04021D0020C307AF44
:04021E00138ED1DF8B
:04021F001C00750F3B
:040220000EC26D4558
:04022100090133D7C5
:040222003DAD740F6B
:04022300338372545B
:040224000A28F7FDB0
:040225003B6C8BFDA6
:040226000DF96EFE62
:0402270032FA007A2D
:040228001A937B2F7B
:040229000C14761C1F
:04022A000A69F3CE9C
:04022B002F7B3427CA
:04022C00206DFE172C
:04022D000FB83E4088
:04022E00093E85619F
:04022F002D8C07CC3F
:0402300030E64A8FDB
:040231003720773AC1
:040232003EA25EEE9C
:0402330017E7941223
:040234000C9427BE41
:0402350029848C5C30
:0402360001CA7C84F9
:04023700120B3B5E0D
:0402380015ED59D790
:04023900285B89A70E
:04023A001440497CA7
:04023B001800653D05
:04023C00079036C928
:04023D00067AE9D183
:04023E003ABF8758E4
:04023F001A94CA81C2
:0402400030D6B404FC
:04024100108AB54D1D
:0402420030C7C225DA
:04024300210B91A555
:040244001D2E7EBF2E
:0402450028C39150E9
:040246003D4C2AD42D
:040247002BED729297
:040248000C6E873A77
:04024900260DBAA71D
:04024A00050CC8884F
:04024B0019CB69A9B9
:04024C000046D5F2A1
:04024D00146D7E5856
:04024E0038D65DB58C
:04024F001F93E18D8B
:040250003479067B7C
:040251000900AD589B
:0402520022B3DF3ABA
:0402530009C6CCAE5E
:0402540010729E9DE9
:0402550032E058E259
:040256001BF92CB4B0
:040257002D6E5DCFDC
:04025800091F98DD05
:0402590023BF88BB7C
:04025A0001A20A648F
:04025B00386E7F700A
:04025C0006D0C8748C
:04025D003E33AA661C
:04025E00228D9ECC83
:04025F0027B467D782
:040260002347429C52
:040261000BBCB68C90
:0402620010BA920E2E
:040263002275920F5F
:040264002D84DB37D3
:04026500353CC9005B
:040266000B2D5CE51B
:0402670007CDC6CF2A
:040268003E5AFF5AA1
:040269001607EA6D1D
:04026A001F6535C413
:04026B000EA1364961
:04026C001222CB731C
:04026D001D2EB26E22
:04026E0000924DB2FB
:04026F0021D64AC387
:040270002E7FA1CB71
:040271000AA072A4C9
:04027200100CCD930C
:040273001FD0BC8557
:0402740002A2E3659A
:04027500054CD9FB60
:040276000A52562DA5
:040277003BB6831FF0
:04027800247B18AD1E
:040279001621049EA8
:04027A0026E2D16344
:04027B00155542993A
:04027C0001562DC634
:04027D0039B6B6A434
:04027E002C7645A3F2
:04027F002B86B845CD
:04028000193C809F06
:0402810031428D2059
:040282000E5C7E840C
:040283002F1F736155
:040284001902BE6B32
:0402850001BB9BB46A
:0402860006E766150C
:040287002751CD032B
:040288000BE9A93C99
:0402890032D7DE0E7C
:04028A003B5176B1BD
:04028B002BFF5C7970
:04028C0014D2A9A43B
:04028D002FF37B5977
:04028E00171F5B6279
:04028F002919061F04
:04029000316DF2AA30
:040291002498F1DFDD
:0402920037B6EF2963
:040293002EFE6B616F
:0402940009B26E320B
:0402950005962AACF4
:040296002974D726CA
:04029700041B83DEE3
:0402980025A08038E5
:0402990025B6B2686C
:04029A002F50572268
:04029B001A4E12A540
:04029C002BA2903DC4
:04029D00119B061992
:04029E0039274B02AF
:04029F001288615907
:0402A0001A1DE02C17
:0402A1002F7AC413D9
:0402A20017EB6BE506
:0402A30025F7666A6B
:0402A40015EF3FF71C
:0402A50001B3EBD7DF
:0402A60038B81A0E3C
:0402A7001261D3B35A
:0402A8000B1DF2CF69
:0402A90003CE81B44B
:0402AA0030B6F33641
:0402AB002ED78EB705
:0402AC0006D34EE83F
:0402AD003708992055
:0402AE000D4AA9F953
:0402AF001750834C15
:0402B0001EAE88F204
:0402B100034B4DD5D9
:0402B2003C4DA66EAB
:0402B30023908DB750
:0402B4000D8A3995E1
:0402B500239CBC4387
:0402B6000A550F6472
:0402B7001EAC639086
:0402B8002A69B4F803
:0402B90011E0A37439
:0402BA001B765DA1B1
:0402BB002B312B8236
:0402BC003A7CC75E63
:0402BD0002C61E1D3A
:0402BE001B9175D14A
:0402BF0021A1BDDBE1
:0402C0001B32578412
:0402C10033B8BAF59F
:0402C2002045D441BE
:0402C30028A6F3F581
:0402C40017E9E750FF
:0402C50019CDBA672E
:0402C6001039EC37C8
:0402C70016BFDD1071
:0402C800314FC0D81A
:0402C9003139E74799
:0402CA001C71399CCE
:0402CB003B823541FC
:0402CC001A660D643D
:0402CD003EF088D7A0
:0402CE0034F50D1ED8
:0402CF003ABDBA83F7
:0402D000376146CD7F
:0402D100297358F73E
:0402D2002748249FF6
:0402D300199796954C
:0402D400230B736520
:0402D5000BCB4014FB
:0402D60032945D59A8
:0402D7002D3DED8B41
:0402D800256AA2E908
:0402D90032EACECA6D
:0402DA000F6C3AA8C3
:0402DB000690EADAC5
:0402DC000E7A34075B
:0402DD000F4E8A6FC7
:0402DE001662A629D5
:0402DF00061B544B5B
:0402E00025270F902F
:0402E10014F31C8D69
:0402E2003DA3F3CF76
:0402E30013DEE9B984
:0402E4000656BE02FA
:0402E5003B8F989122
:0402E6003252897196
:0402E7003504CE58B4
:0402E80029C145D013
:0402E9001BD665D2E9
:0402EA00147E60BE60
:0402EB0022D0538941
:0402EC0021A65F7474
:0402ED0032B528E41A
:0402EE00059FD80B85
:0402EF000893159CBF
:0402F0002D14FACC03
:0402F10004A529AA8D
:0402F2001AC77408AB
:0402F30026142F237B
:0402F4002C5352DF56
:0402F5003CE7C88F8B
:0402F600042151B5D9
:0402F700120F8E2331
:0402F8000D48A90400
:0402F90014C42AD827
:0402FA001D29BC8F6F
:0402FB0027C8BFFD54
:0402FC000507F9B247
:0402FD002F421499DF
:0402FE0032DAB7DC5D
:0402FF0007BF5715C9
:040300001A5B0CCEAA
:0403010024F0651867
:0403020038A4D01F2C
:040303001F9665825A
:040304000CFFA1CF7A
:0403050018761BC982
:0403060004BAB21271
:04030700171105DEE7
:040308000BF393BCA4
:040309001DA80D44DA
:04030A00367F610ECB
:04030B001A8DE1C0A6
:04030C003B89C489DC
:04030D0036FDAB7698
:04030E003EB236EADB
:04030F00003810841E
:0403100016BC33875D
:040311000106195870
:040312003A54B4C0E5
:040313002B54AA4D70
:0403140015200BECB9
:0403150034894B9844
:040316003A0AD53F8B
:040317000A6BA78145
:0403180028906A249B
:04031900064FF8187B
:04031A001416E5C907
:04031B0015747B10CA
:04031C002BAC2A32AA
:04031D00294D669769
:04031E002FE58D1822
:04031F0028D30EECE5
:04032000235BC9BFD3
:040321002FF3AECD3B
:0403220022BCA51A3A
:040323002B0B025A44
:04032400366476EDD8
:04032500020D73E86A
:040326002EC991C289
:04032700173C43AC90
:04032800198B247495
:040329001CDE22278D
:04032A0004533D9AA1
:04032B0006F72907A1
:04032C002433CDD5D4
:04032D00186B590AE6
:04032E0025A9A40D4C
:04032F00013E9D6E80
:0403300004B2A36D03
:0403310028CC3AACEE
:04033200270F65AA82
:0403330020CC45E5B0
:0403340039D81FD1C4
:040335001B763E9164
:0403360020F7C85A8A
:0403370035AE0C6C67
:040338000FA624B731
:040339002F41B5BCDF
:04033A003DC1DBD016
:04033B003573E5E34E
:04033C00203627251B
:04033D003764199D6B
:04033E0028CA9574C0
:04033F001D03CDC508
:0403400004592948EB
:0403410005A57ADEB6
:040342003EA6BDA274
:040343002B941905D9
:040344002DA7F05F92
:040345002F2D8B10BD
:0403460033196D12E8
:0403470002427558A1
:040348003DDFFBCDCD
:040349000EFFED397D
:04034A002D667E930B
:04034B00192A5A39D8
:04034C0015666B0CBB
:04034D000E57D379FB
:04034E0022B16DA4C7
:04034F001A794DD4F6
:040350000C76ADBDBD
:040351000DFCF1644A
:04035200144F457986
:040353001026484ADE
:04035400010342CA95
:0403550037FC0FAAB8
:0403560012C7483F43
:040357003CEDE6B4DF
:040358003D8C69B2BD
:040359000942408491
:04035A002D873FE2CA
:04035B001450B78003
:04035C003C575117A2
:04035D0007FFAA17D5
:04035E001F2181AD2D
:04035F00330B4552C5
:040360002F9924E4C9
:0403610007B109A433
:0403620002F899C341
:040363000DAE2A2C85
:0403640014A1088850
:040365000EEDA57D77
:04036600383BC6A0BA
:040367000970B26601
:04036800270964AB52
:04036900171C19D470
:04036A0010D5FB822D
:04036B00301993169C
:04036C00034DA1F8A4
:04036D00308BE4CC21
:04036E0011CEBD945B
:04036F002E8F546712
:040370002844C50C4C
:04037100272C5524BC
:0403720028E509DA97
:040373002C79F2945B
:0403740015FC02D999
:04037500175FB180DD
:0403760038A6F28132
:04037700085502B46F
:0403780032C77038E0
:0403790030C1E89512
:04037A0015B3F3A61E
:04037B0033F08E6667
:04037C0038A254F45B
:04037D001A10177DBE
:04037E001772A35FF0
:04037F0013C84FD47C
:040380002751B2014E
:0403810023D67E3AC7
:0403820035CA3C2814
:0403830031528F7DE7
:0403840016CE46C883
:040385003D296A1094
:0403860006D03AACB7
:0403870005C76F1522
:0403880009D287D53A
:04038900187AEE04EC
:04038A0012872F3C6B
:04038B000F60F51AF0
:04038C00023572AD17
:04038D002F25613A7D
:04038E002709F0212A
:04038F002D11367E78
:040390002F521BD1FC
:040391001BA38C1D01
:040392000769CD2DFD
:040393001188626DFE
:0403940023F3A7C9DF
:040395000610094203
:04039600022AEC4CFF
:040397003B270A0EE8
:0403980015A680C85E
:040399002C2E6ACECE
:04039A0009825790ED
:04039B001143A55114
:04039C002095686CD4
:04039D00146EF404E2
:04039E002344CE3EE8
:04039F00229D33B6B2
:0403A0000E57631D74
:0403A1001DA353DA6B
:0403A20016B4391044
:0403A30016BC8F04F1
:0403A4001F949A44C4
:0403A5000F454ACFE7
:0403A6000877604232
:0403A7002F419158F9
:0403A80028060C59BE
:0403A9001F8A36EA87
:0403AA003AC2E01261
:0403AB002E0DBFAAAA
:0403AC002DB592F2E7
:0403AD00239B66C860
:0403AE00383E49622A
:0403AF0013AE2476EF
:0403B0001D456BC3B9
:0403B1000F301C519C
:0403B2003713C69E99
:0403B3000C63B4E340
:0403B4003BA56B25D5
:0403B5001804BC323A
:0403B600266F2FEB94
:0403B7003467F9B8F6
:0403B8002FAE0FADA8
:0403B90002350808F9
:0403BA0030D98E3078
:0403BB00096FA32AF9
:0403BC0005A2503E08
:0403BD000197AFEA0B
:0403BE0027DFE7E26C
:0403BF0012CA38B373
:0403C00026FC3C6675
:0403C1000F840B8A10
:0403C2001D62BAE41A
:0403C30033AA152F15
:0403C400098643BCA7
:0403C5003391079DCC
:0403C60023E60CE539
:0403C7000035297262
:0403C8001B5E8249ED
:0403C90008F2849220
:0403CA0001A89A3FAD
:0403CB001957194263
:0403CC00045E429DEC
:0403CD000D94BB626E
:0403CE0017DF660BC4
:0403CF003B00D7DB3D
:0403D00009B37A658E
:0403D1003748D27B5C
:0403D200275584E146
:0403D300340ED90B00
:0403D40012EB06B56D
:0403D5003C0B325853
:0403D6000308F7C35E
:0403D7002BDC89256D
:0403D80016D47C8B30
:0403D900185CADF30C
:0403DA001840223570
:0403DB00165FEA447B
:0403DC000C1799B8A9
:0403DD0011B967A645
:0403DE0003EB03B179
:0403DF003A77503CDD
:0403E00030A99005AB
:0403E1000770097D1B
:0403E2002F3031DCAB
:0403E300186C451A33
:0403E4000D5EDF408B
:0403E50008A3B5BAFA
:0403E6003CA9C85115
:0403E7000470E62F89
:0403E800010C34C010
:0403E900336F8BB033
:0403EA000A5D6F0831
:0403EB003C7190D4FD
:0403EC0005AF09EC64
:0403ED0003622EDC9D
:0403EE00380EBDBE4A
:0403EF0026158472D9
:0403F0001C830D213C
:0403F1003100C5FB17
:0403F200364687E51F
:0403F30013D062E4DD
:0403F400094B99D246
:0403F5002CD73EB60D
:0403F6001C46C3BF1F
:0403F700268F1CE24F
:0403F8000B5D718D9B
:0403F9001B67450534
:0403FA003BCDFAC736
:0403FB0015F31F8750
:0403FC0016FC645730
:0403FD000612BD9592
:0403FE0005384FCDA2
:0403FF003C769F5257
:040400003ED1EB17E7
:04040100061D8056FE
:040402001C29AFD032
:040403002587D08FEA
:0404040024E844FDA7
:0404050039FC382264
:040406001C371B7C08
:040407001CBAFC8A95
:040408003A9FD64DF4
:040409000A2FC829C5
:04040A002AD9C1F535
:04040B001DB3647148
:04040C00184D36CA87
:04040D0013F0E4FA0A
:04040E00047A315FDC
:04040F0021D979F680
:04041000106233E75C
:0404110024E8E643B2
:0404120031DF854E03
:0404130021713F53C1
:0404140022D4922834
:04041500379FB5B8A0
:040416001FE4D9B551
:040417002702899B94
:0404180028886F952C
:04041900322A95E707
:04041A001AA561A915
:04041B000D9428789C
:04041C001E80C0245A
:04041D001FBC68F4A4
:04041E003C8E02B25C
:04041F000A9287387E
:040420000CF49A0638
:0404210010EED76F93
:0404220024DEA49997
:04042300325A19EE42
:0404240018CDE7AB5D
:0404250015FB240996
:040426002DD1A32C05
:04042700168C2D0AF8
:040428003B4169AF3C
:040429002161369384
:04042A003EDCF81D9F
:04042B000C438220DC
:04042C00378AAC134C
:04042D001FA7CBDE5C
:04042E00151B3F213A
:04042F000DEBB69487
:0404300016FCD54998
:040431002DE8DC874F
:0404320034B238D6D2
:04043300127EAD6F19
:04043400306B682899
:0404350035AF602B54
:040436002105D13B90
:040437002CBDD27294
:040438000784939D05
:040439002EB1AACC6A
:04043A0013C15F8209
:04043B001806947299
:04043C00024EC62383
:04043D002BC6B72BE8
:04043E0006C2F2EB15
:04043F00381CB24073
:04044000298230E1FC
:0404410005CF30C0F3
:040442002A23B82988
:040443003AB886A39A
:040444003AA9E99B4D
:040445002178BA77E9
:0404460017FA894DCB
:040447000B673C38CB
:04044800216E85306C
:040449001338E70B72
:04044A0029608A9B00
:04044B002DB68F0734
:04044C002D6957DBE4
:04044D000802C55F7D
:04044E002ACB8D8B9D
:04044F0030B2EC4596
:040450002888C61121
:040451003A3BF50C31
:040452001DB4910B39
:0404530020C82ED1BE
:040454003CDBD37743
:040455003231BCF58F
:04045600223C4C33C5
:0404570010BF4E483C
:040458001FB405FDCB
:0404590039A08F3BFC
:04045A002A66705A44
:04045B0003400D430A
:04045C0001B6830E54
:04045D00278C2B9528
:04045E0022A2C6E927
:04045F00167A81B1D7
:040460003B09AAF6B4
:040461001B5E0FF718
:0404620014FC079DE2
:0404630016E4A3CA2E
:04046400307E72F87C
:040465000B47327C93
:040466001D15A9E3D4
:040467001C282E9986
:0404680035F82DB086
:040469000A57039299
:04046A000F44EF76D6
:04046B002726A3237A
:04046C00285B19BF31
:04046D002C9CC30BF5
:04046E00062CCF1475
:04046F002E380465BA
:040470001A8A803F25
:040471002AF0FD0C64
:040472003B8889BC7E
:040473003C049CEFBA
:040474002764A7F65C
:0404750004BF5BA7BE
:04047600277327B70A
:0404770004C8560F50
:040478003218D98CD1
:040479002774697EFD
:04047A0019FF64847E
:04047B001D98DE13D7
:04047C000CAE73EC63
:04047D002F49F33BD5
:04047E000E374D5E8A
:04047F0004EE0EE495
:0404800030B48126ED
:040481003766868DC7
:04048200193985049B
:040483001A4B088781
:0404840003082597AD
:0404850032F4AC9110
:040486003492DB3D94
:040487003D7E74A0A2
:040488000CBE84E53D
:040489001032A26724
:04048A00165812B43A
:04048B0034D4DC0188
:04048C0006668F0F62
:04048D00021BD80571
:04048E000F8D70114D
:04048F0009C6CA844C
:040490001D09E7BD9E
:040491002B19124CC5
:04049200159DEBBF0A
:0404930021A45DA0A3
:0404940033DD1AB288
:040495003336961054
:040496003B710A4567
:04049700108C7A5AF1
:040498001F9C491547
:040499002249AC5AEE
:04049A002C823DE58E
:04049B001590027442
:04049C001263700077
:04049D0019C3F494F7
:04049E0014A93D0E52
:04049F0015A343005E
:0404A000398610BFCA
:0404A10034E2D41B52
:0404A20015A68E4EBF
:0404A3002DF8CD481B
:0404A40035921E86E9
:0404A50021CCA0E6E0
:0404A6002B4930446A
:0404A70018C52C83C5
:0404A80011F656E40F
:0404A9003DDBF958E6
:0404AA001E90FA1A8C
:0404AB0023DD61F4F8
:0404AC0029E113E54A
:0404AD000259D83DDB
:0404AE002484E5A01D
:0404AF00231DC97EC2
:0404B0001B6AC84BB0
:0404B100355F1E8312
:0404B200247DC6A23D
:0404B3000C71635015
:0404B40038691FC1C3
:0404B50010858381AA
:0404B600368595F3FF
:0404B700156598E44B
:0404B80007409ADF80
:0404B90025E55DF1E7
:0404BA003C3DE7B02E
:0404BB00010ADAD385
:0404BC0028028A1870
:0404BD001972DEB51D
:0404BE001C5595D460
:0404BF0029BF146FCE
:0404C0002069074662
:0404C1001F8FEFE8B2
:0404C2002B6B4B163F
:0404C3001D6F91FB1D
:0404C40015023AAB38
:0404C5001358EE9644
:0404C60033A79012B6
:0404C7001C38421388
:0404C8003017823F28
:0404C9003EEE2E7362
:0404CA002B966EC738
:0404CB0029F8A36603
:0404CC001EB37DAA34
:0404CD0022359E3501
:0404CE002F3B44F884
:0404CF002EC3C41B59
:0404D0003D7CE57C0E
:0404D1002E54012183
:0404D2000F0C34A532
:0404D300027D10781E
:0404D4001363800D21
:0404D50032645D3DF3
:0404D6000B1EBDAB91
:0404D700179298D709
:0404D8002332646304
:0404D90009D3B60588
:0404DA002976E9C1D5
:0404DB0029BB58D809
:0404DC0003033BD704
:0404DD000B3C045B75
:0404DE0009D284E4D7
:0404DF0012A25943C9
:0404E000188CDCB2E6
:0404E100033729C0F4
:0404E20011AB5D2CD1
:0404E3002E79BEFAB6
:0404E40038FD790264
:0404E5003E9AC16A10
:0404E60009406E8DCE
:0404E7000B715196AE
:0404E8000A6404831B
:0404E9001738C28777
:0404EA0013D146A53F
:0404EB00031C3A04B0
:0404EC000D0D246C62
:0404ED003EADBFA6BB
:0404EE0033649F08CC
:0404EF001A664C84B9
:0404F000391C4DB5B1
:0404F1000126E9DC1B
:0404F200069A7912DB
:0404F30015736077A6
:0404F4001EEB412D8D
:0404F500255D17E783
:0404F6002DDB0A0CE4
:0404F7002C107A4704
:0404F8001FA7F1B594
:0404F900120A7780EC
:0404FA000E37E69C37
:0404FB002E801FA987
:0404FC001FA84AEEFD
:0404FD001B7417B1A4
:0404FE00297103A4B9
:0404FF003AA137F8EF
:040500002D722C9498
:0405010005CFA69BE1
:0405020000AB210326
:040503001E6A6CB44C
:040504002DC7B43B10
:040505000E55EB3D67
:04050600244A927F72
:040507002EC1B44D00
:040508001F6FE17709
:040509003DE97995BA
:04050A0014FF416435
:04050B0017C0DAA19A
:04050C0034C8F69B5E
:04050D00229265A62B
:04050E00195E6C6E98
:04050F0008BDBB76F2
:040510002B3F52E348
:0405110003B6E15BF1
:040512000A62CE1A91
:04051300094BB1A936
:040514001FD88B4B16
:0405150006E553CDD7
:0405160035AF429229
:040517002EC87AF67A
:0405180036BF2A2B95
:04051900041F70B299
:04051A002AE0C99179
:04051B003BC13A6145
:04051C000BBD324899
:04051D0015FAFB6C64
:04051E002FF8B8CE2C
:04051F002A0F87BF59
:0405200022A4B22F30
:040521002085F273CC
:0405220008886512CE
:040523000F464F7DB3
:040524003495C5EC59
:04052500137845A65C
:0405260035F3E15177
:04052700035A01284A
:040528001C88B86211
:040529000685FFD470
:04052A003B6E0128FB
:04052B002893374298
:04052C000CA5BACE92
:04052D001238BD249F
:04052E003D745D4576
:04052F002E3783716F
:04053000246C266AA7
:040531000F71DD86E3
:04053200351E55D04D
:04053300322EA2AC16
:040534001F5315E557
:040535000B88A9C9BD
:040536003C727BC8D0
:040537002BFECABA13
:04053800061BE50DAC
:0405390024055094B1
:04053A003AA70DAC23
:04053B00223B9425A6
:04053C0034D61A0097
:04053D003C129AFAD8
:04053E002CA037A115
:04053F002F3BD80571
:040540000A7804CF62
:040541001DB00E7269
:040542000D4430B084
:040543001D052AE484
:040544000B812843BC
:0405450009C6DBD92F
:0405460005086BB782
:0405470018EC3CFD73
:0405480015097B61B5
:04054900219B9C1640
:04054A00314AA4C4CA
:04054B002F0A13BAA6
:04054C0018D7DABF23
:04054D00155AFADD64
:04054E000FE8CFD70C
:04054F002F59963A50
:0405500012C39150F1
:04055100174EFC8CB9
:04055200032BFD106A
:040553002BAB4F1966
:040554003C17A1E6C9
:040555002FD4C1B925
:040556001FD916D9BA
:0405570006B6485448
:0405580032DCCC8540
:0405590006236717F7
:04055A003B5E13C42D
:04055B00285D31B72F
:04055C001E5875466A
:04055D0007A906588C
:04055E000E3CFF2F21
:04055F0031C04F4513
:040560003436DD66EA
:04056100309BD41DDA
:04056200015BB5572D
:040563002FD4F4039A
:040564001DC6A83FC9
:04056500026D64D4EB
:040566001714DB96F5
:040567001C38827248
:040568000CF65C50E1
:0405690013B2275C46
:04056A001646773F7B
:04056B002E508A572D
:04056C00160ADAE3AE
:04056D00025BDD73DD
:04056E0031C7A0F001
:04056F000518AF6A52
:04057000235C6CEEAE
:04057100255D4A3783
:0405720016819169F4
:040573001F73F130D1
:040574001E503D8D4B
:040575002840427464
:040576002F98800238
:040577001229C5AED2
:0405780014B012AEFB
:040579001D0805193B
:04057A0003F78713E9
:04057B003097F19133
:04057C002CB8E5278B
:04057D000452AD85F2
:04057E0037C49C0AD8
:04057F003EC2B63989
:040580003003E667F7
:0405810027DCE5820C
:04058200020530E05E
:040583003261373179
:040584000CC35D58EF
:04058500338E0E970C
:040586001E30619230
:040587001A930E199C
:0405880039C48D994C
:04058900131787BB02
:04058A000E2CE86FDC
:04058B0004E2C96F4E
:04058C00322509D536
:04058D0000E681CA39
:04058E002BAC929C64
:04058F001205C9D9AF
:0405900028D6E8A4DD
:04059100097CB2AE81
:0405920025739945EF
:0405930014529A76EE
:040594003C8DFDD9C4
:040595002323CD3817
:040596002D8AE36B5C
:04059700255C67A9CF
:0405980029F21A7CAE
:04059900197F72D282
:04059A0024D4120251
:04059B0002772E6253
:04059C0000CE785CB9
:04059D0024D4A83585
:04059E000474808BD6
:04059F0004DFBD2890
:0405A0003212114EB4
:0405A1002394461346
:0405A2002FA396AE3F
:0405A30011BB4F8AAF
:0405A4003E83C75675
:0405A500375C6668F1
:0405A60028BA3640F9
:0405A700149C1C89FB
:0405A8001EC8E986FA
:0405A900035CED41C1
:0405AA00191C815E39
:0405AB00071F55B120
:0405AC001981080B9E
:0405AD003677E9FFB5
:0405AE000F3F41B604
:0405AF00315315E4CB
:0405B00008F403BF89
:0405B1000A44A61042
:0405B20014B5A0F2EA
:0405B3000DD0E3CCB8
:0405B400368186BD49
:0405B5003CB3CF2F55
:0405B6002F93FA7213
:0405B7000E143CD50D
:0405B8000332BD2825
:0405B9000EB56847CC
:0405BA0039CF51A044
:0405BB0013651BE7C2
:0405BC000097F4A709
:0405BD0033235ED1B5
:0405BE002DFBB11947
:0405BF000BF26B765A
:0405C0003AF682FE87
:0405C1001D22FFBD3B
:0405C2003884D8158C
:0405C30013C2F2A9C4
:0405C400201D8D6CFD
:0405C50024F8FC8694
:0405C60002C906D789
:0405C7001E930CABC8
:0405C8002DFB9CFC6F
:0405C9002A21E38080
:0405CA000FC41A3B05
:0405CB003DC899642A
:0405CC002966DEB30B
:0405CD00151D442094
:0405CE0001D5A3337D
:0405CF003ACD291DDB
:0405D00034E1A96306
:0405D1000408C58FC6
:0405D20031C8E874D0
:0405D3000BCAFA96BF
:0405D4002BAB93AC0E
:0405D500324AC9E6F7
:0405D6002B92BAF3B7
:0405D700322907C3FB
:0405D80021F3DC73BC
:0405D9000DFA219165
:0405DA002F3A89AC7F
:0405DB0003BDA68036
:0405DC001853F4FEBE
:0405DD0007357CE37F
:0405DE0002380EA32E
:0405DF0022A402E769
:0405E00025CC67803F
:0405E1001A61D8744F
:0405E20021F42B983D
:0405E3002A3E9C4FC1
:0405E40002C3CA1C68
:0405E5002CB0A9424B
:0405E6002E2EE3A72B
:0405E7003C093FC3C9
:0405E8002FC9EA8F9E
:0405E90038BB034ECA
:0405EA0031F0DFCC41
:0405EB002F665FC751
:0405EC000080B05883
:0405ED000F9C4ED53C
:0405EE00350EB6C24E
:0405EF001933F209C1
:0405F0000878E1A204
:0405F1002AD7C4FC45
:0405F2003E2A623DFE
:0405F300378474389D
:0405F4001136B30009
:0405F50021E1203EA2
:0405F6000750B0C436
:0405F700094FD202D4
:0405F80013E8D743EA
:0405F9003BC382D6A8
:0405FA001884A3833B
:0405FB0027C281F89A
:0405FC002D522FBB92
:0405FD002E0F13B4F6
:0405FE00118142091C
:0405FF001775EDA0DF
:04060000311FF8E2CC
:040601002E007C58F3
:04060200069896B50B
:040603000DE533D8F6
:040604000BD61F856D
:0406050023F5C3F125
:040606001F4F6572AB
:0406070006339245DF
:0406080007311A1A82
:0406090004B432956E
:04060A0037FF626BE9
:04060B000DAB6507C7
:04060C00314A1B5004
:04060D001C67462AF6
:04060E000FAB50F4EA
:04060F0012D802F407
:0406100016BCBCD583
:040611001C7AD11F5F
:0406120024485746DB
:040613002E50CBF7A3
:040614000D7D1C2517
:0406150030E0BB56C0
:040616001A205CE862
:040617002FC148D5D2
:040618000D30AF7280
:0406190023FE658CCB
:04061A001B5CC27A29
:04061B0034ACE41106
:04061C000612D2BA36
:04061D002E531E47F3
:04061E0034209226CC
:04061F003C06C39240
:040620001AD9A80437
:040621000AFD4399F2
:040622002D360B4D19
:040623000D72169CA2
:040624000DB5B3BCA1
:040625000E8636DB2C
:040626001F69275CC5
:04062700264CDCC1C0
:04062800053FCD9726
:04062900261128A4CA
:04062A00163559FF29
:04062B0023A9FF7987
:04062C0016CD8FC98F
:04062D0031439B407A
:04062E002F66188B90
:04062F0001007B2F1C
:0406300033E83FFF6D
:0406310018FFD3CD0E
:040632000EF48395AA
:04063300398BB47FCC
:04063400359C6FCAB8
:0406350025919FC0AC
:040636001D58F4A0B7
:040637002F874DA913
:0406380031CA584625
:040639000D21899274
:04063A0005AB63F7B2
:04063B002C13363313
:04063C002054CB3E3D
:04063D00263FDE3A3C
:04063E00099EF10A16
:04063F001256E56EFC
:040640000BFCAD9F63
:04064100116844A652
:040642003CED266CF9
:0406430009C9F749A1
:0406440000C8DF5BB0
:04064500090B940207
:040646002B4D5C6577
:0406470016086F79A9
:04064800143361B056
:040649000F035ADF62
:04064A0018C121872B
:04064B003D51D11537
:04064C0006E5B3A369
:04064D0009D7FE3695
:04064E0001D8943308
:04064F002C21EA056B
:040650001674337B6E
:04065100205C1F5EAC
:040652003AE669B368
:04065300397D3A941F
:040654002CDAB2F5F5
:040655001F87DE2DF0
:040656001D17FE5816
:0406570028738E81F5
:040658001B5C867F22
:0406590005E207A807
:04065A0015ABAD6AC5
:04065B0003ECE47454
:04065C0008BBD52AD8
:04065D003107E4F28B
:04065E000751CF1C55
:04065F0035024C9F75
:0406600004CE434140
:040661003A254D33B6
:040662000A33852EA4
:0406630021B2295344
:040664002DD8DB0BA7
:040665002174784D37
:040666002687F527C7
:040667001312D2FD9B
:0406680016F145B38F
:040669003E6A873B23
:04066A0017DC87858D
:04066B0031998646F5
:04066C002D9E04B704
:04066D002F95F5854B
:04066E0004EF6BC763
:04066F0010C2E4775A
:0406700010DC5F6CCF
:040671001210D35838
:04067200065C50854D
:040673003E26882374
:04067400331BD9D685
:0406750010CA592826
:040676002441F4E146
:0406770032AFD68345
:040678001ACDFDE3B7
:0406790026B6D19F31
:04067A00209663E67D
:04067B002CAC12F79A
:04067C0017BB7FF534
:04067D000EEB256BF0
:04067E003DF480AF18
:04067F0032EA7FBB21
:04068000231345CB30
:040681003E7A4B4131
:04068200317ABAC946
:0406830038E374F8EC
:040684003432B665F1
:040685003A5AA9C173
:040686002E6939AEF2
:040687003DC426C583
:040688000089D38191
:040689001660AED475
:04068A0012418DF29A
:04068B003A68A129FF
:04068C00003CB7ED8A
:04068D003ACD4C8393
:04068E001ED4CC4862
:04068F002A9CD67B50
:040690001074CD5BBA
:040691000FB9A03CC1
:04069200289DE25766
:040693003584B0FEFC
:040694001E753B9AFA
:040695001F7AEFB524
:040696002019719C1A
:04069700382A9B0260
:04069800075D2E4686
:040699002B9F9BD325
:04069A002E3A501F85
:04069B003E1FF9C243
:04069C000117C7E19A
:04069D003D5F1EDFC0
:04069E003257D8C334
:04069F00067145EAB1
:0406A0003B4573362D
:0406A10015EA017DD8
:0406A2003A41F3F4F2
:0406A30010171120FB
:0406A4003223802C51
:0406A5000224A91C66
:0406A60024FD648C3F
:0406A7003DE3A05639
:0406A80005C49BF0FA
:0406A9001C8DAED323
:0406AA001046EEB751
:0406AB00208B94E12B
:0406AC000B7BE0A93B
:0406AD00267ED122B2
:0406AE0024DB383CD5
:0406AF00063C261EC1
:0406B000195278FF64
:0406B1001B6A35503B
:0406B20019D5BFB4E3
:0406B3002B4FACE736
:0406B4003DD9EA152D
:0406B5002AD2384DC0
:0406B60039F25E4176
:0406B70029204B4764
:0406B8003A0EDBBF5C
:0406B900082857CAEC
:0406BA001E88729A8A
:0406BB002FF6323CA8
:0406BC001DADCB3075
:0406BD002291E2F4B0
:0406BE002AA8A71DA2
:0406BF000C7DB0BF3F
:0406C000029E23F87B
:0406C1002F5B3FACC0
:0406C20020DC6D1BB0
:0406C300137073E25B
:0406C4003A76C73B80
:0406C5001F812CCF96
:0406C600261199E779
:0406C7003A28717CE0
:0406C8000236AD0C3D
:0406C9003664D26061
:0406CA00051A5AE2D1
:0406CB0026983BCD65
:0406CC001C43E9AC36
:0406CD0033762FE170
:0406CE001E4FB17F8B
:0406CF003592CEA6EC
:0406D0001228C2A189
:0406D100288473AB5B
:0406D2000D57DC558F
:0406D30020E63205E6
:0406D400362BD35C92
:0406D5000F9CFFADCA
:0406D6000E984F73B8
:0406D7003CEF5F5E37
:0406D8001F3583E95E
:0406D9003DB1FE71C0
:0406DA00185E9637D9
:0406DB003940454F0E
:0406DC000BFAA7026C
:0406DD00315C0C5D23
:0406DE0020F0744252
:0406DF0004A8C8E7BC
:0406E00028A2FE65E9
:0406E1000E038E93E3
:0406E2002A62400E3A
:0406E3002B31ED5278
:0406E4002A75FF90E4
:0406E50036F13CC6E8
:0406E6003139F9B4F9
:0406E70012FC94026B
:0406E80009933071D1
:0406E9002A375BE46D
:0406EA0005E51F30D3
:0406EB00256BFEB2CB
:0406EC000B8409B2C0
:0406ED0035657A3BBA
:0406EE00102D10B902
:0406EF0033833EEF24
:0406F00027CE1530CC
:0406F100052D71C89A
:0406F2002B9F82AC0C
:0406F300365B356FCE
:0406F4002E0DA2B471
:0406F50010AA56C130
:0406F60012CDABFE78
:0406F70019F6443478
:0406F80032D13AF8C9
:0406F9000BCC85A100
:0406FA002E6E1C5BE9
:0406FB00067ACE307D
:0406FC003052E63B57
:0406FD001DCBCCB98C
:0406FE003E5D824299
:0406FF0017737246B5
:0407000034DA2421A2
:04070100063C0F059E
:04070200392F99589A
:040703001000299821
:040704000857C93F8A
:040705000BEFB16BDA
:040706001536AFBE37
:040707002C8D3E45B2
:040708003227808193
:040709001AAC7F4D5A
:04070A0003E1269948
:04070B003DE4B5AB69
:04070C000D3DA88F68
:04070D0023294FEA63
:04070E00128970D20A
:04070F00009EB9404F
:0407100039CE1A7F45
:040711001C4A9413D7
:0407120025170F6038
:0407130014C2862561
:0407140013BB70EAB9
:040715001A28CCD002
:040716002DA1429D32
:0407170035CB1D6958
:040718002DDCB34BD6
:0407190012A12B5BA3
:04071A00041C688DC6
:04071B0006073D127E
:04071C002073EFBE99
:04071D0026FB6878D7
:04071E002C341F80D8
:04071F0035F29CC94A
:0407200039F20DAEEF
:040721003369349A6A
:040722002BBC10419B
:04072300369ED9B86D
:0407240000E3AC7CC6
:0407250027F72BB8CF
:040726000B25E85D5A
:04072700006EC21F7F
:04072800194F10A8AD
:040729002DD131B2EB
:04072A00183846DD58
:04072B00209A2A02E4
:04072C0000D11C35A7
:04072D000B66997F3F
:04072E00035FCF1B7B
:04072F00239C4225A0
:04073000302EF1B1C5
:0407310009559B27A4
:040732002C0769F631
:040733002D480E82BD
:0407340020D3927EBE
:04073500110A172767
:040736001F73C5E088
:040737003AA0AC1523
:0407380000BB9B87E0
:040739003521C6821E
:04073A0022162D3A1C
:04073B003778762471
:04073C0021B6CF38DB
:04073D000993D23614
:04073E0037FEFF592A
:04073F002246120E2E
:040740002EE94566F3
:040741002AB3C344D0
:040742002AAFE5B243
:0407430026E9185239
:040744000B7879B203
:0407450005062B87F3
:040746001D7FCCD275
:040747000E573B66A8
:0407480022BF3E305E
:040749003ADBC82EA1
:04074A0019164696A0
:04074B00239E4C0D90
:04074C0011C2283975
:04074D002055EC0443
:04074E00111DF35432
:04074F0036DA4EF157
:040750001CDBF6E0D8
:040751000AE8003F73
:040752000C3B53C544
:040753001609E8A8F3
:040754003571C8280B
:04075500134E423BC2
:04075600216C65B9F4
:0407570006A1E8A26D
:0407580005E6B453AB
:04075900072450CE53
:04075A000CD97C2F0B
:04075B0019F68E3FBE
:04075C0032CC9313F5
:04075D0025A79159E2
:04075E0014CAC79959
:04075F00008B19C230
:04076000099740D2E3
:040761002C8906EAEF
:040762002BE003C0C5
:040763002DEA49CB67
:040764002B700D8267
:04076500068BFEF70A
:0407660038F9F3E883
:040767001C86AC51EF
:040768000E823B6A58
:0407690025C1CE1CBC
:04076A000D1021BA93
:04076B0016CAECCAF4
:04076C00393C92BBC7
:04076D0012CE4991CE
:04076E000751EBB78D
:04076F003A6EF65395
:040770000B774D7B3B
:0407710036C30DF28C
:04077200089CB21C11
:040773003A879A9E89
:0407740004FBBD4F76
:04077500348FE3C515
:040776001DB0850E1F
:040777000B828174FC
:040778003A35C281CB
:0407790028F540829D
:04077A001A3B72595B
:04077B002BF14825F1
:04077C00027D89254C
:04077D003E3686D6A8
:04077E0030976D64DF
:04077F0034366EF9A5
:0407800013CCFE8810
:0407810022C5C37555
:0407820003E26B48DB
:040783001A6AE7ED1A
:040784001EB1780327
:040785000C60CA88B2
:0407860037A90DA5DD
:04078700372451873B
:040788002B9B24067D
:040789003000EE68E6
:04078A000E8957B3CA
:04078B001EB73B3228
:04078C0020C2FFD6B2
:04078D003BFD1C34E0
:04078E0037F189E3D3
:04078F0033619A3503
:040790003CB4DD3B5D
:04079100199A6095BC
:0407920025B16C9B86
:040793002EEA1ED15B
:04079400258CAC62A2
:040795001ECE0C4D1B
:0407960000376222A4
:040797001EF77D4884
:040798002383C123D3
:040799002900FFEC48
:04079A0025E2769945
:04079B003D3D00D709
:04079C000129D1ED71
:04079D000AB8FFE0B7
:04079E0005F7F7B1B3
:04079F002E4D72A5C4
:0407A0001D4BCFD846
:0407A100350E3F567C
:0407A20008F4527194
:0407A300250EB674F5
:0407A4003E60C72FBD
:0407A5002948AF052B
:0407A6002A6DFA714D
:0407A70035A2D9D4CA
:0407A800333BF72BBD
:0407A9001246992A31
:0407AA0001D5510C18
:0407AB00357D60B781
:0407AC000B846B93BC
:0407AD000C71F5ECEA
:0407AE000B8B481851
:0407AF001A195B11A7
:0407B00025C7F791D1
:0407B100017AF9616F
:0407B20003F56AB829
:0407B3002EC86AAB37
:0407B40011033EB03F
:0407B50033F298E1A2
:0407B600282515A835
:0407B700027B0F6949
:0407B8002E12FDBF41
:0407B90000FF5E6778
:0407BA0025FDD32125
:0407BB001EB7488598
:0407BC0039FD379A32
:0407BD001167E2AB33
:0407BE00052C80DFA7
:0407BF001D838D7891
:0407C00010946687A4
:0407C1000A840E0A8E
:0407C2003A1921219E
:0407C3001FF635CC1C
:0407C400135928C0DD
:0407C5000FCFF61943
:0407C6003BBE08909E
:0407C700190755F3C6
:0407C80001F9C29CD5
:0407C9002A60D3CA05
:0407CA001A2D173499
:0407CB0037F514E307
:0407CC0013FF7CC9D2
:0407CD0010DD470DE7
:0407CE0014404DF294
:0407CF00042F44CCE3
:0407D00011EA199E73
:0407D10016156ECBC0
:0407D2001414C01823
:0407D300395E3BA5AB
:0407D400256B2B7BEB
:0407D50034696BA078
:0407D6002C6221A6CA
:0407D70029B846E116
:0407D80002D71B86A3
:0407D900098EBFA620
:0407DA0029DD420FC4
:0407DB00325415ED92
:0407DC0026126DF282
:0407DD001515025C90
:0407DE0034D92ACF11
:0407DF00277754F62E
:0407E0003A496569C4
:0407E1000C400F4079
:0407E2002371C6AA0F
:0407E3001A45936EB2
:0407E4003AE7058F5C
:0407E50034EA9591CC
:0407E600158741EE44
:0407E70026529C9B5F
:0407E8003B916AB522
:0407E9001347AC7B8B
:0407EA001FFA276962
:0407EB0038C59C3140
:0407EC003075EE4036
:0407ED00113206C0FF
:0407EE000F499F3FD1
:0407EF001C4F100784
:0407F0000C4AAA18ED
:0407F10033E70F4B90
:0407F20018ECB7B296
:0407F3002DE7C73BEC
:0407F4002CCA9D2A44
:0407F5001EE193F678
:0407F60036554137FC
:0407F7003651433103
:0407F8002B6810ABAF
:0407F9002B71181137
:0407FA00226B6524E5
:0407FB000809E8E31E
:0407FC0033E1633151
:0407FD0031D4BE1223
:0407FE00109032C85D
:0407FF0001E088137A
:00000001ff
