:020000040000FA
:040000003BF0680B5E
:04000100242E491848
:0400020036303FABAA
:0400030021E683CCA3
:040004002F717D8457
:040005000F0AC8CE48
:040006003622E4C6F4
:040007000AB1EC55F9
:04000800183815C3CC
:040009003B910D34E6
:04000A002C00C6FF01
:04000B001C1D900E1A
:04000C0000E2580DA9
:04000D0034B98F1D56
:04000E001E3FE4CCE1
:04000F0003D8B4A8B6
:0400100025575E2BE7
:040011000F44100583
:0400120020201D7C11
:0400130023D272C6BC
:040014001D6B8D597A
:0400150032C8FEC926
:040016002F9AA7CCAA
:040017003322ED6A39
:040018002B022F7216
:040019000E40E3FEB4
:04001A00214CBCA118
:04001B0021EA69E984
:04001C000839DB4183
:04001D0010B927A44B
:04001E0027A53C19BD
:04001F002898E5B880
:0400200022AD60D8D5
:0400210001B3ADE397
:04002200098C7DBA0E
:04002300092063AE9F
:0400240039FAC08C59
:0400250022D3659AE3
:040026003C9765712D
:040027001C30E2584F
:040028000221B59F5D
:040029003C35B1446D
:04002A0038887C1D79
:04002B001DBFB2DF64
:04002C003DC66A451E
:04002D0014D3899AC5
:04002E00268D5F03B9
:04002F00348184395B
:040030003D19166FF1
:040031003C83244A9E
:0400320031C1CB3AD3
:040033002F3B7F5D83
:04003400399BC158DB
:040035001CC13E6E3E
:040036001BE754C0B0
:040037001FB14D1593
:040038003690C12A13
:04003900087C3127E7
:04003A003A449D594E
:04003B00270BBF6C64
:04003C0037197612E8
:04003D002035B108B1
:04003E003203D7179B
:04003F003D4E08A684
:04004000054B7415E3
:0400410003EFC759A9
:0400420010351F6DE9
:040043001E6BFFD65B
:040044000F9E2D7F5F
:0400450015D6BD9E71
:040046002F1F3F0F1A
:0400470020A75CDEB4
:040048002BC5F5903F
:04004900091BD64772
:04004A0012CF1BDFD7
:04004B000AA3EDA275
:04004C00348C47CADF
:04004D001D34844E8C
:04004E00132427E36D
:04004F0033710910F0
:040050003569F1AC71
:0400510002CAB9EA3C
:0400520038CF3E3332
:04005300071CD16D48
:040054002E712709D9
:04005500158996A1D2
:0400560014F9665DD6
:0400570030A786D672
:040058003E9F35E4AE
:040059002D1E2F40E9
:04005A0032BDDC09CE
:04005B001A3A4A43C0
:04005C00157D29B82D
:04005D0024B813CEE2
:04005E0027C3B00CF8
:04005F003DE44DA08F
:040060003640B88DE1
:04006100191E886478
:040062000B66261FE4
:040063000239D5B5D4
:04006400358126BA02
:040065001793163D9A
:040066003D24E14A0A
:040067002399B9160A
:04006800238F0203DD
:0400690013DA82190B
:04006A000257261300
:04006B00214E5F7E45
:04006C002A28A77225
:04006D000B85403788
:04006E0025AD1D930C
:04006F00178B656323
:040070002F4C86AEDD
:04007100220F71D811
:040072000A1045F437
:04007300032208C19B
:0400740031A18474BE
:0400750016071C9FAF
:04007600087C11638E
:0400770013852D853B
:040078003D88FBD8EC
:0400790002A5EF6A83
:04007A00043CAA692F
:04007B001655D13F06
:04007C0010FBBEFCBB
:04007D002359458638
:04007E0010D85D73C6
:04007F002E110449F1
:0400800024DA3ABF85
:040081001651E657D7
:04008200325AAE88B8
:040083002227D06BF5
:0400840010BEEB1AA5
:04008500112CBACAB6
:040086003E4E33199E
:0400870007ED081B5E
:040088001E01EFE482
:040089000A22F35400
:04008A00368FC345A5
:04008B000CF6AA7352
:04008C001BEFD893FB
:04008D003389FCCAED
:04008E00358652520F
:04008F00045D161BDB
:040090001DBDC79833
:040091001C09782BA3
:0400920009F34042EC
:0400930033949058BA
:0400940019E72763DE
:040095000BD1C4F5D2
:04009600366C734D04
:040097002D1BDD4BF5
:04009800116D2D0BAE
:040099001096355D2B
:04009A003C6767A4B4
:04009B003BB9A306C4
:04009C0018AD17CFB5
:04009D001B15382ACD
:04009E0014F0CCBBD3
:04009F000234AE5623
:0400A0000F07C2384C
:0400A10033D54E679E
:0400A20009D0A82CAD
:0400A30038AEC3169A
:0400A4002BBC4B3EE8
:0400A500070CFE5DE9
:0400A6000625C40760
:0400A7003E0E3F5773
:0400A800136FE60FDD
:0400A9000E7AE9736F
:0400AA0036D6CC0A70
:0400AB000DB61E2B45
:0400AC0037984574C8
:0400AD002C7F03FCA5
:0400AE00325655CCA5
:0400AF003B3AC5D53E
:0400B0003A61C411DC
:0400B1001EE16E736B
:0400B20034BA538980
:0400B300128075E45E
:0400B40014014A8267
:0400B500308B21A0CB
:0400B600377C1EE392
:0400B70032EFE773CA
:0400B800077A8CDC5B
:0400B9002297F22276
:0400BA00207107406A
:0400BB002A7C530840
:0400BC003E474E0667
:0400BD003624221FA4
:0400BE0014C7ED4C2A
:0400BF0039692E3736
:0400C00007A15F84B1
:0400C1001E7578A987
:0400C2001422E62FEF
:0400C30031BAEE9AC6
:0400C40028EB085FBE
:0400C5002DFC3E438D
:0400C60016038B880A
:0400C70019BDEE422F
:0400C800147327DDA9
:0400C90027DEB0F18D
:0400CA000B68A2D24B
:0400CB0018D799E8C1
:0400CC002AB6C0147C
:0400CD0015AB511FFF
:0400CE003BC039AC4E
:0400CF000878026C3F
:0400D00008E81D0619
:0400D1000FECF65BDF
:0400D2003704FF638D
:0400D30033506C43F7
:0400D40030F1D70D23
:0400D500131DDB45D7
:0400D6002047D29954
:0400D70038939AD2EE
:0400D8002E319171C3
:0400D900163D05E5E6
:0400DA000349403561
:0400DB002AC6D5F567
:0400DC0011CB6E7462
:0400DD002A7DCCD6D6
:0400DE0014703284E4
:0400DF003A98180330
:0400E0001E20FD9F42
:0400E1001E818E21CD
:0400E2001766EF4B63
:0400E30022D972EBC1
:0400E4000289B427B2
:0400E500304509E7B2
:0400E60022964362B9
:0400E70009B2ED88E5
:0400E8000A159575EB
:0400E9001BB9AE6C25
:0400EA00286F19540E
:0400EB00342F6AB490
:0400EC003CEE1F2E99
:0400ED001BA5489A6D
:0400EE001145B81FE1
:0400EF000B4C12851F
:0400F0001BFADDB565
:0400F10024C9CEBD93
:0400F2002ECE5A1F95
:0400F3001FE129C020
:0400F4002D73A25373
:0400F5001CBF067FA7
:0400F6001A54F9603F
:0400F7003BC1B40550
:0400F8001E207462F0
:0400F900339C38B349
:0400FA001D626FC450
:0400FB001FE46DCDC4
:0400FC003BE4D1C44C
:0400FD003E64402FEE
:0400FE002CB35E9C25
:0400FF003D8DC1E88A
:040100003018D1A33F
:04010100320039EAA5
:0401020000FBD39695
:040103001DFCD28B82
:040104002EB992710D
:040105000F05484159
:04010600208D66E002
:040107002ACF189B48
:0401080014F9B50928
:0401090012F25B3063
:04010A001504B5C85B
:04010B003DAE56753A
:04010C002A80B30290
:04010D002E09DC5289
:04010E0001796D4FB7
:04010F002990B6F885
:04011000069EC2483D
:04011100114DFC820E
:040112001099290B0C
:0401130027A5257B7C
:040114000D023D2279
:040115003C2DA9854F
:040116003E5D9DCAE3
:040117002E9481841D
:040118000236E118B2
:040119000A49E07738
:04011A0013E454F2A4
:04011B0035D5726004
:04011C00123BC85872
:04011D000109E51BD4
:04011E00189DA31E67
:04011F0027110CC2D6
:040120000E361E2554
:040121003E68F15AE9
:0401220001D3871B63
:040123001ACA493477
:040124003B5095E2D5
:0401250014B4AF253A
:0401260011E3E613E8
:0401270010E3D237D8
:0401280029D05CE49A
:0401290019D619A822
:04012A001B8B29E31F
:04012B001D78694E84
:04012C002CD2DF9260
:04012D0021F95399C8
:04012E000F315767CF
:04012F001DD1CB43D0
:040130003924DCDFB3
:04013100264C342004
:040132003D844E4E6C
:0401330031F2F9505C
:0401340009D9BA56D5
:040135003DA5D83BD1
:040136001D7BFD8AA6
:040137001F66F3ACA0
:040138001804B14EA8
:04013900227262AA22
:04013A0035C91CA304
:04013B003E3E54A54B
:04013C001092B32644
:04013D0020F846E27E
:04013E0032BDE712D5
:04013F0027B03BB0FA
:040140001315D1348E
:040141002348642CBF
:0401420017DDF08550
:040143003C61753E68
:0401440018F0FDA50D
:0401450035C8F98739
:04014600136ABE1961
:04014700261F543FDC
:040148003CFBBF8835
:0401490009E73098FA
:04014A00376527C22C
:04014B002ADB140097
:04014C0037458F079D
:04014D0029710236DC
:04014E0021DA9A9C7C
:04014F00235B23CF3C
:0401500022BC3F1777
:04015100398C5C95F4
:040152003C2B6E2CA8
:0401530038A126D8D1
:0401540003A79ECB94
:04015500296F228E5E
:040156000E4A925D5E
:04015700284C840CA0
:040158003CB56EF84C
:040159002D57FB26FD
:04015A0002121FE787
:04015B001FE816F98A
:04015C00092D0A8DD2
:04015D003219826869
:04015E0029A7ED0FD1
:04015F001CAA5E0870
:040160002F8C89B4A3
:04016100292B91387D
:040162001BD3977F95
:0401630019A412F2D7
:0401640034078BCE03
:04016500340ABBF6A7
:040166002A3776AE10
:04016700310E3B1A00
:0401680018D6AA39C2
:0401690001B0DDED17
:04016A000B0AA07A62
:04016B000D07BA03BF
:04016C000E728A0E77
:04016D001097FDFAF0
:04016E0033DBD1ECC2
:04016F00211C32E538
:04017000146E2B2EB0
:0401710035774DDFB2
:040172001B96BB67B6
:040173003C4981A9D9
:040174001718BEF3A7
:040175003E092CB85B
:040176000646194DD3
:040177002A1C8A9420
:040178003E10E89EAF
:0401790021980E2596
:04017A0034EC410719
:04017B001A1707E266
:04017C0007600E42C8
:04017D003780232480
:04017E00307C44E4A9
:04017F00017B808000
:040180003D279B2359
:040181000722488584
:04018200387D8066DE
:0401830037FCD2C3B0
:0401840019D96053D2
:040185002D2D9DEA95
:040186001F67DF8E82
:040187003C67B534E8
:040188001CAA0AD4CF
:0401890008E4BCB119
:04018A001DD2678398
:04018B003B3AFA1CE5
:04018C003B5063334E
:04018D0015B7BDFBEA
:04018E002BF1B0BAE7
:04018F001D9A77C07E
:040190003C55B3A384
:040191003D22E7190B
:040192002E8191EB3E
:040193003A83D53A9C
:0401940031B405D7A6
:0401950013CCA3F2F2
:040196000788BDD544
:0401970004C09CF80C
:040198000524773A89
:04019900136EB91414
:04019A00185BE1D23B
:04019B00351D548D2D
:04019C0013249A0C82
:04019D00022FC61A4D
:04019E0035920A2567
:04019F001312C9C0AE
:0401A0001FEC01F758
:0401A10026BEF0F096
:0401A2000B3CB0233F
:0401A3003E4BE9984E
:0401A4002FC2006204
:0401A50015DC9D14B4
:0401A6003ACE49C044
:0401A700327CBC8367
:0401A80031197C6924
:0401A90014A78C4CBF
:0401AA00003709D73A
:0401AB00209DADE204
:0401AC002406ABD4A6
:0401AD003E85FD1C72
:0401AE00179C21D5A4
:0401AF003A184115A4
:0401B0000A8C01F4C0
:0401B1003C57B25BAA
:0401B20037C0CEA7DD
:0401B30009C625F163
:0401B4002A99C16360
:0401B5000FD2F3FA78
:0401B60026F223BF4B
:0401B70026A1A8F0E5
:0401B80029A448B579
:0401B900166D61D886
:0401BA0017C22FC475
:0401BB00028149C2B2
:0401BC003B7144D877
:0401BD002F53A6D145
:0401BE003BE3C32438
:0401BF002E764F1435
:0401C0003CD4C97FE3
:0401C10021B7E8ED8D
:0401C200093BF850AD
:0401C3003E093FAD05
:0401C4001D65CD5692
:0401C5000EA09616DC
:0401C600063CFB3DBB
:0401C70016A1F0711C
:0401C800238915FC76
:0401C90037AD5C549E
:0401CA0020492DF3A8
:0401CB00286CEA0DA5
:0401CC003D2C249C06
:0401CD002982CE0CA9
:0401CE003D835AF221
:0401CF0004714188EE
:0401D0002C82539595
:0401D100100741F8DA
:0401D20022C0B8315E
:0401D300091EB080D1
:0401D4001DD5652EA2
:0401D50032A7C12468
:0401D6002371F2F8A7
:0401D70038E60CB347
:0401D8001C78797C9A
:0401D90032DF50F0D1
:0401DA002AF453E0D0
:0401DB001698C5E9C4
:0401DC0000D8DF81E7
:0401DD00308B719062
:0401DE001B522A91F5
:0401DF000D81A94F96
:0401E0000C60A72CDC
:0401E1003B1E715AF6
:0401E20008D11776B3
:0401E3003512F6FEDD
:0401E40031CB1AB54C
:0401E5000151D3559C
:0401E60035E9875B15
:0401E700059F579B7E
:0401E8003C1768D781
:0401E900197E1F520A
:0401EA000E09E26AAE
:0401EB000AC2F0CE86
:0401EC003C09C20CFC
:0401ED002360C2DFEA
:0401EE001EB39E4B53
:0401EF000A7279A473
:0401F00004A87549A1
:0401F10002947D8770
:0401F200177650919B
:0401F3003E03FA7D50
:0401F4001163A7806C
:0401F5003B63CF1683
:0401F600363079CA5C
:0401F70029F5F626CA
:0401F800106ED7B7F7
:0401F90014AADAA9C1
:0401FA001B3C80D852
:0401FB00231972DE74
:0401FC0005E5D768D6
:0401FD00136FB1B912
:0401FE000D79FE4633
:0401FF0005A095E5DD
:04020000087D62C251
:040201003607E41ABE
:040202003D731E80AA
:04020300181C071F9D
:04020400205B3B8BB5
:04020500169FD3ABC2
:04020600044204A802
:040207003C07EC20A4
:040208001BB07A4C61
:0402090038E10CE2EA
:04020A00263ECE407E
:04020B0018EAD930E4
:04020C0014C68E1C6A
:04020D00060C064D88
:04020E00040D6CB4BB
:04020F0024D79861F7
:040210001097930EA2
:040211002F1B6052ED
:040212001207FC00D3
:0402130025B4926517
:040214001AFFD1D824
:040215003DEA490C69
:0402160025351C8BE3
:040217000029608FCB
:0402180027774DBE39
:040219001850C015A4
:04021A0020F8E4D311
:04021B0036E4310490
:04021C003137054B26
:04021D00068EE0A3C6
:04021E00160F13584C
:04021F002CB90919D4
:04022000089F0D7CAA
:040221000ABD9794E7
:0402220017960584A2
:040223002303E75E6C
:0402240001853E53BF
:04022500182AECD1D6
:040226002274143BEF
:040227001120B0AF43
:040228000A10920D19
:04022900211F037D11
:04022A0013B5A4184C
:04022B0033A6188658
:04022C0021DEEB7272
:04022D0000A5BD6704
:04022E002987918CFF
:04022F0029000C5A3C
:040230000ABA38814D
:0402310027043D76EB
:04023200239D9EE981
:040233003AD31BCFD0
:040234002FBBA276C4
:040235002C6DAC98E8
:04023600270BE82E7C
:0402370029FAE25B63
:040238002D9319E801
:04023900348FD90C19
:04023A000C271B066C
:04023B003BE15C3A0D
:04023C00326B620EB1
:04023D0022118336D1
:04023E001B6D844070
:04023F00087E1CF227
:040240001DCC930638
:040241003CEE5C88AB
:0402420027A581DB90
:040243000004230090
:04024400230D6EEC2C
:040245001801D76A5B
:0402460017D3C844BE
:040247001E6163EBE6
:040248002109BF5D6C
:04024900278F47E2D2
:04024A0022290B5208
:04024B0017D9535715
:04024C0001F707EEC1
:04024D00363D2963AE
:04024E002CB9C224E1
:04024F002DD45570E5
:040250000104A36F93
:0402510010E54FDC89
:0402520004A8525555
:0402530016C7B1C455
:040254000C2B589F78
:0402550001B46E6121
:0402560037D7EFADFA
:04025700061F5C1C06
:040258000997D51F0E
:040259001FE209AFE8
:04025A00046D45B931
:04025B0039432CDE19
:04025C000FBC8B4404
:04025D0010141B203E
:04025E00195FFFB96C
:04025F0020CCE6C306
:040260000FA1378E25
:040261001C60BB9AC8
:0402620033B1B37C85
:040263000D5F7F8626
:040264001A5A6CA90D
:040265000252BE96ED
:04026600286222E305
:0402670019D7467FDE
:04026800117E47D0EC
:0402690010C4842118
:04026A0005C78191B2
:04026B0022DE875DAB
:04026C0011ED26C8A2
:04026D000FCADAD208
:04026E00178A9C1F30
:04026F003523675E6E
:040270001EA2644323
:0402710022F815D288
:04027200124523D23C
:0402730020983CCFC4
:04027400215209D03A
:0402750037AD7F7AA8
:040276000C52F730FF
:0402770039CAE2B2EC
:040278002A7EEAC62A
:04027900370BC42F4C
:04027A001C90171DA0
:04027B000AB504DFDD
:04027C00306BE2E61B
:04027D00262F875C45
:04027E001DEEDE088B
:04027F0018A5036754
:040280001178F84AAF
:0402810036FCC51E64
:040282003A5A9FD372
:04028300000B19E073
:040284000A8CF929BE
:040285002FB4EB9F08
:04028600155E5CC6DF
:040287002089E72DB6
:040288001271856DFD
:0402890004C572B97D
:04028A0006E54C2712
:04028B0033C4EC3F4D
:04028C002E5173B6C6
:04028D00328519E0BD
:04028E001607FE5001
:04028F0020709E1429
:0402900027DE5A2EDD
:040291001F3F98452E
:0402920031DB874F86
:040293002864C8868D
:04029400238E9361C1
:040295000A93407117
:040296003C5BE1E804
:040297002B477793E7
:0402980021458B8BE6
:04029900323F5F1F72
:04029A0033B371A663
:04029B0036EAF0D07F
:04029C00145D572571
:04029D000DE52FC577
:04029E00321FB30C4C
:04029F001AB0E92484
:0402A00034BA32102A
:0402A1002881F84870
:0402A200266AE21ACC
:0402A3001BEBE21758
:0402A40007F36D717E
:0402A500107C0FF2C8
:0402A6000196EA4E85
:0402A7000CF82F2000
:0402A8003E31732D43
:0402A9000FCFAE0EB7
:0402AA001638AB3324
:0402AB0019F7DE5110
:0402AC000FE322C872
:0402AD0002A3D0F4E4
:0402AE0021BCA4A625
:0402AF002A120916F0
:0402B00030E271DCEB
:0402B1003201DD5DDC
:0402B20009F1098DB8
:0402B3003381399AC0
:0402B4001339368D37
:0402B5001D372C794C
:0402B6001FF1E36DE4
:0402B70034DE85A10B
:0402B8000AD735A884
:0402B9002AFC0069B2
:0402BA001F2D3EB006
:0402BB0025CDCA8102
:0402BC002FB010E768
:0402BD000D8F294632
:0402BE0011F72C7C8C
:0402BF0003A5C424AB
:0402C0001BF9AB94E7
:0402C100286313DEBD
:0402C200059C222154
:0402C30000974F044D
:0402C4003B4B292562
:0402C500174A084F7D
:0402C60039EC118F6F
:0402C700249FE3B2DB
:0402C8001AEC98F89C
:0402C9001CD4F50B41
:0402CA0019DAE4AFAA
:0402CB0010366AAED1
:0402CC0039788055A8
:0402CD00104F114E6F
:0402CE001A5E68FA52
:0402CF003506785820
:0402D0002BE6A8353C
:0402D1002839141E96
:0402D200174E34325D
:0402D30028FA8DA9CF
:0402D400363F5AE86F
:0402D500267932F262
:0402D60024F4EC0818
:0402D7000066A67F98
:0402D8000841A63DF6
:0402D9003E71FD6A0B
:0402DA003E2F473F2D
:0402DB001CE1C6F369
:0402DC0007A237F747
:0402DD002B23F7A434
:0402DE0006E8C8D096
:0402DF0009977DBA44
:0402E00032F363781A
:0402E1001B5B12246D
:0402E2001D5B3BC2A3
:0402E3002CA8F967E3
:0402E4001409E2D245
:0402E5001E8BAF05B8
:0402E6002C6BAC8D44
:0402E7002AD07D415B
:0402E800102A25C0F3
:0402E9003B25DC6C69
:0402EA000060E32BA2
:0402EB001EE3A0B6B8
:0402EC002F61878D6A
:0402ED0039D8758BFC
:0402EE000847F6FFC8
:0402EF0017D231945D
:0402F00024FD468320
:0402F10020A6F17DD5
:0402F2002676CC6D33
:0402F3002965323B0C
:0402F4003483A4307B
:0402F500216EBBF7C4
:0402F6001EFF0B6E6E
:0402F700004F8A9C8E
:0402F800122C7A81C9
:0402F9003C69E27505
:0402FA001135754EF7
:0402FB0017315881DE
:0402FC000EFD9F83D1
:0402FD001C995BD01D
:0402FE000E7AB0F0D4
:0402FF0030BDE8BC6A
:040300000E57E8723A
:0403010039A24F735B
:0403020002207394CE
:040303002C657C5396
:040304003A48CDBEE8
:040305001B99E290CE
:04030600277D07A6A2
:0403070035069B819B
:0403080017F41A418B
:04030900066DD47B2E
:04030A00076E0D3439
:04030B001B78CA1879
:04030C0009D72FF2EC
:04030D001654AB5384
:04030E002378E66604
:04030F001C31B936AE
:040310000CE22F715B
:0403110029C4416F4B
:040312000F441B5B1E
:040313002DF3FBAA21
:0403140012E520745A
:04031500250AC15E96
:040316002001F6418B
:040317002D45F87503
:04031800212BAE8C5B
:0403190010F006E4F6
:04031A00144F6748CD
:04031B003C52317AA5
:04031C0021C4DA1D01
:04031D001D2B7A001A
:04031E0017C3510AA6
:04031F00292E919B57
:0403200016915A1FB9
:040321000868A23492
:040322002DDCEE3BA5
:040323002E7139FC02
:040324002CA6DA2009
:04032500308AECBA74
:0403260035CB8CE661
:0403270006DA3EA70D
:04032800385048F60B
:040329000B7C627374
:04032A0021CA77EB82
:04032B00179A126AA1
:04032C002B1BB1488E
:04032D003E09B22EA5
:04032E002B65E21940
:04032F002B119112EB
:0403300029D933D2C2
:04033100156217A298
:040332000365646695
:0403330021704E9E49
:0403340013771A69B8
:040335000221B5915B
:040336003C249D7E48
:04033700020CD813C9
:0403380010AD5AEFBB
:040339003E4C778B34
:04033A0020666ADEF1
:04033B003B56BCD39E
:04033C0038BEE5FCE6
:04033D0037BE02ECD9
:04033E00106D549852
:04033F003324BB5652
:0403400028F050054C
:040341003CFEDDE7BA
:04034200293828240A
:04034300007DE4DC79
:040344002864CCDB82
:0403450028D7564A15
:04034600358FA6FC4D
:040347001B9C17BF25
:0403480025B4A546ED
:040349003207207DDA
:04034A00136F2113F9
:04034B00198AB18BCF
:04034C002BCEC38968
:04034D003890D239D9
:04034E0038AB08427E
:04034F000A14902CD0
:04035000173049C455
:040351003DC24E98C3
:04035200398B3C0E99
:04035300166721CE3A
:0403540013F0BD31B4
:040355002066531DAE
:040356001E5D1DCE3D
:0403570011FD81A172
:040358002135CEFE7F
:040359002569B56CF1
:04035A00187ACC2F12
:04035B001E57D7044E
:04035C0004073D490C
:04035D00354C68A90A
:04035E0010BB24AEFE
:04035F0020369FC1E4
:040360001B07A6EFE2
:040361003920C01867
:040362000AD5EA913D
:040363001022BB3C6D
:04036400056D46FCE1
:0403650009A726F4CA
:040366002836AFCCBA
:040367001E6D3A24A9
:0403680015FDF47F0C
:04036900279140F1A7
:04036A0015DF7453D4
:04036B00035D15AC6D
:04036C000F8666A5ED
:04036D000BB8755202
:04036E00050954DB4E
:04036F001D14AE00AB
:040370000574557B40
:040371000DF6D70CA2
:04037200213050D70F
:0403730012C12D0482
:040374003A4BA4E17B
:0403750022DC86F10F
:04037600153B69B614
:040377003456E48B89
:040378000961FD5CBE
:040379003A713B2C6E
:04037A0015D7706DB6
:04037B000DE3B8D600
:04037C0020A15CA8B8
:04037D0036FA172015
:04037E0026722A6A4F
:04037F0027EBDF8306
:040380002B621FEBE2
:0403810000722ABE1E
:0403820016E312FF6D
:04038300105C74FE98
:040384003C4CC728FE
:04038500274D421EA0
:040386001B869EC66E
:0403870037ED929428
:04038800270BCBF480
:04038900078C96B98E
:04038A000C3DF259DB
:04038B001D2A8D2773
:04038C00310902929F
:04038D001C44ADABB4
:04038E001958AA9CB4
:04038F00052F9E1682
:040390002DD25229EF
:0403910000D7395602
:0403920024454001BD
:040393003E00C4065E
:040394001384F17D60
:0403950033250DB14E
:040396000FB96A8AA7
:040397002CB9990ED6
:040398003A8C7283A6
:0403990025C56259BB
:04039A003D973E4904
:04039B0038F38F990B
:04039C0025A311374D
:04039D001B91F0C9F7
:04039E000948552A8B
:04039F001AB3F63166
:0403A00000148E8136
:0403A10009F3A05F5D
:0403A2002B25D02710
:0403A30011C1CC16A2
:0403A400322279B0D8
:0403A5000DD4534AD6
:0403A60000405E387D
:0403A7003783A3D91C
:0403A8000B3E8D9BE0
:0403A900105ADAE626
:0403AA003EC0FEB89B
:0403AB00268BAFBC32
:0403AC001D1EBE1E36
:0403AD0006033D5FA7
:0403AE00199534BAAF
:0403AF003B0D67009B
:0403B0001CA99D895E
:0403B100013FDF7CAD
:0403B200284856374A
:0403B3000C717CA3AA
:0403B400259902196C
:0403B5001C3B4DE5BB
:0403B60033628A6DB7
:0403B700335B280587
:0403B8000786E221B1
:0403B90034D9057EB0
:0403BA003499045519
:0403BB002FC2BD860A
:0403BC00013B77C4C6
:0403BD002F1421B523
:0403BE0011DCC3D3B8
:0403BF003351971B04
:0403C0002475A33FBE
:0403C1001C8912CBB6
:0403C20012CEEAE885
:0403C3000DBFB310A7
:0403C4001F847EFD17
:0403C5000CE3F590C0
:0403C6001E2E6FC1B7
:0403C7001338C1081E
:0403C8000B8967A294
:0403C9000F4825555F
:0403CA00327B5BF82F
:0403CB003AEB0EF902
:0403CC0031115C513E
:0403CD003B9FA5FDB0
:0403CE000F1EECE32F
:0403CF003BF2360BBC
:0403D0002234CF0FF5
:0403D10035176D0E61
:0403D2003C7E6CEF12
:0403D300163F77CA90
:0403D4000CB90AE274
:0403D5000CA71FB0A2
:0403D6000993CB8F2D
:0403D7001BDBF5F344
:0403D8003EBCE80D32
:0403D90012892BB9A1
:0403DA002603E4C052
:0403DB002763EAD5D5
:0403DC0002CB1FA889
:0403DD00373E3A6706
:0403DE000E6C333A34
:0403DF002FD036F6EF
:0403E0003DB1B2B2C7
:0403E100179CE7621C
:0403E2002FB95812C5
:0403E3001457BFAF3D
:0403E4001B338D1327
:0403E500045FA6F11A
:0403E6000E15A13916
:0403E70021FDA65FEF
:0403E8002DAEF6B090
:0403E90012F41A6987
:0403EA000104B81C36
:0403EB002A1DBA7D90
:0403EC0037C2CA65E5
:0403ED0000C2901D9D
:0403EE0038902C0B0C
:0403EF002A782DDF5C
:0403F0001897520DFB
:0403F1000E7A7B4CB9
:0403F2002E25938998
:0403F3002FB6D699B2
:0403F40036BD621F91
:0403F50039F02A535E
:0403F6003B317072B5
:0403F70022411890F7
:0403F80038FE7496C1
:0403F9002E832132FC
:0403FA002ADDFB55A8
:0403FB00137380E117
:0403FC00091793FB4F
:0403FD00086A9D7875
:0403FE002444878587
:0403FF001979EA9DE1
:04040000143915B6E0
:0404010002D8458E4A
:040402000DCDC12338
:0404030015F171D6A8
:040404001CC811A25D
:0404050016B9A1A2E1
:04040600133B8FBB5A
:04040700088145D350
:040408000B18CF9B63
:040409002BC6A5A2B7
:04040A00235F3B1E13
:04040B003786CF4E13
:04040C003A85DC153C
:04040D00363EC6D4DD
:04040E002E5AE991E8
:04040F00336AC5B8CF
:040410002D908B138D
:0404110007D3C1AF9D
:0404120036B2554663
:0404130000713C0C2C
:040414002DE7CD0AF9
:040415002FC78F91CD
:040416003D4B7CA43A
:040417001AD7479811
:0404180020850695A0
:040419000377BC8D1C
:04041A002BBF98C696
:04041B00210EA3F516
:04041C003B6A24C251
:04041D00158F310600
:04041E000B3F1B7AFB
:04041F0000E6DFFE16
:040420001665EAFB78
:0404210011CFCE58D1
:040422001A258534DE
:0404230007D3C51422
:040424003AD6577FEE
:0404250033F938D699
:04042600286A1F65BC
:04042700064CC56159
:04042800340B4BD76F
:040429001D367650B6
:04042A003D16D26445
:04042B002C2B655EB3
:04042C000F6606D57C
:04042D0012CF22E3E5
:04042E001332B1B61E
:04042F00044F56A67A
:04043000098A95534D
:0404310029BB37F5B7
:0404320014E5DDA64A
:040433002BDAA5E437
:040434003C51BC85F6
:0404350010C6BC161B
:0404360007612E8F9D
:040437001E27AFDFEE
:040438002FF79940C1
:040439002C415FE013
:04043A001D82FB72B2
:04043B000F7A231100
:04043C000F0BDEAB19
:04043D00100F21512A
:04043E002A7A6307AC
:04043F0016C665CAAE
:040440002F132E4404
:0404410023176E63AC
:040442000440BA4B6D
:0404430022118915E4
:040444002296E15BC0
:040445000DE2F9A229
:0404460032BE73A8A7
:0404470016AAF01BE6
:0404480011EF2EA1E1
:04044900158B70455A
:04044A002132EF88E4
:04044B0013FFAAAC45
:04044C002BFE3CFA4D
:04044D00341644C25B
:04044E003E65F571A1
:04044F000C8BA95D0C
:040450002A7DBFB989
:04045100047151B32E
:040452000165172BFE
:0404530025879FA9B1
:040454000377460BD9
:0404550018DD37BEB9
:04045600252F1AA68E
:04045700094FC5F490
:04045800193D8C7E40
:040459001405F0870F
:04045A0036E7F8E2A7
:04045B0023F0740E08
:04045C002483A52C24
:04045D0004246F669E
:04045E003B0841E92D
:04045F0037CE96708E
:040460002821F6DA7F
:040461001F8A71512C
:040462002F96A61714
:0404630038B1DFB518
:040464000A14CA09A3
:040465001EEF3A54F8
:04046600193E7EE9D4
:04046700018BAF59FD
:0404680018E6B34F90
:040469002D0C208CAA
:04046A00045A85DECD
:04046B002E208F347C
:04046C0033FB13C982
:04046D00363C4ADBF4
:04046E0018A007804B
:04046F0020058B20B9
:0404700020A0E07E6A
:040471001D316FD0FA
:040472003EB611FD84
:040473001439F98BB4
:040474001D6945F3C6
:040475001E59705646
:0404760000A1805B06
:04047700258A7D65F0
:0404780012C629A9D6
:040479002CA6D54197
:04047A002A99D49F48
:04047B0027494326A4
:04047C00246CA60244
:04047D003118798732
:04047E00130C55679F
:04047F001B222E1AF4
:040480002EAB962BDE
:040481002E4EF9A959
:040482001F225C6B6E
:04048300203EB61E43
:04048400270705D869
:0404850018E1114524
:040486002D7343F699
:0404870027503F704B
:040488001286D5D132
:040489003EB7FD4439
:04048A0035F6EBA5B3
:04048B0028498F4B22
:04048C0011523F01C9
:04048D001B3BDD3107
:04048E0017FBCEDEAC
:04048F0018DCDAA6F5
:04049000314CC330F8
:04049100099226F0B6
:040492001178CF20EE
:0404930004C67CCC53
:0404940011462B41A1
:040495001A108AAD02
:04049600369DB71ABE
:040497002236FA9778
:040498002788E8AB1E
:040499003726599F0A
:04049A002382DDC913
:04049B003D6C0EB4F2
:04049C0012362546A9
:04049D00002F015DCE
:04049E00258EB528CA
:04049F001050D923FD
:0404A00010DEDD5A33
:0404A100021D056BC8
:0404A200296CD35797
:0404A3002F28309638
:0404A4003CA4FE1561
:0404A500010AE6481A
:0404A6001823CC3A11
:0404A700081243AB49
:0404A8001FFC7CFBBE
:0404A9002090F8B2F5
:0404AA001A7156234A
:0404AB0038965C071C
:0404AC001AB43CAC96
:0404AD00173775A7E1
:0404AE002715CAA3A1
:0404AF0031AD83B335
:0404B0003D05B05FF7
:0404B1002325225A83
:0404B2000A6F439AF0
:0404B300074EB4A795
:0404B400298214B3D2
:0404B50017EEEDF859
:0404B60018CBECE88B
:0404B70029351F4E76
:0404B8003A47B33ECE
:0404B9003C05BE162A
:0404BA00262FE1A563
:0404BB000E642BB3ED
:0404BC0035E9A7BBBC
:0404BD002D1D117B65
:0404BE001056BDF522
:0404BF00231779D7AF
:0404C0001239308F2E
:0404C100083803FBF9
:0404C2000762D1CF2D
:0404C30026DEB0176A
:0404C4003B84BD09AF
:0404C5001FF8C3A5B4
:0404C60000BB3496AD
:0404C700151FF8CC39
:0404C8001D044601C8
:0404C90022D58612A0
:0404CA00218A65BE60
:0404CB003CD855883C
:0404CC000A4B9F48F0
:0404CD003E3B7B3FF8
:0404CE00068DCAB617
:0404CF003C0F527D0F
:0404D0000D826938F8
:0404D10039F658F6AA
:0404D20029C8AA4249
:0404D30009D18424A3
:0404D4000AD24CE913
:0404D50012107D067E
:0404D6003622A8D949
:0404D700006EED7551
:0404D80010B2966266
:0404D9003E6DA5705F
:0404DA001958E0F2DB
:0404DB0008A113431E
:0404DC000DF7AE2D3D
:0404DD002C4284B871
:0404DE0009B529A48F
:0404DF0010BFE8F66C
:0404E0000CA747110D
:0404E100399CA0B4EE
:0404E20031DD923640
:0404E30031DF40BF06
:0404E400098443A3A1
:0404E5001062B3A44A
:0404E6003E6BF9C7A9
:0404E700065FA46D9B
:0404E800266409B5C8
:0404E9001AC47700BA
:0404EA0000F78DFA90
:0404EB000F8DEF94EE
:0404EC0027B5A598F3
:0404ED000D0C1CA135
:0404EE00016DAE8E60
:0404EF001267152D4E
:0404F0000C9F31AD7F
:0404F1002ECCFCE829
:0404F2002DC201F422
:0404F3003B3D035F2B
:0404F40003F48A374C
:0404F50039C2352CA7
:0404F600229ED5D39A
:0404F7002F601DD382
:0404F800387646709C
:0404F9003D7E639948
:0404FA00188C1EA498
:0404FB00239DA8375E
:0404FC000756ADD41E
:0404FD0011E715AC42
:0404FE0006621E6410
:0404FF0039ABF13CE8
:04050000389C06928B
:0405010024AC9C0783
:040502002857DFA2F5
:0405030019BDEE2D03
:0405040014598A34C8
:0405050014FB3AE3C6
:0405060036A31EEB0F
:0405070019A0ADD1B9
:040508003C1311FA95
:0405090034D95DD7AD
:04050A0022B14C507E
:04050B001FDA652866
:04050C00059D657C68
:04050D0012015E85F4
:04050E002D94385F91
:04050F0018FA1719A6
:0405100004CE359D43
:0405110028D5B370C6
:040512002D5512420F
:0405130023FD7A82C8
:04051400138DC22F52
:0405150027163D7FE9
:04051600014698FC06
:0405170003C0559533
:040518001E0C96859A
:0405190005C8148479
:04051A00199C4AD905
:04051B0009D42537A3
:04051C000EF8DEFBFC
:04051D0034BBB740F4
:04051E000C8D5E30B2
:04051F0009CEA48FCE
:04052000381871CF47
:040521002A9BDE062D
:040522002EEF53DF86
:04052300180E79DC59
:040524000A8C80BFFE
:040525001A7F470FE3
:040526000B73EB5D0B
:040527001D7B8F2782
:04052800166C8AFFC4
:040529000D07CF4BA0
:04052A0028680676C1
:04052B002A8AC50152
:04052C0030E37DDB60
:04052D003EBAE113DE
:04052E000DD89A61E9
:04052F00107D8F5656
:040530001D66203BE9
:0405310034E805CED7
:040532001853999A27
:040533002B239D9E3B
:0405340016C535347F
:04053500348E45DCDF
:040536001707EF1E96
:040537001B9790A2DC
:040538000634E28B18
:0405390007CA589FF6
:04053A00069184247E
:04053B001D2C5D1006
:04053C0031640456CC
:04053D002D1B05BBB2
:04053E0005D3933F0F
:04053F0021835B07B2
:040540003D256A5893
:040541000E45B9D9D1
:04054200232D48908D
:0405430029C3600068
:040544003676107582
:040545001F1BF8E39D
:040546002FF82296D2
:040547001745340B15
:0405480039FBFB532D
:0405490029C6C537C3
:04054A002E85603763
:04054B0035150FA3B0
:04054C000D32D72372
:04054D001EAC62D8A6
:04054E000E234BC964
:04054F001CB41EEBCF
:040550000E4C2EB26D
:0405510028933EEDC0
:040552001D48043DFF
:040553000D3AEAED86
:040554002787E822EB
:0405550038683CB70F
:040556000D8A4D01BC
:040557000843B5FBA5
:040558000EFDCB9534
:0405590013852CA931
:04055A003C7CA08CB9
:04055B001A30B92475
:04055C00322B448D6D
:04055D00397E58B0DB
:04055E00135349B832
:04055F0002EEBE8E5C
:04056000388A5DB4C4
:0405610033AB8889A7
:040562002347C42641
:04056300112D7EEAEE
:0405640032320FB56B
:040565002A7FDA56B9
:040566002115D5FA8C
:040567002C38B7F77E
:040568001C7BC1D067
:0405690007B22F8323
:04056A0002445010E7
:04056B0039FB090D42
:04056C003C6E285E5B
:04056D00200245061D
:04056E000FAF4B8CF4
:04056F001A05AECAF1
:0405700038D7CB218C
:040571002610DD690A
:04057200059AE821DD
:04057300396CAD0B27
:040574001EEEEE97F2
:040575003A87BCFA0B
:040576000C7B7C83FB
:040577001257F947D7
:04057800073E5CFAE4
:040579001BF59B6370
:04057A001C46FEBD60
:04057B003994746BD0
:04057C000B20AAB1F5
:04057D002E4D826914
:04057E000D413832C1
:04057F003B7CD39C52
:040580000BF4016B0C
:0405810000648E7014
:040582002D90E23D99
:040583003350700081
:04058400358130FE8F
:040585002418BA91EB
:040586002E1E4DB325
:0405870026BC340F4B
:0405880024018F8C2F
:0405890025939DCD4C
:04058A00291CA584FF
:04058B001266B045FF
:04058C000F353F27C1
:04058D00376F41F093
:04058E0037B032341C
:04058F002601D34529
:0405900015E34CB86B
:040591000A3F80D2CB
:040592002FFF75AD15
:04059300306AA11A0F
:0405940016AC2B6610
:04059500198391D263
:04059600127BBECF47
:0405970037AA59F135
:04059800231AE153EE
:040599000D0D34EA26
:04059A001D243236B4
:04059B000C66C7BC67
:04059C00188AB80BF6
:04059D00260C89019E
:04059E0023F5682FAA
:04059F000C7BA9F830
:0405A0000AF4D1CFB9
:0405A10034649E59C7
:0405A20016B0219ED0
:0405A30005F12ED65A
:0405A4002A3C522774
:0405A50039C8DA9FD8
:0405A600247795B170
:0405A700082E5B7B44
:0405A800078C677FD6
:0405A900117887B886
:0405AA002B587DC687
:0405AB00085C5EF595
:0405AC003198067DFF
:0405AD000B3D213BA6
:0405AE000BBDA50DCF
:0405AF0035B51A291B
:0405B0002296FA266F
:0405B1002C21105990
:0405B200387704B0E2
:0405B3002A37AAD564
:0405B40031D5D19CD0
:0405B50010D0A76358
:0405B60019DD721FBA
:0405B7003B3F09D2EB
:0405B80008006F2C9C
:0405B90038996F19E5
:0405BA002C3C50770E
:0405BB001443DC3ECB
:0405BC002567880126
:0405BD0023BC2663D2
:0405BE00291A4F198E
:0405BF002A7AFD7A1D
:0405C00016AA2EC683
:0405C10021737ABC6C
:0405C20004B68E6F7E
:0405C3000683947F98
:0405C4000D07ADDC96
:0405C5003E75BB8C38
:0405C6002508F656B8
:0405C700259A7D22D2
:0405C80032BA6F4B89
:0405C90018FC6B1E91
:0405CA0028A2F2EB86
:0405CB001FAD1765E4
:0405CC003B8DC8CFCC
:0405CD001D243FD6D4
:0405CE001D0573DCB8
:0405CF001A05CA132C
:0405D0001B4A1DCDD8
:0405D1000D3758A3E7
:0405D20037534A420F
:0405D300387C60D937
:0405D400136979C767
:0405D5001387FA2B63
:0405D60038007488ED
:0405D7001CF0125AA8
:0405D8000A08127388
:0405D900126CEF258C
:0405DA00119B3168D8
:0405DB003BB6B98AE8
:0405DC0039DF097288
:0405DD00338F5C22DA
:0405DE00229A44EF2A
:0405DF0003F330757D
:0405E0000D0493E88B
:0405E10024885CD737
:0405E200200858662F
:0405E3001BDB844E4C
:0405E40031C92E9655
:0405E5001D63670427
:0405E600134F120895
:0405E700057B3C3321
:0405E8002097468290
:0405E9002F0FCF14ED
:0405EA0032624684AF
:0405EB0011AAE73139
:0405EC000175B0687D
:0405ED00056144C799
:0405EE001DE1F6E72E
:0405EF0010FA7FC2BD
:0405F00016F88AEA85
:0405F1003BB02EEB02
:0405F20019E9E4B768
:0405F300326F2C8CAB
:0405F40017FEA7192E
:0405F50021750A7FE3
:0405F600347DF5F764
:0405F70012F94EB6F1
:0405F8003743A8C419
:0405F9000DD24A30A5
:0405FA0037CE3A417D
:0405FB00355BD63165
:0405FC003AD96A0A74
:0405FD000606A03D11
:0405FE000EC76A7F3B
:0405FF00043E32C9BB
:040600003D1A9318F4
:040601001627B5CF34
:04060200088BDAB1D6
:040603002FE97F3D1F
:040604002744B5577B
:040605003B98254EAB
:040606003C07F5DEDA
:040607002792AA820A
:04060800170FA061C7
:0406090029EFFF8B4B
:04060A00275A780EE5
:04060B0005A6A83464
:04060C00135C99EFF3
:04060D0014C065337D
:04060E001E71079FB3
:04060F000F903E9377
:040610000693B8474E
:040611001A1D127428
:0406120008CED77EB9
:0406130029B379315D
:0406140034EA92F939
:0406150004320E2479
:0406160027539ADBF1
:040617003D78E198B1
:040618000130DC7A57
:04061900026E16F760
:04061A0021C72C8048
:04061B00002C56A3B6
:04061C0015A201130F
:04061D002A23069EE8
:04061E000D66872FAF
:04061F0016537513E6
:04062000220B472C36
:040621001C7D25AD6A
:0406220001ED720D67
:040623000E478BED06
:04062400262D47EB4D
:0406250013340C9EE0
:04062600327397286C
:0406270014B9830F70
:040628001166340D16
:040629002681890A93
:04062A000105605610
:04062B003ACFC21CE4
:04062C0006E24D474E
:04062D003ADF39EE89
:04062E003D8D8895E1
:04062F002902364521
:040630003A09ECCEC9
:040631003C28C31985
:040632002847E2C6AD
:040633003C22A7318D
:0406340011B39D5C05
:0406350013E131D4C8
:0406360010BA6B5932
:04063700397D13DC1A
:04063800001D5C9AAB
:04063900398FA4F160
:04063A0011080EE7AE
:04063B002F1337A0A2
:04063C002E82142FC7
:04063D001CE7D18B5A
:04063E00091852D174
:04063F0034B0DD23D3
:0406400010F13C95E4
:04064100150E97F704
:04064200063594EEF7
:0406430024E1154B4E
:040644001A196DF121
:04064500025FD84137
:040646002EDC75B978
:0406470026CE49FC76
:040648001C5E5013D1
:040649003206302520
:04064A00287119609A
:04064B00306C0DE61C
:04064C001BCD1E5B49
:04064D000F018C5EAF
:04064E003C711AC41D
:04064F0009AFEA7590
:040650000C1099658C
:04065100069E344489
:040652002094D571AA
:0406530026A29D8BB3
:0406540019D51E771F
:040655002351BDB3BD
:04065600350B99BA0D
:040657000C3C1785BB
:040658000F7E320CD3
:0406590019ADD03EC9
:04065A000E663119DE
:04065B0038AD6C2F1B
:04065C00027A5701C6
:04065D001A229EF5CA
:04065E002CF8EE285E
:04065F002A04114A0E
:0406600016CC082587
:040661002F0ED8AFD1
:04066200012CC54F53
:040663002CA57075DD
:040664002F3B09AA75
:0406650027B5E01BBA
:04066600159589EF6E
:040667002D670A28C9
:04066800368F9B2707
:040669001ADD4A5EEE
:04066A00187115D519
:04066B000D9C00F2F0
:04066C0006C6ED9839
:04066D003891284B4D
:04066E0023FC2B1A24
:04066F0032469B2E46
:0406700030C0E98D20
:04067100099BD8B851
:040672001CA179D876
:0406730023D488F014
:0406740034A2B6A155
:040675003B8C6BD27D
:040676002B4BD7AC87
:04067700112DEA3225
:040678003762BA1B10
:040679002697FE09B9
:04067A0026DFB0A225
:04067B003A454A7B37
:04067C003DB9D99318
:04067D0037C199DF09
:04067E0006512C05F0
:04067F002BEED5F594
:0406800011E968B55F
:04068100290377C60C
:040682000A5BCC8CB7
:04068300180C8E427F
:040684002740504774
:0406850006CB681325
:0406860009D2135B27
:040687003BD7EEBAB5
:040688003BB6DEBDE2
:040689002869383074
:04068A002673DC1DDA
:04068B00036CECB957
:04068C003CAF34D873
:04068D0030BD50A587
:04068E001154E242DF
:04068F00220B15A97C
:040690001EEE255FD6
:04069100019740E5A8
:0406920037C18DD20D
:040693003674148520
:0406940027E2913D8B
:040695001BEEB73B66
:040696000CC6C017B7
:0406970014598EB5AF
:040698001A79A9A87A
:040699001182F6B61E
:04069A0021F5F80846
:04069B0022E6F163FF
:04069C00064D0A3CC1
:04069D000A5CC2DC55
:04069E000A5271CDBE
:04069F00383850F6A1
:0406A00004408AEA9E
:0406A100271C8BF196
:0406A20016AAAD9750
:0406A3003E78610F2D
:0406A4002E993A98B9
:0406A5001FD32365D7
:0406A600019B04119F
:0406A70024C0C89B08
:0406A800388443222D
:0406A9001EB86F4DBB
:0406AA0006693F1688
:0406AB001558B1121B
:0406AC0015273FC50A
:0406AD002761DEFAE9
:0406AE0036FD05AC64
:0406AF000B6D1617A2
:0406B0002022C36BD6
:0406B1002DE674249A
:0406B2000416499948
:0406B30027AA39EE4B
:0406B4001C66E808D0
:0406B5001F97BD03CB
:0406B6003440FCCF01
:0406B700122B681D7D
:0406B80027E40D86A0
:0406B90033F42EE107
:0406BA0025D1D875F9
:0406BB003911339727
:0406BC00389BD41A79
:0406BD0025F2C1B0B1
:0406BE001D17F7DA33
:0406BF001AF8ED2D0B
:0406C0002DCA3F17E9
:0406C10037B225A582
:0406C20012DE28B06C
:0406C3003C7519ADBC
:0406C40000B7972EB6
:0406C500175BCBD61E
:0406C6000C9C4C99A3
:0406C7001688DE9221
:0406C8003D7D7D5E99
:0406C90039E428C226
:0406CA00115E4C98D9
:0406CB0014E38EA8FE
:0406CC000E27CB79B1
:0406CD003325094583
:0406CE000A54996EC3
:0406CF0025E7375094
:0406D00006FCAC3345
:0406D1003E286F0749
:0406D2001BF13FFDDC
:0406D300321A0C5576
:0406D4001563F1EDCC
:0406D500106AA29471
:0406D6001A53E04F84
:0406D7001F173A753A
:0406D8000BD4BF0779
:0406D9002975CA189D
:0406DA0012AFEA6E03
:0406DB00098BE2C8DD
:0406DC0008A1B0774A
:0406DD0011376D2E36
:0406DE00097627D79B
:0406DF00093895EE53
:0406E0000A984B53D6
:0406E100013F40B8DD
:0406E2002320AB66C0
:0406E3003D7BD3ED9B
:0406E400299FC55530
:0406E5003A52F90F7D
:0406E6003D56473303
:0406E700037A27ED7E
:0406E8002D3B899A83
:0406E9002AB8E5B98D
:0406EA0000EE8E8D03
:0406EB0021723F60D9
:0406EC003BE36EAAD4
:0406ED000640DA33B6
:0406EE002586D8ACD9
:0406EF000C154BDEBD
:0406F0001C2BC6CA2F
:0406F10028E838734A
:0406F2002F8693B507
:0406F30001FF7B9AEE
:0406F4003661F695E0
:0406F50025BFFFE737
:0406F6000DE4C5A9A1
:0406F7002E5CF982FA
:0406F8000434C9A25B
:0406F9000CDDB3C39E
:0406FA001836DB9F34
:0406FB00356481865B
:0406FC0001372FC7CC
:0406FD001DBE629923
:0406FE001C9A776D5E
:0406FF002E407A3CD3
:040700001C1D2C523E
:0407010004E6566351
:0407020022F7D856AC
:04070300061B7167F9
:040704002B34FA6A2E
:0407050028A7D7DA70
:0407060033F213B8FF
:0407070008828E7264
:0407080022EF2A7042
:040709003C9C42953D
:04070A0026F45CF481
:04070B0029C1AC2E26
:04070C001988A8E3BD
:04070D002511AE4BB9
:04070E003A34AA00CF
:04070F001634B0BE2E
:04071000285EC4DCBF
:040711002A8C66AD1B
:0407120037ADB12F1F
:040713000A1EF4F8CE
:04071400015E148CE2
:040715002FB422F1EA
:040716001BEC35E4BF
:040717002F55DBB1CE
:0407180039BB03796D
:04071900323448B876
:04071A002D62E01A52
:04071B000AE735753F
:04071C000C2DCA5A7C
:04071D000AF0FDBC25
:04071E0032C74D4D44
:04071F001586B16822
:040720003B5E260F07
:040721002E1163032F
:040722001ABA72DFAE
:040723000F0839473B
:04072400088DAD6F20
:0407250033B8DC6A9F
:0407260031ED978991
:0407270019CDD7CE43
:040728001955BA4A5B
:040729001E0AE80BB1
:04072A002E355DAB60
:04072B000E47C17440
:04072C0028A23D4D75
:04072D003D7B93D3AA
:04072E001A44CE5447
:04072F0025CF7A193F
:04073000089FA4D6A4
:0407310006DA12D3FF
:0407320002DA18D2FD
:040733001240926E70
:0407340033652CF20B
:0407350039450DD164
:0407360024E054BAAD
:040737002A8CCEE05A
:04073800391BEEEC8F
:040739000EABE9CD4D
:04073A001881935837
:04073B000A797CEFCC
:04073C003A23C05E3E
:04073D0013204868D5
:04073E0023E9E4FCCB
:04073F003DF72573EA
:040740001FCA0C0EB2
:040741003529B1CCD9
:040742002F2083CA17
:0407430033BECB3FB7
:0407440011868ED4B8
:040745001946880CBD
:040746003C3ECDA1C7
:040747000B1A790010
:040748003BFC65D33E
:040749000A8D6FC4E2
:04074A0003DFCB639B
:04074B0033B2666FF0
:04074C002B25E30274
:04074D0028C1C91DD9
:04074E002F23C2464D
:04074F003B65C29BA9
:040750002325349990
:0407510020B0F69549
:0407520019936BB3D9
:040753000441B02588
:0407540013C77CD279
:040755002032324FCD
:040756001AD7374B2C
:040757000CA2C9D453
:04075800262887596F
:040759002B4A355C96
:04075A00099BAAAAA3
:04075B00234A00131A
:04075C00179E7DC0A7
:04075D0028B96F60E8
:04075E000FCB3A7E05
:04075F000E92057978
:040760002D16A93574
:040761001A475337A9
:040762000793F33BCB
:0407630030E0513FF2
:040764000E0BBB16A7
:0407650015CDF72196
:0407660008CB6789CC
:040767002489B439F4
:040768000B0A55C95A
:040769002F97E05096
:04076A000022090B55
:04076B0008EBD74E72
:04076C0030E9EBB1D4
:04076D003B934BA1CE
:04076E00357E72550D
:04076F003AB15F122A
:0407700006376C2CB0
:040771002E2DA8F889
:040772003A93E55C75
:0407730026D1CEB10C
:040774003AD7ACCBF9
:040775001C6FD64BD4
:0407760037999CE62D
:04077700179485AF9F
:0407780006AADAFCF7
:04077900188404CA12
:04077A00135D009D6E
:04077B0014542217D9
:04077C001D34D32D28
:04077D00348331FD93
:04077E0013CDCC3A91
:04077F0036C25938ED
:0407800025873BF797
:04078100078777135C
:040782002E061AB570
:040783001660E61105
:04078400155E4B5F54
:040785000B4FAE6AFE
:0407860017E6FA5C1C
:0407870037312404DE
:040788000BF282CC22
:04078900245BA59DAB
:04078A00124046A231
:04078B0015C61EF77A
:04078C0009D4F45E3A
:04078D0010503C7A52
:04078E000E48ABD096
:04078F000C5388146B
:040790002E05D0233F
:040791003916DCB980
:040792000205DA275B
:0407930020954A76ED
:0407940037B43FE255
:040795002F0D93177A
:040796002BDDC35E36
:040797001BB55E57D9
:040798000D39EBC06C
:040799002A72490671
:04079A0006562BAD27
:04079B0021F67E24A1
:04079C0009FB36EC33
:04079D0018E93C0219
:04079E00137720BEEF
:04079F0009DB027AF6
:0407A000161029E81E
:0407A100077F9DE34E
:0407A2002DD010EC5A
:0407A30032C14BF123
:0407A4001F5433BAF1
:0407A5000CC6057108
:0407A6002C04EFFB35
:0407A70007A1BBE506
:0407A800117896CC62
:0407A9003DBCEE2A3B
:0407AA000C4E2E8241
:0407AB000926BBE37D
:0407AC001C711EB5E9
:0407AD00105951711D
:0407AE0016AA5A36F7
:0407AF001799AFEBFC
:0407B00030A25D0F07
:0407B10015366B5A34
:0407B200010E35D728
:0407B300349E85B536
:0407B40007839C4AD1
:0407B50024392A9B1E
:0407B6003AD2AFC4C0
:0407B700299D1B81DC
:0407B8002B7ED2F8CA
:0407B90027B244B16E
:0407BA001A3F766FFD
:0407BB0002FBB17A12
:0407BC000FC1770FE3
:0407BD002CB710BF86
:0407BE0015C56D44AC
:0407BF002C6AE72396
:0407C000355A17B3DC
:0407C10010E7821C9F
:0407C2003E21DD8B6C
:0407C3003272E9B2F3
:0407C4003C7AF24544
:0407C50004063809E5
:0407C60030CDFE6EC6
:0407C7000A3EB11C19
:0407C8002DF9A9A3BB
:0407C900210C7C750E
:0407CA000F0D7F4C44
:0407CB001593A4AE30
:0407CC00130307AC60
:0407CD000C5852E191
:0407CE00226A514CFE
:0407CF002FE1DE75C3
:0407D0002D069F95BE
:0407D1002D19BB67BC
:0407D2002ABE2AA26F
:0407D3000C9A194023
:0407D4001A8E8FA04A
:0407D500087B322645
:0407D6003D64AA19BB
:0407D70022891FA4B0
:0407D80035C4BB94D5
:0407D9000E53E3AF29
:0407DA003B775EF813
:0407DB0004E5B1522E
:0407DC001620A2C47D
:0407DD003D8650DE27
:0407DE0031412A1665
:0407DF002056332845
:0407E00015F1E91511
:0407E1003090FD9BBC
:0407E2000016516C40
:0407E300394B91AE4F
:0407E4003C97372BDC
:0407E5002295197BC5
:0407E60017551A4B3E
:0407E7003AD90A44AD
:0407E8000EDF7FE1C0
:0407E9002F5165BC6B
:0407EA002F28A0868E
:0407EB0008ADA9C2EA
:0407EC0030F3062AB6
:0407ED000BD6E61031
:0407EE00166B477AC5
:0407EF003A4084798F
:0407F00010580B2072
:0407F10001A3AE674B
:0407F20028BD819EFF
:0407F3001E67B520A8
:0407F40039CC3A873B
:0407F500160D2F2886
:0407F60013A2083210
:0407F7001772C3E9C9
:0407F80015D8514679
:0407F90024D0CB4FEE
:0407FA001D405D56EB
:0407FB000B8566D034
:0407FC0015EBFCCF2E
:0407FD001540FEDACB
:0407FE002433F72386
:0407FF000597908545
:00000001ff
