:020000040000FA
:0400000000000001FB
:040001003838E2B5F4
:0400020012614B75C7
:04000300205C064A2D
:040004000F06E911E9
:040005000198802CB2
:0400060033ABD31431
:040007001353EF425E
:0400080005C3A19FEC
:04000900087ED49108
:04000A001B01A6E24E
:04000B0015D23C5F6F
:04000C0000006C7C08
:04000D000A11CA9278
:04000E002495C8EE7F
:04000F001CCA0BF507
:04001000036BF64840
:040011002120A28F79
:040012003CB6547331
:0400130028C79A97C9
:0400140024B15310B0
:040015000B5C1390DD
:0400160029F3FED4F8
:04001700044D2C5414
:040018002DF8DC10D3
:0400190008D3A5540F
:04001A0031217C19FB
:04001B003968F4F458
:04001C0037B1A4F85C
:04001D0001B2D80D47
:04001E00180102D9EA
:04001F0018864EB63B
:0400200015BEBC61EC
:04002100247A2622F5
:040022000CA0963B5D
:040023003584E143FC
:040024000A81085AEB
:0400250029E37572E4
:040026002F725342A0
:04002700147D330908
:0400280024A427F0F5
:0400290001961F5DC0
:04002A0008A0C3A7C0
:04002B001652BDCDDF
:04002C00187C056EC9
:04002D000340917883
:04002E0002F992C57C
:04002F003E05040680
:0400300010C5F17492
:040031002838B2E0D9
:0400320005DFDA0606
:0400330003BC60F9B1
:0400340025DC58F877
:040035001A626A4F92
:04003600318929FEE5
:0400370000C644BEFD
:04003800250CDEFFB6
:040039003B151083E0
:04003A00145E2E49D9
:04003B001A900FCB3D
:04003C00083DC7387C
:04003D00243CDF0977
:04003E00145818C377
:04003F0030B7FE29AF
:0400400031D376BD85
:0400410028B4A4B388
:040042003397297B4C
:040043001B2972B251
:040044001CBF5787FF
:040045002D0ADD6A39
:040046001E95142FC0
:040047001E711C7496
:04004800340810E583
:040049000DB395C698
:04004A003D7E1F5286
:04004B00231813B8AB
:04004C000924E97E1C
:04004D00286B0467B1
:04004E001197A27AEA
:04004F001926774FA8
:040050001ABB27BEF2
:0400510007BBA98DB3
:040052002CE965F33D
:04005300255A839D0A
:040054001178710F9F
:04005500000BFC3E62
:040056001C0D5984A0
:04005700213AF084D6
:040058000172313DC3
:040059001E515016CE
:04005A00125E0CB670
:04005B003CC6F2D5D8
:04005C00394B39DE05
:04005D00067D8EF19D
:04005E00143F982390
:04005F0022EDBB894A
:040060001A48F91829
:040061002BF855F42F
:0400620000CADB7D78
:040063001CC3F68C38
:0400640016E5930DFD
:040065002A6BDE4CD8
:040066003D6AD070AF
:04006700054F1234FB
:040068003D694C950D
:040069002C0EDD87F5
:04006A00297C51FCA0
:04006B0018D4660936
:04006C002C5E9A3B31
:04006D003D8C464040
:04006E00167B0B2EC4
:04006F00198E4A227A
:04007000264C8EC1CB
:040071000EC7738CB7
:04007200063BCC2D50
:04007300110AB805B1
:040074001E4F8A1C75
:0400750037F7F54D17
:040076001FEDBE6A52
:040077000E4D0D7AA3
:0400780026134BF30D
:0400790037D49CB428
:04007A0026E0AB755C
:04007B0011C2145545
:04007C00253E4F5777
:04007D001C7AEE4AB1
:04007E0007D9D708BF
:04007F00397320FEB3
:04008000267A813724
:040081000176ECA276
:040082003E3CBC3410
:040083000391E6659A
:040084002BC30BF28D
:040085003D5776C4A9
:040086001918258799
:0400870025A5968194
:040088003506E1D286
:04008900111272A836
:04008A000E0B7A518E
:04008B00382EBFD07C
:04008C003B998830E4
:04008D0021BEF3F1AC
:04008E002940ADB3A5
:04008F0019BE2EC2A6
:040090003B4395A4B5
:040091002AA7CCFFCF
:040092000ED6F60D83
:040093000DA3117731
:0400940017899E2307
:04009500108E4BE49A
:04009600325952FB8E
:04009700291047B82D
:040098001FA1D05183
:040099001CE79A7452
:04009A001F6B5F7504
:04009B003EC8518387
:04009C0003ED451516
:04009D002ED295D9F1
:04009E000F1C90ABF8
:04009F001DCA9217CD
:0400A0003A7F344E21
:0400A1000170D5D83D
:0400A2001535BE9FB3
:0400A30039341635A1
:0400A4003572DC9B3A
:0400A5003C678E45E1
:0400A60033D7626981
:0400A7002E0A5306C4
:0400A8000D924B6406
:0400A9000CD7D03E62
:0400AA001C8E1CBBD1
:0400AB003C5043B1D1
:0400AC0037FDD8C183
:0400AD00014EB2232B
:0400AE0031A34463D3
:0400AF0000D8BAE0DB
:0400B0003683E2C5EC
:0400B10014BD9D19C4
:0400B2000C879D53C7
:0400B30014C66F649C
:0400B4001FAA9D00E2
:0400B5001B02EFDA61
:0400B60019249D4329
:0400B700067F0D9122
:0400B8000C2608C842
:0400B90003A50AB2DF
:0400BA0038CE8E3A74
:0400BB0013F1030A30
:0400BC0019DC954571
:0400BD00137E804AE4
:0400BE00399F2291B3
:0400BF00224C008F40
:0400C000030FD54F06
:0400C10037BBF6F261
:0400C2003054450869
:0400C30011C3B304AE
:0400C40018308BE580
:0400C5001D843FED6A
:0400C600294CF9FCCC
:0400C7003B058E68FF
:0400C8001FB13CC266
:0400C9000A753A2D4D
:0400CA00386986B853
:0400CB00044C5E087B
:0400CC003058A0FB0D
:0400CD00199954F633
:0400CE0014707C68C6
:0400CF0018F047429C
:0400D0000ED83525EC
:0400D1001FE6BFD295
:0400D2002E7F1EBCA3
:0400D3003A94747176
:0400D4001EBB0F3C04
:0400D500372317BDF9
:0400D6000A927FB259
:0400D7001CE8E474C9
:0400D80035A78A15A9
:0400D900163CC2F21D
:0400DA000667FF13A3
:0400DB0017D230E622
:0400DC0018B54049CA
:0400DD0039314AA0CB
:0400DE000329E2C24E
:0400DF002547AD9074
:0400E00013987BFDF9
:0400E10017E2DC52F4
:0400E2001B34DFF6F6
:0400E3000BCF664297
:0400E40035476182B9
:0400E500032C5ED0BA
:0400E6001CFB862455
:0400E70011308E4402
:0400E8001B29C4B05C
:0400E9000BAB42B962
:0400EA003013A882A5
:0400EB000180915DA2
:0400EC0002AAA8B408
:0400ED000405267769
:0400EE000888142B3F
:0400EF002F894B9377
:0400F0003075B6F4BD
:0400F100038DA7458F
:0400F200170BF7628F
:0400F30010897B40B5
:0400F4003BE556573B
:0400F500156A4975CA
:0400F6002E1C23F0A9
:0400F7000C19A274CA
:0400F80001E5A295E7
:0400F9001CE8CEB37E
:0400FA0009ABDA185C
:0400FB0030124D1B57
:0400FC0005933A7EB0
:0400FD0004BE1B49D9
:0400FE00399903AB7E
:0400FF002C66967164
:040100001AE21EB22F
:0401010021B8CBB0A6
:04010200065A589DA4
:040103003CE38B4B03
:040104002EF198E65A
:04010500029770C627
:0401060004FFB2EC54
:0401070018846A0EE0
:040108003DFD7368DE
:040109003897FB2CFC
:04010A001489875A73
:04010B0018F83E0D95
:04010C000D19C7CA38
:04010D0033E0AF0329
:04010E0037A51D14E0
:04010F001DAAB32B47
:040110003016C6558A
:04011100349E236F86
:040112000BB631AE49
:0401130005611C70F6
:0401140016735B50B3
:040115001933D79231
:040116001637642014
:04011700086B5F2CE6
:0401180016C5E738E9
:040119001059AFDBEF
:04011A003B1E2596CD
:04011B003984B998D2
:04011C0007539A1ECD
:04011D001D8BA2E4B0
:04011E000E15640E48
:04011F001AE8FCF6E8
:040120001585D3FA74
:04012100045DD73171
:0401220030B1D922FD
:0401230024089AC64C
:04012400392777CC34
:040125000A1175D76F
:040126001955168EC3
:0401270011E5A249F3
:0401280017D341E1C7
:0401290010AAE369CC
:04012A0039F24676EA
:04012B00047220AE8C
:04012C00067FFFEC5F
:04012D00281CE03278
:04012E003B6F305F94
:04012F003B8641AD1D
:040130000DC7B41A29
:0401310023BBB6C175
:040132001EBAA90840
:0401330000614873AC
:04013400073EABD601
:0401350019665613DE
:040136001ED385143B
:040137002A81349B4A
:0401380039A77B1751
:0401390020E16AF166
:04013A0017631B5ECE
:04013B000D5C64FEF5
:04013C002EF61CCCB3
:04013D000955B3C5E8
:04013E0027190ACEA5
:04013F00012F9B0CE5
:040140000E697725A8
:040141001181895649
:040142002308B0736B
:04014300057695ABFD
:04014400139CEF9188
:0401450034FD3FF353
:040146001A4CC1246A
:0401470019EBFBF5C0
:04014800236BB1B5BF
:04014900122A1F4D0A
:04014A002FCFE04291
:04014B0016B827C4F7
:04014C00081939084D
:04014D0007EEAF6C9E
:04014E003BD5BF33AB
:04014F00206499652A
:040150002DE5145D28
:040151002E652230C5
:040152000EE890041F
:04015300068939E7F9
:040154003B62328058
:04015500126B85EDB7
:0401560029DC256516
:040157000A69CBB3B3
:040158002B86F1E41D
:040159000E2E7A9D4F
:04015A001F81B95DEB
:04015B0010D0B0FA16
:04015C00004CC9C8C2
:04015D000A987F1F5E
:04015E0028375831B5
:04015F003595749BC3
:040160003AAE0F7133
:040161000F94BAFC41
:0401620000A870A0E1
:04016300086E1CB84E
:0401640008D90F4364
:040165000FDD878E95
:040166001AE8CEA223
:040167002B9F140EA8
:0401680027121C5CE2
:0401690031BE94B857
:04016A000EF31E472B
:04016B0026A58289BA
:04016C003352C164E5
:04016D003E6CC728F5
:04016E00397A0C5E70
:04016F0013437A912B
:040170000113992CB2
:040171002D9D7562E9
:040172002FA03FFF7C
:0401730033A35372ED
:04017400319C49165B
:0401750004ED53360C
:0401760036B8849380
:040177000E0CC39D0A
:04017800086B83CCC1
:0401790027B4EB902C
:04017A0035154244B1
:04017B000E5468F7BF
:04017C003E2CBF75E1
:04017D001349E4B08E
:04017E0019CE414312
:04017F0012202A0917
:04018000352858FACC
:040181001C6F0DA63C
:0401820013ADDCB22B
:040183000174E3C858
:04018400338DD84699
:040185003D92952DE5
:040186000CE06D42DA
:040187002FFAF2E574
:0401880002D1AD4AA9
:040189001344E3F048
:04018A002F9FB3E30D
:04018B0005F0090E64
:04018C000AE4354903
:04018D002F9C734DE3
:04018E003C91DC3C88
:04018F000176B25CE7
:040190000BD1F0DEC1
:04019100313ED375B3
:04019200133CADBBB2
:0401930003A5F00EC2
:040194001A4B22FAE6
:0401950029D786F9E7
:040196001D3E93B4C3
:040197001146408746
:0401980022D4888D58
:04019900354C0312CC
:04019A0018CF947472
:04019B00090D32090F
:04019C00092E3F1ECB
:04019D001B13739F1E
:04019E001E5EE95B9D
:04019F000116287BA2
:0401A0001BD63BAF80
:0401A10002162458C6
:0401A2000AFF48AE5A
:0401A3002E30178F54
:0401A40036DD6425BB
:0401A500305CB8AC66
:0401A60038DCAD573D
:0401A70003DFF8BAC0
:0401A80009172AAD5C
:0401A90019C2E64150
:0401AA000A2B37A045
:0401AB0019CF7DB437
:0401AC0033828CB15D
:0401AD0020EEB70683
:0401AE0013F0894A77
:0401AF00232B6D7F12
:0401B0003EABBF2B78
:0401B10039F1AFCAA7
:0401B20002F447EF1D
:0401B3000F9AEB674D
:0401B40011C99819BC
:0401B500092AC6FE4F
:0401B60003665FF08D
:0401B7003818A69DB1
:0401B8002AB678C625
:0401B90032D6F6083C
:0401BA00076D9568D0
:0401BB003BAA60C734
:0401BC0018465097FA
:0401BD001DC9F9C59A
:0401BE000B8BA6AA57
:0401BF002AE95EF1DA
:0401C000245019644A
:0401C100099B7B33E8
:0401C2000EDFB26139
:0401C3001E9A8F2AC7
:0401C4000545BE230C
:0401C500148A341252
:0401C6000FDC318C8D
:0401C700259A6D58B0
:0401C800344E9338E6
:0401C9003A93E3FA88
:0401CA002EF45E6849
:0401CB003E575EA09D
:0401CC001AD23DB94D
:0401CD003299201D26
:0401CE00149B394CF9
:0401CF000B52DB7D77
:0401D0000A0ED3D967
:0401D1002098AD3F86
:0401D2001A4EF46C61
:0401D3003B1DD5AF4C
:0401D400037A94C94D
:0401D50026DF7FEDB5
:0401D60022B14948C1
:0401D700294CE9D5F1
:0401D800313FC34AA6
:0401D900214772A99F
:0401DA00397BAD3A86
:0401DB00295AF8FEA7
:0401DC00015E17BDEC
:0401DD000D4A463849
:0401DE00025BC6E01A
:0401DF003648EEAB05
:0401E0000884D75A5E
:0401E10017C9AFA9E2
:0401E2003EA9A2F69A
:0401E30027A6D7D89C
:0401E40003157AC9BC
:0401E50003DA9C623B
:0401E600294BFCD1D4
:0401E700395B7B9C69
:0401E80028D73930AB
:0401E90007598C2CFA
:0401EA0031BAD06EE8
:0401EB002533611344
:0401EC00235238E280
:0401ED0024BC38C72F
:0401EE002E9A4AEF0C
:0401EF0029EF682567
:0401F00020C44009DE
:0401F1003E2D10D1BE
:0401F200020659E9BF
:0401F30003754C80C4
:0401F400170FACB77E
:0401F50028B2689F25
:0401F60023FB07657B
:0401F7003CA6C8F565
:0401F8003BD2A878D6
:0401F9000A7F34F253
:0401FA003D98CF4815
:0401FB001155C57F56
:0401FC001D6297C524
:0401FD00254BE5DACF
:0401FE000FD1D55DEB
:0401FF0000C7080726
:040200001434B4D02E
:04020100313D7ABB56
:040202001F75F2C8AA
:04020300219049EC11
:040204000A7BD2CED1
:040205000723AB1709
:0402060021D65C7E23
:0402070021DD1F9442
:0402080017C86CACFB
:04020900139B0D2E08
:04020A00210679BA96
:04020B002F1AD60DC3
:04020C0035BF31DBEE
:04020D00069E0189BF
:04020E0005ADC28AEE
:04020F0036632459D5
:0402100010F8F1AD44
:04021100253486D03A
:0402120037D9BA9886
:0402130023AD813462
:04021400197D0A3D09
:040215001DE9A86CCB
:04021600352D350F3E
:040217003E2CD8F2AF
:040218002C342D4114
:040219002E9E7EEFA8
:04021A0032DC690A5F
:04021B0035FAC92EB9
:04021C000D89EE7CDE
:04021D003B80CC7FD7
:04021E00331E212B3F
:04021F00262C4792B0
:040220001ED28587DE
:0402210028EAF0A730
:040222002397AB6D06
:040223000D9EC1D695
:0402240014DD0B24B6
:040225000F11FF4076
:040226002E62C10182
:0402270027387D0EE9
:0402280003CBBCAE9A
:0402290031683AC03E
:04022A000F45DC8B15
:04022B00351400CBBB
:04022C00345D6C29A8
:04022D001A62BE395A
:04022E003848C75431
:04022F0001CC1422C8
:040230002544716888
:040231000CB688F986
:0402320003B1985F1D
:04023300048E370BF3
:0402340012E8C5BA4D
:040235003B051FACBA
:0402360030E15CF463
:040237000245AAA82A
:040238002BE1556CF5
:040239000D74020A34
:04023A0026479B7B3D
:04023B002638155EEE
:04023C001B6E8E03A4
:04023D003BF34EA899
:04023E00097DDBA3B8
:04023F000BBB45763A
:0402400023AA1D7060
:040241000BA7816125
:04024200009FA1C4B4
:0402430025FD85749C
:040244000FDEA4879E
:040245000C4D1D9CA3
:0402460002B6F17794
:040247000E8DBF86D3
:040248002F75DE141C
:0402490022E891D640
:04024A00285F169083
:04024B003E6358E6D0
:04024C002F5144A842
:04024D0035B782DC63
:04024E002C2109DD79
:04024F000589529338
:0402500028C089FC3D
:040251003778125296
:040252000F7B24F406
:0402530031D533C6A8
:040254000D47AFB8EB
:040255001E0CAF5E6E
:0402560037436807BB
:04025700159FABA89C
:040258000003CFA729
:040259001B37D5CAB0
:04025A001179B6D58B
:04025B003729F9A5A1
:04025C000BD8DFAE2E
:04025D00095317EB3F
:04025E00327CBB74BF
:04025F00094C45D72A
:0402600028AAA631F1
:04026100094065A249
:040262000BE8F7F2BC
:040263002E41E00840
:04026400249308DEF9
:040265000F9C96D67E
:0402660026B64CFE6E
:0402670010C628A6EF
:040268000789ABD285
:040269003136A9BAC7
:04026A001EDF64FE31
:04026B0000387815CA
:04026C001804E5800D
:04026D001EF1827E7E
:04026E0039A21CA7EE
:04026F00112B93FCC0
:040270000205B45D72
:04027100239B3CB2DD
:040272000E08302C16
:040273001FA19B70BC
:040274002FEBC4B4F4
:0402750014E459191B
:04027600042FDDB6BE
:04027700213305CB5F
:040278003541008587
:040279001638279775
:04027A00027BF15AB8
:04027B0029D9E06934
:04027C00087A958ED9
:04027D00039C40B9E5
:04027E000789CD140B
:04027F001F0A539F60
:0402800034BEE46D37
:040281000D219007B4
:040282000EC824ED91
:04028300314838FEC8
:040284002F64007370
:0402850005E6BAC40C
:0402860015BADB4E7C
:0402870005B4B69470
:0402880035384A2497
:04028900123D5F6063
:04028A003E03B8ACCB
:04028B000D875F6814
:04028C00028445B3F0
:04028D003274A0B770
:04028E0028D5C54565
:04028F0029766DEB74
:04029000165069DBC0
:040291000CBD1CBFC5
:040292002B56FC41AA
:04029300336ED5D61B
:040294002C6ABD868D
:0402950021F69300BB
:040296000BC59835C7
:040297002841FF03F8
:040298002DF9425C9E
:040299001F0AB58003
:04029A0035E462E6FF
:04029B0014FC1A38FD
:04029C003E4B838BC7
:04029D0013BA6A84A2
:04029E00136D50A2EA
:04029F0027A582D439
:0402A00023C8083235
:0402A10020F2F958F6
:0402A20033AC015820
:0402A30027DC83EDE4
:0402A40035DAA52A78
:0402A5003701B46405
:0402A6003AE892554B
:0402A7000ECC2EE269
:0402A8000B61EFBD3A
:0402A900289B25DE8B
:0402AA001E6744EB9C
:0402AB00170C8A376B
:0402AC001A98D26C5E
:0402AD000A61ADB87D
:0402AE0011816D62EB
:0402AF0016F79DF4AD
:0402B00007255B556E
:0402B1002CED31708F
:0402B20036D2576F7A
:0402B300274DF3EAF6
:0402B4002C13C7E45C
:0402B500264FB967B0
:0402B6002578515204
:0402B7003901FED635
:0402B800269B4E61D2
:0402B9000739B3321C
:0402BA003AE6353DAE
:0402BB0030734A86CC
:0402BC001FF00CD54E
:0402BD00370EE4A96B
:0402BE003964CF16BA
:0402BF00090899761B
:0402C00017E8B65035
:0402C10003E4FFB99A
:0402C20001E5BB0196
:0402C3001F69553327
:0402C40025BAA04F68
:0402C500286BD7BE0D
:0402C60031A71FD36A
:0402C70038B84D3BBB
:0402C8003D2FDC04E6
:0402C9001EFDAEC5A3
:0402CA000A3133883A
:0402CB0007C80D8EC5
:0402CC000AB1E57519
:0402CD003A7DE2E3B1
:0402CE00394AFD3676
:0402CF0012F692741D
:0402D00022B6B91B7E
:0402D1003910623945
:0402D20023901873EA
:0402D3000DF9EA9E99
:0402D400116FD8438B
:0402D50017BB8DE6E0
:0402D6001872444610
:0402D7001F9E6B58A3
:0402D80029786E34DF
:0402D90026A144EF27
:0402DA0023B50B3508
:0402DB001937BF70A0
:0402DC001858D120BD
:0402DD0015FF3D0EBE
:0402DE00332C1E4956
:0402DF001D983465CD
:0402E00023D8E657E2
:0402E1000B259A6BE4
:0402E2002EA66FB025
:0402E3003E14E805D8
:0402E40031A30991A8
:0402E5003881F50D5A
:0402E600277B8C01E5
:0402E7003333CEB32C
:0402E800317EA1744E
:0402E90031D354CBEE
:0402EA0019551EFB89
:0402EB003D13C9D026
:0402EC0022EC083BBD
:0402ED001F5BDC9423
:0402EE003BEC08AF2E
:0402EF00368213340C
:0402F0001FE1788210
:0402F10016D3CCB4A0
:0402F20037E7F84CA6
:0402F3002AEB4A4662
:0402F4002782CEB5DA
:0402F5003992604793
:0402F600224CB9D409
:0402F70031F917447E
:0402F8001CCCA44432
:0402F900023D11872A
:0402FA003E6DA1476D
:0402FB0011DADF0C29
:0402FC0031DCFFE909
:0402FD003932EFC4DF
:0402FE0019BBF442F2
:0402FF00134D37C89C
:040300001B00376F38
:04030100362432F676
:0403020013FF37733B
:0403030008479EA168
:0403040018DC0F33BF
:040305002F696D8768
:040306000683A69232
:040307001A3CFAFAA8
:0403080026A1EABE82
:0403090001B27026A7
:04030A000975FB86F0
:04030B00030F438A0F
:04030C000BDD7F2264
:04030D00096819A6BC
:04030E001DB33D2BB3
:04030F0033DCB3B078
:040310001CD0B5C583
:040311002DA5AF82E5
:040312000E0A3B781C
:040313003E6ADBC89B
:040314000125994FD7
:04031500145E577AA1
:0403160002924C9172
:040317003162E990D6
:04031800068BD7FA7F
:04031900040E642941
:04031A0029AF9189ED
:04031B001814EFAE15
:04031C001A86F5A8A0
:04031D00206B8C22A3
:04031E0028DB55E1A2
:04031F0013EA691361
:0403200004F3944905
:040321003009B3EB01
:040322003C2A3DCC68
:040323002F818C7525
:04032400177A09CA71
:040325001A69C8DBAE
:040326000140025D33
:04032700229156B118
:040328003001AF9061
:0403290010D6007A70
:04032A001D783E6C90
:04032B0021CEC6CF4A
:04032C000FFA96CF5F
:04032D0021E9F6DDEF
:04032E001B3796E7FC
:04032F00184112A0BF
:04033000017DCD4C32
:040331001799807622
:040332002B805EE4DA
:0403330033886E0994
:040334002B9176D7BC
:04033500366B960588
:040336003083996B0C
:04033700319765E1B4
:04033800398044AC18
:040339002ED8947AAC
:04033A0033C65CE387
:04033B0030F05B9DA6
:04033C001A1B7E3DCD
:04033D0016EBD8667D
:04033E003165DB4FFB
:04033F003480BF5CEB
:040340001367F8E562
:040341001BD6686FF0
:040342000457200A32
:04034300196FEF56E9
:0403440024E9700137
:04034500230B123044
:04034600325468893C
:0403470039024787A9
:0403480009E2B4759D
:040349001BA7B1D26B
:04034A0034DB38F474
:04034B002C8725E3F3
:04034C00101D09680F
:04034D0007A939B013
:04034E000287B55914
:04034F0035D009BAE2
:0403500010526CBC1F
:040351000428D2BAF0
:04035200353C1770AF
:040353003E3736EF0C
:040354003350B39AD5
:040355001BCE89F53D
:040356003CE62AE770
:0403570027C1D10DDC
:0403580019C8528CE2
:04035900105E240509
:04035A0029DD5EBE7D
:04035B0031DED12896
:04035C0026CBDEE0EE
:04035D00047C82E9B1
:04035E00112E3E4FCF
:04035F0007AB045094
:0403600024DB9DF805
:04036100215DFEA676
:040362000035D2B6DA
:040363000FF279A27A
:04036400202ADF4923
:04036500358B72283A
:0403660007D1C3BA3E
:040367002F59D93FF2
:040368001DF6317FCE
:040369002659AD1D47
:04036A0010EF649894
:04036B001647C982E6
:04036C001884E47895
:04036D00002526C77A
:04036E003C36D7CC76
:04036F0038A326EE9B
:040370002396BBCE47
:040371001493CEE62D
:04037200115D38974A
:04037300337B7CBD9F
:0403740012F159C564
:040375000FB7D3D01B
:040376002D34BC6105
:0403770005D84C7DDC
:0403780039411FC820
:040379000A5ABC243C
:04037A000C6A2ED10A
:04037B002BA2E17759
:04037C00118DA251EC
:04037D0006C11BDEBC
:04037E001976FF27C6
:04037F001E4FCEA29D
:04038000181676B520
:0403810026563D9B24
:040382001B93DCE904
:040383001189BE74AA
:04038400215361FEA2
:0403850007B23F8EEE
:04038600055EC3CB82
:0403870018731E4782
:040388000144ACEB95
:04038900172B1BDE35
:04038A000357DEE94E
:04038B0004B43A1E5E
:04038C000BD5B212C9
:04038D0013E2F8DEA1
:04038E000C011D3B06
:04038F0012F111E670
:040390002A5A657A06
:040391003506A37E0C
:0403920017A0710E31
:040393000D68742A53
:040394002F36E3A479
:040395002C32FF8582
:040396000BBA3F1649
:0403970034A0C6695F
:0403980027A1C4488D
:040399002B6E113086
:04039A0026EEF7D97B
:04039B00387192B271
:04039C0003B855F25B
:04039D003BEFFD74C1
:04039E00160881FAC2
:04039F000F19E5301D
:0403A0001BAF21E589
:0403A100129F9416FD
:0403A2000E03C2671D
:0403A30001840BF7CF
:0403A40038892E6EF8
:0403A5000AF0483ED4
:0403A60005EF55DE2C
:0403A7000425C4BCA9
:0403A80031CBB2CCD7
:0403A90033EB4CAC3A
:0403AA003264470B67
:0403AB0034FB292CCA
:0403AC001220D71C28
:0403AD0009A4E27E3F
:0403AE001D9585B064
:0403AF000CA1FD069A
:0403B00034C883A426
:0403B100199D13245B
:0403B200042735489F
:0403B30031FA93E7A1
:0403B4002E1854D0DB
:0403B500256159A5C0
:0403B600100AB64C27
:0403B700083625CF10
:0403B8001077E24197
:0403B90002EACC6028
:0403BA001552CE28E2
:0403BB001D650117A4
:0403BC0029589847DD
:0403BD003368493424
:0403BE0011B827B497
:0403BF002BF4C193C7
:0403C00020D08524A0
:0403C10016C8C75D36
:0403C2002FD8411CD3
:0403C30028CD961695
:0403C40013B4E70B7C
:0403C50032A379776F
:0403C6003DA4968D2F
:0403C7002222086086
:0403C80032A76EFCEE
:0403C90014150C6794
:0403CA001CD30C969E
:0403CB0032177B4A20
:0403CC00296B74C461
:0403CD00370BA5B392
:0403CE00089706EE98
:0403CF002D65B430B4
:0403D00007C86B4BA4
:0403D100195CB22FD2
:0403D200375BFDD6C2
:0403D3002494538D8E
:0403D4000F2BBA949D
:0403D5000B3D533554
:0403D6001D092EE0EF
:0403D70026F299551C
:0403D80017FEF767AE
:0403D90037BB67A324
:0403DA003D03B473B8
:0403DB0000C738D847
:0403DC0008878EE31D
:0403DD002781F6F787
:0403DE0028E4DC0C27
:0403DF001087B51FAF
:0403E0002874B57D4B
:0403E1001D7E9643A4
:0403E2003C29025B55
:0403E30016F1DDE84A
:0403E400260F20734D
:0403E5001BAE96B302
:0403E600011B825322
:0403E70004FAA74825
:0403E8001000EB39DD
:0403E9003D338F69A8
:0403EA0039AF5F3098
:0403EB002864B27858
:0403EC000DE85EAD0D
:0403ED002DB4D984CE
:0403EE00132B202D80
:0403EF0034C534C01D
:0403F0001F13F9F9E5
:0403F10015F452E5C8
:0403F20028FE224B74
:0403F3001DAB5E4799
:0403F400353DDFF9BB
:0403F5002A0959294F
:0403F6003B19F7A018
:0403F70023A0CC5D16
:0403F8000A6EBFC703
:0403F9002C5CBD00BB
:0403FA000A8670B14E
:0403FB003B5631DD5F
:0403FC003761EAF08B
:0403FD003B309D02F2
:0403FE0023CFF98888
:0403FF0004676B26FE
:0404000016352CA8D9
:040401000504334279
:040402000B9B0B6DD8
:040403002999FB84B4
:040404002B4CC66057
:0404050018473F62F3
:0404060026192F8FF5
:040407000CD8FC9180
:0404080037AAAC9AC9
:0404090012A87EBEF9
:04040A0008E20006FE
:04040B000B5BE6CDD4
:04040C003B785B06D8
:04040D003C58A34F65
:04040E0014FB70C1AA
:04040F002E613C1707
:040410002A604BB85B
:040411001BDFE18A82
:0404120036831B789A
:040413001CA76C0CAA
:04041400223C3274E0
:0404150022C56BCFC2
:040416001CCA7B91F0
:04041700118233AE6D
:040418000CD2383298
:040419002384060B27
:04041A0005CBE53FEA
:04041B001B527F0AE7
:04041C000F9603F044
:04041D001E5746B46C
:04041E0004378FFA16
:04041F00071D34532E
:040420003071251002
:04042100308B503795
:0404220029E4D48372
:04042300114E520B19
:0404240030483A140E
:040425003C9F53FEA7
:0404260035D99482AE
:04042700128D91A8F9
:040428000D630D55FE
:040429003D39FACA95
:04042A0021272DD089
:04042B001AE84FEB91
:04042C000C506016FA
:04042D0018A1BACD8B
:04042E00008DEB1939
:04042F002A1C4371CF
:04043000210C3E4D10
:04043100292B6E55B0
:04043200113A69F71B
:0404330003154D550B
:04043400393A3A0E09
:040435002F82481AB0
:0404360014ADB77ECC
:0404370038BDAB5CC5
:040438002037BD6448
:040439002D04CCC200
:04043A0006DC6B274A
:04043B002F040E027A
:04043C0032C670391B
:04043D0032750612FC
:04043E00122F69E32D
:04043F000D814BD907
:0404400026D1A3F22C
:0404410028F5928B7D
:0404420035ADE5529D
:040443001EF96E919F
:0404440031A5B4CC5E
:0404450028B4B838E7
:0404460021A84F0B8F
:04044700286F4FC506
:0404480031A60FEBDF
:040449000B2E3193B2
:04044A001B22EE8CF7
:04044B00093031C97A
:04044C001BC53E2D61
:04044D003135589756
:04044E0033E94F033C
:04044F00024684BD20
:0404500007594D11EA
:0404510030B094D360
:04045200160EB3339C
:0404530038817997DC
:040454002DF68415E8
:040455001519F3E59D
:04045600092E6CF20D
:040457001FF8D97E33
:040458001DE4E9D6E0
:0404590003A6482787
:04045A0009D72FCCC3
:04045B0004C8039E30
:04045C000DF4738B9D
:04045D002FA0C61DE9
:04045E001F382A9C7D
:04045F002152378D62
:04046000078086CAC1
:0404610031A69A7BAB
:040462001C82CD5DCE
:040463000ACA49D0A8
:040464001CB7580762
:04046500266B60970B
:040466003A0525D25C
:0404670000C8604623
:040468000206833ACB
:0404690013D3DFCA00
:04046A00183E3DA556
:04046B0029822AC0F8
:04046C003CDE74E41A
:04046D0029DE61D44F
:04046E00366E83CF94
:04046F00317F6E1E4D
:04047000267165CCC0
:0404710033A23ACAAE
:040472000562858317
:04047300048C288E3F
:040474002154049972
:0404750026A97B9A9F
:0404760037C74E0E28
:0404770026156D5089
:040478002B10655090
:0404790036CC8A6192
:04047A001F82CE42CD
:04047B00009DA90B2C
:04047C000DCF1C6B19
:04047D0018D158AB8F
:04047E00364BE628EB
:04047F0027DF84EE01
:0404800030728C8DBD
:04048100055C93D2B1
:040482003E67567308
:04048300179E70FA56
:0404840018AE8860C6
:04048500383394581C
:04048600129F898CAC
:0404870012AE8444E9
:0404880021FECFFB87
:040489003C0EEBF842
:04048A002CFBFD9AB0
:04048B0022C8866B92
:04048C0027073CA062
:04048D002594287614
:04048E000ED5F7EDA3
:04048F003848084E93
:04049000341263E0DF
:040491003E90999070
:04049200052D8FA6FF
:040493003BE4A0ADF9
:040494002F4A66DEA7
:040495000FA68466C4
:040496001B3B80E7A5
:04049700086603C12F
:0404980000949A181A
:0404990007252041D2
:04049A00210BF92D0C
:04049B0014248C9405
:04049C0006DA869165
:04049D001F72B5B263
:04049E0018DB93775D
:04049F000CB6685BD4
:0404A00008DF29DB6D
:0404A1002CD30E61E9
:0404A20024B3B4DCEF
:0404A300142F2EFBE9
:0404A40028FCC2A0CE
:0404A50006E6FF2543
:0404A600157B74B995
:0404A7003BB264E719
:0404A80010BE4E66CE
:0404A9001F36E3E82F
:0404AA00273176B6CA
:0404AB002E20DA2005
:0404AC0023209AC2AD
:0404AD002E2B9592CB
:0404AE001CE82B2DEE
:0404AF0013EC82B810
:0404B0000C697EB69F
:0404B1003297260157
:0404B2000BEA70825F
:0404B3001BD9ECCA9B
:0404B4003B20E47E87
:0404B5000B6C0E7747
:0404B6003B0A047881
:0404B7000EFED7D589
:0404B8001024914D2E
:0404B90030A5BAFBB5
:0404BA003AEBB3E086
:0404BB000A64CEB74A
:0404BC00385E12B9DB
:0404BD00073E7D1C5D
:0404BE001CC54264B3
:0404BF000C53B9BE63
:0404C00009236EE9B5
:0404C1000B5121EAD0
:0404C200280C642975
:0404C300079E4D46FD
:0404C4001A32C16BBC
:0404C5000118218F6A
:0404C600119D3ABD8D
:0404C700209942B185
:0404C8001856BC42C4
:0404C900396C5D0E1F
:0404CA00288E26C092
:0404CB0012CA0ABE89
:0404CC001D73F51493
:0404CD002AAB11CD78
:0404CE0003518AB19B
:0404CF0018C6E8C0A3
:0404D00014FEA695DB
:0404D1003368936198
:0404D2003C001121B8
:0404D3000DCEC16F1A
:0404D4000C1EDDEF2E
:0404D5000D2E979BB6
:0404D6000A437EF562
:0404D7001EF53B953E
:0404D800172EF2D217
:0404D900188ED19B0D
:0404DA001011D40128
:0404DB003A699236B2
:0404DC0027FF67EAA5
:0404DD003383F6333C
:0404DE002541D05C88
:0404DF003A406DEC46
:0404E00000643ED5A1
:0404E1001346BC50B2
:0404E2003DF0C8F32E
:0404E300313B82B572
:0404E400150E0DAE36
:0404E500037AC0AA2C
:0404E600034300BB11
:0404E7002131354644
:0404E800274CC84491
:0404E90007786BBB6A
:0404EA0038477C38DB
:0404EB001DA469B52E
:0404EC0008804A7FBB
:0404ED003594D576F7
:0404EE001E476EBA7D
:0404EF002C4756A59B
:0404F0000F03E3EB28
:0404F1001B1D045675
:0404F200092338F2B0
:0404F30028DF1C954D
:0404F40007AD6D10D3
:0404F5003CE705AE2D
:0404F600179769EDFE
:0404F700039B5C7A8D
:0404F8002C319AD633
:0404F9002204D09E6B
:0404FA00265FE5CDC7
:0404FB001ACB47735E
:0404FC0034A96FE6CA
:0404FD003A7232D548
:0404FE0006959D7052
:0404FF003E406D9678
:040500002063867E70
:040501001E1BBF19E5
:040502002FA7220EEF
:040503002F243CDE87
:0405040037E8FB5584
:04050500078779C724
:040506003E8589069F
:040507002FBAF16EA8
:040508003DD6E07587
:040509001AF2163B91
:04050A000FB376E1D4
:04050B00022FF124A6
:04050C0019F21518B3
:04050D000A0EE81CCE
:04050E0012C2147B86
:04050F000E4AD21DA1
:0405100009E1389C29
:040511003CFEE36465
:04051200188C7AEDDA
:04051300203706D9AE
:040514002E35A9DFF8
:0405150031537A0BD9
:0405160004B465DEE6
:040517000543F9A9F6
:0405180027F82AD1C5
:0405190009F42C3184
:04051A002E95AF2F3C
:04051B000CB1E95DD9
:04051C000FF92A8029
:04051D002BE3EB18C9
:04051E0001075C660F
:04051F00231AA5797D
:040520000B780C3513
:04052100061B6C2326
:04052200085AF76814
:0405230006C030C41A
:0405240007C4A43430
:040525003DEA028C1D
:0405260001585E4FCB
:040527003CE02F2065
:040528001CBE7A6A11
:040529002D03B3D318
:04052A0035ABC7A284
:04052B003CB6F5FCE9
:04052C0037EC31DE99
:04052D000D271A6814
:04052E000F0FA7F212
:04052F00312A4348E2
:0405300026656BC60B
:04053100310BE0E2C8
:040532002FF6FFF2AF
:040533002A07EA5D4C
:040534003AA7D1B45D
:040535002F47D07606
:040536000ACCADC678
:040537001DA50D34BD
:040538002C616EF3D1
:04053900176493A907
:04053A0009FF573529
:04053B00398AA1F761
:04053C0021977998F2
:04053D001B8FF0C35D
:04053E000EEDBE619F
:04053F0026047875A1
:0405400002611DE255
:040541002A3A6F8063
:040542003993A14206
:040543000A1421FD78
:040544001F1FF50E72
:040545003C22A97635
:040546001138886878
:040547001EAA444361
:04054800116ACB9CCD
:040549001A2AB2DADE
:04054A0024F9093453
:04054B0005AB730386
:04054C0000E5CD5C9D
:04054D0035F7B912B3
:04054E0001B99087D8
:04054F000B972124C1
:04055000240C65070B
:040551001587754C49
:04055200028DD4A2A0
:0405530013651F7E8F
:040554003560517C41
:040555001A526C6763
:040556000C92255589
:040557003370EFAA64
:0405580038324704EA
:040559001500DF8327
:04055A0027BAF26A60
:04055B0023EF296CF5
:04055C001EFFA522B7
:04055D0039B8BBA24C
:04055E000F17520F12
:04055F00151447899F
:0405600034D76BE140
:0405610001C7C86E98
:0405620006A9DB7695
:04056300104F758040
:040564002EEFB4E2E0
:040565001DD7632E0D
:040566001871DEBA70
:04056700005162409D
:04056800302E1EEF24
:0405690006D2D6C719
:04056A0018E9F9345F
:04056B003E504DF5BC
:04056C00196AD1B97E
:04056D000BE37A35ED
:04056E000D3C09A691
:04056F001F1ECDD5A9
:040570001F6AA468F2
:04057100060B3EBE79
:04057200039E2FE0D5
:04057300231E967439
:040574001B837C8EDB
:040575003E3BF09C7D
:040576001EC67A29FA
:040577001C98B30D0C
:04057800015775B6FC
:040579001B3D792489
:04057A0021369D8DFC
:04057B002491596D01
:04057C0023634C1E8B
:04057D0010EA819867
:04057E0027A1AA41C6
:04057F003099938993
:0405800038FC0D44F2
:0405810011C9F01498
:0405820001FC42B581
:040583002B1004E94C
:040584000C35C9D792
:040585003DF1AE6531
:040586003E2B92F086
:0405870007A10DA417
:040588001BD5496ACC
:040589001192C8699A
:04058A002D819F0A16
:04058B0001A0EE6C71
:04058C000EBEBA8560
:04058D000AC89AF707
:04058E0033C4A83F8B
:04058F002EA4627DB7
:040590002554630E7D
:0405910001E2A9F0EA
:04059200011800E06C
:040593000933BE4327
:040594000BA8174653
:040595003955408311
:040596000E60F240C1
:040597000589098049
:0405980018625AF596
:04059900375B310596
:04059A0035BBB91C98
:04059B0019CC1FFE5A
:04059C003D29A25003
:04059D0026AB8CFFFE
:04059E00258EEA9D1F
:04059F0028145C9030
:0405A000366CB9C735
:0405A1001272206F43
:0405A2001A183E2BBA
:0405A3001832907109
:0405A4001073408F01
:0405A50010E97AD10E
:0405A6002C751CC3D1
:0405A70004FE7A7A5A
:0405A8002103F51E18
:0405A90029439CBB8B
:0405AA0003D39F2EAA
:0405AB0033695088D8
:0405AC0019D9926562
:0405AD00290669E9C9
:0405AE00222813C329
:0405AF002D4D78F264
:0405B00013BF7CDB1E
:0405B1001FD78C07BD
:0405B2001E5BE5AC3B
:0405B30004EEC27818
:0405B4001F43298335
:0405B500239E8750AA
:0405B60039B87BAD28
:0405B700060C091510
:0405B8001315584778
:0405B90036A952020B
:0405BA00015F9B76CC
:0405BB000A2C5EFAAE
:0405BC00197CBBF9F2
:0405BD00291A906601
:0405BE003C079AE27A
:0405BF003A70C99C29
:0405C00017AB2976D6
:0405C1002E9F0D3C20
:0405C2002A88801CE7
:0405C30027D937BB42
:0405C4002284956F89
:0405C500041C329050
:0405C60010B512C991
:0405C70002EF678652
:0405C8003C77EC98F8
:0405C9002A38B26BAF
:0405CA002675F5CBD2
:0405CB003E4F12A2EB
:0405CC003665B44894
:0405CD000C8F688B9C
:0405CE002B19941B36
:0405CF002A199DC286
:0405D00031B2FA2723
:0405D10010AD36A78C
:0405D2003E81C8821C
:0405D3002FD2A7D7A5
:0405D40025B65131C6
:0405D50035CB46E9F3
:0405D60006446FE781
:0405D7001498F2DBA7
:0405D80011E154EDEC
:0405D90017C131A372
:0405DA000FDED6A4B6
:0405DB000B15F942C1
:0405DC000259490E69
:0405DD001A64D017B5
:0405DE0039338B041E
:0405DF001D57AD8C6B
:0405E00006EFBE9ACA
:0405E10023E047F4D8
:0405E20002EB9D117A
:0405E3003DE9E2828A
:0405E4002428FFEBDD
:0405E50039A4A5EEA2
:0405E6003DFD0C08C3
:0405E7001FBC80D3E2
:0405E8001EB146BA40
:0405E900318E518F6F
:0405EA0004ACA32595
:0405EB00211EED23BD
:0405EC0039693E9E8D
:0405ED00131D8C3A14
:0405EE000D733B311D
:0405EF002378240A3F
:0405F0003862DB6131
:0405F1001A6063BA6F
:0405F2002974C8D1CF
:0405F3003B773365BA
:0405F4001A1485163A
:0405F5002D777FAE31
:0405F6002DD299DA8F
:0405F70004C567C010
:0405F80033B499611E
:0405F9002D08431571
:0405FA0035A940825D
:0405FB001BC56F9617
:0405FC0028CECD9A9E
:0405FD000962988A6D
:0405FE001EF929A316
:0405FF000D2B1A386E
:040600000725919D9C
:040601002EDEF1C236
:0406020005AA2E74A3
:040603001FD338C306
:04060400079EDDAFC1
:04060500276D0C66EB
:0406060032A1BA4B18
:0406070032D524B212
:0406080033C8481E8D
:04060900230C0AA311
:04060A0023E0B976BA
:04060B0011903C62AC
:04060C0036F0B7B558
:04060D00228AA10597
:04060E00278766686C
:04060F000B918B7D43
:040610001729279BE4
:04061100355CC5513E
:04061200184D88E215
:040613000BC8866D1D
:04061400073F3D1946
:040615002EA1AE6DF7
:0406160004675F31E5
:0406170020467923DD
:0406180017A8F8C95E
:040619000E93DEC49A
:04061A0016B9361BBC
:04061B003A3838929F
:04061C0014A46B14A3
:04061D002CDD63135A
:04061E0012FD7B7FCF
:04061F0037870473A2
:040620000D281798F2
:040621002E962843A6
:04062200064AC021A3
:040623000EDD393679
:04062400053D247FED
:04062500170A7DC370
:040626003E2971D622
:0406270012889A2B70
:0406280031F02A0A79
:040629002447B3B8F7
:04062A00152144B89A
:04062B003C664BCE10
:04062C00050F76E759
:04062D0034A773FF7C
:04062E003BB2F11FCB
:04062F00038A647C5A
:0406300013433878C0
:04063100173306A9CC
:040632001559004C0A
:040633001D94B0D290
:040634002CE03E99DF
:040635003A0C6E7895
:040636001ABAC4A286
:0406370009B7377751
:040638001A17032763
:04063900230B689493
:04063A00187577E9CF
:04063B001BDCF5F3DC
:04063C003121D8DCB4
:04063D0017B65DCBC4
:04063E002ADC0FF2B1
:04063F0038BE0AA215
:040640002036909B35
:0406410029CFBDDF21
:040642000F4B684EA4
:040643002C7500DD35
:040644001A49CDD5AD
:0406450028C4DB2AC0
:04064600111C369EAF
:040647001B997595F1
:0406480017F185B56C
:040649000DA6E960B1
:04064A000071873282
:04064B0008891C7886
:04064C002FCF377203
:04064D0024D9C3CE1B
:04064E001667535E7A
:04064F0012895A446E
:0406500008E561C593
:04065100287F99EF76
:040652000824FEFB7F
:0406530035CFA0827D
:040654001844F652FE
:04065500070D72EC2F
:0406560004C69374CF
:040657003ADC5B63CB
:040658002122A0A615
:040659000C058023E9
:04065A002367E2D759
:04065B00302C48ED0A
:04065C0012CA680F47
:04065D00021F1DD289
:04065E0001AD578310
:04065F0005483A0808
:040660001F31BDCEBB
:040661000D9F2E2299
:04066200213453F1FB
:0406630030C9A24CAC
:040664001D6B9F2E3D
:040665000C48C0314C
:04066600172456FE01
:0406670010C6FB9925
:0406680007B09AD06D
:040669000187060EF1
:04066A0020D1A48F68
:04066B001C4772C1F5
:04066C00122AA1E8C5
:04066D002FB098F220
:04066E0002721B6396
:04066F0001B2588DEF
:040670003D184F7969
:0406710015A1AE859C
:0406720000CD231084
:040673003A364D23A3
:04067400005AAF7801
:040675001584D425EF
:040676002597D0965E
:040677001654D0A5A0
:040678000AF42D0053
:04067900287FDADB21
:04067A00168303BB25
:04067B000A5E5D5E58
:04067C00260D21180E
:04067D000D307F10AD
:04067E001287BA5EC7
:04067F003D87BC6B8C
:0406800027339D84FB
:0406810017B638C2AE
:040682001AF80FBB98
:04068300254A855B24
:040684000851B9154B
:040685001DA2202270
:0406860018388BB3E2
:040687001898CFA050
:0406880002D1E5E8CE
:04068900256834F9B3
:04068A003C5DCD887E
:04068B00032BFD8FB1
:04068C002933B83C1A
:04068D003CC52D0536
:04068E00068A540084
:04068F003AAABBAD1B
:04069000114A73CECA
:0406910006B5B54AAB
:04069200034304DF3B
:0406930013ABE705B9
:04069400324937822E
:040695000CE27401FE
:040696001E84859E9B
:0406970019271FCA36
:04069800077645E7B5
:04069900016F8177F5
:04069A002F80A4B554
:04069B00046F7E79F1
:04069C003E2AE1EC25
:04069D002A9EFC4253
:04069E000AE46A629E
:04069F002469E07377
:0406A0002091641F22
:0406A10032A0863CC1
:0406A200077F2BD3D0
:0406A300068C7267E8
:0406A40010574301A7
:0406A5002D80E72A93
:0406A60033ABD1A2FF
:0406A700080C46F302
:0406A80033B492F2E3
:0406A90020ADBE5C66
:0406AA003954CCA94A
:0406AB003B88FCD1BB
:0406AC0027795AC58B
:0406AD001361FDA038
:0406AE002776314238
:0406AF001A1AD295AC
:0406B0003D08C444F9
:0406B1003E1561C2CF
:0406B2003C19893B2B
:0406B3001500D3CE8D
:0406B40004E4EBEB84
:0406B5002576CC20BA
:0406B600202A0AD814
:0406B7003A623A6AFF
:0406B8000682CF3FA8
:0406B9003A2638079E
:0406BA0028576FD17D
:0406BB003EC4AF1773
:0406BC002FBB578772
:0406BD002B48C6BF41
:0406BE002482F4C8D6
:0406BF0018E15B8261
:0406C0003AF9616141
:0406C10019681ECCCA
:0406C2000860291390
:0406C30035289E83B5
:0406C400306AEB4667
:0406C5000CC5B2F6B8
:0406C60029C60F90A2
:0406C7001CA216BC9F
:0406C8000CAB06F47D
:0406C90030488DC365
:0406CA001082B1D118
:0406CB0026430000C2
:0406CC0038BFB12260
:0406CD00169CCEEFBA
:0406CE000D37DABD4D
:0406CF00285BAFA550
:0406D0001BDB2A49BD
:0406D1000912611990
:0406D2003670019BE2
:0406D30038AA219D83
:0406D40004F6384FA1
:0406D50005B29B10BF
:0406D6003DE230B918
:0406D7000563BDEB0F
:0406D8003DF3C276B6
:0406D9003AB0E8B794
:0406DA00131598B8A4
:0406DB0000426A3837
:0406DC00153F17406F
:0406DD0000ED847137
:0406DE0004DDCD0F5B
:0406DF002F06222F91
:0406E000333491B36B
:0406E1000B3DD1E913
:0406E200114D3ABBC1
:0406E3003D0F188629
:0406E40026EB8E294A
:0406E5002E4D8747C8
:0406E6003DD3782B5D
:0406E7002C5B12AEC8
:0406E8003A8E1E4FD9
:0406E9000DCBD12242
:0406EA0028419EDD28
:0406EB000EB4118DAB
:0406EC003EBDBE450C
:0406ED00145FE5723F
:0406EE00315F38B38D
:0406EF002B67FF7402
:0406F0000C91E4A4E1
:0406F100191F2A6C37
:0406F200356FEE0D65
:0406F300200E27AD01
:0406F40028CF9D234B
:0406F50035838CA518
:0406F6003DEDE98667
:0406F7003D5FE2E899
:0406F8001D6CD9108C
:0406F9001C3F180882
:0406FA0017FAA56FD7
:0406FB002B746139C2
:0406FC002A0FD9BB2D
:0406FD00168DF0ED79
:0406FE0032846E02D2
:0406FF003CD7FC7078
:040700000E1A9A78BB
:040701002B4D5F809D
:0407020020B139F3F6
:040703000E2B5E60FB
:0407040005ABB0EEA3
:040705003A32D31899
:040706000912CC5AAE
:0407070004D2D88FB1
:04070800137811EF62
:04070900102487D859
:04070A00315DC9B9DB
:04070B00200D1D2B75
:04070C003A1D59C574
:04070D002C73F7371B
:04070E00266A5D3EBC
:04070F0037521E0837
:040710000EDE117D6B
:040711003D3BFB1D54
:040712002E60E3ED85
:040713002D3D30F058
:0407140003B962249F
:040715001630D0BF0B
:0407160038E76C5AFA
:040717000AB80D7996
:0407180037B6330EAF
:040719001F96A5DEA4
:04071A00048B0FAF8E
:04071B0025818C5553
:04071C0020611ADF5F
:04071D000D5D744AB0
:04071E0034C612B318
:04071F0002A8A61E68
:0407200025D2B30229
:040721001A458A31BA
:04072200261E11512D
:0407230012658019C2
:040724001C4A429099
:040725002391C8FA5A
:040726002E7964ECD8
:040727003D13946684
:040728000E9EE01829
:040729000F4374C343
:04072A001BC4378F26
:04072B00231519F188
:04072C0008234BA5AE
:04072D0030CB6E5D02
:04072E0012CE4D6733
:04072F00352478579E
:040730000D4CCCE4BC
:040731002E0693AA53
:040732000A20220C6B
:040733001B567FECE6
:04073400177E92603A
:04073500272EB8189B
:040736002C3B0D50FB
:04073700187A002507
:0407380005A231DE07
:0407390008385CC65A
:04073A003574D16AD7
:04073B001DEEA25CB1
:04073C001E235778A9
:04073D0035EAEEDBD0
:04073E00392D7C5481
:04073F000D2D57190C
:04074000359F3DEDB7
:040741000C8B07F422
:040742000CF7E65C6E
:04074300064783A63C
:040744003479C5CE71
:040745001DD069B6A4
:040746000F7DCB0553
:040747000F7540DE0C
:040748001174CA134B
:040749000F5FB8F591
:04074A00267B45F0D5
:04074B000914A55A8E
:04074C0020819E303A
:04074D003362B487D8
:04074E0035324E2BC7
:04074F0016ADC19092
:04075000299E5D275A
:04075100032BC8AA04
:0407520017C457ABC6
:040753002788F8D625
:0407540006F1C70ED5
:040755001BD4D81FBA
:040756001156DDCA91
:040757003A61FFEA1A
:040758001844A71C7E
:040759002AC80CA5F9
:04075A001757A4F495
:04075B000CE25A95BD
:04075C0013314B0307
:04075D0002BCE4DE18
:04075E00165671C8F2
:04075F0004D28B60D5
:040760001AB646CAB5
:040761001A7592F380
:040762001B0487E607
:040763001C5E48834D
:040764003C7097A7A7
:040765001BCB72092F
:04076600270AADE0D1
:0407670027DAA5ECFC
:040768003375784F1E
:0407690020EC7ECE34
:04076A00199F564C31
:04076B000C87FA2CD1
:04076C001E8753B6DB
:04076D002E51840283
:04076E002836ACBFBE
:04076F0031E23276CB
:040770003AE3808266
:040771000BD6D85B70
:040772003BF67513CA
:0407730008D7A97B7F
:0407740005A7416430
:040775003D4C1AECF1
:040776002D95B0907D
:040777002227A7ACE2
:040778003C8D1F6F26
:0407790011FC78F9FE
:04077A00051BFB1050
:04077B002529E30148
:04077C000758B14326
:04077D0026B71BA2DE
:04077E003E9451A5AF
:04077F0025E5EC4F31
:040780002429D2ADA9
:0407810003D83072F7
:0407820037DDF70662
:0407830012618C5320
:040784000D5DA53032
:040785001C53858CF0
:04078600020852ED26
:0407870023DE204D00
:040788000ABE13C4CE
:0407890026C9779B6B
:04078A003A08BBD896
:04078B0014CF88D02F
:04078C001412C95723
:04078D0032B7889562
:04078E000829CE6BFD
:04078F000142DC75D2
:0407900023FC2C2BEF
:040791000D0B8EE4DA
:040792002964234A69
:040793002497E35A6A
:040794002BD83063CB
:04079500147B1017AA
:040796001189B865A8
:04079700106DE0CF32
:04079800111A1779A2
:040799000304AC9415
:04079A00150511BB75
:04079B0026D4227FBF
:04079C001DE74AAE5D
:04079D0032314FE9BD
:04079E002EA4085C21
:04079F001A0BD865F4
:0407A0001CD0E83B46
:0407A10017355BC5E8
:0407A200105FCEA274
:0407A30002101BE441
:0407A4001D3A4D139A
:0407A5001F32027A83
:0407A6002D5F564726
:0407A7002F1E067586
:0407A800237960A3AE
:0407A9000E98AA2CD0
:0407AA00326A8C0320
:0407AB0008473FF0CC
:0407AC002FE92ED033
:0407AD00197F6757F2
:0407AE002DE45231B3
:0407AF000691AEE021
:0407B00031A126BA93
:0407B1002F44753824
:0407B20001037007C8
:0407B3001F442B4C68
:0407B400244F55B0C9
:0407B50028ACE41B6D
:0407B600053CBE61DF
:0407B7000BBC29F45A
:0407B80017821A0189
:0407B90023FE961B6A
:0407BA002BA42C7AC6
:0407BB001CD72928F6
:0407BC000FB4E46131
:0407BD0036FC157E73
:0407BE0004ED35A46D
:0407BF000748D2D045
:0407C00006B3828A70
:0407C1000FF99AD4BE
:0407C20026CD19F136
:0407C30021972DEC61
:0407C4003BACDBE38C
:0407C5002883DAEAC1
:0407C6002718B7B980
:0407C70023649D9179
:0407C80021F76FDCCA
:0407C900007B32116E
:0407CA000FE722EE25
:0407CB002FF5D02C0A
:0407CC0037656746E0
:0407CD000D88531927
:0407CE0025D9F9B977
:0407CF003029944DEC
:0407D000377DDEE4AF
:0407D10017E87B5F4B
:0407D2000C9AC616A1
:0407D3002D35411C63
:0407D40000EAC3E68E
:0407D500308B6B6892
:0407D600140137D102
:0407D7000BD3127BB3
:0407D80038EF2E3C8C
:0407D90011E6B4BDB4
:0407DA002BBEC03D35
:0407DB002553FE1E86
:0407DC000A4FC69961
:0407DD003087ACBAFB
:0407DE00007924E397
:0407DF0015030B7C77
:0407E0001D4BE9D3F1
:0407E10024279289AE
:0407E2003A6312B0B4
:0407E3000648C328D9
:0407E400004B52BBB9
:0407E50035DF28A232
:0407E60020EE8DFF75
:0407E70012637E100B
:0407E8000C3CAC4DCC
:0407E90006C5CE472C
:0407EA000E6DA123CC
:0407EB000E31BBC64A
:0407EC000D1A139B34
:0407ED001B2C87EB4F
:0407EE00132EE86975
:0407EF0020735C8691
:0407F00005C2F61236
:0407F100391BA96E99
:0407F200217422A4A8
:0407F30017BFAFFE7F
:0407F4001E73DC2A6A
:0407F5001E35D2B229
:0407F6001424B80906
:0407F70036DE636522
:0407F80036E6CC74A1
:0407F9002D88CAE697
:0407FA002BF4BDBB64
:0407FB002FF920DDD5
:0407FC001ACEBEC58E
:0407FD00341016A7F7
:0407FE000F2DBDA955
:0407FF0013D83E04C9
:00000001ff
