:020000040000FA
:0400000011F143C2F5
:0400010031BAA31B52
:0400020031822A6DB0
:040003001D87202F06
:04000400099F38D444
:0400050001E33D2AAC
:040006001F91A5643D
:040007001E044C0087
:040008001348F38B1B
:040009001AAB711AA3
:04000A003A1B30422B
:04000B0023E388A7BC
:04000C00005EDD5164
:04000D003EA0EA81A6
:04000E000EE09D273C
:04000F002C3E9E8A5B
:04001000256EE40570
:04001100171A50CD9D
:040012002C75EDCD8F
:0400130006D05B3E7A
:040014002EC16C2469
:040015001129C517D1
:040016000E2D63B593
:04001700045D96608E
:04001800307AB35730
:040019001E7B135DDA
:04001A0001DAADCD8D
:04001B0034C0821853
:04001C0035A3E6A280
:04001D002FE5F14F8B
:04001E0018CCEC1CF2
:04001F003336BB6F4A
:040020001357F0BBC7
:04002100262369E643
:04002200088D6A4E8D
:04002300051F604114
:04002400235360B84A
:040025000187ABD2D2
:040026001D34D009AC
:040027001CA61FFDF7
:0400280001269359C1
:04002900053815463B
:04002A000CBFF0A572
:04002B0038C06D83E9
:04002C00207EDA0157
:04002D00049BAB6421
:04002E0027C38B1544
:04002F002853BB7D1A
:040030002C3158A96E
:0400310022EC08F0C5
:040032002360AB6438
:0400330006E240CED3
:040034003B6B5CC9FD
:04003500045432CE6F
:0400360006B3BCF35E
:0400370029917B028E
:040038002D6F2253B3
:040039002A2E1663F2
:04003A002FC69F8EA0
:04003B0031CD0FD3E1
:04003C0010892758A8
:04003D0020167C4EBF
:04003E0008E921713B
:04003F001DE66483D3
:04004000078C9DD2BA
:040041000BE01B8134
:0400420024F3DCAB1C
:04004300183D1E1432
:040044002ACB982209
:040045003CF33AFD51
:040046000084BC6016
:040047001A0D5AA094
:04004800139E883D3E
:04004900009B26658D
:04004A0020B88393C4
:04004B0010B8DF53B7
:04004C002BFD9CB23A
:04004D002A4FF3EA59
:04004E001FF2918F7D
:04004F001BBA27DDD4
:04005000199242F3CC
:040051000B12CB754E
:040052003D89309F15
:040053003ED6A8C12C
:040054003CE9A7E6F6
:04005500385AC955F7
:040056000A341EB09A
:040057001CD13FCFAA
:04005800075CEAABAC
:0400590002D60B813F
:04005A0026D0A27D8D
:04005B0011828F4F30
:04005C002310AB774B
:04005D003EA9865FD3
:04005E00011C3EC87B
:04005F00093431BA75
:040060002A57FF8B91
:040061003A6E35714D
:040062003D5590FA7E
:04006300182081F4EC
:0400640026E4D1C7F6
:04006500002C8DB02E
:040066002282B3053A
:04006700124292DBD4
:04006800040B312331
:0400690036FF7D5D84
:04006A003338A49FE4
:04006B0039E245A78A
:04006C000B3CE93927
:04006D00287E904D0C
:04006E0005EB195134
:04006F0014F4C91CA0
:040070000B86A5B6A0
:04007100281A1E9C8F
:04007200279B1AFFAF
:0400730001B77F90C2
:0400740039930EAC02
:040075003C661E22A5
:0400760017748E7EEF
:040077002212A83871
:040078003424AC5927
:040079002AB7672F0C
:04007A000E672BFEE4
:04007B0022B24992D2
:04007C000A5600B967
:04007D000FA99FFA2E
:04007E003A6A6B343B
:04007F0033FA5142BD
:040080001B630C7280
:04008100089856BEC7
:040082001C5029578E
:040083002004720BD8
:04008400256112DE02
:0400850000E34A7BCF
:0400860029B38333E4
:0400870036E8D9C6B8
:040088000A68773259
:04008900335F917BD5
:04008A0037871C5543
:04008B000C242FAF63
:04008C003A27C84DFA
:04008D003D1886B0E4
:04008E0002574CF5D4
:04008F0029E38533A9
:040090002FD0835298
:0400910029D02DCF76
:040092000480D14CC9
:04009300332DED5EBE
:04009400035675ABEF
:0400950025C3BC398A
:040096000B0ADF442E
:0400970035B2C4EDCD
:04009800290B22927C
:040099001A957E67CF
:04009A003B4EAC88A5
:04009B00336335FF97
:04009C002A82DA20BA
:04009D001793F602BD
:04009E0015FAA4C0EB
:04009F0012241EB257
:0400A00022AC5C50E2
:0400A10035EFAADEAF
:0400A20029459A84CE
:0400A300234D0834AD
:0400A4002C6A2A0E8A
:0400A5002C9ED47049
:0400A60034D6657B6C
:0400A7002B5B7CCC87
:0400A80013E4C11389
:0400A90020B8A9CA08
:0400AA0027631C1696
:0400AB0035F4F93BF4
:0400AC001D3AA8D879
:0400AD0023D19D2A94
:0400AE002F17337C59
:0400AF00152388800D
:0400B00001C9DF792A
:0400B10011014A5C93
:0400B2002026F9808B
:0400B3003B6FC9E4F2
:0400B4002F61E73B96
:0400B5002998BEB711
:0400B600103E3ADAE4
:0400B70028DF662DAB
:0400B800354E2BC8CE
:0400B9003354E4BC1C
:0400BA000736B883CA
:0400BB003506B896B8
:0400BC0015778ECE58
:0400BD0035EF1F9567
:0400BE00158FA7C82B
:0400BF0001B55D5CCE
:0400C000301DED6D95
:0400C10021CD628B60
:0400C2002672A90FEA
:0400C3001B2425AC29
:0400C40012B38A9851
:0400C5002FC9CB5420
:0400C6001C1245893A
:0400C7000705663A89
:0400C800315E335022
:0400C90029026A6539
:0400CA00178FB60BCB
:0400CB0005B2BB4778
:0400CC0010C6A55263
:0400CD003B96C2BCE0
:0400CE0034225A95E9
:0400CF00050CC32039
:0400D00027962D70D2
:0400D10008467EA1BE
:0400D20037A23EFC17
:0400D3002BC2856156
:0400D40001F8C71355
:0400D5001F1DD30D0B
:0400D6003824F9B51C
:0400D70010C2FF1242
:0400D80008ADAF843C
:0400D9003D9DCFE298
:0400DA003103B04EF0
:0400DB000A493C95FD
:0400DC001B3332257B
:0400DD00273C4A2151
:0400DE00095EC5BF33
:0400DF001C8A1A4D10
:0400E0001793082D3D
:0400E10006B81F89B5
:0400E2000F7BFBC5D0
:0400E3002F69888970
:0400E4000504F68A8F
:0400E500327E7AB538
:0400E60021AA61B634
:0400E700074D552A42
:0400E8001AD3905245
:0400E90030C1317978
:0400EA0028CC12FD0F
:0400EB000C7CA506DE
:0400EC001CB3B9DAAE
:0400ED003578F31A55
:0400EE00050E198E54
:0400EF0035FBF8F3F2
:0400F000169CF4DF87
:0400F10006430FF5BE
:0400F2002A27BABC43
:0400F30019E6DCAA84
:0400F40018D9A0EC8B
:0400F5001E95DC6018
:0400F6002B34B20CE9
:0400F7002A7ACFB1E1
:0400F8003CB3CEBB8C
:0400F9003940BC10BE
:0400FA000F115F1C67
:0400FB00193381ED47
:0400FC001C1FA85CC1
:0400FD001AB314A975
:0400FE0016DD9F2A42
:0400FF000C5AFCC0DB
:040100000D376DED5D
:04010100156B214A0F
:0401020035F324DFCE
:04010300030AB450E7
:040104002E192F3948
:040105000A047A2648
:040106001C71F37005
:0401070004AA578669
:040108000328D13BBC
:040109001A9FDB77E7
:04010A003C5C8ABF10
:04010B0010378836EB
:04010C001E4E07C9B3
:04010D001279C0168D
:04010E0010239FB566
:04010F001AB97DA4F8
:0401100034A504F21C
:040111001F3F5C46EA
:040112003536C4D1E9
:04011300147088716B
:040114003AD7FBAF2C
:0401150013461390EA
:040116001E74084A01
:0401170001BC420FD6
:040118001979CB4B3B
:04011900072524E8AA
:04011A001A127BC971
:04011B002BAA4E4E6F
:04011C002458BF7F25
:04011D003BE2E5EFED
:04011E0026EEB84CC5
:04011F0038B7CD42DE
:040120002BA92D01D9
:0401210035759F7120
:040122000320CEF9EF
:0401230005B30CA074
:04012400021FD35E85
:040125002F674A16E0
:0401260029B52BE1EB
:040127003730D48811
:0401280039C687EF5E
:040129000D72876468
:04012A00002281BE70
:04012B0012AB04C34C
:04012C000BB9CE2F0E
:04012D00082229CDAE
:04012E000B889EEFAD
:04012F0019411A0454
:04013000107EC45E1B
:040131001B86AC6518
:040132000850C0971A
:04013300289D3A9138
:040134000760DF9BE6
:04013500258467288E
:0401360012A211B848
:0401370024B0191EB9
:0401380032DB3F6710
:040139001D9F06F010
:04013A0035680E30E6
:04013B0012CF9D053D
:04013C0020EB6AC189
:04013D0008ED5A1E51
:04013E0029DB976AB8
:04013F0027081C2849
:040140000C0AA710EE
:040141001221533FF5
:0401420032A240A8FD
:0401430037EC698F9D
:040144002DC2A5FD26
:0401450010D7E80BDC
:040146002692657F19
:040147000283FE8FA2
:0401480022CD1FE9BC
:040149003B97A7DC5D
:04014A003E3ADE3328
:04014B0038A05F3841
:04014C000892B8E776
:04014D00381E0482D2
:04014E001D9DE6B459
:04014F000840D84646
:040150000F7D2852A5
:0401510024F8C4D7F3
:040152000E7C3EA43D
:040153001A68B77DF2
:0401540035C1264249
:0401550016F941282E
:04015600389996D46A
:04015700300101C4AE
:040158002DA0A03402
:0401590008CB892026
:04015A000238E26520
:04015B000F4FEBACAB
:04015C00187D65267F
:04015D0034F05781A2
:04015E001419658B80
:04015F00256E49239D
:04016000390A24C56F
:040161001D00413903
:0401620024C89D6CA4
:040163003E495612A9
:0401640033ECA4A034
:040165001AD4DBC904
:0401660038A62C7912
:0401670008E3D6EEE5
:040168002C3A20917C
:040169002F4634E306
:04016A00328D73C29D
:04016B002AAE446311
:04016C000B0AE4583E
:04016D0038B5CA9146
:04016E0034E488C12C
:04016F0033611FE8F1
:04017000283CE8023D
:0401710025DFD68927
:0401720000D9F3902D
:04017300076D94C2BE
:040174001117217CC2
:040175000E98D6EB1F
:040176001C074B4BCC
:04017700268A9EBF77
:0401780010E260E24F
:040179003819C14927
:04017A000B67595165
:04017B000561FBDE41
:04017C0015E274B85C
:04017D0038B17045E0
:04017E0014FE938F49
:04017F00336BEC4EA4
:040180002C6D22C6FA
:0401810037824D81F3
:0401820024ED0D5704
:040183003B8E11415D
:0401840035152253B8
:04018500086203EC1D
:0401860013F56320EA
:040187002A35297379
:0401880034A1EBCDE6
:0401890001209D8430
:04018A002BBBE81C87
:04018B00041439BA65
:04018C002AD0B3EAD8
:04018D0012E85058CC
:04018E0009569394E7
:04018F002A18FF9A91
:04019000359C1B84FB
:040191003BAD3F6CD7
:0401920006F9E8CEB4
:040193000316248F9C
:0401940015AABC8864
:040195001914E0DB7E
:04019600201E06AC75
:0401970015A0B39567
:040198000B0419C477
:040199001FF1F17DE4
:04019A003A965AE552
:04019B0037AE261D38
:04019C001AF04AB952
:04019D0007B709E6B1
:04019E002547D3BF5F
:04019F0004747CED7B
:0401A0000335B17002
:0401A1001FBBAA7165
:0401A20039372A6C53
:0401A30008DD75BF3F
:0401A40013128B8522
:0401A50005BD5A9F9B
:0401A6003924217166
:0401A7000C0EF01634
:0401A80027C89F3392
:0401A90038A32A67E6
:0401AA00375A7FFC45
:0401AB001FD59B0EB3
:0401AC00211EF7CE4B
:0401AD00249C6073BB
:0401AE000CBFBC4F77
:0401AF0019B627F561
:0401B00033C083C90C
:0401B10038E0B85129
:0401B2001D68991912
:0401B3001D06D9D07C
:0401B4001FE6A3FFA0
:0401B50028BB8F2AAA
:0401B60014ED819F24
:0401B70026796FC76F
:0401B800319E04B4BC
:0401B9002C419DFF39
:0401BA0034517357F2
:0401BB003050CA19DD
:0401BC0013C6712CC9
:0401BD0015F4EDE068
:0401BE001F18D660D0
:0401BF0035BCB2D0C9
:0401C000270EF559B8
:0401C1002D7943C58C
:0401C20007E0282406
:0401C30035628EF221
:0401C40001DD2C7CB1
:0401C500362922AD08
:0401C60017DF6234A9
:0401C7001A0927A446
:0401C8000B09789B0C
:0401C9001DACAB536B
:0401CA003112396E47
:0401CB000FD134120A
:0401CC001D72CACC0A
:0401CD00045CC8A660
:0401CE003442D1974F
:0401CF001C2DF57C72
:0401D0003B8B20271E
:0401D1002EB631B85D
:0401D2000A9E7556B6
:0401D300098140EC72
:0401D4002B50216B20
:0401D50038B3827A3F
:0401D60014F6FCA37C
:0401D7001F42260499
:0401D800243DB1E031
:0401D90028BDC7E591
:0401DA002BBF023104
:0401DB0022C1502CC1
:0401DC001B6354B796
:0401DD0033752B2724
:0401DE0001866C3CEE
:0401DF001C5B6E3EF9
:0401E0002CC70723FE
:0401E100370A2909A7
:0401E20023FFEEA168
:0401E300230E2C0FAC
:0401E4003CD32CDDFF
:0401E50027981C0E2D
:0401E60032093A138D
:0401E7001F3E0E07A2
:0401E8002BAB816953
:0401E9001DCB31F306
:0401EA001D649C44B0
:0401EB00348FD9A1D3
:0401EC0018E78B1471
:0401ED0004BB478682
:0401EE003AE081135F
:0401EF0037130BB007
:0401F0000151047E37
:0401F10021A10BA994
:0401F20024711170F3
:0401F30029723A39FA
:0401F4001199AC6150
:0401F500162179391D
:0401F600015246016B
:0401F700239ED2A5CC
:0401F80008FC404D72
:0401F90027AED561F7
:0401FA0028D760EBB7
:0401FB001E99DDF17B
:0401FC00167A86A742
:0401FD003E1253B1AA
:0401FE000258736FC1
:0401FF001BD87EB2D9
:04020000287224E359
:04020100072E343D53
:0402020011E3606C38
:0402030010BAC2AEBD
:04020400102C7464E2
:040205002EA7AC2A4A
:0402060007349453D2
:040207002A644CAB6E
:04020800273440F364
:040209002F3D008DF8
:04020A0024CA2E4A8A
:04020B003071D0C4BA
:04020C00024FDA23A0
:04020D002B231E8BF6
:04020E000F95FE86C4
:04020F002213A9DF2E
:0402100010428D49C2
:040211000535757DBD
:04021200369B6F6F39
:040213001247AC8A58
:0402140017A7C8B2AE
:040215000C9EC1007A
:0402160031E9768ACA
:0402170033A88E5723
:04021800046142B08B
:04021900281641DE84
:04021A0013465EF237
:04021B000C438ED32F
:04021C0029182CF57C
:04021D0038B587A7C2
:04021E000D34D60FB6
:04021F000512D39A57
:0402200010DFD8E330
:04022100312B312428
:0402220020CBA84401
:040223001DF6CD6A8D
:040224002E0A26DE9A
:0402250036D2D99460
:04022600039ACFCD9B
:04022700258EC7DE7B
:0402280015D9E30DF4
:040229000D9C6012B6
:04022A0001046C1F40
:04022B00283C3C57D8
:04022C003DDB24444E
:04022D0033D8B344CB
:04022E0011FFC66D89
:04022F00336E383FB3
:040230000FBD794540
:0402310034F9736BBE
:040232001360A52789
:0402330026EF3BADCA
:0402340008D753F59F
:040235001F84488258
:040236000DDCB6160F
:04023700140658D879
:04023800266B2362AC
:040239001134E1CDCE
:04023A000319A108FB
:04023B002FCCAC2DEB
:04023C0018CD590F71
:04023D0034EEB69D48
:04023E0018700BDB4E
:04023F0026E9CF3AA3
:04024000030A435317
:0402410029FBF1B9EB
:040242002D23D895FB
:040243003A8EAA0342
:04024400141EAC25B3
:0402450014C8DD38C4
:040246000A13E56C46
:040247002A4E7E8934
:040248003E17B0DECF
:040249003DFC84D420
:04024A0018CCFAC30F
:04024B003BE76D62BE
:04024C0022B63FF0A7
:04024D002DDD6EE64F
:04024E003A2280A828
:04024F000E3997735A
:0402500020FBB55981
:040251001D71126F9A
:0402520039AD884AF0
:0402530036A98058F0
:040254000F692D45BC
:0402550016643836BD
:0402560008DC68E177
:04025700304DE4D270
:04025800146ACC2038
:0402590005AC855714
:04025A00114534B165
:04025B001C89149551
:04025C00390BBE1884
:04025D00142CC84451
:04025E0018908BE188
:04025F00047DDDE954
:040260002B740706EE
:0402610022D5F91A8F
:04026200134C448B6A
:040263001B04D61290
:040264002CFA79C235
:0402650004264FD745
:04026600156034DF0C
:040267001EC552F26C
:0402680010507713A8
:040269002A09206ED0
:04026A0021E8780E01
:04026B003E45D3CD6C
:04026C00165A8E3F51
:04026D0033214D7676
:04026E00245D91C2B8
:04026F0025235CA245
:0402700002EB472432
:0402710036D665E92F
:040272002724B57E0A
:040273000E49F559E2
:04027400020C7F8F6A
:0402750006377609C9
:0402760029DE757C8C
:04027700221D7F1BAA
:040278003E8D5C1E3D
:0402790001D8BFF7F2
:04027A000B74650E8E
:04027B00244F3B00D1
:04027C003D7ABF5BAD
:04027D00088F4F4F48
:04027E00292E811292
:04027F0032629E92B7
:0402800011D593DA27
:040281003C216F5657
:040282002458CB68C9
:04028300040D3DCB5E
:0402840033AD1D2059
:0402850004829EE26F
:040286000A7375275B
:04028700160E6139B5
:040288003A814E3039
:040289000497D0B650
:04028A0014A7F65867
:04028B002E65AD5CD3
:04028C0032C0118DDE
:04028D0036424AD0DB
:04028E0006AC6C1638
:04028F00000ED83253
:04029000346D5F77F3
:040291000ABB20750F
:04029200164CEA72AA
:0402930037D0190641
:0402940017CAD5446C
:0402950032BA5426FF
:040296000071F32AD6
:04029700042B16DF3F
:0402980036DD867C4D
:04029900340384BCEA
:04029A0028A3D6DEE1
:04029B0004B2569CB7
:04029C001634087696
:04029D0033B86E966E
:04029E0018B7FFF599
:04029F00136F3E2E6D
:0402A00035E5AF5D34
:0402A100232E414780
:0402A20019F4DC2748
:0402A3000BA5EECBEE
:0402A40009F54FC940
:0402A5003514D934FF
:0402A6001BE9E4224A
:0402A70028049AE9A4
:0402A8002BBDF24434
:0402A9003E2C44FEA5
:0402AA00298EA342B4
:0402AB0036195F9A07
:0402AC0014D5DE8BFC
:0402AD0022D3F45C08
:0402AE001B50407A27
:0402AF002FF9599436
:0402B0000F3960564C
:0402B1003CF5BCCF8D
:0402B20003C99E14CA
:0402B30024A64980B4
:0402B40007E54F0803
:0402B50011EE669947
:0402B600372F710568
:0402B700239E76F319
:0402B800117FF73487
:0402B9001294300665
:0402BA0004A952251C
:0402BB0024D520899D
:0402BC000C2E881468
:0402BD003870E73D71
:0402BE0022A0D8831F
:0402BF0003DF1668DB
:0402C00019C4F3303A
:0402C100219768BC5D
:0402C20013FCB7561C
:0402C30016CE144FF0
:0402C4002AA947AF6D
:0402C500089E76A079
:0402C6000EBCFE521A
:0402C7002D2FD4A75C
:0402C800362802E0F2
:0402C90029E001A681
:0402CA00117BE409B7
:0402CB001CDDE0490D
:0402CC002592660F02
:0402CD00051568C9E2
:0402CE001FA0B1F8C4
:0402CF00329D0F004D
:0402D000161800D329
:0402D1000A16EF3AE0
:0402D200006E28E7AB
:0402D30039B2482ACA
:0402D400150245AC1E
:0402D5002E783966E0
:0402D600245A7BB279
:0402D70008D8915959
:0402D8001F1058B3E8
:0402D900168316F37F
:0402DA00297136D878
:0402DB003475A5AF22
:0402DC00091094F978
:0402DD002C84BC4C65
:0402DE00357D13C691
:0402DF0002C6BCA0F7
:0402E00029CB4A6D6F
:0402E1001118D2CE50
:0402E2001400BE2125
:0402E300052D782C41
:0402E400249CE41D55
:0402E5001BF08EC0BC
:0402E6002DD3C24F03
:0402E70023F2D61C0C
:0402E8003B7252868D
:0402E90036B123FF08
:0402EA002B1FD826C8
:0402EB001586D98516
:0402EC00307C3AB375
:0402ED000AFFF6E529
:0402EE0020EB64FCA1
:0402EF0005815A35F6
:0402F000045943CF9B
:0402F100152A79BC95
:0402F200317AFA550E
:0402F3000773F44851
:0402F4002942A5EB0B
:0402F5001ADB45EEDD
:0402F6001838503232
:0402F700053DFD23A1
:0402F8001CD936785F
:0402F9001568D4357B
:0402FA00130F9F6BD4
:0402FB000255930411
:0402FC001F5EA8B227
:0402FD00190D0E6168
:0402FE002787F13D20
:0402FF00305E5355C5
:040300003E3C03F884
:040301002A29FF1E88
:0403020037A1902F60
:0403030002FC29D1FE
:0403040027C10AB152
:0403050025E7EC4FAD
:040306002159DB3B63
:040307002E2CE4961E
:040308002E2A3B5806
:040309001383D8C8BA
:04030A00254F274D07
:04030B002F8FC4026A
:04030C001740D0DBEB
:04030D002878BB167B
:04030E0000E1419C2D
:04030F002F4498AD32
:0403100039AAA0D88E
:040311003604B08579
:040312001946CF4475
:04031300029352906F
:0403140022DC9B99B3
:04031500144A6126FF
:0403160034940DA46A
:040317002218968989
:04031800092BBCAF42
:04031900103D2078FB
:04031A003E16A4A641
:04031B001CB4523E7E
:04031C00120EBA4CB7
:04031D00395FA9A6F5
:04031E00387486A009
:04031F001291DAD984
:040320001BDEE8BA3E
:0403210007F3157B4E
:0403220021CC59276A
:0403230006D7DCDD40
:0403240036490E5DEB
:040325001B454B57D2
:04032600139FBE8FD4
:040327003ADBB69D6A
:04032800138CFD8DA8
:0403290029D6F220BF
:04032A00198DEFA199
:04032B002E361A460A
:04032C003CBAB6B26F
:04032D00248C6D822D
:04032E002C3872F104
:04032F002C0F5EC76A
:0403300021EED238B0
:04033100145D9EAF0A
:0403320011A80F728D
:040333000516ED3B83
:040334000A6B22CE60
:0403350010875E408F
:040336000C95035AC5
:04033700119BC183D2
:0403380017D61C7E3A
:0403390001F7CD4CAF
:04033A0008C59F7CD7
:04033B002FF7C100D7
:04033C00187E2136D0
:04033D0026AE40CFD9
:04033E0011DBA7DC4C
:04033F00278342F1DD
:040340001D8C7A2472
:04034100047494A00C
:040342001143FE5F06
:04034300212E845E85
:040344000751441DFC
:0403450039F4B5785A
:040346002B0038F25E
:040347000097B78DD7
:040348000EABE1E334
:040349001A03B3756B
:04034A0000A6148D68
:04034B0038EE42C185
:04034C0009AED828F6
:04034D002E9F59E99D
:04034E0001BBCD52D0
:04034F0013232F0B3A
:04035000101972F519
:04035100365301FD21
:040352001CB05F5F1D
:040353002F801DCB0F
:040354002555143ED9
:0403550003C60F7854
:040356003EA89DBD63
:0403570033D5220177
:040358002A6F64B7ED
:04035900195C56D401
:04035A0000BB0D2CAB
:04035B002134E7D989
:04035C0021D59665AC
:04035D0019E3635DE0
:04035E00009948E3D7
:04035F00011B886D89
:040360001AD8CB05D7
:04036100190C9D5B7B
:0403620023655D4072
:040363001BD100CFDB
:0403640023218216B9
:04036500286DE1819D
:0403660033C555BE88
:0403670021F2EC1E75
:040368000E11D5039A
:040369002276DE8991
:04036A002E23A3CCCF
:04036B0019042D5CE8
:04036C000C48C5294B
:04036D000ECD1C761F
:04036E002756247476
:04036F0022F4619083
:040370002CA0C87085
:0403710022E46976A3
:040372000A2404F461
:040373002547F28A9E
:0403740016B7D8D40C
:0403750000B23D8D08
:0403760010475FA32A
:040377002D69905408
:040378000E1C3445DE
:0403790024D20E5A22
:04037A003116AE0189
:04037B000066E756DB
:04037C001942339659
:04037D0039B228D693
:04037E00026DA8C89C
:04037F002823608C43
:040380003D6F8799AD
:0403810003987D0060
:040382003E2CF853C2
:04038300161EFBF94E
:0403840000C34FC79C
:040385001D65BFBC77
:0403860024BC2476F9
:04038700378397829F
:040388002BF43729F2
:040389003E44AA0440
:04038A00226F3B059E
:04038B001281BB0A16
:04038C0020BB58A694
:04038D0006785D1B76
:04038E00151C54D90D
:04038F0028806498C6
:040390002010F8B48D
:040391003446CC5DC5
:04039200036C663062
:0403930023454DAD04
:04039400032256CD1D
:0403950031651C01B1
:0403960014BC6C998E
:040397000840683F73
:040398000BF1D18014
:040399001567B2AB87
:04039A002408519C46
:04039B00327293D255
:04039C0032A161F435
:04039D0031A2F1CDCB
:04039E00256CA2C068
:04039F003A1E4F6A49
:0403A00006AD0CE7B3
:0403A1002089ED16AC
:0403A20032B7EEC3BD
:0403A3000E0A32D13B
:0403A400079D6D0143
:0403A5003021367459
:0403A6001D6C46562E
:0403A700152EF8888F
:0403A8002820CE0635
:0403A9003042942129
:0403AA0000AA41F66E
:0403AB003E34FA14CE
:0403AC002ABF487BA1
:0403AD000FC77427DB
:0403AE003AB27F5D83
:0403AF00338345B19E
:0403B000045DE6EC16
:0403B100215A4BD2B0
:0403B200320DA3382D
:0403B300090C5CC510
:0403B40020D74D12EF
:0403B50024B46EB44A
:0403B600110FEF2A0A
:0403B70036199AC396
:0403B80037EC46A830
:0403B900190F5ACAF4
:0403BA000B1F73940E
:0403BB0021615B4B16
:0403BC0034C7E1D48D
:0403BD00291271FC94
:0403BE000456178743
:0403BF002A9829DC73
:0403C0003385313B15
:0403C1002C4D46BABF
:0403C2003D6323D2A2
:0403C3000963178B28
:0403C40037657CFF1E
:0403C50001F4E372EA
:0403C60006B37721E2
:0403C700002885483D
:0403C800332E5C87ED
:0403C900065E21C7E4
:0403CA0000E46C34AB
:0403CB0018D6B11D72
:0403CC0018FB3C2CB2
:0403CD002658C84F97
:0403CE003CA4E62B3A
:0403CF003A044C643C
:0403D00013D9FF2816
:0403D10022BFB45D36
:0403D20022BD988030
:0403D3001D0B0EA44C
:0403D4002993A4596C
:0403D5003B1FD8B141
:0403D60030FF238D44
:0403D7000B5C490B67
:0403D80017D627BB52
:0403D90008A2220D47
:0403DA0005D1EAFA65
:0403DB002279E9F6A4
:0403DC0005397075FA
:0403DD001DF787BDC4
:0403DE001EC022EB30
:0403DF002E59604DE6
:0403E000071E1B2FAA
:0403E1001AC145ED0B
:0403E200272FB89C6D
:0403E30032EE3F3582
:0403E40014FC5F287E
:0403E5001F2B91A099
:0403E60004713EE27E
:0403E7000E1A955104
:0403E8002A4EE15A5E
:0403E90039CD2FC219
:0403EA0011999EE3E4
:0403EB000E20ED6390
:0403EC003E0EC645B6
:0403ED001D0F149C30
:0403EE001775E3A7F5
:0403EF002FB7B25220
:0403F0002FCB490BBB
:0403F10002DECFC891
:0403F2003103D27B86
:0403F3001E8E37061D
:0403F4000E7C083C37
:0403F500390A1AF6B1
:0403F600172EFEFEC2
:0403F700277DC3603B
:0403F8000C68CF8C32
:0403F90024682588C7
:0403FA0007BE1A46DA
:0403FB00288B138EAA
:0403FC0012CBA54833
:0403FD003B79CF8AEF
:0403FE003B7D84417E
:0403FF003814D17B62
:0404000010A150F700
:0404010034A1E65FDD
:040402003CCE36FFB7
:040403002939986497
:04040400241C63B1A0
:040405000FCA021AFE
:040406000642EF8536
:0404070016EAAD8CB8
:040408002CD9C22BFE
:04040900059D7E834C
:04040A0000157A71EE
:04040B00354586D21B
:04040C003BB48A2350
:04040D002CD70400E4
:04040E001D73E7C3B0
:04040F002F9393276D
:040410002384FD9BA9
:04041100316F193AF4
:040412001BD8BBEE4A
:040413000DDD7BCEB2
:040414000B7E62EE0B
:040415002BCE96480C
:0404160009ED1829AB
:040417000081312708
:040418003611E53C78
:04041900119B9C6730
:04041A0001D3B83220
:04041B000277BB3178
:04041C003BD0A0D160
:04041D00207E848237
:04041E0010CC9FBAA5
:04041F0017C9733551
:040420001D6EE4AEBB
:04042100295E9FBAF7
:040422003C4937E634
:04042300267F9AD8BE
:040424002AACE0CA54
:0404250033BBC70F0F
:040426001D7FFB9AA1
:040427003945E5ED81
:040428002C468EF1DF
:040429002FC4AAA58D
:04042A00044EDAFAA8
:04042B000D219D9C66
:04042C002B03071A7D
:04042D003122D6CFD3
:04042E0016885C9F31
:04042F00183EA2E7EA
:0404300015CF90ADA7
:0404310012E5364B4F
:0404320029943BCB03
:0404330017261889E7
:040434000905011C99
:040435002FD35A87E0
:0404360020D37FE16F
:040437001998CDF84B
:040438003D0A698F81
:040439003CDC99A36B
:04043A0017EE66B59E
:04043B0029D7FDD5EB
:04043C003A88703852
:04043D001253D94D30
:04043E0030220BD489
:04043F001E2D6F34CB
:040440002654E96CE9
:04044100270A8E55A3
:040442000608317BFC
:040443002386A9C89B
:0404440033C9E5A72C
:0404450022BF17F0CB
:0404460004DD26D0DB
:040447002C17EF532C
:040448000D73AA9FE7
:040449002F109ED3FF
:04044A001C5A28F31D
:04044B00288B22BF19
:04044C001BCE300D86
:04044D002FF162B376
:04044E00010C403429
:04044F0021C614BDF1
:040450003DA66ABBA0
:0404510022A485C696
:040452003AF0C41F99
:040453000836E884FB
:04045400105D3E00F9
:0404550020266E806F
:0404560027E522E58F
:040457002E0CBB3C70
:040458000631BDC3E9
:0404590035FED94C47
:04045A00130C1DE57D
:04045B00241AC48F0C
:04045C00152B8CD4FC
:04045D0017F1054A44
:04045E003E2BD2C897
:04045F0024B7C255A7
:0404600012F87B17FC
:040461000AF6CD5872
:04046200198DA7C188
:0404630003952CE6EB
:040464003E5BFCB946
:04046500354FCE66DB
:040466003004642ECC
:04046700384E085EA5
:04046800179FE04CAE
:0404690007083A3511
:04046A002677A02031
:04046B001A38BDC5B9
:04046C0002DCD89D39
:04046D00022ECEB8D5
:04046E0039C881D434
:04046F003DE585E9F9
:04047000379E4474FB
:0404710005C2DA42A4
:040472000B6C790294
:040473001C8EC11703
:0404740025F0F43447
:0404750014C17FAE81
:0404760017F2ABAC22
:040477003D17104ECF
:040478001FE3FF6F10
:0404790010DBB36081
:04047A003093B62FD6
:04047B00360FD8D987
:04047C001516E90D5B
:04047D0023165FE9FA
:04047E003043E72BF5
:04047F000D0D3F45DB
:04048000207137E8C8
:040481000A4D0DB85B
:0404820028A5D93B95
:040483003A2B28F9EF
:0404840007D769C36A
:040485002EAEF15254
:0404860029C5B68A44
:0404870032CDE1FD94
:040488000D26C7DE98
:04048900098E1DF7C4
:04048A002E8B8873BA
:04048B000BD1EC5451
:04048C0015DF115C0B
:04048D002D7480C189
:04048E0027AA89DC34
:04048F0011B5184C3F
:04049000224DE07E9B
:040491003121C80845
:0404920032A1B00FD4
:04049300210FDB4317
:04049400068BA3F040
:040495003699E6E4CA
:04049600250F13E734
:04049700052A76BEFE
:04049800148ED19E4F
:0404990002B868D667
:04049A0004FF6D7D71
:04049B001BBAC7F1D0
:04049C00399D3F96B1
:04049D002344D6BB63
:04049E003A62A175A8
:04049F0001ABCC6978
:0404A0002A52FE5589
:0404A1003555598FE5
:0404A20009225C3D92
:0404A3002736A3B5A0
:0404A400201599F195
:0404A5000073EF12DF
:0404A60035CF86E3E5
:0404A700047C9DFA3A
:0404A8002A65DC2EB7
:0404A900188EEDEECE
:0404AA000A931DBED6
:0404AB00308EB79048
:0404AC003280359ACB
:0404AD002CBFF53B30
:0404AE0032DE6B12BD
:0404AF0007D4392F06
:0404B00002AA3A352D
:0404B1003523AAAB9A
:0404B2000D735D0168
:0404B3000107D85D08
:0404B40038BDDDE58D
:0404B500150B299169
:0404B6000C85E9D9EF
:0404B700343E72530A
:0404B800383B95F345
:0404B90035379072D1
:0404BA000F69EC6476
:0404BB0009F285FFBE
:0404BC000720CE281F
:0404BD003B2D0E14B1
:0404BE0029B9F3CC99
:0404BF001A4EC80306
:0404C0000F9FEFFE9D
:0404C10022375A9FE5
:0404C20019F1DCB39D
:0404C3003BA9F74F0B
:0404C4000BE5CDB5C2
:0404C5001539CDE137
:0404C600319FCFF99A
:0404C7000227716334
:0404C80008E0B72C65
:0404C9000A2F462E82
:0404CA002FDC6DB105
:0404CB001AEA37BD35
:0404CC001CF09A493D
:0404CD00326F27E281
:0404CE00224E034C6B
:0404CF0006E03F6D97
:0404D0000688001882
:0404D100051E2C34A4
:0404D200295166EA5C
:0404D30002A042F54C
:0404D40031923283AC
:0404D5000A98D45657
:0404D600236F4BFA4B
:0404D7001A545779E3
:0404D8002A30E71FC0
:0404D90022F32FF3E8
:0404DA003410E5D223
:0404DB003B49980CF5
:0404DC0022DC06DF39
:0404DD0039E0EC66B0
:0404DE003A104F2859
:0404DF00136BE81F94
:0404E000328C3BEA35
:0404E1002E6C65AE6A
:0404E20001C9CBB6CB
:0404E3000548D41DD7
:0404E400274F8A60B4
:0404E50026F462FC9B
:0404E6002488A1A421
:0404E70021E5E144E6
:0404E8002E9137C159
:0404E9003945CA2D9A
:0404EA001BD13831B9
:0404EB000514649FF1
:0404EC00031F75086D
:0404ED00341E101F8A
:0404EE002D7134FD3B
:0404EF002A6BE3D0C1
:0404F0003B7FD5AACF
:0404F1001EA37CD2F8
:0404F20024886EC527
:0404F30003BA04B98B
:0404F4003A5B03EF7D
:0404F500287DB1FEAF
:0404F6003EC38899E0
:0404F700325C4ECC59
:0404F80003016A2B67
:0404F9001366AB8655
:0404FA000A3A91A980
:0404FB00019FC7ECAA
:0404FC0029BB877120
:0404FD000E1CF34896
:0404FE00184FC0D7FC
:0404FF0029E00934B3
:0405000015F6EF2FCE
:04050100150B86163A
:04050200047F57819A
:040503000FCEDA7AC3
:040504003209975AC7
:0405050017AA8B198D
:04050600363141AD9C
:040507003DD82D218D
:0405080029E56E2C47
:040509001754397AD0
:04050A001F1A9032F2
:04050B0001492C85F1
:04050C0025C87A8FF5
:04050D00275FF6C7A7
:04050E00109F55875E
:04050F000344A233CC
:0405100023D5018C62
:040511003AEF86FE39
:0405120008D2951264
:0405130002DB90AEC9
:040514003B47FBE185
:0405150029FFBA1CE4
:040516003565F7EB65
:04051700106E62A15F
:04051800382EDF4C4E
:0405190009DB169D47
:04051A00222453D76D
:04051B001E71407994
:04051C0013D9BA3104
:04051D0038BEA1DB68
:04051E000B784F3DCA
:04051F0001B6CD1143
:040520000E9BA2028A
:040521000BDAD667B4
:04052200367D081604
:04052300388230C723
:0405240011A76E2B82
:04052500233BDC2A6E
:040526000FFC9FE542
:0405270011D6F5F202
:04052800128C354AB2
:040529003318CFCDE7
:04052A000526553914
:04052B0016557AFFE8
:04052C002355894288
:04052D000EBECC9F93
:04052E0004E1E5B34C
:04052F0009DAA72618
:040530001EEE64D582
:0405310019173D8FCA
:040532000D5F546A9B
:040533002951A1EBBE
:04053400259EF1CA45
:0405350016FCF84276
:04053600369B456D3E
:0405370038438AE1DA
:040538000356BC6446
:0405390010CFB32507
:04053A003282B8351C
:04053B00307C0D2CD7
:04053C002EE57493A1
:04053D000FF4421B5A
:04053E000586C6F474
:04053F000A5367AD47
:040540003D843505BC
:040541003D117BAB42
:0405420002412EDD67
:04054300115A537086
:040544001B6C524D8D
:0405450020BFA2DF52
:040546001CD5BD7E85
:040547003C3FB63C43
:0405480029C5727DD2
:040549000A71982C6F
:04054A0035A77767F3
:04054B00172B982FA3
:04054C001A35202D0F
:04054D0013FC112E5C
:04054E00320E3D0923
:04054F0025609EA9DC
:0405500039C35764F0
:04055100205926C542
:04055200044726D361
:040553002687B83C03
:0405540010CB50EA8E
:040555000DE8302855
:04055600016B87B6F8
:0405570021964101A7
:0405580021495BC218
:0405590039327611AC
:04055A003159B91446
:04055B003511528480
:04055C003A9F03BB04
:04055D00319ADA16DF
:04055E0003C5F6904B
:04055F002FE30CB5C5
:0405600019D7E201C4
:040561000EE16373D1
:04056200240E6FC430
:0405630023D9430B4A
:040564000D39EE9EC1
:0405650018049B8952
:0405660010F6FE038A
:040567002902F48CE5
:040568002A99A97DA6
:040569001B74592C7A
:04056A003868E357B3
:04056B000CBAF0389E
:04056C00341EC7DE94
:04056D001C9FBFE62A
:04056E00278B0F4682
:04056F00127D9FCA90
:040570002639EC70CC
:040571001DC36CEA50
:040572002CC75CDA5C
:040573002AFA6B4BAA
:04057400000A1AA8B7
:04057500189145B0E4
:0405760033CB9023D0
:040577002419151816
:0405780010DD5DD560
:0405790031E98C8454
:04057A0001CB4D580C
:04057B002D4E3DE4E0
:04057C00110C8D577A
:04057D002BC5C13C8D
:04057E0034ADC14394
:04057F0024B9D29633
:0405800011C858271F
:0405810000C22E8600
:040582002E89BDAA57
:040583003635A41C49
:0405840023AB8C71A8
:0405850036362AEBF1
:0405860034B9CFAB0A
:040587002B332701EA
:040588003BC6A28E3E
:0405890018C471DB46
:04058A001604AC6E39
:04058B001F74246055
:04058C00102897F3A9
:04058D001A809B2E07
:04058E0020D2FF4D2B
:04058F000C3C86D5C5
:040590002ACDB4B00C
:040591000428BF1D5E
:040592000DA5141788
:040593000193273376
:040594000B60AEA2A8
:040595003E6EBF54A3
:040596000861262FA3
:040597000E3E69E1CA
:040598000A55ACD381
:040599001CCD279DB1
:04059A000EAB4B1B3E
:04059B003E62470F66
:04059C00020461E410
:04059D001FEEE9D68E
:04059E0026D77BF9E8
:04059F00331DA76BF6
:0405A0003079EDA41D
:0405A10027060070B9
:0405A200066E0EFDD6
:0405A3001CEBA3FCAE
:0405A40033CECEDDA7
:0405A500199BFBD2D1
:0405A600288B25E990
:0405A7001DAE97FFEF
:0405A8001AC7988551
:0405A90037B0190549
:0405AA0008583DBCF4
:0405AB002D7D2D482D
:0405AC0023C7B71A90
:0405AD0035B75844C2
:0405AE002BE00AEA4A
:0405AF001282B0C93B
:0405B00034AF798F5C
:0405B1002E44FDCE09
:0405B20038FB3EB61E
:0405B3001F3FFDE207
:0405B40017443F9B0E
:0405B5003A7720CEA3
:0405B6001FD14045CC
:0405B70000EEDF9BD8
:0405B800272476B7C7
:0405B90027F458C704
:0405BA001C3EDE21E4
:0405BB0030000447C1
:0405BC001514FC35E1
:0405BD003946E8369D
:0405BE0008C484AB3E
:0405BF0006072A1DE4
:0405C000051F169469
:0405C100368708C8A9
:0405C20002C7C2C8E2
:0405C300089501B2E4
:0405C40019905263D5
:0405C5001F0EB3AAA8
:0405C6001864777AC4
:0405C70029EA23A159
:0405C8002E6536C89E
:0405C9002B521C6A2B
:0405CA002AE7C1A0BB
:0405CB003BC3128F8D
:0405CC0031F439B914
:0405CD003261AD5892
:0405CE00008FA89A58
:0405CF00311E1CC8F5
:0405D0003BA773D8FA
:0405D10007A73AB886
:0405D2001B10509F0B
:0405D3001AA89BF7D0
:0405D400056C352954
:0405D50001B95D0605
:0405D6001A42EBD505
:0405D70026F09BD59A
:0405D8001D01ED3ADA
:0405D9002709513D60
:0405DA0006A93486B4
:0405DB000ECBAD6A2C
:0405DC000A56AB7B95
:0405DD00360A216356
:0405DE0021B2A9EDB0
:0405DF0006D1DBD98D
:0405E0001744DA17CB
:0405E100184ACDF8EF
:0405E2002D486CB57F
:0405E3000E66C84A8E
:0405E400267628CF80
:0405E5003737B06490
:0405E6001DE439EAED
:0405E7003802ED8B5E
:0405E80004EE1A7291
:0405E900271132F4B0
:0405EA000848F2B615
:0405EB0032C1376F73
:0405EC0027DD1DD713
:0405ED00177744A98F
:0405EE00057D96F8F9
:0405EF003E0AD718D1
:0405F0003CB189355C
:0405F1001AD8D997A4
:0405F20021B0DAD585
:0405F3002EA764E6E5
:0405F4001BD62CC026
:0405F50002AC388E8E
:0405F6002954C9B308
:0405F7000D86032A40
:0405F8000220474D49
:0405F9003543B8F0DE
:0405FA00255BEF1D71
:0405FB002633B3F3FD
:0405FC001CBEB1F878
:0405FD0014B115F52B
:0405FE002FDE95E770
:0405FF0027EF86A6B6
:04060000331291B868
:0406010000D04ACF0C
:04060200326A5545BE
:0406030038D82BB701
:04060400343AC70CB1
:04060500025732E87E
:040606001A702D62D7
:04060700365450B95C
:040608002685C5C8B6
:0406090023A82A6B8D
:04060A002BC411F5F7
:04060B00307C0A3401
:04060C002D22B43BAC
:04060D000AF6552371
:04060E00112860A9A6
:04060F00365FF2332D
:040610002B4A162E2D
:04061100139F2DC73F
:0406120023E3483660
:04061300190C984DD9
:040614002065E69ADD
:04061500351565EE44
:04061600307AB0E3A3
:040617001D069CD947
:040618003AA4397D4A
:0406190016F802735A
:04061A003845A73E7A
:04061B00095530C08D
:04061C001458B9397C
:04061D001D048A50DE
:04061E003A79FE85A2
:04061F001AB0AA81E2
:0406200021A1B3E879
:040621000A6E36D94E
:040622002B9F886022
:0406230023FEAE9371
:0406240021ED9E6CBA
:040625001A8231F60E
:04062600167D6BB121
:040627003D49CAFC83
:040628003C99F3BB4B
:040629001F44854E97
:04062A001307A06CA6
:04062B002E3DFFED74
:04062C0001CA4B9123
:04062D0012376253CB
:04062E00035D9816BA
:04062F0033BA7C2F2F
:0406300015F48F3DF1
:0406310025DDF3C20E
:040632001D02E302C0
:040633003B02C8A31B
:04063400273C862DAC
:040635002CFBCFBB10
:040636001246B701B0
:0406370003D3AEB784
:0406380037464607F4
:040639002AD7DF6677
:04063A00263FA27342
:04063B00104BA25B63
:04063C00006D9B6151
:04063D0024A87DADC3
:04063E001C034374E2
:04063F00378C47E6C7
:040640002A5BF648F3
:040641001F47FBA8AC
:0406420029882F468E
:0406430011CB3AFDA0
:040644003D91248E32
:040645000C5E978828
:0406460039532E4DA9
:04064700304466B124
:0406480019C963C2A7
:040649000FCD302B76
:04064A0030CA4AA3C5
:04064B002671C8D973
:04064C0013F5BEC024
:04064D0021A6C5928B
:04064E0019492F3FD8
:04064F0030AC3B622E
:04065000031FC10CB7
:04065100224DAB7219
:0406520011AB910C4B
:040653002243985551
:040654003C798F045A
:0406550012FCC85972
:040656002321033821
:040657001C1560CC42
:04065800266599F288
:04065900391C77AB26
:04065A002B9CE46B86
:04065B000C7AC0C095
:04065C0037F981A148
:04065D00151A4AD749
:04065E002D64E2F332
:04065F003ABBBB9C4B
:0406600007118F05EA
:040661000897E119FC
:04066200156FF40F0D
:040663001F80B5BC83
:040664002566CD61D9
:0406650034FCBE6D36
:04066600102C3BC950
:040667000D15263314
:040668002528BDDBA9
:04066900020FCA842E
:04066A0002FB56DA5F
:04066B00286DD230F4
:04066C002AAFD05988
:04066D0039307203AB
:04066E0039C61773FF
:04066F0009A1CC39D8
:040670000F94732D43
:04067100333139D612
:0406720000FFDD7B2D
:040673002830D1EE6C
:040674001AD9AC02E1
:0406750020B10ADACC
:040676000E784E7834
:040677003973EEEBFA
:040678003427DBD870
:040679001731D4D28F
:04067A001DAFB8BD3B
:04067B000955E8989D
:04067C00039617EFDB
:04067D000D0FDA3350
:04067E00329A81E843
:04067F000C2373E1F4
:0406800009AB03E8D7
:040681001F5400B250
:040682002A73467B16
:0406830030ABCADFEF
:040684003E30DF0F16
:040685003060DA5CAB
:0406860005B17DC479
:0406870011283256AE
:040688001AE67224D8
:040689001655F3050A
:04068A002B9EF03F74
:04068B0008AAA41FF6
:04068C0027A6C1E0FC
:04068D0009B00FA9F8
:04068E002AAD9F3BB7
:04068F0026E2E2126B
:0406900014AA591C33
:040691001F3F766A27
:0406920005D1C0C40A
:040693000970F108F1
:0406940013A82CDE9D
:0406950012121743E3
:0406960001EBB420A0
:040697003ACFB9FE9F
:0406980017A0045F44
:040699001C6D73045D
:04069A000D0DC9B5C4
:04069B0033A67717F4
:04069C00016B2A754F
:04069D00292D52EDC4
:04069E003BE166CC0A
:04069F0000644B3078
:0406A000065FDDFE16
:0406A1000CC276F31E
:0406A2003EAE2E63D7
:0406A3001034661198
:0406A40039BECC0887
:0406A500223FEF44BD
:0406A60007E4DCE7A2
:0406A7000D23FA2500
:0406A800182AD41127
:0406A90021743ECFAB
:0406AA001B5E0A7A4F
:0406AB00030C6B725F
:0406AC0036F39C7F06
:0406AD0008DB9A05C7
:0406AE00336A03C8E0
:0406AF000647A14C0D
:0406B0002BCCF91442
:0406B10010739FE93A
:0406B20022025427A5
:0406B3001A02B35B19
:0406B4002573A8EE14
:0406B5003755959F81
:0406B6002849C0B956
:0406B700268A17ADCB
:0406B8003E9260EA24
:0406B900091211A76A
:0406BA0012B41B0E4D
:0406BB0007AB978072
:0406BC003C6F7AFD18
:0406BD003D3FFD9F21
:0406BE0012FA3A7181
:0406BF0018B119361F
:0406C00028DC985446
:0406C10004F1E74118
:0406C20031F2B42637
:0406C3000805D50C45
:0406C40031F6439F29
:0406C5002D6C93B154
:0406C6001F4FDB9F48
:0406C7002A1E38B6F9
:0406C8001CF623C336
:0406C9000A8D8056C0
:0406CA000DB86815EA
:0406CB002ADEDB5BED
:0406CC001D66C83BA4
:0406CD0004E91F1EFF
:0406CE0025758A1CE8
:0406CF001A3A12E0E1
:0406D00010799511F7
:0406D10039FDE661A8
:0406D20036BB59B921
:0406D30014D941CF26
:0406D4002E02A7E863
:0406D50030DF1CF8FE
:0406D60036E8EC60B6
:0406D7001570C7547F
:0406D8001F023123A9
:0406D9000BF23C459F
:0406DA0015D4BB93E5
:0406DB0030B7919D06
:0406DC001A294D0882
:0406DD0030A890822F
:0406DE000C5E74B585
:0406DF0024ABBFBECB
:0406E00013814291AF
:0406E10015F1BA90C5
:0406E200305AF4D8BE
:0406E30035E2AAFF53
:0406E40011622D185A
:0406E5001844830230
:0406E600214EF41697
:0406E7001A1FBFE730
:0406E8002D21AD24EF
:0406E9002B9EDE0363
:0406EA003CC01434C8
:0406EB00217CE89FE7
:0406EC0015DF04759D
:0406ED0025CD838E06
:0406EE003116DBE600
:0406EF001B9F29DF45
:0406F0000FB21CDE4B
:0406F1001A46D0D302
:0406F2000143F521AA
:0406F300008D6867A7
:0406F40015DE9D5E14
:0406F500278F2C6CB3
:0406F6000E1F4A5E2B
:0406F700023C301F72
:0406F8000DB84D6686
:0406F9001B0B6EC0A9
:0406FA002826247812
:0406FB002902BEEE24
:0406FC000ACCDB0742
:0406FD00097743C175
:0406FE00243C1FBCBD
:0406FF0035D3F3F507
:040700002F84FBEA5D
:04070100159E2CFD18
:0407020004EA75523E
:0407030033B8EF5DBB
:04070400263286878C
:0407050026AB331FCD
:04070600396E747460
:04070700260AC5E217
:0407080029369736C1
:0407090014344672EC
:04070A001E0DAA1501
:04070B0039CE9DEE58
:04070C002E143D7CEE
:04070D000E18DCF1F5
:04070E0020B7D97EB9
:04070F0029A4F8DC45
:0407100030A86E8619
:04071100371C8A0AFD
:040712003AFA3B4A2A
:040713003D9D6C3567
:0407140034CBB65ECE
:040715003889AEC5AC
:040716001708146F3D
:040717002B3641C379
:040718001BF453F08B
:04071900343023361F
:04071A001635A7F4F5
:04071B002E8D746843
:04071C003400C229BA
:04071D003DDD3D96EB
:04071E0038092279FB
:04071F0003D686690E
:040720002E93BB1A3F
:040721003D7292345F
:040722001917BCF0F7
:040723001A05871E0E
:040724001A6BDF2647
:040725001D95D4D773
:0407260028F8A07996
:040727002EE080C779
:0407280012D0156B6B
:04072900296DC19ED7
:04072A001E9FE675B3
:04072B0039F1786DBB
:04072C00367CF1D353
:04072D002B4E260821
:04072E00075DF41F50
:04072F00227A5503D2
:0407300005D12D457D
:040731002FC24F5F25
:0407320017E69FC265
:04073300381820B999
:040734000FEFD1856D
:04073500174EA0318A
:040736003D9BF7836D
:040737001472A04751
:040738003E270AB896
:04073900029DDD1030
:04073A003EDD580048
:04073B000691A04043
:04073C0013EE05654E
:04073D0037F6DFEEBE
:04073E003DD32BEF8D
:04073F0024CEF19E35
:0407400010D6E19C52
:0407410008B892263C
:040742001017EE910D
:040743000CAADECC52
:04074400029D952855
:040745001437ABF8C2
:040746002A932C8B3B
:0407470030BBA5E23C
:040748001086DD67D3
:040749003DF5CFCFDC
:04074A000CD26AAAB9
:04074B001FAAE67F7C
:04074C001BA0643A50
:04074D000D71579241
:04074E0008A2DA071C
:04074F00340973FBFB
:040750003D1E0F3B00
:0407510018CDE58F4B
:040752000A771D1BEA
:040753000B140B3444
:040754003E7AE3877F
:040755001BC75981E4
:0407560010144C47E8
:040757001B0131430E
:0407580039D24090C2
:040759001FF21C3D32
:04075A00150B2CA4AB
:04075B000E58ADA8DF
:04075C00239072274D
:04075D001B8DA59AB1
:04075E003CBC5CA0A3
:04075F002332DE84DF
:0407600022A8AADD44
:040761003B483138A8
:040762000ABC6C7EE3
:040763001E887CEC84
:040764001986DAA870
:040765002838C82A3E
:0407660028A4EFDBF9
:040767002D8D5C1B5D
:0407680027D32182F0
:0407690010E22F0863
:04076A001A88B0E752
:04076B0002653126CC
:04076C000C7F48D6E0
:04076D003421B5E49A
:04076E00212B54DD0A
:04076F001AD5A6D021
:0407700033443A4A8A
:0407710037A5A9D22D
:040772003B6EA367D0
:040773003D6B263D77
:040774001E68377F45
:040775001FCDCC4583
:040776002AB95BA49D
:040777003BA09453BC
:04077800215DCE2011
:0407790010BF101588
:04077A00286C9C0D3E
:04077B002F71203D7D
:04077C0019A55B3C24
:04077D0010F50F0460
:04077E003DECB16637
:04077F000C102E63C9
:0407800027DEE0414F
:0407810027028CD7E8
:040782003075A1B974
:040783000FA738F391
:04078400082391664F
:04078500241D1039E6
:040786003737C741F9
:040787002B739ACB6B
:04078800218B1F049E
:04078900293BD95CD3
:04078A0000EABA03C4
:04078B0026808749F4
:04078C00391C41CD06
:04078D000BAA20B5DE
:04078E0011E7DD7121
:04078F000652BACC88
:040790001ED1B0794D
:0407910006D0E9485D
:040792000533807437
:04079300090A3FF61A
:040794001A953BDC9B
:0407950013D751E144
:0407960005B4A750AF
:04079700390157CB02
:040798000DA43F4C21
:04079900012A5D4E86
:04079A000E68A1162E
:04079B000461DE8691
:04079C0006B724EA8E
:04079D003789AC7D6F
:04079E0017E9B8F1AE
:04079F001756CDCC50
:0407A0002D58566614
:0407A10028579F69CD
:0407A20005E22FFB42
:0407A30033ACEAA4E5
:0407A400257779B785
:0407A50005ACDBD2F2
:0407A60005A9B607E4
:0407A7001EF0872891
:0407A800229EC19933
:0407A900011BFFBB76
:0407AA0022B510EA7A
:0407AB0036D6C4EB8F
:0407AC002097F0277B
:0407AD0027A382C636
:0407AE0013F4390FF8
:0407AF00361F22517E
:0407B0000EE6D1C0C0
:0407B1002AF4A0C8BE
:0407B200015956B7DC
:0407B30027151402F0
:0407B4001F2C75532E
:0407B5000DB147CF6C
:0407B6001E2DB72E0F
:0407B700121F426D5E
:0407B800337C63F338
:0407B9001CC301E775
:0407BA002E7190C646
:0407BB001FB9CEA2F2
:0407BC001A9C2E3520
:0407BD00054B74DD97
:0407BE003CEC8A1A6B
:0407BF0035E3AA92E2
:0407C0002B2A8765F4
:0407C100086CD1D619
:0407C200190BBCB89B
:0407C3001BF650A32E
:0407C4002766F9208B
:0407C5000B90C8834A
:0407C6000699FE147E
:0407C700204422B5F3
:0407C800153755B6D6
:0407C9003414773835
:0407CA0022EEBBE17F
:0407CB0004E1B4E2AF
:0407CC002BCCC2422E
:0407CD002ED62530CF
:0407CE0012A1CFE1C4
:0407CF003C89803CA5
:0407D000316483CB42
:0407D1003841EDAD11
:0407D20009DD4424D5
:0407D3003250D625A5
:0407D40016738654BE
:0407D500056E19B2E2
:0407D600258151FF29
:0407D70035C647A339
:0407D8002F263DD1BA
:0407D9002867441534
:0407DA0035C9A6F285
:0407DB0037FC238440
:0407DC002B63E1B0FA
:0407DD00246B2EB3A8
:0407DE001C6318067A
:0407DF000D3A427815
:0407E0000AD9F5EA53
:0407E100316087817B
:0407E20011375E2449
:0407E300031E666526
:0407E4001166BD825B
:0407E500195D312940
:0407E600046CD8E3E4
:0407E700262A4F313E
:0407E80031296EA5A0
:0407E9001133EB9D40
:0407EA002DC87B1B80
:0407EB0015D2EBF345
:0407EC0019567181A8
:0407ED0031094A2C58
:0407EE002B06343E64
:0407EF001C37A1BB57
:0407F00012A0997A40
:0407F100023C7B8BC0
:0407F2003A73C24252
:0407F300176F01D1AA
:0407F40009289154EB
:0407F500263760C97A
:0407F60014A9B9FD8C
:0407F7003EABC8A1AC
:0407F8001D944DAD52
:0407F9003C91648B40
:0407FA00348E1273B4
:0407FB000688AFD2EB
:0407FC002E7117F54E
:0407FD0016F801BE2B
:0407FE0037DA4DA5F4
:0407FF0000DC66763E
:00000001ff
