:020000040000FA
:0400000000000001FB
:0400010012614B75C8
:040002000F06E911EB
:0400030033ABD31434
:0400040005C3A19FF0
:040005001B01A6E253
:0400060000006C7C0E
:040007002495C8EE86
:04000800036BF64848
:040009003CB654733A
:04000A0024B15310BA
:04000B0029F3FED403
:04000C002DF8DC10DF
:04000D0031217C1908
:04000E0037B1A4F86A
:04000F00180102D9F9
:0400100015BEBC61FC
:040011000CA0963B6E
:040012000A81085AFD
:040013002F725342B3
:0400140024A427F009
:0400150008A0C3A7D5
:04001600187C056EDF
:0400170002F992C593
:0400180010C5F174AA
:0400190005DFDA061F
:04001A0025DC58F891
:04001B00318929FE00
:04001C00250CDEFFD2
:04001D00145E2E49F6
:04001E00083DC7389A
:04001F00145818C396
:0400200031D376BDA5
:040021003397297B6D
:040022001CBF578721
:040023001E95142FE3
:04002400340810E5A7
:040025003D7E1F52AB
:040026000924E97E42
:040027001197A27A11
:040028001ABB27BE1A
:040029002CE965F366
:04002A001178710FC9
:04002B001C0D5984CB
:04002C000172313DEF
:04002D00125E0CB69D
:04002E00394B39DE33
:04002F00143F9823BF
:040030001A48F91859
:0400310000CADB7DA9
:0400320016E5930D2F
:040033003D6AD070E2
:040034003D694C9541
:04003500297C51FCD5
:040036002C5E9A3B67
:04003700167B0B2EFB
:04003800264C8EC103
:04003900063BCC2D89
:04003A001E4F8A1CAF
:04003B001FEDBE6A8D
:04003C0026134BF349
:04003D0026E0AB7599
:04003E00253E4F57B5
:04003F0007D9D708FE
:04004000267A813764
:040041003E3CBC3451
:040042002BC30BF2CF
:0400430019182587DC
:040044003506E1D2CA
:040045000E0B7A51D3
:040046003B9988302A
:040047002940ADB3EC
:040048003B4395A4FD
:040049000ED6F60DCC
:04004A0017899E2351
:04004B00325952FBD9
:04004C001FA1D051CF
:04004D001F6B5F7551
:04004E0003ED451564
:04004F000F1C90AB47
:040050003A7F344E71
:040051001535BE9F04
:040052003572DC9B8C
:0400530033D76269D4
:040054000D924B645A
:040055001C8E1CBB26
:0400560037FDD8C1D9
:0400570031A344632A
:040058003683E2C544
:040059000C879D5320
:04005A001FAA9D003C
:04005B0019249D4384
:04005C000C2608C89E
:04005D0038CE8E3AD1
:04005E0019DC9545CF
:04005F00399F229112
:04006000030FD54F66
:0400610030544508CA
:0400620018308BE5E2
:04006300294CF9FC2F
:040064001FB13CC2CA
:04006500386986B8B8
:040066003058A0FB73
:0400670014707C682D
:040068000ED8352554
:040069002E7F1EBC0C
:04006A001EBB0F3C6E
:04006B000A927FB2C4
:04006C0035A78A1515
:04006D000667FF1310
:04006E0018B5404938
:04006F000329E2C2BD
:0400700013987BFD69
:040071001B34DFF667
:04007200354761822B
:040073001CFB8624C8
:040074001B29C4B0D0
:040075003013A8821A
:0400760002AAA8B47E
:040077000888142BB6
:040078003075B6F435
:04007900170BF76208
:04007A003BE55657B5
:04007B002E1C23F024
:04007C0001E5A29563
:04007D0009ABDA18D9
:04007E0005933A7E2E
:04007F00399903ABFD
:040080001AE21EB2B0
:04008100065A589D26
:040082002EF198E6DD
:0400830004FFB2ECD8
:040084003DFD736863
:040085001489875AF9
:040086000D19C7CABF
:0400870037A51D1468
:040088003016C65513
:040089000BB631AED3
:04008A0016735B503E
:04008B0016376420A0
:04008C0016C5E73876
:04008D003B1E25965B
:04008E0007539A1E5C
:04008F000E15640ED8
:040090001585D3FA05
:0400910030B1D9228F
:04009200392777CCC7
:040093001955168E57
:0400940017D341E15C
:0400950039F2467680
:04009600067FFFECF6
:040097003B6F305F2C
:040098000DC7B41AC2
:040099001EBAA908DA
:04009A00073EABD69C
:04009B001ED38514D7
:04009C0039A77B17EE
:04009D0017631B5E6C
:04009E002EF61CCC52
:04009F0027190ACE45
:0400A0000E69772549
:0400A1002308B0730D
:0400A200139CEF912B
:0400A3001A4CC1240E
:0400A400236BB1B564
:0400A5002FCFE04237
:0400A60008193908F4
:0400A7003BD5BF3353
:0400A8002DE5145DD1
:0400A9000EE89004C9
:0400AA003B62328003
:0400AB0029DC2565C2
:0400AC002B86F1E4CA
:0400AD001F81B95D99
:0400AE00004CC9C871
:0400AF002837583165
:0400B0003AAE0F71E4
:0400B10000A870A093
:0400B20008D90F4317
:0400B3001AE8CEA2D7
:0400B40027121C5C97
:0400B5000EF31E47E1
:0400B6003352C1649C
:0400B700397A0C5E28
:0400B8000113992C6B
:0400B9002FA03FFF36
:0400BA00319C491616
:0400BB0036B884933C
:0400BC00086B83CC7E
:0400BD00351542446F
:0400BE003E2CBF75A0
:0400BF0019CE4143D2
:0400C000352858FA8D
:0400C10013ADDCB2ED
:0400C200338DD8465C
:0400C3000CE06D429E
:0400C40002D1AD4A6E
:0400C5002F9FB3E3D3
:0400C6000AE43549CA
:0400C7003C91DC3C50
:0400C8000BD1F0DE8A
:0400C900133CADBB7C
:0400CA001A4B22FAB1
:0400CB001D3E93B48F
:0400CC0022D4888D25
:0400CD0018CF947440
:0400CE00092E3F1E9A
:0400CF001E5EE95B6D
:0400D0001BD63BAF51
:0400D1000AFF48AE2C
:0400D20036DD64258E
:0400D30038DCAD5711
:0400D40009172AAD31
:0400D5000A2B37A01B
:0400D60033828CB134
:0400D70013F0894A4F
:0400D8003EABBF2B51
:0400D90002F447EFF7
:0400DA0011C9981997
:0400DB0003665FF069
:0400DC002AB678C602
:0400DD00076D9568AE
:0400DE0018465097D9
:0400DF000B8BA6AA37
:0400E000245019642B
:0400E1000EDFB2611B
:0400E2000545BE23EF
:0400E3000FDC318C71
:0400E400344E9338CB
:0400E5002EF45E682F
:0400E6001AD23DB934
:0400E700149B394CE1
:0400E8000A0ED3D950
:0400E9001A4EF46C4B
:0400EA00037A94C938
:0400EB0022B14948AD
:0400EC00313FC34A93
:0400ED00397BAD3A74
:0400EE00015E17BDDB
:0400EF00025BC6E00A
:0400F0000884D75A4F
:0400F1003EA9A2F68C
:0400F20003157AC9AF
:0400F300294BFCD1C8
:0400F40028D73930A0
:0400F50031BAD06EDE
:0400F600235238E277
:0400F7002E9A4AEF04
:0400F80020C44009D7
:0400F900020659E9B9
:0400FA00170FACB779
:0400FB0023FB076577
:0400FC003BD2A878D3
:0400FD003D98CF4813
:0400FE001D6297C523
:0400FF000FD1D55DEB
:040100001434B4D02F
:040101001F75F2C8AC
:040102000A7BD2CED4
:0401030021D65C7E27
:0401040017C86CAC00
:04010500210679BA9C
:0401060035BF31DBF5
:0401070005ADC28AF6
:0401080010F8F1AD4D
:0401090037D9BA9890
:04010A00197D0A3D14
:04010B00352D350F4A
:04010C002C342D4121
:04010D0032DC690A6D
:04010E000D89EE7CED
:04010F00331E212B4F
:040110001ED28587EF
:040111002397AB6D18
:0401120014DD0B24C9
:040113002E62C10196
:0401140003CBBCAEAF
:040115000F45DC8B2B
:04011600345D6C29BF
:040117003848C75449
:0401180025447168A1
:0401190003B1985F37
:04011A0012E8C5BA68
:04011B0030E15CF47F
:04011C002BE1556C12
:04011D0026479B7B5B
:04011E001B6E8E03C3
:04011F00097DDBA3D8
:0401200023AA1D7081
:04012100009FA1C4D6
:040122000FDEA487C1
:0401230002B6F177B8
:040124002F75DE1441
:04012500285F1690A9
:040126002F5144A869
:040127002C2109DDA1
:0401280028C089FC66
:040129000F7B24F430
:04012A000D47AFB816
:04012B0037436807E7
:04012C000003CFA756
:04012D001179B6D5B9
:04012E000BD8DFAE5D
:04012F00327CBB74EF
:0401300028AAA63122
:040131000BE8F7F2EE
:04013200249308DE2C
:0401330026B64CFEA2
:040134000789ABD2BA
:040135001EDF64FE67
:040136001804E58044
:0401370039A21CA726
:040138000205B45DAB
:040139000E08302C50
:04013A002FEBC4B42F
:04013B00042FDDB6FA
:04013C0035410085C4
:04013D00027BF15AF6
:04013E00087A958E18
:04013F000789CD144B
:0401400034BEE46D78
:040141000EC824EDD3
:040142002F640073B3
:0401430015BADB4EC0
:0401440035384A24DC
:040145003E03B8AC11
:04014600028445B337
:0401470028D5C545AD
:04014800165069DB09
:040149002B56FC41F4
:04014A002C6ABD86D8
:04014B000BC5983513
:04014C002DF9425CEB
:04014D0035E462E64D
:04014E003E4B838B16
:04014F00136D50A23A
:0401500023C8083286
:0401510033AC015872
:0401520035DAA52ACB
:040153003AE892559F
:040154000B61EFBD8F
:040155001E6744EBF2
:040156001A98D26CB5
:0401570011816D6243
:0401580007255B55C7
:0401590036D2576FD4
:04015A002C13C7E4B7
:04015B002578515260
:04015C00269B4E612F
:04015D003AE6353D0C
:04015E001FF00CD5AD
:04015F003964CF161A
:0401600017E8B65096
:0401610001E5BB01F8
:0401620025BAA04FCB
:0401630031A71FD3CE
:040164003D2FDC044B
:040165000A313388A0
:040166000AB1E57580
:04016700394AFD36DE
:0401680022B6B91BE7
:040169002390187354
:04016A00116FD843F6
:04016B00187244467C
:04016C0029786E344C
:04016D0023B50B3576
:04016E001858D1202C
:04016F00332C1E49C6
:0401700023D8E65753
:040171002EA66FB097
:0401720031A309911B
:04017300277B8C0159
:04017400317EA174C3
:0401750019551EFBFF
:0401760022EC083B34
:040177003BEC08AFA6
:040178001FE1788289
:0401790037E7F84C20
:04017A002782CEB555
:04017B00224CB9D485
:04017C001CCCA444AF
:04017D003E6DA147EB
:04017E0031DCFFE988
:04017F0019BBF44272
:040180001B00376FBA
:0401810013FF3773BE
:0401820018DC0F3343
:040183000683A692B7
:0401840026A1EABE08
:040185000975FB8677
:040186000BDD7F22EC
:040187001DB33D2B3C
:040188001CD0B5C50D
:040189000E0A3B78A7
:04018A000125994F63
:04018B0002924C91FF
:04018C00068BD7FA0D
:04018D0029AF91897C
:04018E001A86F5A830
:04018F0028DB55E133
:0401900004F3944997
:040191003C2A3DCCFB
:04019200177A09CA05
:040193000140025DC8
:040194003001AF90F7
:040195001D783E6C27
:040196000FFA96CFF7
:040197001B3796E795
:04019800017DCD4CCC
:040199002B805EE475
:04019A002B9176D758
:04019B003083996BA9
:04019C00398044ACB6
:04019D0033C65CE326
:04019E001A1B7E3D6D
:04019F003165DB4F9C
:0401A0001367F8E504
:0401A1000457200AD5
:0401A20024E97001DB
:0401A30032546889E1
:0401A40009E2B47543
:0401A50034DB38F41B
:0401A600101D0968B7
:0401A7000287B559BD
:0401A80010526CBCC9
:0401A900353C17705A
:0401AA003350B39A81
:0401AB003CE62AE71D
:0401AC0019C8528C90
:0401AD0029DD5EBE2C
:0401AE0026CBDEE09E
:0401AF00112E3E4F80
:0401B00024DB9DF8B7
:0401B1000035D2B68D
:0401B200202ADF49D7
:0401B30007D1C3BAF3
:0401B4001DF6317F84
:0401B50010EF64984B
:0401B6001884E4784D
:0401B7003C36D7CC2F
:0401B8002396BBCE01
:0401B900115D389705
:0401BA0012F159C520
:0401BB002D34BC61C2
:0401BC0039411FC8DE
:0401BD000C6A2ED1C9
:0401BE00118DA251AC
:0401BF001976FF2787
:0401C000181676B5E2
:0401C1001B93DCE9C7
:0401C200215361FE66
:0401C300055EC3CB47
:0401C4000144ACEB5B
:0401C5000357DEE915
:0401C6000BD5B21291
:0401C7000C011D3BCF
:0401C8002A5A657AD0
:0401C90017A0710EFC
:0401CA002F36E3A445
:0401CB000BBA3F1616
:0401CC0027A1C4485B
:0401CD0026EEF7D94A
:0401CE0003B855F22B
:0401CF00160881FA93
:0401D0001BAF21E55B
:0401D1000E03C267F0
:0401D20038892E6ECC
:0401D30005EF55DE01
:0401D40031CBB2CCAD
:0401D5003264470B3E
:0401D6001220D71C00
:0401D7001D9585B03D
:0401D80034C883A400
:0401D900042735487A
:0401DA002E1854D0B7
:0401DB00100AB64C04
:0401DC001077E24175
:0401DD001552CE28C1
:0401DE0029589847BD
:0401DF0011B827B478
:0401E00020D0852482
:0401E1002FD8411CB6
:0401E20013B4E70B60
:0401E3003DA4968D14
:0401E40032A76EFCD4
:0401E5001CD30C9685
:0401E600296B74C449
:0401E700089706EE81
:0401E80007C86B4B8E
:0401E900375BFDD6AD
:0401EA000F2BBA9489
:0401EB001D092EE0DC
:0401EC0017FEF7679C
:0401ED003D03B473A7
:0401EE0008878EE30D
:0401EF0028E4DC0C18
:0401F0002874B57D3D
:0401F1003C29025B48
:0401F200260F207341
:0401F300011B825317
:0401F4001000EB39D3
:0401F50039AF5F308F
:0401F6000DE85EAD05
:0401F700132B202D79
:0401F8001F13F9F9DF
:0401F90028FE224B6F
:0401FA00353DDFF9B7
:0401FB003B19F7A015
:0401FC000A6EBFC701
:0401FD000A8670B14D
:0401FE003761EAF08B
:0401FF0023CFF98889
:0402000016352CA8DB
:040201000B9B0B6DDB
:040202002B4CC6605B
:0402030026192F8FFA
:0402040037AAAC9ACF
:0402050008E2000605
:040206003B785B06E0
:0402070014FB70C1B3
:040208002A604BB865
:0402090036831B78A5
:04020A00223C3274EC
:04020B001CCA7B91FD
:04020C000CD23832A6
:04020D0005CBE53FF9
:04020E000F9603F054
:04020F0004378FFA27
:040210003071251014
:0402110029E4D48385
:0402120030483A1422
:0402130035D99482C3
:040214000D630D5514
:0402150021272DD0A0
:040216000C50601612
:04021700008DEB1952
:04021800210C3E4D2A
:04021900113A69F736
:04021A00393A3A0E25
:04021B0014ADB77EE9
:04021C002037BD6466
:04021D0006DC6B2769
:04021E0032C670393B
:04021F00122F69E34E
:0402200026D1A3F24E
:0402210035ADE552C0
:0402220031A5B4CC82
:0402230021A84F0BB4
:0402240031A60FEB05
:040225001B22EE8C1E
:040226001BC53E2D89
:0402270033E94F0365
:0402280007594D1114
:04022900160EB333C7
:04022A002DF6841514
:04022B00092E6CF23A
:04022C001DE4E9D60E
:04022D0009D72FCCF2
:04022E000DF4738BCD
:04022F001F382A9CAE
:04023000078086CAF3
:040231001C82CD5D01
:040232001CB7580796
:040233003A0525D291
:040234000206833A01
:04023500183E3DA58D
:040236003CDE74E452
:04023700366E83CFCD
:04023800267165CCFA
:040239000562858352
:04023A0021540499AE
:04023B0037C74E0E65
:04023C002B106550CE
:04023D001F82CE420C
:04023E000DCF1C6B59
:04023F00364BE6282C
:0402400030728C8DFF
:040241003E6756734B
:0402420018AE88600A
:04024300129F898CF1
:0402440021FECFFBCD
:040245002CFBFD9AF7
:0402460027073CA0AA
:040247000ED5F7EDEC
:04024800341263E029
:04024900052D8FA64A
:04024A002F4A66DEF3
:04024B001B3B80E7F2
:04024C0000949A1868
:04024D00210BF92D5B
:04024E0006DA8691B5
:04024F0018DB9377AE
:0402500008DF29DBBF
:0402510024B3B4DC42
:0402520028FCC2A022
:04025300157B74B9EA
:0402540010BE4E6624
:04025500273176B621
:0402560023209AC205
:040257001CE82B2D47
:040258000C697EB6F9
:040259000BEA7082BA
:04025A003B20E47EE3
:04025B003B0A0478DE
:04025C001024914D8C
:04025D003AEBB3E0E5
:04025E00385E12B93B
:04025F001CC5426414
:0402600009236EE917
:04026100280C6429D8
:040262001A32C16B20
:04026300119D3ABDF2
:040264001856BC422A
:04026500288E26C0F9
:040266001D73F514FB
:0402670003518AB104
:0402680014FEA69545
:040269003C00112123
:04026A000C1EDDEF9A
:04026B000A437EF5CF
:04026C00172EF2D285
:04026D001011D40197
:04026E0027FF67EA15
:04026F002541D05CF9
:0402700000643ED513
:040271003DF0C8F3A1
:04027200150E0DAEAA
:04027300034300BB86
:04027400274CC84407
:0402750038477C3852
:0402760008804A7F33
:040277001E476EBAF6
:040278000F03E3EBA2
:04027900092338F22B
:04027A0007AD6D104F
:04027B00179769ED7B
:04027C002C319AD6B1
:04027D00265FE5CD46
:04027E0034A96FE64A
:04027F0006959D70D3
:040280002063867EF3
:040281002FA7220E73
:0402820037E8FB5509
:040283003E85890625
:040284003DD6E0750E
:040285000FB376E15C
:0402860019F215183C
:0402870012C2147B10
:0402880009E1389CB4
:04028900188C7AED66
:04028A002E35A9DF85
:04028B0004B465DE74
:04028C0027F82AD154
:04028D002E95AF2FCC
:04028E000FF92A80BA
:04028F0001075C66A1
:040290000B780C35A6
:04029100085AF768A8
:0402920007C4A434C5
:0402930001585E4F61
:040294001CBE7A6AA8
:0402950035ABC7A21C
:0402960037EC31DE32
:040297000F0FA7F2AC
:0402980026656BC6A6
:040299002FF6FFF24B
:04029A003AA7D1B4FA
:04029B000ACCADC616
:04029C002C616EF370
:04029D0009FF5735C9
:04029E002197799893
:04029F000EEDBE6141
:0402A00002611DE2F8
:0402A1003993A142AA
:0402A2001F1FF50E17
:0402A300113888681E
:0402A400116ACB9C74
:0402A50024F90934FB
:0402A60000E5CD5C46
:0402A70001B9908782
:0402A800240C6507B6
:0402A900028DD4A24C
:0402AA003560517CEE
:0402AB000C92255537
:0402AC003832470499
:0402AD0027BAF26A10
:0402AE001EFFA52268
:0402AF000F17520FC4
:0402B00034D76BE1F3
:0402B10006A9DB7649
:0402B2002EEFB4E295
:0402B3001871DEBA26
:0402B400302E1EEFDB
:0402B50018E9F93417
:0402B600196AD1B937
:0402B7000D3C09A64B
:0402B8001F6AA468AD
:0402B900039E2FE091
:0402BA001B837C8E98
:0402BB001EC67A29B8
:0402BC00015775B6BB
:0402BD0021369D8DBC
:0402BE0023634C1E4C
:0402BF0027A1AA4188
:0402C00038FC0D44B5
:0402C10001FC42B545
:0402C2000C35C9D757
:0402C3003E2B92F04C
:0402C4001BD5496A93
:0402C5002D819F0ADE
:0402C6000EBEBA8529
:0402C70033C4A83F55
:0402C8002554630E48
:0402C900011800E038
:0402CA000BA8174620
:0402CB000E60F2408F
:0402CC0018625AF565
:0402CD0035BBB91C68
:0402CE003D29A250D4
:0402CF00258EEA9DF1
:0402D000366CB9C708
:0402D1001A183E2B8E
:0402D2001073408FD6
:0402D3002C751CC3A7
:0402D4002103F51EEF
:0402D50003D39F2E82
:0402D60019D992653B
:0402D700222813C303
:0402D80013BF7CDBF9
:0402D9001E5BE5AC17
:0402DA001F43298312
:0402DB0039B87BAD06
:0402DC001315584757
:0402DD00015F9B76AC
:0402DE00197CBBF9D3
:0402DF003C079AE25C
:0402E00017AB2976B9
:0402E1002A88801CCB
:0402E2002284956F6E
:0402E30010B512C977
:0402E4003C77EC98DF
:0402E5002675F5CBBA
:0402E6003665B4487D
:0402E7002B19941B20
:0402E80031B2FA270E
:0402E9003E81C88208
:0402EA0025B65131B3
:0402EB0006446FE76F
:0402EC0011E154EDDB
:0402ED000FDED6A4A6
:0402EE000259490E5A
:0402EF0039338B0410
:0402F00006EFBE9ABD
:0402F10002EB9D116E
:0402F2002428FFEBD2
:0402F3003DFD0C08B9
:0402F4001EB146BA37
:0402F50004ACA3258D
:0402F60039693E9E86
:0402F7000D733B3117
:0402F8003862DB612C
:0402F9002974C8D1CB
:0402FA001A14851637
:0402FB002DD299DA8D
:0402FC0033B499611D
:0402FD0035A940825D
:0402FE0028CECD9A9F
:0402FF001EF929A318
:040300000725919D9F
:0403010005AA2E74A7
:04030200079EDDAFC6
:0403030032A1BA4B1E
:0403040033C8481E94
:0403050023E0B976C2
:0403060036F0B7B561
:040307002787666876
:040308001729279BEF
:04030900184D88E221
:04030A00073F3D1953
:04030B0004675F31F3
:04030C0017A8F8C96D
:04030D0016B9361BCC
:04030E0014A46B14B4
:04030F0012FD7B7FE1
:040310000D28179805
:04031100064AC021B7
:04031200053D247F02
:040313003E2971D638
:0403140031F02A0A90
:04031500152144B8B2
:04031600050F76E772
:040317003BB2F11FE5
:0403180013433878DB
:040319001559004C26
:04031A002CE03E99FC
:04031B001ABAC4A2A4
:04031C001A17032782
:04031D00187577E9EF
:04031E003121D8DCD5
:04031F002ADC0FF2D3
:040320002036909B58
:040321000F4B684EC8
:040322001A49CDD5D2
:04032300111C369ED5
:0403240017F185B593
:0403250000718732AA
:040326002FCF37722C
:040327001667535EA4
:0403280008E561C5BE
:040329000824FEFBAB
:04032A001844F6522B
:04032B0004C69374FD
:04032C002122A0A644
:04032D002367E2D789
:04032E0012CA680F78
:04032F0001AD578342
:040330001F31BDCEEE
:04033100213453F12F
:040332001D6B9F2E72
:04033300172456FE37
:0403340007B09AD0A4
:0403350020D1A48FA0
:04033600122AA1E8FE
:0403370002721B63D0
:040338003D184F79A4
:0403390000CD2310C0
:04033A00005AAF783E
:04033B002597D0969C
:04033C000AF42D0092
:04033D00168303BB65
:04033E00260D21184F
:04033F001287BA5E09
:0403400027339D843E
:040341001AF80FBBDC
:040342000851B91590
:0403430018388BB328
:0403440002D1E5E815
:040345003C5DCD88C6
:040346002933B83C63
:04034700068A5400CE
:04034800114A73CE15
:04034900034304DF87
:04034A00324937827B
:04034B001E84859EE9
:04034C00077645E704
:04034D002F80A4B5A4
:04034E003E2AE1EC76
:04034F000AE46A62F0
:040350002091641F75
:04035100077F2BD324
:0403520010574301FC
:0403530033ABD1A255
:0403540033B492F23A
:040355003954CCA9A2
:0403560027795AC5E4
:040357002776314292
:040358003D08C44454
:040359003C19893B87
:04035A0004E4EBEBE1
:04035B00202A0AD872
:04035C000682CF3F07
:04035D0028576FD1DD
:04035E002FBB5787D3
:04035F002482F4C838
:040360003AF96161A4
:0403610008602913F4
:04036200306AEB46CC
:0403630029C60F9008
:040364000CAB06F4E4
:040365001082B1D180
:0403660038BFB122C9
:040367000D37DABDB7
:040368001BDB2A4928
:040369003670019B4E
:04036A0004F6384F0E
:04036B003DE230B986
:04036C003DF3C27625
:04036D00131598B814
:04036E00153F1740E0
:04036F0004DDCD0FCD
:04037000333491B3DE
:04037100114D3ABB35
:0403720026EB8E29BF
:040373003DD3782BD3
:040374003A8E1E4F50
:0403750028419EDDA0
:040376003EBDBE4585
:04037700315F38B307
:040378000C91E4A45C
:04037900356FEE0DE1
:04037A0028CF9D23C8
:04037B003DEDE986E5
:04037C001D6CD9100B
:04037D0017FAA56F57
:04037E002A0FD9BBAE
:04037F0032846E0254
:040380000E1A9A783F
:0403810020B139F37B
:0403820005ABB0EE29
:040383000912CC5A35
:04038400137811EFEA
:04038500315DC9B964
:040386003A1D59C5FE
:04038700266A5D3E47
:040388000EDE117DF7
:040389002E60E3ED12
:04038A0003B962242D
:04038B0038E76C5A89
:04038C0037B6330E3F
:04038D00048B0FAF1F
:04038E0020611ADFF1
:04038F0034C612B3AB
:0403900025D2B302BD
:04039100261E1151C2
:040392001C4A42902F
:040393002E7964EC6F
:040394000E9EE018C1
:040395001BC4378FBF
:0403960008234BA548
:0403970012CE4D67CE
:040398000D4CCCE458
:040399000A20220C08
:04039A00177E9260D8
:04039B002C3B0D509A
:04039C0005A231DEA7
:04039D003574D16A78
:04039E001E2357784B
:04039F00392D7C5424
:0403A000359F3DED5B
:0403A1000CF7E65C13
:0403A2003479C5CE17
:0403A3000F7DCB05FA
:0403A4001174CA13F3
:0403A500267B45F07E
:0403A60020819E30E4
:0403A70035324E2B72
:0403A800299E5D2706
:0403A90017C457AB73
:0403AA0006F1C70E83
:0403AB001156DDCA40
:0403AC001844A71C2E
:0403AD001757A4F446
:0403AE0013314B03B9
:0403AF00165671C8A5
:0403B0001AB646CA69
:0403B1001B0487E6BC
:0403B2003C7097A75D
:0403B300270AADE088
:0403B4003375784FD6
:0403B500199F564CEA
:0403B6001E8753B695
:0403B7002836ACBF79
:0403B8003AE3808222
:0403B9003BF6751387
:0403BA0005A74164EE
:0403BB002D95B0903C
:0403BC003C8D1F6FE6
:0403BD00051BFB1011
:0403BE000758B143E8
:0403BF003E9451A572
:0403C0002429D2AD6D
:0403C10037DDF70627
:0403C2000D5DA530F8
:0403C300020852EDED
:0403C4000ABE13C496
:0403C5003A08BBD85F
:0403C6001412C957ED
:0403C7000829CE6BC8
:0403C80023FC2C2BBB
:0403C9002964234A36
:0403CA002BD8306399
:0403CB001189B86577
:0403CC00111A177972
:0403CD00150511BB46
:0403CE001DE74AAE2F
:0403CF002EA4085CF4
:0403D0001CD0E83B1A
:0403D100105FCEA249
:0403D2001D3A4D1370
:0403D3002D5F5647FD
:0403D400237960A386
:0403D500326A8C03F9
:0403D6002FE92ED00D
:0403D7002DE452318E
:0403D80031A126BA6F
:0403D90001037007A5
:0403DA00244F55B0A7
:0403DB00053CBE61BE
:0403DC0017821A0169
:0403DD002BA42C7AA7
:0403DE000FB4E46113
:0403DF0004ED35A450
:0403E00006B3828A54
:0403E10026CD19F11B
:0403E2003BACDBE372
:0403E3002718B7B967
:0403E40021F76FDCB2
:0403E5000FE722EE0E
:0403E60037656746CA
:0403E70025D9F9B962
:0403E800377DDEE49B
:0403E9000C9AC6168E
:0403EA0000EAC3E67C
:0403EB00140137D1F1
:0403EC0038EF2E3C7C
:0403ED002BBEC03D26
:0403EE000A4FC69953
:0403EF00007924E38A
:0403F0001D4BE9D3E5
:0403F1003A6312B0A9
:0403F200004B52BBAF
:0403F30020EE8DFF6C
:0403F4000C3CAC4DC4
:0403F5000E6DA123C5
:0403F6000D1A139B2E
:0403F700132EE86970
:0403F80005C2F61232
:0403F900217422A4A5
:0403FA001E73DC2A68
:0403FB001424B80905
:0403FC0036E6CC74A1
:0403FD002BF4BDBB65
:0403FE001ACEBEC590
:0403FF000F2DBDA958
:04040000158027C07C
:040401000F4CCD923D
:040402000F6B995E85
:0404030030767EAA27
:040404002EDF552072
:04040500077B0FA5BD
:0404060013381BDEAE
:04040700302D104C38
:040408003C01D6E7F6
:040409001B64BEA50D
:04040A000DD66A8C15
:04040B002145230163
:04040C00251F06574B
:04040D002673A19C15
:04040E00291D24413F
:04040F003309C49D4C
:0404100009EE93EA74
:040411000461270655
:0404120032F3860833
:0404130004DFD52706
:0404140007C8B47AE7
:0404150004CD1FE60D
:0404160014464C310B
:040417001685675887
:04041800294FF3E194
:040419000967AA794C
:04041A00278AD5A7B1
:04041B0034B0731E68
:04041C000EF170B8B5
:04041D00202707BBD2
:04041E00374CC5A3EF
:04041F0013C18E5E19
:040420001271AC9910
:0404210006080F8832
:040422003D201F5208
:040423003A7A6B0DA9
:0404240016F01F723D
:040425003D707B6A41
:0404260036C0064294
:040427003054DB76FC
:0404280006255A2625
:040429002744F14D26
:04042A0034032B9BD1
:04042B0037CC153C79
:04042C00117681695B
:04042D00155FC1AFE7
:04042E00168FA7CBB3
:04042F002491197A81
:0404300033AE29407E
:040431000F6F38B25F
:0404320004AEDCB385
:0404330015F77FDA60
:040434000DAEC35DE9
:040435002B578FF1C1
:040436000022A1BE41
:040437000D4A739067
:0404380023EE629EAF
:040439001AD1BFA86D
:04043A002A41C56B23
:04043B00133319E17D
:04043C0033127FCD2B
:04043D001A90A2CCA3
:04043E0029B22E7A37
:04043F003AA3870F46
:0404400021347AD910
:040441003B2B53D42A
:0404420009D00B17BB
:040443001DECBCEF01
:040444002179B31552
:04044500274F59FEE6
:0404460012EED3C31C
:040447000A89A47FFB
:0404480024D3023285
:040449003D00241638
:04044A00357F605C3E
:04044B0023267B24C5
:04044C000194B5C1A1
:04044D0008A12F5182
:04044E0020D1E89F32
:04044F00362A594EA2
:040450001E49202BF6
:04045100198698BBB5
:040452003D9572C2A0
:0404530020590855CF
:04045400039F885525
:04045500306FCC3CFC
:04045600219D8486DA
:040457003E90B27FA2
:040458002E0D039CC6
:040459001243AD4E4F
:04045A003BF9DEEBA1
:04045B00369FE96976
:04045C002CD47EDA44
:04045D002A039D765B
:04045E003D534008C2
:04045F001AF4BA3D94
:040460003802B63F69
:04046100333CFC85A7
:040462000DE11C2B61
:040463000B2DC49801
:040464001935F9F657
:0404650015BBC2FE03
:04046600257279C8BA
:0404670021B213EEBD
:04046800276BB0DC72
:0404690025BB465217
:04046A002F78AF9E9A
:04046B000FE5757FA5
:04046C003B131C34EE
:04046D000E09D51689
:04046E001FB6367B04
:04046F002A40668E2B
:0404700004FB668B98
:040471001A76621085
:04047200157733299E
:040473003C48666A31
:04047400052E10CF72
:040475000A254BCF3A
:040476002FE846BA6B
:040477000876120CE5
:0404780034B1EECAE3
:0404790020B5EB3B84
:04047A0010C76F52E6
:04047B0033FBFABF96
:04047C0032C8675BC0
:04047D00033DBF3349
:04047E00294C86D6A9
:04047F002CFA9C16A1
:040480002C7066BEB8
:040481001955AEBC9F
:040482000B9C1C5F54
:0404830004421B1BF9
:040484003C83505510
:04048500030C94F9D7
:0404860015C99F48AD
:040487002067C74FD4
:040488000B05BDF7AC
:040489002E547DBAB6
:04048A00110E5CA94A
:04048B0009B12F582C
:04048C000C0B613FB5
:04048D002FA9A64DA0
:04048E001D9C249BF2
:04048F001AB70E1476
:040490000CFC1067E9
:04049100123BFDE33A
:0404920015F999B708
:040493002884B6FB08
:0404940030A2EBF1B6
:04049500342B138D64
:0404960002734F7727
:0404970009CA9E767A
:04049800037F82B0AC
:04049900365A3F9AF6
:04049A000A73A0BC85
:04049B002ECC9A3396
:04049C001B70AD69BB
:04049D000DAE783FE9
:04049E0028C58736B0
:04049F001F5B68B9BE
:0404A00007411903F4
:0404A10036B7E3E1A6
:0404A2001A7C1B782D
:0404A3000A6CBAE342
:0404A4003297FFBECE
:0404A5000FF48F744D
:0404A6001A6554ED92
:0404A7000E64EE7B76
:0404A8000153C062DA
:0404A9000CB237F367
:0404AA0024B3B0A720
:0404AB001F9A50A2A2
:0404AC002B08F136F2
:0404AD0012BF4EB874
:0404AE00319A852ECC
:0404AF001F5D87C77F
:0404B0001B1FC581C8
:0404B10038832FE479
:0404B20020A753D557
:0404B3003BDFA0C0CB
:0404B4003217949DCA
:0404B50039A58239AA
:0404B6002B35E7A457
:0404B7001E9F00D6AE
:0404B800205A3EC7C1
:0404B90023A275986D
:0404BA0031ADE189F6
:0404BB0038EABC0D52
:0404BC000B0518CF45
:0404BD0035BE7AC608
:0404BE001832248448
:0404BF00215CD815CF
:0404C0000ECEB48F19
:0404C10014782FFF7D
:0404C200166F453C30
:0404C3001D6EA316F1
:0404C4003E61362738
:0404C50000F14C8D69
:0404C6003DABAFB2E9
:0404C7001956B02AE8
:0404C80011EAB25132
:0404C9000B5413D3EA
:0404CA00292E43286C
:0404CB002F2C8EAC98
:0404CC0008D7C7B5D1
:0404CD000FDEE095C9
:0404CE002F186C4B2C
:0404CF0030168AA4B5
:0404D0002B8D20410F
:0404D100257559D75D
:0404D20032B50867D0
:0404D300036388C374
:0404D40033A3C6FE8A
:0404D5002CD80463B8
:0404D6003346C045A4
:0404D70038EDF77392
:0404D8002DCB2E51A9
:0404D90014C87C9A2D
:0404DA00044731D8CA
:0404DB00130B9681E8
:0404DC001931E4DD11
:0404DD003907FD627C
:0404DE0011444C2554
:0404DF00059D2EB396
:0404E00021133D3D6A
:0404E1002BDB319848
:0404E2002C47EB892F
:0404E3003593B0F9A4
:0404E4001694601AF0
:0404E5000B361902B7
:0404E60037F72C6D4B
:0404E70028B7D9E277
:0404E8001B1395E26B
:0404E90023B26814BE
:0404EA0017395D99C8
:0404EB003E00E19C52
:0404EC0029F72024A8
:0404ED000B889B25B8
:0404EE002847C2B524
:0404EF0004A29C09BE
:0404F0001485BA00B5
:0404F10011BAAC7A16
:0404F200262278F650
:0404F3001EAEAE018A
:0404F4002516661B48
:0404F50019C7585B70
:0404F600316DF48FE1
:0404F70032CEE47AA3
:0404F80038FA1D4C65
:0404F9003A747F7F53
:0404FA00395C9907C9
:0404FB0033C5038F73
:0404FC00340E73E661
:0404FD001899CB5827
:0404FE0037D1DE69AB
:0404FF001926F08F3B
:040500003D98B0531F
:040501001D9DB3DBAE
:040502001364D1802D
:0405030000B77423A6
:040504000EFBA674D0
:040505003158ADD4E8
:0405060014B801D252
:040507001D634EEE34
:0405080032D758820C
:04050900351B03B8E3
:04050A00261D7650E4
:04050B0005294D76FB
:04050C00276555F01A
:04050D002696708737
:04050E003E455F2ADD
:04050F00092711683F
:040510000FEECCEC32
:04051100028F443ED3
:0405120021369C36BC
:040513000C4732BFA0
:0405140023FF64CC91
:040515002EE43E9200
:0405160022DEB6CC5F
:040517002D3F319DA6
:040518003D9A38CC04
:0405190029A51350AD
:04051A00027AA4A419
:04051B002C3395BC2C
:04051C001CAE5E971C
:04051D001F79F5E766
:04051E003D69286C9F
:04051F00385AD2D4A0
:04052000065CEB2862
:0405210013778AB909
:04052200070D539BD3
:0405230001405987B3
:040524000EFCBA40CF
:0405250030AF2D5C6A
:0405260014A6BC63F8
:04052700093D1BFD72
:040528000059D6E6BA
:0405290011A04F3B93
:04052A001D5D1D1E18
:04052B0014EC747BDD
:04052C00321CE04A53
:04052D0033283A989D
:04052E000A3D1ECD97
:04052F00114326232B
:0405300039828FD2AB
:040531000D3C2B71E1
:040532003ADB854CDF
:040533002B14294616
:040534003D39559E5A
:04053500179D1F24CB
:040536002279DE65E3
:040537002F889FE189
:0405380014E03B2967
:04053900384D3B827C
:04053A002853B6CBC1
:04053B0026BE1CA814
:04053C0011EA196146
:04053D0026200AE486
:04053E000631CFCEE5
:04053F0012F349BBAF
:040540000EC9E8AE4A
:040541002CDC7E77B9
:040542002D19180C4B
:040543002C9D34981F
:04054400372B8516B6
:040545002DD279DA60
:040546002BD602BEF0
:040547000237282926
:040548002BDC67ED54
:040549002DC54C93DD
:04054A003AB95F60FB
:04054B0036EAAE7569
:04054C002BC130533C
:04054D002238BC098B
:04054E002E9A070CCE
:04054F00074ECC2760
:0405500016464D14EA
:040551003BC57DD455
:040552002E2620A38E
:0405530031AEA542DE
:0405540020D4295432
:04055500051B4A45F3
:0405560021119F3898
:040557001ACDFB7549
:0405580015FC43400B
:0405590022EF8E2AD5
:04055A003B933BFE96
:04055B0034BD0C9B04
:04055C0006248603E8
:04055D001AEAFA613B
:04055E00290F6D08EC
:04055F0022225802FA
:04056000275FD0241D
:0405610035D323FF6C
:040562003A4A22D916
:040563001FE2047F10
:040564001B57E8F643
:0405650007833E04C6
:040566003E37BD70EF
:040567000994A68EBF
:040568000EDC08702D
:040569002E5F8A7403
:04056A00288C6FEF7B
:04056B00296BACF755
:04056C0001DA96CB4F
:04056D000084843C46
:04056E0000033C96B4
:04056F001FFFB019A1
:040570000CBEC5BC3C
:040571002FCFB41BB9
:040572002A0EAB2181
:0405730036B95C2C0D
:040574002510A0A30B
:040575003DB3A0D919
:040576000B63010D05
:0405770017264E8174
:0405780010DC8759B3
:04057900303AD6CD71
:04057A003B6252F19D
:04057B0035DD0A8CD4
:04057C002245EAA288
:04057D0019BC4A81DA
:04057E0008BAFDFDBD
:04057F00195E3400CD
:04058000099D722C33
:040581000FD3CEC9FD
:040582002309C3473F
:040583002E02560AE4
:040584000579B378CA
:040585000E9104309F
:040586000C7DCCB567
:040587003AC4DA0791
:0405880032AC4DE163
:04058900218D9562C9
:04058A00386984AC9C
:04058B001B822E1889
:04058C003CAB6E1AFC
:04058D000B5429E4FE
:04058E0029104D786B
:04058F000C29798535
:0405900009B471E257
:0405910028E0441EFC
:0405920022FBE3D095
:04059300397066E075
:040594003BA3DF3571
:04059500148AE36B76
:0405960039D270B630
:040597003DDD5FF0F7
:04059800352DDC55CC
:040599000B97F14C7F
:04059A0016BA12ABD0
:04059B002C17285A97
:04059C001FEAFC4B0B
:04059D003C334D6836
:04059E002BAA3954F7
:04059F003D54DCCB20
:0405A0001E0107949D
:0405A1000D5D377243
:0405A2000E41A13431
:0405A3000530F667C2
:0405A4000482E9469E
:0405A5000BB02C6704
:0405A6000111E7DE7A
:0405A700344ADC24D2
:0405A800149BEC9123
:0405A90010FAC4ED93
:0405AA0029B27E1ED6
:0405AB0033E0E1B5A3
:0405AC00042DF5AF76
:0405AD00282177206A
:0405AE0007D39EA42D
:0405AF00171B41795C
:0405B00004697684E0
:0405B10025D55613E3
:0405B2003B38CD8D78
:0405B3001C46EE31C3
:0405B4001E2DF9EC13
:0405B50014529AB48E
:0405B6002CB51052FE
:0405B7002AF573DDD1
:0405B8001BBAA604C0
:0405B9001CF7DAE66B
:0405BA0028846A31F6
:0405BB001EF6BC1755
:0405BC003AB6328297
:0405BD0035F510DB25
:0405BE000B31EA0C07
:0405BF0001E6DD6014
:0405C00015CFD5C2BC
:0405C10017BC99AA20
:0405C20036AEE992D6
:0405C3002ED030E422
:0405C4002FDA5A7B55
:0405C50036B7B73856
:0405C60039E93C4D86
:0405C7003DCDFD5ACF
:0405C8002D725C47ED
:0405C90004578D96B0
:0405CA002FDF64EFCC
:0405CB003A4800A00A
:0405CC0037294D4836
:0405CD00184844DAAC
:0405CE0036C257E7F3
:0405CF0030F3D52907
:0405D0001D69651626
:0405D10022A368D821
:0405D200068B6F9B8A
:0405D3000D0D27A83B
:0405D40011C7A95151
:0405D5003918375149
:0405D60007F20BDC41
:0405D70001F1ACCDB5
:0405D8002A0F67C7B8
:0405D90022F9FED62F
:0405DA000F14108763
:0405DB00372094A190
:0405DC0001EE80D7D5
:0405DD0022062BF1D6
:0405DE0021FDEFC04C
:0405DF0024197B4020
:0405E0003090DB5A22
:0405E100029B8AC629
:0405E200040118CE2A
:0405E3001D16B9F92F
:0405E4000F14E64BBF
:0405E500060674A7EB
:0405E6003CB3E3B887
:0405E70039E2BB68D2
:0405E8001CDEE4DE53
:0405E90015E6EE5FC6
:0405EA000D8716481B
:0405EB003EA6EA7DC1
:0405EC000A838449B1
:0405ED0028924267A7
:0405EE0039C451AC0F
:0405EF0032FB643146
:0405F0000945138323
:0405F10002B5E45714
:0405F2002302CD34DF
:0405F300103B57D290
:0405F400077BBB8B3B
:0405F5000F78DBAFF1
:0405F6002410A772B4
:0405F7001B0F497617
:0405F800313D18B9C0
:0405F9002F4B05B0CF
:0405FA002B4D6E68AF
:0405FB0035B8220CE1
:0405FC003564F4EF7F
:0405FD000DA52E6CAE
:0405FE001BE5B092B7
:0405FF000D5CAF924E
:0406000032C50F9759
:040601001FDD3109BF
:04060200358B1B8D8C
:0406030007C7F4BF72
:04060400205EEE8AFC
:0406050039868BA502
:0406060019D6E975A3
:0406070019535554DA
:040608002EB077D3C6
:04060900151B131496
:04060A001E1D8AF037
:04060B001AF4DC926F
:04060C002C96440CD8
:04060D001CCC98F376
:04060E001196BD91F3
:04060F002DB9893D3B
:04061000107C583DC5
:040611002448402A0F
:040612002EADB8CF82
:04061300141067F761
:040614002EFCDFDCFD
:040615003243E694F2
:0406160001245D134B
:0406170036C08DAFAD
:0406180021BC87A6D4
:040619000A1E6CFD4C
:04061A000F3CED693B
:04061B001529C8E0F5
:04061C003B61173CEB
:04061D000C0A163479
:04061E00114B8224D6
:04061F003C677513AC
:0406200015DB308B2B
:04062100086BA7F3C8
:0406220001742A82B3
:0406230007509C657B
:04062400331A1B92D8
:040625000A1050E186
:0406260021760195A3
:04062700040FCF29C4
:0406280030936C7629
:040629000D66504AC0
:04062A0012A69A7604
:04062B002536079BCE
:04062C001DB3666232
:04062D00369D9CD981
:04062E001919FD4356
:04062F00222E04B4BF
:0406300011FC78F24F
:040631002220D2D0E1
:040632003B26BC2D7A
:04063300351326C98C
:040634001A4EC51A7B
:0406350011C5FC28C7
:040636001C508E289E
:040637001F05A1CF2B
:040638000ED5BBA37D
:04063900238339B22C
:04063A002D1E432905
:04063B0015A6E4AE6E
:04063C00054D8A7965
:04063D0006BD7EB0C8
:04063E00077F8D5550
:04063F0024D6CCE30E
:04064000273D85F0DD
:040641000D4006E37F
:04064200277A15748A
:0406430007FB919C84
:0406440011F844392C
:04064500047AC2541D
:04064600303DDC7BEC
:040647001A4B031235
:0406480016CF1002B7
:040649001DF849C788
:04064A000BB8F8935E
:04064B0024B188F45A
:04064C00272A5C43BA
:04064D000E50E74F15
:04064E002DCC7194AA
:04064F0039C37CA28D
:04065000014656F514
:040651002C9506D10D
:040652002A30B0D0CA
:040653002C75458B32
:040654001CA124972A
:040655002AD452B59C
:040656002751787937
:0406570025DF2C3D32
:0406580001CD1BE2D3
:040659002FA4068C38
:04065A0010DD3BB2C2
:04065B00283C21B462
:04065C000DC922B4EE
:04065D002A42E82421
:04065E00185CD65CF2
:04065F003A85E98966
:040660001657E5182C
:040661001FC7FDB3FF
:040662000DE0A7619F
:040663001EC75873E3
:040664002DF67A7D78
:040665001DF28549B4
:040666003958F10A04
:0406670031762FD1E8
:0406680034BDE705B1
:04066900215F268C5B
:04066A00036FC12A2F
:04066B003C3327A451
:04066C0029D495CD2B
:04066D0002DAFFCFDF
:04066E0014C1A755B7
:04066F003EB9822EE0
:040670001B6F426951
:0406710033FFFB78E0
:040672003BCAC30EAE
:04067300209F375637
:040674001214C55344
:0406750009B609F3C6
:040676003D18477B69
:0406770013E4145123
:04067800213FFB849F
:040679001FC6DD516A
:04067A001A2E78FAC2
:04067B002A4F44EFCF
:04067C0022AA1A1084
:04067D0025EBE0E2A7
:04067E000A894A8318
:04067F0034E1285BDF
:040680003ADBE3E19D
:0406810034D9EEB2C8
:04068200250323E247
:0406830026C003FA90
:04068400214F494277
:040685000DD594C03B
:040686003CF4E75504
:040687002E925AF164
:0406880028E8798C59
:04068900001F222B01
:04068A00259F1A711D
:04068B002CF4F51C3A
:04068C001C877FE563
:04068D001111684D92
:04068E000A31A9295B
:04068F00306EB09F7A
:04069000011839C252
:0406910011FE3BEB30
:040692003D865DA79D
:040693001D4EE3D243
:040694000B7B2A4171
:040695003C104D5F69
:040696003DA9D01595
:040697001EFC0AC17A
:040698002AF766A235
:0406990015F2BF1A7D
:04069A00113BCFA899
:04069B0027C92648FD
:04069C0038D93BAD61
:04069D00222E6BF9A5
:04069E000E11C44332
:04069F000DB362B085
:0406A0002C23579D13
:0406A10039B4A62A98
:0406A2000635819DFB
:0406A3003D891D94DC
:0406A40029A73C281E
:0406A5002935F59767
:0406A60010245FD1EC
:0406A7000379D0AE55
:0406A8001048F953AA
:0406A9001B3459693C
:0406AA002761BB7099
:0406AB003DFE61F8B7
:0406AC00053A795B37
:0406AD00330A76484E
:0406AE001287AC14EF
:0406AF000E536BE09B
:0406B0001329C63C08
:0406B1003CBBA90F96
:0406B2002BD5230D14
:0406B300114752B9E0
:0406B400364FA9B064
:0406B500038AA7C24B
:0406B600345D33F884
:0406B70024F7CE60F6
:0406B8000BC62A98AB
:0406B90024C1FFC594
:0406BA000D9C13730D
:0406BB00385F13DBB6
:0406BC00141171B0F4
:0406BD0004C836A790
:0406BE0032E4AD4B2A
:0406BF00091EBFF061
:0406C00018FDD83316
:0406C10007ADA0B829
:0406C2003BE92E984A
:0406C3001668E4A22F
:0406C40000FF3C6E89
:0406C50017DE288094
:0406C60032DA118B88
:0406C70036476BDE69
:0406C800044A4A276F
:0406C9001102EFC467
:0406CA00339FAB901F
:0406CB003B3174C883
:0406CC002B96CB811D
:0406CD003DB989CAE0
:0406CE0036C4577C5B
:0406CF001DC2B58F04
:0406D0003D3780989A
:0406D1002F488AA57F
:0406D2002064B334B9
:0406D300040F8B3D48
:0406D4002E22517A07
:0406D500180811DE12
:0406D6001E01FFE61C
:0406D7003A507243E0
:0406D8001BC0853E80
:0406D90019D5268980
:0406DA00306E9F6B74
:0406DB0014A2260738
:0406DC002B7CC79517
:0406DD00087B37BDA2
:0406DE001416821A52
:0406DF0029F049BFF6
:0406E00034C6082FE5
:0406E10036F53BC2ED
:0406E20024B33D11EF
:0406E3003B22ACE723
:0406E4002BF9D9E72E
:0406E50032200416A5
:0406E600174F6F9F9C
:0406E7000B0E6B0D7E
:0406E80028F480DA98
:0406E9000E1CCDC254
:0406EA002582B3F1C1
:0406EB00169AEC1659
:0406EC001BF0FCC241
:0406ED001CA54334D1
:0406EE003ADA1ADDFD
:0406EF002D91699947
:0406F0003CB893F48B
:0406F1002A837B9E3F
:0406F20001BC15B67C
:0406F30018164BB7D3
:0406F40037B9D968D1
:0406F5001F8B63698B
:0406F60010A23151CC
:0406F70001463F1B5E
:0406F8003DE3492A6B
:0406F900386DB70B96
:0406FA002F5CCE2281
:0406FB0007843C61D3
:0406FC00183DF28231
:0406FD001D35F2E1D4
:0406FE000A84BD7538
:0406FF00194CEBDFC8
:040700003A29DEAC08
:0407010017961E0128
:0407020017F0251AAD
:0407030011285E89D2
:040704002A190E821E
:04070500182428523A
:040706001FF806DCF6
:04070700209ECBC0A5
:040708000078C7406E
:0407090007CF78BAE4
:04070A000D319643D4
:04070B0034B5F60704
:04070C002F27EB5A4E
:04070D0030FF78AA97
:04070E00258F823081
:04070F0013DCE49B78
:040710001E18F5AB0F
:04071100269DC45B02
:0407120024CFA62723
:0407130000A5D5B8B0
:04071400053F0E612E
:040715000C0FFCC603
:0407160015CAEED939
:0407170035713D6398
:040718002D3CAF5174
:040719001A1D24027F
:04071A00266BD9ED84
:04071B001351E31380
:04071C001C9F17798E
:04071D00042F23A7DB
:04071E000A8AC91B5F
:04071F00002E1BDEAF
:04072000283D4871B7
:040721000715DFD603
:040722002D96392EA9
:040723003D8FB1ABAA
:040724000700BADF31
:0407250027E7273962
:040726001F0E7D3DE8
:040727003046A76C45
:0407280032F2CB8D51
:0407290031EDC88264
:04072A000FB08BEC95
:04072B002E62C6B2C2
:04072C00196A2FE92E
:04072D0032DA54F078
:04072E001919BC4E8B
:04072F0025D3A0BD71
:04073000023B3B3716
:04073100061B061B82
:040732003A6554F8D8
:0407330009560C6CEB
:040734003D97F26F8C
:040735002E115638F3
:04073600248BDECA68
:0407370020BA4E890D
:040738000CFD63450C
:0407390037BB843115
:04073A00030FD7636F
:04073B001BC5139037
:04073C00295CE2BA98
:04073D00127F9DD6B4
:04073E00146D1AFD1F
:04073F0027C8537BF9
:04074000313A12AB8D
:040741000BD609CA00
:040742000DA402A858
:040743003BC69BB660
:04074400108BAB4526
:040745001F300EDF74
:040746000DF0D9CF0A
:040747000DFDE1675C
:04074800066011D165
:040749001653CCEB8C
:04074A001E77F4D949
:04074B0017FD12275D
:04074C00331CBC316D
:04074D0013F089BA62
:04074E00306CC23A0F
:04074F0034DA3F4514
:040750001A35F07DE9
:0407510014DD157628
:04075200346F7B760F
:04075300079D0BA84B
:0407540026FE3876CF
:0407550011E766241E
:0407560034550B48C3
:0407570029A40920A8
:0407580037E53A99AE
:040759000E1C783AC0
:04075A001B74DDD05F
:04075B00036C8A841D
:04075C000E537C7E3E
:04075D00065DA395FD
:04075E002A708D93DD
:04075F0009529BB9E7
:04076000293F0155D7
:0407610037B2C207E2
:040762000A955C4A4E
:0407630023FE0D2E36
:04076400147E4DE8CA
:040765003B65698304
:04076600265439F0EC
:040767001FD08F32DE
:040768001797D99175
:040769002D4D8C1F67
:04076A003CCB78FC10
:04076B001E91F8DF04
:04076C00349D0E0E9C
:04076D0024CE3D4613
:04076E002026657D5F
:04076F00124CA4C6BE
:040770003868811153
:0407710015F26B38DA
:0407720025A05BEA79
:0407730011EEF65736
:040774003489AD0611
:040775003983384E3E
:0407760019514ED0F7
:0407770028F76939BD
:040778000BB2FC5C68
:04077900075BE72B08
:04077A00081DFC2B2F
:04077B002B0FCA7402
:04077C003C51C10724
:04077D003C3ABCDC6A
:04077E002AE8F85C11
:04077F002CFA101F21
:0407800039A83AD08A
:0407810015DEB5D1FB
:040782002A780B378F
:040783003A0FE28BBC
:0407840012DED2743B
:04078500068C9556F3
:04078600260BD92C39
:040787002684177736
:040788001090594B29
:040789002793FB0DAA
:04078A001806BF99F5
:04078B0028E892596F
:04078C00344B7F9BD0
:04078D001FD14F1F0A
:04078E0023A6C7B91E
:04078F0005A6D1F1F9
:0407900002E9309DAD
:0407910014B42875FF
:040792002E96D8C304
:040793003753301197
:040794003E6A8C0A23
:0407950033BF52FA22
:0407960001C5C305D1
:040797003D84D0EBE2
:0407980001D2F1FD9C
:040799001C0214AF7B
:04079A0030EFA10C8F
:04079B00287D4FB9AD
:04079C002BE08F5D62
:04079D000077EB9462
:04079E001D63EF6682
:04079F00228BA8659C
:0407A00028C2BD4C62
:0407A10004F463AE4B
:0407A20039906145E4
:0407A30007488AE198
:0407A4002BC6CAA6F0
:0407A500008FF1428E
:0407A6003E1F7A6B0D
:0407A700290DA7BAB7
:0407A8001A07D60155
:0407A900117A246835
:0407AA0019D7E4CDAA
:0407AB002600B30071
:0407AC0007F40489C1
:0407AD0017AF6F31E2
:0407AE000D03E787C9
:0407AF001655643146
:0407B000197922AAE7
:0407B100243A725E16
:0407B2001B5BF0A03D
:0407B3000F625ED49F
:0407B400247102EAC0
:0407B50025010D2AE3
:0407B6002EEC565A75
:0407B70001EECEF68B
:0407B800260BDE40EE
:0407B9000107441ED2
:0407BA0010F7E268EA
:0407BB0002BFD86F32
:0407BC002AC77A8E40
:0407BD00251C03D222
:0407BE003672654BDF
:0407BF002B61A4C244
:0407C00018356D1269
:0407C100270BA50558
:0407C2001CB2FAE685
:0407C300267E31A1BC
:0407C4000CD4564BB0
:0407C5002D0D5B0C8F
:0407C60029B442E927
:0407C7002711C6FD33
:0407C80004BA5DD73B
:0407C900141FB381C5
:0407CA001AC15A2CCA
:0407CB001AB0DC0183
:0407CC0007DA6CD507
:0407CD000D6EDB12C0
:0407CE001BBC1FFA37
:0407CF0024453BBBC7
:0407D00026A20F1B33
:0407D100082ACE63C1
:0407D2000EB6859C3E
:0407D30012AD9D8541
:0407D4002DBCC53241
:0407D500297B93F0F9
:0407D600108E725BB4
:0407D70003DDADD9B8
:0407D8000D766E2705
:0407D90018EC482AA6
:0407DA0018404D3A3C
:0407DB000E34A09B9D
:0407DC0011BDAB7C24
:0407DD001227BA6FB6
:0407DE0017D5B7A4D0
:0407DF001DF4814D37
:0407E0001C19B636F4
:0407E10036BF168C7D
:0407E2003DC7416D61
:0407E30009F50269A9
:0407E40016DDFA46DE
:0407E500183AE99045
:0407E60016D2D9A0AE
:0407E70029819D4384
:0407E8002F7D421A05
:0407E9001B1165AAD1
:0407EA001EBA9A6A2F
:0407EB0008C1B7E7A3
:0407EC001100C21521
:0407ED0028F028C503
:0407EE003D4EAA943E
:0407EF003620C79950
:0407F00020E74E466A
:0407F1002C3A78C561
:0407F2002CAEC0CF9A
:0407F3001B4694B855
:0407F4001E70A5CE00
:0407F5000F54DCA021
:0407F60000CF3914E3
:0407F7000CD54F09C5
:0407F800023C6B183C
:0407F9002CFD7A0554
:0407FA0031E30336AE
:0407FB002B0E430678
:0407FC003864144BFE
:0407FD000689FE3239
:0407FE0027B1FBC460
:0407FF000000E8B856
:00000001ff
