:020000040000FA
:0400000000000001FB
:040001000F06E911EC
:0400020005C3A19FF2
:0400030000006C7C11
:04000400036BF6484C
:0400050024B15310BF
:040006002DF8DC10E5
:0400070037B1A4F871
:0400080015BEBC6104
:040009000A81085A06
:04000A0024A427F013
:04000B00187C056EEA
:04000C0010C5F174B6
:04000D0025DC58F89E
:04000E00250CDEFFE0
:04000F00083DC738A9
:0400100031D376BDB5
:040011001CBF578732
:04001200340810E5B9
:040013000924E97E55
:040014001ABB27BE2E
:040015001178710FDE
:040016000172313D05
:04001700394B39DE4A
:040018001A48F91871
:0400190016E5930D48
:04001A003D694C955B
:04001B002C5E9A3B82
:04001C00264C8EC11F
:04001D001E4F8A1CCC
:04001E0026134BF367
:04001F00253E4F57D4
:04002000267A813784
:040021002BC30BF2F0
:040022003506E1D2EC
:040023003B9988304D
:040024003B4395A421
:0400250017899E2376
:040026001FA1D051F5
:0400270003ED45158B
:040028003A7F344E99
:040029003572DC9BB5
:04002A000D924B6484
:04002B0037FDD8C104
:04002C003683E2C570
:04002D001FAA9D0069
:04002E000C2608C8CC
:04002F0019DC9545FE
:04003000030FD54F96
:0400310018308BE513
:040032001FB13CC2FC
:040033003058A0FBA6
:040034000ED8352588
:040035001EBB0F3CA3
:0400360035A78A154B
:0400370018B540496F
:0400380013987BFDA1
:040039003547618264
:04003A001B29C4B00A
:04003B0002AAA8B4B9
:04003C003075B6F471
:04003D003BE55657F2
:04003E0001E5A295A1
:04003F0005933A7E6D
:040040001AE21EB2F0
:040041002EF198E61E
:040042003DFD7368A5
:040043000D19C7CA02
:040044003016C65557
:0400450016735B5083
:0400460016C5E738BC
:0400470007539A1EA3
:040048001585D3FA4D
:04004900392777CC10
:04004A0017D341E1A6
:04004B00067FFFEC41
:04004C000DC7B41A0E
:04004D00073EABD6E9
:04004E0039A77B173C
:04004F002EF61CCCA1
:040050000E69772599
:04005100139CEF917C
:04005200236BB1B5B6
:040053000819390847
:040054002DE5145D25
:040055003B62328058
:040056002B86F1E420
:04005700004CC9C8C8
:040058003AAE0F713C
:0400590008D90F4370
:04005A0027121C5CF1
:04005B003352C164F7
:04005C000113992CC7
:04005D00319C491673
:04005E00086B83CCDC
:04005F003E2CBF75FF
:04006000352858FAED
:04006100338DD846BD
:0400620002D1AD4AD0
:040063000AE435492D
:040064000BD1F0DEEE
:040065001A4B22FA16
:0400660022D4888D8B
:04006700092E3F1E01
:040068001BD63BAFB9
:0400690036DD6425F7
:04006A0009172AAD9B
:04006B0033828CB19F
:04006C003EABBF2BBD
:04006D0011C9981904
:04006E002AB678C670
:04006F001846509748
:04007000245019649B
:040071000545BE2360
:04007200344E93383D
:040073001AD23DB9A7
:040074000A0ED3D9C4
:04007500037A94C9AD
:04007600313FC34A09
:04007700015E17BD52
:040078000884D75AC7
:0400790003157AC928
:04007A0028D739301A
:04007B00235238E2F2
:04007C0020C4400953
:04007D00170FACB7F6
:04007E003BD2A87851
:04007F001D6297C5A2
:040080001434B4D0B0
:040081000A7BD2CE56
:0400820017C86CAC83
:0400830035BF31DB79
:0400840010F8F1ADD2
:04008500197D0A3D9A
:040086002C342D41A8
:040087000D89EE7C75
:040088001ED2858778
:0400890014DD0B2453
:04008A0003CBBCAE3A
:04008B00345D6C294B
:04008C00254471682E
:04008D0012E8C5BAF6
:04008E002BE1556CA1
:04008F001B6E8E0353
:0400900023AA1D7012
:040091000FDEA48753
:040092002F75DE14D4
:040093002F5144A8FD
:0400940028C089FCFB
:040095000D47AFB8AC
:040096000003CFA7ED
:040097000BD8DFAEF5
:0400980028AAA631BB
:04009900249308DEC6
:04009A000789ABD255
:04009B001804E580E0
:04009C000205B45D48
:04009D002FEBC4B4CD
:04009E003541008563
:04009F00087A958EB8
:0400A00034BEE46D19
:0400A1002F64007355
:0400A20035384A247F
:0400A300028445B3DB
:0400A400165069DBAE
:0400A5002C6ABD867E
:0400A6002DF9425C92
:0400A7003E4B838BBE
:0400A80023C808322F
:0400A90035DAA52A75
:0400AA000B61EFBD3A
:0400AB001A98D26C61
:0400AC0007255B5574
:0400AD002C13C7E465
:0400AE00269B4E61DE
:0400AF001FF00CD55D
:0400B00017E8B65047
:0400B10025BAA04F7D
:0400B2003D2FDC04FE
:0400B3000AB1E57534
:0400B40022B6B91B9C
:0400B500116FD843AC
:0400B60029786E3403
:0400B7001858D120E4
:0400B80023D8E6570C
:0400B90031A30991D5
:0400BA00317EA1747E
:0400BB0022EC083BF0
:0400BC001FE1788246
:0400BD002782CEB513
:0400BE001CCCA4446E
:0400BF0031DCFFE948
:0400C0001B00376F7B
:0400C10018DC0F3305
:0400C20026A1EABECB
:0400C3000BDD7F22B0
:0400C4001CD0B5C5D2
:0400C5000125994F29
:0400C600068BD7FAD4
:0400C7001A86F5A8F8
:0400C80004F3944960
:0400C900177A09CACF
:0400CA003001AF90C2
:0400CB000FFA96CFC3
:0400CC00017DCD4C99
:0400CD002B9176D726
:0400CE00398044AC85
:0400CF001A1B7E3D3D
:0400D0001367F8E5D5
:0400D10024E97001AD
:0400D20009E2B47516
:0400D300101D09688B
:0400D40010526CBC9E
:0400D5003350B39A57
:0400D60019C8528C67
:0400D70026CBDEE076
:0400D80024DB9DF890
:0400D900202ADF49B1
:0400DA001DF6317F5F
:0400DB001884E47829
:0400DC002396BBCEDE
:0400DD0012F159C5FE
:0400DE0039411FC8BD
:0400DF00118DA2518C
:0400E000181676B5C3
:0400E100215361FE48
:0400E2000144ACEB3E
:0400E3000BD5B21275
:0400E4002A5A657AB5
:0400E5002F36E3A42B
:0400E60027A1C44842
:0400E70003B855F213
:0400E8001BAF21E544
:0400E90038892E6EB6
:0400EA0031CBB2CC98
:0400EB001220D71CEC
:0400EC0034C883A4ED
:0400ED002E1854D0A5
:0400EE001077E24164
:0400EF0029589847AD
:0400F00020D0852473
:0400F10013B4E70B52
:0400F20032A76EFCC7
:0400F300296B74C43D
:0400F40007C86B4B83
:0400F5000F2BBA947F
:0400F60017FEF76793
:0400F70008878EE305
:0400F8002874B57D36
:0400F900260F20733B
:0400FA001000EB39CE
:0400FB000DE85EAD01
:0400FC001F13F9F9DC
:0400FD00353DDFF9B5
:0400FE000A6EBFC700
:0400FF003761EAF08B
:0401000016352CA8DC
:040101002B4CC6605D
:0401020037AAAC9AD2
:040103003B785B06E4
:040104002A604BB86A
:04010500223C3274F2
:040106000CD23832AD
:040107000F9603F05C
:04010800307125101D
:0401090030483A142C
:04010A000D630D551F
:04010B000C5060161E
:04010C00210C3E4D37
:04010D00393A3A0E33
:04010E002037BD6475
:04010F0032C670394B
:0401100026D1A3F25F
:0401110031A5B4CC94
:0401120031A60FEB18
:040113001BC53E2D9D
:0401140007594D1129
:040115002DF684152A
:040116001DE4E9D625
:040117000DF4738BE5
:04011800078086CA0C
:040119001CB75807B0
:04011A000206833A1C
:04011B003CDE74E46E
:04011C00267165CC17
:04011D0021540499CC
:04011E002B106550ED
:04011F000DCF1C6B79
:0401200030728C8D20
:0401210018AE88602C
:0401220021FECFFBF0
:0401230027073CA0CE
:04012400341263E04E
:040125002F4A66DE19
:0401260000949A188F
:0401270006DA8691DD
:0401280008DF29DBE8
:0401290028FCC2A04C
:04012A0010BE4E664F
:04012B0023209AC231
:04012C000C697EB626
:04012D003B20E47E11
:04012E001024914DBB
:04012F00385E12B96B
:0401300009236EE948
:040131001A32C16B52
:040132001856BC425D
:040133001D73F5142F
:0401340014FEA6957A
:040135000C1EDDEFD0
:04013600172EF2D2BC
:0401370027FF67EA4D
:0401380000643ED54C
:04013900150E0DAEE4
:04013A00274CC84442
:04013B0008804A7F6F
:04013C000F03E3EBDF
:04013D0007AD6D108D
:04013E002C319AD6F0
:04013F0034A96FE68A
:040140002063867E34
:0401410037E8FB554B
:040142003DD6E07551
:0401430019F2151880
:0401440009E1389CF9
:040145002E35A9DFCB
:0401460027F82AD19B
:040147000FF92A8002
:040148000B780C35EF
:0401490007C4A4340F
:04014A001CBE7A6AF3
:04014B0037EC31DE7E
:04014C0026656BC6F3
:04014D003AA7D1B448
:04014E002C616EF3BF
:04014F0021977998E3
:0401500002611DE249
:040151001F1FF50E69
:04015200116ACB9CC7
:0401530000E5CD5C9A
:04015400240C65070B
:040155003560517C44
:0401560038324704F0
:040157001EFFA522C0
:0401580034D76BE14C
:040159002EEFB4E2EF
:04015A00302E1EEF36
:04015B00196AD1B993
:04015C001F6AA4680A
:04015D001B837C8EF6
:04015E00015775B61A
:04015F0023634C1EAC
:0401600038FC0D4416
:040161000C35C9D7B9
:040162001BD5496AF6
:040163000EBEBA858D
:040164002554630EAD
:040165000BA8174686
:0401660018625AF5CC
:040167003D29A2503C
:04016800366CB9C771
:040169001073408F40
:04016A002103F51E5A
:04016B0019D99265A7
:04016C0013BF7CDB66
:04016D001F43298380
:04016E0013155847C6
:04016F00197CBBF943
:0401700017AB29762A
:040171002284956FE0
:040172003C77EC9852
:040173003665B448F1
:0401740031B2FA2783
:0401750025B6513129
:0401760011E154ED52
:040177000259490ED2
:0401780006EFBE9A36
:040179002428FFEB4C
:04017A001EB146BAB2
:04017B0039693E9E02
:04017C003862DB61A9
:04017D001A148516B5
:04017E0033B499619C
:04017F0028CECD9A1F
:040180000725919D21
:04018100079EDDAF49
:0401820033C8481E18
:0401830036F0B7B5E6
:040184001729279B75
:04018500073F3D19DA
:0401860017A8F8C9F5
:0401870014A46B143D
:040188000D2817988F
:04018900053D247F8D
:04018A0031F02A0A1C
:04018B00050F76E7FF
:04018C001343387869
:04018D002CE03E998B
:04018E001A17032712
:04018F003121D8DC66
:040190002036909BEA
:040191001A49CDD565
:0401920017F185B527
:040193002FCF3772C1
:0401940008E561C554
:040195001844F652C2
:040196002122A0A6DC
:0401970012CA680F11
:040198001F31BDCE88
:040199001D6B9F2E0D
:04019A0007B09AD040
:04019B00122AA1E89B
:04019C003D184F7942
:04019D00005AAF78DD
:04019E000AF42D0032
:04019F00260D2118F0
:0401A00027339D84E0
:0401A1000851B91533
:0401A20002D1E5E8B9
:0401A3002933B83C08
:0401A400114A73CEBB
:0401A5003249378222
:0401A600077645E7AC
:0401A7003E2AE1EC1F
:0401A8002091641F1F
:0401A90010574301A7
:0401AA0033B492F2E6
:0401AB0027795AC591
:0401AC003D08C44402
:0401AD0004E4EBEB90
:0401AE000682CF3FB7
:0401AF002FBB578784
:0401B0003AF9616156
:0401B100306AEB467F
:0401B2000CAB06F498
:0401B30038BFB1227E
:0401B4001BDB2A49DE
:0401B50004F6384FC5
:0401B6003DF3C276DD
:0401B700153F174099
:0401B800333491B398
:0401B90026EB8E297A
:0401BA003A8E1E4F0C
:0401BB003EBDBE4542
:0401BC000C91E4A41A
:0401BD0028CF9D2387
:0401BE001D6CD910CB
:0401BF002A0FD9BB6F
:0401C0000E1A9A7801
:0401C10005ABB0EEEC
:0401C200137811EFAE
:0401C3003A1D59C5C3
:0401C4000EDE117DBD
:0401C50003B96224F4
:0401C60037B6330E07
:0401C70020611ADFBA
:0401C80025D2B30287
:0401C9001C4A4290FA
:0401CA000E9EE0188D
:0401CB0008234BA515
:0401CC000D4CCCE426
:0401CD00177E9260A7
:0401CE0005A231DE77
:0401CF001E2357781C
:0401D000359F3DED2D
:0401D1003479C5CEEA
:0401D2001174CA13C7
:0401D30020819E30B9
:0401D400299E5D27DC
:0401D50006F1C70E5A
:0401D6001844A71C06
:0401D70013314B0392
:0401D8001AB646CA43
:0401D9003C7097A738
:0401DA003375784FB2
:0401DB001E8753B672
:0401DC003AE3808200
:0401DD0005A74164CD
:0401DE003C8D1F6FC6
:0401DF000758B143C9
:0401E0002429D2AD4F
:0401E1000D5DA530DB
:0401E2000ABE13C47A
:0401E3001412C957D2
:0401E40023FC2C2BA1
:0401E5002BD8306380
:0401E600111A17795A
:0401E7001DE74AAE18
:0401E8001CD0E83B04
:0401E9001D3A4D135B
:0401EA00237960A372
:0401EB002FE92ED0FA
:0401EC0031A126BA5D
:0401ED00244F55B096
:0401EE0017821A0159
:0401EF000FB4E46104
:0401F00006B3828A46
:0401F1003BACDBE365
:0401F20021F76FDCA6
:0401F30037656746BF
:0401F400377DDEE491
:0401F50000EAC3E673
:0401F60038EF2E3C74
:0401F7000A4FC6994C
:0401F8001D4BE9D3DF
:0401F900004B52BBAA
:0401FA000C3CAC4DC0
:0401FB000D1A139B2B
:0401FC0005C2F61230
:0401FD001E73DC2A67
:0401FE0036E6CC74A1
:0401FF001ACEBEC591
:0402000000000001F9
:040201001507D49B6E
:040202000A77D5267C
:040203001662711AF4
:040204001C83BA9607
:0402050023D795E383
:040206000B8F2EB775
:0402070023FE3C8610
:040208000FF71F26A7
:040209002769270634
:04020A00274A393412
:04020B0010E3AD91BE
:04020C0017F0CDB466
:04020D00089EF987C7
:04020E00226E163610
:04020F000EEAA03B18
:04021000202C93F318
:040211003D2D984A9D
:040212002366B93F67
:040213000BEA8F5013
:040214003499D66CD7
:0402150039A589116D
:04021600267FF0AEA1
:0402170028138374B1
:040218001F2B406BED
:040219003CC388F862
:04021A0002460B94F9
:04021B001228BB3CAE
:04021C000705E039B9
:04021D003D7E1E6C98
:04021E001CE3233189
:04021F0021AA578732
:040220000DABC6F864
:0402210000C748AC1E
:04022200103ABA2AAA
:040223001793B0DF9E
:040224001B734C03F9
:0402250025EE196940
:0402260038C3DAC43B
:04022700269B302CB6
:04022800228D2DAD49
:0402290018C6F8D427
:04022A0031AEE45EAF
:04022B0030DA6D62F6
:04022C003BCED2589B
:04022D002F7CE3D867
:04022E0007FE45FD85
:04022F0014DEE53CB8
:0402300010E8EEA143
:040231003535B0218E
:040232000B6B11C879
:040233003B0CE29608
:040234003C97FD1DD9
:040235000D2D95C234
:04023600375B033EF1
:0402370030AF85035C
:040238000CBED1DF48
:040239003B578104AA
:04023A00349A071FCC
:04023B0011B23124A7
:04023C003A5A1223F5
:04023D002AEF6748F5
:04023E000001C132C8
:04023F0023F0CAE8F6
:040240003836FC94BC
:0402410035B41108B7
:040242001387BB6BF8
:040243002F1E6911F0
:040244001013C418B7
:04024500069FD6D268
:0402460003C0494563
:04024700314F0B63C5
:04024800284E473CB9
:040249001BFCBE904C
:04024A0009B935FBBE
:04024B003B5945BB1B
:04024C00015D165FDB
:04024D0013355BDF2B
:04024E003320326BBC
:04024F003AFBD3089B
:04025000313CB0305D
:040251002621F86DFD
:040252000C82D4FF47
:040253003775FA26DB
:04025400136B1CB656
:0402550036CC021D84
:0402560039EC610B13
:04025700262805FA56
:040258002869C6A7A4
:0402590024F64BE25A
:04025A0036E791EC06
:04025B002B37A56C2C
:04025C001E840207F3
:04025D001B98EEA953
:04025E00211872B140
:04025F0037B1D808D3
:040260001BBD922A06
:0402610018E601FB9F
:0402620019F65751E1
:040263002208104F0E
:040264001023E86912
:040265000860808F1E
:04026600149D61BFC3
:040267001D4FBC402B
:04026800203C152001
:040269001809E1D7B8
:04026A00386FC19098
:04026B000B4304A697
:04026C003A182F44C9
:04026D00379B6C7FD0
:04026E0000CE838AB1
:04026F00219BCAFF06
:0402700002ECEF6C41
:040271000F69B1164A
:040272000FB09B6BC3
:040273000F9523AB15
:040274000E23D45130
:040275002522E17CE1
:040276001129C16D1C
:04027700308C8E7DBC
:0402780023234AF4FE
:0402790001B83E8109
:04027A002D104C9F58
:04027B0039324114BF
:04027C00224C6DB8EB
:04027D003DAC8857B5
:04027E0002EB56F841
:04027F000927DB95DB
:04028000100CBA4262
:0402810028A4056C3C
:040282003680F1BD14
:04028300135717A74F
:0402840004FA39A897
:040285000C8A7BC79D
:0402860002A905883C
:040287000A830004E2
:040288003B3A8081FC
:040289001A32F12E06
:04028A003DFDF3CF74
:04028B0011D88737C8
:04028C00037F16597D
:04028D00105A99D496
:04028E003BCC3955D7
:04028F001A86A1A486
:0402900016847F5AF7
:040291000161F4E033
:04029200271146B535
:040293002E67BEDE36
:040294001A38A0FF75
:040295002C0894039A
:0402960028F692AA0A
:040297002EAC2BDD81
:0402980032A4E38722
:040299001C2C86177C
:04029A0007C5D22E94
:04029B001FDE40B072
:04029C001267EAF00B
:04029D000478AB58DE
:04029E001DD96FDC1B
:04029F001772EC00E6
:0402A000238E653113
:0402A10022C3CB1B8E
:0402A20011BE1A1B54
:0402A3001094AF09FB
:0402A4001CED82E9E2
:0402A5003C9532ED65
:0402A6002A3A59C6D1
:0402A7001D67871E2A
:0402A8003BB0CA9B02
:0402A9002A9EBDE7E5
:0402AA00277DDFE8E5
:0402AB00302F623757
:0402AC00247EB530C7
:0402AD0019FEF481C1
:0402AE0039551A2E76
:0402AF003432BE190E
:0402B000372A95B89C
:0402B1001E5172FC6C
:0402B20038C623B96E
:0402B30020D77CB222
:0402B4001F92799389
:0402B50025FBB64A25
:0402B60028E59C6C2F
:0402B7002FCB69E7F9
:0402B8003AB493DAE7
:0402B90026D730F420
:0402BA0016E830B45E
:0402BB0022697F062F
:0402BC001FB2DF91FD
:0402BD0029A6F6A4D4
:0402BE002216B02331
:0402BF0006BB58839F
:0402C00001CE2E3607
:0402C1001E25FB56A5
:0402C2002F5CC73AAC
:0402C3000432DA33F4
:0402C4001497898B77
:0402C5002EA4B9A00A
:0402C6001999B2B61A
:0402C700365E0DAAE8
:0402C8002C1BF230C9
:0402C900085660254E
:0402CA0038D75D6361
:0402CB0015546A7AE2
:0402CC0014659C0C0D
:0402CD000F80785FC7
:0402CE00163D18942D
:0402CF003258A9DE1A
:0402D0001D532D0588
:0402D10024E159903B
:0402D200210CF553B3
:0402D300140FF0BF55
:0402D400164AAA51CB
:0402D500345EE0753E
:0402D6001901CD43FA
:0402D70031BCBE0D6B
:0402D800121C836908
:0402D900315B6E85A2
:0402DA00176C4F4608
:0402DB001AAEAF3870
:0402DC0021A3DF8CEF
:0402DD00061270573E
:0402DE001B7BB65878
:0402DF0033F40DB532
:0402E0000B95F56A1B
:0402E10027D182356A
:0402E200296E6BAD69
:0402E3001302EE1FF5
:0402E40017AEA0BEF3
:0402E50005192F9E2A
:0402E6000B61C27C6A
:0402E7000B1E0D627B
:0402E8003BA388F3B9
:0402E9001A104D3862
:0402EA002AB78E7031
:0402EB0009D4485397
:0402EC003131310F6C
:0402ED00042984AAB2
:0402EE003C976B804E
:0402EF002761987279
:0402F000255BDD337A
:0402F1003386A1F3BC
:0402F2003D0EAFF915
:0402F30036E454E0B9
:0402F40004D2D4AEAE
:0402F50027568063A5
:0402F60034FA96D66A
:0402F70009E06DF2BB
:0402F8000A19935FED
:0402F9000C7F5F20F7
:0402FA00270D18AD07
:0402FB0022C0A6383F
:0402FC000766D61AA1
:0402FD003DA1DC75CE
:0402FE002619AFA46A
:0402FF00345F153D16
:04030000245E50B077
:040301000E82F2F185
:040302002A3414EB9A
:04030300253C93C042
:040304000A646681A0
:040305002306507A01
:04030600324741FF3A
:0403070035EB709EC4
:040308002F7B49EC12
:040309000A162D5251
:04030A002B26F48228
:04030B002BD3B2B886
:04030C003436C1E7DB
:04030D00183023621F
:04030E00236FBE4E4D
:04030F003D35066F03
:0403100008DD90E68E
:04031100096574DC2A
:040312003586B57007
:04031300276A956759
:040314000664E7494B
:04031500222387EB2D
:040316000E5F520321
:04031700304C7A13D9
:0403180033759A336C
:040319002769B22975
:04031A000BD044D1EF
:04031B0012445C9498
:04031C0024A630AF34
:04031D00349EAEE379
:04031E002C5685DEF6
:04031F003AC046A7F3
:0403200010F64C8EF9
:040321002D0C592026
:040322003E9EF9C939
:0403230007D346684E
:040324001E4026D77A
:0403250017502FA797
:0403260018F0480B78
:040327000B9C929504
:0403280025D4107355
:040329001FCA6CEF8C
:04032A002F2A8435BD
:04032B001EE3F57266
:04032C000B7BCDC5B5
:04032D002F459EB109
:04032E003BFF9BD91D
:04032F001DCA640D72
:040330003BA3631375
:0403310028E5EB468A
:04033200052B957F83
:040333001B059D12F7
:040334003D595100DE
:040335001670A4A6F4
:040336003BF61F581B
:0403370026B65AE5A7
:040338002480279363
:0403390015C6B675BA
:04033A000915362843
:04033B000F808B2E76
:04033C000BE0E19D54
:04033D000661AC7534
:04033E0004846E576E
:04033F0000C5BC50E9
:0403400022C8132597
:040341000FDD9142F9
:040342003BECFBE5B0
:040343001C89B767F3
:040344003AA2BB51CD
:04034500043A9B5586
:040346002DE0089A04
:04034700291763E629
:0403480006B48EDA8F
:040349000E25669384
:04034A00308A90CA9B
:04034B003ED21E334D
:04034C00114BFBDD79
:04034D00041C3B0C45
:04034E001DD07389C2
:04034F0006096BC967
:040350003485612A65
:04035100011DBB4A85
:040352003987078B55
:040353003B5DC2CF7D
:0403540010BBE0D327
:040355001B27D16031
:040356002C6D2107E2
:040357002A269B3582
:04035800274AAD5B28
:040359000925264C00
:04035A003D996B243A
:04035B003517D31B64
:04035C002763465875
:04035D001EA10F8C42
:04035E0024DA8875A0
:04035F002AF1462811
:04036000018A9284F8
:040361001E76F05DB7
:040362003BA7D4B42D
:040363002E2C8EEEC0
:04036400342BAAD7B5
:040365003E8CA31512
:040366001888DAFD1C
:04036700014D926052
:040368000CE6761D0C
:040369000B08056612
:04036A002BD3635FCF
:04036B003E921D940D
:04036C002DBB5C65E4
:04036D003C01828A43
:04036E00154E024CDA
:04036F00118895401C
:040370002A21CCD79B
:040371000AE57E4FCC
:0403720022821B5B6D
:0403730018D0ADFAF7
:04037400388ECA777E
:0403750017B750EF77
:04037600018E88BBB1
:0403770018493C27BE
:04037800157D7ADF96
:040379000E016E25DE
:04037A00197618BC1C
:04037B0033ACB63AAF
:04037C0020C003B2E8
:04037D003348121BD4
:04037E001B96A98A97
:04037F0015BAAF7488
:04038000232C2B42BD
:0403810007ACAD1206
:040382000F6303936F
:040383002A6E4D5E33
:040384000F308012A4
:040385003ECFC31F85
:040386001C2D10A377
:0403870008B67691AD
:04038800172B366297
:040389002B8E97CB55
:04038A000ED1527EC0
:04038B001E7A76F56B
:04038C0012150496AC
:04038D0033176B199E
:04038E003A042CAE53
:04038F003E3D567A1F
:040390003002A8D4BB
:04039100201372F6CD
:040392003704849117
:040393002E348297EB
:04039400106A7CB8B7
:040395000CCE17F97A
:0403960037A45DD754
:0403970012D3857583
:0403980037625899D7
:0403990000AE1AA8F0
:04039A002FB5FB91EF
:04039B00358BBA598B
:04039C000EAFD45973
:04039D0011ECA8C6F1
:04039E000CEB16C38B
:04039F002AB73558EC
:0403A0000717949E09
:0403A10018E30E57F8
:0403A2001E09FFF938
:0403A30038AFEFE0A0
:0403A40014CBD2FEA6
:0403A500031DED6FD8
:0403A6002CB7926E70
:0403A700353BA50D30
:0403A8000090CE33C0
:0403A90004A29B8689
:0403AA0001EFE9BEB8
:0403AB00142CDBE94A
:0403AC001607268486
:0403AD0020CAE92356
:0403AE0034C3EBC0A9
:0403AF003D22EC8679
:0403B0000A6EFC0ACB
:0403B100370DC367DA
:0403B2003563ADDB27
:0403B300076A541C65
:0403B4002173A465A8
:0403B5001BCE78F9EA
:0403B600305D84E74B
:0403B7003B9D04174F
:0403B800268DDAAC08
:0403B9002E9ADFDBBE
:0403BA003E30009B36
:0403BB0009B5759C6F
:0403BC00116161B2B8
:0403BD0018891D4B33
:0403BE00074A396849
:0403BF001F7928A5D5
:0403C000054F17B21C
:0403C1003448CAFBF7
:0403C200392A28EAC2
:0403C300355DB9F4F7
:0403C400298B5961C7
:0403C50037C63B07F5
:0403C6001759DB7C6C
:0403C70007967937E5
:0403C800181AB0AAA5
:0403C90037DD16EF17
:0403CA0027FA7A0391
:0403CB00121E569414
:0403CC0022E9492BAE
:0403CD00392C20D1D6
:0403CE0027ED76227F
:0403CF0008E504B485
:0403D0003142ABF219
:0403D1000FD10E201A
:0403D2003A3D9E9181
:0403D3001E420C14A6
:0403D4002C79DD277C
:0403D5002EA0BF3F58
:0403D600296B1AE392
:0403D700356DD7F4B5
:0403D80018BD1E30FE
:0403D9002D70FF88FC
:0403DA00392129603C
:0403DB000470BC836B
:0403DC00322F18B9EB
:0403DD00072591C59A
:0403DE001D14F227D1
:0403DF0010DBB20D70
:0403E0002FE1E0DB4E
:0403E100352324702C
:0403E20020FB1EEBF3
:0403E3000D1CF86590
:0403E400215E47C28D
:0403E50007E68CECAF
:0403E60016DEB4EB80
:0403E70011DC4508D8
:0403E80031F6D743D0
:0403E90039B60C42D3
:0403EA0007726C48E2
:0403EB003872015F04
:0403EC00060C523A6F
:0403ED002847830C0E
:0403EE00279F795B71
:0403EF0037E0477C30
:0403F000176F920AE7
:0403F100072A547310
:0403F2001500518C15
:0403F300143C92D153
:0403F40011EBC24EF9
:0403F50031617942B7
:0403F60031F04DEFA6
:0403F7000A0F868CD7
:0403F80023423CA2BE
:0403F90007864F0D17
:0403FA000E7ECA7F2A
:0403FB000B7D9438AA
:0403FC0023A16A319E
:0403FD003C5A7432C0
:0403FE002312ACCF4B
:0403FF002DA96A3189
:0404000000000001F7
:0404010016D2EF1C04
:0404020036D6F55A9B
:0404030017447947DA
:040404002934F9524C
:040405001F6D1C1338
:0404060030AA935B2A
:040407001080BBA9FD
:040408000906BFA67C
:040409003E499A428C
:04040A0037728D4573
:04040B001B8AF7CB86
:04040C0038D67DE081
:04040D003186B3EB96
:04040E0031A0C66AE9
:04040F000521E4EBF4
:0404100011532F71E4
:0404110036AAB02C2B
:040412001A8B0ACF68
:0404130000C6441CBF
:0404140016FF92DF5E
:040415002E0FB4C32F
:040416002FDEB553CD
:04041700260107D3E0
:04041800058EF55EFA
:040419003BBEBB73B8
:04041A002D695833BD
:04041B000D06930F28
:04041C00070FDE1BCD
:04041D0010E2D38591
:04041E00056C1E4EFD
:04041F003587ED61CF
:0404200001C9D4A199
:0404210002EF444161
:0404220000B943FAE0
:0404230033808A098F
:040424000B8E776A5A
:04042500219A6A446A
:040426002608717AB9
:0404270015F6BB59B2
:0404280004183AFE7C
:04042900384CD5D6A0
:04042A001918FD1987
:04042B001460446DA8
:04042C00289489285F
:04042D001F39E82A61
:04042E002D2CF81267
:04042F00009F2E9864
:0404300006492EBF8C
:040431000204EC9B3A
:0404320012A4D2A698
:040433001AD4610571
:040434000A3978A465
:0404350016758EC7E3
:040436001BCAFBD909
:040437000D6AC0C1C9
:040438003A83A84417
:04043900038ACFF96A
:04043A002C8ED459D7
:04043B001EBD004E94
:04043C0003AC96A1D6
:04043D00215321FD29
:04043E002058250D10
:04043F002D81957600
:040440002E560572BD
:0404410033675F0FAF
:040442000E7F825C4B
:040443003EC603723C
:040444002B36ADE8BE
:04044500245C4E7C69
:040446002F0548C670
:0404470010C87F0A50
:04044800060B9C34CF
:0404490010D57DD974
:04044A001FE003723A
:04044B003C1FD62C50
:04044C000CF5B5F9FD
:04044D00288645CDEB
:04044E00192DC37F22
:04044F003D4FA5C7B1
:040450000C37C56A36
:04045100056D731BA7
:040452003B261B0327
:0404530023D2AC45BF
:040454003AE02FEB70
:0404550003F0F32697
:040456002FDC96CE33
:0404570010B84B5638
:040458000340CB177B
:04045900142A3073BE
:04045A00376398600C
:04045B001EF5D28533
:04045C003BC24A0352
:04045D00145A1534E4
:04045E0012F366FF30
:04045F0001E526DFAE
:040460002682388335
:040461002951AB98DA
:040462001BF38956A9
:040463000657328C7A
:04046400169CA2D46C
:040465001F351E7DA4
:0404660027EE235A00
:0404670021CBE47A47
:0404680013C2409FDC
:04046900056231F9FE
:04046A00289453CFB0
:04046B00357A0ECF01
:04046C0029303857A4
:04046D003CE165AB5E
:04046E0001E8AA39BE
:04046F002E9055AFC7
:040470003D61EA55AB
:0404710027BB34472A
:04047200154F819809
:0404730022DB78B759
:04047400119AC4EF26
:040475003B8FAB917D
:040476002438B5A5CC
:040477003554C653DF
:04047800170211A1B5
:040479003E77C7F70C
:04047A002512C20E77
:04047B000348F51A23
:04047C00214A9E9FD4
:04047D0018EA1C62FB
:04047E000C17DE7108
:04047F002A174F5F8A
:040480003E7672262C
:0404810003CDBC5A91
:040482002586EEF2EB
:0404830016E4873ABA
:0404840034D736999A
:040485000D974EE29F
:040486000DB5D3D00D
:040487000C1379F2E7
:040488003E9558EF56
:04048900150567E509
:04048A001FF3768561
:04048B00338A18B2E6
:04048C0006F06032E4
:04048D0013B1F75F51
:04048E001CD75960BE
:04048F00286E89FF4B
:040490002C9485E340
:0404910037062FFA01
:040492003E391B17BD
:0404930024537D8DE4
:040494003BD0816C6C
:04049500297401BE07
:040496000C2FF6A38E
:040497001F79E25C8B
:040498000EA1C67873
:0404990015D328341B
:04049A002F8783F233
:04049B001CA1BE08DA
:04049C000B41DD1D16
:04049D00312979EA9E
:04049E0018015C2DB8
:04049F001219E87ACC
:0404A0003424257E5D
:0404A1003EC045D83C
:0404A200287540DE9B
:0404A300269046EE6B
:0404A4000F88093D77
:0404A5002FECBD7506
:0404A6002F7C90C552
:0404A7000A241C4FB8
:0404A80032E7DCC09B
:0404A90016E7D16B16
:0404AA0032E1E10C4E
:0404AB002A5B6A1846
:0404AC003C77588DB4
:0404AD0013B4BE586E
:0404AE00307E915DAE
:0404AF0037CE5E0ADC
:0404B0002BB05EAE61
:0404B100345A4A7DF2
:0404B20016A6B7FDD6
:0404B3000C250C6A9E
:0404B4002E010413FE
:0404B5000C1E68129F
:0404B60027BF4C11FF
:0404B7000F70351974
:0404B80008F095476C
:0404B9001CFA53F9DD
:0404BA000372152490
:0404BB002F70859B7E
:0404BC0023110D9E5D
:0404BD0030CB40CC34
:0404BE002D42546F08
:0404BF001D18597D2E
:0404C0000A0A03F62B
:0404C10019059686FD
:0404C2003246DB5D86
:0404C30020CEB90688
:0404C4002F64297701
:0404C5000B0DDAFE43
:0404C6002FDF31A053
:0404C7003D80561905
:0404C8002A3BECF5EA
:0404C9003A3B6BC788
:0404CA001EC3BC5938
:0404CB003754FA9C0C
:0404CC001A0FE435EA
:0404CD00229300B5C1
:0404CE000A36196170
:0404CF000792D003BD
:0404D000196150B3AB
:0404D1000819E9D449
:0404D2001F6B2FEB82
:0404D300240419BF25
:0404D400203D1B208C
:0404D50029140ECC0C
:0404D6000C84503111
:0404D700168A9C7174
:0404D80037508AC04F
:0404D9000666E0B91A
:0404DA0004F200AD7B
:0404DB001B93BBF6BE
:0404DC002998E86D06
:0404DD0010DF2B738E
:0404DE0024DC42597F
:0404DF002E7ECE009F
:0404E00007A310411D
:0404E1001A62525AEF
:0404E20024AFA6CDD0
:0404E3002F684A9F95
:0404E40006F053606B
:0404E5000BE4870F8E
:0404E6000721E8BC46
:0404E700163DBE8080
:0404E8001A6031075E
:0404E9001BFA4ACDE3
:0404EA000582005E29
:0404EB002681A44979
:0404EC001F0585174C
:0404ED0013266C4F17
:0404EE000678E35950
:0404EF0038C71F7576
:0404F00020AE1051D9
:0404F1002176978950
:0404F2002717D31ED7
:0404F3001820F24E8D
:0404F4001151A9F405
:0404F5001D7CF0F981
:0404F600000CCFC95E
:0404F700348AB9ABDF
:0404F80025913B41CE
:0404F90009D2E347FA
:0404FA00151CA88C99
:0404FB0026AFFF9990
:0404FC003A045B441F
:0404FD000CCDA14F32
:0404FE0035C7DC33EF
:0404FF003320C8AA34
:040500003BF0680B59
:04050100183815C3CE
:0405020025575E2BF0
:040503002B022F7226
:0405040022AD60D8EC
:040505000221B59F7B
:040506003D19166F16
:040507003690C12A3F
:04050800054B741516
:040509002BC5F59079
:04050A003569F1ACB2
:04050B003E9F35E4F6
:04050C003640B88D30
:04050D00238F020333
:04050E002F4C86AE3A
:04050F003D88FBD850
:0405100024DA3ABFF0
:040511001E01EFE4F4
:040512001DBDC798AC
:04051300116D2D0B2E
:040514000F07C238D3
:04051500136FE60F6B
:040516003A61C41171
:04051700077A8CDCF7
:0405180007A15F8454
:04051900147327DD53
:04051A0008E81D06CA
:04051B002E3191717B
:04051C001E20FD9F01
:04051D000A159575B1
:04051E001BFADDB532
:04051F001E207462C4
:040520003018D1A31B
:0405210014F9B5090B
:04052200069EC24827
:040523000236E118A3
:040524000E361E254C
:0405250029D05CE499
:040526003924DCDFB9
:040527001804B14EB5
:040528001315D134A2
:040529003CFBBF8850
:04052A0022BC3F1799
:04052B003CB56EF875
:04052C002F8C89B4D3
:04052D0018D6AA39F9
:04052E00146E2B2EEE
:04052F003E10E89EF4
:040530003D279B23A5
:040531001CAA0AD422
:040532003C55B3A3DE
:040533000524773AEA
:040534001FEC01F7C0
:0405350031197C6993
:040536000A8C01F436
:0405370029A448B5F6
:040538003CD4C97F67
:04053900238915FC01
:04053A002C82539527
:04053B001C78797C33
:04053C000C60A72C7C
:04053D003C1768D728
:04053E0004A875494F
:04053F00106ED7B7AC
:04054000087D62C20E
:040541001BB07A4C25
:040542001097930E6D
:0405430027774DBE0B
:04054400089F0D7C83
:040545000A10920DF9
:040546000ABA388134
:040547002D9319E8EF
:040548001DCC93062D
:040549002109BF5D68
:04054A000104A36F96
:04054B000997D51F18
:04054C000FA1378E36
:04054D00117E47D004
:04054E001EA2644342
:04054F002A7EEAC650
:040550001178F84ADC
:040551001271856D31
:0405520027DE5A2E18
:0405530021458B8B28
:0405540034BA321073
:040555003E31732D93
:0405560030E271DC42
:040557000AD735A8E2
:040558001BF9AB944C
:040559001AEC98F808
:04055A002BE6A835AF
:04055B000841A63D70
:04055C0032F363789B
:04055D00102A25C07B
:04055E0024FD4683AF
:04055F00122C7A815F
:040560000E57E872D8
:0405610017F41A4130
:040562000CE22F7107
:04056300212BAE8C0E
:0405640016915A1F73
:04056500385048F6CC
:0405660029D933D28A
:0405670010AD5AEF8A
:0405680028F0500522
:0405690025B4A546CA
:04056A00173049C439
:04056B002135CEFE6A
:04056C001B07A6EFD4
:04056D0015FDF47F05
:04056E000574557B40
:04056F000961FD5CC5
:040570002B621FEBF0
:04057100270BCBF495
:040572002DD252290B
:040573003A8C7283C9
:0405740000148E8160
:040575000B3E8D9B11
:040576001CA99D8996
:040577000786E221F0
:040578002475A33F04
:040579000B8967A2E1
:04057A002234CF0F49
:04057B003EBCE80D8D
:04057C003DB1B2B229
:04057D002DAEF6B0F9
:04057E001897520D6B
:04057F0038FE749638
:04058000143915B65F
:040581000B18CF9BE9
:040582002D908B131A
:040583002085069534
:040584001665EAFB13
:04058500340B4BD711
:04058600098A9553F6
:040587002FF7994071
:040588002F132E44BB
:0405890011EF2EA19F
:04058A002A7DBFB94E
:04058B00193D8C7E0C
:04058C002821F6DA52
:04058D0018E6B34F6A
:04058E0020A0E07E4B
:04058F0012C629A9BE
:040590002EAB962BCD
:040591001286D5D128
:04059200314CC330F5
:040593002788E8AB22
:0405940010DEDD5A3E
:040595001FFC7CFBD0
:040596003D05B05F10
:040597003A47B33EEE
:040598001239308F55
:040599001D044601F6
:04059A000D8269382D
:04059B0010B29662A2
:04059C000CA7471150
:04059D00266409B512
:04059E000C9F31ADD0
:04059F0038764670F4
:0405A000389C0692EB
:0405A1003C1311FAFC
:0405A20004CE359DB1
:0405A3001E0C96850F
:0405A400381871CFC3
:0405A500166C8AFF47
:0405A6001D66203B73
:0405A7000634E28BA9
:0405A8003D256A582B
:0405A90039FBFB53CC
:0405AA000E4C2EB213
:0405AB000EFDCB95E1
:0405AC00388A5DB478
:0405AD001C7BC1D022
:0405AE0038D7CB214E
:0405AF00073E5CFAAD
:0405B0000BF4016BDC
:0405B10024018F8C06
:0405B20015E34CB849
:0405B300231AE153D3
:0405B4000AF4D1CFA5
:0405B500078C677FC9
:0405B6002296FA2669
:0405B70008006F2C9D
:0405B80016AA2EC68B
:0405B90032BA6F4B98
:0405BA001B4A1DCDEE
:0405BB000A081273A5
:0405BC000D0493E8AF
:0405BD0020974682BB
:0405BE0016F88AEAB7
:0405BF003743A8C452
:0405C0003D1A931835
:0405C100170FA0610F
:0405C2000693B8479D
:0405C3000130DC7AAD
:0405C400220B472C93
:0405C5001166340D7A
:0405C6003A09ECCE34
:0405C700001D5C9A1D
:0405C80010F13C955D
:0405C9001C5E501351
:0405CA000C10996513
:0405CB000F7E320C61
:0405CC0016CC08251C
:0405CD00368F9B27A3
:0405CE0030C0E98DC3
:0405CF003762BA1BBA
:0405D00011E968B510
:0405D1003BB6DEBD9A
:0405D2001EEE255F95
:0405D3001A79A9A840
:0405D40004408AEA6B
:0405D5003884432201
:0405D6002022C36BB1
:0405D70027E40D8682
:0405D8002DCA3F17D2
:0405D9003D7D7D5E89
:0405DA0006FCAC333C
:0405DB000BD4BF0777
:0405DC000A984B53DB
:0405DD002D3B899A8F
:0405DE001C2BC6CA42
:0405DF000434C9A275
:0405E0001C1D2C5260
:0405E10022EF2A706B
:0405E200285EC4DCEF
:0405E30039BB0379A4
:0405E4003B5E260F45
:0405E5001955BA4AA0
:0405E600089FA4D6F0
:0405E700391BEEECE2
:0405E8001FCA0C0E0C
:0405E9003BFC65D39F
:0405EA0023253499F8
:0405EB0026288759DE
:0405EC002D16A935EA
:0405ED000B0A55C9D7
:0405EE0006376C2C34
:0405EF0006AADAFC82
:0405F00025873BF729
:0405F1000BF282CCBB
:0405F2002E05D023DF
:0405F3000D39EBC013
:0405F400161029E8CC
:0405F500117896CC17
:0405F60030A25D0FC3
:0405F7002B7ED2F88D
:0405F800355A17B3A6
:0405F9002DF9A9A38C
:0405FA002D069F9596
:0405FB0035C4BB94B4
:0405FC0015F1E915F7
:0405FD000EDF7FE1AD
:0405FE0010580B2066
:0405FF0015D8514674
:0406000000000001F5
:040601002F6977D412
:040602000FFDB8BA76
:040603000291A56754
:040604002D1D20C9BF
:0406050017CE022FDB
:0406060023FF134E6D
:0406070027430BDB9F
:040608003B5946E52F
:040609001D3DAC7B6C
:04060A003C46699170
:04060B000207970E3D
:04060C0011FCF0A944
:04060D002DD5B6D958
:04060E000CA093F7B2
:04060F003162AD3572
:0406100006AC3251B1
:040611001062B4922D
:040612001E777D834F
:040613001AA9AF3B36
:0406140003536E3CE2
:0406150031B961B7DF
:04061600386AC08DF1
:0406170030E13FDBB4
:0406180007F05D4149
:04061900133F78E62D
:04061A002A74C58DEC
:04061B001FE8686606
:04061C00052EA27491
:04061D001D82744E78
:04061E00287A20C353
:04061F003081F1CE67
:0406200006D0866812
:040621000B32A6569C
:040622001910E1CCFE
:040623000D55DBA5F1
:040624002C0D45D381
:0406250032B3403379
:040626000E9C4A2CB0
:0406270032307F509E
:040628001862989824
:040629001453706C8A
:04062A001FDB05616C
:04062B001EC2668EF7
:04062C000A9351F2EA
:04062D0033409CB802
:04062E00367B2CE704
:04062F000E945F7D49
:040630000403C513E7
:040631001B4F50B457
:040632003C8C8BCAA7
:040633003DF28F9D68
:040634000F0DF17342
:04063500181A5B7CB8
:04063600309545179F
:04063700137EDCAAA8
:040638001989B798CD
:040639002863A71C6F
:04063A001C4E838847
:04063B003068D1DD75
:04063C003342FC2425
:04063D0028A39C79D9
:04063E0003CAB987AB
:04063F0004AAACB8A5
:040640001FCC08D4EF
:040641003AB002BB0E
:040642002A934AE5C8
:04064300039BBBAEAC
:040644002A8301F410
:04064500139E9398D5
:0406460029BBEEC01E
:040647000B8B8FE6A4
:04064800194F37B15E
:040649000690737133
:04064A0017916D1F78
:04064B001EA4DC937A
:04064C000110A534C0
:04064D0006C676E285
:04064E000C7616C34D
:04064F00198FD93BEB
:040650001668A7EC95
:040651002A8B8CE77D
:0406520018B9295654
:040653001C0E5F4DCD
:040654000E80BD59FE
:040655000B1F8FE602
:040656003A50A06115
:040657000E8BE89589
:04065800298BD656BE
:0406590008DC530C5A
:04065A001E1984F2EF
:04065B0019CC45AAC7
:04065C00137580F39F
:04065D003CC7C0E8EE
:04065E001ACADD3A9D
:04065F0026BD0BC0E9
:040660001890A580C9
:040661001AB5423B49
:04066200076570C4F4
:0406630022B33E6917
:0406640005536C8846
:040665001FB15DA6BE
:040666003125F8DF63
:040667000D0AA331A4
:040668000EA94D0387
:0406690029B9FB9E12
:04066A0036ACE1FCCD
:04066B00212E9FE3BA
:04066C0014C2CB26C3
:04066D0035B2AD6E87
:04066E001091B23CF9
:04066F001C9A287F2A
:040670002A0A3A5DBB
:0406710019562450A2
:04067200240E17F04B
:040673003010DDFB6B
:040674001C5B4326A2
:040675002DA256A3B9
:04067600087A873443
:040677003E6105C01B
:040678002FF1C7C3D4
:040679001DB04392DB
:04067A003EA7D93985
:04067B002105C3B5DD
:04067C002A87DFCC1E
:04067D0039E4075FF6
:04067E003B6120F3C9
:04067F0014C8D6ECD9
:040680002758E8B55A
:04068100211906989D
:040682001E5B43F2C6
:040683003639E2B072
:040684002DF78FE4DB
:04068500234BEA7C9D
:04068600391AAC3A37
:0406870002DE3AD77E
:040688001CD637390C
:0406890002899D2223
:04068A0032A542A2B1
:04068B00348772D569
:04068C0036C29A8751
:04068D0029E2B08925
:04068E000D9C42720B
:04068F0007F3A13F8D
:0406900008E4631502
:0406910039BBE78FFB
:0406920017AB5773D8
:040693000CF46D45B1
:04069400332EAF8CC6
:0406950021CAD3B8EB
:040696002A6CFC428C
:0406970008BEB7CE14
:0406980015B974BB61
:040699000E7E718AD6
:04069A0009F44A8F86
:04069B00271C596C53
:04069C001250154E95
:04069D003815166A8C
:04069E001B31A882E2
:04069F00113A5F4667
:0406A0002F89F58029
:0406A100292A416B56
:0406A200288451B7A0
:0406A300293039467B
:0406A400360CE066CA
:0406A500237931F490
:0406A60027B4821CD7
:0406A7002012E50D2B
:0406A8000B26771492
:0406A900175F406532
:0406AA001D7D2EB9CB
:0406AB002DF337AB49
:0406AC002D78A2A95A
:0406AD00134DB594A0
:0406AE003ECD2C56BB
:0406AF0008C1F03559
:0406B0002BD09D9B13
:0406B1000999A2C839
:0406B200354F3D552E
:0406B3002A2B32FEBE
:0406B4002E53063685
:0406B50031A912FF56
:0406B60012F65305E0
:0406B7002F13F38981
:0406B8002538C3BB63
:0406B9000EC85CBD4E
:0406BA00356B0DBFD0
:0406BB000396198009
:0406BC00102B90F47B
:0406BD0024711CD4B4
:0406BE002B6C432539
:0406BF002831842F2B
:0406C0002AE0370FE6
:0406C10016DCD8C7A4
:0406C20038DD39FFE7
:0406C30014C586379D
:0406C4000D8F6F8F98
:0406C5002EB222DC53
:0406C6002A3844C9C1
:0406C700060C454E8A
:0406C8001ECD95DDD1
:0406C9003586CA0C9C
:0406CA000C6DEC289F
:0406CB002CCBABBECB
:0406CC0004795ED07F
:0406CD003CF3D6ED37
:0406CE0033DB311FCA
:0406CF0001EC6E0FBD
:0406D0001AFFED9090
:0406D10022448D48EA
:0406D200375AD65964
:0406D3003A84180449
:0406D4002F6DF4F49E
:0406D500070FD5082E
:0406D6001A3E6A81DD
:0406D70025F6E9BA61
:0406D80021F7081AE4
:0406D900100099472D
:0406DA002E55F9F8A8
:0406DB0035A5E3F965
:0406DC0020B01DD558
:0406DD002CCDF1B976
:0406DE001BB448FC05
:0406DF003BF1835513
:0406E000340D085776
:0406E10029DA1EB63E
:0406E2001DA3E06311
:0406E30037CB33B22C
:0406E4000D4E11CADC
:0406E500317E2E68CC
:0406E6001CDE29FEEF
:0406E700070F3D7E3E
:0406E80001D2387390
:0406E9002E85C5FD98
:0406EA00060423C41B
:0406EB0014FCCA9E93
:0406EC0028DB4CFCBF
:0406ED0011F8D0A68A
:0406EE00371DEB5F6A
:0406EF000445364345
:0406F0001D0B0821B5
:0406F1003E08A563B7
:0406F2003EB45DAF06
:0406F30008D0DFF25A
:0406F4003469BED7D0
:0406F5002EFCDDF802
:0406F600285AE73463
:0406F700120F57D1B6
:0406F80012C2DCC48A
:0406F90004279947F2
:0406FA0008CC35E211
:0406FB001A38FDA804
:0406FC0027A0FDEB4B
:0406FD0038CC5B8911
:0406FE0038DD29B208
:0406FF00310B47BDB7
:0407000011F143C2EE
:040701001348F38B1B
:04070200256EE40577
:04070300307AB3573E
:040704001357F0BBDC
:0407050001269359DD
:040706002C3158A991
:040707002D6F2253DD
:04070800078C9DD2EB
:04070900139E883D76
:04070A00199242F30B
:04070B00075CEAABF2
:04070C002A57FF8BDE
:04070D00040B312385
:04070E000B86A5B6FB
:04070F003424AC5989
:040710001B630C72E9
:040711000A687732C9
:040712002FD083520F
:04071300290B2292FA
:0407140022AC5C5067
:0407150013E4C11315
:0407160001C9DF79BD
:04071700354E2BC868
:04071800301DED6D36
:04071900315E3350CA
:04071A0027962D7081
:04071B0008ADAF84F2
:04071C001793082DFA
:04071D001AD3905209
:04071E00169CF4DF52
:04071F003CB3CEBB5E
:040720000D376DED37
:040721000328D13B9D
:0407220034A504F204
:040723001979CB4B2A
:040724002BA92D01CF
:0407250039C687EF5B
:04072600107EC45E1F
:0407270032DB3F671B
:040728000C0AA71000
:0407290022CD1FE9D5
:04072A000F7D2852C5
:04072B002DA0A03429
:04072C00390A24C59D
:04072D002C3A2091B1
:04072E00283CE80279
:04072F0010E260E292
:040730002C6D22C644
:0407310034A1EBCD37
:04073200359C1B8453
:040733000B0419C4D6
:040734000335B17068
:0407350027C89F33FF
:0407360033C083C980
:04073700319E04B437
:04073800270EF5593A
:040739000B09789B95
:04073A003B8B2027AE
:04073B00243DB1E0C8
:04073C002CC707239C
:04073D002BAB8169F8
:04073E000151047EE3
:04073F0008FC404D25
:04074000287224E314
:04074100273440F326
:0407420010428D498B
:04074300046142B05B
:0407440010DFD8E307
:0407450015D9E30DD2
:040746000FBD794525
:04074700266B236298
:04074800030A43530A
:040749003E17B0DEC9
:04074A0020FBB55982
:04074B00146ACC2040
:04074C002B740706FD
:04074D0010507713BE
:04074E0002EB47244F
:04074F003E8D5C1E61
:0407500011D593DA52
:040751003A814E306B
:04075200346D5F772C
:0407530036DD867C8D
:0407540035E5AF5D7B
:040755002BBDF24482
:040756000F396056A1
:04075700117FF734E3
:0407580019C4F3309D
:04075900362802E05C
:04075A00161800D39A
:04075B001F1058B360
:04075C0029CB4A6DEE
:04075D003B72528613
:04075E00045943CF28
:04075F001CD93678F3
:040760003E3C03F820
:040761002E2A3B58A9
:0407620039AAA0D838
:04076300092BBCAFF3
:040764001BDEE8BAF6
:04076500138CFD8D67
:0407660021EED23876
:0407670017D61C7E07
:040768001D8C7A2446
:040769000EABE1E30F
:04076A00101972F5FB
:04076B002A6F64B7D6
:04076C001AD8CB05C7
:04076D000E11D50391
:04076E002CA0C87083
:04076F000E1C3445E3
:040770003D6F8799B9
:040771002BF4372905
:040772002010F8B4A7
:040773000BF1D18035
:0407740006AD0CE7DB
:040775002820CE0664
:04077600045DE6EC4C
:0407770037EC46A86D
:040778003385313B59
:04077900332E5C8738
:04077A0013D9FF2868
:04077B0017D627BBAB
:04077C00071E1B2F0A
:04077D002A4EE15AC5
:04077E002FCB490B29
:04077F000C68CF8CA7
:0407800010A150F77D
:040781002CD9C22B82
:040782002384FD9B34
:040783003611E53C0A
:040784001D6EE4AE54
:040785002C468EF17F
:0407860015CF90AD4E
:040787003D0A698F2F
:040788002654E96C9E
:040789000D73AA9FA3
:04078A003DA66ABB63
:04078B000631BDC3B3
:04078C0012F87B17CD
:04078D00179FE04C86
:04078E00379E4474DA
:04078F001FE3FF6FF6
:04079000207137E8B5
:040791000D26C7DE8C
:04079200224DE07E96
:04079300148ED19E51
:040794002A52FE5592
:040795002A65DC2EC7
:0407960002AA3A3544
:04079700383B95F363
:040798000F9FEFFEC2
:0407990008E0B72C91
:04079A0006880018B5
:04079B002A30E71FFA
:04079C00328C3BEA76
:04079D002E9137C1A1
:04079E003B7FD5AA1E
:04079F0003016A2BBD
:0407A00015F6EF2F2C
:0407A10029E56E2CAC
:0407A20023D5018CCE
:0407A300382EDF4CC1
:0407A4000E9BA20204
:0407A500128C354A33
:0407A6001EEE64D50A
:0407A7000356BC64D5
:0407A8003D84350552
:0407A90029C5727D6F
:0407AA0039C3576494
:0407AB0021495BC2C3
:0407AC0019D7E20176
:0407AD002A99A97D5F
:0407AE002639EC708C
:0407AF0010DD5DD527
:0407B00011C85827ED
:0407B1003BC6A28E13
:0407B2002ACDB4B0E8
:0407B3000A55ACD364
:0407B4003079EDA407
:0407B5001AC7988542
:0407B60034AF798F54
:0407B700272476B7C6
:0407B800051F16946F
:0407B9002E6536C8AB
:0407BA003BA773D80E
:0407BB001D01ED3AF5
:0407BC001744DA17ED
:0407BD0004EE1A72BA
:0407BE003CB189358C
:0407BF000220474D80
:0407C000331291B8A7
:0407C1002685C5C8FC
:0407C2002B4A162E7A
:0407C3003AA4397D9E
:0407C40021A1B3E8D4
:0407C5003C99F3BBAD
:0407C60015F48F3D5A
:0407C7003746460764
:0407C8002A5BF6486A
:0407C90019C963C225
:0407CA00031FC10C3C
:0407CB00266599F214
:0407CC0007118F057D
:0407CD002528BDDB43
:0407CE000F94732DE4
:0407CF003427DBD818
:0407D00009AB03E886
:0407D1001AE672248E
:0407D20014AA591CF0
:0407D30017A0045F08
:0407D400065FDDFEE1
:0407D500182AD411F9
:0407D6002BCCF9141B
:0407D7003E9260EA04
:0407D80028DC98542D
:0407D9001CF623C324
:0407DA0010799511EC
:0407DB001F023123A5
:0407DC0013814291B2
:0407DD002D21AD24F9
:0407DE000FB21CDE5C
:0407DF000DB84D669E
:0407E0002F84FBEA7D
:0407E10029369736E8
:0407E20030A86E8647
:0407E3001BF453F0C0
:0407E4002E93BB1A7B
:0407E50012D0156BAE
:0407E60005D12D45C7
:0407E7003E270AB8E7
:0407E80010D6E19CAA
:0407E9001086DD6732
:0407EA003D1E0F3B66
:0407EB0039D240902F
:0407EC0022A8AADDB8
:0407ED0027D321826B
:0407EE0033443A4A0C
:0407EF00215DCE209A
:0407F00027DEE041DF
:0407F100218B1F0435
:0407F2001ED1B079EB
:0407F3000DA43F4CC6
:0407F4002D585666C0
:0407F500229EC199E6
:0407F6000EE6D1C07A
:0407F700337C63F3F9
:0407F8002B2A8765BC
:0407F900153755B6A5
:0407FA00316483CB18
:0407FB002F263DD197
:0407FC000AD9F5EA37
:0407FD0031296EA58B
:0407FE0012A0997A32
:0407FF001D944DAD4B
:00000001ff
