:020000040000FA
:0400000000000001FB
:04000100030FD54FC5
:04000200352858FA4B
:0400030023AA1D709F
:040004001B00376F37
:0400050020D085245E
:0400060030728C8D3B
:0400070002611DE293
:040008000725919D9A
:040009003AF96161FE
:04000A002429D2AD26
:04000B001271AC9929
:04000C002C7066BE30
:04000D0021133D3D41
:04000E000EC9E8AE81
:04000F001E01079433
:0400100032C50F974F
:040011001657E51881
:0400120018FDD833CA
:04001300283D4871CB
:0400140039A83AD0FD
:040015001C19B636C6
:0400160018557ECA31
:04001700306688DCEB
:040018002A9B4B31A3
:0400190026E749B1DC
:04001A0026B9894C2E
:04001B0017FE5C0F61
:04001C001E6C79835A
:04001D002724D68B33
:04001E00179C627D4C
:04001F000930C214CE
:0400200000000001DB
:0400210010E8EEA154
:040022001BBD922A46
:0400230016847F5A66
:0400240001CE2E36A5
:04002500255BDD3347
:0400260010F64C8EF6
:040027003485612A91
:04002800232C2B4218
:040029000A6EFC0A55
:04002A002FE1E0DB07
:04002B00121FA8E612
:04002C0012FA3ABAD0
:04002D003CBC346A39
:04002E0023B1865B19
:04002F00280C9FD129
:0400300023FE3294E5
:040031001EB14A7E34
:0400320010641AF04C
:040033000CA1A25921
:040034002C0178E73C
:040035000A208EA669
:04003600312739092C
:040037000D964FD102
:040038002EC645BFCC
:0400390007A86A4961
:04003A00333D0A97B1
:04003B0035F56F1B0D
:04003C001C0AECDCD2
:04003D0014B1332A9D
:04003E0037BB6B63FE
:04003F000D90540FBD
:0400400000000001BB
:0400410006492EBF7F
:040042002682388357
:040043002C9485E391
:040044000A0A03F6AB
:0400450020AE105188
:040046003018D1A3FA
:040047001178F84AEA
:04004800143915B69C
:040049000BF4016B48
:04004A001C1D2C52FB
:04004B003364D2D276
:04004C0011E6DE03D8
:04004D001D9CBA59E3
:04004E003963AD7CE9
:04004F00240D045A1E
:0400500022732EBF2A
:0400510004CAF5A93F
:0400520030EBE98D19
:0400530007C6BDED32
:0400540011142460FF
:040055003ED1044153
:040056003D0C2B60D2
:04005700329E3A9704
:04005800005F8DDBDD
:040059001325A15377
:04005A003732EFC08A
:04005B0019FBC54286
:04005C0036589D3F36
:04005D001373E01623
:04005E000639F96FF7
:04005F002CEC974CA2
:04006000000000019B
:040061000403C513BC
:040062001890A580CD
:0400630008E4631535
:040064002AE0370F48
:040065001D0B082146
:040066000D376DEDF8
:0400670011D593DA42
:0400680010A150F79C
:0400690011C858273B
:04006A002F84FBEAFA
:04006B0035314AB928
:04006C003AC2BC29AF
:04006D002F965B85EA
:04006E0017EB8E57A7
:04006F0033A2A7A56C
:040070000921AF763D
:040071001E929DA29C
:0400720028C1CCF6DF
:040073001F878A68F1
:04007400263E1B8C7D
:040075001521E394DA
:040076003815799927
:04007700287D581573
:04007800178D174C7D
:040079001315626693
:04007A000AD8F7AAFF
:04007B002382F38F5A
:04007C001673DB1EFE
:04007D000176786828
:04007E0028EF10D285
:04007F00353AFC19F9
:04008000000000017B
:04008100325FCC77A7
:040082000570D579B7
:0400830010C82086FB
:0400840015BA32D5A2
:040085001C3F91CDBE
:04008600360888644C
:0400870031BE7CE228
:04008800346C2F5D48
:0400890009487B1790
:04008A003482EB3998
:04008B0023BEED6340
:04008C00359DCB399A
:04008D003222B31D4B
:04008E000EB938A1CE
:04008F0016B48ACC4D
:040090001827F752E4
:040091003E8EFC4D56
:0400920000B8ABE720
:040093002D2936DD00
:0400940014707D5710
:040095000775A054F7
:040096002DB468A07D
:040097000569A158FE
:0400980033E35CD51D
:0400990006F7B99D10
:04009A000404142026
:04009B00243833686A
:04009C001E6348F4A3
:04009D003EE0794F79
:04009E0005F42B2515
:04009F000BA4EBE2E1
:0400A000000000015B
:0400A1000D2F69A90D
:0400A200363F480697
:0400A30029EF1C3AEB
:0400A40026FB915452
:0400A5003558BE0705
:0400A60018F3B1D5C5
:0400A7000AAA38FE6B
:0400A80021661D466A
:0400A90030D6B40495
:0400AA00193C809FDE
:0400AB001B32578429
:0400AC001A5B0CCE01
:0400AD000459294881
:0400AE002751B20123
:0400AF0026FC3C6689
:0400B0003ED1EB173B
:0400B100298230E18F
:0400B20030B48126BF
:0400B3002069074673
:0400B4002D722C94E9
:0400B5000A7804CFF2
:0400B6003003E667C6
:0400B7003AF682FE95
:0400B800311FF8E21A
:0400B9000BFCAD9FF0
:0400BA00231345CBFC
:0400BB00029E23F886
:0400BC0034DA2421ED
:0400BD002EE945667D
:0400BE0013CCFE88D9
:0400BF0010946687AC
:00000001ff
