:020000040000FA
:0400000000000001FB
:0400010001B5B2A1F2
:0400020008666367C2
:04000300135AADA738
:040004000291A56759
:04000500336DC35A3A
:0400060003788DAA44
:04000700155324A6C3
:0400080023FF134E71
:040009001CF6E22CD3
:04000A00272146F86C
:04000B0020F3C5B960
:04000C001D3DAC7B6F
:04000D000B36840921
:04000E0030304450FA
:04000F000EA940AD49
:0400100011FCF0A946
:040011002ADAAF6CCC
:040012001821341964
:0400130022663BCA5C
:040014003162AD3573
:0400150037791E74A5
:040016000AF6C82EF0
:040017003C599518A3
:040018001E777D834F
:0400190029F402487C
:04001A00113F8DB055
:04001B00117074BA32
:04001C0031B961B7DE
:04001D003DDCACD941
:04001E000D201A3067
:04001F00136481E7FE
:0400200007F05D4147
:040021000213990F1E
:04002200329C3D27A8
:040023001C5663A163
:040024001FE8686603
:0400250000A289D1DB
:040026001DA0935F27
:0400270014579130A9
:04002800287A20C34F
:04002900024184A468
:04002A0023F4C04FAC
:04002B001788A9A5E4
:04002C000B32A65697
:04002D0028967BA4F2
:04002E00089558D405
:04002F0001CE8A6D07
:040030002C0D45D37B
:040031002CCE136559
:0400320010DFA289B0
:04003300348E0EAE4B
:0400340032307F5097
:0400350037FA6F2BFC
:0400360014A3456466
:04003700282A8EA83D
:040038001FDB056164
:0400390003C526D401
:04003A00277E97087E
:04003B00338BB671DC
:04003C0033409CB8F9
:04003D00337FD7FB3B
:04003E00303DFB1A3C
:04003F0007794A48AB
:040040000403C513DD
:040041003AD736E88C
:04004200050761FB52
:040043000DC126378E
:040044003DF28F9D5D
:040045002EDB67281F
:04004600082B9E865F
:040047003D57031D01
:040048003095451793
:040049001AC15CF884
:04004A002435B89C05
:04004B00106B97F5AA
:04004C002863A71C62
:04004D00200081040A
:04004E000C4939819F
:04004F0030B45D2349
:040050003342FC2417
:040051002F00E26436
:040052001D46D26F06
:040053001708CAD4EC
:0400540004AAACB896
:0400550009801637D1
:04005600004B1A2E13
:040057000B19684FCA
:040058002A934AE5B8
:0400590028DE0E018E
:04005A00346E1D449F
:04005B0031E2D5EFCA
:04005C00139E9398C4
:04005D00213BFB7BCD
:04005E000C1668FE16
:04005F000768865B4D
:04006000194F37B14C
:040061001C55F8BA78
:04006200256D92076F
:040063000CE0402746
:040064001EA4DC9367
:0400650024E2AF9D45
:0400660004FBEDF5B5
:04006700355B52258E
:040068000C7616C339
:0400690019B42F7126
:04006A0033C889DD31
:04006B001013045D0D
:04006C002A8B8CE768
:04006D00168F2B239C
:04006E003CAA7AC36B
:04006F003C81A11C13
:040070000E80BD59E8
:0400710010D70AC1D9
:040072003E7DC5B258
:04007300063E3B9E6C
:040074000E8BE89572
:040075000722A5C4F5
:040076000FA4E0FDF6
:0400770028A58BF538
:040078001E1984F2D7
:0400790031716B0472
:04007A00044F050D1D
:04007B00085C3B7B67
:04007C003CC7C0E8D5
:04007D000E6EACAAAD
:04007E0000AA5C6810
:04007F00061BCBE6AB
:040080001890A580AF
:040081000074240ED5
:040082001E2D409B54
:04008300122668FBDE
:0400840022B33E69FC
:040085003A68C94EBE
:0400860020D2609490
:0400870029993E9ADB
:040088003125F8DF47
:040089002FEF8ECCFB
:04008A0005B712F5AF
:04008B0005AE80D767
:04008C0029B9FB9EF5
:04008D002650BC91AC
:04008E0007C9C823B3
:04008F00083A01AE7C
:0400900014C2CB26A5
:040091001E7FB64ECA
:040092001FB9A6BC30
:040093001EBBCF467B
:040094001C9A287F0B
:0400950034B3BC6D57
:0400960027E98C3C8E
:040097000BE12BD876
:04009800240E17F02B
:040099001F5F078C52
:04009A003AFAC8B5B1
:04009B002238A663FE
:04009C002DA256A398
:04009D00125F436F3C
:04009E0006CFBDBB11
:04009F0018A3F2426E
:0400A0002FF1C7C3B2
:0400A100197194D568
:0400A200009CA53CDD
:0400A300226F60ACBC
:0400A4002105C3B5BA
:0400A500259B22C3B2
:0400A600311DC14FF8
:0400A7001EA6B66A71
:0400A8003B6120F3A5
:0400A90034D8792F9F
:0400AA001E4826982E
:0400AB0020873BEA85
:0400AC002119069878
:0400AD0029A2837D84
:0400AE000E78E121C6
:0400AF002800D23C17
:0400B0002DF78FE4B5
:0400B1000F262642AE
:0400B20006F4883C8C
:0400B300384AFF5E6A
:0400B40002DE3AD757
:0400B5000AF389DBE6
:0400B6003876C3775E
:0400B70008EFC0018D
:0400B80032A542A289
:0400B90029FF1D35C9
:0400BA0027BAF976F2
:0400BB003D02756B22
:0400BC0029E2B089FC
:0400BD002CDDCF1750
:0400BE000CB803FF78
:0400BF002E8A4F68CE
:0400C00008E46315D8
:0400C1000C340948AA
:0400C2002AF8FABC62
:0400C300043B5E9903
:0400C4000CF46D4586
:0400C500205F8C0A22
:0400C6003CE8BEE56F
:0400C7000BE46D31A8
:0400C8002A6CFC4260
:0400C9000D074E10C1
:0400CA003C9E8E5773
:0400CB002FF92C29B4
:0400CC000E7E718AA9
:0400CD0033D67F8D1A
:0400CE0034C686E9C5
:0400CF0034FE9975ED
:0400D0001250154E67
:0400D100134E329DFB
:0400D20018F5A6F780
:0400D3003DDF0F05F9
:0400D400113A5F4638
:0400D500018AB41ECA
:0400D6003ECD68357E
:0400D70032195BD8A7
:0400D800288451B770
:0400D9000E15AF2D24
:0400DA00092B720F6D
:0400DB00258C5A070F
:0400DC00237931F45F
:0400DD003E993838D8
:0400DE0011DFAEE49C
:0400DF003601241FA3
:0400E0000B26771460
:0400E10015E333EC04
:0400E20008496FD882
:0400E3002E81DC305E
:0400E4002DF337AB16
:0400E5001FAE26A57F
:0400E600097792D62E
:0400E70008B6436BA9
:0400E8003ECD2C5687
:0400E9000A67A839C1
:0400EA002F8505FD5C
:0400EB00011B0020D5
:0400EC000999A2C804
:0400ED002021A19598
:0400EE0030E3A02C2F
:0400EF0026021DEADE
:0400F0002E5306364F
:0400F10035FE175D64
:0400F2000268A24BB3
:0400F300256C7423E1
:0400F4002F13F3894A
:0400F500181ED005FC
:0400F6000D9D73D910
:0400F7003874FEE774
:0400F800356B0DBF98
:0400F9001E2BB922DF
:0400FA0006C91E868F
:0400FB00312C26027C
:0400FC0024711CD47B
:0400FD0019A8F1E26B
:0400FE001D1EB326EA
:0400FF002128731F22
:040100002AE0370FAB
:0401010020A7B12161
:040102002C711A51F1
:0401030011979BF0C5
:0401040014C5863761
:0401050009681AFE6D
:04010600174820373F
:0401070033A57D425D
:040108002A3844C984
:0401090037B837D0FC
:04010A000CC1FBF237
:04010B000FAAEFDC6C
:04010C003586CA0C5E
:04010D00042EEE8D41
:04010E00036BF44645
:04010F001E797C6F6A
:0401100004795ED040
:0401110032A81E6989
:040112003C769F7820
:04011300340CF9CDE2
:0401140001EC6E0F7D
:04011500387542B740
:040116002EBC51B7F3
:0401170036CC68C4B6
:04011800375AD65923
:0401190032CE7BED7A
:04011A003B542C82A4
:04011B0017FB864404
:04011C00070FD508EC
:04011D00227B65B02C
:04011E00368D5F9526
:04011F001A24187115
:0401200021F7081AA1
:040121003173D15A0B
:0401220006F51C7052
:040123000D48580A21
:0401240035A5E3F921
:0401250021672E2DF3
:040126001D17E2556A
:040127002BBCFD1CD4
:040128001BB448FCC0
:04012900297854AE2F
:04012A001CEDA87DA3
:04012B000869921BB2
:04012C0029DA1EB6F8
:04012D0014729F06A3
:04012E000A51E41579
:04012F0014EA3AD0C4
:040130000D4E11CA95
:040131002D170DE198
:040132003D6F66AE09
:04013300205B0B90B2
:04013400070F3D7EF6
:040135000120280479
:0401360000A21D4BBB
:04013700117B2A0C02
:04013800060423C4D2
:040139003C7EE8BE62
:04013A0015F781290B
:04013B002AFEDFEFCA
:04013C0011F8D0A640
:04013D000699943D4E
:04013E000B2FB6EBE2
:04013F002A8C97C6A9
:040140001D0B08216A
:0401410033CBF3D8F1
:04014200071419760F
:040143002298CD2C05
:0401440008D0DFF20E
:0401450001B1C20D35
:04014600282349BE63
:0401470030B02CCDDB
:04014800285AE73416
:040149001BFABCFFE2
:04014A002B90764C34
:04014B0016C41606BA
:04014C0004279947A4
:04014D001E36DA4838
:04014E00304715FA27
:04014F000D9AB1CC88
:0401500027A0FDEBFC
:040151000C9251CEED
:040152003CF732E95B
:040153003667C72222
:04015400310B47BD67
:0401550015A73E2884
:04015600099F38D4F1
:040157003A1B3042DD
:04015800256EE40527
:040159000E2D63B54F
:04015A0035A3E6A241
:04015B00088D6A4E53
:04015C00012693598C
:04015D0027C38B1514
:04015E003B6B5CC9D2
:04015F002FC69F8E7A
:04016000078C9DD299
:040161000084BC60FA
:040162002BFD9CB223
:040163003D89309F03
:04016400075CEAAB9F
:04016500011C3EC873
:0401660026E4D1C7F3
:040167003338A49FE6
:040168000B86A5B6A7
:0401690017748E7EFB
:04016A000A5600B978
:04016B001C502957A4
:04016C000A68773274
:04016D0002574CF5F4
:04016E00035675AB14
:04016F003B4EAC88CF
:0401700022AC5C5011
:0401710034D6657BA0
:040172001D3AA8D8B2
:040173002026F980C9
:04017400354E2BC811
:04017500158FA7C873
:0401760012B38A989E
:04017700178FB60B1D
:0401780027962D7029
:040179003824F9B578
:04017A001B333225DC
:04017B000F7BFBC536
:04017C001AD39052B0
:04017D00050E198EC4
:04017E0018D9A0EC00
:04017F000F115F1CE1
:040180000D376DEDDD
:040181001C71F3708A
:040182001E4E07C93D
:040183003536C4D178
:040184001979CB4BCF
:0401850026EEB84C5E
:04018600021FD35E23
:04018700002281BE13
:04018800107EC45EC3
:0401890012A211B8F5
:04018A0020EB6AC13B
:04018B0032A240A8B4
:04018C0022CD1FE978
:04018D001D9DE6B41A
:04018E0035C126420F
:04018F000238E265EB
:04019000390A24C53F
:0401910038A62C79E7
:040192000B0AE45818
:0401930000D9F3900C
:0401940010E260E233
:0401950014FE938F32
:0401960035152253A6
:040197002BBBE81C7A
:04019800359C1B84F3
:04019900201E06AC72
:04019A001AF04AB954
:04019B0039372A6C5A
:04019C0027C89F339E
:04019D000CBFBC4F88
:04019E001FE6A3FFB6
:04019F00345173570D
:0401A000270EF559D8
:0401A10017DF6234CE
:0401A2001D72CACC34
:0401A3000A9E7556E5
:0401A400243DB1E065
:0401A50001866C3C27
:0401A6003CD32CDD3D
:0401A7001D649C44F3
:0401A8000151047E7F
:0401A90001524601B8
:0401AA00167A86A794
:0401AB0011E3606C90
:0401AC00273440F3C1
:0401AD000F95FE8626
:0401AE0017A7C8B215
:0401AF0013465EF2A3
:0401B00010DFD8E3A1
:0401B100039ACFCD11
:0401B2003DDB2444C9
:0401B3001360A52709
:0401B400266B236231
:0401B50018700BDBD8
:0401B600141EAC2542
:0401B70018CCFAC3A3
:0401B80020FBB5591A
:0401B90008DC68E115
:0401BA00390BBE1827
:0401BB00134C448B12
:0401BC001050771355
:0401BD00245D91C26A
:0401BE00020C7F8F21
:0401BF000B74650E4A
:0401C00011D593DAE8
:0401C1000A73752721
:0401C20032C0118DA9
:0401C300164CEA727A
:0401C40036DD867C22
:0401C50018B7FFF573
:0401C60009F54FC91F
:0401C700298EA34298
:0401C8000F39605635
:0401C900372F710556
:0401CA000C2E88145B
:0401CB0013FCB75614
:0401CC00362802E0EF
:0401CD001FA0B1F8C6
:0401CE00150245AC25
:0401CF00297136D884
:0401D00029CB4A6D80
:0401D1002DD3C24F19
:0401D200307C3AB390
:0401D300317AFA552E
:0401D4001CD9367884
:0401D5002787F13D4A
:0401D60027C10AB182
:0401D700254F274D3C
:0401D80039AAA0D8C8
:0401D90034940DA4A9
:0401DA00120EBA4CFB
:0401DB0021CC5927B3
:0401DC00138CFD8DF6
:0401DD002C3872F157
:0401DE000A6B22CEB8
:0401DF0008C59F7C34
:0401E0001D8C7A24D4
:0401E1002B0038F2C5
:0401E20009AED82862
:0401E3001CB05F5F8E
:0401E4002A6F64B763
:0401E500009948E352
:0401E6002321821639
:0401E7002E23A3CC54
:0401E8002CA0C8700F
:0401E90010475FA3B9
:0401EA0019423396ED
:0401EB003E2CF8535B
:0401EC002BF4372990
:0401ED00151C54D9B0
:0401EE00032256CDC5
:0401EF002408519CF3
:0401F00006AD0CE765
:0401F1001D6C4656E5
:0401F2002ABF487B5D
:0401F300320DA338EE
:0401F40037EC46A8F6
:0401F500045617870E
:0401F60037657CFFEE
:0401F70000E46C3480
:0401F80013D9FF28F0
:0401F90030FF238D23
:0401FA0005397075DE
:0401FB00272FB89C56
:0401FC002A4EE15A4C
:0401FD001775E3A7E8
:0401FE000E7C083C2F
:0401FF0007BE1A46D7
:0402000010A150F702
:040201000642EF853D
:040202003BB48A235C
:040203001BD8BBEE5B
:040204003611E53C8E
:0402050010CC9FBAC0
:040206002AACE0CA74
:04020700044EDAFACD
:0402080015CF90ADD1
:0402090020D37FE19E
:04020A003A88703886
:04020B000608317B35
:04020C000D73AA9F25
:04020D00010C40346C
:04020E00105D3E0041
:04020F00130C1DE5CA
:0402100012F87B174E
:040211003004642E23
:0402120002DCD89D95
:040213000B6C7902F5
:040214001FE3FF6F76
:040215003043E72B60
:0402160007D769C3DA
:040217002E8B88732F
:04021800224DE07E15
:04021900250F13E7B3
:04021A00399D3F9635
:04021B0009225C3D1B
:04021C002A65DC2E45
:04021D0032DE6B1250
:04021E0038BDDDE525
:04021F000F69EC6413
:040220000F9FEFFE3F
:04022100319FCFF941
:040222001CF09A49E9
:04022300295166EA0D
:040224002A30E71F76
:040225003A104F2814
:04022600274F8A6074
:040227001BD138317E
:040228003B7FD5AA99
:040229003EC38899AF
:04022A0029BB8771F4
:04022B00047F578174
:04022C0029E56E2C26
:04022D00109F558742
:04022E003B47FBE16E
:04022F00222453D75B
:040230000E9BA2027D
:040231000FFC9FE53A
:040232002355894285
:040233000D5F546A9D
:040234000356BC644D
:040235000586C6F480
:040236001B6C524D9E
:0402370035A7776709
:0402380039C357640B
:04023900016B87B618
:04023A003A9F03BB29
:04023B00240E6FC45A
:04023C002A99A97DD5
:04023D00278B0F46B6
:04023E00000A1AA8F0
:04023F0001CB4D584A
:0402400011C8582762
:0402410034B9CFAB52
:04024200102897F3F6
:040243000DA51417DA
:040244000A55ACD3D8
:0402450026D77BF944
:0402460033CECEDD08
:0402470008583DBC5A
:0402480034AF798FC7
:040249001FD140453C
:04024A001514FC3556
:04024B0002C7C2C85C
:04024C002E6536C81D
:04024D00008FA89ADC
:04024E00056C3529DD
:04024F0006A9348642
:040250001744DA175E
:040251001DE439EA85
:0402520027DD1DD7B0
:0402530021B0DAD527
:040254000220474DF0
:040255002FDE95E71C
:04025600343AC70C63
:040257002BC411F5AE
:040258002B4A162EE9
:04025900307AB0E364
:04025A001458B93942
:04025B002B9F8860ED
:04025C003C99F3BB1B
:04025D00035D98168F
:04025E00273C862D86
:04025F00263FA27321
:040260002A5BF648D7
:0402610039532E4D92
:0402620013F5BEC012
:0402630011AB910C3E
:04026400266599F280
:040265002D64E2F32F
:040266002566CD61DB
:0402670002FB56DA66
:040268000F94732D4F
:040269000E784E7845
:04026A00039617EFF1
:04026B002A73467B31
:04026C001AE67224F8
:04026D002AAD9F3BDC
:04026E0013A82CDEC7
:04026F000D0DC9B5F3
:04027000065FDDFE4A
:0402710007E4DCE7DB
:0402720036F39C7F44
:0402730022025427E8
:040274003E9260EA6C
:0402750012FA3A71CE
:0402760031F6439F7B
:040277000DB8681541
:040278001079951153
:0402790036E8EC6017
:04027A001A294D08E8
:04027B00305AF4D829
:04027C002D21AD245F
:04027D003116DBE675
:04027E0015DE9D5E8E
:04027F002826247891
:040280002F84FBEAE2
:04028100396E7474EA
:040282002E143D7C7D
:040283003AFA3B4ABE
:040284001BF453F024
:040285003809227999
:040286001A6BDF26EA
:040287001E9FE6755B
:0402880005D12D452A
:040289003D9BF7831F
:04028A0013EE056505
:04028B001017EE91C9
:04028C001086DD6794
:04028D0008A2DA07E2
:04028E003E7AE3874A
:04028F00150B2CA47B
:0402900022A8AADD19
:0402910028A4EFDBD3
:040292000C7F48D6BF
:040293003B6EA367B4
:04029400215DCE20FA
:040295003DECB16625
:040296000823916642
:0402970000EABA03BC
:040298001ED1B0794A
:0402990005B4A750B1
:04029A0006B724EA95
:04029B0005E22FFB4E
:04029C00229EC19944
:04029D0013F4390F0E
:04029E001F2C755349
:04029F002E7190C666
:0402A0002B2A876519
:0402A1000699FE14A8
:0402A2002BCCC2425D
:0402A30009DD442409
:0402A4002F263DD1F3
:0402A5001C631806B8
:0402A6001166BD829E
:0402A7002DC87B1BC8
:0402A80012A0997A8D
:0402A90014A9B9FDDE
:0402AA002E7117F5A5
:0402AB003BAE3D3DEC
:0402AC0025DC9F208E
:0402AD0029CCDA1866
:0402AE003B0CF7FD11
:0402AF002D8DF4207D
:0402B0002C31C6E740
:0402B100105C2AF2C1
:0402B2000FD56D9166
:0402B300297F8B31E3
:0402B4003CF6D4AF91
:0402B5000A203337B1
:0402B6001536FCFC01
:0402B7003672B15199
:0402B8003BBFF158FF
:0402B90027642EE99F
:0402BA001DEC64B41F
:0402BB00014E420BA3
:0402BC003DB118E355
:0402BD00056A2FBAE5
:0402BE001867A9C84C
:0402BF000D7D028827
:0402C00035314AB9D1
:0402C1002039785018
:0402C2001D8E0BE39F
:0402C3001656A52501
:0402C40009BD235AF3
:0402C50004800A594E
:0402C6000CDA132714
:0402C7002714BA8DB1
:0402C8003B5867C177
:0402C9001DF5797135
:0402CA001A0A77B7DE
:0402CB002EC0517779
:0402CC003B6BA4B034
:0402CD00072773E0AC
:0402CE001525D729F2
:0402CF003BA6A8F2B0
:0402D0001EA96AB346
:0402D1001A60320A73
:0402D2003684E11A73
:0402D300280C42327F
:0402D4003445B603F4
:0402D50008AACD3670
:0402D6001B3A4AC3C2
:0402D7002DA021C273
:0402D80019E49F493D
:0402D9003759BFA52D
:0402DA001724144C85
:0402DB0023B4934E67
:0402DC000BF2689A1F
:0402DD000515B9FE4C
:0402DE00015132494F
:0402DF002B19376E32
:0402E0003B166E3724
:0402E10020A760C230
:0402E2001A6B82C150
:0402E3002170937380
:0402E40011DCFDF933
:0402E50033418D0E06
:0402E60010EAC388CF
:0402E7001B5DCF9B31
:0402E8000183E66E3A
:0402E9003B21DBDDFD
:0402EA00212872A1B4
:0402EB0010244BD4BC
:0402EC002B88C48017
:0402ED003AD9A24612
:0402EE000866334328
:0402EF0013496052FD
:0402F0000C5C6159E8
:0402F10028FE16AE1F
:0402F2002CC9FD26F0
:0402F30028D0F35BC1
:0402F4001F6B4A0E24
:0402F5000C12AB2616
:0402F6002A520B8DF0
:0402F7001875CDB4F5
:0402F80021934F8E71
:0402F9002B121F3E67
:0402FA001C53096523
:0402FB000E1B07FED1
:0402FC001D707A4BAC
:0402FD00033D32503B
:0402FE00386DBA1A83
:0402FF0038EF7167FC
:040300003AC2BC2918
:04030100355AF06019
:0403020034CAA287D0
:0403030034B9B73D15
:040304001012BF6FA5
:040305000086B9189D
:0403060030956E962A
:040307000BDAC2B695
:04030800100A822A2B
:04030900013970093D
:04030A0020363283E4
:04030B0017E9B2BC80
:04030C00194BB88D44
:04030D0015A6136BB3
:04030E001264F61669
:04030F00248C0F1C0F
:040310000B60A5A633
:040311002CD46CDE9E
:040312002666DD730B
:0403130039F3004971
:0403140027B1AE144B
:0403150013E429764E
:040316002C25B3DE01
:04031700168F444FAA
:040318000836E6BFFE
:040319002241C27348
:04031A000571DD4E3E
:04031B001CBC866E12
:04031C0039910E9570
:04031D002BDA2D7337
:04031E003D3A62956D
:04031F003D5286C500
:040320002A8000F639
:040321002275E6EC6F
:040322001D2E848E7A
:04032300222B07740E
:04032400352A931DC6
:0403250005BDB5F26B
:0403260000D5BDC57C
:04032700079683832F
:040328001D3DFDD2A8
:040329000CF7278A1C
:04032A0027E19874BB
:04032B00252202671E
:04032C002F25BA5867
:04032D00232B4A80B4
:04032E001C9E1E6291
:04032F0011481AA0B7
:04033000297FBC2A3B
:040331002FD1C1F314
:040332001C5E2BDC46
:0403330002CD255979
:04033400391FE0800D
:040335003241ABD7CF
:040336001C7DD68FC5
:040337003C4E19908F
:0403380036A28CE37A
:040339000CA73F21AD
:04033A00212C987B5F
:04033B001DA591115A
:04033C0022B8BF67BD
:04033D0033F75EBF75
:04033E00207CC49BC0
:04033F002F1258BE63
:040340002F965B8514
:0403410039C7E209CD
:0403420027FA53E162
:040343002DCFFFD9E2
:040344000C50FCA6B7
:0403450039D69B64A6
:040346003470C5A6A4
:040347001BD2CD12E6
:040348001A4BDE2945
:04034900068D3C0DD4
:04034A0003B536A21F
:04034B001672327F75
:04034C0001F8DD399E
:04034D0038FA099AD7
:04034E002532A08232
:04034F000E467BAF2C
:040350000219203C32
:040351002E1463FC07
:04035200358F70BEB5
:040353002B8F4C4C54
:040354002830B42079
:040355003C9FDB14DA
:040356000DFECFFACF
:040357003D453C26BE
:04035800200AE17521
:0403590035252A5DBF
:04035A0037FF7AD718
:04035B003361117485
:04035C00293D185CC3
:04035D003C475121A7
:04035E001758804765
:04035F0022D4955EB1
:040360000042EB610B
:0403610036E4A85482
:0403620004E8472B39
:0403630024B581DB61
:0403640010707D5741
:040365002B13EBACBF
:040366001EC70A0F95
:04036700206894C3B3
:040368002F009E6064
:0403690009F345C48B
:04036A0001E5EA4D72
:04036B0012F3AF0AD0
:04036C0000142762F0
:04036D0007BE5C6308
:04036E0014FC0D6806
:04036F001904B75C5A
:0403700036AF2FB6BF
:040371002C2B03E648
:040372002264045F9E
:040373000ED67C56D0
:04037400354EBD2E17
:0403750008EA00FA98
:040376000DAA69372C
:04037700323E50D8EA
:0403780036AD658AAF
:04037900179452AED5
:04037A001C14E5DB8F
:04037B0032FC6A9E48
:04037C0015E01C303C
:04037D00264EE02206
:04037E002D160548EB
:04037F002BA7A3A65F
:0403800017EB8E5792
:0403810002EB8E1AE3
:040382001D7C20447A
:04038300008A64DAAE
:0403840016B33E0C62
:04038500370C664487
:040386001F12868D2F
:0403870034236EB6F7
:0403880023145A538D
:04038900093B67B411
:04038A00319121BDCF
:04038B0028F9B4B6E3
:04038C0009AC0EADFD
:04038D001E9F366910
:04038E0001142282B2
:04038F000F44963150
:0403900027D347BD6B
:04039100239364EE60
:040392002080652141
:040393000A015FC636
:04039400169D476EFD
:040395000C5109BC42
:040396003DC421DF62
:040397000DC989C043
:040398001025306597
:040399000F204F7A68
:04039A000E158D1699
:04039B0039F30486A8
:04039C0007D3C2536E
:04039D000D917470DA
:04039E002363AF5BCB
:04039F002A5149AEE8
:0403A0001181D7BA36
:0403A1001A4A2BB910
:0403A2003B1A2F6D66
:0403A30018E355976F
:0403A40022B5A11DC0
:0403A5002B71F3E8DD
:0403A6001931617137
:0403A70018008A1B95
:0403A80006419A5917
:0403A900326D6ABD8A
:0403AA001737A0CA97
:0403AB0034AF0283E6
:0403AC00052C0CF51B
:0403AD0014B78247B8
:0403AE00195B22961F
:0403AF00015699D08A
:0403B00017C60BB9A8
:0403B100151791C3C8
:0403B2002A487B1B3F
:0403B30008FCF490BE
:0403B4001BDB62AC41
:0403B50005CACC4663
:0403B60011CED58708
:0403B700011F3BE106
:0403B80031264BB4EB
:0403B9000AEEBE800A
:0403BA003D44BA996B
:0403BB003E58614EF9
:0403BC002DD794EFB6
:0403BD00341AD6B95F
:0403BE00114C1603C5
:0403BF0017468FB797
:0403C00033A2A7A518
:0403C100111DD6C56F
:0403C2001AF4EF8CAE
:0403C3002C2668CEAE
:0403C4001D5DEA547D
:0403C500045C6B2544
:0403C6001DEFC3560E
:0403C7003957527BD5
:0403C80038785EDD46
:0403C9003DC95BF9D6
:0403CA00328103BBBE
:0403CB002740EC28B3
:0403CC00053B2CB20F
:0403CD003E3878E658
:0403CE0019A2F991E6
:0403CF000D525FC0AC
:0403D00002D103A2B1
:0403D10006B2537DA0
:0403D2003A5BD1F6CB
:0403D3003679FC7704
:0403D40004286D7C10
:0403D5000BC423D85A
:0403D6002FA0D9F685
:0403D70014E6B01365
:0403D800191F7F93D7
:0403D90039459DEE17
:0403DA0030B943658E
:0403DB003B8B8D8E3D
:0403DC00286A6571B5
:0403DD002CC01F8C85
:0403DE001EAFC62860
:0403DF0023E1E462D0
:0403E00031FF12D502
:0403E100315607BECC
:0403E2000055A89D7D
:0403E3003722E0A934
:0403E4000BB01DA697
:0403E5002470BBDCE9
:0403E6002719888DBE
:0403E70010F9D451E4
:0403E8000275B72DB6
:0403E90032C55F3D7D
:0403EA000EA7013A1F
:0403EB00356422FB58
:0403EC00048DFC0080
:0403ED002C87CA2669
:0403EE00345CAD06C8
:0403EF0001009C4A23
:0403F0002786C4D7C1
:0403F1000DC33AB549
:0403F2001EFB00618D
:0403F3002DC418BD40
:0403F4003CB57EDFB7
:0403F5002240620F31
:0403F60036B8BFFF57
:0403F70034704142DB
:0403F8000A3405C7F7
:0403F9000D5FFF9BFA
:0403FA001565738E84
:0403FB0033DD83CF9C
:0403FC002857E79700
:0403FD0030CFE620F7
:0403FE0014A64DA450
:0403FF0019B329CE37
:040400000921AF76A9
:04040100160FD9B940
:040402003590091414
:040403003050E23E55
:040404002E8B2C62AD
:0404050036F12A4E54
:040406003ED1825C05
:0404070025A7CFD383
:04040800213760290F
:0404090021B1D67BCC
:04040A000CEBEFDC2C
:04040B000B90E61557
:04040C00358FD0E771
:04040D003597457862
:04040E000BCD32C719
:04040F002F9A2D3CB7
:04041000286AE98CE1
:040411000074F6EF8E
:040412003B654C6199
:0404130036D8285956
:0404140003009B4CFA
:04041500330B9E38CF
:040416000E9C3A41BD
:040417002C512961DA
:04041800252F134633
:0404190002D509AA55
:04041A0037F9928696
:04041B003904CD9F34
:04041C000BAA16BC55
:04041D002EEBD8A347
:04041E0004731074DF
:04041F0032350A6FF9
:0404200033885C0CB5
:040421001A3FA08856
:040422003265DCFB68
:040423002E02CA5982
:040424000121F5B409
:040425003270CC6FF6
:0404260023EFBE34CE
:040427001CB0B384CE
:040428000DD307B237
:04042900301B678A93
:04042A00355F4D5598
:04042B0020D6543F44
:04042C00296947A54E
:04042D003BD79C918C
:04042E002302DB0DBD
:04042F0030702A718E
:040430000D5930C56D
:04043100123EC2585D
:04043200126072756D
:040433003196744545
:040434000EE107349A
:040435002DE6256F1C
:040436002D6051DF05
:040437000D4DC7940C
:0404380012B8D7EF30
:040439003470B2DD8C
:04043A002D4C3B2CDE
:04043B000BB696CC9A
:04043C0015D52BB6F1
:04043D0028B71B8839
:04043E00122F8C31BC
:04043F002957AFC9C1
:040440001E929DA2C9
:040441001B11070480
:040442002C91D7CA58
:04044300121B033451
:0404440013F12D92F1
:040445000C0466E657
:04044600186F029495
:0404470013557FB416
:04044800016FED9FB4
:0404490039B9FEA916
:04044A001E83F526F2
:04044B0027ED3F0951
:04044C0031900F09D3
:04044D0002F1D0F9EF
:04044E00216A10F11E
:04044F00184AB38410
:0404500032D9A34FAB
:040451003E0FC7860D
:040452003C45C75E00
:04045300107051587C
:040454002101F37F10
:040455001557BF5622
:0404560033E69BF4FA
:040457002E6C9193E3
:040458003E69B5182C
:040459001FD9426500
:04045A002F1C5A9B5E
:04045B001015EBDEAF
:04045C002407C2D2DD
:04045D001D44CFBFAC
:04045E002FAAC822D7
:04045F00327FCCA577
:0404600034C003C7DA
:040461002574AA64F0
:0404620039AE0B455F
:0404630031CCAE6C7E
:04046400183A3E60A4
:0404650018FD6231EB
:0404660001D7ECB11D
:04046700252D194ADC
:040468003EE5A7F0D6
:040469000A45CDB4BF
:04046A000A3A09EC55
:04046B0030A52B038A
:04046C000CEE9FC231
:04046D00085B5F08C1
:04046E0038DA2C93B9
:04046F001C899ED670
:0404700027F71A3917
:04047100097003A269
:040472001BE14052F8
:04047300303074DBD6
:0404740002236CC62D
:0404750037B6331B48
:0404760022063A29F7
:040477003AB7510B34
:040478001C9A05F7CE
:04047900221375D500
:04047A0004791420CD
:04047B000464C7C08E
:04047C00210C8CA122
:04047D001F0567F8F8
:04047E0007A8F44C8B
:04047F001DCD2DE87A
:0404800028C1CCF6CD
:0404810020B753F657
:04048200271D2F778C
:04048300098A681169
:0404840007F3E07822
:040485001EE24435FA
:040486001903D53150
:0404870000B612D0D9
:0404880019EF81CD1A
:040489002B6BB0EA3F
:04048A001F28CF4612
:04048B00365831FDB1
:04048C00071C2DE735
:04048D001AAD02039F
:04048E002315B82D4D
:04048F002BAEF84C4C
:04049000260F03BA76
:0404910018E3D44553
:0404920005B445194F
:0404930028D424FF46
:0404940012C973F81E
:0404950038DFA2F1B9
:040496001A0A45F108
:0404970017E3594BC3
:04049800117212AB20
:04049900148E3D0779
:04049A0039ED34887C
:04049B001E4980086E
:04049C0015E851F618
:04049D001B4E248648
:04049E002BF22142DA
:04049F0000F0FF1555
:0404A00035DD792AA3
:0404A100293F91342A
:0404A20031DB6FC516
:0404A3000C8A52ABC2
:0404A40016089F8B0C
:0404A500336CA8719B
:0404A6001559A6D26C
:0404A70008535BAFEC
:0404A8003DC1675D8E
:0404A9001BC7ECFB86
:0404AA001EB63D60DD
:0404AB00393BA19C9C
:0404AC003554D5509E
:0404AD003220A7F45E
:0404AE001C22748B0D
:0404AF00281928F6EA
:0404B00007BAC57F43
:0404B1003C1DB8FF37
:0404B20007CB5057CD
:0404B30018D2C7B9DB
:0404B400049E7FB172
:0404B50017983B8BCE
:0404B6001016E7A392
:0404B70024EE0CDF44
:0404B80001C52962EF
:0404B90013FED92C29
:0404BA000E2A079F60
:0404BB002B17C82D06
:0404BC0012614E512A
:0404BD002EEFABA7CC
:0404BE00353F735CF7
:0404BF002856FA4C75
:0404C0001F878A68A0
:0404C1002BA6F3284B
:0404C2000CF6F7E558
:0404C300055BE8FAF3
:0404C4002C720E6127
:0404C50029A8335ED1
:0404C6001959C80FE9
:0404C700261FD655C1
:0404C8000D3898AFA4
:0404C9001C38B353D5
:0404CA001EF719F10F
:0404CB00323E6771E5
:0404CC0007AAFD2559
:0404CD003BB892396D
:0404CE0020FB01B658
:0404CF0005511E4075
:0404D0001BA7868060
:0404D10034EE257D63
:0404D200023128D4F7
:0404D3001A08D455DA
:0404D4001578783BE4
:0404D5003D543A4414
:0404D6000D0125FEF1
:0404D700195301DCD8
:0404D8002956E96652
:0404D9003BE408C434
:0404DA003AB106AE7F
:0404DB001013C340F7
:0404DC0001366A7902
:0404DD001BEBA7FA74
:0404DE0027262D1B85
:0404DF003321B5A56B
:0404E0000DD92613F9
:0404E10037B0C9F770
:0404E200271A382C71
:0404E300180BD08A98
:0404E4000DC8C5B2C8
:0404E5003BD02CECF0
:0404E6001DA61E072A
:0404E7001DA46E489A
:0404E800023F24E5C6
:0404E9001856CBB521
:0404EA00252F97F62D
:0404EB001898D8BFC6
:0404EC000F68F39D05
:0404ED000388239AC3
:0404EE0020F2E421F3
:0404EF0025E82205D5
:0404F00020B416021C
:0404F10008F5A792D1
:0404F2001F398DBC65
:0404F3001F3D91AE6A
:0404F400301634EF9B
:0404F5001AF5D80517
:0404F6001B3DB8955D
:0404F70013101EF7C9
:0404F80023678F8C5B
:0404F90008923F86A0
:0404FA00246379F00E
:0404FB003E5D5763A8
:0404FC003D85CF9ECD
:0404FD002DAD4E8E45
:0404FE00025547E676
:0404FF003B6BE74B21
:04050000263E1B8CEC
:040501001D068BA1A7
:040502002838C6903F
:04050300382D1B581C
:04050400082E771234
:04050500319A775B55
:0405060020F8281F92
:0405070000D65C1EA0
:0405080001ECF72EDD
:04050900060C097B58
:04050A002A7467E008
:04050B0010C9A4CBA4
:04050C002425F73873
:04050D002BAFDDB57E
:04050E00019146868B
:04050F00215B9DE1EE
:0405100015919B01A5
:04051100122C15DFB4
:040512003A7B5A4F87
:040513002E34C302BD
:0405140026227E40DD
:04051500274A86FFEC
:0405160029ADC9132F
:040517001C5FA207BC
:0405180032A752397B
:0405190003D4DAD459
:04051A0000BC5DC103
:04051B0027E909942F
:04051C003D8233BE2B
:04051D0029B49FCB93
:04051E0016666C28C9
:04051F0034ABF47392
:04052000365B2A28F4
:040521003D19124925
:040522000F7B16CB6A
:040523000181C15140
:040524003067698D46
:0405250012C1964B1E
:04052600086225E062
:0405270015413B42FD
:040528002EFE400F54
:040529003A04B34F8E
:04052A0007E8F5AF3A
:04052B00087825C463
:04052C00228D188F75
:04052D0012FC70AAA2
:04052E00019CF01329
:04052F001855F866FD
:040530000896CB0559
:040531000762632ECC
:0405320038B0F91ACA
:040533002ACE3C731D
:0405340036DB1A2276
:040535001EC758384D
:040536001A2F3C6CD0
:04053700390FE16F28
:0405380002B3DF76B5
:040539000F98C69BB6
:04053A00269D248C4A
:04053B0009AC9F4C1C
:04053C00371FB47A37
:04053D0016B5BC2B08
:04053E001B44346ABC
:04053F002EE2ECCEEE
:040540001521E3940A
:04054100228DF9BC52
:04054200101251D86A
:0405430018CDD21CE1
:04054400056A0077CD
:040545001FA45BEEA6
:040546001A511BE348
:0405470039763D8F35
:040548001691474978
:040549002F348BFAC6
:04054A002BEF5E43F2
:04054B000AA421EEEF
:04054C0037E0C5FCD3
:04054D002ACEE36768
:04054E0029E1BD0CD6
:04054F00148ACA1828
:040550002FDCD6398D
:0405510020764AC9FD
:040552001331E4BCC1
:040553002FD7FF6D32
:040554003D437E2A7B
:040555003E6D3A19A4
:040556001A0B818873
:040557001FE3C8AE28
:040558002EE84747FB
:040559000B8EC66CD3
:04055A00278374651A
:04055B00038476138C
:04055C002717FDD28E
:04055D001A56997120
:04055E0037FEC9A8F3
:04055F003449F9B66C
:04056000038CB91C33
:040561002E0F2EFD2E
:04056200320CF29BCA
:0405630036DD0EB8BB
:040564003CDE68F31E
:04056500247663ECA9
:0405660019453340C0
:0405670000ABE15EA6
:0405680032456C0AA2
:0405690012301288B2
:04056A001F8DA6D962
:04056B0014E03DB2A9
:04056C002E834B6F20
:04056D001456F24EE0
:04056E00009914F2EA
:04056F0006D446EE7A
:040570003B9291C564
:04057100092D193403
:040572000B1126CB78
:0405730008D28854CE
:040574000E04C0268B
:040575002289B67FA2
:04057600223EBC2540
:0405770035B0BF4D8F
:0405780014713A744C
:04057900363629F5F4
:04057A0033247DB1F8
:04057B000D6B3A4486
:04057C0021638BB3B9
:04057D001CF5F8E68B
:04057E001407EC4929
:04057F001385F7B633
:040580003815799918
:040581000922946651
:040582001E48AE70F1
:040583003402D71156
:040584003190245C32
:040585001B89EF9847
:0405860023CDBB7D49
:04058700098FAD1912
:040588003049B5D56C
:04058900210C6E448F
:04058A000CA6A64EC7
:04058B000364C9EF4D
:04058C002A928F958B
:04058D000B44A5C8AE
:04058E003B6AE918C3
:04058F002B25CE62E8
:040590003452AE0F24
:040591002B2CCA83C2
:0405920004330034FA
:040593002C740FFDB8
:040594003051A084BE
:0405950033457D3C31
:040596003E60B10F03
:0405970015D0B5794D
:040598000259743759
:04059900093EFB31EB
:04059A001ECCB47748
:04059B00260EE8BE82
:04059C0026CBA48541
:04059D002213F950DC
:04059E00011C46E80E
:04059F0009FA2DAE7A
:0405A000255C486925
:0405A1000D4990165A
:0405A200147673094F
:0405A30036D13555C3
:0405A4000E7D2E2476
:0405A500168C393146
:0405A60019B0220F57
:0405A7003776176E1E
:0405A8003B1B467A39
:0405A9001006D72E33
:0405AA003325C91418
:0405AB0010D970856E
:0405AC000435FD46CF
:0405AD002ABDA78339
:0405AE000C21029585
:0405AF001C6ED28F5D
:0405B0001462FE0DC6
:0405B1000BCFF23E3C
:0405B20001D841F338
:0405B300378E997B6B
:0405B400335A701B2B
:0405B5000966EB8662
:0405B600252FDDFF11
:0405B7002F4A248122
:0405B800275492E250
:0405B900396BD2EDDB
:0405BA0031A3DBE4AA
:0405BB000D1662EBCC
:0405BC00381F891F3C
:0405BD002C333DAAF4
:0405BE00099A6765CA
:0405BF002C436CFA63
:0405C000287D581525
:0405C10016923CD57D
:0405C2001D184A595D
:0405C30020AD2CCC6F
:0405C40022D7A0B4E6
:0405C5000FA2C34876
:0405C60000E611D961
:0405C7001CB4DA770F
:0405C80004955FA097
:0405C900098A7E5AC3
:0405CA000CDBA5C6DB
:0405CB001803739A04
:0405CC003609ACF54B
:0405CD00011F1646AE
:0405CE0005CFE03E37
:0405CF001FF6B12939
:0405D0002B707F0EFF
:0405D10032575A7AC9
:0405D2000EC06A30BD
:0405D30024B580DEED
:0405D4001828F441AE
:0405D500386FAF03C9
:0405D600283D6C52FE
:0405D7000B741E0281
:0405D80037808F3D9C
:0405D9000C6344D09B
:0405DA000FFEB295C9
:0405DB0020239B85B9
:0405DC001F34A25BCB
:0405DD002DCF39E9FC
:0405DE00318FA6189B
:0405DF00311542434D
:0405E000303CB2FEFB
:0405E10036C3819804
:0405E200242119A116
:0405E3003772A59A2C
:0405E4001DB7601EC1
:0405E500053F84A6A4
:0405E60035835320E6
:0405E700099D243D09
:0405E8002E544DC57B
:0405E90011387D64E4
:0405EA002BDE8E1660
:0405EB00108160A17A
:0405EC00258FDBB1CB
:0405ED000E7DD9772F
:0405EE0023D6A9BCAB
:0405EF002B22129316
:0405F000228ABCDBC4
:0405F1000FCFACDF9D
:0405F2001D3BBF47A7
:0405F30004BE3BBD4A
:0405F4000084FA4144
:0405F5001305F7846F
:0405F600201E10E2D1
:0405F7001E744268C4
:0405F800003E26C8D3
:0405F9003D59C3495C
:0405FA003CB2A59FCB
:0405FB0034B954A219
:0405FC000501F8A25B
:0405FD00360328E7B2
:0405FE00165E7AD03B
:0405FF000CA43360B5
:04060000178D174CEF
:0406010002869B8C46
:040602000FAB976F34
:040603003CCF5EF199
:0406040008AC1D51D0
:040605001465689B75
:0406060024F1A0BC7F
:040607001557B87A51
:0406080005CB53C704
:040609000E56BBF9D5
:04060A00299291B0F0
:04060B00317EB4295F
:04060C003C5C62DF11
:04060D00165032272A
:04060E000E4A627DB1
:04060F00208A68A431
:040610000823657ADC
:04061100175503C9AD
:04061200372FC66355
:040613000F8991E0DA
:0406140036F25EC29A
:040615001D1E1EED9B
:0406160004B89D4D3A
:040617000CFE9CEB4E
:04061800273AA88E47
:040619003AF7C0707C
:04061A0028238E18EB
:04061B001A5BBB8B20
:04061C001D1B2C492D
:04061D002ACC10AD26
:04061E001651F5B7C5
:04061F00234C73C72E
:04062000292C8B46B0
:0406210039A5BD78C2
:0406220030207048CC
:040623003BC3C5CB45
:0406240017C9A695B7
:0406250014D0D5090F
:0406260027AC62603B
:040627000F848A1C96
:0406280023B4577F21
:040629003E81DF0C23
:04062A0014B0A4B2B2
:04062B002E695DA82F
:04062C0015BBBE96A6
:04062D003AD9EB5873
:04062E0026B4A999AC
:04062F001C88B2CEA3
:0406300008D91F9B2B
:0406310028FE13F09C
:04063200279C27BB1F
:0406330038805F4765
:040634001ED31AF4C3
:0406350020BD1AD1F9
:040636002B085CFF32
:0406370028EB55AFA8
:040638002168D1481C
:040639003AC730ECA0
:04063A000B84D60057
:04063B001F786DA314
:04063C002B984A6D40
:04063D002BE83A4D1F
:04063E002F3DA9E9BA
:04063F00050A202068
:0406400013156266C6
:04064100056F01BA86
:0406420022919A3D2A
:04064300215ADBBCA1
:0406440014BACD0314
:0406450033DFC3EAF2
:040646002895EEE91C
:0406470033A3D50DF7
:040648002BEFACFCEC
:040649003DED44241B
:04064A00118FF2E733
:04064B0037092ADD64
:04064C00301DA34476
:04064D0017EE21C4BF
:04064E003614FDBBA6
:04064F0005B0400EA4
:040650002EBA6F0D42
:0406510006C4B4F82F
:040652001B532668A8
:04065300043B518B88
:0406540016B47BD28B
:040655000C6DE3261F
:0406560026B9C8C732
:040657002B9D271898
:040658000608C602C8
:040659003173ED7D8F
:04065A00392423B06C
:04065B0009DB2F5D2B
:04065C001033DD2555
:04065D002D440E1CFE
:04065E003D9158A2D0
:04065F000B22F1CCAD
:0406600020186A24D0
:040661003818703E97
:04066200194D578C4B
:040663000DD35482DD
:04066400121A5443CF
:040665003AC69AC334
:040666000F9EE84CAF
:0406670031683C3288
:040668000B0ACEE2C9
:040669002A3668F0D5
:04066A0022FD1F4608
:04066B003235DC3018
:04066C001CA172B9A2
:04066D0021E58C2CCB
:04066E002AA5DE5784
:04066F0035938B6FC5
:040670000F780B0DE7
:040671003BE9580603
:040672002E7B9E3D00
:0406730039C47748C7
:0406740018EF16471E
:0406750019EDDE0499
:040676001EBAF8EAC6
:0406770030736677FF
:0406780010900609CF
:040679003D2DCC2E19
:04067A003991A99673
:04067B00154D56DDE6
:04067C0012180E48FA
:04067D0002FF21B99E
:04067E0015D8FD0886
:04067F00275CA989C2
:040680000AD8F7AAF3
:040681003200798D3D
:04068200025587B5E1
:040683003D64F4BE20
:04068400071ACC4F36
:040685003488FB08B2
:04068600326FDB3EB6
:040687000A9302F1DF
:040688002207D6036C
:040689003A4DDDF316
:04068A003B60D1AD53
:04068B000C13F45008
:04068C0010603A04BC
:04068D003AE34FA558
:04068E002A0906AB84
:04068F00141C93B2F2
:04069000160AB3058E
:040691001035ADB8BB
:0406920025B763EE37
:040693003CA4DEBCE9
:040694003AA0C9BE01
:040695003BCF015006
:040696002289411064
:0406970015D8B68735
:040698000031A25239
:040699003034C02E0B
:04069A0000D9641708
:04069B0036C307B0AB
:04069C000FE9220937
:04069D000776F18962
:04069E00252837498B
:04069F001D95F54967
:0406A0002C23233DA7
:0406A10000836EE77D
:0406A2000820CAA9B9
:0406A3000807667866
:0406A40024AD025926
:0406A50014F823B86A
:0406A60035A47AE716
:0406A70039819FAC4A
:0406A8000608D64F1B
:0406A9000DD8B77839
:0406AA000CD2777D7A
:0406AB000D63D59472
:0406AC002B9D0C7600
:0406AD00300562DAD8
:0406AE00102493DDA4
:0406AF003D0B523479
:0406B0002B8E0F4638
:0406B10021B12FF84C
:0406B2001E67260099
:0406B3001B85549DB2
:0406B4001176DDAE30
:0406B50035FCDE90A2
:0406B600141A67DFCC
:0406B7001E2D7C6E0A
:0406B8002553BD0EFB
:0406B90034B1E15126
:0406BA001BD5548A6E
:0406BB0001906F0734
:0406BC003ADACEDE7A
:0406BD0038FAE6B071
:0406BE000552F1559B
:0406BF00307ED403B2
:0406C0002382F38F0F
:0406C10015327CCEA4
:0406C20004BE37B487
:0406C3003A652EB5B1
:0406C40015DADD6FF7
:0406C50028EB5B4182
:0406C600127BD5F3DB
:0406C7001782E3EBC8
:0406C8003D1C20882D
:0406C9002EA7C5276C
:0406CA00296E7133F1
:0406CB00187356F258
:0406CC000D87CCB119
:0406CD000AC3A56C4B
:0406CE003CED38EED9
:0406CF000DE24FB336
:0406D0002752F7D4E2
:0406D1001D3B9E4BE4
:0406D2002232462763
:0406D30014BE4545C7
:0406D4000232314677
:0406D500280860D7BA
:0406D60010CCD0C8AC
:0406D70002897542DD
:0406D8000A40FB0FCA
:0406D9002071F7B7DE
:0406DA001A8D4082B3
:0406DB003BC53108E2
:0406DC00051F78126C
:0406DD00335D611216
:0406DE0037852066D6
:0406DF00097DF1D1CF
:0406E00032DB58F1C0
:0406E10018539A828E
:0406E2003653471A2A
:0406E3003069C15D5C
:0406E40011455FCD90
:0406E5002ACC9A760B
:0406E6000AF95B6151
:0406E7000C588C3FE0
:0406E80016A917FF39
:0406E90022DEB4B6A3
:0406EA0029038B490C
:0406EB0019F8F2AA5E
:0406EC000A44143474
:0406ED00358F6C6D6C
:0406EE00293B4379E8
:0406EF00044FA51CF3
:0406F0003BB04E913C
:0406F10005C1DE90D1
:0406F2001DC70833E5
:0406F300217D66E817
:0406F4000D47FB4D66
:0406F5001FCD29A14B
:0406F6003D08D38563
:0406F7000DD3C693C6
:0406F800035ADFDAE8
:0406F90029EF035E84
:0406FA002382AB4A62
:0406FB001AE611608A
:0406FC00133A7E9897
:0406FD0004057EEE84
:0406FE002D4C53A08C
:0406FF00160E9F161E
:040700001673DB1E73
:0407010037B16BAEF3
:040702003C9625DE1E
:04070300084A90927E
:040704003A84BD5125
:0407050031B129F2F3
:0407060010DBD92308
:040707003DE193E25B
:040708002F2886BC54
:04070900310949EB7E
:04070A002618A6F215
:04070B0011C2276C84
:04070C0000CE4F23A9
:04070D0004C37F5949
:04070E002F7CD2BCAE
:04070F002DA0CB50FE
:040710001371F8FB6E
:040711002985CB2249
:04071200288B71C2FD
:0407130017C14A833D
:040714000058A3E303
:0407150015B77EEFA7
:040716000B38E2E1D9
:040717002A3E09A9C4
:040718000A78A08A31
:040719003E740CD747
:04071A0028B1F78B80
:04071B0024F123DAC8
:04071C0013280DBDD4
:04071D002395BF87DA
:04071E003700B0F9F7
:04071F003A3CADDCD7
:0407200025210CD1B2
:04072100302901AFCB
:04072200195399F2DC
:040723003E77D71A2C
:040724001FD5A74EE8
:040725000968EC3B38
:040726001A491BE46D
:0407270013C627DBF3
:040728003A8CBC3219
:0407290026ADAFCF7B
:04072A001F87574F7F
:04072B0007446FD23E
:04072C0010BBC4A991
:04072D003E04BE6563
:04072E001C096468D6
:04072F0000CF5B5B41
:04073000230717473D
:040731002B464172A0
:04073200022B494FFE
:040733002D3DF08FD9
:04073400270FE38325
:040735002D0A58250C
:040736003794BBE455
:040737003E3FEB74E2
:040738002ECC8D0C2A
:04073900003D6244D9
:04073A001D10699C89
:04073B001B80A2C1BC
:04073C0030D42AFE8D
:04073D00178FDB8DAA
:04073E00282E272D0D
:04073F000DCF520088
:04074000017678685E
:040741001A29DB8B0B
:040742001E2AA75B69
:040743003B7999D194
:0407440032F42E81DC
:0407450019795D4180
:04074600374893009D
:040747003E3BBE0B6C
:040748003A881915BD
:040749002DD610D7C2
:04074A000A1E1E2D38
:04074B000182DC2F1C
:04074C000BB7A37ACA
:04074D00024119D676
:04074E0015525BA83D
:04074F00391415073D
:0407500037C7E4D2F1
:040751003A74C11F16
:0407520000D739BCD7
:040753000DE22D8600
:04075400327D30754D
:0407550003687BC0FA
:040756001AC99C50D0
:040757003ED085907B
:040758001B610266B9
:0407590034F8E7D8B1
:04075A0003155F30F4
:04075B00029CC81B19
:04075C00129F711067
:04075D00285DA3620E
:04075E0035E0FEE59F
:04075F0026F7994C94
:040760001891169541
:040761003A08D93148
:040762002317CFF496
:0407630003F53BE27D
:0407640038B4423E25
:0407650000BA2D3970
:04076600008A0348BA
:04076700186E5FE1C8
:040768000747BB8DF7
:0407690026F35455CA
:04076A0029CF16F489
:04076B00164026C648
:04076C0031BF38233E
:04076D00173B76259B
:04076E00385A5C1188
:04076F0039E6928451
:04077000149301AC31
:040771000916791ECE
:040772000C65CA67E1
:040773003172A3003C
:0407740006AA6A0E59
:04077500152C0C35FE
:040776003300324CCE
:040777000F09925084
:04077800385DFFE900
:040779001B76B40730
:04077A001C09F9223B
:04077B003D1C344BA2
:04077C001054C8400D
:04077D001174CB0424
:04077E00048AFC12DB
:04077F0034AB6E58D1
:0407800028EF10D27C
:0407810008B4BE54A6
:04078200191D857246
:0407830036136AEFD0
:0407840006B720B5DF
:04078500336DB0C45C
:040786002D3E91D69D
:0407870039BFAAC804
:040788001FF79B2C90
:04078900084ABA94CC
:04078A0010008B6E62
:04078B003CA4D12495
:04078C0015208D8423
:04078D000CD7C2F8CB
:04078E002E1AAF1759
:04078F000D8C46ED9A
:04079000250E1E0014
:040791002DEF01FE49
:040792000AC7382337
:04079300121EA32768
:040794002E08A22C5D
:040795000A383EBE22
:040796001B3A739007
:0407970028E153936F
:0407980014184B5195
:040799003684D9D2F7
:04079A003CE19E1D83
:04079B003877F104B6
:04079C00241E677C34
:04079D001305F51734
:04079E0027A1C06669
:04079F0022A721E08C
:0407A00039C6E96D00
:0407A100268188879E
:0407A2000CF1C64848
:0407A30023D5AF6249
:0407A40021E412C773
:0407A5001D33561496
:0407A600186FD732BF
:0407A700369D0D4B23
:0407A800023476CCD5
:0407A9001591364E22
:0407AA0022274E09AB
:0407AB000C7BAABC5D
:0407AC0018603A395E
:0407AD002DBD9F5867
:0407AE001E80196729
:0407AF0006A058C385
:0407B0001D444C197F
:0407B10028689450D0
:0407B2003D1BB470C7
:0407B30021E31CFF23
:0407B400079FB9FAE8
:0407B50022E2BC8DF3
:0407B6000154DB739C
:0407B7000E1BB55E02
:0407B8003BC63EF509
:0407B9001BC4FCC998
:0407BA0006EC7E606B
:0407BB0029760BF29E
:0407BC0019BD4226FB
:0407BD00051FE88E9E
:0407BE00240C53FFB5
:0407BF002136474454
:0407C000353AFC19B1
:0407C1003934823D08
:0407C200173F3E217E
:0407C30039143F3D69
:0407C4002745FBA228
:0407C500030499355B
:0407C600052733F9D7
:0407C7002387F58708
:0407C800131906ED0E
:0407C900169C3F48F3
:0407CA00027685042A
:0407CB000CF34BDB05
:0407CC0021EFDC3EFF
:0407CD00197075E545
:0407CE0010E35819C3
:0407CF002911446E3A
:0407D0002B64BD7069
:0407D1001D970BEB7A
:0407D2002906FB8C6D
:0407D3003DA20AE059
:0407D400312DB29B76
:0407D5001AA9E04538
:0407D60018B3797A61
:0407D70020D855ECE5
:0407D8000E3D917BC6
:0407D90027DDEB929B
:0407DA000AE53DD817
:0407DB0025CE4311D3
:0407DC002C15EA9658
:0407DD0037880BE26C
:0407DE002EF62E7C49
:0407DF000008A80165
:0407E0002E0F1E6555
:0407E1001452D37665
:0407E20023459BC749
:0407E300346EE2E6A8
:0407E4000513BF71C9
:0407E5000229A361E1
:0407E600255F25590D
:0407E700245D4F1A24
:0407E8000BA1C5B7E5
:0407E900142CA45DCB
:0407EA002540A4C53D
:0407EB000E705E48E6
:0407EC001D5AE0FDB5
:0407ED002CFE22902C
:0407EE002450C425AA
:0407EF00307D5EEB10
:0407F000118DA99B23
:0407F100393C49FA4C
:0407F2001E4E0FDAAE
:0407F3003D8CA94A46
:0407F4000B699C0EE3
:0407F50001F975E7AA
:0407F600177F06E182
:0407F7001BF7442088
:0407F8000D817C36BD
:0407F9001964AE02CF
:0407FA0013821E51F7
:0407FB002DAEA1DDA1
:0407FC000DBC915C43
:0407FD0013DFCBC378
:0407FE0035BD6EADEA
:0407FF000A57ED8E1A
:00000001ff
