:020000040000FA
:0400000023FE329415
:0400010022F1D928E7
:040002000D38AA6E9D
:040003002DEC682157
:040004001384F60368
:040005002A7931F132
:040006002DA0D3EA6C
:040007002511348209
:040008003D25B4F5E9
:04000900097BF53941
:04000A00193D41CC8F
:04000B0019A8E24C02
:04000C003BADB093C5
:04000D003BB2FB986F
:04000E00228DE5DE7C
:04000F0022A6E8CF6E
:04001000191B54C2A2
:040011000B7FE97206
:040012003D2ED9E2C4
:040013001247001A76
:0400140031C264DDB4
:04001500221D2F4B2E
:040016003E9DD4D760
:040017000B08D15AA7
:040018001DD2682B62
:040019003AB0446352
:04001A00062AE49F2F
:04001B002E4D48AF6F
:04001C0018F1DF06F2
:04001D000AA048FCF1
:04001E0029EEE1F3F3
:04001F00332EABD5FC
:040020002B9A0A49C4
:0400210011C5F94AC2
:0400220006B38E4A49
:040023003E7E0238E3
:040024000530505102
:040025002B9B4107C9
:04002600254981BB2C
:04002700341A45D072
:04002800357727CB36
:0400290039D019E8C9
:04002A00293C254602
:04002B00343156C94D
:04002C0030EC0CE5C3
:04002D001BC83CCFE1
:04002E002B330574F7
:04002F00057A7E814F
:040030002B2F635EB1
:040031000DCA6F1B6A
:04003200343CD62A5A
:040033003CEB4090D2
:040034003107FC6B29
:040035002D3665CB34
:040036000E595335D7
:04003700362DEEF084
:0400380038812F3D9F
:040039002CC1CEAE5A
:04003A003AB6DAFDFB
:04003B0027C3C8FB14
:04003C003E93A08FC0
:04003D0038DE2DD1AB
:04003E00010D9D20F3
:04003F0002CF6B4C35
:040040000E7BDAD683
:040041002D36B2AAFC
:0400420021667BF0C8
:040043002659D59FC6
:040044002B6904D34D
:0400450010F36D2027
:0400460007C3615B30
:040047003E9A1326A4
:0400480016AD8084ED
:040049001FDA4B1A55
:04004A002A157DBC3A
:04004B003C2776E8F0
:04004C0000AE8A5028
:04004D0031D6EFB603
:04004E0006FC06188E
:04004F00359649B6E3
:040050002D28B75A46
:040051001200546BDA
:040052002D3E5BCE16
:04005300125D1AA17F
:04005400151590E806
:040055001DE7C3FFE1
:040056002FFE04BBBA
:0400570028661CB348
:0400580006D68FD960
:040059001FBF11F8BC
:04005A0035DBF36738
:04005B0003CEBE36DC
:04005C0029DA02AEED
:04005D002D0C0D4613
:04005E001A59F18BAF
:04005F0004368F21B3
:040060003D5DCAF345
:04006100161FB1C5F0
:0400620031671CFDE9
:040063001814966770
:04006400347C2BA11C
:0400650030169E2F84
:0400660014C221D2CD
:040067001FB3EFFDD7
:040068001D33372BE2
:0400690036D5D6288A
:04006A00313B68DDE1
:04006B000A00BF5672
:04006C003BAEF2892C
:04006D002581AEB08B
:04006E002D25766066
:04006F0014A2FCD605
:040070002695A978B0
:04007100252F95732F
:040072003E2F7ABFE4
:040073002E04D9611D
:0400740031D9A108D5
:04007500300E53BA3C
:040076002E4247537C
:040077003DB0CEC703
:0400780006E66844EC
:0400790002DF035F40
:04007A0034F66638BA
:04007B001370456A4F
:04007C003D5E21E5DF
:04007D003C237C594B
:04007E001EEDAEA223
:04007F00303E4E6B56
:040080002F8421D6D2
:040081002DA6AA4BB3
:0400820016F38D588C
:040083003376FCFDD7
:0400840018C52696DF
:0400850009234F03F9
:040086001ACE6C9290
:0400870020A0C9D913
:040088000CF3BA2695
:040089003B57125A75
:04008A0022E398A530
:04008B00380953B32A
:04008C001670DCE727
:04008D0017EE3BB47B
:04008E0028616D0E6A
:04008F000A55CBAE95
:0400900013133A0408
:04009100121D633C9D
:04009200260C2F42C7
:040093000562C5AF8E
:040094002DE5EFDE89
:040095002B086FCCF9
:040096001C0C23D04B
:040097002106BA4E36
:040098000799C3D72A
:0400990031AB6459CA
:04009A0006CFB6EFE8
:04009B003DCC10AF99
:04009C000BA3C02BC7
:04009D0036BED7DABA
:04009E001A175C636E
:04009F00161926A860
:0400A000256E45780C
:0400A100340BF24DDD
:0400A2003C83F81093
:0400A30023023603FB
:0400A4002D2B7B2263
:0400A5001EFFB6AED6
:0400A60004C8FC840A
:0400A700084FC858DE
:0400A8003AEBBE4829
:0400A90013173DE606
:0400AA00056B7683E9
:0400AB0018A00F97F3
:0400AC0028F1CD0367
:0400AD00243D329A22
:0400AE0031C12297A3
:0400AF0037B7E54337
:0400B0002EDE8208B6
:0400B1001449ED976A
:0400B2001EE8C84636
:0400B3000B922EFC82
:0400B40007D3CCB3EF
:0400B5003AFF99B0C5
:0400B60026A93286BF
:0400B7001B636A4716
:0400B8001559D1E124
:0400B900009D37BEB1
:0400BA0039F566C5E9
:0400BB003000891F69
:0400BC003BB8654C9C
:0400BD000457D450C0
:0400BE000ADB71A048
:0400BF001B8E0D99EE
:0400C0001880B450A0
:0400C100087376FE4C
:0400C20027DF80684C
:0400C300253C126165
:0400C40030DD6F6953
:0400C500153C9C4BFF
:0400C6003C7ADE9D05
:0400C7002FD1925053
:0400C8002D109E2732
:0400C9001BC429EB40
:0400CA001BA4E1672B
:0400CB001E77914BC0
:0400CC00311FD6D03A
:0400CD002ADFD1A3B2
:0400CE003804DDAD68
:0400CF0008C0EFB7BF
:0400D00036CF2321E3
:0400D10018F382DBC3
:0400D2002F03C3CF66
:0400D300063026EEDF
:0400D40004C283934C
:0400D5001E8BB9D7EE
:0400D600196DD65971
:0400D700026A86DE55
:0400D80015C4A25257
:0400D90013EF59BE0A
:0400DA002DA1F892CA
:0400DB0016895D71B4
:0400DC0014377F5600
:0400DD00079FE43065
:0400DE0031244C1568
:0400DF00372472B0A0
:0400E000300ABB1A0D
:0400E100098E518EA5
:0400E2000EC9D59ED0
:0400E30035ABD7ACB6
:0400E400032ECDD644
:0400E50036B4825952
:0400E60009632A4F31
:0400E7000E99AB0CB7
:0400E800191CC7A771
:0400E90012980F76E4
:0400EA0022D4DD033C
:0400EB003790917E3B
:0400EC0005B11686BE
:0400ED001BE0932A57
:0400EE0016E7926A15
:0400EF003A324E4F04
:0400F0003A2320AAE5
:0400F1001F86A2CFF5
:0400F2003DD85ABDDE
:0400F3001C33B837CB
:0400F4000764D77353
:0400F5003537E54373
:0400F6002B7595359C
:0400F700283F95A663
:0400F80024E5637A1E
:0400F900377B542DD0
:0400FA000AFF87561C
:0400FB000E0942E6C2
:0400FC002E9D0C49E0
:0400FD000DC4A83056
:0400FE0020A1E8F560
:0400FF0032CDEBF221
:0401000024D863E6B6
:040101000B58A054A3
:04010200280EA775A7
:04010300110D1E7E3E
:040104000C6E44F049
:0401050010F2B177CC
:040106001F76718669
:0401070031167E7EB1
:0401080000296F3427
:0401090033674DDF2C
:04010A0005BD81743A
:04010B002B7F91D5E0
:04010C000F4C373924
:04010D003A749B3570
:04010E001DE2749FDB
:04010F00021D42C3C8
:040110002B0D85B27C
:040111001C8EB49BF1
:0401120000FC856503
:040113003ADD05FFCD
:0401140018EBAC9C9C
:0401150027F86B2E2E
:040116002D0545343A
:040117001948B7C903
:0401180013FADE4BAD
:04011900048A6E40A6
:04011A001329DFECDA
:04011B0000816746B2
:04011C00242915324B
:04011D001F98A7F987
:04011E000CF5D87094
:04011F000C1DF7E7D5
:0401200014B87BE4B0
:040121001F5FA03D7F
:040122002FDDC27299
:040123000CD52DEFDB
:0401240027AB677F1F
:040125003DEC345623
:040126002C5E234ADE
:040127001B03004D69
:0401280032A92217BF
:040129001962ECCF9C
:04012A00152D27D494
:04012B001A35028EF1
:04012C00308148E6F0
:04012D001FE355E592
:04012E0001AF7A772C
:04012F00265C219891
:04013000135B3B8C96
:0401310025DF44ACD6
:040132002325EE068D
:040133002BBF47B9DE
:040134003A53E27DDB
:040135001EADF27297
:04013600382F41C459
:040137001287E5D76F
:040138002480368267
:0401390033DE7F4DE5
:04013A0015F8006C48
:04013B00148CA3423B
:04013C000B6627E740
:04013D001A1111661C
:04013E00052F4B81BD
:04013F0037412C9F79
:0401400006B6A82A2D
:040141003113D3C0E3
:04014200224C0ACF72
:0401430019E57D7BC2
:0401440033BB986FC2
:0401450028222C9EA2
:040146003EBF3A443A
:0401470015378D01DA
:0401480009964625A9
:0401490010206E46CE
:04014A002C3CD26017
:04014B00377097CFA3
:04014C0033F6E24F55
:04014D00197D8C7715
:04014E00229F61008B
:04014F00280FF96F0D
:0401500019018922E6
:04015100143ABB5849
:040152003A75DBDE41
:04015300053E5370A2
:040154000AE1441860
:04015500061425D493
:040156001110B05C78
:040157002469BAAFAE
:04015800170B40E061
:0401590026CBB5DF1D
:04015A000A5D1A29F7
:04015B0015DAEBDDE9
:04015C0010EFBA5492
:04015D002F718A94E0
:04015E0008018953B8
:04015F002FA97A3119
:040160000B39FCDD7E
:0401610027721EDB08
:040162002579A8A1B2
:040163000AECE8506A
:040164001898FB23C9
:0401650015BEB65DB0
:040166003841CAADA5
:040167001D2B14E454
:040168001E520A71A8
:040169003AD9AAA233
:04016A0028B5EC3F89
:04016B001225A2991E
:04016C00367D1B7A47
:04016D000C44F53B0E
:04016E0018D4F0357C
:04016F000F3BD587E6
:04017000116588DCB1
:0401710017DD31A4C1
:040172003B56716126
:040173002E0002DF79
:040174002B0429E748
:040175002A21E4E275
:0401760005D5533A1E
:0401770018EE99B035
:04017800050E37D366
:040179000A79CC52E1
:04017A001CB7EE5C64
:04017B000E9A5B4C31
:04017C002AC25062E1
:04017D00244620EC08
:04017E001295870847
:04017F0007E8358CCC
:040180001EB14A7EE4
:040181002226E04E04
:0401820014FB6D35C8
:040183003D51CA0F11
:0401840011A283F54C
:0401850007FDCFFBA8
:040186000C31C9452A
:040187001564BFA696
:0401880034A4321A4F
:0401890030B4B34794
:04018A00379CE95E57
:04018B003044E1C853
:04018C000C318A1A8E
:04018D001C22F187B8
:04018E001B86F9E4EF
:04018F0006B5260784
:040190000D4AABC2A7
:0401910034A4691316
:040192001A894B106B
:040193001034D3A5AC
:0401940009633400C7
:0401950020D7D3FF9D
:0401960018011E32FC
:040197001F2C0037E2
:0401980030CF98AC20
:040199000BDC161E47
:04019A003E209FA3C1
:04019B00311EF3FF1F
:04019C0037B101571F
:04019D003832FBF900
:04019E00379F97BA36
:04019F0014F15947B7
:0401A0002A66F05289
:0401A1002B88E57949
:0401A2003133855E12
:0401A30028D766F6FD
:0401A400059448DD99
:0401A5002012AE2C4A
:0401A6000B572701CB
:0401A70014DC1FE75E
:0401A8003720B0D577
:0401A9003B605B0656
:0401AA00302534E2E6
:0401AB000E88151B8A
:0401AC002010027BA2
:0401AD002BB05823F8
:0401AE0016E29AEDCE
:0401AF00341AFD9E63
:0401B0001682316F13
:0401B1001380B7C739
:0401B200082746DDF7
:0401B3000F3AD46DBE
:0401B4002407B4D692
:0401B5001EF35B6575
:0401B600129CE2288D
:0401B700227D22B4CF
:0401B8003D6AF11299
:0401B9000D29BDDD72
:0401BA00102A3300D4
:0401BB0027B6BD03A3
:0401BC0039F10C0BFE
:0401BD0016DF9C525B
:0401BE003606FF44BE
:0401BF000F467EE386
:0401C0000379911E10
:0401C10014CFF0F374
:0401C2001AC19AD6EE
:0401C3000BF694871C
:0401C4000CFDFEF23E
:0401C5002C985EEF25
:0401C6000649E6DD23
:0401C70024D8C2BBBB
:0401C8000161EC30B5
:0401C9002DAC93F6D0
:0401CA002D250ACC09
:0401CB00069B849D6E
:0401CC0026A7618978
:0401CD001FA5BCFEB0
:0401CE0022A1E07B0F
:0401CF0032241E6D4B
:0401D0000842470D8D
:0401D10015E92E2ED0
:0401D2002857B8BA38
:0401D3002DBA117DB3
:0401D4000C3E0019C4
:0401D50001C3B1446D
:0401D600297EE5C4D5
:0401D700350EC2839C
:0401D8000A52063091
:0401D90017905D67B7
:0401DA0027E6A497D9
:0401DB00173876D784
:0401DC001946A58992
:0401DD001B0A6F9BEF
:0401DE003467620818
:0401DF0013EC632397
:0401E0003E9D1238F6
:0401E10015A17F6382
:0401E20032AE51DF09
:0401E3000BCB12FF31
:0401E4001F539CA861
:0401E500264FA0AF52
:0401E600192F245158
:0401E70008C4A3A7FE
:0401E8001146A0D448
:0401E90013D56B7946
:0401EA0033F90D2AAE
:0401EB0001EC079785
:0401EC0003F363278F
:0401ED002EA61448DE
:0401EE001EEDDE081C
:0401EF000BD0FBDB5B
:0401F00033FF738FD7
:0401F100079997F5DE
:0401F2001DE3D8F43D
:0401F3002C9EEF1837
:0401F4001BC2C40660
:0401F5002D0542632F
:0401F60013FB8776FA
:0401F70008DB3A5C8B
:0401F80021E157A604
:0401F9003DB19A5327
:0401FA000D1AF16287
:0401FB002ECDC761DD
:0401FC000040A50218
:0401FD00355E10D784
:0401FE001DB04C4C98
:0401FF0013328FAB7D
:0402000028051C6150
:040201000471380B41
:0402020039DB3AAFFB
:0402030000CE1C65A8
:040204003BD8EC6394
:0402050023C6D3BC7D
:0402060034EFE9499F
:0402070022286EAF8C
:0402080010FCEE2CCC
:04020900017D5AB663
:04020A0008C059F5DA
:04020B001834D61FAE
:04020C000C6562D14A
:04020D000841F13E75
:04020E0030DC28A414
:04020F002260B6A60D
:040210003CDED3827B
:040211001D68FB6009
:0402120011C3648A26
:040213001368E81E66
:040214001EB29BB9C2
:0402150028B3C295B3
:040216002BF546EC92
:0402170006A6FE1722
:04021800278A525F80
:040219000E6C59F31B
:04021A003261E6D88F
:04021B0001EE0714D5
:04021C001865CBEFA7
:04021D002E9628CA27
:04021E0017E64FC8C8
:04021F00375BCF0773
:0402200019561196C4
:040221002D79ABACDC
:040222000F0008B40D
:0402230024D7788ED6
:04022400081C9953C6
:040225001548A9616E
:040226001919CEC212
:040227001F44177EDB
:04022800236DA2E8B8
:040229002CDF4BF982
:04022A00082DDE9B22
:04022B0032F95FB590
:04022C00376A6B8240
:04022D001DFDED378F
:04022E002EF8C8B925
:04022F0036BE2CC1EA
:040230001224AC3DAB
:040231001E84CBED6F
:040232000FF3361080
:04023300358785D9AD
:040234001D31CDD4D7
:0402350002E6F70DD9
:04023600349667454E
:040237003DBDA3D254
:0402380021CAFBA339
:040239001DED615501
:04023A0034261DD277
:04023B002BD2733619
:04023C003CE04EC193
:04023D003439A3327B
:04023E001B1916C0B2
:04023F000E4F1C66DC
:04024000206E66B115
:040241002CF0A731C5
:040242001056F8BE9C
:04024300036C112512
:04024400311C9E903B
:040245003DEFB0FCDD
:040246001C6890613F
:040247001C986D1C76
:040248002447807E49
:040249003420977452
:04024A001413B006D3
:04024B001C02C1537D
:04024C0021FF88BF47
:04024D00237F1B965A
:04024E002DAA3BBDDD
:04024F002E23B75350
:0402500022E51FB1D3
:04025100263D9F4B5C
:040252001259052F09
:0402530000B85AF1A4
:0402540004E56F2D21
:04025500154AFC59F1
:040256000E3758986F
:040257000E77B9BDA8
:0402580002EA609EB8
:0402590000B573BDBC
:04025A0032DEB828B0
:04025B001B1BED4735
:04025C003E97FD06C6
:04025D001671C23420
:04025E000FCA3BF494
:04025F002211243F05
:0402600027027D8F65
:0402610015F5D99521
:0402620033AD3BAECF
:040263001DC94CE97C
:040264000545172213
:0402650003B63CBAE6
:040266002BC93676F4
:04026700073CB0C7D9
:0402680036D06FF32A
:04026900173333070D
:04026A000129B44171
:04026B001FF7EDB8D4
:04026C003DCE8CF304
:04026D000FAAB464BC
:04026E002BDC6081A4
:04026F000710A2F5DD
:040270003C5E9E0F43
:040271000381873E40
:04027200190A4F1600
:0402730026B8B67182
:040274001BECEE3160
:040275000897704036
:04027600239E86DA63
:040277002D6E1C18B4
:040278002355A4D195
:040279002AD7C74C6D
:04027A000DBD3BC5B6
:04027B002452BB4D01
:04027C003CB2ABAB3A
:04027D0030CFB20EBE
:04027E003BA3BA04E0
:04027F00213EAC1759
:040280000EE8D0654F
:040281001E2A1C33E2
:040282002904ECDA85
:0402830010DC64AC7B
:040284001C57EF30E4
:04028500387C6E292A
:040286000F700616D9
:0402870025394519B7
:0402880011FC20A69F
:040289001E9F4F3F26
:04028A0026E1B8FBB6
:04028B00006E775436
:04028C00140BA02D82
:04028D00262FFB26F7
:04028E002961F3C926
:04028F0033B596D01D
:0402900023ACFDCFCF
:040291002A46EBE826
:0402920006C8D27058
:040293000738D5460D
:0402940011DE6BAD5F
:04029500272BFE58BD
:040296002BA2B39252
:040297002D203DC316
:04029800119ACCC724
:040299003B6CF46D59
:04029A001998C1D618
:04029B000FC4326CEE
:04029C000EB828D59B
:04029D00119EF8F8BE
:04029E003BC834C065
:04029F00156ABBB36E
:0402A0002E9D1E73FE
:0402A1002FF5AD6E1A
:0402A20029B906ACC4
:0402A3002CD3D67D05
:0402A4000ECEB5FFC6
:0402A50010430E896B
:0402A60012D0CFBFE4
:0402A70035E7850BA7
:0402A800322E064AA2
:0402A900070D1CB869
:0402AA003A46F913C4
:0402AB001C43CFD74A
:0402AC0022AC69D83F
:0402AD0026D0A8931C
:0402AE000772839FB1
:0402AF002D4B3BDEBA
:0402B000032CD86ED5
:0402B100353C7F3029
:0402B2003DE75F398C
:0402B3002828ADB892
:0402B40037DF8E2082
:0402B5003BC079CF02
:0402B60002F2273BEE
:0402B70029268DB9AE
:0402B8000D4B08677B
:0402B900268F945F99
:0402BA003AE3E777C5
:0402BB000AF911CF5C
:0402BC002AB265639A
:0402BD001E2DA24907
:0402BE002AD32841D6
:0402BF00307C8A28DD
:0402C00006F7358F79
:0402C10039FEF760AB
:0402C2000830FD46BD
:0402C3002E94DC3E5B
:0402C4001A2A63AEE1
:0402C50013568897AD
:0402C600232240911E
:0402C7001EA7A416B4
:0402C80020ECEA60DC
:0402C900083A369326
:0402CA001EE7583E95
:0402CB0009DDCFEF8B
:0402CC003DC82440C5
:0402CD0005A68ADC1C
:0402CE0022DF51BD1D
:0402CF0005648C1B1B
:0402D00015BFCD94F5
:0402D100106CB7698D
:0402D20035216D2045
:0402D30015934BD85C
:0402D4003715730B5C
:0402D5002D32073E81
:0402D6002CD88F5041
:0402D7001C970BF471
:0402D8003E9332110E
:0402D900255A761A12
:0402DA003723748BC7
:0402DB00096ADB527F
:0402DC000E61437AF2
:0402DD002F62A0E20A
:0402DE002E79DEF0A7
:0402DF0018E93A538D
:0402E00036BAEB86B9
:0402E100144CFA05BA
:0402E20037027BB9AB
:0402E3000F32A81915
:0402E400376B929949
:0402E500140ACD9397
:0402E60012B3E29ECF
:0402E7003DB040A640
:0402E800357B6006FC
:0402E9001201D11815
:0402EA0007ECF629FE
:0402EB003B2312910E
:0402EC002C0C21F9BC
:0402ED001A41A6EF1D
:0402EE002E9E4B886D
:0402EF00314A1C0470
:0402F0003955E17B20
:0402F1000B22534841
:0402F2000804CB71C0
:0402F3002F2C78B282
:0402F40014FF0DFFE7
:0402F5003290E7114B
:0402F600224E51370C
:0402F700363053A2A8
:0402F8001029EB00DE
:0402F9001DD4E50526
:0402FA0000FE939DD2
:0402FB002C36D9972D
:0402FC0004CA54C11B
:0402FD001C0DA365CC
:0402FE00012DD0619D
:0402FF000214FDF8F0
:0403000010641AF07B
:0403010031E5551776
:0403020021912BAD6D
:04030300020DC5EE34
:0403040037DAA04AFA
:0403050009017F3239
:0403060004D4764263
:0403070009B2B97A04
:040308001E5F66CB43
:040309001A52A809D3
:04030A000ACB1F13E8
:04030B000F00EE0FE2
:04030C001CCDD338F9
:04030D000A8DA5B8F8
:04030E002C825936AE
:04030F000B4D3B7BDC
:040310000F2D8261CA
:0403110019216898AE
:04031200323E9606DB
:04031300091FCBED06
:040314001EA5DA2B1D
:04031500327E540DD3
:0403160004A5713990
:040317001F165AE86B
:040318002ED6954503
:0403190021AF99EB8C
:04031A001C2103FFA0
:04031B0028E1D25BA8
:04031C0000AA481CCF
:04031D00080C87BA87
:04031E0005599631B6
:04031F001137156A13
:04032000052FA2F211
:040321001F6106CF83
:040322001FC307DD11
:040323000ED542575A
:040324001E8CD85FF4
:040325003E3170E90C
:0403260030EA0A901F
:0403270001FB767FE1
:040328001BC2A269E9
:040329002C92772D6E
:04032A003283E40531
:04032B002E7711F721
:04032C00396FA09EE7
:04032D0029B8918CCE
:04032E000CD3DB20F1
:04032F001E260AFC80
:040330001C9E523489
:0403310031DCBC9966
:0403320025D3363564
:04033300051B83DD46
:040334000A1102CADE
:040335002BD0B5E82C
:04033600275CE4A4B8
:04033700309EB37FC2
:0403380008FC53AEBC
:040339001A73DC5EF9
:04033A0036363A74A5
:04033B0020FF29096D
:04033C0004BF4EE2CA
:04033D00384E6FFDCA
:04033E001D09FA7328
:04033F0023A3483C70
:040340000C7FB7D99E
:0403410006E15E8CE7
:040342001949AD5E4A
:040343002A7C966317
:040344002EEF16E69C
:0403450020060BF291
:04034600114753F414
:040347002AE460D470
:040348003641E6FD57
:0403490004588F2A9B
:04034A003075BAE967
:04034B00373711E748
:04034C0025D73F5022
:04034D00023E51AF6C
:04034E00100D2BF86B
:04034F003D9079CA9A
:0403500006F3AFE51C
:0403510038FC07BDB0
:040352003E0E448097
:040353003DD26183B3
:04035400278BBFF73D
:040355000B8A1FB040
:04035600130A708D89
:0403570037D627FB73
:0403580035D76248EB
:0403590001EFD0DC04
:04035A00069280394E
:04035B001C47992280
:04035C002556D23C14
:04035D003C1908CD72
:04035E00147F2DCE0D
:04035F003B800E735E
:040360003A181A9697
:040361003B63AB68E7
:040362000BAF9DAE92
:04036300377665A8DC
:0403640015CA228D07
:040365002020E8E587
:040366001473D19F9C
:0403670032EE021D53
:040368002C30D6114E
:040369003B936F1E35
:04036A0023191CA295
:04036B0017BAB86F96
:04036C0020A0636A00
:04036D00089B56BCD7
:04036E001E68E2B073
:04036F000A59C8CF90
:04037000387DAF29FC
:040371003642A90D5A
:040372003785B355C3
:040373002DDF0F7FEC
:040374003B0BFCC47F
:040375002780A0E35A
:04037600372AFD4ADB
:040377003B0CFB76CA
:040378001056EAB180
:0403790027CC2E9FC0
:04037A00196BE4BA5D
:04037B00081287F0ED
:04037C0007273BE52F
:04037D0012592A31B6
:04037E00078EEDB643
:04037F002A2484693F
:040380000D696EDBBA
:0403810031F960529C
:040382001182FB6485
:040383000FE5475AE1
:040384003DD9E4E299
:04038500103CBBFA73
:040386003279EC23B9
:040387001184A2DD5E
:040388003B2320995A
:0403890007A29B101C
:04038A0025D854A07E
:04038B0015A7879794
:04038C0004B44BCC9E
:04038D001AFA5DCF2C
:04038E0024184E9F42
:04038F0033F16121C4
:040390000B8292D773
:040391001882D35C9F
:04039200197A8A92B8
:040393001E5A6E0878
:0403940011D5B04689
:04039500288A4B4621
:04039600281F0E1DF1
:04039700049FCCF8FB
:040398000DE8947068
:0403990003E4A4A134
:04039A0028BC5DE737
:04039B002D061260B9
:04039C00228C51C797
:04039D001BE5617685
:04039E000E484BA911
:04039F000F0C324EBF
:0403A0003723B5BF8B
:0403A1000681606C05
:0403A200065139DEE9
:0403A30030243D665F
:0403A4003344A62F09
:0403A500112F216E85
:0403A60004FCCEBBCA
:0403A7002705849012
:0403A80023D8F06105
:0403A9003040540D7F
:0403AA0010B4826C9D
:0403AB00211611A264
:0403AC0031DA06DE5E
:0403AD003346B679A4
:0403AE00066E9CFC3F
:0403AF000B287E1E7B
:0403B0001B3BDD0412
:0403B1003C6CADA84B
:0403B2003916D47EA6
:0403B30022BE73D51E
:0403B4003DD5E060F3
:0403B5001BC17AD31B
:0403B60035968734BD
:0403B7002342FC12CF
:0403B800231A477E3F
:0403B90014E0157ABD
:0403BA000F7FA50FFD
:0403BB0019DD146CC8
:0403BC0013A14162E6
:0403BD002C528555E4
:0403BE0014479B67DE
:0403BF002B43B7C84D
:0403C00009D8727D69
:0403C100343E16535D
:0403C20023562DE1B0
:0403C300318C6078A1
:0403C4000D2F865A19
:0403C50026B9D6ABD4
:0403C600050E7B960F
:0403C7000C61453947
:0403C80023611B96FC
:0403C90026A23CA389
:0403CA0002E6DF3335
:0403CB0007B0A6F7DA
:0403CC0015A5E90981
:0403CD002912E5EF1D
:0403CE001C0FB6E06A
:0403CF003B42316319
:0403D0001990074039
:0403D10012ABE9ADD5
:0403D2003428B230E9
:0403D3001E64A07C88
:0403D4001F6260D470
:0403D50036DB3F4292
:0403D60011E374C1FA
:0403D7000F8C9EEDFC
:0403D8003B3FC1E303
:0403D9002D90A8D3E8
:0403DA0023F8C899A3
:0403DB0001CF44C04A
:0403DC001C83A85F77
:0403DD001142F08653
:0403DE000161886BC6
:0403DF002E57F74A54
:0403E00014E5ED250E
:0403E10003CF2C8397
:0403E2003D017DF26A
:0403E30017248BA6AA
:0403E40026D108AF67
:0403E5003EB6587157
:0403E6000D15DC2CE9
:0403E7002F9682A625
:0403E8002BA2522EC4
:0403E9003245FE1A81
:0403EA003C16A971A3
:0403EB00080EC34CE9
:0403EC000D3EBA9672
:0403ED000EEAE36AC7
:0403EE00188D5E9276
:0403EF0011A17123C4
:0403F00038188DCE5E
:0403F10009AF1D63D0
:0403F20031F8C78295
:0403F3002BFBAAF93D
:0403F40007EB226D84
:0403F5003A3A16EB8F
:0403F60027831EC279
:0403F7003E3798F401
:0403F800000C37219D
:0403F9002BC2E2E64B
:0403FA002502084888
:0403FB00253483FB27
:0403FC00336A8531AA
:0403FD002FC0A1125A
:0403FE002FEB36AFFC
:0403FF001944DC9F22
:040400002E7F9E2B82
:040401001E0BA678B0
:0404020000D92DF2FE
:0404030035946915AE
:0404040013FA07A53B
:040405002843331540
:0404060013D38BCBB6
:040407001C93C7EE8D
:040408003B799AD8CA
:040409001B8C5D5695
:04040A001B8A85F4D0
:04040B0013C3681C93
:04040C00296C553DC5
:04040D001C14F45C6B
:04040E0008A2B22E60
:04040F0039982A8E60
:040410002681D0254C
:040411001588EE72EA
:040412001784FBE868
:040413001554925199
:040414002F534B37E0
:0404150007599DC422
:040416002EC3F06C95
:040417002148B50FB4
:040418000D31BC00E6
:0404190023794ECC29
:04041A000F021ACBE8
:04041B001D7AB9E3AA
:04041C00185B752BC9
:04041D001B81F54DFD
:04041E0026C75D4947
:04041F003416B7498F
:0404200023C51F31A0
:040421002FEAA71502
:0404220006412D154D
:0404230029443EA684
:040424003BF336ABC5
:040425000E29F8CADA
:04042600287EB87AFA
:04042700366597920D
:0404280033C317388B
:040429000831419FB6
:04042A003196B02730
:04042B0012EEFD3898
:04042C0014E22F6E39
:04042D0016F01C5B4E
:04042E001A8C6FC0F5
:04042F0017250B9DE5
:040430001C6597B000
:0404310029A6574061
:0404320018855E4883
:04043300391825C38C
:04043400295E28FA1B
:040435002E30D26033
:04043600051888D34A
:0404370012B39F035A
:040438003C14133726
:0404390011FC93F22D
:04043A003B2E57A05E
:04043B0009168CEF23
:04043C00239CC13804
:04043D00083D7B7F7C
:04043E0023B1E1699C
:04043F000AEF175059
:0404400008D4A81222
:040441000866963A79
:0404420035BCEEFFD8
:0404430009306EEC22
:04044400062780C83F
:040445002E22CA2475
:040446001C32800BD9
:0404470030035C79A9
:040448002733E8046A
:04044900186C12D940
:04044A0037D4B418D7
:04044B002CE11D0A79
:04044C00041131A0C6
:04044D00174681AE1F
:04044E00071438C295
:04044F001CEE9FBA46
:040450002F023E0336
:040451001A563716EA
:040452001D79647F2D
:0404530009F9D98941
:0404540002A700F605
:040455000E5BFBCA75
:040456000FFA5FFA40
:04045700324D5A20A8
:040458001989888AEC
:040459001E0B987D61
:04045A00255B2D628F
:04045B001732415DB6
:04045C0030DB008B06
:04045D002A6E2F8450
:04045E00118AE09788
:04045F0033165657A3
:0404600002B27E491D
:04046100167D0F0BEA
:040462003A4D554377
:040463000EBABE36D9
:040464000618AEE7E1
:0404650003C9EF12C6
:0404660030E2B1E7E8
:040467002ADD4FDD5E
:04046800299FC52ED5
:040469003E4706857F
:04046A001555CF3E17
:04046B000FA79E54E5
:04046C0001A0C068C3
:04046D0028D9F7BCD7
:04046E003035AE5C1B
:04046F00258805CB0C
:04047000160B6E20D9
:0404710016171D49F4
:040472003D34774B53
:040473001692DD0AF6
:040474000B371CB86E
:0404750023E1D92284
:04047600069A57EBA0
:04047700260D4DBC45
:040478002A0C05D570
:0404790014D11E5B21
:04047A001CB2460565
:04047B00348E9F53C9
:04047C0012CAA67783
:04047D00259DA262B5
:04047E00079AFE5F7C
:04047F000D7DD2E736
:040480000CA1A259D0
:040481001042CD0850
:040482001529595E81
:040483000DD03A0955
:040484001091F507D7
:040485001F32ED1C19
:04048600385EEC866A
:0404870039CBD0702D
:04048800309787FF23
:04048900093A416586
:04048A001B817AC890
:04048B003B72D45E8E
:04048C001D7B255C53
:04048D0026301A7388
:04048E00257A620F5A
:04048F002DDA02D58B
:040490000D18582CBF
:04049100331D76930E
:040492002C12CF4712
:0404930027C3E0E6B5
:040494002CC660EF23
:040495003EB7AB7D46
:04049600170E0BC66C
:04049700025DC5BB82
:0404980020589DABA0
:040499002690218602
:04049A000A7858077D
:04049B0012FDE4E684
:04049C0029718C46F0
:04049D001C24AA2F42
:04049E00284A5ECFBB
:04049F001402CB82F6
:0404A00036D21CC96B
:0404A1000DB68ABC4E
:0404A2000FCAD78521
:0404A3000CC786CD2F
:0404A400391452C2F3
:0404A500146C2E3471
:0404A6000DEA0F76D6
:0404A7001A4A00E805
:0404A8003252EC13CD
:0404A900084285D8A8
:0404AA000E76472D56
:0404AB003B453AFA99
:0404AC002C513F0E82
:0404AD002258E37C72
:0404AE003BA0AB8044
:0404AF000537C92222
:0404B000006E1320A7
:0404B10013E6121428
:0404B2002246031BC0
:0404B30009FD750DBD
:0404B4002CCBEAE77C
:0404B5001E6AFA3A87
:0404B6000D3EF21DE8
:0404B700389DC71E87
:0404B80002263B5588
:0404B9001F2D40E3D0
:0404BA0018311D26B2
:0404BB0028738523FA
:0404BC003BE29AC3C2
:0404BD003400D292A3
:0404BE0028177A94ED
:0404BF003C5491B860
:0404C0003DB31F67C2
:0404C100366D8613FB
:0404C20029A4F45E17
:0404C3002F910DED7B
:0404C400351A394D5F
:0404C5000625E4F62E
:0404C60018D40CFA40
:0404C7001B457D3D17
:0404C8003202D8E93B
:0404C9003A24A00130
:0404CA003E0C03E9F8
:0404CB002C7A64AF74
:0404CC000A14C1034A
:0404CD0019A47B569D
:0404CE000B852E92DA
:0404CF0018F14519C2
:0404D00023007EDAAD
:0404D100233908D4EF
:0404D2000EE419D04B
:0404D300149A4138FE
:0404D400278C6EA162
:0404D5001A336A6903
:0404D600221DDB23E5
:0404D70009250D598D
:0404D8003242C8C71D
:0404D90015D56DF0D8
:0404DA000914C457E6
:0404DB0037AC4A7E72
:0404DC002E2320B2F9
:0404DD0002A70DF273
:0404DE0026CCFB3EEF
:0404DF00396A1C5DFD
:0404E00015F42B13D1
:0404E1003A043C7528
:0404E20022B1B3BDD3
:0404E3000B8D737991
:0404E40033CF64AFFF
:0404E5001F2C88C67A
:0404E60036915E7578
:0404E7002654F43172
:0404E8001004726E1C
:0404E900039DAAAE17
:0404EA000E8B2A8EBD
:0404EB000A511A5C3C
:0404EC00136AEC7231
:0404ED003C41462622
:0404EE003D95CB85E8
:0404EF003943838E7C
:0404F0001295BDAEF6
:0404F1002FF390BD98
:0404F2001D2104C9FB
:0404F300129A07CD85
:0404F40029D2891967
:0404F50017F549604E
:0404F6002ED0B85CF0
:0404F7002381EE7DF2
:0404F800184D457CDA
:0404F900272CDE8D41
:0404FA0019E8178A5C
:0404FB00310462A8BE
:0404FC00065EAAFDF1
:0404FD0036B5CA7CCA
:0404FE003DA4E44FE6
:0404FF002C9E0838EF
:0405000020F02B6D4F
:0405010005BB5201E3
:040502003A6B6BEDF8
:040503000199400D0D
:0405040007032C4479
:040505002B50CE8326
:0405060022BCF4EA35
:04050700201BCB0AE0
:0405080004F6DD9583
:0405090002BF4A0BD8
:04050A001FE73DAFFB
:04050B003DC18C78EA
:04050C0020A82CB740
:04050D00361B82C84F
:04050E00252B205227
:04050F00322E9D9E4D
:04051000289C2030D3
:040511001A0F831228
:040512000946431142
:04051300217721F03B
:040514001383071F27
:040515003544F9D49C
:0405160001744263C7
:0405170017ADD5A2A5
:040518002AA91B06EB
:040519000DBCF51907
:04051A001CF0E4CB22
:04051B0009F46D046E
:04051C001B8FE2311E
:04051D001B07CF0ADF
:04051E002ADE9089B8
:04051F00110149A8D5
:040520001C0B7589B2
:040521001317CA5E84
:0405220012897CE7D7
:0405230030DA39A6EB
:040524002CFB8D7BA4
:040525003649360914
:0405260008313296D0
:040527001549722CD4
:040528001A1F45BD94
:0405290002482B3920
:04052A0032B45B0B81
:04052B001E76E0D583
:04052C001F14A833BD
:04052D002D4609D37B
:04052E000C82CDD599
:04052F0030F758E960
:0405300005EB2804AB
:040531003574D22724
:0405320000D8058D5B
:040533003D12D28F14
:0405340012DE8F58EC
:0405350013B8E24CC9
:040536003B6EDE1E1C
:0405370005038ABA74
:04053800115C567983
:04053900348E812259
:04053A0018C8D00508
:04053B000EA81B5497
:04053C0009649F109F
:04053D001931D32479
:04053E002D241BACA1
:04053F003B145B45C9
:0405400033BCCE06F4
:04054100397A687A21
:040542001663254DCA
:040543000A57148FB0
:0405440009E79A7DAC
:0405450005678DDEDB
:0405460019C4C066AE
:040547002C507ACBEF
:0405480029DAF9199A
:04054900064D991FA3
:04054A003AF9D52580
:04054B001786C071DE
:04054C00387440BF00
:04054D0020C89757D4
:04054E001FF5ADAF39
:04054F002D81DC0915
:040550000334A7ECDD
:040551002F9139AEFF
:0405520009D0A66EB8
:04055300018CF641E0
:0405540035C270BF7D
:04055500183E3C020E
:0405560011D23DD2AF
:040557000CDDDA8459
:040558000A67645B6F
:040559001145A7E4BD
:04055A0035D5BEB124
:04055B001CD40B049D
:04055C00362A6B6D63
:04055D003B8B6F2F36
:04055E000C681CF217
:04055F000315FD6C17
:0405600021B68B191C
:040561002BC14D94C9
:040562001BEF8E9E5F
:0405630011DC7DD357
:0405640033EC7C19DF
:04056500282974E5E8
:0405660035D9B801CA
:040567003B0F6CD604
:040568003EB0D2BF10
:04056900356DDD818E
:04056A002983309120
:04056B0030354329BB
:04056C001837249583
:04056D0037D9AB626D
:04056E0032986D82D0
:04056F0010C6D830AA
:040570000A4661E1F5
:0405710004E03CB3B3
:040572001DD0005345
:040573001E4757EDDB
:0405740037895BE880
:0405750031C5BCBC14
:040576000BC018EEB0
:0405770012F9EEE99E
:040578001178100DD9
:040579001F44228970
:04057A00383718A94D
:04057B001ACBB7AA36
:04057C002FA17836FD
:04057D002F81A08AA0
:04057E00202737FA01
:04057F002D12660EC5
:04058000066772B2E6
:040581000DADF4B711
:0405820018B46C58E5
:0405830034B2AC8A58
:04058400341AB42849
:0405850009E057CF63
:0405860018D67FCC38
:040587000D84DF60A0
:0405880010CF0A6E18
:0405890002046C9C60
:04058A000B425ADBEB
:04058B0032B7B4D5FA
:04058C000BB608D9C9
:04058D00074D379748
:04058E002817C9E47D
:04058F00152735A552
:0405900032CEF40F64
:040591001F69129537
:040592000DEA7E31BF
:040593002E408BB6B5
:040594002B5C759DCA
:040595003AAEFA9FE1
:040596000DAB37DD95
:0405970018C05D1F0C
:040598001ADB13A3B4
:0405990023CCDE8B06
:04059A000BDD6DA761
:04059B0011B8A713D9
:04059C003A4F50EC96
:04059D001BF86E02D7
:04059E001569773B29
:04059F000142F01411
:0405A00003D96C0F00
:0405A1002460E2C729
:0405A2002194E66C4E
:0405A30028293C2F98
:0405A40009EC78A046
:0405A5001A9949C294
:0405A6003B621D0196
:0405A7000FA2D16569
:0405A8000CD0F9A0DA
:0405A9001808969206
:0405AA0031FD1D1EE4
:0405AB003B7AB02CBB
:0405AC002EFD1ACA3C
:0405AD0000BEE2B2F8
:0405AE000A8B701E26
:0405AF002FD977B910
:0405B00011D453050A
:0405B1000B5B79ADBA
:0405B2001ED39A4A70
:0405B3002DBCED2B43
:0405B4000766B94DD0
:0405B50011E0C3820C
:0405B6002571152571
:0405B700189C259EC9
:0405B80027967C56B0
:0405B9002167A69B75
:0405BA002322F637CB
:0405BB003A769C43AD
:0405BC003547B1FA14
:0405BD003760F201B0
:0405BE003276CF1DA5
:0405BF001901A0A3DB
:0405C00001A5F3BAE4
:0405C10021EB8B4A55
:0405C2000EA7887088
:0405C3002F02FAE920
:0405C40004F7DD0259
:0405C5002BC894AB00
:0405C60010CDCECBBB
:0405C700241D481D8A
:0405C8003DCE59B516
:0405C9002CDBC66CF5
:0405CA00076185AF91
:0405CB001840209024
:0405CC003264B5AE32
:0405CD0023BC84C106
:0405CE003083460729
:0405CF002FE4CB1931
:0405D00009D1A0CEDF
:0405D1002114595A3E
:0405D20025CB5713CB
:0405D3002C28C6F416
:0405D400084F8BA49D
:0405D500077AB6AD3E
:0405D6002690CF0993
:0405D70016F6562B93
:0405D8000B21830070
:0405D90037B9D3A0BB
:0405DA0023149B70DB
:0405DB0033D6373CA0
:0405DC0033F828992F
:0405DD000B71EA0BA9
:0405DE002615DAF80C
:0405DF001098FDC7AC
:0405E0001C5E6F2608
:0405E1002F771B193C
:0405E20032DC94185B
:0405E30000A3E32767
:0405E4000513ADACA2
:0405E5000320049358
:0405E6001C942961D7
:0405E700367016CE86
:0405E800155EA51BDC
:0405E90001457E0743
:0405EA002929DD7569
:0405EB00266FF8027D
:0405EC001D8784F2F1
:0405ED002074B216AE
:0405EE003E9E469057
:0405EF0024A14162A0
:0405F000114002EFC5
:0405F1002355249DCD
:0405F20034D0653468
:0405F3003280DC0274
:0405F4001EAE54657E
:0405F5003416AF3ACF
:0405F6001499CAE4A6
:0405F7000548AE28DD
:0405F80025666CF117
:0405F90028B54BD402
:0405FA001E4D58BD7D
:0405FB003A78E42A3C
:0405FC0015907ABD1F
:0405FD0011014D2F6C
:0405FE0022AF3D3EAD
:0405FF001262C1EFD4
:040600002C0178E76A
:0406010028B8EA4BE0
:040602000F2C732620
:04060300112B0C4F5C
:04060400300ED55E81
:0406050026FE5FBBB3
:0406060030A412B951
:0406070015E0BDF34A
:04060800399059AA22
:04060900298B3235D2
:04060A000B49DB5766
:04060B0015F99E8FB0
:04060C002E379F3FA7
:04060D000F33315C1A
:04060E003E802BFE01
:04060F002A6860D322
:040610002E2108D1BE
:040611003DF1208017
:040612001D247662CB
:040613002CAA3B5E74
:040614000661EBC1CF
:0406150033AD7C2F56
:04061600198EE04A0F
:040617001CDD27942B
:040618002F374ED753
:040619001C8D757B44
:04061A001C846C0FC1
:04061B0008AC259072
:04061C0019999C2B61
:04061D0031CD80C596
:04061E002F56D5AED0
:04061F001165FC2E37
:04062000347785574F
:04062100065F20B49C
:0406220018FF02BDFE
:040623003BF5CADDFC
:040624000069530C0A
:0406250037492C7DA8
:040626001D47A7C7FE
:040627002923CBDFD9
:0406280003ED8A2E26
:0406290037E1D6AA35
:04062A001D3C161B42
:04062B00398874B4E2
:04062C0006CCF64FB3
:04062D0036BDA2E450
:04062E0009EE304A57
:04062F00257E8F7322
:040630003077266198
:040631003054D54428
:0406320022446C945E
:040633003D78546555
:040634003895C31022
:04063500228655299B
:0406360020DB838AB8
:040637002905F15749
:04063800049A3C7B69
:0406390021EF98C451
:04063A001404B57F70
:04063B0022CBF511C8
:04063C0023E9342C4E
:04063D002105DB9127
:04063E001C18254718
:04063F0026989D77E5
:040640000F4B0F79D4
:0406410004569BFDC3
:0406420033308D11B3
:0406430007197E6EA7
:04064400388B931646
:0406450019A310C91C
:040646001421C6961F
:040647001FE15297C6
:0406480024E0FE5D4F
:040649000ACD2E9711
:04064A0002CBB40B20
:04064B002DC63B502D
:04064C001EF588D53A
:04064D003EBA9C68AD
:04064E003A313711F5
:04064F00231806B8AE
:04065000032F9FF9DC
:040651000A7D9A5B29
:04065200284F893A6A
:040653003B25733C94
:040654003AF32488C9
:0406550003CA286D3F
:040656001F33889630
:0406570022EA03AFE1
:0406580007A2075F8F
:040659000B21CDB1F3
:04065A0007D99F908D
:04065B002643D07AE8
:04065C003182F0AD4A
:04065D0033EFFAA2DB
:04065E001BC1114566
:04065F002B5E204DA1
:040660002D2704A29C
:04066100106A2350A8
:04066200043E220828
:040663000478148D76
:04066400229203C01B
:0406650008130A1557
:0406660000D627B0E3
:040667002918DAA6CE
:0406680008398BF7CB
:0406690017DFF3EFB5
:04066A0006B5A4CC61
:04066B00009F396D46
:04066C0013B6B3E22C
:04066D000D7A8C3046
:04066E000477172DC9
:04066F003C37F7A875
:04067000255F74127C
:040671000A9A9F4CF6
:040672000E86BB0E27
:0406730008E8BBFEDA
:0406740008B4ABE437
:0406750031F98C6665
:0406760025A8A51FEF
:04067700244788A2EA
:0406780004A0735F08
:040679000D04A8C004
:04067A003383FE6662
:04067B000987AF4DEF
:04067C001614D52E4D
:04067D001DB6CC6B6F
:04067E000A7A69F695
:04067F000B55DAC37A
:0406800017B306F7AF
:040681001FFC8E3D8F
:040682001DD6C7BEFC
:040683001E1E369A67
:040684001914DD8ADE
:0406850024F9FAFC5E
:04068600342EEDD54C
:04068700126C889BCE
:040688002B24CF2030
:0406890004A37E72D6
:04068A0022912D820A
:04068B002C8F9322FB
:04068C00279D035A49
:04068D0025A9E2F5C4
:04068E000652735A43
:04068F0009FE3250DE
:04069000181CA04A48
:040691001F1672AC12
:040692001CBFEC108D
:04069300211885ABFA
:040694002662D3C641
:040695002A0AA82362
:0406960035A0979064
:040697002F75595909
:0406980014FB06E564
:040699003933C1220E
:04069A001A0A6C6369
:04069B000749570BA9
:04069C00387AA1DE29
:04069D001C88F4A31E
:04069E00394954AAD8
:04069F00395FC556A4
:0406A0000261D92DED
:0406A10030F20DA284
:0406A2001E94013869
:0406A30038F5621DA7
:0406A400002DC7D28C
:0406A50009BCBFD7F6
:0406A60017C0C7F5BD
:0406A700006DED0DE8
:0406A8000B0D9C3C5E
:0406A9000EC5F06C1E
:0406AA003D4EAA74A3
:0406AB001443429C16
:0406AC0015C690E8F7
:0406AD000890BEB142
:0406AE000E1A66407A
:0406AF000C6F7E93BB
:0406B00029E90FF72E
:0406B1000ABEFD8DF3
:0406B2000BE96E9A48
:0406B300165211309A
:0406B4000A60C25BBB
:0406B500190B021704
:0406B6003D8D514FD6
:0406B70037B2AFEDBA
:0406B8003201A0EE7D
:0406B900244C6179F3
:0406BA000FD9B0DFC5
:0406BB00065E5B2953
:0406BC001E17AD82D6
:0406BD0010E9357497
:0406BE002F36D826D5
:0406BF00386DA58C61
:0406C000355B26512F
:0406C1000696919078
:0406C20028EA70288A
:0406C300066661A1C5
:0406C4000242E1AC61
:0406C5000FCA362CF6
:0406C600172F3BE7C8
:0406C70025DF7300B8
:0406C8003B87D68115
:0406C900266CCCC40B
:0406CA000A40AF1023
:0406CB00171BFC8C71
:0406CC003CC04AE301
:0406CD001081184D33
:0406CE0009D8BAAFDE
:0406CF003E7E0CA7B8
:0406D00018D41FBE5D
:0406D1003E986509E1
:0406D2001DC29FDACC
:0406D300370C740963
:0406D4002CF426BD1F
:0406D50005D61DC762
:0406D6001D4321B1EE
:0406D7003C0A9080C9
:0406D800151ED4F621
:0406D90022786A22F7
:0406DA00301CF5C01B
:0406DB003D59383518
:0406DC001133956ED3
:0406DD000EDDAA99EB
:0406DE003D254CA5C5
:0406DF00019A264C0A
:0406E00000A6B51AA1
:0406E1002CBE6B10B0
:0406E2003AF7A7FD3F
:0406E3002AC38E0A8E
:0406E40005FA74DAC5
:0406E5000D22097366
:0406E60009FB0F3DC0
:0406E7001435D3896A
:0406E800130F607616
:0406E9002FA9AC7019
:0406EA002AFBE9B945
:0406EB0018278E57E7
:0406EC0014D1F4DF52
:0406ED00378C810BBA
:0406EE00398E6DAD27
:0406EF0039CD93ED81
:0406F00012EBBCC885
:0406F10018889C3792
:0406F20030BB1F9763
:0406F300099B441CFF
:0406F4002268B7259C
:0406F50015CBE2E15E
:0406F6003B554754D5
:0406F70032604C61C0
:0406F8002DFF789CBE
:0406F900220DAD829F
:0406FA00034517128B
:0406FB0033202DE299
:0406FC002197C93F3A
:0406FD0030C4D03203
:0406FE001E08184377
:0406FF002E94800FA6
:04070000291D570454
:0407010021DA712F59
:040702000369A802DD
:040703001244A19962
:0407040026EE378C1A
:04070500350422880D
:0407060029E58FF161
:04070700145A3256F8
:0407080011799C26A1
:0407090016FA55A8DF
:04070A0034FCEBB917
:04070B0014DA079B5A
:04070C0032CE59810F
:04070D00369A38B030
:04070E00202B513E0D
:04070F0009CD913A45
:0407100017C2753D5A
:04071100369ADBD960
:04071200192D079402
:040713003AE90B2193
:0407140025651B66D6
:040715002191D29DBF
:04071600022BBCB93D
:040717002D8DE065DF
:040718000E39612411
:0407190033F759D287
:04071A003DFBA89D5E
:04071B000F76A4C8E9
:04071C00173B6EBC5D
:04071D000AB8BA81DB
:04071E0009F26F2647
:04071F000A2AA86694
:040720001A59AA7741
:040721003AE3F4685B
:0407220023555C827D
:0407230020613A41D6
:040724002A02D0468F
:040725002B89F1D556
:0407260033C256EA9A
:0407270017262E7BE8
:040728000A7FA08123
:040729000A7862DC0C
:04072A002761B4C5CA
:04072B002B72419D4F
:04072C0007D6DDF718
:04072D001D60ACE4BB
:04072E0023AED0D650
:04072F0029DB320F81
:0407300032B351404F
:0407310020BCC6DC46
:0407320037C5B5F919
:040733002CE6890027
:0407340028EE2299F0
:040735001CDFECB821
:040736003EC5C1AE4D
:040737001A39C9CDD5
:040738001A9C549E15
:0407390011B419FDE1
:04073A000135E08C19
:04073B0037551EDC34
:04073C00067010A88B
:04073D0013B73B971C
:04073E0011A1F6AB64
:04073F0038277D6278
:040740002D1CA12D9E
:0407410024451DE14D
:040742002190294F8A
:04074300124E0E9CA8
:0407440039C483ED44
:0407450031848D0E60
:040746000B78E598AF
:040747000A68D5C99E
:04074800159BEA63B0
:040749003E37330AFA
:04074A003B812EA71A
:04074B00232E5CA954
:04074C001786A50166
:04074D0004CE7C6FEB
:04074E0013EAC08F5B
:04074F001C95D50818
:040750002AB912D6DA
:040751002BF5820FF3
:040752003725311FF7
:040753001D9026814E
:040754002D43A2A1EE
:0407550030255A925F
:0407560016A6302A89
:04075700198CF18484
:0407580027E168111C
:040759000CD4062D89
:04075A00305CA482E9
:04075B001C20AE525E
:04075C000541CCF691
:04075D0033DCCBD0EE
:04075E0012EEFBA2FA
:04075F0011E5F16C43
:040760001455757B3C
:040761003AEDAB1AA8
:040762000465CE0D4F
:04076300174B00CC64
:0407640025E24E3A02
:0407650035D634D978
:040766003EC4F8791C
:04076700186CCAD46C
:04076800193472A32B
:0407690034A9283552
:04076A003431A8126C
:04076B000D75499D22
:04076C002D81DBFD03
:04076D00031E11480E
:04076E001F1682EFE1
:04076F003B5C3A793C
:0407700006E06AFA3B
:04077100069160EF9E
:0407720034E9D08D09
:040773003104442ADF
:040774000BCBE34484
:040775002E6BEED128
:040776001E9410417C
:04077700166FA01742
:0407780037D07F4EA9
:040779001C56C40C3A
:04077A003ACF8946A3
:04077B003B567BF975
:04077C00031DFFA6B4
:04077D003CB87E4ABC
:04077E001B9F33DEAC
:04077F003AA447FC55
:040780000A208EA617
:040781003B4D158552
:040782003B7333137F
:04078300134834D80B
:0407840029BE1FA2C9
:04078500331A2E787D
:04078600214A246F71
:040787000DA9DE15C5
:04078800021AF8D188
:040789000819422DDC
:04078A002D01FCC978
:04078B000DE97601FD
:04078C00338C192E63
:04078D0013EF3667C9
:04078E0029EF2B6EB6
:04078F000106EEE38E
:04079000325E4E691E
:040791001C694DC3CF
:0407920008237CFCC0
:040793000B761107C9
:040794001CA3E84C6E
:040795002862EBB635
:040796002791C29B4A
:0407970011EA9AEEDB
:040798000549059D6D
:040799000D8DCEAD47
:04079A00324EE87182
:04079B00156CEB519D
:04079C002002357C86
:04079D0034A673709B
:04079E0004A1387703
:04079F0007138502B5
:0407A00004B27C7FA4
:0407A1002269DF9654
:0407A2000E64100BC6
:0407A3000E18765F57
:0407A400155F091FB5
:0407A5000110B190FE
:0407A60029FBFA85AC
:0407A70010B6C6E6DC
:0407A80039BF03BF93
:0407A900256B766ED8
:0407AA0011DB928449
:0407AB0030C16613E0
:0407AC00120ABFE08E
:0407AD002872793DF8
:0407AE003A31E7D91C
:0407AF0035BD900BB9
:0407B0003D0AC88CAA
:0407B10028080BED1C
:0407B20024FFAD195A
:0407B30020A05A60C8
:0407B400366A88DF3A
:0407B5002E34BB59CA
:0407B6000491F68034
:0407B7000509F072CE
:0407B80015C44070B4
:0407B9001827EC5BB6
:0407BA000951D668A3
:0407BB0014363EBCF6
:0407BC00206041ACCC
:0407BD000DDB6F2EB3
:0407BE000E7A998096
:0407BF0005C22D71D1
:0407C000211E70087E
:0407C1003DE36110A3
:0407C20000CD467BA5
:0407C300222093EB72
:0407C400016FAE9C77
:0407C50010CEE5501D
:0407C60039CC250401
:0407C70013539B38F5
:0407C80006AC466ACB
:0407C900095266CF9C
:0407CA0028BBD10D6A
:0407CB001F2F931633
:0407CC000BDBD34D23
:0407CD003E00AF52E9
:0407CE003233AC21F5
:0407CF001B37213281
:0407D00029009096D6
:0407D10033A8D082F7
:0407D20024869907D9
:0407D3003240C00BE5
:0407D4002ECE734C66
:0407D50009BEA15E5A
:0407D60032A0699C48
:0407D70020413D017F
:0407D80012BF017BD0
:0407D90011A7DB4742
:0407DA0006004F883E
:0407DB00071CDF9088
:0407DC00339D962291
:0407DD001CC5763D84
:0407DE00012F9867E8
:0407DF002BC5A13D48
:0407E00027C346588D
:0407E100052487095B
:0407E20012257E89D5
:0407E300316E114B17
:0407E4002D96C55C2D
:0407E5001C447EE54D
:0407E6003211F13D9E
:0407E7002CA1060932
:0407E8001D87ECA9D4
:0407E90027368058D7
:0407EA001272F9414D
:0407EB00054C982001
:0407EC0026BFDBBB8E
:0407ED000FFE08985B
:0407EE003648BC1EAF
:0407EF001DFE8C3926
:0407F0002029897AB9
:0407F1001F6C2A7CD3
:0407F2003B9CB6EF87
:0407F3002EBE7BAEED
:0407F4002AB732BF2F
:0407F50013CA96B8D5
:0407F6002F08C55AA9
:0407F7001F34B009F2
:0407F80019A4119F90
:0407F90000FF9A5013
:0407FA00241E1D4854
:0407FB00174C29CF9F
:0407FC001F8D4EDA25
:0407FD000A27934AEA
:0407FE0030BC56BBFA
:0407FF001DDECCFF30
:00000001ff
