:020000040000FA
:0400000000000001FB
:04000100088028CD7E
:04000200264ADAD5DB
:040003001A86D42560
:0400040018E8B0B98F
:040005000B155F2553
:040006001AD3D68FA4
:040007003A91C98DD4
:04000800118BCDAFDC
:04000900317C84C8FA
:04000A0027BAEFA979
:04000B000C16EE19C8
:04000C001B6AA8B013
:04000D001064D8693A
:04000E00140AFFD100
:04000F001BFEAA54D6
:04001000325FCC7718
:040011001187FE3223
:040012000AE459673C
:04001300316F2C0419
:0400140006C6081301
:04001500270549551D
:0400160035A42417D2
:040017003AF63AB3C8
:040018002972C90B75
:040019000C27ECE6DE
:04001A00273C6F5BB5
:04001B002E2B1486EE
:04001C0018706E24C6
:04001D002B3502F984
:04001E002130B518C0
:04001F002615729D93
:040020000570D57919
:040021000C1DC6826A
:0400220027C170245E
:0400230034EA27D7BD
:04002400382A58948A
:040025002F7688D3D7
:040026003E9BD61D0A
:040027002242BC0FA6
:040028001A9E9DDAA5
:040029003D86485E6A
:04002A001C03DC9146
:04002B001861DBB0CD
:04002C0027F193CF56
:04002D002372EFB299
:04002E000B205BC187
:04002F00208F03B16A
:0400300010C820864E
:0400310032CADF14DC
:040032001FFFF8A311
:040033001019670534
:040034001513C2A539
:0400350019380DDA8F
:0400360013F163213E
:0400370013C026BF0D
:04003800361A224111
:040039002455639057
:04003A003067408863
:04003B0008CEB8F142
:04003C002DD34BE68F
:04003D000CD7A084B8
:04003E003E983B3D70
:04003F0029C5334D4F
:0400400015BA32D5E6
:04004100160CEADDD2
:040042003D045DDA42
:04004300143FFBCBA0
:04004400047859F7EC
:0400450037A41CEFD1
:0400460026591DDA40
:0400470026E95A2626
:040048000DDE0915AB
:04004900007D306E98
:04004A003C14108FC3
:04004B002B76D17AC5
:04004C00153A579872
:04004D00073616BF9D
:04004E002310C77A3A
:04004F002636A800A9
:040050001C3F91CDF3
:04005100153F4CC14A
:04005200167C2534BF
:0400530001B4A899B3
:040054001ADFF42398
:0400550004A2F641CA
:0400560037A5133C7B
:040057002D324041C5
:040058003081446649
:040059003DA6FE6E54
:04005A001DBBBC9F6F
:04005B0001571152E6
:04005C002EE35B87AD
:04005D002E888FDB7F
:04005E0003B0D9BC56
:04005F001D782605DD
:040060003608886472
:040061000C8D0605F7
:040062001D9CBE6DB6
:040063001275E2A58B
:0400640031CE220C6B
:04006500277979E09E
:040066000CF50AF695
:0400670039E44FAF7A
:040068003E25F39F9F
:040069001D28983185
:04006A00120593A444
:04006B0001CDE0855E
:04006C0012CB345F20
:04006D00079A1EAE22
:04006E003736F80029
:04006F00130BEF5B25
:0400700031BE7CE23F
:04007100184DC41052
:04007200099C5F3B4B
:0400730005F9404605
:040074000D64E9022C
:040075003E63E445BD
:040076000103DFFBA8
:040077002E7E7CA9B4
:04007800265906F807
:04007900262FBA4331
:04007A003DEA98F7CC
:04007B00267EC369B1
:04007C0005DC304A25
:04007D001517A8D7D4
:04007E003BBAAD1BC1
:04007F0001B81F8F16
:04008000346C2F5D50
:040081002E04516D8B
:040082001A53870C7A
:0400830016CEF91488
:04008400094023CB41
:04008500208C9BDD53
:0400860016C22EEA86
:0400870004116A46B0
:0400880018CC6A7DA9
:0400890017D7927C77
:04008A000EBF816DB7
:04008B003C19DCDE62
:04008C000AAEFC4F6D
:04008D00012B1477B8
:04008E000FED98B822
:04008F0008F57143BC
:0400900009487B1789
:0400910013D94364D8
:0400920032F8765179
:04009300056174810E
:04009400144C73870E
:040095002DEBEC88DB
:04009600147E3EECAA
:040097003290DB1EAA
:040098003A3C321F9D
:040099001CB7E95255
:04009A002559EA4AB0
:04009B002435059F64
:04009C003902BD6701
:04009D001B5B058064
:04009E0015B9C78742
:04009F000316DBE485
:0400A0003482EB3982
:0400A1000EEC0EBC97
:0400A200382D590F8D
:0400A30021ACBB8D44
:0400A40010682702B7
:0400A5001C4466058C
:0400A600366156ACBD
:0400A70012D577D81F
:0400A8001A53ABC973
:0400A90014B1E77730
:0400AA00396990B46C
:0400AB0020B05FB36F
:0400AC002AD29CF6C2
:0400AD0038CDD62054
:0400AE00153DDE68B6
:0400AF001DF91167BF
:0400B00023BEED631B
:0400B100044BE7A471
:0400B2002E9998E506
:0400B3000A3C59DECC
:0400B4000D64D2A85D
:0400B50015A3F13767
:0400B6001FB8B0B20D
:0400B70028D8C31270
:0400B800233B08C618
:0400B9000C4B1D309F
:0400BA0022B8EA3747
:0400BB000367DEA257
:0400BC001144DCFF10
:0400BD00170FDC1924
:0400BE002F25F3CC2B
:0400BF000AAE49102C
:0400C000359DCB3966
:0400C100281F3C5563
:0400C2002911A8B0A8
:0400C3003457E97D48
:0400C4001E5C19D8CD
:0400C5000338F88282
:0400C6001663EA9241
:0400C700348BAA6C60
:0400C8002D9BF43741
:0400C9002A6A8A75A0
:0400CA002760EA635E
:0400CB002E49ECDFEF
:0400CC00326D6B29FD
:0400CD0007FA0BEC37
:0400CE003CE8AEA9B3
:0400CF003050C68C5B
:0400D0003222B31D08
:0400D10005E0E13134
:0400D20002E8C7A9D0
:0400D30021B5B8D5C6
:0400D400321502ECF3
:0400D5001BC8FB2128
:0400D6003371C86258
:0400D7000E667251EE
:0400D80037706A080B
:0400D9001911BDFE3E
:0400DA0038663C53F5
:0400DB00209DAA8337
:0400DC00174A8C36FD
:0400DD0011CD964C5F
:0400DE003D05D0808C
:0400DF0036E288ADD0
:0400E0000EB938A17C
:0400E1000AE28ABEE7
:0400E20024868528C3
:0400E3000B6044E288
:0400E40039B939DC11
:0400E500305A530634
:0400E60012B5F6BA9F
:0400E7003E6CD7CEC6
:0400E80028D71743BB
:0400E900065C55C795
:0400EA000F17E82ED6
:0400EB0014AA5D9066
:0400EC000B350F5170
:0400ED001B7282669A
:0400EE0033258FC85F
:0400EF003ADB59CED1
:0400F00016B48ACCEC
:0400F10031F225CCF7
:0400F20014519DAC5C
:0400F3002183C1A103
:0400F40015FCAD7DCD
:0400F50006FA695945
:0400F6001E270BB8FE
:0400F7000476D2E4D5
:0400F80010282F8617
:0400F90033047AEC66
:0400FA003D6BBD316C
:0400FB0010D2F71711
:0400FC003451E28A0F
:0400FD0039C7619A04
:0400FE0002BBECDA7B
:0400FF0024B4379B53
:040100001827F75273
:040101000B72D5BEEA
:040102001BA3183FE4
:040103001EE4E70E01
:04010400391B43CE92
:0401050033CF6E3452
:0401060027BC664666
:0401070032473F3DFF
:040108003E612774B9
:040109000F3A634006
:04010A003899130D00
:04010B002C89D0115A
:04010C00027AAC8542
:04010D0016B73B24C2
:04010E001A0ABF51B9
:04010F003C7FA4325B
:040110003E8EFC4DD6
:0401110021398CB94B
:04011200244614E18A
:040113003D9FF78A8B
:0401140022288AF320
:04011500293473D442
:0401160010D58293EB
:0401170012D29CDD87
:040118003AD77B7FD8
:040119001BB3B3421F
:04011A000B23427001
:04011B0022D8B18BAA
:04011C0021375261D4
:04011D003D2FE96D1C
:04011E003997D73EF8
:04011F0037862C8F64
:0401200000B8ABE791
:040121000CACD0450D
:040122003B9F68C3D4
:040123003D6C53A834
:040124002119F81194
:040125002D9E0E07F6
:040126002E956D663F
:0401270001DE3D5068
:040128000D4B055026
:0401290010CC3DAC0D
:04012A003D1F984D90
:04012B00156414A89B
:04012C0027E759BFA9
:04012D0022F55267FE
:04012E0002C2A4ED78
:04012F003E7BAE8FD6
:040130002D2936DD62
:04013100284257B356
:040132001654856377
:0401330010C25FF7A0
:040134001F861B689F
:040135001F627B5E6C
:04013600260292D932
:040137003B1391F6EF
:040138001C1C2B71EF
:040139001388BCC8A3
:04013A00182F2B014E
:04013B00203997EDE3
:04013C0033A5BD66C4
:04013D0034D34279FC
:04013E00226D13C556
:04013F00338D92E684
:0401400014707D5763
:040141003E876A5338
:040142002B1B9D379F
:040143000CB756AEF1
:04014400088807031D
:040145002D132C1832
:04014600300BE9E5AC
:040147002E1535CC70
:040148003E16F73335
:04014900124D9BBEFA
:04014A000D86B35B10
:04014B002758457973
:04014C0036DA784DDA
:04014D0003AA32824D
:04014E001C281290C7
:04014F003E1C0D271E
:040150000775A0543B
:040151000638A76F56
:04015200363C5D22B8
:040153000B91127A80
:04015400272F058EBE
:040155001563230803
:0401560009E4FD3F7C
:040157001F7E9B402C
:0401580029FB9E9E43
:040159000977718928
:04015A0018C4154769
:04015B002B40064BE4
:04015C0025DDB110DC
:04015D003B9456F089
:04015E00217394581D
:04015F002B07313CFD
:040160002DB468A0B2
:0401610006E4DD30A3
:040162000E4A4FBD35
:0401630028AD661647
:040164001E480DF430
:040165000CBE87E560
:0401660007EE0F6F22
:040167002A4994E7A6
:0401680032A68B022E
:04016900133ABE0582
:04016A002CDE38FC53
:04016B00296002D530
:04016C001A4D4CA537
:04016D000AAEF3E4FF
:04016E0001AF9FEB53
:04016F001B597ED0CA
:040170000569A15824
:040171001D84D919F7
:04017200392158696E
:040173001CB1542245
:040174000929D66718
:040175002B4405BB57
:040176002D52338E45
:04017700121ED099EB
:040178003C2290494C
:04017900196A343992
:04017A0010822FA020
:04017B001E9A789DB3
:04017C00108938416D
:04017D001FC496669F
:04017E00137238F2CE
:04017F001F0132EF3B
:0401800033E35CD534
:040181003C9CF4307E
:040182001ECBC56D5E
:040183002961929EBE
:040184000A54A29ED9
:0401850019A1CCF4FC
:0401860014AD3383FE
:040187002EAFF8E2BD
:040188003713BA036C
:0401890033A886020F
:04018A00111DE72B31
:04018B002F25241CDC
:04018C003504952C75
:04018D001B459C1D55
:04018E0008BFCF686F
:04018F001B16E4ADAA
:0401900006F7B99D18
:040191003A234F0AB4
:04019200144E25CC16
:0401930021523B2595
:04019400167B4C2E5C
:040195003D6A0C1A99
:040196000F88CA27DD
:040197001F42FBD632
:040198003EF073C5FD
:040199000D8FCE9860
:04019A002CDB628870
:04019B002A788A092B
:04019C00203FD0022E
:04019D0032A7173C32
:04019E0028C80588E0
:04019F00150FF3F253
:0401A000040414201F
:0401A100157A4B136D
:0401A20015CEA5963B
:0401A3003D10349047
:0401A4002E21C24CFA
:0401A5001D8DC7E9FC
:0401A600121BE02E1A
:0401A7001A8BB833C4
:0401A8001540D6DE4A
:0401A900026C11359E
:0401AA0003B2550047
:0401AB00387248431B
:0401AC00363B19467F
:0401AD00022F87098D
:0401AE0012D8FC80E7
:0401AF000F46ACB398
:0401B0002438336854
:0401B10030D9617967
:0401B200191558BD06
:0401B300142E82ACD8
:0401B40020EBE02735
:0401B50005C690FFEC
:0401B6002C264D386E
:0401B7000E2A6CA5FB
:0401B80017711A237E
:0401B9000D49105686
:0401BA00222C45208E
:0401BB0021E7110522
:0401BC001935779FDB
:0401BD0017D6374ECC
:0401BE003BD27C793B
:0401BF0010ECA6C5D5
:0401C0001E6348F47E
:0401C100105D19981C
:0401C2001C9F9632B6
:0401C3002FA1A28541
:0401C40001D967C234
:0401C5001FBE79B62A
:0401C60012B2934A94
:0401C7001DA12C3F0B
:0401C80007620AB50B
:0401C90024B7A41B98
:0401CA000B1D63772F
:0401CB00386B07196D
:0401CC0021F6556A59
:0401CD0020A8F4BFB3
:0401CE003228D7FDFF
:0401CF000832942E30
:0401D0003EE0794F45
:0401D1001B8FF67119
:0401D20020093A7353
:0401D30030BE5A964A
:0401D40031B1033A08
:0401D50038C2EA58EA
:0401D6003C6D48C56F
:0401D70023493895EB
:0401D800137DD38B35
:0401D90039665655D8
:0401DA00247439361A
:0401DB00371A1C9320
:0401DC0010CB169A94
:0401DD000004A6BABA
:0401DE003C25F22AA0
:0401DF0002FA487A5E
:0401E00005F42B25D2
:0401E100372E8547E9
:0401E2001C704D3F01
:0401E3002B60A27972
:0401E40039818AA330
:0401E5000C2D9F46F8
:0401E60027C6814E59
:0401E7000792C75064
:0401E80002744F7FCF
:0401E9001876A94E8D
:0401EA000D381C357B
:0401EB001059E8C0FF
:0401EC0035D4278758
:0401ED0020A3FFA9A3
:0401EE000789D0BCF1
:0401EF000DACF0D291
:0401F0000BA4EBE28F
:0401F10014D1AFB0C6
:0401F200135D83B462
:0401F30020212C1E7D
:0401F4002D825CD329
:0401F500289824051D
:0401F6001F465D3013
:0401F7001A1303FDD7
:0401F8003AA4641DA4
:0401F9000DB58FE7CA
:0401FA001C2E6DAD9D
:0401FB003A76AFAAF7
:0401FC00375443BD74
:0401FD002F2B290279
:0401FE002071A14883
:0401FF00064BE23396
:0402000000000001F9
:040201001F81729A4D
:04020200194E1192EE
:040203003B7A5C9B4B
:0402040009E967A7F6
:040205002882291E04
:0402060000358254E9
:0402070005CB08BD5E
:040208003DB6670791
:040209001A918DECCD
:04020A00157B649567
:04020B000EDA4D9228
:04020C001CE13E189B
:04020D002F12EBC7FA
:04020E0007C1EB41F8
:04020F0026C1D5AB84
:040210000D2F69A99C
:0402110019EAF8D11D
:040212001CE0054E99
:040213002B436AC34C
:040214000A269BC05B
:0402150028C102D02A
:040216003DC8492076
:040217003E52C05E35
:040218002980D01059
:0402190039304A68C6
:04021A002941FAC7B5
:04021B00331FEA9211
:04021C001D2DBE4393
:04021D00224FE4F197
:04021E002B7120958B
:04021F002140A137A2
:04022000363F480617
:04022100189DAA2951
:040222002206A868A0
:040223000BB958C5F6
:0402240031BE7078FF
:0402250034B192411D
:04022600269694F292
:04022700305CBC7A11
:040228000CB7280DDA
:040229000254342E19
:04022A001A3F9201E4
:04022B0006513844FC
:04022C00165CF8DD87
:04022D000FACB33A25
:04022E000E35F02079
:04022F000BBC80750F
:0402300029EF1C3A5C
:040231002D67A00C89
:0402320005EFE1985B
:0402330022AAF127E3
:040234000A8EF71522
:040235001864974072
:040236003ED114A3FE
:040237000214068126
:0402380021202A5304
:0402390035EA791F0A
:04023A0025E9C3FDF2
:04023B0033CB6686D5
:04023C0019A72A3B99
:04023D002C5AE03B1C
:04023E001DC6E307EF
:04023F001256AB3771
:0402400026FB9154B4
:04024100161FAC8058
:04024200092D04C4BA
:040243003630D84E2B
:04024400299DBE959D
:040245000AE586A69A
:040246003E73373597
:040247000A12CD2B9F
:040248001DC54C2F55
:0402490005E688D668
:04024A002247D5A3CF
:04024B000BB53802B5
:04024C003682F5E71A
:04024D00335998B8D1
:04024E003AF6910FDC
:04024F000E4A8E9C29
:040250003558BE0758
:0402510001E771B49C
:0402520029C4AB43CD
:040253000FF7E99D1B
:040254001F021BFB6F
:040255002AA1DE40BC
:040256002FD3932EE1
:040257001AA918D9EF
:040258000FE3B9A750
:0402590018C5CFB93C
:04025A002B6B4AC7F9
:04025B00127D32B32B
:04025C003B7F02D909
:04025D000828B16D4F
:04025E00329D38296C
:04025F00165C0D9C80
:0402600018F3B1D509
:0402610037EAD2990D
:0402620035F192518F
:040263003345A2DBA2
:0402640016E53CC59A
:040265000B76AF0C59
:0402660036F04FCF50
:040267002A2C47DE18
:040268001F104D977F
:040269000220140F4C
:04026A001D8185ED80
:04026B0003C7CA20DB
:04026C0006BD9E76B7
:04026D0007E07A77B5
:04026E001B10BDE7BD
:04026F002D876495DE
:040270000AAA38FEA0
:0402710023FF5C1AF1
:0402720004283056D6
:0402730006D4EB8042
:040274000B799DF273
:04027500349AFA7746
:040276000EE09F47B0
:040277003972D5946F
:040278001B0DFFE774
:040279003E5E77D29C
:04027A00099CF71ACA
:04027B000C68E92FF3
:04027C0005ECACD60B
:04027D00223E6B1B97
:04027E00286F484756
:04027F0018FCF50C66
:0402800021661D4690
:0402810022B6D5C606
:040282000456596461
:040283001C00C16733
:040284001AA0691142
:04028500367743FC89
:0402860012F0C5525B
:0402870005B5312F59
:040288000EC26D45F0
:040289000A28F7FD4B
:04028A001A937B2F19
:04028B00206DFE17CD
:04028C0030E64A8F7F
:04028D000C9427BEE8
:04028E0015ED59D73A
:04028F00079036C9D5
:0402900030D6B404AC
:040291001D2E7EBFE1
:040292000C6E873A2D
:040293000046D5F25A
:040294003479067B38
:0402950010729E9DA8
:04029600091F98DDC7
:0402970006D0C87451
:040298002347429C1A
:040299002D84DB379E
:04029A003E5AFF5A6F
:04029B001222CB73ED
:04029C002E7FA1CB45
:04029D0002A2E36571
:04029E00247B18ADF8
:04029F0001562DC611
:0402A000193C809FE6
:0402A1001902BE6B15
:0402A2000BE9A93C7F
:0402A30014D2A9A424
:0402A400316DF2AA1C
:0402A50009B26E32FA
:0402A60025A08038D7
:0402A7002BA2903DB9
:0402A8001A1DE02C0F
:0402A90015EF3FF717
:0402AA000B1DF2CF67
:0402AB0006D34EE840
:0402AC001EAE88F208
:0402AD000D8A3995E8
:0402AE002A69B4F80D
:0402AF003A7CC75E70
:0402B0001B32578422
:0402B10017E9E75012
:0402B200314FC0D830
:0402B3001A660D6456
:0402B400376146CD9B
:0402B500230B73653F
:0402B600256AA2E92A
:0402B7000E7A340780
:0402B80025270F9057
:0402B9000656BE0225
:0402BA0029C145D041
:0402BB0021A65F74A5
:0402BC002D14FACC37
:0402BD002C5352DF8D
:0402BE000D48A9043A
:0402BF000507F9B284
:0402C0001A5B0CCEEB
:0402C1000CFFA1CFBE
:0402C2000BF393BCEB
:0402C3003B89C48926
:0402C40016BC3387AA
:0402C50015200BEC09
:0402C60028906A24EE
:0402C7002BAC2A3200
:0402C800235BC9BF2C
:0402C900366476ED34
:0402CA00198B2474F4
:0402CB002433CDD536
:0402CC0004B2A36D68
:0402CD0039D81FD12C
:0402CE000FA624B79C
:0402CF002036272589
:0402D000045929485C
:0402D1002DA7F05F06
:0402D2003DDFFBCD44
:0402D30015666B0C35
:0402D4000C76ADBD3A
:0402D500010342CA15
:0402D6003D8C69B240
:0402D7003C57511728
:0402D8002F9924E452
:0402D90014A10888DC
:0402DA00270964ABE1
:0402DB00034DA1F836
:0402DC002844C50CE1
:0402DD0015FC02D931
:0402DE0032C770387B
:0402DF0038A254F4F9
:0402E0002751B201EF
:0402E10016CE46C827
:0402E20009D287D5E1
:0402E300023572ADC1
:0402E4002F521BD1A9
:0402E50023F3A7C98F
:0402E60015A680C811
:0402E7002095686C8A
:0402E8000E57631D2D
:0402E9001F949A4480
:0402EA0028060C597D
:0402EB002DB592F2A9
:0402EC001D456BC37E
:0402ED003BA56B259D
:0402EE002FAE0FAD73
:0402EF0005A2503ED6
:0402F00026FC3C6646
:0402F100098643BC7B
:0402F2001B5E8249C4
:0402F300045E429DC6
:0402F40009B37A656B
:0402F50012EB06B54D
:0402F60016D47C8B13
:0402F7000C1799B88F
:0402F80030A9900594
:0402F9000D5EDF4077
:0402FA00010C34C0FF
:0402FB0005AF09EC56
:0402FC001C830D2131
:0402FD00094B99D23E
:0402FE000B5D718D96
:0402FF0016FC64572E
:040300003ED1EB17E8
:0403010024E844FDAB
:040302003A9FD64DFB
:04030300184D36CA91
:04030400106233E769
:0403050022D4922844
:0403060028886F953F
:040307001E80C02470
:040308000CF49A0651
:0403090018CDE7AB79
:04030A003B4169AF5B
:04030B00378AAC136E
:04030C0016FCD549BD
:04030D00306B6828C1
:04030E000784939D30
:04030F00024EC623B1
:04031000298230E12D
:040311003AA9E99B81
:04031200216E8530A3
:040313002D6957DB1E
:040314002888C6115E
:040315003CDBD37783
:040316001FB405FD0E
:0403170001B6830E9A
:040318003B09AAF6FD
:04031900307E72F8C8
:04031A0035F82DB0D5
:04031B00285B19BF83
:04031C001A8A803F7A
:04031D002764A7F6B4
:04031E003218D98C2C
:04031F000CAE73ECC1
:0403200030B481264E
:040321000308259711
:040322000CBE84E5A4
:0403230006668F0FCC
:040324001D09E7BD0B
:0403250033DD1AB2F8
:040326001F9C4915BA
:0403270012637000ED
:04032800398610BF43
:0403290035921E8665
:04032A0011F656E48E
:04032B0029E113E5CC
:04032C001B6AC84B35
:04032D0038691FC14B
:04032E0007409ADF0B
:04032F0028028A18FE
:0403300020690746F3
:0403310015023AABCC
:040332003017823FBF
:040333001EB37DAACE
:040334003D7CE57CAB
:040335001363800DC1
:0403360023326463A7
:0403370003033BD7AA
:04033800188CDCB28F
:0403390038FD790210
:04033A000A640483CA
:04033B000D0D246C14
:04033C00391C4DB566
:04033D001EEB412D45
:04033E001FA7F1B54F
:04033F001FA84AEEBB
:040340002D722C945A
:040341002DC7B43BD5
:040342001F6FE177D1
:0403430034C8F69B29
:040344002B3F52E316
:040345001FD88B4BE7
:0403460036BF2A2B69
:040347000BBD324870
:0403480022A4B22F0A
:040349003495C5EC36
:04034A001C88B862F1
:04034B000CA5BACE75
:04034C00246C266A8D
:04034D001F5315E540
:04034E00061BE50D98
:04034F0034D61A0086
:040350000A7804CF54
:040351000B812843B1
:0403520015097B61AD
:0403530018D7DABF1E
:0403540012C39150EF
:040355003C17A1E6CA
:0403560032DCCC8544
:040357001E58754671
:040358003436DD66F4
:040359001DC6A83FD6
:04035A000CF65C50F1
:04035B00160ADAE3C1
:04035C00235C6CEEC4
:04035D001E503D8D64
:04035E0014B012AE17
:04035F002CB8E527AA
:040360003003E66719
:040361000CC35D5814
:0403620039C48D9974
:04036300322509D561
:0403640028D6E8A40B
:040365003C8DFDD9F5
:0403660029F21A7CE2
:0403670000CE785CF0
:040368003212114EEE
:040369003E83C756B2
:04036A001EC8E9863A
:04036B001981080BE1
:04036C0008F403BFCF
:04036D00368186BD92
:04036E000332BD2871
:04036F000097F4A758
:040370003AF682FED9
:04037100201D8D6C52
:040372002DFB9CFCC7
:040373002966DEB366
:0403740034E1A96364
:040375002BAB93AC6F
:0403760021F3DC7320
:040377001853F4FE25
:0403780025CC6780A9
:0403790002C3CA1CD5
:04037A002FC9EA8F0E
:04037B000080B058F6
:04037C000878E1A27A
:04037D001136B30082
:04037E0013E8D74366
:04037F002D522FBB11
:04038000311FF8E24F
:040381000BD61F85F3
:0403820007311A1A0B
:04038300314A1B5090
:0403840016BCBCD512
:040385000D7D1C25A9
:040386000D30AF7215
:040387000612D2BACE
:040388001AD9A804D2
:040389000DB5B3BC3F
:04038A00053FCD97C7
:04038B0016CD8FC933
:04038C0033E83FFF14
:04038D00359C6FCA62
:04038E0031CA5846D2
:04038F002054CB3EED
:040390000BFCAD9F16
:0403910000C8DF5B66
:04039200143361B00F
:0403930006E5B3A325
:040394001674337B2D
:040395002CDAB2F5B7
:040396001B5C867FE7
:0403970008BBD52AA0
:0403980004CE43410B
:040399002DD8DB0B75
:04039A0016F145B360
:04039B002D9E04B7D8
:04039C0010DC5F6CA6
:04039D00331BD9D65F
:04039E001ACDFDE394
:04039F0017BB7FF514
:0403A000231345CB13
:0403A1003432B665D7
:0403A2000089D3817A
:0403A300003CB7ED76
:0403A4001074CD5BA9
:0403A5001E753B9AEC
:0403A600075D2E467B
:0403A7000117C7E192
:0403A8003B45733628
:0403A9003223802C4F
:0403AA0005C49BF0FB
:0403AB000B7BE0A93F
:0403AC00195278FF6B
:0403AD003DD9EA1537
:0403AE003A0EDBBF69
:0403AF001DADCB3085
:0403B000029E23F88E
:0403B1003A76C73B96
:0403B2000236AD0C56
:0403B3001C43E9AC52
:0403B4001228C2A1A8
:0403B500362BD35CB4
:0403B6001F3583E983
:0403B7000BFAA70294
:0403B80028A2FE6514
:0403B9002A75FF9012
:0403BA000993307102
:0403BB000B8409B2F4
:0403BC0027CE153003
:0403BD002E0DA2B4AB
:0403BE0032D13AF806
:0403BF003052E63B97
:0403C00034DA2421E6
:0403C1000857C93FD1
:0403C20032278081DD
:0403C3000D3DA88FB5
:0403C40039CE1A7F95
:0403C50013BB70EA0C
:0403C6002DDCB34B2C
:0403C7002073EFBEF2
:0403C80039F20DAE4B
:0403C90000E3AC7C25
:0403CA00194F10A80F
:0403CB0000D11C350C
:0403CC00302EF1B12D
:0403CD0020D3927E29
:0403CE0000BB9B874E
:0403CF0021B6CF384C
:0403D0002EE9456667
:0403D1000B7879B27A
:0403D20022BF3E30D8
:0403D30011C22839F2
:0403D4001CDBF6E058
:0403D5003571C8288E
:0403D60005E6B45331
:0403D70032CC93137E
:0403D800099740D26F
:0403D9002B700D82F6
:0403DA000E823B6AEA
:0403DB00393C92BB5C
:0403DC000B774D7BD3
:0403DD0004FBBD4F11
:0403DE003A35C28169
:0403DF00027D8925ED
:0403E00013CCFE88B4
:0403E1001EB17803CE
:0403E2002B9B240627
:0403E30020C2FFD65F
:0403E4003CB4DD3B0D
:0403E500258CAC6255
:0403E6002383C12389
:0403E7000129D1ED2A
:0403E8001D4BCFD802
:0403E9003E60C72F7C
:0403EA00333BF72B7F
:0403EB000B846B9381
:0403EC0025C7F79199
:0403ED0011033EB00A
:0403EE002E12FDBF0F
:0403EF0039FD379A03
:0403F0001094668778
:0403F100135928C0B4
:0403F20001F9C29CAF
:0403F30013FF7CC9AF
:0403F40011EA199E53
:0403F500256B2B7BCE
:0403F60002D71B8689
:0403F70026126DF26B
:0403F8003A496569B0
:0403F9003AE7058F4B
:0403FA003B916AB514
:0403FB003075EE402B
:0403FC000C4AAA18E5
:0403FD002CCA9D2A3F
:0403FE002B6810ABAD
:0403FF0033E1633152
:0404000000000000F8
:0404010000000000F7
:0404020000000000F6
:0404030000000000F5
:0404040000000000F4
:0404050000000000F3
:0404060000000000F2
:0404070000000000F1
:0404080000000000F0
:0404090000000000EF
:04040A0000000000EE
:04040B0000000000ED
:04040C0000000000EC
:04040D0000000000EB
:04040E0000000000EA
:04040F0000000000E9
:0404100000000000E8
:0404110000000000E7
:0404120000000000E6
:0404130000000000E5
:0404140000000000E4
:0404150000000000E3
:0404160000000000E2
:0404170000000000E1
:0404180000000000E0
:0404190000000000DF
:04041A0000000000DE
:04041B0000000000DD
:04041C0000000000DC
:04041D0000000000DB
:04041E0000000000DA
:04041F0000000000D9
:0404200000000000D8
:0404210000000000D7
:0404220000000000D6
:0404230000000000D5
:0404240000000000D4
:0404250000000000D3
:0404260000000000D2
:0404270000000000D1
:0404280000000000D0
:0404290000000000CF
:04042A0000000000CE
:04042B0000000000CD
:04042C0000000000CC
:04042D0000000000CB
:04042E0000000000CA
:04042F0000000000C9
:0404300000000000C8
:0404310000000000C7
:0404320000000000C6
:0404330000000000C5
:0404340000000000C4
:0404350000000000C3
:0404360000000000C2
:0404370000000000C1
:0404380000000000C0
:0404390000000000BF
:04043A0000000000BE
:04043B0000000000BD
:04043C0000000000BC
:04043D0000000000BB
:04043E0000000000BA
:04043F0000000000B9
:0404400000000000B8
:0404410000000000B7
:0404420000000000B6
:0404430000000000B5
:0404440000000000B4
:0404450000000000B3
:0404460000000000B2
:0404470000000000B1
:0404480000000000B0
:0404490000000000AF
:04044A0000000000AE
:04044B0000000000AD
:04044C0000000000AC
:04044D0000000000AB
:04044E0000000000AA
:04044F0000000000A9
:0404500000000000A8
:0404510000000000A7
:0404520000000000A6
:0404530000000000A5
:0404540000000000A4
:0404550000000000A3
:0404560000000000A2
:0404570000000000A1
:0404580000000000A0
:04045900000000009F
:04045A00000000009E
:04045B00000000009D
:04045C00000000009C
:04045D00000000009B
:04045E00000000009A
:04045F000000000099
:040460000000000098
:040461000000000097
:040462000000000096
:040463000000000095
:040464000000000094
:040465000000000093
:040466000000000092
:040467000000000091
:040468000000000090
:04046900000000008F
:04046A00000000008E
:04046B00000000008D
:04046C00000000008C
:04046D00000000008B
:04046E00000000008A
:04046F000000000089
:040470000000000088
:040471000000000087
:040472000000000086
:040473000000000085
:040474000000000084
:040475000000000083
:040476000000000082
:040477000000000081
:040478000000000080
:04047900000000007F
:04047A00000000007E
:04047B00000000007D
:04047C00000000007C
:04047D00000000007B
:04047E00000000007A
:04047F000000000079
:040480000000000078
:040481000000000077
:040482000000000076
:040483000000000075
:040484000000000074
:040485000000000073
:040486000000000072
:040487000000000071
:040488000000000070
:04048900000000006F
:04048A00000000006E
:04048B00000000006D
:04048C00000000006C
:04048D00000000006B
:04048E00000000006A
:04048F000000000069
:040490000000000068
:040491000000000067
:040492000000000066
:040493000000000065
:040494000000000064
:040495000000000063
:040496000000000062
:040497000000000061
:040498000000000060
:04049900000000005F
:04049A00000000005E
:04049B00000000005D
:04049C00000000005C
:04049D00000000005B
:04049E00000000005A
:04049F000000000059
:0404A0000000000058
:0404A1000000000057
:0404A2000000000056
:0404A3000000000055
:0404A4000000000054
:0404A5000000000053
:0404A6000000000052
:0404A7000000000051
:0404A8000000000050
:0404A900000000004F
:0404AA00000000004E
:0404AB00000000004D
:0404AC00000000004C
:0404AD00000000004B
:0404AE00000000004A
:0404AF000000000049
:0404B0000000000048
:0404B1000000000047
:0404B2000000000046
:0404B3000000000045
:0404B4000000000044
:0404B5000000000043
:0404B6000000000042
:0404B7000000000041
:0404B8000000000040
:0404B900000000003F
:0404BA00000000003E
:0404BB00000000003D
:0404BC00000000003C
:0404BD00000000003B
:0404BE00000000003A
:0404BF000000000039
:0404C0000000000038
:0404C1000000000037
:0404C2000000000036
:0404C3000000000035
:0404C4000000000034
:0404C5000000000033
:0404C6000000000032
:0404C7000000000031
:0404C8000000000030
:0404C900000000002F
:0404CA00000000002E
:0404CB00000000002D
:0404CC00000000002C
:0404CD00000000002B
:0404CE00000000002A
:0404CF000000000029
:0404D0000000000028
:0404D1000000000027
:0404D2000000000026
:0404D3000000000025
:0404D4000000000024
:0404D5000000000023
:0404D6000000000022
:0404D7000000000021
:0404D8000000000020
:0404D900000000001F
:0404DA00000000001E
:0404DB00000000001D
:0404DC00000000001C
:0404DD00000000001B
:0404DE00000000001A
:0404DF000000000019
:0404E0000000000018
:0404E1000000000017
:0404E2000000000016
:0404E3000000000015
:0404E4000000000014
:0404E5000000000013
:0404E6000000000012
:0404E7000000000011
:0404E8000000000010
:0404E900000000000F
:0404EA00000000000E
:0404EB00000000000D
:0404EC00000000000C
:0404ED00000000000B
:0404EE00000000000A
:0404EF000000000009
:0404F0000000000008
:0404F1000000000007
:0404F2000000000006
:0404F3000000000005
:0404F4000000000004
:0404F5000000000003
:0404F6000000000002
:0404F7000000000001
:0404F8000000000000
:0404F90000000000FF
:0404FA0000000000FE
:0404FB0000000000FD
:0404FC0000000000FC
:0404FD0000000000FB
:0404FE0000000000FA
:0404FF0000000000F9
:0405000000000000F7
:0405010000000000F6
:0405020000000000F5
:0405030000000000F4
:0405040000000000F3
:0405050000000000F2
:0405060000000000F1
:0405070000000000F0
:0405080000000000EF
:0405090000000000EE
:04050A0000000000ED
:04050B0000000000EC
:04050C0000000000EB
:04050D0000000000EA
:04050E0000000000E9
:04050F0000000000E8
:0405100000000000E7
:0405110000000000E6
:0405120000000000E5
:0405130000000000E4
:0405140000000000E3
:0405150000000000E2
:0405160000000000E1
:0405170000000000E0
:0405180000000000DF
:0405190000000000DE
:04051A0000000000DD
:04051B0000000000DC
:04051C0000000000DB
:04051D0000000000DA
:04051E0000000000D9
:04051F0000000000D8
:0405200000000000D7
:0405210000000000D6
:0405220000000000D5
:0405230000000000D4
:0405240000000000D3
:0405250000000000D2
:0405260000000000D1
:0405270000000000D0
:0405280000000000CF
:0405290000000000CE
:04052A0000000000CD
:04052B0000000000CC
:04052C0000000000CB
:04052D0000000000CA
:04052E0000000000C9
:04052F0000000000C8
:0405300000000000C7
:0405310000000000C6
:0405320000000000C5
:0405330000000000C4
:0405340000000000C3
:0405350000000000C2
:0405360000000000C1
:0405370000000000C0
:0405380000000000BF
:0405390000000000BE
:04053A0000000000BD
:04053B0000000000BC
:04053C0000000000BB
:04053D0000000000BA
:04053E0000000000B9
:04053F0000000000B8
:0405400000000000B7
:0405410000000000B6
:0405420000000000B5
:0405430000000000B4
:0405440000000000B3
:0405450000000000B2
:0405460000000000B1
:0405470000000000B0
:0405480000000000AF
:0405490000000000AE
:04054A0000000000AD
:04054B0000000000AC
:04054C0000000000AB
:04054D0000000000AA
:04054E0000000000A9
:04054F0000000000A8
:0405500000000000A7
:0405510000000000A6
:0405520000000000A5
:0405530000000000A4
:0405540000000000A3
:0405550000000000A2
:0405560000000000A1
:0405570000000000A0
:04055800000000009F
:04055900000000009E
:04055A00000000009D
:04055B00000000009C
:04055C00000000009B
:04055D00000000009A
:04055E000000000099
:04055F000000000098
:040560000000000097
:040561000000000096
:040562000000000095
:040563000000000094
:040564000000000093
:040565000000000092
:040566000000000091
:040567000000000090
:04056800000000008F
:04056900000000008E
:04056A00000000008D
:04056B00000000008C
:04056C00000000008B
:04056D00000000008A
:04056E000000000089
:04056F000000000088
:040570000000000087
:040571000000000086
:040572000000000085
:040573000000000084
:040574000000000083
:040575000000000082
:040576000000000081
:040577000000000080
:04057800000000007F
:04057900000000007E
:04057A00000000007D
:04057B00000000007C
:04057C00000000007B
:04057D00000000007A
:04057E000000000079
:04057F000000000078
:040580000000000077
:040581000000000076
:040582000000000075
:040583000000000074
:040584000000000073
:040585000000000072
:040586000000000071
:040587000000000070
:04058800000000006F
:04058900000000006E
:04058A00000000006D
:04058B00000000006C
:04058C00000000006B
:04058D00000000006A
:04058E000000000069
:04058F000000000068
:040590000000000067
:040591000000000066
:040592000000000065
:040593000000000064
:040594000000000063
:040595000000000062
:040596000000000061
:040597000000000060
:04059800000000005F
:04059900000000005E
:04059A00000000005D
:04059B00000000005C
:04059C00000000005B
:04059D00000000005A
:04059E000000000059
:04059F000000000058
:0405A0000000000057
:0405A1000000000056
:0405A2000000000055
:0405A3000000000054
:0405A4000000000053
:0405A5000000000052
:0405A6000000000051
:0405A7000000000050
:0405A800000000004F
:0405A900000000004E
:0405AA00000000004D
:0405AB00000000004C
:0405AC00000000004B
:0405AD00000000004A
:0405AE000000000049
:0405AF000000000048
:0405B0000000000047
:0405B1000000000046
:0405B2000000000045
:0405B3000000000044
:0405B4000000000043
:0405B5000000000042
:0405B6000000000041
:0405B7000000000040
:0405B800000000003F
:0405B900000000003E
:0405BA00000000003D
:0405BB00000000003C
:0405BC00000000003B
:0405BD00000000003A
:0405BE000000000039
:0405BF000000000038
:0405C0000000000037
:0405C1000000000036
:0405C2000000000035
:0405C3000000000034
:0405C4000000000033
:0405C5000000000032
:0405C6000000000031
:0405C7000000000030
:0405C800000000002F
:0405C900000000002E
:0405CA00000000002D
:0405CB00000000002C
:0405CC00000000002B
:0405CD00000000002A
:0405CE000000000029
:0405CF000000000028
:0405D0000000000027
:0405D1000000000026
:0405D2000000000025
:0405D3000000000024
:0405D4000000000023
:0405D5000000000022
:0405D6000000000021
:0405D7000000000020
:0405D800000000001F
:0405D900000000001E
:0405DA00000000001D
:0405DB00000000001C
:0405DC00000000001B
:0405DD00000000001A
:0405DE000000000019
:0405DF000000000018
:0405E0000000000017
:0405E1000000000016
:0405E2000000000015
:0405E3000000000014
:0405E4000000000013
:0405E5000000000012
:0405E6000000000011
:0405E7000000000010
:0405E800000000000F
:0405E900000000000E
:0405EA00000000000D
:0405EB00000000000C
:0405EC00000000000B
:0405ED00000000000A
:0405EE000000000009
:0405EF000000000008
:0405F0000000000007
:0405F1000000000006
:0405F2000000000005
:0405F3000000000004
:0405F4000000000003
:0405F5000000000002
:0405F6000000000001
:0405F7000000000000
:0405F80000000000FF
:0405F90000000000FE
:0405FA0000000000FD
:0405FB0000000000FC
:0405FC0000000000FB
:0405FD0000000000FA
:0405FE0000000000F9
:0405FF0000000000F8
:0406000000000000F6
:0406010000000000F5
:0406020000000000F4
:0406030000000000F3
:0406040000000000F2
:0406050000000000F1
:0406060000000000F0
:0406070000000000EF
:0406080000000000EE
:0406090000000000ED
:04060A0000000000EC
:04060B0000000000EB
:04060C0000000000EA
:04060D0000000000E9
:04060E0000000000E8
:04060F0000000000E7
:0406100000000000E6
:0406110000000000E5
:0406120000000000E4
:0406130000000000E3
:0406140000000000E2
:0406150000000000E1
:0406160000000000E0
:0406170000000000DF
:0406180000000000DE
:0406190000000000DD
:04061A0000000000DC
:04061B0000000000DB
:04061C0000000000DA
:04061D0000000000D9
:04061E0000000000D8
:04061F0000000000D7
:0406200000000000D6
:0406210000000000D5
:0406220000000000D4
:0406230000000000D3
:0406240000000000D2
:0406250000000000D1
:0406260000000000D0
:0406270000000000CF
:0406280000000000CE
:0406290000000000CD
:04062A0000000000CC
:04062B0000000000CB
:04062C0000000000CA
:04062D0000000000C9
:04062E0000000000C8
:04062F0000000000C7
:0406300000000000C6
:0406310000000000C5
:0406320000000000C4
:0406330000000000C3
:0406340000000000C2
:0406350000000000C1
:0406360000000000C0
:0406370000000000BF
:0406380000000000BE
:0406390000000000BD
:04063A0000000000BC
:04063B0000000000BB
:04063C0000000000BA
:04063D0000000000B9
:04063E0000000000B8
:04063F0000000000B7
:0406400000000000B6
:0406410000000000B5
:0406420000000000B4
:0406430000000000B3
:0406440000000000B2
:0406450000000000B1
:0406460000000000B0
:0406470000000000AF
:0406480000000000AE
:0406490000000000AD
:04064A0000000000AC
:04064B0000000000AB
:04064C0000000000AA
:04064D0000000000A9
:04064E0000000000A8
:04064F0000000000A7
:0406500000000000A6
:0406510000000000A5
:0406520000000000A4
:0406530000000000A3
:0406540000000000A2
:0406550000000000A1
:0406560000000000A0
:04065700000000009F
:04065800000000009E
:04065900000000009D
:04065A00000000009C
:04065B00000000009B
:04065C00000000009A
:04065D000000000099
:04065E000000000098
:04065F000000000097
:040660000000000096
:040661000000000095
:040662000000000094
:040663000000000093
:040664000000000092
:040665000000000091
:040666000000000090
:04066700000000008F
:04066800000000008E
:04066900000000008D
:04066A00000000008C
:04066B00000000008B
:04066C00000000008A
:04066D000000000089
:04066E000000000088
:04066F000000000087
:040670000000000086
:040671000000000085
:040672000000000084
:040673000000000083
:040674000000000082
:040675000000000081
:040676000000000080
:04067700000000007F
:04067800000000007E
:04067900000000007D
:04067A00000000007C
:04067B00000000007B
:04067C00000000007A
:04067D000000000079
:04067E000000000078
:04067F000000000077
:040680000000000076
:040681000000000075
:040682000000000074
:040683000000000073
:040684000000000072
:040685000000000071
:040686000000000070
:04068700000000006F
:04068800000000006E
:04068900000000006D
:04068A00000000006C
:04068B00000000006B
:04068C00000000006A
:04068D000000000069
:04068E000000000068
:04068F000000000067
:040690000000000066
:040691000000000065
:040692000000000064
:040693000000000063
:040694000000000062
:040695000000000061
:040696000000000060
:04069700000000005F
:04069800000000005E
:04069900000000005D
:04069A00000000005C
:04069B00000000005B
:04069C00000000005A
:04069D000000000059
:04069E000000000058
:04069F000000000057
:0406A0000000000056
:0406A1000000000055
:0406A2000000000054
:0406A3000000000053
:0406A4000000000052
:0406A5000000000051
:0406A6000000000050
:0406A700000000004F
:0406A800000000004E
:0406A900000000004D
:0406AA00000000004C
:0406AB00000000004B
:0406AC00000000004A
:0406AD000000000049
:0406AE000000000048
:0406AF000000000047
:0406B0000000000046
:0406B1000000000045
:0406B2000000000044
:0406B3000000000043
:0406B4000000000042
:0406B5000000000041
:0406B6000000000040
:0406B700000000003F
:0406B800000000003E
:0406B900000000003D
:0406BA00000000003C
:0406BB00000000003B
:0406BC00000000003A
:0406BD000000000039
:0406BE000000000038
:0406BF000000000037
:0406C0000000000036
:0406C1000000000035
:0406C2000000000034
:0406C3000000000033
:0406C4000000000032
:0406C5000000000031
:0406C6000000000030
:0406C700000000002F
:0406C800000000002E
:0406C900000000002D
:0406CA00000000002C
:0406CB00000000002B
:0406CC00000000002A
:0406CD000000000029
:0406CE000000000028
:0406CF000000000027
:0406D0000000000026
:0406D1000000000025
:0406D2000000000024
:0406D3000000000023
:0406D4000000000022
:0406D5000000000021
:0406D6000000000020
:0406D700000000001F
:0406D800000000001E
:0406D900000000001D
:0406DA00000000001C
:0406DB00000000001B
:0406DC00000000001A
:0406DD000000000019
:0406DE000000000018
:0406DF000000000017
:0406E0000000000016
:0406E1000000000015
:0406E2000000000014
:0406E3000000000013
:0406E4000000000012
:0406E5000000000011
:0406E6000000000010
:0406E700000000000F
:0406E800000000000E
:0406E900000000000D
:0406EA00000000000C
:0406EB00000000000B
:0406EC00000000000A
:0406ED000000000009
:0406EE000000000008
:0406EF000000000007
:0406F0000000000006
:0406F1000000000005
:0406F2000000000004
:0406F3000000000003
:0406F4000000000002
:0406F5000000000001
:0406F6000000000000
:0406F70000000000FF
:0406F80000000000FE
:0406F90000000000FD
:0406FA0000000000FC
:0406FB0000000000FB
:0406FC0000000000FA
:0406FD0000000000F9
:0406FE0000000000F8
:0406FF0000000000F7
:0407000000000000F5
:0407010000000000F4
:0407020000000000F3
:0407030000000000F2
:0407040000000000F1
:0407050000000000F0
:0407060000000000EF
:0407070000000000EE
:0407080000000000ED
:0407090000000000EC
:04070A0000000000EB
:04070B0000000000EA
:04070C0000000000E9
:04070D0000000000E8
:04070E0000000000E7
:04070F0000000000E6
:0407100000000000E5
:0407110000000000E4
:0407120000000000E3
:0407130000000000E2
:0407140000000000E1
:0407150000000000E0
:0407160000000000DF
:0407170000000000DE
:0407180000000000DD
:0407190000000000DC
:04071A0000000000DB
:04071B0000000000DA
:04071C0000000000D9
:04071D0000000000D8
:04071E0000000000D7
:04071F0000000000D6
:0407200000000000D5
:0407210000000000D4
:0407220000000000D3
:0407230000000000D2
:0407240000000000D1
:0407250000000000D0
:0407260000000000CF
:0407270000000000CE
:0407280000000000CD
:0407290000000000CC
:04072A0000000000CB
:04072B0000000000CA
:04072C0000000000C9
:04072D0000000000C8
:04072E0000000000C7
:04072F0000000000C6
:0407300000000000C5
:0407310000000000C4
:0407320000000000C3
:0407330000000000C2
:0407340000000000C1
:0407350000000000C0
:0407360000000000BF
:0407370000000000BE
:0407380000000000BD
:0407390000000000BC
:04073A0000000000BB
:04073B0000000000BA
:04073C0000000000B9
:04073D0000000000B8
:04073E0000000000B7
:04073F0000000000B6
:0407400000000000B5
:0407410000000000B4
:0407420000000000B3
:0407430000000000B2
:0407440000000000B1
:0407450000000000B0
:0407460000000000AF
:0407470000000000AE
:0407480000000000AD
:0407490000000000AC
:04074A0000000000AB
:04074B0000000000AA
:04074C0000000000A9
:04074D0000000000A8
:04074E0000000000A7
:04074F0000000000A6
:0407500000000000A5
:0407510000000000A4
:0407520000000000A3
:0407530000000000A2
:0407540000000000A1
:0407550000000000A0
:04075600000000009F
:04075700000000009E
:04075800000000009D
:04075900000000009C
:04075A00000000009B
:04075B00000000009A
:04075C000000000099
:04075D000000000098
:04075E000000000097
:04075F000000000096
:040760000000000095
:040761000000000094
:040762000000000093
:040763000000000092
:040764000000000091
:040765000000000090
:04076600000000008F
:04076700000000008E
:04076800000000008D
:04076900000000008C
:04076A00000000008B
:04076B00000000008A
:04076C000000000089
:04076D000000000088
:04076E000000000087
:04076F000000000086
:040770000000000085
:040771000000000084
:040772000000000083
:040773000000000082
:040774000000000081
:040775000000000080
:04077600000000007F
:04077700000000007E
:04077800000000007D
:04077900000000007C
:04077A00000000007B
:04077B00000000007A
:04077C000000000079
:04077D000000000078
:04077E000000000077
:04077F000000000076
:040780000000000075
:040781000000000074
:040782000000000073
:040783000000000072
:040784000000000071
:040785000000000070
:04078600000000006F
:04078700000000006E
:04078800000000006D
:04078900000000006C
:04078A00000000006B
:04078B00000000006A
:04078C000000000069
:04078D000000000068
:04078E000000000067
:04078F000000000066
:040790000000000065
:040791000000000064
:040792000000000063
:040793000000000062
:040794000000000061
:040795000000000060
:04079600000000005F
:04079700000000005E
:04079800000000005D
:04079900000000005C
:04079A00000000005B
:04079B00000000005A
:04079C000000000059
:04079D000000000058
:04079E000000000057
:04079F000000000056
:0407A0000000000055
:0407A1000000000054
:0407A2000000000053
:0407A3000000000052
:0407A4000000000051
:0407A5000000000050
:0407A600000000004F
:0407A700000000004E
:0407A800000000004D
:0407A900000000004C
:0407AA00000000004B
:0407AB00000000004A
:0407AC000000000049
:0407AD000000000048
:0407AE000000000047
:0407AF000000000046
:0407B0000000000045
:0407B1000000000044
:0407B2000000000043
:0407B3000000000042
:0407B4000000000041
:0407B5000000000040
:0407B600000000003F
:0407B700000000003E
:0407B800000000003D
:0407B900000000003C
:0407BA00000000003B
:0407BB00000000003A
:0407BC000000000039
:0407BD000000000038
:0407BE000000000037
:0407BF000000000036
:0407C0000000000035
:0407C1000000000034
:0407C2000000000033
:0407C3000000000032
:0407C4000000000031
:0407C5000000000030
:0407C600000000002F
:0407C700000000002E
:0407C800000000002D
:0407C900000000002C
:0407CA00000000002B
:0407CB00000000002A
:0407CC000000000029
:0407CD000000000028
:0407CE000000000027
:0407CF000000000026
:0407D0000000000025
:0407D1000000000024
:0407D2000000000023
:0407D3000000000022
:0407D4000000000021
:0407D5000000000020
:0407D600000000001F
:0407D700000000001E
:0407D800000000001D
:0407D900000000001C
:0407DA00000000001B
:0407DB00000000001A
:0407DC000000000019
:0407DD000000000018
:0407DE000000000017
:0407DF000000000016
:0407E0000000000015
:0407E1000000000014
:0407E2000000000013
:0407E3000000000012
:0407E4000000000011
:0407E5000000000010
:0407E600000000000F
:0407E700000000000E
:0407E800000000000D
:0407E900000000000C
:0407EA00000000000B
:0407EB00000000000A
:0407EC000000000009
:0407ED000000000008
:0407EE000000000007
:0407EF000000000006
:0407F0000000000005
:0407F1000000000004
:0407F2000000000003
:0407F3000000000002
:0407F4000000000001
:0407F5000000000000
:0407F60000000000FF
:0407F70000000000FE
:0407F80000000000FD
:0407F90000000000FC
:0407FA0000000000FB
:0407FB0000000000FA
:0407FC0000000000F9
:0407FD0000000000F8
:0407FE0000000000F7
:0407FF0000000000F6
:00000001ff
