:020000040000FA
:0400000000000001FB
:040001002CA3FCBB75
:04000200350F02C2F2
:04000300088028CD7C
:0400040008F777DBA7
:040005001F7564C13E
:04000600264ADAD5D7
:0400070036373CC983
:0400080014F8616324
:040009001A86D4255A
:04000A00026CF46A26
:04000B00357C8E783A
:04000C0018E8B0B987
:04000D0008906FC325
:04000E00262FEABAF5
:04000F000B155F2549
:04001000346BEB283A
:0400110013B3F9B676
:040012001AD3D68F98
:040013003C1D7432EA
:0400140019164EF17A
:040015003A91C98DC6
:040016001BD7CE70B6
:04001700035FA911C9
:04001800118BCDAFCC
:0400190031A3562990
:04001A001D806BA931
:04001B00317C84C8E8
:04001C001146847B8A
:04001D0013ECCEC54D
:04001E0027BAEFA965
:04001F0015C22136AF
:04002000113F976194
:040021000C16EE19B2
:04002200161CE46064
:04002300380F22D19F
:040024001B6AA8B0FB
:040025003AD17B8BC6
:0400260030A9B04409
:040027001064D86920
:040028002D146C45E2
:04002900164699EBF3
:04002A00140AFFD1E4
:04002B0024632AB26E
:04002C0020ABF20D06
:04002D001BFEAA54B8
:04002E001CD32A7C39
:04002F003235781CD2
:04003000325FCC77F8
:040031002DEFFACAEB
:040032003705F0920C
:040033001187FE3201
:040034002F4F6D9449
:0400350014AA6B1A84
:040036000AE4596718
:04003700399E747EFC
:040038000C4D74FFF8
:04003900316F2C04F3
:04003A00021F342A43
:04003B002BB941FCA0
:04003C0006C60813D9
:04003D001701FC3477
:04003E001215C705CB
:04003F0027054955F3
:040040000633C108BA
:040041001593FD2CEA
:0400420035A42417A6
:0400430030386E09DA
:0400440024A6B35CDF
:040045003AF63AB39A
:040046002F56A3CBC3
:0400470034450C1D13
:040048002972C90B45
:040049002EEC7D3DDF
:04004A003D446016BB
:04004B000C27ECE6AC
:04004C002413C2EFC8
:04004D00239A813140
:04004E00273C6F5B81
:04004F0030055436EE
:04005000398A5EA9E2
:040051002E2B1486B8
:040052000884E447F3
:04005300216F26E80B
:0400540018706E248E
:04005500356767F1B3
:0400560005D2A79890
:040057002B3502F94A
:040058002531D3C0BB
:040059002242ABDFB5
:04005A002130B51884
:04005B003376D2E046
:04005C0035CA299ADE
:04005D002615729D55
:04005E00371EDAF679
:04005F0013AFFA469B
:040060000570D579D9
:04006100069A5FE6B6
:0400620011A1CC73A9
:040063000C1DC68228
:0400640014C27A6DDB
:040065002CD52F68FF
:0400660027C170241A
:0400670012D772C377
:0400680002D16FB89A
:0400690034EA27D777
:04006A0021020D85DD
:04006B002589CBC850
:04006C00382A589442
:04006D003B0496A713
:04006E002E71D061BE
:04006F002F7688D38D
:040070002FB69B11FB
:040071002059876427
:040072003E9BD61DBE
:04007300257B7AF37C
:040074002E6AC7C069
:040075002242BC0F58
:04007600047FBCAD9A
:040077001F2F699B33
:040078001A9E9DDA55
:0400790035A1995FB5
:04007A002B81C70F00
:04007B003D86485E18
:04007C003AD8BD3978
:04007D001FF2CD128F
:04007E001C03DC91F2
:04007F00364639C305
:040080000B10A32C92
:040081001861DBB077
:04008200184292800E
:0400830002570BD144
:0400840027F193CFFE
:04008500249CB1DC2A
:0400860020283A9460
:040087002372EFB23F
:04008800047B327E45
:0400890015926D63FC
:04008A000B205BC12B
:04008B0023C036AAAE
:04008C00349F5D63DD
:04008D00208F03B10C
:04008E001FCE8109F7
:04008F002552330DB6
:0400900010C82086EE
:040091002E0F3EAE42
:040092002A46CC7EB0
:0400930032CADF147A
:040094002C38326270
:040095001044071FED
:040096001FFFF8A3AD
:04009700257714AE07
:0400980007E045FE3A
:0400990010196705CE
:04009A001083A781A7
:04009B000B4B79FF93
:04009C001513C2A5D1
:04009D00350E6D09A6
:04009E002DD618D66D
:04009F0019380DDA25
:0400A0003878ABD42D
:0400A1000FCEDBE5BE
:0400A20013F16321D2
:0400A30000AA9F8888
:0400A40009EF6AD521
:0400A50013C026BF9F
:0400A600058BF5D100
:0400A70023AE63E43D
:0400A800361A2241A1
:0400A9003244C347D3
:0400AA00363430991F
:0400AB0024556390E5
:0400AC000891C95599
:0400AD0023DD1B54E0
:0400AE0030674088EF
:0400AF001E7746680A
:0400B00037FC46646F
:0400B10008CEB8F1CC
:0400B20002267C782E
:0400B30004D0B0F7CE
:0400B4002DD34BE617
:0400B50020FE16ED26
:0400B6002AA5DA3568
:0400B7000CD7A0843E
:0400B8002150E7EFFD
:0400B9001DA1C4DCE5
:0400BA003E983B3DF4
:0400BB0021C367BE38
:0400BC002878B3D31A
:0400BD0029C5334DD1
:0400BE0009E8A2802B
:0400BF000189F3E7D9
:0400C00015BA32D566
:0400C10009F79A4859
:0400C2002F6B35DA91
:0400C300160CEADD50
:0400C400398940082E
:0400C5001FB1042B38
:0400C6003D045DDABE
:0400C70016D09EAF02
:0400C80000038C3C69
:0400C900143FFBCB1A
:0400CA000B19BFFC53
:0400CB003164316902
:0400CC00047859F764
:0400CD002222636127
:0400CE0012189D79EE
:0400CF0037A41CEF47
:0400D0001C18C8AA86
:0400D100147B75F82F
:0400D20026591DDAB4
:0400D300266000782B
:0400D4001EB42FFF28
:0400D50026E95A2698
:0400D60028EC94AAD4
:0400D7000C4CE8C520
:0400D8000DDE09151B
:0400D9000CF6F266C9
:0400DA00162BFA796E
:0400DB00007D306E06
:0400DC00276BE28D1F
:0400DD0029E40C0FF7
:0400DE003C14108F2F
:0400DF000A23BB50E5
:0400E0003AEFEBE127
:0400E1002B76D17A2F
:0400E2003A66FDFD80
:0400E3002979B4EED5
:0400E400153A5798DA
:0400E500086A12B6DD
:0400E60029255A6B03
:0400E700073616BF03
:0400E80019F28DE498
:0400E90001E3CB71F3
:0400EA002310C77A9E
:0400EB00024E4C363F
:0400EC0010D23DB53C
:0400ED002636A8000B
:0400EE003DB3C1E07D
:0400EF002166381836
:0400F0001C3F91CD53
:0400F10012F855B4F8
:0400F2002CD81FD314
:0400F300153F4CC1A8
:0400F4003A14FFB10A
:0400F500246847CE66
:0400F600167C25341B
:0400F7003CF0A23205
:0400F80029B32923DC
:0400F90001B4A8990D
:0400FA0000972064E7
:0400FB003C87EECC84
:0400FC001ADFF423F0
:0400FD002A8C27F32F
:0400FE003B41AB01D6
:0400FF0004A2F64120
:040100002BFB2E4760
:040101000681B7BEFE
:0401020037A5133CCE
:04010300351AD04297
:0401040008B8E6BB96
:040105002D32404116
:040106001FF75C4241
:040107003CC478F884
:040108003081446698
:040109001B5A2F014D
:04010A002C1B038126
:04010B003DA6FE6EA1
:04010C00297648CB3D
:04010D002FAD534E71
:04010E001DBBBC9FBA
:04010F001A5AC0B206
:040110001ABBCC99B1
:04011100015711522F
:0401120037B11940A8
:040113000E1A9E889A
:040114002EE35B87F4
:04011500164E11D49D
:0401160025DEA744F7
:040117002E888FDBC4
:0401180012E65D7717
:040119002AC57D5521
:04011A0003B0D9BC99
:04011B000C5A1C045A
:04011C001E081FDAC0
:04011D001D7826051E
:04011E0038DA139F19
:04011F00392D6F0205
:0401200036088864B1
:04012100338D4DFDD0
:0401220012CDB2C97F
:040123000C8D060534
:040124000F4CF0107C
:0401250030C9935CEE
:040126001D9CBE6DF1
:04012700214DD46032
:040128002782E5DE67
:040129001275E2A5C4
:04012A00109ED093C0
:04012B0031AAEFAB5B
:04012C0031CE220CA2
:04012D0006CD7591F5
:04012E001CC7BAE14F
:04012F00277979E0D3
:040130001136A67866
:040131001D0CEEFCB7
:040132000CF50AF6C8
:040133003EDF054F57
:0401340025BE8862FA
:0401350039E44FAFAB
:040136000A8244AC49
:04013700271DC8B305
:040138003E25F39FCE
:0401390037B898BA81
:04013A000321838892
:04013B001D289831B2
:04013C002B79335692
:04013D002E07593CF4
:04013E00120593A46F
:04013F003998C26BBE
:040140002090B70D47
:0401410001CDE08587
:040142001A9967D6C9
:040143002E96E669A5
:0401440012CB345F47
:0401450033521B4CCA
:04014600225469CF07
:04014700079A1EAE47
:04014800383DAEAEE2
:040149000F525D7C78
:04014A003736F8004C
:04014B002167EF3AFF
:04014C003D1A983F81
:04014D00130BEF5B46
:04014E002764DAC187
:04014F001F35864B87
:0401500031BE7CE25E
:0401510038EB8FFCFC
:040152002C416CB719
:04015300184DC4106F
:040154001BDE10039B
:040155002152D3C29E
:04015600099C5F3B66
:040157003887F89D50
:040158003791F54C9A
:0401590005F940461E
:04015A000B0C739A7D
:04015B001A3C5BE609
:04015C000D64E90243
:04015D000436B49917
:04015E0033D69C8A6E
:04015F003E63E445D2
:04016000055CDDE776
:040161000688F8E82C
:040162000103DFFBBB
:0401630030C868D167
:040164001CFDAA973D
:040165002E7E7CA9C5
:0401660026AE44DF9E
:040167001E4B0B42DE
:04016800265906F816
:04016900292AE19CC2
:04016A000CCB28048E
:04016B00262FBA433E
:04016C00110FF696E3
:04016D0036C16BD359
:04016E003DEA98F7D7
:04016F000F7E16A940
:04017000001386B240
:04017100267EC369BA
:0401720039A301DBD1
:040173002364099068
:0401740005DC304A2C
:040175000EAA524735
:040176001EEAC58E2A
:040177001517A8D7D9
:040178003A4407BB43
:040179000E35A56B2F
:04017A003BBAAD1BC4
:04017B000E35486C89
:04017C000D42FCC76D
:04017D0001B81F8F17
:04017E00213CB92344
:04017F00063115A987
:04018000346C2F5D4F
:040181000330C80F70
:040182000286B73CFE
:040183002E04516D88
:040184001BBC4191CE
:040185001BAAC76C7E
:040186001A53870C75
:0401870026D067F126
:040188002B762C7630
:0401890016CEF91481
:04018A000F872AFAB7
:04018B00058DA9AC89
:04018C00094023CB38
:04018D002DD7B4DDD9
:04018E001A7FC6CB43
:04018F00208C9BDD48
:040190000B9DADDD39
:0401910007D9E36E39
:0401920016C22EEA79
:040193002C9D38095E
:040194002E28E967C1
:0401950004116A46A1
:040196001C310F49C0
:040197003EEF594797
:0401980018CC6A7D98
:040199000D5A1EA03D
:04019A0002CE0DD7AD
:04019B0017D7927C64
:04019C000815F8CC7E
:04019D003BF9B787EC
:04019E000EBF816DA2
:04019F00321C98B7BF
:0401A00038FFD4DC74
:0401A1003C19DCDE4B
:0401A2000D32A07CFE
:0401A30007C57ABA58
:0401A4000AAEFC4F54
:0401A5001D91AB27D6
:0401A6002283B2C23C
:0401A700012B14779D
:0401A8002F5E027153
:0401A90013935D88C7
:0401AA000FED98B805
:0401AB0011B43969E9
:0401AC000572755E05
:0401AD0008F571439D
:0401AE0012DA637688
:0401AF0032C660BB39
:0401B00009487B1768
:0401B100311C5F3965
:0401B200172D7EB3D4
:0401B30013D94364B5
:0401B400324B7FBE8D
:0401B500376138B1C5
:0401B60032F8765154
:0401B700142C63C5DC
:0401B8003C7FB08256
:0401B90005617481E7
:0401BA002031527B23
:0401BB00267D56B394
:0401BC00144C7387E5
:0401BD0007296F0798
:0401BE0031BBE3CCA2
:0401BF002DEBEC88B0
:0401C0000B336E98F7
:0401C1002E9A17411A
:0401C200147E3EEC7D
:0401C3000C4C1E863C
:0401C400091FD87ABD
:0401C5003290DB1E7B
:0401C60007BC4955D4
:0401C7001E5000586E
:0401C8003A3C321F6C
:0401C90023909AA93C
:0401CA00376A2F451C
:0401CB001CB7E95222
:0401CC0019BCD9FE83
:0401CD0031470F2F78
:0401CE002559EA4A7B
:0401CF00267C8D6D90
:0401D000334F141F76
:0401D1002435059F2D
:0401D2000B8BE1EBC7
:0401D3002A2250513B
:0401D4003902BD67C8
:0401D50006357E70FD
:0401D6002B967C4D9B
:0401D7001B5B058029
:0401D80021F11E2CC7
:0401D9001ED2D3E37C
:0401DA0015B9C78705
:0401DB003C3EBC6684
:0401DC001171A32ECC
:0401DD000316DBE446
:0401DE000FAA41968D
:0401DF00165BDBFCD4
:0401E0003482EB3941
:0401E1003C9C72DBF5
:0401E2001FADA2D1DA
:0401E3000EEC0EBC54
:0401E4002F1AFDD3FE
:0401E50024E0FC0412
:0401E600382D590F48
:0401E7001F3DE39045
:0401E800044F9BE441
:0401E90021ACBB8DFD
:0401EA003CA9C3D594
:0401EB00313E701A17
:0401EC00106827026E
:0401ED00014219B3FF
:0401EE0022C5925440
:0401EF001C44660541
:0401F0000B670DFF8D
:0401F100047D5057E2
:0401F200366156AC70
:0401F30014DFE384AE
:0401F400079FBC4461
:0401F50012D577D8D0
:0401F60017383985F8
:0401F7000FC8D6FF58
:0401F8001A53ABC922
:0401F90031082FF3A7
:0401FA001E825EB94A
:0401FB0014B1E777DD
:0401FC0034D96E6E16
:0401FD0038A81DCE33
:0401FE00396990B417
:0401FF0018DBB99EB2
:0402000000000001F9
:040201003580637B66
:040202000C1B337C22
:040203001F81729A4B
:04020400060ECB54C3
:04020500209F8ABBF1
:04020600194E1192EA
:040207000C5DCCB40A
:040208000AC1229B6A
:040209003B7A5C9B45
:04020A001FF9540C78
:04020B00213157C284
:04020C0009E967A7EE
:04020D001CC6790E84
:04020E003201A3B165
:04020F002882291EFA
:04021000368D54993A
:0402110028ED251E91
:0402120000358254DD
:040213001E66A38D33
:040214001B9B93138A
:0402150005CB08BD50
:04021600190A39BECA
:0402170020A7C274E6
:040218003DB6670781
:04021900189C10DB42
:04021A002A47ED532F
:04021B001A918DECBB
:04021C00082E8046E2
:04021D00123F1ADA98
:04021E00157B649553
:04021F003AF660C685
:040220000EF4199A25
:040221000EDA4D9212
:04022200229C18DB27
:040223003234A2A926
:040224001CE13E1883
:0402250018926ECCF1
:0402260005337268C2
:040227002F12EBC7E0
:0402280011C6271DB7
:040229000CD2F62CD1
:04022A0007C1EB41DC
:04022B003BF6D43E8C
:04022C001621175D23
:04022D0026C1D5AB66
:04022E0012A4AF1F48
:04022F00026A022835
:040230000D2F69A97C
:040231001D08323042
:040232001505E58544
:0402330019EAF8D1FB
:040234001D90F4CC59
:040235003E2987A532
:040236001CE0054E75
:0402370016EF11812C
:040238000CE5EEB330
:040239002B436AC326
:04023A00398B74ED9B
:04023B00007438AB68
:04023C000A269BC033
:04023D0010102BA3CF
:04023E00202F167BDC
:04023F0028C102D000
:040240002EDA5C7BDB
:040241002576F7F631
:040242003DC849204A
:040243001D642C14F6
:040244003603FC423F
:040245003E52C05E07
:04024600201ACB0DA2
:040247000876794478
:040248002980D01029
:040249000786C3421F
:04024A003BC542D995
:04024B0039304A6894
:04024C003C0AD16334
:04024D003E600B5AAA
:04024E002941FAC781
:04024F001F6871149F
:0402500004017D0325
:04025100331FEA92DB
:0402520024B3FDE3F1
:040253001EDA7295A8
:040254001D2DBE435B
:0402550006F3A4BB4D
:0402560010FC630530
:04025700224FE4F15D
:04025800084CF22A32
:040259001591214E8C
:04025A002B7120954F
:04025B000D7B30598E
:04025C000A16569E8A
:04025D002140A13764
:04025E0029B4F4CB00
:04025F00134C6C557B
:04026000363F4806D7
:0402610010129205E0
:040262001D04238EC6
:04026300189DAA290F
:04026400387464097D
:0402650026A40B03BD
:040266002206A8685C
:04026700289A1B12A4
:04026800192B988135
:040269000BB958C5B0
:04026A0014A3BC100D
:04026B003C3435E505
:04026C0031BE7078B7
:04026D001C229A7B3A
:04026E000F2E1572C8
:04026F0034B19241D3
:04027000046AF7A184
:040271003E774FA9DC
:04027200269694F246
:0402730024C9CB329D
:04027400367F1E5F54
:04027500305CBC7AC3
:040276001D926BB7B3
:040277002DC14D0147
:040278000CB7280D8A
:0402790012DF8549C2
:04027A002B0F28BE60
:04027B000254342EC7
:04027C0022384B4891
:04027D0011A5D046B1
:04027E001A3F920190
:04027F001FBC3DCA99
:040280000DD8071F6F
:0402810006513844A6
:0402820021AA41C4A8
:040283003321E07CC7
:04028400165CF8DD2F
:040285002E70CD6E9C
:0402860037C6E5E7AB
:040287000FACB33ACB
:04028800069824EAC6
:040289000DADE4B122
:04028A000E35F0201D
:04028B00099BC443C4
:04028C00283B432C9C
:04028D000BBC8075B1
:04028E0009862F5F4F
:04028F00317AE3DC01
:0402900029EF1C3AFC
:040291000AE3E28713
:0402920031C7508F91
:040293002D67A00C27
:04029400092A80C2F1
:0402950038E52D47D4
:0402960005EFE198F7
:040297000923CD5218
:04029800241E57FDCC
:0402990022AAF1277D
:04029A002E5F563F3E
:04029B0031424C455B
:04029C000A8EF715BA
:04029D00318541BFA7
:04029E0039B8326ACF
:04029F001864974008
:0402A00037E8B14644
:0402A100282A70385F
:0402A2003ED114A392
:0402A3000B40A13B30
:0402A4000B0FC0027A
:0402A50002140681B8
:0402A6000D66F9AA3E
:0402A700095B903728
:0402A80021202A5394
:0402A9001E553E9C04
:0402AA000D2DA7BBB4
:0402AB0035EA791F98
:0402AC002967E2BE1E
:0402AD001EA334C395
:0402AE0025E9C3FD7E
:0402AF0034B57BE502
:0402B00032FB526269
:0402B10033CB66865F
:0402B20010E63471AD
:0402B3003E2F20A614
:0402B40019A72A3B21
:0402B500044A4D7B2F
:0402B6002AC49E5167
:0402B7002C5AE03BA2
:0402B8000918DC3C09
:0402B90038124C5E4D
:0402BA001DC6E30773
:0402BB001975FC8035
:0402BC002883CC8641
:0402BD001256AB37F3
:0402BE000155B2DB59
:0402BF00121D4D0CB3
:0402C00026FB915434
:0402C10010CB26C177
:0402C200239B79827F
:0402C300161FAC80D6
:0402C40038C93ACB30
:0402C500363C2AD7C2
:0402C600092D04C436
:0402C700269D3D0E25
:0402C8003A29BCC053
:0402C9003630D84EA5
:0402CA000C6300B011
:0402CB00111F24F6E5
:0402CC00299DBE9515
:0402CD002EC23733D3
:0402CE002806BA4EF6
:0402CF000AE586A610
:0402D0002C2FC37F8D
:0402D1001159FB4A7A
:0402D2003E7337350B
:0402D300289D7408E6
:0402D4002E1BA095A8
:0402D5000A12CD2B11
:0402D6001D611F4740
:0402D7000BDC262BEB
:0402D8001DC54C2FC5
:0402D9001CF6546556
:0402DA00242A021EB2
:0402DB0005E688D6D6
:0402DC001143131F98
:0402DD00273C800C2E
:0402DE002247D5A33B
:0402DF0038C946C80C
:0402E0001BE4BA362B
:0402E1000BB538021F
:0402E2000978174040
:0402E3000AC5499C63
:0402E4003682F5E782
:0402E50020D39F295A
:0402E6003E6E2C80BC
:0402E700335998B837
:0402E80026425A0F41
:0402E9003EBB4814BC
:0402EA003AF6910F40
:0402EB0031675EA772
:0402EC002E8332A685
:0402ED000E4A8E9C8B
:0402EE003CB458F8CC
:0402EF002082C4673E
:0402F0003558BE07B8
:0402F100292C8841EB
:0402F200379AD1BBAB
:0402F30001E771B4FA
:0402F40032CE1514DD
:0402F5003DE0382090
:0402F60029C4AB4329
:0402F70002F4264A9D
:0402F80003B28CCBF6
:0402F9000FF7E99D75
:0402FA003333A7F5FE
:0402FB000CD47FD5CB
:0402FC001F021BFBC7
:0402FD000974E16A35
:0402FE00393364111B
:0402FF002AA1DE4012
:040300001A878B9F2E
:04030100337C1F58D2
:040302002FD3932E34
:040303000A87BA4764
:0403040025A58702A2
:040305001AA918D940
:0403060005F3E65BBA
:04030700011E15ECD2
:040308000FE3B9A79F
:04030900034DA1BA45
:04030A0004E924429C
:04030B0018C5CFB989
:04030C0026F303DFF2
:04030D00214A34D17C
:04030E002B6B4AC744
:04030F001B4BC1962D
:040310003C59DC096F
:04031100127D32B374
:040312000F5502E899
:04031300048138C663
:040314003B7F02D950
:0403150008D33A8B44
:040316003CC152F59F
:040317000828B16D94
:040318002E8BBCE587
:0403190022B416559F
:04031A00329D3829AF
:04031B0009D8B670D7
:04031C002CCF3D6045
:04031D00165C0D9CC1
:04031E001C766A15CA
:04031F0008CC2CA535
:0403200018F3B1D548
:0403210011207F38F0
:040322001FC27C1862
:0403230037EAD2994A
:040324002541BCC3F0
:0403250032FD58FF4E
:0403260035F19251CA
:040327001A694BC83C
:040328001655019CC9
:040329003345A2DBDB
:04032A002D4FB77B21
:04032B0014820071C7
:04032C0016E53CC5D1
:04032D0005285EB889
:04032E003564CF90D3
:04032F000B76AF0C8E
:04033000374A491AE5
:040331003373F64FDD
:0403320036F04FCF83
:04033300365DA08E05
:040334001729EAD1CA
:040335002A2C47DE49
:040336001DE44D1560
:0403370010EA5D4D1E
:040338001F104D97AE
:040339002ED1FC11B4
:04033A000C26C509BF
:04033B000220140F79
:04033C003B8D293F8D
:04033D000EA519C62A
:04033E001D8185EDAB
:04033F002084225D97
:040340000A1DDBE0D7
:0403410003C7CA2004
:040342000A0A349DD2
:0403430036A036C2E8
:0403440006BD9E76DE
:0403450005F897C858
:040346000CD07F80D8
:0403470007E07A77DA
:040348001EFD8E2EDA
:0403490031BA5772FC
:04034A001B10BDE7E0
:04034B00141C8E39B7
:04034C000529E58218
:04034D002D876495FF
:04034E00046BEBC28F
:04034F002B3C8F179D
:040350000AAA38FEBF
:040351000CE3DEE6F5
:04035200111B4CB679
:0403530023FF5C1A0E
:040354003539756E54
:040355001E841043AF
:0403560004283056F1
:040357002AA84AACDA
:040358000505F25352
:0403590006D4EB805B
:04035A000189AD6107
:04035B003E14538574
:04035C000B799DF28A
:04035D001D1B859B44
:04035E0025A8EF5986
:04035F00349AFA775B
:040360003E401DC935
:040361003E26E3CC85
:040362000EE09F47C3
:040363001BA0FB558B
:040364000EC90E5060
:040365003972D59480
:04036600115D298F6D
:040367001E246D8360
:040368001B0DFFE783
:040369002AAB98AE75
:04036A003E3C647A37
:04036B003E5E77D2A9
:04036C000D93D74BCB
:04036D001D4130C935
:04036E00099CF71AD5
:04036F00289ED0C430
:04037000100EBA9B16
:040371000C68E92FFC
:040372002819F1E372
:04037300337F864FFF
:0403740005ECACD612
:040375001855277878
:040376001C38C1D19D
:04037700223E6B1B9C
:0403780007387F8C37
:040379002D35D7C87F
:04037A00286F484759
:04037B002540328760
:04037C00221C092115
:04037D0018FCF50C67
:04037E0013B230F096
:04037F00098637D9DB
:0403800021661D468F
:04038100368983B185
:0403820039114BAE34
:0403830022B6D5C603
:040384003CE590C6FE
:040385000C2B6CEEE3
:04038600045659645C
:040387002C9F36046D
:040388003560BF2FEE
:040389001C00C1672C
:04038A001AACCF23B7
:04038B001387F27F63
:04038C001AA0691139
:04038D001D4C7AB4D5
:04038E003075C4976B
:04038F00367743FC7E
:0403900030A1320A5C
:0403910005BB6D46F5
:0403920012F0C5524E
:04039300194DBFF948
:040394003380B2867A
:0403950005B5312F4A
:0403960018424D6458
:0403970039FC42B239
:040398000EC26D45DF
:040399002559D630DC
:04039A0004C23D80DC
:04039B000A28F7FD38
:04039C00297C128E18
:04039D003C7A76DC54
:04039E001A937B2F04
:04039F003A22C55EDB
:0403A0002B2B017989
:0403A100206DFE17B6
:0403A2003E062C4E99
:0403A300204687FE6B
:0403A40030E64A8F66
:0403A5002856EF18CF
:0403A600135CDBFB0E
:0403A7000C9427BECD
:0403A80028658F79BC
:0403A9001E35002BD2
:0403AA0015ED59D71D
:0403AB00051EEA5EE3
:0403AC00024322C620
:0403AD00079036C9B6
:0403AE001E84F1F4C4
:0403AF00196B539FD4
:0403B00030D6B4048B
:0403B100069F17E1AB
:0403B2001B743EDE9C
:0403B3001D2E7EBFBE
:0403B400231770C4D7
:0403B5003DCE2E14F7
:0403B6000C6E873A08
:0403B70028165C5652
:0403B80021AC30291B
:0403B9000046D5F233
:0403BA001FD931BC5A
:0403BB00009738D29D
:0403BC003479067B0F
:0403BD00306A48DE7C
:0403BE000BBC08D696
:0403BF0010729E9D7D
:0403C00010AF5CD747
:0403C1003373946E90
:0403C200091F98DD9A
:0403C3001C6B7763D5
:0403C4001930087074
:0403C50006D0C87422
:0403C600326AB67071
:0403C7002DF4C151FF
:0403C8002347429CE9
:0403C900103DE78D6F
:0403CA0010E50242F6
:0403CB002D84DB376B
:0403CC00282EB955C9
:0403CD0004FAC867FF
:0403CE003E5AFF5A3A
:0403CF0025358087C9
:0403D0002E63997A85
:0403D1001222CB73B6
:0403D2001B9C76DD1D
:0403D3002B9ED74145
:0403D4002E7FA1CB0C
:0403D5000E324BFF9A
:0403D6003CFE3D6547
:0403D70002A2E36536
:0403D80002CDE4FC72
:0403D9002AF8833843
:0403DA00247B18ADBB
:0403DB002330C6FF06
:0403DC002D0DE6639A
:0403DD0001562DC6D2
:0403DE0011E0D485D1
:0403DF00198CD4861B
:0403E000193C809FA5
:0403E10031AE1BCB53
:0403E2003C20E47B5C
:0403E3001902BE6BD2
:0403E4002904C3EF36
:0403E50018E5920F76
:0403E6000BE9A93C3A
:0403E700046F5D59E9
:0403E80004AE9A982D
:0403E90014D2A9A4DD
:0403EA003D58B8A51D
:0403EB000410FA728E
:0403EC00316DF2AAD3
:0403ED0026FBE244C5
:0403EE000366954CC1
:0403EF0009B26E32AF
:0403F000164314613B
:0403F1000E8211C1A6
:0403F20025A080388A
:0403F300320AFD1EAF
:0403F40032AD55E9E8
:0403F5002BA2903D6A
:0403F6000D77CD2A88
:0403F700122D62D78A
:0403F8001A1DE02CBE
:0403F90008C30E67C0
:0403FA00138FEF5618
:0403FB0015EF3FF7C4
:0403FC00234D3EB59A
:0403FD000B169CD06F
:0403FE000B1DF2CF12
:0403FF00307FA5B0F6
:0404000000000000F8
:0404010000000000F7
:0404020000000000F6
:0404030000000000F5
:0404040000000000F4
:0404050000000000F3
:0404060000000000F2
:0404070000000000F1
:0404080000000000F0
:0404090000000000EF
:04040A0000000000EE
:04040B0000000000ED
:04040C0000000000EC
:04040D0000000000EB
:04040E0000000000EA
:04040F0000000000E9
:0404100000000000E8
:0404110000000000E7
:0404120000000000E6
:0404130000000000E5
:0404140000000000E4
:0404150000000000E3
:0404160000000000E2
:0404170000000000E1
:0404180000000000E0
:0404190000000000DF
:04041A0000000000DE
:04041B0000000000DD
:04041C0000000000DC
:04041D0000000000DB
:04041E0000000000DA
:04041F0000000000D9
:0404200000000000D8
:0404210000000000D7
:0404220000000000D6
:0404230000000000D5
:0404240000000000D4
:0404250000000000D3
:0404260000000000D2
:0404270000000000D1
:0404280000000000D0
:0404290000000000CF
:04042A0000000000CE
:04042B0000000000CD
:04042C0000000000CC
:04042D0000000000CB
:04042E0000000000CA
:04042F0000000000C9
:0404300000000000C8
:0404310000000000C7
:0404320000000000C6
:0404330000000000C5
:0404340000000000C4
:0404350000000000C3
:0404360000000000C2
:0404370000000000C1
:0404380000000000C0
:0404390000000000BF
:04043A0000000000BE
:04043B0000000000BD
:04043C0000000000BC
:04043D0000000000BB
:04043E0000000000BA
:04043F0000000000B9
:0404400000000000B8
:0404410000000000B7
:0404420000000000B6
:0404430000000000B5
:0404440000000000B4
:0404450000000000B3
:0404460000000000B2
:0404470000000000B1
:0404480000000000B0
:0404490000000000AF
:04044A0000000000AE
:04044B0000000000AD
:04044C0000000000AC
:04044D0000000000AB
:04044E0000000000AA
:04044F0000000000A9
:0404500000000000A8
:0404510000000000A7
:0404520000000000A6
:0404530000000000A5
:0404540000000000A4
:0404550000000000A3
:0404560000000000A2
:0404570000000000A1
:0404580000000000A0
:04045900000000009F
:04045A00000000009E
:04045B00000000009D
:04045C00000000009C
:04045D00000000009B
:04045E00000000009A
:04045F000000000099
:040460000000000098
:040461000000000097
:040462000000000096
:040463000000000095
:040464000000000094
:040465000000000093
:040466000000000092
:040467000000000091
:040468000000000090
:04046900000000008F
:04046A00000000008E
:04046B00000000008D
:04046C00000000008C
:04046D00000000008B
:04046E00000000008A
:04046F000000000089
:040470000000000088
:040471000000000087
:040472000000000086
:040473000000000085
:040474000000000084
:040475000000000083
:040476000000000082
:040477000000000081
:040478000000000080
:04047900000000007F
:04047A00000000007E
:04047B00000000007D
:04047C00000000007C
:04047D00000000007B
:04047E00000000007A
:04047F000000000079
:040480000000000078
:040481000000000077
:040482000000000076
:040483000000000075
:040484000000000074
:040485000000000073
:040486000000000072
:040487000000000071
:040488000000000070
:04048900000000006F
:04048A00000000006E
:04048B00000000006D
:04048C00000000006C
:04048D00000000006B
:04048E00000000006A
:04048F000000000069
:040490000000000068
:040491000000000067
:040492000000000066
:040493000000000065
:040494000000000064
:040495000000000063
:040496000000000062
:040497000000000061
:040498000000000060
:04049900000000005F
:04049A00000000005E
:04049B00000000005D
:04049C00000000005C
:04049D00000000005B
:04049E00000000005A
:04049F000000000059
:0404A0000000000058
:0404A1000000000057
:0404A2000000000056
:0404A3000000000055
:0404A4000000000054
:0404A5000000000053
:0404A6000000000052
:0404A7000000000051
:0404A8000000000050
:0404A900000000004F
:0404AA00000000004E
:0404AB00000000004D
:0404AC00000000004C
:0404AD00000000004B
:0404AE00000000004A
:0404AF000000000049
:0404B0000000000048
:0404B1000000000047
:0404B2000000000046
:0404B3000000000045
:0404B4000000000044
:0404B5000000000043
:0404B6000000000042
:0404B7000000000041
:0404B8000000000040
:0404B900000000003F
:0404BA00000000003E
:0404BB00000000003D
:0404BC00000000003C
:0404BD00000000003B
:0404BE00000000003A
:0404BF000000000039
:0404C0000000000038
:0404C1000000000037
:0404C2000000000036
:0404C3000000000035
:0404C4000000000034
:0404C5000000000033
:0404C6000000000032
:0404C7000000000031
:0404C8000000000030
:0404C900000000002F
:0404CA00000000002E
:0404CB00000000002D
:0404CC00000000002C
:0404CD00000000002B
:0404CE00000000002A
:0404CF000000000029
:0404D0000000000028
:0404D1000000000027
:0404D2000000000026
:0404D3000000000025
:0404D4000000000024
:0404D5000000000023
:0404D6000000000022
:0404D7000000000021
:0404D8000000000020
:0404D900000000001F
:0404DA00000000001E
:0404DB00000000001D
:0404DC00000000001C
:0404DD00000000001B
:0404DE00000000001A
:0404DF000000000019
:0404E0000000000018
:0404E1000000000017
:0404E2000000000016
:0404E3000000000015
:0404E4000000000014
:0404E5000000000013
:0404E6000000000012
:0404E7000000000011
:0404E8000000000010
:0404E900000000000F
:0404EA00000000000E
:0404EB00000000000D
:0404EC00000000000C
:0404ED00000000000B
:0404EE00000000000A
:0404EF000000000009
:0404F0000000000008
:0404F1000000000007
:0404F2000000000006
:0404F3000000000005
:0404F4000000000004
:0404F5000000000003
:0404F6000000000002
:0404F7000000000001
:0404F8000000000000
:0404F90000000000FF
:0404FA0000000000FE
:0404FB0000000000FD
:0404FC0000000000FC
:0404FD0000000000FB
:0404FE0000000000FA
:0404FF0000000000F9
:0405000000000000F7
:0405010000000000F6
:0405020000000000F5
:0405030000000000F4
:0405040000000000F3
:0405050000000000F2
:0405060000000000F1
:0405070000000000F0
:0405080000000000EF
:0405090000000000EE
:04050A0000000000ED
:04050B0000000000EC
:04050C0000000000EB
:04050D0000000000EA
:04050E0000000000E9
:04050F0000000000E8
:0405100000000000E7
:0405110000000000E6
:0405120000000000E5
:0405130000000000E4
:0405140000000000E3
:0405150000000000E2
:0405160000000000E1
:0405170000000000E0
:0405180000000000DF
:0405190000000000DE
:04051A0000000000DD
:04051B0000000000DC
:04051C0000000000DB
:04051D0000000000DA
:04051E0000000000D9
:04051F0000000000D8
:0405200000000000D7
:0405210000000000D6
:0405220000000000D5
:0405230000000000D4
:0405240000000000D3
:0405250000000000D2
:0405260000000000D1
:0405270000000000D0
:0405280000000000CF
:0405290000000000CE
:04052A0000000000CD
:04052B0000000000CC
:04052C0000000000CB
:04052D0000000000CA
:04052E0000000000C9
:04052F0000000000C8
:0405300000000000C7
:0405310000000000C6
:0405320000000000C5
:0405330000000000C4
:0405340000000000C3
:0405350000000000C2
:0405360000000000C1
:0405370000000000C0
:0405380000000000BF
:0405390000000000BE
:04053A0000000000BD
:04053B0000000000BC
:04053C0000000000BB
:04053D0000000000BA
:04053E0000000000B9
:04053F0000000000B8
:0405400000000000B7
:0405410000000000B6
:0405420000000000B5
:0405430000000000B4
:0405440000000000B3
:0405450000000000B2
:0405460000000000B1
:0405470000000000B0
:0405480000000000AF
:0405490000000000AE
:04054A0000000000AD
:04054B0000000000AC
:04054C0000000000AB
:04054D0000000000AA
:04054E0000000000A9
:04054F0000000000A8
:0405500000000000A7
:0405510000000000A6
:0405520000000000A5
:0405530000000000A4
:0405540000000000A3
:0405550000000000A2
:0405560000000000A1
:0405570000000000A0
:04055800000000009F
:04055900000000009E
:04055A00000000009D
:04055B00000000009C
:04055C00000000009B
:04055D00000000009A
:04055E000000000099
:04055F000000000098
:040560000000000097
:040561000000000096
:040562000000000095
:040563000000000094
:040564000000000093
:040565000000000092
:040566000000000091
:040567000000000090
:04056800000000008F
:04056900000000008E
:04056A00000000008D
:04056B00000000008C
:04056C00000000008B
:04056D00000000008A
:04056E000000000089
:04056F000000000088
:040570000000000087
:040571000000000086
:040572000000000085
:040573000000000084
:040574000000000083
:040575000000000082
:040576000000000081
:040577000000000080
:04057800000000007F
:04057900000000007E
:04057A00000000007D
:04057B00000000007C
:04057C00000000007B
:04057D00000000007A
:04057E000000000079
:04057F000000000078
:040580000000000077
:040581000000000076
:040582000000000075
:040583000000000074
:040584000000000073
:040585000000000072
:040586000000000071
:040587000000000070
:04058800000000006F
:04058900000000006E
:04058A00000000006D
:04058B00000000006C
:04058C00000000006B
:04058D00000000006A
:04058E000000000069
:04058F000000000068
:040590000000000067
:040591000000000066
:040592000000000065
:040593000000000064
:040594000000000063
:040595000000000062
:040596000000000061
:040597000000000060
:04059800000000005F
:04059900000000005E
:04059A00000000005D
:04059B00000000005C
:04059C00000000005B
:04059D00000000005A
:04059E000000000059
:04059F000000000058
:0405A0000000000057
:0405A1000000000056
:0405A2000000000055
:0405A3000000000054
:0405A4000000000053
:0405A5000000000052
:0405A6000000000051
:0405A7000000000050
:0405A800000000004F
:0405A900000000004E
:0405AA00000000004D
:0405AB00000000004C
:0405AC00000000004B
:0405AD00000000004A
:0405AE000000000049
:0405AF000000000048
:0405B0000000000047
:0405B1000000000046
:0405B2000000000045
:0405B3000000000044
:0405B4000000000043
:0405B5000000000042
:0405B6000000000041
:0405B7000000000040
:0405B800000000003F
:0405B900000000003E
:0405BA00000000003D
:0405BB00000000003C
:0405BC00000000003B
:0405BD00000000003A
:0405BE000000000039
:0405BF000000000038
:0405C0000000000037
:0405C1000000000036
:0405C2000000000035
:0405C3000000000034
:0405C4000000000033
:0405C5000000000032
:0405C6000000000031
:0405C7000000000030
:0405C800000000002F
:0405C900000000002E
:0405CA00000000002D
:0405CB00000000002C
:0405CC00000000002B
:0405CD00000000002A
:0405CE000000000029
:0405CF000000000028
:0405D0000000000027
:0405D1000000000026
:0405D2000000000025
:0405D3000000000024
:0405D4000000000023
:0405D5000000000022
:0405D6000000000021
:0405D7000000000020
:0405D800000000001F
:0405D900000000001E
:0405DA00000000001D
:0405DB00000000001C
:0405DC00000000001B
:0405DD00000000001A
:0405DE000000000019
:0405DF000000000018
:0405E0000000000017
:0405E1000000000016
:0405E2000000000015
:0405E3000000000014
:0405E4000000000013
:0405E5000000000012
:0405E6000000000011
:0405E7000000000010
:0405E800000000000F
:0405E900000000000E
:0405EA00000000000D
:0405EB00000000000C
:0405EC00000000000B
:0405ED00000000000A
:0405EE000000000009
:0405EF000000000008
:0405F0000000000007
:0405F1000000000006
:0405F2000000000005
:0405F3000000000004
:0405F4000000000003
:0405F5000000000002
:0405F6000000000001
:0405F7000000000000
:0405F80000000000FF
:0405F90000000000FE
:0405FA0000000000FD
:0405FB0000000000FC
:0405FC0000000000FB
:0405FD0000000000FA
:0405FE0000000000F9
:0405FF0000000000F8
:0406000000000000F6
:0406010000000000F5
:0406020000000000F4
:0406030000000000F3
:0406040000000000F2
:0406050000000000F1
:0406060000000000F0
:0406070000000000EF
:0406080000000000EE
:0406090000000000ED
:04060A0000000000EC
:04060B0000000000EB
:04060C0000000000EA
:04060D0000000000E9
:04060E0000000000E8
:04060F0000000000E7
:0406100000000000E6
:0406110000000000E5
:0406120000000000E4
:0406130000000000E3
:0406140000000000E2
:0406150000000000E1
:0406160000000000E0
:0406170000000000DF
:0406180000000000DE
:0406190000000000DD
:04061A0000000000DC
:04061B0000000000DB
:04061C0000000000DA
:04061D0000000000D9
:04061E0000000000D8
:04061F0000000000D7
:0406200000000000D6
:0406210000000000D5
:0406220000000000D4
:0406230000000000D3
:0406240000000000D2
:0406250000000000D1
:0406260000000000D0
:0406270000000000CF
:0406280000000000CE
:0406290000000000CD
:04062A0000000000CC
:04062B0000000000CB
:04062C0000000000CA
:04062D0000000000C9
:04062E0000000000C8
:04062F0000000000C7
:0406300000000000C6
:0406310000000000C5
:0406320000000000C4
:0406330000000000C3
:0406340000000000C2
:0406350000000000C1
:0406360000000000C0
:0406370000000000BF
:0406380000000000BE
:0406390000000000BD
:04063A0000000000BC
:04063B0000000000BB
:04063C0000000000BA
:04063D0000000000B9
:04063E0000000000B8
:04063F0000000000B7
:0406400000000000B6
:0406410000000000B5
:0406420000000000B4
:0406430000000000B3
:0406440000000000B2
:0406450000000000B1
:0406460000000000B0
:0406470000000000AF
:0406480000000000AE
:0406490000000000AD
:04064A0000000000AC
:04064B0000000000AB
:04064C0000000000AA
:04064D0000000000A9
:04064E0000000000A8
:04064F0000000000A7
:0406500000000000A6
:0406510000000000A5
:0406520000000000A4
:0406530000000000A3
:0406540000000000A2
:0406550000000000A1
:0406560000000000A0
:04065700000000009F
:04065800000000009E
:04065900000000009D
:04065A00000000009C
:04065B00000000009B
:04065C00000000009A
:04065D000000000099
:04065E000000000098
:04065F000000000097
:040660000000000096
:040661000000000095
:040662000000000094
:040663000000000093
:040664000000000092
:040665000000000091
:040666000000000090
:04066700000000008F
:04066800000000008E
:04066900000000008D
:04066A00000000008C
:04066B00000000008B
:04066C00000000008A
:04066D000000000089
:04066E000000000088
:04066F000000000087
:040670000000000086
:040671000000000085
:040672000000000084
:040673000000000083
:040674000000000082
:040675000000000081
:040676000000000080
:04067700000000007F
:04067800000000007E
:04067900000000007D
:04067A00000000007C
:04067B00000000007B
:04067C00000000007A
:04067D000000000079
:04067E000000000078
:04067F000000000077
:040680000000000076
:040681000000000075
:040682000000000074
:040683000000000073
:040684000000000072
:040685000000000071
:040686000000000070
:04068700000000006F
:04068800000000006E
:04068900000000006D
:04068A00000000006C
:04068B00000000006B
:04068C00000000006A
:04068D000000000069
:04068E000000000068
:04068F000000000067
:040690000000000066
:040691000000000065
:040692000000000064
:040693000000000063
:040694000000000062
:040695000000000061
:040696000000000060
:04069700000000005F
:04069800000000005E
:04069900000000005D
:04069A00000000005C
:04069B00000000005B
:04069C00000000005A
:04069D000000000059
:04069E000000000058
:04069F000000000057
:0406A0000000000056
:0406A1000000000055
:0406A2000000000054
:0406A3000000000053
:0406A4000000000052
:0406A5000000000051
:0406A6000000000050
:0406A700000000004F
:0406A800000000004E
:0406A900000000004D
:0406AA00000000004C
:0406AB00000000004B
:0406AC00000000004A
:0406AD000000000049
:0406AE000000000048
:0406AF000000000047
:0406B0000000000046
:0406B1000000000045
:0406B2000000000044
:0406B3000000000043
:0406B4000000000042
:0406B5000000000041
:0406B6000000000040
:0406B700000000003F
:0406B800000000003E
:0406B900000000003D
:0406BA00000000003C
:0406BB00000000003B
:0406BC00000000003A
:0406BD000000000039
:0406BE000000000038
:0406BF000000000037
:0406C0000000000036
:0406C1000000000035
:0406C2000000000034
:0406C3000000000033
:0406C4000000000032
:0406C5000000000031
:0406C6000000000030
:0406C700000000002F
:0406C800000000002E
:0406C900000000002D
:0406CA00000000002C
:0406CB00000000002B
:0406CC00000000002A
:0406CD000000000029
:0406CE000000000028
:0406CF000000000027
:0406D0000000000026
:0406D1000000000025
:0406D2000000000024
:0406D3000000000023
:0406D4000000000022
:0406D5000000000021
:0406D6000000000020
:0406D700000000001F
:0406D800000000001E
:0406D900000000001D
:0406DA00000000001C
:0406DB00000000001B
:0406DC00000000001A
:0406DD000000000019
:0406DE000000000018
:0406DF000000000017
:0406E0000000000016
:0406E1000000000015
:0406E2000000000014
:0406E3000000000013
:0406E4000000000012
:0406E5000000000011
:0406E6000000000010
:0406E700000000000F
:0406E800000000000E
:0406E900000000000D
:0406EA00000000000C
:0406EB00000000000B
:0406EC00000000000A
:0406ED000000000009
:0406EE000000000008
:0406EF000000000007
:0406F0000000000006
:0406F1000000000005
:0406F2000000000004
:0406F3000000000003
:0406F4000000000002
:0406F5000000000001
:0406F6000000000000
:0406F70000000000FF
:0406F80000000000FE
:0406F90000000000FD
:0406FA0000000000FC
:0406FB0000000000FB
:0406FC0000000000FA
:0406FD0000000000F9
:0406FE0000000000F8
:0406FF0000000000F7
:0407000000000000F5
:0407010000000000F4
:0407020000000000F3
:0407030000000000F2
:0407040000000000F1
:0407050000000000F0
:0407060000000000EF
:0407070000000000EE
:0407080000000000ED
:0407090000000000EC
:04070A0000000000EB
:04070B0000000000EA
:04070C0000000000E9
:04070D0000000000E8
:04070E0000000000E7
:04070F0000000000E6
:0407100000000000E5
:0407110000000000E4
:0407120000000000E3
:0407130000000000E2
:0407140000000000E1
:0407150000000000E0
:0407160000000000DF
:0407170000000000DE
:0407180000000000DD
:0407190000000000DC
:04071A0000000000DB
:04071B0000000000DA
:04071C0000000000D9
:04071D0000000000D8
:04071E0000000000D7
:04071F0000000000D6
:0407200000000000D5
:0407210000000000D4
:0407220000000000D3
:0407230000000000D2
:0407240000000000D1
:0407250000000000D0
:0407260000000000CF
:0407270000000000CE
:0407280000000000CD
:0407290000000000CC
:04072A0000000000CB
:04072B0000000000CA
:04072C0000000000C9
:04072D0000000000C8
:04072E0000000000C7
:04072F0000000000C6
:0407300000000000C5
:0407310000000000C4
:0407320000000000C3
:0407330000000000C2
:0407340000000000C1
:0407350000000000C0
:0407360000000000BF
:0407370000000000BE
:0407380000000000BD
:0407390000000000BC
:04073A0000000000BB
:04073B0000000000BA
:04073C0000000000B9
:04073D0000000000B8
:04073E0000000000B7
:04073F0000000000B6
:0407400000000000B5
:0407410000000000B4
:0407420000000000B3
:0407430000000000B2
:0407440000000000B1
:0407450000000000B0
:0407460000000000AF
:0407470000000000AE
:0407480000000000AD
:0407490000000000AC
:04074A0000000000AB
:04074B0000000000AA
:04074C0000000000A9
:04074D0000000000A8
:04074E0000000000A7
:04074F0000000000A6
:0407500000000000A5
:0407510000000000A4
:0407520000000000A3
:0407530000000000A2
:0407540000000000A1
:0407550000000000A0
:04075600000000009F
:04075700000000009E
:04075800000000009D
:04075900000000009C
:04075A00000000009B
:04075B00000000009A
:04075C000000000099
:04075D000000000098
:04075E000000000097
:04075F000000000096
:040760000000000095
:040761000000000094
:040762000000000093
:040763000000000092
:040764000000000091
:040765000000000090
:04076600000000008F
:04076700000000008E
:04076800000000008D
:04076900000000008C
:04076A00000000008B
:04076B00000000008A
:04076C000000000089
:04076D000000000088
:04076E000000000087
:04076F000000000086
:040770000000000085
:040771000000000084
:040772000000000083
:040773000000000082
:040774000000000081
:040775000000000080
:04077600000000007F
:04077700000000007E
:04077800000000007D
:04077900000000007C
:04077A00000000007B
:04077B00000000007A
:04077C000000000079
:04077D000000000078
:04077E000000000077
:04077F000000000076
:040780000000000075
:040781000000000074
:040782000000000073
:040783000000000072
:040784000000000071
:040785000000000070
:04078600000000006F
:04078700000000006E
:04078800000000006D
:04078900000000006C
:04078A00000000006B
:04078B00000000006A
:04078C000000000069
:04078D000000000068
:04078E000000000067
:04078F000000000066
:040790000000000065
:040791000000000064
:040792000000000063
:040793000000000062
:040794000000000061
:040795000000000060
:04079600000000005F
:04079700000000005E
:04079800000000005D
:04079900000000005C
:04079A00000000005B
:04079B00000000005A
:04079C000000000059
:04079D000000000058
:04079E000000000057
:04079F000000000056
:0407A0000000000055
:0407A1000000000054
:0407A2000000000053
:0407A3000000000052
:0407A4000000000051
:0407A5000000000050
:0407A600000000004F
:0407A700000000004E
:0407A800000000004D
:0407A900000000004C
:0407AA00000000004B
:0407AB00000000004A
:0407AC000000000049
:0407AD000000000048
:0407AE000000000047
:0407AF000000000046
:0407B0000000000045
:0407B1000000000044
:0407B2000000000043
:0407B3000000000042
:0407B4000000000041
:0407B5000000000040
:0407B600000000003F
:0407B700000000003E
:0407B800000000003D
:0407B900000000003C
:0407BA00000000003B
:0407BB00000000003A
:0407BC000000000039
:0407BD000000000038
:0407BE000000000037
:0407BF000000000036
:0407C0000000000035
:0407C1000000000034
:0407C2000000000033
:0407C3000000000032
:0407C4000000000031
:0407C5000000000030
:0407C600000000002F
:0407C700000000002E
:0407C800000000002D
:0407C900000000002C
:0407CA00000000002B
:0407CB00000000002A
:0407CC000000000029
:0407CD000000000028
:0407CE000000000027
:0407CF000000000026
:0407D0000000000025
:0407D1000000000024
:0407D2000000000023
:0407D3000000000022
:0407D4000000000021
:0407D5000000000020
:0407D600000000001F
:0407D700000000001E
:0407D800000000001D
:0407D900000000001C
:0407DA00000000001B
:0407DB00000000001A
:0407DC000000000019
:0407DD000000000018
:0407DE000000000017
:0407DF000000000016
:0407E0000000000015
:0407E1000000000014
:0407E2000000000013
:0407E3000000000012
:0407E4000000000011
:0407E5000000000010
:0407E600000000000F
:0407E700000000000E
:0407E800000000000D
:0407E900000000000C
:0407EA00000000000B
:0407EB00000000000A
:0407EC000000000009
:0407ED000000000008
:0407EE000000000007
:0407EF000000000006
:0407F0000000000005
:0407F1000000000004
:0407F2000000000003
:0407F3000000000002
:0407F4000000000001
:0407F5000000000000
:0407F60000000000FF
:0407F70000000000FE
:0407F80000000000FD
:0407F90000000000FC
:0407FA0000000000FB
:0407FB0000000000FA
:0407FC0000000000F9
:0407FD0000000000F8
:0407FE0000000000F7
:0407FF0000000000F6
:00000001ff
