:020000040000FA
:0400000000000001FB
:040001001B26F7388B
:0400020024DA7E7905
:0400030001B5B2A1F0
:040004002F6977D415
:040005001F0237534C
:0400060008666367BE
:040007002057D61890
:040008000FFDB8BA76
:04000900135AADA732
:04000A002A63435BC7
:04000B003357399599
:04000C000291A56751
:04000D001AF6AA71C4
:04000E0017628B9C4E
:04000F00336DC35A30
:040010002D1D20C9B9
:040011003B6189EED8
:0400120003788DAA38
:0400130010707051A8
:0400140017CE022FD2
:04001500155324A6B5
:04001600039B8F4079
:04001700248F66903C
:0400180023FF134E61
:040019000F227C62D4
:04001A0006E7365966
:04001B001CF6E22CC1
:04001C0027430BDB90
:04001D000A9C064BE8
:04001E00272146F858
:04001F002460837E58
:040020003B5946E51D
:0400210020F3C5B94A
:0400220007992A4EC2
:0400230010D6D1041E
:040024001D3DAC7B57
:040025000330F709A4
:040026000CD90D667E
:040027000B36840907
:040028003C46699158
:040029000808F14989
:04002A0030304450DE
:04002B003D3CC50390
:04002C000207970E22
:04002D000EA940AD2B
:04002E003478D95BEE
:04002F001A6F9C1593
:0400300011FCF0A926
:040031000CF5D3B245
:0400320025A0CCC178
:040033002ADAAF6CAA
:040034002DD5B6D937
:040035003E3A1EA38E
:040036001821341940
:040037003A0EEBE2B0
:040038000CA093F78E
:0400390022663BCA36
:04003A0015DB790257
:04003B002CB5ED797A
:04003C003162AD354B
:04003D00106664796C
:04003E001F585928C6
:04003F0037791E747B
:0400400006AC325187
:040041002A05C24F7B
:040042000AF6C82EC4
:04004300175E87F1CC
:040044001062B49200
:040045003C59951875
:0400460026217152AC
:040047002A8F0DB33C
:040048001E777D831F
:040049000C57F0A0C0
:04004A003E4CEB0F2E
:04004B0029F402484A
:04004C001AA9AF3B03
:04004D003811B9139A
:04004E00113F8DB021
:04004F0008C7AF85AA
:0400500003536E3CAC
:04005100117074BAFC
:040052003C7FC373B9
:0400530035B8E6CD09
:0400540031B961B7A6
:04005500121FE10C89
:0400560033D4D93690
:040057003DDCACD907
:04005800386AC08DB5
:04005900361377AD36
:04005A000D201A302B
:04005B001AAD8A6DE3
:04005C0030E13FDB75
:04005D00136481E7C0
:04005E00349933227C
:04005F001C5C49825A
:0400600007F05D4107
:040061001C92C6BA6D
:040062001CA743DCB8
:040063000213990FDC
:04006400133F78E6E8
:04006500093540B465
:04006600329C3D2764
:040067002BE5035929
:040068002A74C58DA4
:040069001C5663A11D
:04006A003DD888D421
:04006B0008AFD60CF8
:04006C001FE86866BB
:04006D002EB715DCB9
:04006E000BC18250F0
:04006F0000A289D191
:04007000052EA27443
:04007100317AC5BD5E
:040072001DA0935FDB
:040073002292C32BE7
:040074001D82744E27
:04007500145791305B
:0400760032A50D584A
:0400770021F0071B52
:04007800287A20C3FF
:0400790034D0271E3A
:04007A002ADE13B8AF
:04007B00024184A416
:04007C003081F1CE10
:04007D002B60084BA1
:04007E0023F4C04F58
:04007F000F96C08A8E
:0400800006D08668B8
:040081001788A9A58E
:040082001EF88FF0E5
:0400830035C36B9B7B
:040084000B32A6563F
:0400850016DDE0A5FF
:04008600209D5191D7
:0400870028967BA498
:040088001910E1CC9E
:040089000AE328F06E
:04008A00089558D4A9
:04008B0027316B7D31
:04008C000D55DBA58E
:04008D0001CE8A6DA9
:04008E003929C7093C
:04008F00235C106975
:040090002C0D45D31B
:0400910007FFA51AA6
:040092001B1844846F
:040093002CCE1365F7
:0400940032B3403310
:04009500355652E8A2
:0400960010DFA2894C
:0400970004F7060A5A
:040098000E9C4A2C44
:04009900348E0EAEE5
:04009A000A4F337D59
:04009B001DD991BD1D
:04009C0032307F502F
:04009D0022478DF079
:04009E00323F59B3E1
:04009F0037FA6F2B92
:0400A00018629898B2
:0400A1003B81361257
:0400A20014A34564FA
:0400A300159BF69B18
:0400A4001453706C15
:0400A500282A8EA8CF
:0400A600104A7DA5DA
:0400A70033A15A39EE
:0400A8001FDB0561F4
:0400A900247961272E
:0400AA00037B16E9D5
:0400AB0003C526D48F
:0400AC001EC2668E7C
:0400AD0013C0319FAC
:0400AE00277E97080A
:0400AF0039492EEAB3
:0400B0000A9351F26C
:0400B100338BB67166
:0400B2000346910F61
:0400B30013B9357ECA
:0400B40033409CB881
:0400B500129FDD04B5
:0400B6003AB2FFCD8E
:0400B700337FD7FBC1
:0400B800367B2CE780
:0400B9001271F004CC
:0400BA00303DFB1AC0
:0400BB0024E1BBA6DB
:0400BC000E945F7DC2
:0400BD0007794A482D
:0400BE0017A9C84076
:0400BF000BA082C54B
:0400C0000403C5135D
:0400C100072EC558E9
:0400C20000854EF275
:0400C3003AD736E80A
:0400C4001B4F50B4CA
:0400C50029154A8827
:0400C600050761FBCE
:0400C7002516DE0715
:0400C8003C8C8BCA17
:0400C9000DC1263708
:0400CA00280F678113
:0400CB0035A704D081
:0400CC003DF28F9DD5
:0400CD00333404CEF6
:0400CE0020194B8A20
:0400CF002EDB672895
:0400D0000F0DF173AC
:0400D10018D71743E2
:0400D200082B9E86D3
:0400D3002EFB0C8074
:0400D400181A5B7C1F
:0400D5003D57031D73
:0400D60030D6EEA78B
:0400D7001CD206B180
:0400D8003095451703
:0400D90034ED579A11
:0400DA003DC9B9194A
:0400DB001AC15CF8F2
:0400DC00137EDCAA09
:0400DD0034EBD253DB
:0400DE002435B89C71
:0400DF001FBF507F70
:0400E0001989B7982B
:0400E100106B97F514
:0400E20005DE0180B6
:0400E300319C6FEBF2
:0400E4002863A71CCA
:0400E500122B1D5766
:0400E6002A6F8CF8F9
:0400E7002000810470
:0400E8001C4E83889F
:0400E9000814CAAC81
:0400EA000C49398103
:0400EB00378A4D7B88
:0400EC003068D1DDCA
:0400ED0030B45D23AB
:0400EE000872C201D1
:0400EF002859C6D0F6
:0400F0003342FC2477
:0400F10003D2EA6DDF
:0400F2002535DDF2E1
:0400F3002F00E26494
:0400F40028A39C7928
:0400F500076FE89316
:0400F6001D46D26F62
:0400F7001F81BD6E3A
:0400F80003CAB987F7
:0400F9001708CAD446
:0400FA0002475E4B10
:0400FB002EDF28D3F9
:0400FC0004AAACB8EE
:0400FD001B8797A026
:0400FE000BC036ED10
:0400FF000980163727
:040100001FCC08D434
:040101002E0C8F7CB5
:04010200004B1A2E66
:040103001089B0713E
:040104003AB002BB50
:040105000B19684F1B
:04010600272E73AA83
:040107001428587EE2
:040108002A934AE507
:040109001BD649FDBB
:04010A0032C4FD6C92
:04010B0028DE0E01DB
:04010C00039BBBAEE8
:04010D0022772D72B6
:04010E00346E1D44EA
:04010F001A4AE85B45
:040110002A8301F449
:0401110031E2D5EF13
:04011200259D702E89
:0401130033160DC3CF
:04011400139E93980B
:040115001AA7C794CA
:040116003D0DBE0ECF
:04011700213BFB7B12
:0401180029BBEEC051
:040119000757668698
:04011A000C1668FE59
:04011B003D5C3B62AA
:04011C000B8B8FE6D4
:04011D000768865B8E
:04011E0026347E29DC
:04011F00357F147B99
:04012000194F37B18B
:0401210009FCFD4692
:0401220019B62202E6
:040123001C55F8BAB5
:04012400069073715D
:040125000F9BDB80D1
:04012600256D9207AA
:0401270036CC7E252F
:0401280017916D1F9F
:040129000CE040277F
:04012A0028FCB9C52F
:04012B00057A2D1410
:04012C001EA4DC939E
:04012D002CFF9619F4
:04012E000D42241D3D
:04012F0024E2AF9D7A
:040130000110A534E1
:0401310031CF9D1617
:0401320004FBEDF5E8
:040133003962A46C1D
:0401340006C676E2A3
:04013500355B5225BF
:04013600062B2AA7C3
:0401370012B2C257E7
:040138000C7616C368
:04013900237403EC3C
:04013A00354B989C0D
:04013B0019B42F7153
:04013C00198FD93B03
:04013D0012A2930770
:04013E0033C889DD5C
:04013F002477C2C39C
:040140001668A7ECAA
:040141001013045D36
:0401420034004CEE4B
:040143002853C32C4E
:040144002A8B8CE78F
:0401450026B40005D7
:0401460021CDB5A86A
:04014700168F2B23C1
:0401480018B9295663
:040149001E38D33554
:04014A003CAA7AC38E
:04014B00232CBFB5ED
:04014C001C0E5F4DD9
:04014D003C81A11C34
:04014E002142A49214
:04014F002F433CB945
:040150000E80BD5907
:040151002425901CB5
:040152003DFFEE2857
:0401530010D70AC1F6
:040154000B1F8FE608
:040155002231258AA4
:040156003E7DC5B273
:04015700384404081C
:040158003A50A06118
:04015900063E3B9E85
:04015A0014AE8E57FA
:04015B00355B81A7E8
:04015C000E8BE89589
:04015D00109B16F3EA
:04015E00320A5A3BCC
:04015F000722A5C40A
:04016000298BD656BB
:0401610026E28C679F
:040162000FA4E0FD09
:04016300146C7B6736
:0401640008DC530C54
:0401650028A58BF549
:04016600237C19CF0E
:040167003DC6E9BBED
:040168001E1984F2E6
:0401690015443ABA45
:04016A0039161FC360
:04016B0031716B047F
:04016C0019CC45AABB
:04016D001EEF4ED85B
:04016E00044F050D28
:04016F0015BA7E1827
:04017000137580F390
:04017100085C3B7B70
:040172002BA6C8D020
:040173000C8EA587C2
:040174003CC7C0E8DC
:04017500223D27B44C
:04017600302595D1CA
:040177000E6EACAAB2
:040178001ACADD3A88
:040179001A307F2396
:04017A0000AA5C6813
:04017B000B1304005E
:04017C0026BD0BC0D1
:04017D00061BCBE6AC
:04017E003A7673B1A9
:04017F00067650FEB2
:040180001890A580AE
:04018100066BFFBE4C
:0401820016A893AF79
:040183000074240ED2
:040184001AB5423B2B
:040185003371E1FFF2
:040186001E2D409B4F
:040187000462D1FA43
:04018800076570C4D3
:04018900122668FBD7
:04018A0031475CBFDE
:04018B003282BB31D0
:04018C0022B33E69F3
:04018D002DFE3651BC
:04018E002EE74D6C9F
:04018F003A68C94EB3
:0401900005536C881F
:040191001EC2647CAA
:0401920020D2609483
:0401930005A8C1BC3E
:040194001FB15DA694
:0401950029993E9ACC
:0401960021732DA004
:040197001116C6185F
:040198003125F8DF36
:04019900045C2C2AAC
:04019A000D5659E9BC
:04019B002FEF8ECCE8
:04019C000D0AA33174
:04019D000DD0BDBE06
:04019E0005B712F59A
:04019F002D36F2E720
:0401A0000EA94D0354
:0401A10005AE80D750
:0401A2002FA7BD8145
:0401A30008227E6947
:0401A40029B9FB9EDC
:0401A5001E19408E51
:0401A6001AC4E66031
:0401A7002650BC9191
:0401A80036ACE1FC94
:0401A90007735A6717
:0401AA0007C9C82396
:0401AB00395ADDF4EC
:0401AC00212E9FE37E
:0401AD00083A01AE5D
:0401AE0033981F4B18
:0401AF0039A67B5B97
:0401B00014C2CB2684
:0401B1003855CB777B
:0401B2000962ACE151
:0401B3001E7FB64EA7
:0401B40035B2AD6E45
:0401B5003548DBC42A
:0401B6001FB9A6BC0B
:0401B70036BBE1C7AB
:0401B8001091B23CB4
:0401B9001EBBCF4654
:0401BA0011057A3E73
:0401BB002DAD829D47
:0401BC001C9A287FE2
:0401BD002A248A2C3A
:0401BE00130771EBC7
:0401BF0034B3BC6D2C
:0401C0002A0A3A5D70
:0401C1002E649F60A9
:0401C20027E98C3C61
:0401C300201BD247E4
:0401C4001956245054
:0401C5000BE12BD847
:0401C60039C62C8C7E
:0401C7003068268AEC
:0401C800240E17F0FA
:0401C9000F2D52287C
:0401CA001B0F56456C
:0401CB001F5F078C1F
:0401CC003010DDFB17
:0401CD0013C3ED6EFD
:0401CE003AFAC8B57C
:0401CF000490A5B93A
:0401D0001C5B43264B
:0401D1002238A663C7
:0401D2002AD416F71E
:0401D3002F1653226E
:0401D4002DA256A35F
:0401D5002EE5266A83
:0401D60021AA40BA60
:0401D700125F436F01
:0401D800087A8734E6
:0401D9003A27C444B9
:0401DA0006CFBDBBD4
:0401DB001FB62F6EAE
:0401DC003E6105C0BB
:0401DD0018A3F2422F
:0401DE00394DA3579D
:0401DF002BE0087D8C
:0401E0002FF1C7C371
:0401E1000318749CEF
:0401E2001EC7EF1F26
:0401E300197194D525
:0401E4001DB0439275
:0401E5002071BD992F
:0401E600009CA53C98
:0401E700103F6A1744
:0401E8003EA7D9391C
:0401E900226F60AC75
:0401EA00207BA5EDE4
:0401EB00018C3CB88F
:0401EC002105C3B571
:0401ED003265191B43
:0401EE0002335A621C
:0401EF00259B22C367
:0401F0002A87DFCCAF
:0401F1000A2CAB5FCA
:0401F200311DC14FAB
:0401F30018A9A0BDEA
:0401F40039E4075F84
:0401F5001EA6B66A22
:0401F6000CD0E194B4
:0401F70008E2D71A29
:0401F8003B6120F354
:0401F90023819714B3
:0401FA00288785319C
:0401FB0034D8792F4C
:0401FC0014C8D6EC61
:0401FD003241CCA11E
:0401FE001E482698D9
:0401FF0008689FC12C
:040200002758E8B5DE
:0402010020873BEA2D
:040202000BE126B234
:040203003C5F647583
:04020400211906981E
:040205002EF06F2E3A
:040206002F3A689291
:0402070029A2837D28
:040208001E5B43F244
:040209000216A11028
:04020A000E78E12168
:04020B0017FEC0809A
:04020C003639E2B0ED
:04020D002800D23CB7
:04020E002CE3164F78
:04020F002A80976644
:040210002DF78FE453
:040211000424997CAC
:0402120019F45F4537
:040213000F2626424A
:04021400234BEA7C12
:04021500298E478760
:0402160006F4883C26
:04021700105B10D692
:04021800391AAC3AA9
:04021900384AFF5E02
:04021A0006D291A0D7
:04021B00308F4408D4
:04021C0002DE3AD7ED
:04021D00343B5B9A79
:04021E0015536E51B5
:04021F000AF389DB7A
:040220001CD6373978
:040221000D674BD842
:040222003876C377F0
:040223002062B1792B
:0402240002899D228C
:0402250008EFC0011D
:0402260033A761CFCA
:040227002895CDDA6F
:0402280032A542A217
:04022900237BFE4AEB
:04022A00309B9D84E4
:04022B0029FF1D3555
:04022C00348772D5CC
:04022D001E5B975D60
:04022E0027BAF9767C
:04022F00238CC7D481
:0402300036C29A87B1
:040231003D02756BAA
:04023200231DB1CD0A
:040233002790FC38DC
:0402340029E2B08982
:040235003C49FE6DD5
:0402360007B6399E30
:040237002CDDCF17D4
:040238000D9C427265
:040239002F5C6E21A7
:04023A000CB803FFFA
:04023B0029B6576D1C
:04023C0007F3A13FE4
:04023D002E8A4F684E
:04023E002A61811799
:04023F0021C7E114DE
:0402400008E4631556
:04024100078241EA05
:040242003A2D62B43B
:040243000C34094826
:0402440039BBE78F4C
:0402450031E7631624
:040246002AF8FABCDC
:0402470027C94C82F5
:0402480017AB577326
:04024900043B5E997B
:04024A000E04A448B2
:04024B0003EE3F91EE
:04024C000CF46D45FC
:04024D00276DD4A3A2
:04024E0016C271E97A
:04024F00205F8C0A96
:04025000332EAF8C0E
:04025100248A447641
:040252003CE8BEE5E1
:040253002ACF940E0C
:0402540021CAD3B830
:040255000BE46D3118
:040256003C09EF462A
:040257001419EF5433
:040258002A6CFC42CE
:0402590030025AB263
:04025A0028940A4A90
:04025B000D074E102D
:04025C0008BEB7CE53
:04025D001B998C3A23
:04025E003C9E8E57DD
:04025F0021C5F9C3F9
:0402600015B974BB9D
:040261002FF92C291C
:040262003179A40248
:040263000540428987
:040264000E7E718A0F
:0402650012613F9350
:040266000EC58FB979
:0402670033D67F8D7E
:0402680009F44A8FBC
:0402690003223A36FC
:04026A0034C686E927
:04026B0034A20CE2CB
:04026C00271C596C86
:04026D0034FE99754D
:04026E0016A0FAE3F9
:04026F002A152AF82A
:040270001250154EC5
:0402710016BF2690FE
:0402720017399DA1FA
:04027300134E329D57
:040274003815166AB9
:040275002F6175E59B
:0402760018F5A6F7DA
:040277003B84888AB2
:040278001B31A8820C
:040279003DDF0F0551
:04027A0023A5A6C64C
:04027B00006420F506
:04027C00113A5F468E
:04027D0036B37EED29
:04027E002A355B4F73
:04027F00018AB41E1E
:040280002F89F5804D
:04028100107CA259F2
:040282003ECD6835D0
:04028300224D952B48
:04028400292A416B77
:0402850032195BD8F7
:040286001A9900C001
:04028700040C14A9A6
:04028800288451B7BE
:040289002CC5E2405E
:04028A001831566869
:04028B000E15AF2D70
:04028C002930394696
:04028D00225D4D336E
:04028E00092B720FB7
:04028F0006CA11DCAE
:04029000360CE066E2
:04029100258C5A0757
:0402920006D0F47A24
:0402930015E7EC116E
:04029400237931F4A5
:04029500331725EF07
:040296001749D846E6
:040297003E9938381C
:0402980027B4821CE9
:040299000665A0BA9C
:04029A0011DFAEE4DE
:04029B002C6CFED0F9
:04029C002012E50D3A
:04029D003601241FE3
:04029E00048BBA64AF
:04029F001E28E53000
:0402A0000B2677149E
:0402A1000F041EBD6B
:0402A20013DDA302C3
:0402A30015E333EC40
:0402A400175F40653B
:0402A50015FAAA524A
:0402A60008496FD8BC
:0402A7000B421542AF
:0402A8001D7D2EB9D1
:0402A9002E81DC3096
:0402AA0014A2EAAA06
:0402AB00041ECF1549
:0402AC002DF337AB4C
:0402AD0012442E25A4
:0402AE0033612A018D
:0402AF001FAE26A5B3
:0402B0002D78A2A95A
:0402B1001F6D925ECD
:0402B200097792D660
:0402B30011F8616974
:0402B400134DB5949D
:0402B50008B6436BD9
:0402B600013E37E6E8
:0402B70012FDC5B4BB
:0402B8003ECD2C56B5
:0402B90008726D3B1F
:0402BA000FA856181B
:0402BB000A67A839ED
:0402BC0008C1F03550
:0402BD0039DBDFE169
:0402BE002F8505FD86
:0402BF001880FA2188
:0402C0002BD09D9B07
:0402C100011B0020FD
:0402C2002A28BC5AD0
:0402C3003976FE4743
:0402C4000999A2C82A
:0402C5002A45A81806
:0402C6001C5465C49B
:0402C7002021A195BC
:0402C800354F3D551C
:0402C9001D8B244520
:0402CA0030E3A02C51
:0402CB003A66B406D5
:0402CC002A2B32FEA9
:0402CD0026021DEAFE
:0402CE0020E8FCCB5D
:0402CF000B063C17C7
:0402D0002E5306366D
:0402D1002C281DDADE
:0402D2001650111899
:0402D30035FE175D80
:0402D40031A912FF3B
:0402D5000B422AF4BA
:0402D6000268A24BCD
:0402D7003B49AC9C57
:0402D80012F65305C2
:0402D900256C7423F9
:0402DA00341B73AFAF
:0402DB0000F8BBDD8F
:0402DC002F13F38960
:0402DD0021A7D4750C
:0402DE002D560D1A72
:0402DF00181ED00510
:0402E0002538C3BB3F
:0402E10007DCD5243D
:0402E2000D9D73D922
:0402E300036919D2C0
:0402E4000EC85CBD27
:0402E5003874FEE784
:0402E6001987855699
:0402E70026F7DE3DDB
:0402E800356B0DBFA6
:0402E900094EFFB10A
:0402EA0008D10246EF
:0402EB001E2BB922EB
:0402EC0003961980DC
:0402ED003935BFF3ED
:0402EE0006C91E8699
:0402EF00242E14A104
:0402F000102B90F44B
:0402F100312C260284
:0402F2003DAA2646B5
:0402F30038214B095A
:0402F40024711CD481
:0402F500044FA156BB
:0402F6002392D999DD
:0402F70019A8F1E26F
:0402F8002B6C432503
:0402F9003AAAAE76F9
:0402FA001D1EB326EC
:0402FB00054CC8677F
:0402FC002831842FF2
:0402FD002128731F22
:0402FE000E71C53286
:0402FF0032781CDB5A
:040300002AE0370FA9
:0403010004F144655A
:04030200182C373A42
:0403030020A7B1215D
:0403040016DCD8C764
:040305001348D8E9D8
:040306002C711A51EB
:040307000C849A5A6E
:0403080038DD39FFA4
:0403090011979BF0BD
:04030A001D168A68CA
:04030B000D721284D9
:04030C0014C5863757
:04030D001826F06856
:04030E0005C1DC51F8
:04030F0009681AFE61
:040310000D8F6F8F4F
:04031100350AD0A435
:040312001748203731
:040313002C5339E747
:040314002EB222DC07
:0403150033A57D424D
:040316001E42952EC0
:0403170011A1F1E55A
:040318002A3844C972
:0403190015933AFFFF
:04031A000154A75F84
:04031B0037B837D0E8
:04031C00060C454E38
:04031D0033C30E35A3
:04031E000CC1FBF221
:04031F003DA1BBF34E
:040320001ECD95DD7C
:040321000FAAEFDC54
:0403220022C847B3F3
:0403230006CD8FC3B1
:040324003586CA0C44
:040325000592827447
:040326002598A875F9
:04032700042EEE8D25
:040328000C6DEC2844
:040329003112AB7F63
:04032A00036BF44627
:04032B0012D2D6CA4A
:04032C002CCBABBE6D
:04032D001E797C6F4A
:04032E0029308BB235
:04032F00041F653E04
:0403300004795ED01E
:0403310029DAFD8B3D
:040332002F4717B585
:0403330032A81E6965
:040334003CF3D6EDD3
:040335000D7DC3CFA8
:040336003C769F78FA
:040337001969CD066D
:0403380033DB311F63
:04033900340CF9CDBA
:04033A0019AD443283
:04033B0014AF971153
:04033C0001EC6E0F53
:04033D00048FF963CD
:04033E001BE8E0BB1D
:04033F00387542B714
:040340001AFFED9023
:040341000CB023D108
:040342002EBC51B7C5
:04034300374EA4D4B9
:0403440022448D487A
:0403450036CC68C486
:0403460030883222A7
:040347001D0073D54D
:04034800375AD659F1
:0403490026A371DE98
:04034A00144021AA90
:04034B0032CE7BED46
:04034C003A841804D3
:04034D00095274924B
:04034E003B542C826E
:04034F001F1CAF03BD
:040350002F6DF4F425
:0403510017FB8644CC
:0403520039F6A63C96
:0403530002FCA7FB06
:04035400070FD508B2
:04035500323CE884CA
:04035600106A61C404
:04035700227B65B0F0
:040358001A3E6A815E
:04035900052188B939
:04035A00368D5F95E8
:04035B00180D0D016B
:04035C0025F6E9BADF
:04035D001A241871D5
:04035E001B6181EFAF
:04035F0024F821FD60
:0403600021F7081A5F
:0403610015035B899C
:04036200202B07172E
:040363003173D15AC7
:0403640010009947A5
:040365000E72998AF1
:0403660006F51C700C
:040367001495683C45
:040368002E55F9F81D
:040369000D48580AD9
:04036A00300108FA5C
:04036B0001B833D3CF
:04036C0035A5E3F9D7
:04036D0001546C4487
:04036E000554566B71
:04036F0021672E2DA7
:0403700020B01DD5C7
:040371002998A924FA
:040372001D17E2551C
:0403730030D664E537
:040374002CCDF1B9E2
:040375002BBCFD1C84
:040376000D57D456F5
:040377003BE6DE483B
:040378001BB448FC6E
:0403790026597C0283
:04037A00290D02F94E
:04037B00297854AEDB
:04037C003BF1835579
:04037D00178956780E
:04037E001CEDA87D4D
:04037F002EA0901309
:04038000340D0857D9
:040381000869921B5A
:0403820007E459C66D
:040383000CE586748B
:0403840029DA1EB69E
:04038500177F364E5A
:040386003C90784CE3
:0403870014729F0647
:040388001DA3E0636E
:0403890001810B43A0
:04038A000A51E4151B
:04038B0026FBB1BCE0
:04038C0037CB33B286
:04038D0014EA3AD064
:04038E00105238854C
:04038F000A5D04F906
:040390000D4E11CA33
:040391000B43723C6C
:040392000C7624C3FE
:040393002D170DE134
:04039400317E2E6820
:040395003452FD10D1
:040396003D6F66AEA3
:040397000C1F162001
:040398001CDE29FE40
:04039900205B0B904A
:04039A002208D05D08
:04039B000498220E92
:04039C00070F3D7E8C
:04039D0004A5DDBE18
:04039E0003852E5451
:04039F00012028040D
:0403A00001D23873DB
:0403A10032D20BB198
:0403A20000A21D4B4D
:0403A3000373C9FD1A
:0403A4002E85C5FDE0
:0403A500117B2A0C92
:0403A60035E4EC014D
:0403A7000402B05C40
:0403A800060423C460
:0403A9003D6D1496FC
:0403AA0014DCF95610
:0403AB003C7EE8BEEE
:0403AC0014FCCA9ED5
:0403AD002AC96C4F9E
:0403AE0015F7812995
:0403AF0004FB3D2DE1
:0403B00028DB4CFCFE
:0403B1002AFEDFEF52
:0403B20029AD192B2D
:0403B3002EB05249CD
:0403B40011F8D0A6C6
:0403B5001649B5E749
:0403B600192E9C134D
:0403B7000699943DD2
:0403B800371DEB5FA3
:0403B9000241214597
:0403BA000B2FB6EB64
:0403BB001C98889D65
:0403BC00044536437B
:0403BD002A8C97C629
:0403BE0031CD16998E
:0403BF000316FEB172
:0403C0001D0B0821E8
:0403C100145E09D8E5
:0403C2001C5CBEF110
:0403C30033CBF3D86D
:0403C4003E08A563E7
:0403C500290D497A3B
:0403C6000714197689
:0403C7000EC02AFE3C
:0403C8003EB45DAF33
:0403C9002298CD2C7D
:0403CA003393002445
:0403CB000EB13FD35D
:0403CC0008D0DFF284
:0403CD0035393994F1
:0403CE003E0C9BEA5C
:0403CF0001B1C20DA9
:0403D0003469BED7F7
:0403D1000822F851B5
:0403D200282349BED5
:0403D30037F4C7C96B
:0403D4002EFCDDF826
:0403D50030B02CCD4B
:0403D6001179041A7B
:0403D700376F0E78F6
:0403D800285AE73484
:0403D9000880118502
:0403DA0019BDC8B8C9
:0403DB001BFABCFF4E
:0403DC00120F57D1D4
:0403DD0021500AB8E9
:0403DE002B90764C9E
:0403DF002B0EDF847E
:0403E00012C2DCC4A5
:0403E10016C4160622
:0403E200279EB80793
:0403E3003E62911ACB
:0403E400042799470A
:0403E5003B03E53CB5
:0403E60036C535588B
:0403E7001E36DA489C
:0403E80008CC35E226
:0403E90036DE9989DA
:0403EA00304715FA89
:0403EB003137CE7365
:0403EC001A38FDA816
:0403ED000D9AB1CCE8
:0403EE002D094CC5C4
:0403EF0029EDDC49CF
:0403F00027A0FDEB5A
:0403F100113BDBC819
:0403F2000941851A1E
:0403F3000C9251CE49
:0403F40038CC5B891D
:0403F50005646055E6
:0403F6003CF732E9B5
:0403F700389293B2F3
:0403F80038DD29B211
:0403F9003667C7227A
:0403FA001A24F99038
:0403FB00310D4889EF
:0403FC00310B47BDBD
:0403FD00071D247A3A
:0403FE0032138884AA
:0403FF0015A73E28D8
:0404000011F143C2F1
:0404010031822A6DAD
:04040200099F38D442
:040403001F91A5643C
:040404001348F38B1B
:040405003A1B30422C
:04040600005EDD5166
:040407000EE09D273F
:04040800256EE40574
:040409002C75EDCD94
:04040A002EC16C246F
:04040B000E2D63B59A
:04040C00307AB35738
:04040D0001DAADCD96
:04040E0035A3E6A28A
:04040F0018CCEC1CFD
:040410001357F0BBD3
:04041100088D6A4E9A
:04041200235360B858
:040413001D34D009BB
:0404140001269359D1
:040415000CBFF0A583
:04041600207EDA0169
:0404170027C38B1557
:040418002C3158A982
:040419002360AB644D
:04041A003B6B5CC913
:04041B0006B3BCF375
:04041C002D6F2253CB
:04041D002FC69F8EB9
:04041E0010892758C2
:04041F0008E9217156
:04042000078C9DD2D6
:0404210024F3DCAB39
:040422002ACB982227
:040423000084BC6035
:04042400139E883D5E
:0404250020B88393E5
:040426002BFD9CB25C
:040427001FF2918FA0
:04042800199242F3F0
:040429003D89309F3A
:04042A003CE9A7E61C
:04042B000A341EB0C1
:04042C00075CEAABD4
:04042D0026D0A27DB6
:04042E002310AB7775
:04042F00011C3EC8A6
:040430002A57FF8BBD
:040431003D5590FAAB
:0404320026E4D1C724
:040433002282B30569
:04043400040B312361
:040435003338A49F15
:040436000B3CE93959
:0404370005EB195167
:040438000B86A5B6D4
:04043900279B1AFFE4
:04043A0039930EAC38
:04043B0017748E7E26
:04043C003424AC595F
:04043D000E672BFE1D
:04043E000A5600B9A1
:04043F003A6A6B3476
:040440001B630C72BC
:040441001C502957CB
:04044200256112DE40
:0404430029B3833323
:040444000A68773299
:0404450037871C5584
:040446003A27C84D3C
:0404470002574CF517
:040448002FD08352DC
:040449000480D14C0E
:04044A00035675AB35
:04044B000B0ADF4475
:04044C00290B2292C4
:04044D003B4EAC88EE
:04044E002A82DA2004
:04044F0015FAA4C036
:0404500022AC5C502E
:0404510029459A841B
:040452002C6A2A0ED8
:0404530034D6657BBB
:0404540013E4C113D9
:0404550027631C16E7
:040456001D3AA8D8CB
:040457002F17337CAC
:0404580001C9DF797E
:040459002026F980E0
:04045A002F61E73BEC
:04045B00103E3ADA3B
:04045C00354E2BC826
:04045D000736B88323
:04045E0015778ECEB2
:04045F00158FA7C886
:04046000301DED6DF1
:040461002672A90F47
:0404620012B38A98AF
:040463001C12458999
:04046400315E335082
:04046500178FB60B2C
:0404660010C6A552C5
:0404670034225A954C
:0404680027962D7036
:0404690037A23EFC7C
:04046A0001F8C713BB
:04046B003824F9B583
:04046C0008ADAF84A4
:04046D003103B04E59
:04046E001B333225E5
:04046F00095EC5BF9E
:040470001793082DA9
:040471000F7BFBC53D
:040472000504F68AFD
:0404730021AA61B6A3
:040474001AD39052B5
:0404750028CC12FD80
:040476001CB3B9DA20
:04047700050E198EC7
:04047800169CF4DFFB
:040479002A27BABCB8
:04047A0018D9A0EC01
:04047B002B34B20C60
:04047C003CB3CEBB04
:04047D000F115F1CE0
:04047E001C1FA85C3B
:04047F0016DD9F2ABD
:040480000D376DEDDA
:0404810035F324DF4C
:040482002E192F39C7
:040483001C71F37085
:040484000328D13B3D
:040485003C5C8ABF92
:040486001E4E07C936
:0404870010239FB5EA
:0404880034A504F2A1
:040489003536C4D16F
:04048A003AD7FBAFB3
:04048B001E74084A89
:04048C001979CB4BC4
:04048D001A127BC9FB
:04048E002458BF7FB0
:04048F0026EEB84C51
:040490002BA92D0166
:040491000320CEF97D
:04049200021FD35E14
:0404930029B52BE17B
:0404940039C687EFEF
:04049500002281BE02
:040496000BB9CE2FA1
:040497000B889EEF41
:04049800107EC45EB0
:040499000850C097B0
:04049A000760DF9B7D
:04049B0012A211B8E0
:04049C0032DB3F67A9
:04049D0035680E3080
:04049E0020EB6AC124
:04049F0029DB976A54
:0404A0000C0AA7108B
:0404A10032A240A89B
:0404A2002DC2A5FDC5
:0404A3002692657FB9
:0404A40022CD1FE95D
:0404A5003E3ADE33CA
:0404A6000892B8E719
:0404A7001D9DE6B4FD
:0404A8000F7D28524A
:0404A9000E7C3EA4E3
:0404AA0035C12642F0
:0404AB00389996D412
:0404AC002DA0A034AB
:0404AD000238E265CA
:0404AE00187D65262A
:0404AF001419658B2C
:0404B000390A24C51C
:0404B10024C89D6C52
:0404B20033ECA4A0E3
:0404B30038A62C79C2
:0404B4002C3A20912D
:0404B500328D73C24F
:0404B6000B0AE458F1
:0404B70034E488C1E0
:0404B800283CE802F2
:0404B90000D9F390E3
:0404BA001117217C79
:0404BB001C074B4B84
:0404BC0010E260E208
:0404BD000B6759511F
:0404BE0015E274B817
:0404BF0014FE938F05
:0404C0002C6D22C6B7
:0404C10024ED0D57C2
:0404C2003515225377
:0404C30013F56320AA
:0404C40034A1EBCDA7
:0404C5002BBBE81C49
:0404C6002AD0B3EA9B
:0404C70009569394AB
:0404C800359C1B84C0
:0404C90006F9E8CE7A
:0404CA0015AABC882B
:0404CB00201E06AC3D
:0404CC000B0419C440
:0404CD003A965AE51C
:0404CE001AF04AB91D
:0404CF002547D3BF2B
:0404D0000335B170CF
:0404D10039372A6C21
:0404D20013128B85F1
:0404D3003924217136
:0404D40027C89F3363
:0404D500375A7FFC17
:0404D600211EF7CE1E
:0404D7000CBFBC4F4B
:0404D80033C083C9E1
:0404D9001D689919E8
:0404DA001FE6A3FF77
:0404DB0014ED819FFC
:0404DC00319E04B495
:0404DD0034517357CC
:0404DE0013C6712CA4
:0404DF001F18D660AC
:0404E000270EF55995
:0404E10007E02824E4
:0404E20001DD2C7C90
:0404E30017DF623489
:0404E4000B09789BED
:0404E5003112396E29
:0404E6001D72CACCED
:0404E7003442D19733
:0404E8003B8B202703
:0404E9000A9E75569C
:0404EA002B50216B07
:0404EB0014F6FCA364
:0404EC00243DB1E01A
:0404ED002BBF0231EE
:0404EE001B6354B781
:0404EF0001866C3CDA
:0404F0002CC70723EB
:0404F10023FFEEA156
:0404F2003CD32CDDEE
:0404F30032093A137D
:0404F4002BAB816944
:0404F5001D649C44A2
:0404F60018E78B1464
:0404F7003AE0811353
:0404F8000151047E2C
:0404F90024711170E9
:0404FA001199AC6147
:0404FB000152460163
:0404FC0008FC404D6B
:0404FD0028D760EBB1
:0404FE00167A86A73D
:0404FF000258736FBD
:04050000287224E356
:0405010011E3606C36
:04050200102C7464E1
:0405030007349453D2
:04050400273440F365
:0405050024CA2E4A8C
:04050600024FDA23A3
:040507000F95FE86C8
:0405080010428D49C7
:04050900369B6F6F3F
:04050A0017A7C8B2B5
:04050B0031E9768AD2
:04050C00046142B094
:04050D0013465EF241
:04050E0029182CF587
:04050F000D34D60FC2
:0405100010DFD8E33D
:0405110020CBA8440F
:040512002E0A26DEA9
:04051300039ACFCDAB
:0405140015D9E30D05
:0405150001046C1F52
:040516003DDB244461
:0405170011FFC66D9D
:040518000FBD794555
:040519001360A5279F
:04051A0008D753F5B6
:04051B000DDCB61627
:04051C00266B2362C5
:04051D000319A10815
:04051E0018CD590F8C
:04051F0018700BDB6A
:04052000030A435334
:040521002D23D89519
:04052200141EAC25D2
:040523000A13E56C66
:040524003E17B0DEF0
:0405250018CCFAC331
:0405260022B63FF0CA
:040527003A2280A84C
:0405280020FBB559A6
:0405290039AD884A16
:04052A000F692D45E3
:04052B0008DC68E19F
:04052C00146ACC2061
:04052D00114534B18F
:04052E00390BBE18AF
:04052F0018908BE1B4
:040530002B7407061B
:04053100134C448B98
:040532002CFA79C264
:04053300156034DF3C
:0405340010507713D9
:0405350021E8780E33
:04053600165A8E3F84
:04053700245D91C2EC
:0405380002EB472467
:040539002724B57E40
:04053A00020C7F8FA1
:04053B0029DE757CC4
:04053C003E8D5C1E76
:04053D000B74650EC8
:04053E003D7ABF5BE8
:04053F00292E8112CE
:0405400011D593DA64
:040541002458CB6807
:0405420033AD1D2098
:040543000A7375279B
:040544003A814E307A
:0405450014A7F658A9
:0405460032C0118D21
:0405470006AC6C167C
:04054800346D5F7738
:04054900164CEA72F0
:04054A0017CAD544B3
:04054B000071F32A1E
:04054C0036DD867C96
:04054D0028A3D6DE2B
:04054E0016340876E1
:04054F0018B7FFF5E5
:0405500035E5AF5D81
:0405510019F4DC2796
:0405520009F54FC98F
:040553001BE9E4229A
:040554002BBDF24485
:04055500298EA34206
:0405560014D5DE8B4F
:040557001B50407A7B
:040558000F396056A1
:0405590003C99E1420
:04055A0007E54F085A
:04055B00372F7105C0
:04055C00117FF734E0
:04055D0004A9522576
:04055E000C2E8814C3
:04055F0022A0D8837B
:0405600019C4F33097
:0405610013FCB7567A
:040562002AA947AFCC
:040563000EBCFE527A
:04056400362802E053
:04056500117BE40919
:040566002592660F65
:040567001FA0B1F828
:04056800161800D38E
:04056900006E28E711
:04056A00150245AC85
:04056B00245A7BB2E1
:04056C001F1058B351
:04056D00297136D8E2
:04056E00091094F9E3
:04056F00357D13C6FD
:0405700029CB4A6DDC
:040571001400BE2193
:04057200249CE41DC4
:040573002DD3C24F73
:040574003B725286FE
:040575002B1FD8263A
:04057600307C3AB3E8
:0405770020EB64FC15
:04057800045943CF10
:04057900317AFA5584
:04057A002942A5EB82
:04057B0018385032AA
:04057C001CD93678D8
:04057D00130F9F6B4E
:04057E001F5EA8B2A2
:04057F002787F13D9C
:040580003E3C03F802
:0405810037A1902FDF
:0405820027C10AB1D2
:040583002159DB3BE4
:040584002E2A3B5888
:04058500254F274D8A
:040586001740D0DB6F
:0405870000E1419CB2
:0405880039AAA0D814
:040589001946CF44FC
:04058A0022DC9B993B
:04058B0034940DA4F3
:04058C00092BBCAFCC
:04058D003E16A4A6CC
:04058E00120EBA4C43
:04058F00387486A096
:040590001BDEE8BACC
:0405910021CC5927F9
:0405920036490E5D7B
:04059300139FBE8F65
:04059400138CFD8D3A
:04059500198DEFA12C
:040596003CBAB6B203
:040597002C3872F199
:0405980021EED23846
:0405990011A80F7224
:04059A000A6B22CEF8
:04059B000C95035A5E
:04059C0017D61C7ED4
:04059D0008C59F7C72
:04059E00187E21366C
:04059F0011DBA7DCE9
:0405A0001D8C7A2410
:0405A1001143FE5FA5
:0405A2000751441D9C
:0405A3002B0038F2FF
:0405A4000EABE1E3D6
:0405A50000A6148D0B
:0405A60009AED8289A
:0405A70001BBCD5275
:0405A800101972F5BF
:0405A9001CB05F5FC4
:0405AA002555143E81
:0405AB003EA89DBD0C
:0405AC002A6F64B797
:0405AD0000BB0D2C56
:0405AE0021D5966558
:0405AF00009948E384
:0405B0001AD8CB0585
:0405B10023655D4021
:0405B2002321821669
:0405B30033C555BE39
:0405B4000E11D5034C
:0405B5002E23A3CC82
:0405B6000C48C529FF
:0405B700275624742B
:0405B8002CA0C8703B
:0405B9000A2404F418
:0405BA0016B7D8D4C4
:0405BB0010475FA3E3
:0405BC000E1C344598
:0405BD003116AE0144
:0405BE001942339615
:0405BF00026DA8C859
:0405C0003D6F87996B
:0405C1003E2CF85381
:0405C20000C34FC75C
:0405C30024BC2476BA
:0405C4002BF43729B4
:0405C500226F3B0561
:0405C60020BB58A658
:0405C700151C54D9D2
:0405C8002010F8B453
:0405C900036C663029
:0405CA00032256CDE5
:0405CB0014BC6C9957
:0405CC000BF1D180DE
:0405CD002408519C11
:0405CE0032A161F401
:0405CF00256CA2C035
:0405D00006AD0CE781
:0405D10032B7EEC38C
:0405D200079D6D0113
:0405D3001D6C4656FF
:0405D4002820CE0607
:0405D50000AA41F641
:0405D6002ABF487B75
:0405D7003AB27F5D58
:0405D800045DE6ECEC
:0405D900320DA33804
:0405DA0020D74D12C7
:0405DB00110FEF2AE3
:0405DC0037EC46A80A
:0405DD000B1F7394E9
:0405DE0034C7E1D469
:0405DF000456178720
:0405E0003385313BF3
:0405E1003D6323D281
:0405E20037657CFFFE
:0405E30006B37721C3
:0405E400332E5C87CF
:0405E50000E46C348E
:0405E60018FB3C2C96
:0405E7003CA4E62B1F
:0405E80013D9FF28FC
:0405E90022BD988017
:0405EA002993A45954
:0405EB0030FF238D2D
:0405EC0017D627BB3C
:0405ED0005D1EAFA50
:0405EE0005397075E6
:0405EF001EC022EB1D
:0405F000071E1B2F98
:0405F100272FB89C5C
:0405F20014FC5F286E
:0405F30004713EE26F
:0405F4002A4EE15A50
:0405F50011999EE3D7
:0405F6003E0EC645AA
:0405F7001775E3A7EA
:0405F8002FCB490BB1
:0405F9003103D27B7D
:0405FA000E7C083C2F
:0405FB00172EFEFEBB
:0405FC000C68CF8C2C
:0405FD0007BE1A46D5
:0405FE0012CBA5482F
:0405FF003B7D84417B
:0406000010A150F7FE
:040601003CCE36FFB6
:04060200241C63B1A0
:040603000642EF8537
:040604002CD9C22B00
:0406050000157A71F1
:040606003BB48A2354
:040607001D73E7C3B5
:040608002384FD9BAF
:040609001BD8BBEE51
:04060A000B7E62EE13
:04060B0009ED1829B4
:04060C003611E53C82
:04060D0001D3B8322B
:04060E003BD0A0D16C
:04060F0010CC9FBAB2
:040610001D6EE4AEC9
:040611003C4937E643
:040612002AACE0CA64
:040613001D7FFB9AB2
:040614002C468EF1F1
:04061500044EDAFABB
:040616002B03071A91
:0406170016885C9F46
:0406180015CF90ADBD
:0406190029943BCB1A
:04061A000905011CB1
:04061B0020D37FE188
:04061C003D0A698F9B
:04061D0017EE66B5B9
:04061E003A8870386E
:04061F0030220BD4A6
:040620002654E96C07
:040621000608317B1B
:0406220033C9E5A74C
:0406230004DD26D0FC
:040624000D73AA9F09
:040625001C5A28F340
:040626001BCE300DAA
:04062700010C40344E
:040628003DA66ABBC6
:040629003AF0C41FC0
:04062A00105D3E0021
:04062B0027E522E5B8
:04062C000631BDC313
:04062D00130C1DE5A8
:04062E00152B8CD428
:04062F003E2BD2C8C4
:0406300012F87B172A
:04063100198DA7C1B7
:040632003E5BFCB976
:040633003004642EFD
:04063400179FE04CE0
:040635002677A02064
:0406360002DCD89D6D
:0406370039C881D469
:04063800379E447431
:040639000B6C7902CB
:04063A0025F0F4347F
:04063B0017F2ABAC5B
:04063C001FE3FF6F4A
:04063D003093B62F11
:04063E001516E90D97
:04063F003043E72B32
:04064000207137E806
:0406410028A5D93BD4
:0406420007D769C3AA
:0406430029C5B68A85
:040644000D26C7DEDA
:040645002E8B8873FD
:0406460015DF115C4F
:0406470027AA89DC79
:04064800224DE07EE1
:0406490032A1B00F1B
:04064A00068BA3F088
:04064B00250F13E77D
:04064C00148ED19E99
:04064D0004FF6D7DBC
:04064E00399D3F96FD
:04064F003A62A175F5
:040650002A52FE55D7
:0406510009225C3DE1
:04065200201599F1E5
:0406530035CF86E336
:040654002A65DC2E09
:040655000A931DBE29
:040656003280359A1F
:0406570032DE6B1212
:0406580002AA3A3583
:040659000D735D01BF
:04065A0038BDDDE5E5
:04065B000C85E9D948
:04065C00383B95F39F
:04065D000F69EC64D1
:04065E000720CE287B
:04065F0029B9F3CCF6
:040660000F9FEFFEFB
:0406610019F1DCB3FC
:040662000BE5CDB522
:04066300319FCFF9FB
:0406640008E0B72CC7
:040665002FDC6DB168
:040666001CF09A49A1
:04066700224E034CD0
:0406680006880018E8
:04066900295166EAC3
:04066A003192328314
:04066B00236F4BFAB4
:04066C002A30E71F2A
:04066D003410E5D28E
:04066E0022DC06DFA5
:04066F003A104F28C6
:04067000328C3BEAA3
:0406710001C9CBB63A
:04067200274F8A6024
:040673002488A1A492
:040674002E9137C1CB
:040675001BD138312C
:04067600031F7508E1
:040677002D7134FDB0
:040678003B7FD5AA45
:0406790024886EC59E
:04067A003A5B03EFF5
:04067B003EC3889959
:04067C0003016A2BE1
:04067D000A3A91A9FB
:04067E0029BB87719C
:04067F00184FC0D779
:0406800015F6EF2F4D
:04068100047F57811A
:040682003209975A48
:04068300363141AD1E
:0406840029E56E2CCA
:040685001F1A903276
:0406860025C87A8F7A
:04068700109F5587E4
:0406880023D5018CE9
:0406890008D29512EC
:04068A003B47FBE10E
:04068B003565F7EBEF
:04068C00382EDF4CD9
:04068D00222453D7F9
:04068E0013D9BA3191
:04068F000B784F3D58
:040690000E9BA20219
:04069100367D081694
:0406920011A76E2B13
:040693000FFC9FE5D4
:04069400128C354A45
:0406950005265539A8
:04069600235589421D
:0406970004E1E5B3E2
:040698001EEE64D519
:040699000D5F546A33
:04069A00259EF1CADE
:04069B00369B456DD8
:04069C000356BC64E1
:04069D003282B835B8
:04069E002EE574933E
:04069F000586C6F412
:0406A0003D8435055B
:0406A10002412EDD07
:0406A2001B6C524D2E
:0406A3001CD5BD7E27
:0406A40029C5727D75
:0406A50035A7776797
:0406A6001A35202DB4
:0406A700320E3D09C9
:0406A80039C3576497
:0406A900044726D309
:0406AA0010CB50EA37
:0406AB00016B87B6A2
:0406AC0021495BC2C3
:0406AD003159B914F2
:0406AE003A9F03BBB1
:0406AF0003C5F690F9
:0406B00019D7E20173
:0406B100240E6FC4E0
:0406B2000D39EE9E72
:0406B30010F6FE033C
:0406B4002A99A97D59
:0406B5003868E35767
:0406B600341EC7DE49
:0406B700278B0F4638
:0406B8002639EC7083
:0406B9002CC75CDA14
:0406BA00000A1AA870
:0406BB0033CB90238A
:0406BC0010DD5DD51B
:0406BD0001CB4D58C8
:0406BE00110C8D5737
:0406BF0034ADC14352
:0406C00011C85827DE
:0406C1002E89BDAA17
:0406C20023AB8C7169
:0406C30034B9CFABCC
:0406C4003BC6A28E01
:0406C5001604AC6EFD
:0406C600102897F36E
:0406C70020D2FF4DF1
:0406C8002ACDB4B0D3
:0406C9000DA5141750
:0406CA000B60AEA271
:0406CB000861262F6D
:0406CC000A55ACD34C
:0406CD000EAB4B1B0A
:0406CE00020461E4DD
:0406CF0026D77BF9B6
:0406D0003079EDA4EC
:0406D100066E0EFDA6
:0406D20033CECEDD78
:0406D300288B25E962
:0406D4001AC7988524
:0406D50008583DBCC8
:0406D60023C7B71A65
:0406D7002BE00AEA20
:0406D80034AF798F33
:0406D90038FB3EB6F6
:0406DA0017443F9BE7
:0406DB001FD14045A6
:0406DC00272476B7A2
:0406DD001C3EDE21C0
:0406DE001514FC35BE
:0406DF0008C484AB1C
:0406E000051F169448
:0406E10002C7C2C8C2
:0406E20019905263B6
:0406E3001864777AA6
:0406E4002E6536C881
:0406E5002AE7C1A09F
:0406E60031F439B9F9
:0406E700008FA89A3E
:0406E8003BA773D8E1
:0406E9001B10509FF3
:0406EA00056C35293D
:0406EB001A42EBD5EF
:0406EC001D01ED3AC5
:0406ED0006A93486A0
:0406EE000A56AB7B82
:0406EF0021B2A9ED9E
:0406F0001744DA17BA
:0406F1002D486CB56F
:0406F200267628CF71
:0406F3001DE439EADF
:0406F40004EE1A7284
:0406F5000848F2B609
:0406F60027DD1DD708
:0406F700057D96F8EF
:0406F8003CB1893553
:0406F90021B0DAD57D
:0406FA001BD62CC01F
:0406FB002954C9B302
:0406FC000220474D44
:0406FD00255BEF1D6D
:0406FE001CBEB1F875
:0406FF002FDE95E76E
:04070000331291B867
:04070100326A5545BE
:04070200343AC70CB2
:040703001A702D62D9
:040704002685C5C8B9
:040705002BC411F5FB
:040706002D22B43BB1
:04070700112860A9AC
:040708002B4A162E34
:0407090023E3483668
:04070A002065E69AE6
:04070B00307AB0E3AD
:04070C003AA4397D55
:04070D003845A73E86
:04070E001458B93989
:04070F003A79FE85B0
:0407100021A1B3E888
:040711002B9F886032
:0407120021ED9E6CCB
:04071300167D6BB133
:040714003C99F3BB5E
:040715001307A06CBA
:0407160001CA4B9138
:04071700035D9816D0
:0407180015F48F3D08
:040719001D02E302D8
:04071A00273C862DC5
:04071B001246B701CA
:04071C00374646070F
:04071D00263FA2735E
:04071E00006D9B616E
:04071F001C03437400
:040720002A5BF64812
:0407210029882F46AE
:040722003D91248E53
:0407230039532E4DCB
:0407240019C963C2CA
:0407250030CA4AA3E9
:0407260013F5BEC049
:0407270019492F3FFE
:04072800031FC10CDE
:0407290011AB910C73
:04072A003C798F0483
:04072B00232103384B
:04072C00266599F2B3
:04072D002B9CE46BB2
:04072E0037F981A175
:04072F002D64E2F360
:0407300007118F0519
:04073100156FF40F3D
:040732002566CD610A
:04073300102C3BC982
:040734002528BDDBDC
:0407350002FB56DA93
:040736002AAFD059BD
:0407370039C6177335
:040738000F94732D7A
:0407390000FFDD7B65
:04073A001AD9AC021A
:04073B000E784E786E
:04073C003427DBD8AB
:04073D001DAFB8BD77
:04073E00039617EF18
:04073F00329A81E881
:0407400009AB03E816
:040741002A73467B56
:040742003E30DF0F57
:0407430005B17DC4BB
:040744001AE672241B
:040745002B9EF03FB8
:0407460027A6C1E041
:040747002AAD9F3BFD
:0407480014AA591C7A
:0407490005D1C0C452
:04074A0013A82CDEE6
:04074B0001EBB420EA
:04074C0017A0045F8F
:04074D000D0DC9B510
:04074E00016B2A759C
:04074F003BE166CC58
:04075000065FDDFE65
:040751003EAE2E6327
:0407520039BECC08D8
:0407530007E4DCE7F4
:04075400182AD4117A
:040755001B5E0A7AA3
:0407560036F39C7F5B
:04075700336A03C836
:040758002BCCF91499
:0407590022025427FD
:04075A002573A8EE6D
:04075B002849C0B9B0
:04075C003E9260EA7F
:04075D0012B41B0EA9
:04075E003C6F7AFD75
:04075F0012FA3A71DF
:0407600028DC9854A5
:0407610031F2B42697
:0407620031F6439F8A
:040763001F4FDB9FAA
:040764001CF623C399
:040765000DB868154E
:040766001D66C83B09
:0407670025758A1C4E
:04076800107995115E
:0407690036BB59B989
:04076A002E02A7E8CC
:04076B0036E8EC6020
:04076C001F02312314
:04076D0015D4BB9351
:04076E001A294D08EF
:04076F000C5E74B5F3
:04077000138142911E
:04077100305AF4D82E
:0407720011622D18CB
:04077300214EF41609
:040774002D21AD2462
:040775003CC014343C
:0407760015DF047512
:040777003116DBE676
:040778000FB21CDEC2
:040779000143F52122
:04077A0015DE9D5E8D
:04077B000E1F4A5EA5
:04077C000DB84D6601
:04077D00282624788E
:04077E000ACCDB07BF
:04077F00243C1FBC3B
:040780002F84FBEADD
:0407810004EA7552BF
:04078200263286870E
:04078300396E7474E3
:040784002936973645
:040785001E0DAA1586
:040786002E143D7C74
:0407870020B7D97E40
:0407880030A86E86A1
:040789003AFA3B4AB3
:04078A0034CBB65E58
:04078B001708146FC8
:04078C001BF453F017
:04078D001635A7F482
:04078E003400C22948
:04078F00380922798A
:040790002E93BB1ACF
:040791001917BCF088
:040792001A6BDF26D9
:0407930028F8A07929
:0407940012D0156BFF
:040795001E9FE67548
:04079600367CF1D3E9
:04079700075DF41FE7
:0407980005D12D4515
:0407990017E69FC2FE
:04079A000FEFD18507
:04079B003D9BF78308
:04079C003E270AB832
:04079D003EDD5800E5
:04079E0013EE0565EC
:04079F003DD32BEF2C
:0407A00010D6E19CF2
:0407A1001017EE91AE
:0407A200029D9528F7
:0407A3002A932C8BDE
:0407A4001086DD6777
:0407A5000CD26AAA5E
:0407A6001BA0643AF6
:0407A70008A2DA07C3
:0407A8003D1E0F3BA8
:0407A9000A771D1B93
:0407AA003E7AE38729
:0407AB0010144C4793
:0407AC0039D240906E
:0407AD00150B2CA458
:0407AE0023907227FB
:0407AF003CBC5CA052
:0407B00022A8AADDF4
:0407B1000ABC6C7E94
:0407B2001986DAA822
:0407B30028A4EFDBAC
:0407B40027D32182A4
:0407B5001A88B0E707
:0407B6000C7F48D696
:0407B700212B54DDC1
:0407B80033443A4A42
:0407B9003B6EA36789
:0407BA001E68377FFF
:0407BB002AB95BA458
:0407BC00215DCE20CD
:0407BD00286C9C0DFB
:0407BE0019A55B3CE2
:0407BF003DECB166F6
:0407C00027DEE0410F
:0407C1003075A1B935
:0407C2000823916611
:0407C3003737C741BC
:0407C400218B1F0462
:0407C50000EABA0389
:0407C600391C41CDCC
:0407C70011E7DD71E8
:0407C8001ED1B07915
:0407C9000533807400
:0407CA001A953BDC65
:0407CB0005B4A7507A
:0407CC000DA43F4CED
:0407CD000E68A116FB
:0407CE0006B724EA5C
:0407CF0017E9B8F17D
:0407D0002D585666E4
:0407D10005E22FFB13
:0407D200257779B757
:0407D30005A9B607B7
:0407D400229EC19907
:0407D50022B510EA4F
:0407D6002097F02751
:0407D70013F4390FCF
:0407D8000EE6D1C098
:0407D900015956B7B5
:0407DA001F2C755308
:0407DB001E2DB72EEA
:0407DC00337C63F314
:0407DD002E7190C623
:0407DE001A9C2E35FE
:0407DF003CEC8A1A4A
:0407E0002B2A8765D4
:0407E100190BBCB87C
:0407E2002766F9206D
:0407E3000699FE1461
:0407E400153755B6BA
:0407E50022EEBBE164
:0407E6002BCCC24214
:0407E70012A1CFE1AB
:0407E800316483CB2A
:0407E90009DD4424BE
:0407EA0016738654A8
:0407EB00258151FF14
:0407EC002F263DD1A6
:0407ED0035C9A6F272
:0407EE002B63E1B0E8
:0407EF001C63180669
:0407F0000AD9F5EA43
:0407F10011375E243A
:0407F2001166BD824D
:0407F300046CD8E3D7
:0407F40031296EA594
:0407F5002DC87B1B75
:0407F600195671819E
:0407F7002B06343E5B
:0407F80012A0997A38
:0407F9003A73C2424B
:0407FA0009289154E5
:0407FB0014A9B9FD87
:0407FC001D944DAD4E
:0407FD00348E1273B1
:0407FE002E7117F54C
:0407FF0037DA4DA5F3
:00000001ff
