:020000040000FA
:0400000000000001FB
:04000100205C064A2F
:0400020033ABD31435
:04000300087ED4910E
:0400040000006C7C10
:040005001CCA0BF511
:040006003CB654733D
:040007000B5C1390EB
:040008002DF8DC10E3
:040009003968F4F46A
:04000A00180102D9FE
:04000B00247A26220B
:04000C000A81085A03
:04000D00147D330922
:04000E0008A0C3A7DC
:04000F0003409178A1
:0400100010C5F174B2
:0400110003BC60F9D3
:04001200318929FE09
:040013003B15108306
:04001400083DC738A4
:0400150030B7FE29D9
:040016003397297B78
:040017002D0ADD6A67
:04001800340810E5B3
:04001900231813B8DD
:04001A001197A27A1E
:04001B0007BBA98DE9
:04001C001178710FD7
:04001D00213AF08410
:04001E00125E0CB6AC
:04001F00067D8EF1DB
:040020001A48F91869
:040021001CC3F68C7A
:040022003D6AD070F3
:040023002C0EDD873B
:040024002C5E9A3B79
:04002500198E4A22C4
:04002600063BCC2D9C
:0400270037F7F54D65
:0400280026134BF35D
:0400290011C2145597
:04002A0007D9D70813
:04002B000176ECA2CC
:04002C002BC30BF2E5
:04002D0025A59681EE
:04002E000E0B7A51EA
:04002F0021BEF3F10A
:040030003B4395A415
:040031000DA3117793
:04003200325952FBF2
:040033001CE79A74B8
:0400340003ED45157E
:040035001DCA921737
:040036001535BE9F1F
:040037003C678E454F
:040038000D924B6476
:040039003C5043B143
:04003A0031A3446347
:04003B0014BD9D193A
:04003C001FAA9D005A
:04003D00067F0D919C
:04003E0038CE8E3AF0
:04003F00137E804A62
:04004000030FD54F86
:0400410011C3B30430
:04004200294CF9FC50
:040043000A753A2DD3
:040044003058A0FB95
:0400450018F0474226
:040046002E7F1EBC2F
:04004700372317BD87
:0400480035A78A1539
:0400490017D230E6B4
:04004A000329E2C2E2
:04004B0017E2DC528A
:04004C003547618251
:04004D0011308E449C
:04004E003013A88241
:04004F000405267707
:040050003075B6F45D
:0400510010897B4057
:040052002E1C23F04D
:040053001CE8CEB324
:0400540005933A7E58
:040055002C6696710E
:04005600065A589D51
:04005700029770C6D6
:040058003DFD73688F
:0400590018F83E0D48
:04005A0037A51D1495
:04005B00349E236F3D
:04005C0016735B506C
:04005D00086B5F2CA1
:04005E003B1E25968A
:04005F001D8BA2E46F
:040060001585D3FA35
:0400610024089AC60F
:040062001955168E88
:0400630010AAE36993
:04006400067FFFEC28
:040065003B8641ADE8
:040066001EBAA9080D
:0400670019665613AD
:0400680039A77B1722
:040069000D5C64FEC8
:04006A0027190ACE7A
:04006B001181895620
:04006C00139CEF9161
:04006D0019EBFBF59B
:04006E002FCFE0426E
:04006F0007EEAF6C7D
:040070002DE5145D09
:04007100068939E7DC
:0400720029DC2565FB
:040073000E2E7A9D36
:04007400004CC9C8AB
:040075003595749BAE
:0400760000A870A0CE
:040077000FDD878E84
:0400780027121C5CD3
:0400790026A58289AD
:04007A00397A0C5E65
:04007B002D9D7562E0
:04007C00319C491654
:04007D000E0CC39D05
:04007E0035154244AE
:04007F001349E4B08D
:04008000352858FACD
:040081000174E3C85B
:040082000CE06D42DF
:040083001344E3F04F
:040084000AE435490C
:040085000176B25CF2
:04008600133CADBBBF
:0400870029D786F9F6
:0400880022D4888D69
:04008900090D320922
:04008A001E5EE95BB2
:04008B0002162458DD
:04008C0036DD6425D4
:04008D0003DFF8BADB
:04008E000A2B37A062
:04008F0020EEB706A2
:040090003EABBF2B99
:040091000F9AEB6770
:0400920003665FF0B2
:0400930032D6F60863
:040094001846509723
:040095002AE95EF105
:040096000EDFB26166
:04009700148A341281
:04009800344E933817
:040099003E575EA0D0
:04009A00149B394C2E
:04009B002098AD3FBD
:04009C00037A94C986
:04009D00294CE9D52C
:04009E00397BAD3AC3
:04009F000D4A463888
:0400A0000884D75A9F
:0400A10027A6D7D8DF
:0400A200294BFCD119
:0400A30007598C2C41
:0400A400235238E2C9
:0400A50029EF6825B2
:0400A600020659E90C
:0400A70028B2689F74
:0400A8003BD2A87827
:0400A9001155C57FA9
:0400AA000FD1D55D40
:0400AB00313D7ABBAE
:0400AC000A7BD2CE2B
:0400AD0021DD1F949E
:0400AE00210679BAF4
:0400AF00069E01891F
:0400B00010F8F1ADA6
:0400B10023AD8134C6
:0400B200352D350FA4
:0400B3002E9E7EEF10
:0400B4000D89EE7C48
:0400B500262C47921C
:0400B6002397AB6D74
:0400B7000F11FF40E6
:0400B80003CBBCAE0C
:0400B900351400CB2F
:0400BA003848C754A7
:0400BB000CB688F9FE
:0400BC0012E8C5BAC7
:0400BD000245AAA8A6
:0400BE0026479B7BBB
:0400BF003BF34EA819
:0400C00023AA1D70E2
:0400C10025FD857420
:0400C20002B6F1771A
:0400C30022E891D6C8
:0400C4002F5144A8CC
:0400C50005895293C4
:0400C6000F7B24F494
:0400C7001E0CAF5EFE
:0400C8000003CFA7BB
:0400C9003729F9A535
:0400CA00327CBB7455
:0400CB00094065A2E1
:0400CC00249308DE93
:0400CD0010C628A68B
:0400CE001EDF64FECF
:0400CF001EF1827E1E
:0400D0000205B45D14
:0400D1001FA19B7060
:0400D200042FDDB664
:0400D300163827971D
:0400D400087A958E83
:0400D5001F0A539F0C
:0400D6000EC824ED3F
:0400D70005E6BAC4BC
:0400D80035384A2449
:0400D9000D875F68C8
:0400DA0028D5C5451B
:0400DB000CBD1CBF7D
:0400DC002C6ABD8647
:0400DD002841FF03B4
:0400DE0035E462E6BD
:0400DF0013BA6A8462
:0400E00023C80832F7
:0400E10027DC83EDA8
:0400E2003AE8925511
:0400E300289B25DE53
:0400E4001A98D26C28
:0400E50016F79DF479
:0400E60036D2576F48
:0400E700264FB96780
:0400E800269B4E61A4
:0400E90030734A86A0
:0400EA003964CF1690
:0400EB0003E4FFB972
:0400EC0025BAA04F42
:0400ED0038B84D3B97
:0400EE000A31338818
:0400EF003A7DE2E391
:0400F00022B6B91B60
:0400F1000DF9EA9E7D
:0400F20018724446F6
:0400F30026A144EF0F
:0400F4001858D120A7
:0400F5001D983465B9
:0400F6002EA66FB013
:0400F7003881F50D4A
:0400F800317EA17440
:0400F9003D13C9D01A
:0400FA003BEC08AF24
:0400FB0016D3CCB498
:0400FC002782CEB5D4
:0400FD0031F917447A
:0400FE003E6DA1476B
:0400FF003932EFC4DF
:040100001B00376F3A
:0401010008479EA16C
:040102000683A69238
:0401030001B27026AF
:040104000BDD7F226E
:0401050033DCB3B084
:040106000E0A3B782A
:04010700145E577AB1
:04010800068BD7FA91
:040109001814EFAE29
:04010A0028DB55E1B8
:04010B003009B3EB19
:04010C00177A09CA8B
:04010D00229156B134
:04010E001D783E6CAE
:04010F0021E9F6DD0F
:04011000017DCD4C54
:0401110033886E09B8
:040112003083996B32
:040113002ED8947AD4
:040114001A1B7E3DF7
:040115003480BF5C17
:040116000457200A60
:04011700230B123074
:0401180009E2B475CF
:040119002C8725E327
:04011A000287B5594A
:04011B000428D2BA28
:04011C003350B39A0F
:04011D0027C1D10D18
:04011E0029DD5EBEBB
:04011F00047C82E9F1
:0401200024DB9DF847
:040121000FF279A2BE
:0401220007D1C3BA84
:040123002659AD1D8F
:040124001884E478DF
:0401250038A326EEE7
:04012600115D389798
:040127000FB7D3D06B
:0401280039411FC872
:040129002BA2E177AD
:04012A001976FF271C
:04012B0026563D9B7C
:04012C00215361FEFC
:04012D0018731E47DE
:04012E000357DEE9AC
:04012F0013E2F8DE01
:040130002A5A657A68
:040131000D68742AB7
:040132000BBA3F16AF
:040133002B6E1130EE
:0401340003B855F2C5
:040135000F19E53089
:040136000E03C2678B
:040137000AF0483E44
:0401380031CBB2CC49
:0401390034FB292C3E
:04013A001D9585B0DA
:04013B00199D1324D3
:04013C002E1854D055
:04013D00083625CF8C
:04013E001552CE2860
:04013F0033684934A4
:0401400020D0852422
:0401410028CD961619
:040142003DA4968DB5
:0401430014150C671C
:04014400296B74C4EB
:040145002D65B43040
:04014600375BFDD650
:040147000B3D5335E4
:0401480017FEF76740
:0401490000C738D8DB
:04014A0028E4DC0CBD
:04014B001D7E96433C
:04014C00260F2073E7
:04014D0004FAA748C1
:04014E0039AF5F3036
:04014F002DB4D9846E
:040150001F13F9F987
:040151001DAB5E473D
:040152003B19F7A0BE
:040153002C5CBD0063
:040154003761EAF035
:0401550004676B26AA
:040156000B9B0B6D87
:0401570018473F62A4
:0401580037AAAC9A7C
:040159000B5BE6CD89
:04015A0014FB70C161
:04015B001BDFE18A3B
:04015C00223C32749B
:04015D00118233AE2A
:04015E0005CBE53FA9
:04015F001E5746B42D
:0401600030712510C5
:04016100114E520BDE
:0401620035D9948275
:040163003D39FACA5E
:040164000C506016C5
:040165002A1C43719C
:04016600113A69F7EA
:040167002F82481A81
:040168002037BD641B
:040169002F040E024F
:04016A00122F69E304
:04016B0028F5928B56
:04016C0031A5B4CC39
:04016D00286F4FC5E3
:04016E001B22EE8CD6
:04016F003135589737
:0401700007594D11CD
:0401710038817997C1
:04017200092E6CF2F4
:0401730003A6482770
:040174000DF4738B88
:040175002152378D4F
:040176001C82CD5DBD
:04017700266B6097FC
:040178000206833ABE
:0401790029822AC0ED
:04017A00366E83CF8B
:04017B0033A23ACAA7
:04017C00215404996D
:04017D0026156D5086
:04017E001F82CE42CC
:04017F0018D158AB90
:0401800030728C8DC0
:04018100179E70FA5B
:04018200129F898CB3
:040183003C0EEBF84B
:0401840027073CA06D
:040185003848084EA0
:04018600052D8FA60E
:040187000FA68466D5
:0401880000949A182D
:0401890014248C941A
:04018A0018DB937774
:04018B002CD30E6102
:04018C0028FCC2A0E9
:04018D003BB264E736
:04018E00273176B6E9
:04018F002E2B9592EC
:040190000C697EB6C2
:040191001BD9ECCAC0
:040192003B0A0478A8
:0401930030A5BAFBDE
:04019400385E12B906
:040195000C53B9BE90
:04019600280C6429A4
:040197000118218F9B
:040198001856BC42F7
:0401990012CA0ABEBE
:04019A0003518AB1D2
:04019B0033689361D1
:04019C000C1EDDEF69
:04019D001EF53B957B
:04019E001011D40167
:04019F003383F6337D
:0401A00000643ED5E4
:0401A100313B82B5B7
:0401A200034300BB58
:0401A30007786BBBB3
:0401A40008804A7F06
:0401A5002C4756A5E8
:0401A600092338F2FF
:0401A7003CE705AE7E
:0401A8002C319AD686
:0401A9001ACB4773B3
:0401AA0006959D70A9
:0401AB001E1BBF193F
:0401AC0037E8FB55E0
:0401AD002FBAF16E06
:0401AE000FB376E134
:0401AF000A0EE81C30
:0401B00009E1389C8D
:0401B100203706D914
:0401B20004B465DE4E
:0401B30009F42C31EE
:0401B4000FF92A8095
:0401B500231AA579EB
:0401B600085AF76884
:0401B7003DEA028C8F
:0401B8001CBE7A6A85
:0401B9003CB6F5FC5F
:0401BA000F0FA7F28A
:0401BB00310BE0E242
:0401BC003AA7D1B4D9
:0401BD001DA50D343B
:0401BE0009FF5735A9
:0401BF001B8FF0C3DF
:0401C00002611DE2D9
:0401C1000A1421FDFE
:0401C2001138886800
:0401C3001A2AB2DA68
:0401C40000E5CD5C29
:0401C5000B9721244F
:0401C600028DD4A230
:0401C7001A526C67F5
:0401C800383247047E
:0401C90023EF296C8B
:0401CA000F17520FAA
:0401CB0001C7C86E32
:0401CC002EEFB4E27C
:0401CD00005162403B
:0401CE0018E9F934FF
:0401CF000BE37A358F
:0401D0001F6AA46896
:0401D100231E9674DF
:0401D2001EC67A29A2
:0401D3001B3D792433
:0401D40023634C1E37
:0401D5003099938941
:0401D60001FC42B531
:0401D7003DF1AE65E3
:0401D8001BD5496A80
:0401D90001A0EE6C27
:0401DA0033C4A83F43
:0401DB0001E2A9F0A4
:0401DC000BA817460F
:0401DD000589098007
:0401DE0035BBB91C58
:0401DF0026AB8CFFC0
:0401E000366CB9C7F9
:0401E10018329071CF
:0401E2002C751CC399
:0401E30029439CBB55
:0401E40019D992652E
:0401E5002D4D78F232
:0401E6001E5BE5AC0B
:0401E700239E87507C
:0401E800131558474C
:0401E9000A2C5EFA84
:0401EA003C079AE252
:0401EB002E9F0D3CFA
:0401EC002284956F65
:0401ED0002EF678630
:0401EE002675F5CBB2
:0401EF000C8F688B7E
:0401F00031B2FA2707
:0401F1002FD2A7D78B
:0401F20006446FE769
:0401F30017C131A35C
:0401F4000259490E55
:0401F5001D57AD8C59
:0401F60002EB9D116A
:0401F70039A4A5EE94
:0401F8001EB146BA34
:0401F900211EED23B3
:0401FA000D733B3115
:0401FB001A6063BA69
:0401FC001A14851636
:0401FD0004C567C00E
:0401FE0035A940825D
:0401FF000962988A6F
:040200000725919DA0
:040201001FD338C30C
:0402020032A1BA4B20
:04020300230C0AA31B
:0402040036F0B7B564
:040205000B918B7D51
:04020600184D88E225
:040207002EA1AE6D09
:0402080017A8F8C972
:040209003A383892B5
:04020A0012FD7B7FE7
:04020B002E962843C0
:04020C00053D247F09
:04020D0012889A2B8E
:04020E00152144B8BA
:04020F0034A773FF9E
:0402100013433878E4
:040211001D94B0D2B6
:040212001ABAC4A2AE
:04021300230B6894BD
:040214003121D8DCE0
:0402150038BE0AA243
:040216000F4B684ED4
:0402170028C4DB2AF2
:0402180017F185B5A0
:0402190008891C78BC
:04021A001667535EB2
:04021B00287F99EFB0
:04021C001844F6523A
:04021D003ADC5B6309
:04021E002367E2D799
:04021F00021F1DD2CB
:040220001F31BDCEFF
:0402210030C9A24CF2
:04022200172456FE49
:040223000187060E3B
:04022400122AA1E811
:0402250001B2588D3D
:0402260000CD2310D4
:040227001584D42541
:040228000AF42D00A7
:040229000A5E5D5EAE
:04022A001287BA5E1F
:04022B0017B638C208
:04022C000851B915A7
:04022D001898CFA0AE
:04022E003C5DCD88DE
:04022F003CC52D0598
:04023000114A73CE2E
:0402310013ABE7051F
:040232001E84859E03
:04023300016F81775F
:040234003E2AE1EC91
:040235002469E073E5
:04023600077F2BD340
:040237002D80E72A05
:0402380033B492F257
:040239003B88FCD131
:04023A0027763142B0
:04023B003E1561C249
:04023C0004E4EBEB00
:04023D003A623A6A7D
:04023E0028576FD1FD
:04023F002B48C6BFC3
:040240003AF96161C5
:0402410035289E833B
:0402420029C60F902A
:0402430030488DC3EF
:0402440038BFB122EC
:04024500285BAFA5DE
:040246003670019B72
:0402470005B29B1051
:040248003DF3C2764A
:0402490000426A38CD
:04024A0004DDCD0FF3
:04024B000B3DD1E9AD
:04024C0026EB8E29E6
:04024D002C5B12AE66
:04024E0028419EDDC8
:04024F00145FE572E1
:040250000C91E4A485
:04025100200E27ADA7
:040252003DEDE9860F
:040253001C3F18082C
:040254002A0FD9BBD9
:040255003CD7FC7026
:0402560020B139F3A7
:040257003A32D3184C
:04025800137811EF17
:04025900200D1D2B2C
:04025A00266A5D3E75
:04025B003D3BFB1D0F
:04025C0003B962245C
:04025D000AB80D7955
:04025E00048B0FAF4F
:04025F000D5D744A73
:0402600025D2B302EE
:040261001265801989
:040262002E7964ECA1
:040263000F4374C30E
:0402640008234BA57B
:04026500352478576D
:040266000A20220C3C
:04026700272EB8186E
:0402680005A231DEDC
:040269001DEEA25C88
:04026A00392D7C545A
:04026B000C8B07F4FD
:04026C003479C5CE4E
:04026D000F7540DEEB
:04026E00267B45F0B6
:04026F003362B487BB
:04027000299E5D273F
:040271002788F8D60C
:040272001156DDCA7A
:040273002AC80CA5E4
:0402740013314B03F4
:0402750004D28B60C4
:040276001B0487E6F8
:040277001BCB720922
:040278003375784F13
:040279000C87FA2CC8
:04027A002836ACBFB7
:04027B000BD6D85B6B
:04027C0005A741642D
:04027D002227A7ACE1
:04027E00051BFB1051
:04027F0026B71BA2E1
:040280002429D2ADAE
:0402810012618C5327
:04028200020852ED2F
:0402830026C9779B76
:040284001412C95730
:040285000142DC75E1
:040286002964234A7A
:04028700147B1017BD
:04028800111A1779B7
:0402890026D4227FD6
:04028A002EA4085C3A
:04028B0017355BC503
:04028C001D3A4D13B7
:04028D002F1E0675A5
:04028E00326A8C0341
:04028F00197F675715
:0402900031A126BAB8
:040291001F442B4C8F
:04029200053CBE6108
:0402930023FE961B95
:040294000FB4E4615E
:040295000748D2D074
:0402960026CD19F167
:040297002883DAEAF4
:0402980021F76FDCFF
:040299002FF5D02C41
:04029A0025D9F9B9B0
:04029B0017E87B5F86
:04029C0000EAC3E6CB
:04029D000BD3127BF2
:04029E002BBEC03D76
:04029F003087ACBA3E
:0402A0001D4BE9D336
:0402A1000648C32820
:0402A20020EE8DFFBE
:0402A30006C5CE4777
:0402A4000D1A139B81
:0402A50020735C86E0
:0402A600217422A4F9
:0402A7001E35D2B27C
:0402A80036E6CC74F6
:0402A9002FF920DD2C
:0402AA000F2DBDA9AE
:0402AB000C64F20BE2
:0402AC000F6B995EDD
:0402AD003968D432A6
:0402AE00077B0FA516
:0402AF000281CBEC11
:0402B0003C01D6E750
:0402B100069B7D111A
:0402B20021452301BE
:0402B3001CA651FC38
:0402B400291D24419B
:0402B50018C3B4D3E3
:0402B60004612706B2
:0402B7000D35D49598
:0402B80007C8B47A45
:0402B90019046F6F46
:0402BA0016856758E6
:0402BB0032C1BD5C33
:0402BC00278AD5A711
:0402BD000C18A28FE8
:0402BE00202707BB33
:0402BF002A6A30E790
:0402C0001271AC9972
:0402C1000F42FC608C
:0402C2003A7A6B0D0C
:0402C3001540DAA365
:0402C40036C00642F8
:0402C50032FAA42540
:0402C6002744F14D8B
:0402C7003D668640CA
:0402C80011768169C1
:0402C9003BB6C5E19A
:0402CA002491197AE8
:0402CB002B5B9CF518
:0402CC0004AEDCB3ED
:0402CD0000625DDA94
:0402CE002B578FF12A
:0402CF0012F717CA41
:0402D00023EE629E19
:0402D10037ED6CEFAA
:0402D200133319E1E8
:0402D30012E89D1779
:0402D40029B22E7AA3
:0402D5003445372D48
:0402D6003B2B53D497
:0402D7001271AA7C7A
:0402D8002179B315C0
:0402D90037ED5B861C
:0402DA000A89A47F6A
:0402DB0035DAC43616
:0402DC00357F605CAE
:0402DD002CE47C5140
:0402DE0008A12F51F3
:0402DF00144D752520
:0402E0001E49202B68
:0402E100349E15B47E
:0402E2002059085542
:0402E30025F036DCF0
:0402E400219D84864E
:0402E50017BA1850DC
:0402E6001243AD4EC4
:0402E700069F210A43
:0402E8002CD47EDABA
:0402E90029455DC680
:0402EA001AF4BA3D0B
:0402EB002AD42D697B
:0402EC000DE11C2BD9
:0402ED002578ACA123
:0402EE0015BBC2FE7C
:0402EF00186E00E4A1
:0402F000276BB0DCEC
:0402F10028974945BC
:0402F2000FE5757F20
:0402F30017D8743F65
:0402F4001FB6367B80
:0402F5003B10535215
:0402F6001A76621002
:0402F70005B2B9553E
:0402F800052E10CFF0
:0402F900216E8DB62F
:0402FA000876120C64
:0402FB0018119755EA
:0402FC0010C76F5266
:0402FD0025C5326B76
:0402FE00033DBF33CA
:0402FF00308CFF9BA5
:040300002C7066BE39
:0403010032D94E9906
:0403020004421B1B7B
:040303001300DF3ACA
:0403040015C99F4830
:0403050017CA464A83
:040306002E547DBA3A
:040307000BF8774632
:040308000C0B613F3A
:0403090025C11AC22E
:04030A001AB70E14FC
:04030B002AEB393C64
:04030C0015F999B78F
:04030D002E928CC4DC
:04030E00342B138DEC
:04030F000C14BEF01C
:04031000037F82B035
:04031100262E8E8185
:040312002ECC9A3320
:040313002109A763B2
:0403140028C587363B
:0403150030DB308B1E
:0403160036B7E3E132
:04031700151A9EE530
:040318003297FFBE5B
:0403190015D5D2F331
:04031A000E64EE7B04
:04031B003B4D6E7A6E
:04031C0024B3B0A7AF
:04031D0010B08BFE93
:04031E0012BF4EB804
:04031F00045C94AC3A
:040320001B1FC58159
:040321000B22DA359C
:040322003BDFA0C05D
:040323001D108BC856
:040324002B35E7A4EA
:040325002EFFFA713C
:0403260023A2759801
:040327002A5BE2AEBD
:040328000B0518CFDA
:0403290025E4A9908E
:04032A00215CD81565
:04032B0027A2EB20FA
:04032C00166F453CC7
:04032D0009AAA04E2B
:04032E0000F14C8D01
:04032F0037DB1F0C8D
:0403300011EAB251CB
:040331003C767D1782
:040332002F2C8EAC32
:040333000DBBB958ED
:040334002F186C4BC7
:040335000799E2B78B
:04033600257559D7F9
:04033700039ECEE86B
:0403380033A3C6FE27
:04033900302EF784E7
:04033A0038EDF77330
:04033B002C3612202A
:04033C00044731D869
:04033D00387B40B910
:04033E003907FD621C
:04033F0025E5FB2590
:0403400021133D3D0B
:040341003141041032
:040342003593B0F946
:040343001B1900780A
:0403440037F72C6DEE
:040345000D6462AF32
:0403460023B2681462
:040347003E8EAB54E7
:0403480029F720244D
:040349000D7189A306
:04034A0004A29C0964
:04034B000A7200A58D
:04034C00262278F6F7
:04034D003A5F57BDFF
:04034E0019C7585B18
:04034F00135DD9E27F
:0403500038FA1D4C0E
:040351003631D6BCAF
:0403520033C5038F1D
:0403530030C0C006F0
:0403540037D1DE6956
:040355002C6AF577A2
:040356001D9DB3DB5B
:040357002AEF36B59E
:040358000EFBA6747E
:040359003B7CCCEE2F
:04035A001D634EEEE3
:04035B000542918541
:04035C00261D765094
:04035D003757448B3F
:04035E0026967087E8
:04035F002A928F57F8
:040360000FEECCECE4
:040361001EEF77C054
:040362000C4732BF53
:0403630003C5D89D59
:0403640022DEB6CC13
:0403650033F2CB9311
:0403660029A5135062
:0403670007F72188EB
:040368001CAE5E97D2
:0403690021FC457CB2
:04036A00385AD2D457
:04036B003309901FA3
:04036C00070D539B8B
:04036D0016E1BD5E7A
:04036E0030AF2D5C23
:04036F002D5E8ADF96
:040370000059D6E674
:040371003DFB3A0412
:0403720014EC747B98
:04037300287109A93B
:040374000A3D1ECD53
:0403750020695EE4B9
:040376000D3C2B719E
:040377003753B40440
:040378003D39559E18
:040379001FF1EE760C
:04037A002F889FE148
:04037B00151C826269
:04037C002853B6CB81
:04037D000E0911FC58
:04037E0026200AE447
:04037F000CF05B0221
:040380000EC9E8AE0C
:04038100286AEDD326
:040382002C9D3498E2
:040383003350D6A07D
:040384002BD602BEB4
:0403850014BFF0664B
:040386002DC54C93A2
:0403870033B31CE090
:040388002BC1305302
:0403890014835592F2
:04038A00074ECC2727
:04038B0022D0233623
:04038C002E2620A356
:04038D002926E74BEB
:04038E00051B4A45BC
:04038F0011AB9A080C
:0403900015FC4340D5
:040391003DCB6542B9
:0403920034BD0C9BCF
:0403930030D9DD5C24
:04039400290F6D08B8
:0403950038EC793F88
:0403960035D323FF39
:0403970003B9B431C1
:040398001B57E8F611
:0403990014B0EC347C
:04039A000994A68E8E
:04039B0009C7ED4D54
:04039C00288C6FEF4B
:04039D001898357403
:04039E000084843C17
:04039F0023B35C68C0
:0403A0000CBEC5BC0E
:0403A1001126A9B6C2
:0403A20036B95C2CE0
:0403A3002D5C64B8B1
:0403A4000B63010DD9
:0403A5000B22DE89C0
:0403A600303AD6CD46
:0403A7003A8E1AC9A7
:0403A8002245EAA25E
:0403A90030D58321A7
:0403AA00195E3400A4
:0403AB002751603B3B
:0403AC002309C34717
:0403AD00220D1BA55D
:0403AE000E91043078
:0403AF0003833CACDC
:0403B00032AC4DE13D
:0403B1001BD2C51D79
:0403B2001B822E1864
:0403B3000559ED3FBC
:0403B40029104D7847
:0403B50034AF85FFDD
:0403B60028E0441ED9
:0403B7000145754641
:0403B8003BA3DF354F
:0403B9001F2C20864F
:0403BA003DDD5FF0D6
:0403BB00067E53B6B1
:0403BC0016BA12ABB0
:0403BD0025381312BA
:0403BE003C334D6817
:0403BF0001D148F12F
:0403C0001E0107947F
:0403C10004B494707C
:0403C2000530F667A5
:0403C30025B4FD99C7
:0403C4000111E7DE5E
:0403C5001C171E20C3
:0403C60010FAC4ED78
:0403C700337720FD6B
:0403C800042DF5AF5C
:0403C9003777E6FD9F
:0403CA00171B417943
:0403CB003BFE5DAAEE
:0403CC003B38CD8D60
:0403CD0035C63EC033
:0403CE0014529AB477
:0403CF002928AEBB70
:0403D0001BBAA604AA
:0403D100374F082179
:0403D2001EF6BC1740
:0403D300038B3F7EDB
:0403D4000B31EA0CF3
:0403D50010D57C764D
:0403D60017BC99AA0D
:0403D70039DBE2EA42
:0403D8002FDA5A7B43
:0403D9003D49F41690
:0403DA003DCDFD5ABE
:0403DB0033AC3D6B97
:0403DC002FDF64EFBC
:0403DD0015AB18CE76
:0403DE00184844DA9D
:0403DF002AF68A96DA
:0403E0001D69651618
:0403E1001D96C65C43
:0403E2000D0D27A82E
:0403E3002E721E75E3
:0403E40007F20BDC35
:0403E5001F96B17638
:0403E60022F9FED624
:0403E700256FCC753D
:0403E80001EE80D7CB
:0403E900287B869A4D
:0403EA0024197B4017
:0403EB0013E82404EB
:0403EC00040118CE22
:0403ED003E7DE4AEBF
:0403EE00060674A7E4
:0403EF0026D2FF8F84
:0403F0001CDEE4DE4D
:0403F1000C13C05ACF
:0403F2003EA6EA7DBC
:0403F3003173DA3751
:0403F40039C451AC0B
:0403F50032C70EBD40
:0403F60002B5E45711
:0403F70000DC913B5A
:0403F800077BBB8B39
:0403F900360287DA67
:0403FA001B0F497616
:0403FB003B5B3B1815
:0403FC002B4D6E68AF
:0403FD00000968503B
:0403FE000DA52E6CAF
:0403FF0038AE591D9E
:0404000032C50F975B
:040401000F9046B062
:0404020007C7F4BF75
:0404030001FB0427CE
:0404040019D6E975A7
:0404050012E4625F3C
:04040600151B13149B
:040407002A66737975
:040408002C96440CDE
:040409003E1F996495
:04040A002DB9893D42
:04040B003736B1626D
:04040C002EADB8CF8A
:04040D00151411258C
:04040E003243E694FB
:04040F000E92E41C49
:0404100021BC87A6DE
:040411002743C58533
:040412001529C8E000
:040413002A723465B0
:04041400114B8224E2
:040415002327849C79
:04041600086BA7F3D5
:040417000B3BB39D4B
:04041800331A1B92E6
:040419000C65CED9C7
:04041A00040FCF29D3
:04041B0029D128A615
:04041C0012A69A7614
:04041D002143A7B31D
:04041E00369D9CD992
:04041F000225702F13
:0404200011FC78F261
:0404210020148541DD
:04042200351326C99F
:040423003B3627102D
:040424001C508E28B2
:040425003C77C0154B
:04042600238339B241
:040427003645457D94
:04042800054D8A797B
:0404290012D97DBDAA
:04042A0024D6CCE325
:04042B0010EE06D1F8
:04042C00277A1574A2
:04042D000B0482FE3C
:04042E00047AC25436
:04042F00169B5BFFBE
:0404300016CF1002D1
:0404310015C2880167
:0404320024B188F475
:040433001B1FFC7916
:040434002DCC7194C6
:040435003B5A26E820
:040436002C9506D12A
:0404370003B127C323
:040438001CA1249748
:04043900027451DE1A
:04043A0025DF2C3D51
:04043B00189580147C
:04043C0010DD3BB2E2
:04043D000B514B4BC9
:04043E002A42E82442
:04043F0025624F3BA8
:040440001657E5184E
:040441003C3408C976
:040442001EC7587306
:04044300013B040372
:040444003958F10A28
:0404450015C8A562CF
:04044600215F268C80
:0404470004473354DF
:0404480029D495CD51
:040449001FC54DD9A5
:04044A003EB9822E07
:04044B0021B4454D46
:04044C003BCAC30ED6
:04044D0009390A3D22
:04044E0009B609F3EF
:04044F0000ADD31613
:04045000213FFB84C9
:040451003162A19FD4
:040452002A4F44EFFA
:040453000D7F857C18
:040454000A894A8344
:04045500110507B9CD
:0404560034D9EEB2F5
:040457000514E0C0E8
:04045800214F4942A5
:0404590005A1AC3716
:04045A002E925AF193
:04045B00300DD43A52
:04045C00259F1A714D
:04045D003AA694EB3C
:04045E001111684DC3
:04045F0029DAF11A8B
:04046000011839C284
:040461003892E08964
:040462001D4EE3D276
:040463003A73784F21
:040464003DA9D015C9
:0404650024CE2CA7CE
:0404660015F2BF1AB2
:04046700273F3551A5
:0404680038D93BAD97
:040469000AE3D5537A
:04046A000DB362B0BC
:04046B002A9BBB7499
:04046C000635819D33
:04046D0038FA4566AE
:04046E002935F597A0
:04046F0038A3729AA2
:040470001048F953E4
:040471000A0043003A
:040472003DFE61F8F2
:040473000CE418C6B7
:040474001287AC142B
:04047500365462BBDC
:040476003CBBA90FD3
:04047700287F71A5C4
:04047800364FA9B0A2
:04047900177658BFDB
:04047A0024F7CE6035
:04047B002FDC61FB16
:04047C000D9C13734D
:04047D0028B367FF3A
:04047E0004C836A7D1
:04047F0010C506EBB3
:0404800018FDD83358
:040481001FD5AD399D
:040482001668E4A272
:04048300227A60DE9B
:0404840032DA118BCC
:040485001AA3BCA159
:040486001102EFC4AC
:040487000A6457FCB0
:040488002B96CB8163
:040489001D431BFAFA
:04048A001DC2B58F4B
:04048B002D18DC1E2E
:04048C002064B33401
:04048D00002ED28EDD
:04048E00180811DE5B
:04048F001276F8A544
:040490001BC0853ECA
:040491003681E47854
:0404920014A2260783
:040493000145EC082B
:040494001416821A9E
:040495003CDCEBFD63
:0404960036F53BC23A
:0404970038D1B1AEF9
:040498002BF9D9E77C
:040499000230A16E1E
:04049A000B0E6B0DCD
:04049B0004E7162636
:04049C002582B3F111
:04049D00112895800D
:04049E001CA5433422
:04049F002A96B9F1EF
:0404A0003CB893F4DD
:0404A1001F1A4C5E74
:0404A20018164BB726
:0404A3001013732E91
:0404A40010A2315120
:0404A50032446FD19D
:0404A600386DB70BEB
:0404A70035931685EE
:0404A800183DF28287
:0404A9001081FE6B55
:0404AA00194CEBDF1F
:0404AB00210EA7E592
:0404AC0017F0251A06
:0404AD0030AC4352DA
:0404AE001824285294
:0404AF003D3DB5D545
:0404B0000078C740C9
:0404B10012D6DFA8D8
:0404B20034B5F60760
:0404B3000C898567C4
:0404B400258F8230DE
:0404B500291F14D710
:0404B600269DC45B60
:0404B7000D33FC3DC8
:0404B800053F0E618D
:0404B9001DC8851FB6
:0404BA0035713D63F8
:0404BB002707D2BF7E
:0404BC00266BD9EDE5
:0404BD001A495B94E9
:0404BE00042F23A73D
:0404BF000162651B56
:0404C000283D48711A
:0404C100174A9E4AEE
:0404C2003D8FB1AB0E
:0404C30005105AB016
:0404C4001F0E7D3D4D
:0404C50007CBBB9E08
:0404C60031EDC882CA
:0404C7003BCE248282
:0404C800196A2FE995
:0404C90035F57B1278
:0404CA0025D3A0BDD9
:0404CB0017201FAE29
:0404CC003A6554F841
:0404CD001D02D787AE
:0404CE002E1156385D
:0404CF002DEC985820
:0404D0000CFD634577
:0404D100005D27495A
:0404D2001BC51390A3
:0404D3003DDE9B501F
:0404D400146D1AFD8C
:0404D50037B1D2BCAD
:0404D6000BD609CA6E
:0404D70005688FE540
:0404D800108BAB4595
:0404D900380902E0FC
:0404DA000DFDE167CC
:0404DB0012AA459587
:0404DC001E77F4D9BA
:0404DD001DE383B9DF
:0404DE0013F089BAD4
:0404DF0027146FF07F
:0404E0001A35F07D5C
:0404E1000295A5FDDE
:0404E200079D0BA8BF
:0404E30032BF34C22E
:0404E40034550B4838
:0404E5002EA31E160E
:0404E6000E1C783A36
:0404E70012CF0E53CF
:0404E8000E537C7EB5
:0404E9000DF38A1C69
:0404EA0009529BB95F
:0404EB000995D3B8E4
:0404EC000A955C4AC7
:0404ED001CBA9D7820
:0404EE003B6569837E
:0404EF0002841C92D5
:0404F0001797D991F0
:0404F1001072B4824F
:0404F2001E91F8DF80
:0404F3001C8B6A6094
:0404F4002026657DDC
:0404F50017362A90FC
:0404F60015F26B3858
:0404F7002EA7D53423
:0404F8003489AD0690
:0404F900325135AA9D
:0404FA0028F769393D
:0404FB0016FCE49C6B
:0404FC00081DFC2BB0
:0404FD0014495F71CE
:0404FE003C3ABCDCEC
:0404FF00378063DD02
:0405000039A83AD00C
:04050100227DC3B3E1
:040502003A0FE28B3F
:0405030020613B3107
:04050400260BD92CBD
:0405050000DA1322E3
:040506002793FB0D2F
:040507001C511FD094
:04050800344B7F9B56
:0405090028339B00F8
:04050A0005A6D1F180
:04050B000436F7D8E3
:04050C002E96D8C38C
:04050D003102CE9257
:04050E0033BF52FAAB
:04050F001F7F2559CC
:0405100001D2F1FD26
:0405110030715213E0
:04051200287D4FB938
:040513003D476CB73D
:040514001D63EF660E
:040515001F63718A65
:0405160004F463AED8
:040517003D6572CFFD
:040518002BC6CAA67E
:04051900083100A203
:04051A00290DA7BA46
:04051B003442863BA5
:04051C0019D7E4CD3A
:04051D002FF09853D0
:04051E0017AF6F3173
:04051F000F398E52B0
:04052000197922AA79
:040521000B0C7968DE
:040522000F625ED432
:0405230020FB6D6DDF
:040524002EEC565A09
:0405250006329B4BB4
:040526000107441E67
:040527003012C3D6F5
:040528002AC77A8ED6
:040529000FC6D1A088
:04052A002B61A4C2DB
:04052B000C04D0A14B
:04052C001CB2FAE61D
:04052D001F8CEE41F0
:04052E002D0D5B0C28
:04052F0000B8E53AF1
:0405300004BA5DD7D5
:0405310031369CFFC4
:040532001AB0DC011E
:0405330015137ED945
:040534001BBC1FFAD3
:040535000F7F4A8565
:04053600082ACE635E
:040537002814D8B6F6
:040538002DBCC532DF
:040539003CA819A918
:04053A0003DDADD957
:04053B0029357AEFF5
:04053C0018404D3ADC
:04053D00329F511A7E
:04053E001227BA6F57
:04053F000A041898FA
:040540001C19B63696
:040541000E01E92A94
:0405420009F502694C
:040543001E9BF854AF
:0405440016D2D9A052
:04054500117A902770
:040546001B1165AA76
:0405470026BF83D375
:040548001100C215C7
:04054900052E28B49F
:04054A003620C799F7
:04054B0008A09B4821
:04054C002CAEC0CF42
:04054D001AE79E3ECD
:04054E000F54DCA0CA
:04054F00206D87FA9A
:04055000023C6B18E6
:040551002C429F9108
:040552002B0E430623
:040553002B9B1D17AA
:0405540027B1FBC40C
:0405550011C629CBD7
:040556002C6EB48CC7
:040557003D377FD5D8
:04055800390C5E629A
:0405590028FDC3A214
:04055A001A3A3713FF
:04055B001DAF5D7201
:04055C001A1EACF1C6
:04055D003A82D3AD5E
:04055E000DAE83E873
:04055F003D1D27F423
:04056000291143A07A
:04056100094B1EBE66
:040562000F5DACBFBE
:040563003D39E0A49A
:040564002653FA938D
:0405650000CAFBFBD2
:0405660038F025FB49
:04056700246D95B2B8
:0405680019C3210290
:04056900243FF03605
:04056A002A77E73EC7
:04056B00161B5B4EB2
:04056C002210A87A37
:04056D00205EE38D9C
:04056E000151E0AFA8
:04056F001664FB9A79
:040570002414D84334
:0405710019757C6418
:0405720022C2A67D7E
:04057300207EAFEB4C
:040574000584C62311
:040575001BE24478C9
:040576003E05248496
:04057700146421B532
:040578000166B36CF9
:0405790025FB99F8CD
:04057A002854F4D33A
:04057B0030088C7543
:04057C00208075E581
:04057D003082F2874F
:04057E0017EF548C93
:04057F00225511B739
:0405800018557ECAC2
:040581003B3E199C48
:0405820025B7DA7A45
:040583002DBD8D59A4
:04058400033677D1F2
:040585002511D13F2C
:040586002FF909F44C
:040587002E41B41D30
:040588001F2E2FB043
:040589000007AE7E3B
:04058A002FB36F56C6
:04058B003D5F2A297D
:04058C00095D23667C
:04058D0010C5ACFBEE
:04058E002241E346DD
:04058F003D814DDE7F
:04059000084C1D3CBA
:040591002A09909D06
:0405920025AB62BE75
:040593003B2AF54FBB
:0405940024F36ABC26
:040595001C83FF7252
:040596000E7BBAF925
:04059700214BC01420
:040598001F1EC33F20
:040599003A83A1F907
:04059A002A5F8399B8
:04059B001EE9402FE6
:04059C002014F0C572
:04059D0021E71B8DAA
:04059E00386800EECB
:04059F00059EB5619F
:0405A0002B3784046D
:0405A100330099BFCB
:0405A20021D479DD0A
:0405A3003324BD48F8
:0405A4003C25574D4E
:0405A5000F46B46EDB
:0405A60027C4089FBF
:0405A7002965B68C80
:0405A8003CEA5D6C60
:0405A9000EBDB2E6EB
:0405AA000536FC56C0
:0405AB001D17345193
:0405AC000FDE671BDC
:0405AD00264B95F351
:0405AE002A4678A7BA
:0405AF000AEF50FE01
:0405B0000EB939AC9B
:0405B100396EE3912B
:0405B20028989BE109
:0405B3002E7650262A
:0405B400377C65E348
:0405B50023E7030B2A
:0405B6000E1E26DF10
:0405B70034BE8A2A9A
:0405B80026FCBE203F
:0405B9003A5DDF5375
:0405BA000360CFA269
:0405BB001B14494084
:0405BC003791542BF4
:0405BD00144ECB66A7
:0405BE00276CE4A31F
:0405BF00357A4C3C01
:0405C000306688DC3D
:0405C10039596A56E4
:0405C20024833EDD73
:0405C3002CA5E0B4CF
:0405C40036B6C6F988
:0405C5001E6B669CA7
:0405C6002FE76FFDAF
:0405C7002C647A1412
:0405C80013490E1DA8
:0405C9002DFF4F07AC
:0405CA001698A7D008
:0405CB002F3B450578
:0405CC0035F6F0BE52
:0405CD001330EBF309
:0405CE002FDCE1BA83
:0405CF00006338D9B4
:0405D0003DBC66D5F3
:0405D1000B2CAC8FB4
:0405D20008177B6E1D
:0405D300171B14716D
:0405D40000A3408CB4
:0405D5002CAFD5F87A
:0405D6002B22234F62
:0405D700013D6AD4A4
:0405D8003BFE52B7DD
:0405D90038DFF6F31E
:0405DA00023E23C5F5
:0405DB000D912C8CC6
:0405DC002484DD078F
:0405DD002D89BF7A2B
:0405DE0026006B8DFB
:0405DF0023BC8C624B
:0405E00022F9C452E6
:0405E100109FE8720D
:0405E20005F352AA21
:0405E300250D19C009
:0405E4000B4D7350F8
:0405E5001BA492823F
:0405E6003BDBB81231
:0405E70035A53903FA
:0405E8001419873B20
:0405E90003259F3A0D
:0405EA0033445957E6
:0405EB00353484CE51
:0405EC00398A41DE29
:0405ED00193592A981
:0405EE000FDBA199E5
:0405EF000C36DFE403
:0405F00034C12C28BE
:0405F10003B22A52D5
:0405F2001C1EB6B95C
:0405F3001D888D587A
:0405F4003D71E84429
:0405F500088711560C
:0405F60000265D0B73
:0405F7003AF5639FCF
:0405F80015F8C6D15B
:0405F900199C9EEEBD
:0405FA001035B512F1
:0405FB0000A2EF303B
:0405FC0027C0534A77
:0405FD000229370C8C
:0405FE00013730B9D8
:0405FF0019841A271A
:040600002A9B4B31B5
:040601001D3FB615CE
:040602001CF9A383B9
:040603002B34F2D3CF
:040604000910CE26E5
:04060500086CDBA8FA
:0406060006F6456946
:0406070020E65795FD
:04060800129BD2C0AF
:0406090008D536D307
:04060A000BB1DED67C
:04060B0015E50F5A88
:04060C0029F2F4DDFE
:04060D00179782F3C6
:04060E002F8A237696
:04060F00246D41C84D
:04061000198B8E991B
:040611003A41C8F6AC
:040612000DEEA30D39
:04061300315BFDF763
:04061400236171FEEF
:040615003314BA8B55
:040616003E305E3DD7
:040617003282E265E4
:040618000F5A21ED67
:04061900006CA71BAF
:04061A0012AEF62402
:04061B000757EDAFE1
:04061C003188504988
:04061D0029305459D3
:04061E002D56492CE0
:04061F00357CE81628
:04062000162559D072
:04062100108E1FF91F
:040622001819B303ED
:040623000D99564790
:0406240026CB1A8146
:040625002DA46C058F
:0406260030C7CFD535
:0406270029EBA6E82D
:04062800098EFF7CBC
:0406290014F61F980C
:04062A00374632ED30
:04062B0031AE6FFA83
:04062C000F6BFF8EC3
:04062D00391B496DBF
:04062E0000CC475560
:04062F000C5B5F4AB7
:04063000287F962663
:040631000B612A2B04
:04063200330A67CC54
:040633001FC54A8114
:0406340000847C764C
:04063500172A7D2DD6
:040636000B23FEA9EB
:0406370007CE4B9D02
:04063800336E1044C9
:0406390027C375CA94
:04063A002D4E929F10
:04063B0011E2CE9169
:04063C0012BC381D97
:04063D0005CE012BBA
:04063E0003E9CAC43E
:04063F0007C11B587C
:0406400026E749B1AF
:040641001F66AACEB8
:040642000D28E02E71
:040643001FD2513C35
:04064400341E1A8CBA
:040645002BD96D8DB3
:040646001B3FE78EE1
:040647002714721BE7
:04064800155791CDE4
:04064900259840911F
:04064A000BA3E1B865
:04064B0033AA6596D3
:04064C000D2CF6700B
:04064D000B9C314E83
:04064E00257AE10622
:04064F001F74236D84
:040650001EEE877F94
:0406510013E4B5BB3E
:040652001C83462D92
:040653003C92EE7A6D
:040654000CF300188B
:040655002B82C839F3
:040656002AD0C88E50
:040657000F66927A1E
:04065800182E154300
:040659003BC0BC776F
:04065A00211CC2D6C7
:04065B00112A507F91
:04065C003DAA66B29B
:04065D000D6D167198
:04065E0015206E787D
:04065F001E6473DFC3
:0406600039DC6BB85E
:040661000F4E738C39
:040662003D8FFDA427
:040663002DF9FF87E7
:040664002ED56932F4
:04066500268EED618F
:04066600134FA11D70
:04066700086469FCBE
:04066800054FBB552A
:040669000DDFA46499
:04066A000D6A24B23F
:04066B0022F9979247
:04066C0019E69000FB
:04066D0005CDB87A85
:04066E0009F4C70DB7
:04066F003726C65113
:040670002E7D934503
:040671000098C91212
:0406720001E9D51AAB
:040673002E71DBFC0D
:040674001804212124
:040675003724FBB17A
:040676003E9A2D4B30
:0406770009448DD9CC
:0406780020D9CE8235
:040679002888367F18
:04067A000299283584
:04067B002A3C311BC9
:04067C002BDEA63C8F
:04067D0038F7B38413
:04067E003265D130E0
:04067F00380EE4232A
:0406800026B9894CC2
:040681002D46418D34
:0406820039713C3658
:0406830027A4E423A1
:0406840032FA4DEF0A
:040685002BDEEE1B5F
:04068600272F8EF399
:04068700129D007C44
:04068800172E3BB935
:04068900065E6D4F4D
:04068A0028C77E07F8
:04068B002C306BEBB9
:04068C000646D193BA
:04068D003AAA3B4505
:04068E000C6BB8F643
:04068F00352B1D8367
:040690000A077C5D7C
:040691000CD56C1AFE
:040692002EC549B573
:040693003BE533A16F
:04069400157767BAB5
:0406950012DB3E6EC8
:040696000EF7BEE5B8
:040697000C2C868A17
:040698000C28910594
:040699000CB884B75E
:04069A003638F913E2
:04069B0025734DD2A4
:04069C002FA4456DD5
:04069D0017DD66AC53
:04069E0001CC4B8EB2
:04069F00174E090ADF
:0406A000165B4A8417
:0406A10027DE221915
:0406A2003DB47DAE38
:0406A300019C7098AE
:0406A40030E7A15446
:0406A5000A0ACB4131
:0406A60015D1DDB6D7
:0406A70014C6A6D8F7
:0406A8003461403A3F
:0406A9000379CE24DF
:0406AA001B000679B2
:0406AB0039CBCCBFBC
:0406AC00138339A1DA
:0406AD0031F70370AE
:0406AE0035EDFFFB2C
:0406AF0002775CB2C0
:0406B000146FB449C6
:0406B100222893F573
:0406B2002205847029
:0406B3001B4BF9F6EE
:0406B4002F39FC11CD
:0406B50037B2CBAEDF
:0406B60014EB2B7E98
:0406B7000230AC035E
:0406B800316CF2AC03
:0406B90023E7B0166D
:0406BA003E4214E8C0
:0406BB0015A491AC45
:0406BC000595C5F3E8
:0406BD00061254A528
:0406BE0037F394DAA0
:0406BF000C5AF9EFE9
:0406C00017FE5C0FB6
:0406C1001FD691703F
:0406C2001D27B0F64A
:0406C30033A1CE6E23
:0406C400230AC1D470
:0406C5003C897B44AD
:0406C60028C14CCE2D
:0406C70029B60C1C28
:0406C80020EB162BE2
:0406C9003A07FC638D
:0406CA001F97D5653C
:0406CB000D2965860A
:0406CC002218A7FA4F
:0406CD003E079FBB8A
:0406CE002691C25C53
:0406CF0014F19E2D57
:0406D000185E9A35E1
:0406D1003A43D7735E
:0406D2000708B1F371
:0406D300080375A003
:0406D4003100E39678
:0406D50016F07B138D
:0406D6000068A98E81
:0406D700069C6BA969
:0406D8001CD13006FB
:0406D9001C077996EB
:0406DA002FFA0814D7
:0406DB00003F667105
:0406DC000F859923CA
:0406DD003669FC403E
:0406DE001DC406D45D
:0406DF001F5D4A4F02
:0406E00035F0D626F5
:0406E1002AA0D10674
:0406E20029548B48C4
:0406E3001F991C1926
:0406E4001BAF653FA4
:0406E5002AE37D493E
:0406E60032E58F7FEB
:0406E7003363F18AFE
:0406E8002EAB6EB413
:0406E900346B314AF3
:0406EA00220ABD9D86
:0406EB00337EDE1765
:0406EC00249D3E9675
:0406ED001E36BD50A8
:0406EE001641D94197
:0406EF001424EE34AD
:0406F00029D1596C47
:0406F10031013E9203
:0406F200348C810CB7
:0406F30026412E6608
:0406F40016D098176D
:0406F500048F9215C7
:0406F60000DF370EDC
:0406F7003B553F57D9
:0406F800178337BD70
:0406F900212B964CCF
:0406FA00208891477C
:0406FB0023B2FBAB80
:0406FC00372292F11E
:0406FD003B34A38760
:0406FE0018701A3422
:0406FF00045DCD2C9D
:040700001E6C79836F
:040701000FABC32354
:04070200004A76FB38
:0407030023DDE9C643
:0407040024DDEAE91D
:0407050030852DE42A
:0407060026438514ED
:040707000D7C85F6EA
:0407080016D7D530FB
:04070900321E16A4E2
:04070A003DC8A39BA8
:04070B0038B493DE8D
:04070C00370B5BCD7F
:04070D0001EFD0E147
:04070E000924385F23
:04070F0031A8E5998F
:04071000186A943B94
:0407110014C815A44F
:040712003403523B1F
:04071300276B6C588C
:040714001D3886699D
:0407150018CB878CEA
:04071600053C5EBF81
:0407170002AD568B4E
:040718002D653465B2
:0407190039248CFEF5
:04071A003D166F7A9F
:04071B0029488AB52A
:04071C00096FAE852E
:04071D000B5F105707
:04071E0017150D9707
:04071F000517445F17
:0407200009F8942020
:040721002E808A811B
:04072200265E2147E7
:0407230037FD293A3B
:0407240025652E48D1
:040725001FB1322CA2
:040726003B31D02172
:0407270000940F65C6
:040728003D788A4B43
:040729001A3EA6943A
:04072A00172E55C071
:04072B002D060FED9B
:04072C00329A362A9D
:04072D00372EF25D14
:04072E00114E60F711
:04072F003407650A1C
:04073000197B9CF3A2
:04073100359C41BEF4
:04073200306F0DC156
:040733000774CEFC7D
:0407340001A65DB10C
:0407350016BBA371DB
:0407360024B7C1D64D
:040737002DE68530F6
:040738001DCC0AE3E7
:040739000B66AF7923
:04073A001CA7EC3ECE
:04073B001EF873FA37
:04073C001F8CD67EBA
:04073D0038C3F6ECDB
:04073E003D70648B1B
:04073F0015B56F9BE2
:040740002724D68B09
:0407410016F6C8469A
:040742002E1AED3846
:0407430014974D9624
:04074400086A4BB93B
:0407450014B6623F45
:04074600004E377FAB
:040747000904B918D0
:040748002CEEAB14D4
:0407490033BA06BFFA
:04074A00059C74FD99
:04074B001AEFB80DDC
:04074C001AA70016D2
:04074D001F137F2EC9
:04074E003A235CDC12
:04074F002BB273C78F
:04075000066D24A06E
:040751000358CC9CE1
:0407520010FD662709
:0407530011C7BCEC22
:0407540016013267F1
:0407550031A4E5C91D
:040756003925D18DE3
:040757001762F39B97
:040758000B07B7E3F1
:040759002D3FC39FCE
:04075A00174899990A
:04075B0009733AB034
:04075C003790C2E828
:04075D001E8986DE8D
:04075E002816C9E6AA
:04075F0011F29CEE09
:0407600031A7E8696C
:040761002FF2C6CBE2
:0407620000A68E2B34
:040763001A884C495B
:0407640039C0891AF5
:040765003B459B85F0
:040766002976FFB53C
:0407670004C39189AD
:0407680024B8FCDADB
:0407690022F30A0E5F
:04076A0013F3F00F86
:04076B001500422211
:04076C002486322C81
:04076D0023368A6C39
:04076E003E5E78CFA4
:04076F0019F63C3308
:0407700035EA9E3C8C
:0407710009005F7F9D
:040772003A096C8D47
:0407730032CA7FDE29
:040774002C0597F2C7
:040775003987C5F902
:040776001D9BAC100B
:0407770032873FD0B6
:04077800371F653191
:0407790022888D4005
:04077A003C5DE49E60
:04077B00292E517C56
:04077C003E755089ED
:04077D00287B2F5C4A
:04077E00284CFC46C1
:04077F00319F80F135
:04078000179C627DE3
:0407810019857AA6B6
:040782002697744EF4
:040783001967CB081F
:04078400159C47C5B4
:0407850004254454AF
:040786003B8CFB228B
:0407870031ED8C00C4
:040788003759BA1A09
:040789003A608188C9
:04078A0033EB959F19
:04078B000C2F79C5F1
:04078C002E78BD0006
:04078D0036C3B90EA8
:04078E00057B33585C
:04078F002B6E02616A
:0407900001C73BBDA5
:0407910029CF2C330D
:040792001EA5F52982
:0407930004A9C7FAF4
:040794000F14A87A1C
:0407950025EEA47F2A
:04079600366FD6EEF6
:04079700320A4D0BCA
:040798003224F90D01
:04079900188D0001B6
:04079A003198254429
:04079B0035BD9EE8E2
:04079C0039D9C7B2CE
:04079D00396C42165B
:04079E002BBA6749C2
:04079F003DE27B902C
:0407A0000B9B6E4EF3
:0407A10001C0E77B31
:0407A20000FC87D6FA
:0407A30031042EDF10
:0407A400001241BC42
:0407A5001368008D48
:0407A600096011F4E1
:0407A700094C735C2A
:0407A800216326F1B2
:0407A900135B9EC878
:0407AA000C4B91FF64
:0407AB001382A08194
:0407AC0039244F138A
:0407AD0039FD277279
:0407AE000D7236484A
:0407AF00125C08CA06
:0407B0002FF1EE84B3
:0407B1001192CF11C1
:0407B20005E893A71C
:0407B3001F395A236D
:0407B4001E6EE522AE
:0407B5003C2759E3A1
:0407B60018B1EEB0D8
:0407B7001B3E3707A7
:0407B80030311FE9D4
:0407B9001BBAE61071
:0407BA002C01B29AC2
:0407BB0010C96C579E
:0407BC0027516DA1B3
:0407BD002655FFDCE2
:0407BE00095B2E970E
:0407BF0008E5112612
:0407C0000930C21426
:0407C10038887C5B9D
:0407C2002F5234FC82
:0407C3002F70470C40
:0407C4001E4E61D193
:0407C50028223E7137
:0407C600270BA856FF
:0407C70022FB27E208
:0407C800268B58E53F
:0407C90031EDA56CFD
:0407CA0028798E39C3
:0407CB00245A6D0E31
:0407CC00025F685A06
:0407CD0016F55A15AE
:0407CE002530A9B574
:0407CF00107E7BFF1E
:0407D00003EC7F7F38
:0407D10035F856861B
:0407D200113A4F7118
:0407D3002CD3870894
:0407D40037774EBE67
:0407D50018EA13B259
:0407D60006F208FB24
:0407D700227C7A7591
:0407D8003411EC3DAF
:0407D9002A0077314A
:0407DA0036A6319678
:0407DB0031C4711D97
:0407DC0012F7CF9EA3
:0407DD002E621F3237
:0407DE0029CAEE46F0
:0407DF000C9EB018A4
:0407E00021FF17C618
:0407E1003CBFE41D18
:0407E2001170A9BA2F
:0407E300303755D581
:0407E4000EE6D1311B
:0407E500383E512128
:0407E6003DCC8FFA7D
:0407E70016231BE6D4
:0407E800274DE600B3
:0407E90021F8D6D944
:0407EA0039E2CA5DC9
:0407EB002ED6652D74
:0407EC000323241EA1
:0407ED001B6B6270B0
:0407EE002EE8DD1301
:0407EF003147ACE8FA
:0407F0000752211D6E
:0407F100119ABEE5B6
:0407F2002ACEC83013
:0407F3002CE94B445E
:0407F40034803968AC
:0407F50029CCF48592
:0407F600046CED5151
:0407F70008F0D75FD0
:0407F800329353B431
:0407F900309E443BAF
:0407FA002BA1179880
:0407FB0005B4569358
:0407FC00205C23D783
:0407FD0007F19C9CC8
:0407FE0012DB424682
:0407FF000ABFE95AEA
:00000001ff
