:020000040000FA
:0400000000000001FB
:04000100267A8137A3
:040002001AE21EB22E
:04000300352858FA4A
:040004001434B4D02C
:0400050034BEE46DB4
:040006001B00376F35
:04000700181676B59C
:0400080016352CA8D5
:0400090030728C8D38
:04000A002063867E6B
:04000B0038FC0D446C
:04000C000725919D96
:04000D0027339D8474
:04000E000E1A9A78B4
:04000F002429D2AD21
:04001000158027C070
:0400110021347AD943
:040012002C7066BE2A
:040013000ECEB48FCA
:040014003D98B05310
:040015000EC9E8AE7A
:04001600099D722CA2
:0400170015CFD5C26A
:0400180032C50F9747
:04001900273D85F00A
:04001A003ADBE3E109
:04001B0018FDD833C1
:04001C003A29DEACF3
:04001D00313A12ABB7
:04001E0039A83AD0F3
:04001F0018356D1211
:0400200000000001DB
:040021000DABC6F865
:040022003836FC94DC
:040023001BBD922A45
:04002400100CBA42C0
:04002500238E653190
:0400260001CE2E36A3
:040027000B95F56AD6
:04002800245E50B052
:0400290010F64C8EF3
:04002A0022C81325B0
:04002B00018A928430
:04002C00232C2B4214
:04002D000717949E7F
:04002E00054F17B2B1
:04002F002FE1E0DB02
:040030002EAECEFA28
:0400310025D5491672
:0400320012FA3ABACA
:04003300074F909A49
:040034001B1DED148F
:0400350023B1865B12
:04003600127525EC2E
:0400370030DC0AA906
:0400380023FE3294DD
:0400390024D863E67E
:04003A0028051C6118
:04003B0010641AF043
:04003C002E7F9E2B4A
:04003D0020F02B6D17
:04003E002C0178E732
:04003F00291D57041C
:0400400000000001BB
:0400410001C9D4A17C
:040042002E560572BF
:040043002682388356
:040044003E7672266C
:040045003424257EBC
:040046000A0A03F6A9
:0400470007A31041BA
:040048003BF0680B16
:040049003018D1A3F7
:04004A00087D62C209
:04004B000E57E872F2
:04004C00143915B698
:04004D00389C069243
:04004E003D1A9318AC
:04004F001C1D2C52F6
:04005000131FF00F7B
:0400510030AC0D04BE
:0400520011E6DE03D2
:04005300227EAC8AD3
:0400540004FB7562D2
:040055003963AD7CE2
:0400560022A2A591AC
:040057000D96D8AF7B
:0400580022732EBF22
:0400590032849072EB
:04005A0007872B6683
:04005B0030EBE98D10
:04005C0030E332DF7C
:04005D00300076EE0B
:04005E0011142460F5
:04005F0033B1F06663
:04006000000000019B
:0400610006D08668D7
:040062001FCC08D4D3
:040063001890A580CC
:040064002758E8B57C
:040065002F89F5806A
:040066002AE0370F46
:04006700340D0857F5
:0400680011F143C28D
:040069000D376DEDF5
:04006A00287224E3F1
:04006B003E3C03F81C
:04006C0010A150F798
:04006D0015F6EF2F66
:04006E00331291B800
:04006F002F84FBEAF5
:0400700001D8D81AC1
:0400710001FA2BF471
:040072003AC2BC29A9
:040073000060239670
:040074002FB48E789F
:0400750017EB8E57A0
:04007600070FECEE96
:0400770024BEF4D1DE
:040078000921AF7635
:040079000157C6DD88
:04007A003A3538EFEC
:04007B0028C1CCF6D6
:04007C0007679C5D19
:04007D001372D3E83F
:04007E00263E1B8C73
:04007F0005E7CA8146
:04008000000000017B
:04008100113F976133
:040082000633C10878
:040083000570D579B6
:040084000B10A32C8E
:040085003878ABD448
:0400860015BA32D5A0
:040087003AEFEBE180
:040088002BFB2E47D9
:040089003608886449
:04008A002090B70DFE
:04008B00055CDDE74C
:04008C00346C2F5D44
:04008D0038FFD4DC88
:04008E000B336E982A
:04008F003482EB3993
:04009000136D8CA5BB
:0400910004DBEC1888
:04009200359DCB3994
:0400930023D6EB87FE
:0400940010DB0DA5CB
:040095000EB938A1C7
:0400960010BFB34A9A
:040097001BF2CDB6D5
:040098001827F752DC
:0400990030D5BEE2BE
:04009A0022F94D7486
:04009B0000B8ABE717
:04009C000C64CA7FA7
:04009D001EF5549563
:04009E0014707D5706
:04009F001B2D2B3BAF
:0400A000000000015B
:0400A1000EF4199AA6
:0400A2002EDA5C7B7B
:0400A300363F480696
:0400A4000DD8071F4D
:0400A50037E8B14641
:0400A60026FB915450
:0400A7001BE4BA3666
:0400A8001A878B9F89
:0400A90018F3B1D5C2
:0400AA000A1DDBE070
:0400AB003E401DC9ED
:0400AC0021661D4666
:0400AD002B2B01797F
:0400AE0010AF5CD75C
:0400AF00193C809FD9
:0400B0000892B124DD
:0400B1001671E4548C
:0400B2001A5B0CCEFB
:0400B300075B902433
:0400B4000710ECFD48
:0400B5002751B2011C
:0400B60036CCD3452C
:0400B7000049550C9B
:0400B8003ED1EB1733
:0400B9003C059C5D09
:0400BA001B40316B4B
:0400BB0030B48126B6
:0400BC001AC970FEEF
:0400BD003EEA4DEDDD
:0400BE002D722C94DF
:0400BF00085E712640
:00000001ff
