:020000040000FA
:0400000000000001FB
:0400010005C3A19FF3
:04000200036BF6484E
:040003002DF8DC10E8
:0400040015BEBC6108
:0400050024A427F018
:0400060010C5F174BC
:04000700250CDEFFE7
:0400080031D376BDBD
:04000900340810E5C2
:04000A001ABB27BE38
:04000B000172313D10
:04000C001A48F9187D
:04000D003D694C9568
:04000E00264C8EC12D
:04000F0026134BF376
:04001000267A813794
:040011003506E1D2FD
:040012003B4395A433
:040013001FA1D05108
:040014003A7F344EAD
:040015000D924B6499
:040016003683E2C586
:040017000C2608C8E3
:04001800030FD54FAE
:040019001FB13CC215
:04001A000ED83525A2
:04001B0035A78A1566
:04001C0013987BFDBD
:04001D001B29C4B027
:04001E003075B6F48F
:04001F0001E5A295C0
:040020001AE21EB210
:040021003DFD7368C6
:040022003016C65579
:0400230016C5E738DF
:040024001585D3FA71
:0400250017D341E1CB
:040026000DC7B41A34
:0400270039A77B1763
:040028000E697725C1
:04002900236BB1B5DF
:04002A002DE5145D4F
:04002B002B86F1E44B
:04002C003AAE0F7168
:04002D0027121C5C1E
:04002E000113992CF5
:04002F00086B83CC0B
:04003000352858FA1D
:0400310002D1AD4A01
:040032000BD1F0DE20
:0400330022D4888DBE
:040034001BD63BAFED
:0400350009172AADD0
:040036003EABBF2BF3
:040037002AB678C6A7
:0400380024501964D3
:04003900344E933876
:04003A000A0ED3D9FE
:04003B00313FC34A44
:04003C000884D75A03
:04003D0028D7393057
:04003E0020C4400991
:04003F003BD2A87890
:040040001434B4D0F0
:0400410017C86CACC4
:0400420010F8F1AD14
:040043002C342D41EB
:040044001ED28587BC
:0400450003CBBCAE7F
:040046002544716874
:040047002BE1556CE8
:0400480023AA1D705A
:040049002F75DE141D
:04004A0028C089FC45
:04004B000003CFA738
:04004C0028AAA63107
:04004D000789ABD2A2
:04004E000205B45D96
:04004F0035410085B2
:0400500034BEE46D69
:0400510035384A24D0
:04005200165069DB00
:040053002DF9425CE5
:0400540023C8083283
:040055000B61EFBD8F
:0400560007255B55CA
:04005700269B4E6135
:0400580017E8B6509F
:040059003D2FDC0457
:04005A0022B6B91BF6
:04005B0029786E345E
:04005C0023D8E65768
:04005D00317EA174DB
:04005E001FE17882A4
:04005F001CCCA444CD
:040060001B00376FDB
:0400610026A1EABE2C
:040062001CD0B5C534
:04006300068BD7FA37
:0400640004F39449C4
:040065003001AF9027
:04006600017DCD4CFF
:04006700398044ACEC
:040068001367F8E53D
:0400690009E2B4757F
:04006A0010526CBC08
:04006B0019C8528CD2
:04006C0024DB9DF8FC
:04006D001DF6317FCC
:04006E002396BBCE4C
:04006F0039411FC82C
:04007000181676B533
:040071000144ACEBAF
:040072002A5A657A27
:0400730027A1C448B5
:040074001BAF21E5B8
:0400750031CBB2CC0D
:0400760034C883A463
:040077001077E241DB
:0400780020D08524EB
:0400790032A76EFC40
:04007A0007C86B4BFD
:04007B0017FEF7670E
:04007C002874B57DB2
:04007D001000EB394B
:04007E001F13F9F95A
:04007F000A6EBFC77F
:0400800016352CA85D
:0400810037AAAC9A54
:040082002A604BB8ED
:040083000CD2383231
:0400840030712510A2
:040085000D630D55A5
:04008600210C3E4DBE
:040087002037BD64FD
:0400880026D1A3F2E8
:0400890031A60FEBA2
:04008A0007594D11B4
:04008B001DE4E9D6B1
:04008C00078086CA99
:04008D000206833AAA
:04008E00267165CCA6
:04008F002B1065507D
:0400900030728C8DB1
:0400910021FECFFB82
:04009200341263E0E1
:0400930000949A1823
:0400940008DF29DB7D
:0400950010BE4E66E5
:040096000C697EB6BD
:040097001024914D53
:0400980009236EE9E1
:040099001856BC42F7
:04009A0014FEA69515
:04009B00172EF2D258
:04009C0000643ED5E9
:04009D00274CC844E0
:04009E000F03E3EB7E
:04009F002C319AD690
:0400A0002063867ED5
:0400A1003DD6E075F3
:0400A20009E1389C9C
:0400A30027F82AD13F
:0400A4000B780C3594
:0400A5001CBE7A6A99
:0400A60026656BC69A
:0400A7002C616EF367
:0400A80002611DE2F2
:0400A900116ACB9C71
:0400AA00240C6507B6
:0400AB00383247049C
:0400AC0034D76BE1F9
:0400AD00302E1EEFE4
:0400AE001F6AA468B9
:0400AF00015775B6CA
:0400B00038FC0D44C7
:0400B1001BD5496AA8
:0400B2002554630E60
:0400B30018625AF580
:0400B400366CB9C726
:0400B5002103F51E10
:0400B60013BF7CDB1D
:0400B700131558477E
:0400B80017AB2976E3
:0400B9003C77EC980C
:0400BA0031B2FA273E
:0400BB0011E154ED0E
:0400BC0006EFBE9AF3
:0400BD001EB146BA70
:0400BE003862DB6168
:0400BF0033B499615C
:0400C0000725919DE2
:0400C10033C8481EDA
:0400C2001729279B38
:0400C30017A8F8C9B9
:0400C4000D28179854
:0400C50031F02A0AE2
:0400C6001343387830
:0400C7001A170327DA
:0400C8002036909BB3
:0400C90017F185B5F1
:0400CA0008E561C51F
:0400CB002122A0A6A8
:0400CC001F31BDCE55
:0400CD0007B09AD00E
:0400CE003D184F7911
:0400CF000AF42D0002
:0400D00027339D84B1
:0400D10002D1E5E88B
:0400D200114A73CE8E
:0400D300077645E780
:0400D4002091641FF4
:0400D50033B492F2BC
:0400D6003D08C444D9
:0400D7000682CF3F8F
:0400D8003AF961612F
:0400D9000CAB06F472
:0400DA001BDB2A49B9
:0400DB003DF3C276B9
:0400DC00333491B375
:0400DD003A8E1E4FEA
:0400DE000C91E4A4F9
:0400DF001D6CD910AB
:0400E0000E1A9A78E2
:0400E100137811EF90
:0400E2000EDE117DA0
:0400E30037B6330EEB
:0400E40025D2B3026C
:0400E5000E9EE01873
:0400E6000D4CCCE40D
:0400E70005A231DE5F
:0400E800359F3DED16
:0400E9001174CA13B1
:0400EA00299E5D27C7
:0400EB001844A71CF2
:0400EC001AB646CA30
:0400ED003375784FA0
:0400EE003AE38082EF
:0400EF003C8D1F6FB6
:0400F0002429D2AD40
:0400F1000ABE13C46C
:0400F20023FC2C2B94
:0400F300111A17794E
:0400F4001CD0E83BF9
:0400F500237960A368
:0400F60031A126BA54
:0400F70017821A0151
:0400F80006B3828A3F
:0400F90021F76FDCA0
:0400FA00377DDEE48C
:0400FB0038EF2E3C70
:0400FC001D4BE9D3DC
:0400FD000C3CAC4DBE
:0400FE0005C2F6122F
:0400FF0036E6CC74A1
:04010000158027C07F
:040101002EDF552078
:040102003C01D6E7FF
:04010300251F065757
:0401040009EE93EA83
:0401050007C8B47AF9
:04010600294FF3E1A9
:040107000EF170B8CD
:040108001271AC992B
:0401090016F01F725B
:04010A0006255A2646
:04010B00117681697F
:04010C0033AE2940A5
:04010D000DAEC35D13
:04010E0023EE629EDC
:04010F0033127FCD5B
:0401100021347AD943
:040111002179B31588
:0401120024D30232BE
:040113000194B5C1DD
:040114001E49202B35
:04011500039F885567
:040116002E0D039C0B
:040117002CD47EDA8C
:040118003802B63FB4
:040119001935F9F6A5
:04011A00276BB0DCC3
:04011B003B131C3442
:04011C0004FB668BEF
:04011D00052E10CFCC
:04011E0034B1EECA40
:04011F0032C8675B20
:040120002C7066BE1B
:040121003C83505576
:040122000B05BDF715
:040123000C0B613F21
:040124000CFC106758
:0401250030A2EBF128
:04012600037F82B021
:040127001B70AD6933
:04012800074119036F
:040129003297FFBE4C
:04012A000153C0625B
:04012B002B08F13676
:04012C001B1FC5814F
:04012D003217949D54
:04012E00205A3EC74E
:04012F000B0518CFD5
:040130000ECEB48FAC
:040131003E613627CE
:0401320011EAB251CB
:0401330008D7C7B56D
:040134002B8D2041AE
:0401350033A3C6FE2C
:040136002DCB2E514E
:040137001931E4DDB9
:0401380021133D3D15
:040139001694601A9E
:04013A001B1395E21C
:04013B0029F720245C
:04013C001485BA006C
:04013D002516661B02
:04013E0038FA1D4C22
:04013F00340E73E621
:040140003D98B053E3
:040141000EFBA67497
:0401420032D75882D6
:04014300276555F0E7
:040144000FEECCEC02
:0401450023FF64CC64
:040146003D9A38CCDA
:040147001CAE5E97F5
:04014800065CEB283E
:040149000EFCBA40AE
:04014A000059D6E69C
:04014B00321CE04A38
:04014C0039828FD293
:04014D003D39559E45
:04014E0014E03B2955
:04014F0011EA196137
:040150000EC9E8AE3E
:04015100372B8516AD
:040152002BDC67ED4E
:040153002BC1305339
:0401540016464D14EA
:0401550020D4295435
:0401560015FC434011
:0401570006248603F1
:04015800275FD02429
:040159001B57E8F652
:04015A000EDC08703F
:04015B0001DA96CB64
:04015C000CBEC5BC54
:04015D002510A0A326
:04015E0010DC8759D1
:04015F002245EAA2A9
:04016000099D722C57
:040161000579B378F1
:0401620032AC4DE18D
:040163003CAB6E1A29
:0401640009B471E287
:040165003BA3DF35A4
:04016600352DDC5502
:040167001FEAFC4B44
:040168001E010794D9
:040169000482E946DD
:04016A00149BEC9165
:04016B00042DF5AFBB
:04016C000469768428
:04016D001E2DF9EC5E
:04016E001BBAA6040E
:04016F003AB63282E8
:0401700015CFD5C210
:040171002FDA5A7BAC
:040172002D725C4747
:0401730037294D4893
:040174001D69651686
:0401750011C7A951B4
:040176002A0F67C71E
:0401770001EE80D73E
:040178003090DB5A8E
:040179000F14E64B2E
:04017A001CDEE4DEC5
:04017B000A83844926
:04017C00094513839B
:04017D00077BBB8BB6
:04017E00313D18B93E
:04017F003564F4EF00
:0401800032C50F97DE
:04018100205EEE8A84
:040182002EB077D351
:040183002C96440C66
:04018400107C583D56
:040185002EFCDFDC91
:0401860021BC87A66B
:040187003B61173C85
:0401880015DB308BC8
:04018900331A1B9278
:04018A0030936C76CC
:04018B001DB36662D8
:04018C0011FC78F2F8
:04018D001A4EC51A27
:04018E000ED5BBA32C
:04018F00054D8A7917
:04019000273D85F092
:0401910011F84439E4
:0401920016CF100272
:04019300272A5C4378
:04019400014656F5D5
:040195001CA12497EE
:0401960001CD1BE29A
:040197000DC922B4B8
:040198001657E518F9
:040199002DF67A7D48
:04019A0034BDE70584
:04019B0029D495CD01
:04019C001B6F42692A
:04019D001214C55320
:04019E00213FFB847E
:04019F0022AA1A1066
:0401A0003ADBE3E182
:0401A100214F49425F
:0401A20028E8798C44
:0401A3001C877FE551
:0401A400011839C243
:0401A5000B7B2A4165
:0401A6002AF766A22C
:0401A70038D93BAD5B
:0401A8002C23579D10
:0401A90029A73C281E
:0401AA001048F953AD
:0401AB00053A795B3D
:0401AC001329C63C11
:0401AD00364FA9B070
:0401AE000BC62A98BA
:0401AF00141171B006
:0401B00018FDD8332B
:0401B10000FF3C6EA1
:0401B200044A4A278A
:0401B3002B96CB813B
:0401B4003D378098BB
:0401B5002E22517A2B
:0401B6001BC0853EA7
:0401B7002B7CC79541
:0401B80034C6082F12
:0401B9002BF9D9E75E
:0401BA0028F480DACB
:0401BB001BF0FCC277
:0401BC003CB893F4C4
:0401BD0037B9D9680D
:0401BE003DE3492AAA
:0401BF00183DF28273
:0401C0003A29DEAC4E
:0401C1002A190E8267
:0401C2000078C740BA
:0401C3002F27EB5A9D
:0401C4001E18F5AB61
:0401C500053F0E6183
:0401C6002D3CAF51CC
:0401C7001C9F1779E9
:0401C800283D487115
:0401C9000700BADF92
:0401CA0032F2CB8DB5
:0401CB00196A2FE995
:0401CC00023B3B3780
:0401CD003D97F26FF9
:0401CE000CFD63457C
:0401CF00295CE2BA0B
:0401D000313A12AB03
:0401D100108BAB459F
:0401D200066011D1E1
:0401D300331CBC31EC
:0401D4001A35F07D6B
:0401D50026FE387654
:0401D60037E53A9936
:0401D7000E537C7EC9
:0401D800293F015565
:0401D900147E4DE85B
:0401DA001797D99109
:0401DB00349D0E0E33
:0401DC0038688111ED
:0401DD003489AD06AE
:0401DE000BB2FC5C08
:0401DF003C51C107C7
:0401E00039A83AD030
:0401E10012DED274E4
:0401E2001090594BD5
:0401E300344B7F9B7F
:0401E40002E9309D5F
:0401E5003E6A8C0AD8
:0401E60001D2F1FD54
:0401E7002BE08F5D1D
:0401E80028C2BD4C20
:0401E9002BC6CAA6B1
:0401EA001A07D60119
:0401EB0007F4048988
:0401EC00197922AAB1
:0401ED00247102EA8D
:0401EE00260BDE40BE
:0401EF002AC77A8E13
:0401F00018356D123F
:0401F1000CD4564B89
:0401F20004BA5DD717
:0401F30007DA6CD5E6
:0401F40026A20F1B15
:0401F5002DBCC53226
:0401F6000D766E27ED
:0401F70011BDAB7C0F
:0401F8001C19B636E2
:0401F90016DDFA46CF
:0401FA002F7D421AF9
:0401FB001100C21518
:0401FC0020E74E4664
:0401FD001E70A5CEFD
:0401FE00023C6B183C
:0401FF003864144B01
:0402000000000001F9
:040201000A77D5267D
:040202001C83BA9609
:040203000B8F2EB778
:040204000FF71F26AB
:04020500274A393417
:0402060017F0CDB46C
:04020700226E163617
:04020800202C93F320
:040209002366B93F70
:04020A003499D66CE1
:04020B00267FF0AEAC
:04020C001F2B406BF9
:04020D0002460B9406
:04020E000705E039C7
:04020F001CE3233198
:040210000DABC6F874
:04021100103ABA2ABB
:040212001B734C030B
:0402130038C3DAC44E
:04021400228D2DAD5D
:0402150031AEE45EC4
:040216003BCED258B1
:0402170007FE45FD9C
:0402180010E8EEA15B
:040219000B6B11C892
:04021A003C97FD1DF3
:04021B00375B033E0C
:04021C000CBED1DF64
:04021D00349A071FE9
:04021E003A5A122313
:04021F000001C132E7
:040220003836FC94DC
:040221001387BB6B19
:040222001013C418D9
:0402230003C0494586
:04022400284E473CDD
:0402250009B935FBE3
:04022600015D165F01
:040227003320326BE3
:04022800313CB03085
:040229000C82D4FF70
:04022A00136B1CB680
:04022B0039EC610B3E
:04022C002869C6A7D0
:04022D0036E791EC33
:04022E001E84020721
:04022F00211872B16F
:040230001BBD922A36
:0402310019F6575112
:040232001023E86944
:04023300149D61BFF6
:04023400203C152035
:04023500386FC190CD
:040236003A182F44FF
:0402370000CE838AE8
:0402380002ECEF6C79
:040239000FB09B6BFC
:04023A000E23D4516A
:04023B001129C16D57
:04023C0023234AF43A
:04023D002D104C9F95
:04023E00224C6DB829
:04023F0002EB56F880
:04024000100CBA42A2
:040241003680F1BD55
:0402420004FA39A8D9
:0402430002A905887F
:040244003B3A808140
:040245003DFDF3CFB9
:04024600037F1659C3
:040247003BCC39551E
:0402480016847F5A3F
:04024900271146B57E
:04024A001A38A0FFBF
:04024B0028F692AA55
:04024C0032A4E3876E
:04024D0007C5D22EE1
:04024E001267EAF059
:04024F001DD96FDC6A
:04025000238E653163
:0402510011BE1A1BA5
:040252001CED82E934
:040253002A3A59C624
:040254003BB0CA9B56
:04025500277DDFE83A
:04025600247EB5301D
:0402570039551A2ECD
:04025800372A95B8F4
:0402590038C623B9C7
:04025A001F927993E3
:04025B0028E59C6C8A
:04025C003AB493DA43
:04025D0016E830B4BB
:04025E001FB2DF915B
:04025F002216B02390
:0402600001CE2E3667
:040261002F5CC73A0D
:040262001497898BD9
:040263001999B2B67D
:040264002C1BF2302D
:0402650038D75D63C6
:0402660014659C0C73
:04026700163D189494
:040268001D532D05F0
:04026900210CF5531C
:04026A00164AAA5135
:04026B001901CD4365
:04026C00121C836974
:04026D00176C4F4675
:04026E0021A3DF8C5D
:04026F001B7BB658E7
:040270000B95F56A8B
:04027100296E6BADDA
:0402720017AEA0BE65
:040273000B61C27CDD
:040274003BA388F32D
:040275002AB78E70A6
:040276003131310FE2
:040277003C976B80C5
:04027800255BDD33F2
:040279003D0EAFF98E
:04027A0004D2D4AE28
:04027B0034FA96D6E5
:04027C000A19935F69
:04027D00270D18AD84
:04027E000766D61A1F
:04027F002619AFA4E9
:04028000245E50B0F8
:040281002A3414EB1C
:040282000A64668123
:04028300324741FFBE
:040284002F7B49EC97
:040285002B26F482AE
:040286003436C1E762
:04028700236FBE4ED5
:0402880008DD90E617
:040289003586B57091
:04028A000664E749D6
:04028B000E5F5203AD
:04028C0033759A33F9
:04028D000BD044D17D
:04028E0024A630AFC3
:04028F002C5685DE86
:0402900010F64C8E8A
:040291003E9EF9C9CB
:040292001E4026D70D
:0402930018F0480B0C
:0402940025D41073EA
:040295002F2A843553
:040296000B7BCDC54C
:040297003BFF9BD9B5
:040298003BA363130E
:04029900052B957F1D
:04029A003D59510079
:04029B003BF61F58B7
:04029C002480279300
:04029D0009153628E1
:04029E000BE0E19DF3
:04029F0004846E570E
:0402A00022C8132538
:0402A1003BECFBE552
:0402A2003AA2BB5170
:0402A3002DE0089AA8
:0402A40006B48EDA34
:0402A500308A90CA41
:0402A600114BFBDD20
:0402A7001DD073896A
:0402A8003485612A0E
:0402A9003987078BFF
:0402AA0010BBE0D3D2
:0402AB002C6D21078E
:0402AC00274AAD5BD5
:0402AD003D996B24E8
:0402AE002763465824
:0402AF0024DA887550
:0402B000018A9284A9
:0402B1003BA7D4B4DF
:0402B200342BAAD768
:0402B3001888DAFDD0
:0402B4000CE6761DC1
:0402B5002BD3635F85
:0402B6002DBB5C659B
:0402B700154E024C92
:0402B8002A21CCD754
:0402B90022821B5B27
:0402BA00388ECA7739
:0402BB00018E88BB6D
:0402BC00157D7ADF53
:0402BD00197618BCDA
:0402BE0020C003B2A7
:0402BF001B96A98A57
:0402C000232C2B427E
:0402C1000F63039331
:0402C2000F30801267
:0402C3001C2D10A33B
:0402C400172B36625C
:0402C5000ED1527E86
:0402C6001215049673
:0402C7003A042CAE1B
:0402C8003002A8D484
:0402C90037048491E1
:0402CA00106A7CB882
:0402CB0037A45DD720
:0402CC0037625899A4
:0402CD002FB5FB91BD
:0402CE000EAFD45942
:0402CF000CEB16C35B
:0402D0000717949EDA
:0402D1001E09FFF90A
:0402D20014CBD2FE79
:0402D3002CB7926E44
:0402D4000090CE3395
:0402D50001EFE9BE8E
:0402D600160726845D
:0402D70034C3EBC081
:0402D8000A6EFC0AA4
:0402D9003563ADDB01
:0402DA002173A46583
:0402DB00305D84E727
:0402DC00268DDAACE5
:0402DD003E30009B14
:0402DE00116161B297
:0402DF00074A396829
:0402E000054F17B2FD
:0402E100392A28EAA4
:0402E200298B5961AA
:0402E3001759DB7C50
:0402E400181AB0AA8A
:0402E50027FA7A0377
:0402E60022E9492B95
:0402E70027ED762267
:0402E8003142ABF202
:0402E9003A3D9E916B
:0402EA002C79DD2767
:0402EB00296B1AE37E
:0402EC0018BD1E30EB
:0402ED00392129602A
:0402EE00322F18B9DA
:0402EF001D14F227C1
:0402F0002FE1E0DB3F
:0402F10020FB1EEBE5
:0402F200215E47C280
:0402F30016DEB4EB74
:0402F40031F6D743C5
:0402F50007726C48D8
:0402F600060C523A66
:0402F700279F795B69
:0402F800176F920AE0
:0402F9001500518C0F
:0402FA0011EBC24EF4
:0402FB0031F04DEFA2
:0402FC0023423CA2BB
:0402FD000E7ECA7F28
:0402FE0023A16A319D
:0402FF002312ACCF4B
:040300002EAECEFA55
:0403010006E86CE7B7
:040302003791B34339
:040303002887FEDC6D
:0403040035E1F9BE28
:04030500387CBBC9BC
:0403060032309729D1
:040307002E15A70EFA
:04030800121FA8E632
:0403090013DA5A9D0C
:04030A0023663B32F9
:04030B00009B647E71
:04030C00197BDC4637
:04030D000B4AE65160
:04030E0026CFE2AF65
:04030F000FA8AF6A1A
:0403100025D5491690
:040311002575574FA8
:04031200162FDD6164
:040313003BA728D804
:040314003E2938D274
:0403150022859E1689
:040316000BB333787A
:04031700086A6863A5
:04031800361DE3307B
:0403190027D0411A8E
:04031A000D6E029EC4
:04031B0038ABFD8B73
:04031C0011BFE42AFF
:04031D001ADFAFD064
:04031E00345CD4A9CE
:04031F002B4F990CBB
:0403200012FA3ABAD9
:040321000F45F8C4C8
:040322002D6A812C93
:0403230018EE83D974
:040324002E70A26035
:04032500361A082755
:0403260026E5E53BA8
:040327002D9AE157D3
:04032800004981B750
:04032900108844A94B
:04032A0003E59A4508
:04032B0033D8157737
:04032C0001FABC1402
:04032D0039DB1FADEC
:04032E000ED8BCBE6B
:04032F0007B0CDCA7C
:04033000074F909A49
:040331000E46BF4F66
:0403320013A827AB3A
:040333000517AE906C
:0403340010CD7F77F2
:0403350031A031C9F9
:040336000599CA2A31
:04033700304F0C71C6
:040338003CBC346A2B
:0403390037F440D77E
:04033A00276ABAF282
:04033B003D6FBB4C0B
:04033C003E8C667B12
:04033D003EB07B9EB5
:04033E002C34BAACF5
:04033F001FCF2AA4FE
:040340001B1DED1480
:0403410038DF21DFA1
:040342000C9BA71F4A
:0403430008E4CAB44C
:040344000CA47BCAC0
:0403450012652A67AC
:0403460031CF53EB75
:0403470024264AB16D
:04034800362D5BCE25
:0403490038170A9EB9
:04034A00359B758FDB
:04034B000AB2C1C170
:04034C000294FF1EFA
:04034D001938B0F5B6
:04034E0000F0447700
:04034F002F4923CF40
:0403500023B1865BF4
:0403510005061DDAA6
:04035200173F83B717
:0403530035D9241B59
:040354001AB0DF6F8D
:04035500288BFE29CA
:04035600338945AAF8
:040357000C48747268
:04035800389630ECB7
:04035900042ADB6F28
:04035A00337229933E
:04035B000D2CFFCD99
:04035C000CA582A1C9
:04035D000009E58529
:04035E0039C21499F3
:04035F00008EA00567
:04036000127525EC01
:040361003404A8E9CF
:0403620008C00B9133
:040363003CD11D105C
:040364002BAE6B98B9
:040365001B002AC28D
:040366001F92051AC3
:040367001864B8DE80
:04036800280C9FD1ED
:040369000CBA45A3E2
:04036A000CE30C3460
:04036B00094B5F6675
:04036C0023609085F5
:04036D0039D30F89E8
:04036E000A4DBB5623
:04036F0026A1D99159
:0403700030DC0AA9CA
:0403710021700A8568
:040372000E6EE742E2
:04037300113793D7D4
:0403740013116B19DD
:0403750015C954B89A
:040376003C4C587231
:040377002FD9E58015
:0403780004186CE217
:04037900070081DF19
:04037A0003C124D5C2
:04037B00136B8A0670
:04037C002FCB18B4B7
:04037D003D9EC1EAF6
:04037E0030A301FFA8
:04037F003CFBD02053
:0403800023FE329492
:04038100191B54C22E
:040382002B9A0A495F
:040383002B2F635E5B
:040384000E7BDAD63C
:040385002D28B75A0E
:040386003D5DCAF31C
:040387002695A97896
:040388002F8421D6C7
:0403890013133A040C
:04038A00256E45781F
:04038B002EDE8208D8
:04038C001880B450D1
:04038D0036CF232123
:04038E00300ABB1A5C
:04038F003A2320AA43
:0403900024D863E624
:040391002B0D85B2F9
:0403920014B87BE43C
:04039300135B3B8C31
:0403940006B6A82AD7
:04039500190189229F
:040396000B39FCDD46
:04039700116588DC88
:040398001EB14A7ECA
:040399000D4AABC29C
:04039A002A66F0528D
:04039B001682316F26
:04039C000379911E32
:04039D000842470DBE
:04039E003E9D123836
:04039F0033FF738F26
:0403A00028051C61AF
:0403A1003CDED382E9
:0403A2001956119641
:0403A3001224AC3D37
:0403A400206E66B1B0
:0403A50022E51FB17D
:0403A60027027D8F1E
:0403A7003C5E9E0F0B
:0403A8000EE8D06526
:0403A90023ACFDCFB5
:0403AA002E9D1E73F3
:0403AB00032CD86ED9
:0403AC0006F7358F8C
:0403AD0015BFCD9417
:0403AE0036BAEB86EA
:0403AF003955E17B60
:0403B00010641AF0CB
:0403B1000F2D826129
:0403B200052FA2F27F
:0403B3001C9E523406
:0403B4000C7FB7D92A
:0403B50006F3AFE5B7
:0403B6003A181A9641
:0403B700387DAF29B5
:0403B8000D696EDB82
:0403B9000B8292D74A
:0403BA003723B5BF71
:0403BB001B3BDD0407
:0403BC0009D8727D6D
:0403BD00199007404C
:0403BE0014E5ED2530
:0403BF0038188DCE8F
:0403C0002E7F9E2BC3
:0403C1002681D0259C
:0403C20023C51F31FF
:0403C3001C6597B06E
:0403C40008D4A8129F
:0403C5002F023E03C2
:0403C60002B27E49B8
:0403C700160B6E2083
:0403C8000CA1A25989
:0403C9000D18582C87
:0403CA0036D21CC942
:0403CB00006E13208D
:0403CC003DB31F67B7
:0403CD0023007EDAB1
:0403CE0015F42B13E4
:0403CF001295BDAE18
:0403D00020F02B6D81
:0403D100289C203014
:0403D2001C0B758902
:0403D30005EB28040A
:0403D40033BCCE0662
:0403D5000334A7EC5A
:0403D60021B68B19A8
:0403D7000A4661E190
:0403D800066772B290
:0403D90032CEF40F1D
:0403DA0003D96C0FC8
:0403DB0011D45305E1
:0403DC0001A5F3BACA
:0403DD0009D1A0CED4
:0403DE001C5E6F260C
:0403DF00114002EFD8
:0403E0002C0178E78D
:0403E1002E2108D1F0
:0403E2003477855790
:0403E30030772661E8
:0403E4000F4B0F7933
:0403E500032F9FF94A
:0403E6002D2704A219
:0403E700255F741208
:0403E80017B306F74A
:0403E900181CA04AF2
:0403EA000261D92DA6
:0403EB0029E90FF7F6
:0403EC00355B265106
:0403ED0018D41FBE43
:0403EE0000A6B51A96
:0403EF0012EBBCC889
:0403F000291D570468
:0403F10017C2753D7D
:0403F2001A59AA7773
:0403F30032B3514090
:0403F4002D1CA12DEE
:0403F5002AB912D639
:0403F6001455757BAA
:0403F70006E06AFAB8
:0403F8000A208EA6A3
:0403F900325E4E69B9
:0403FA0004B27C7F4E
:0403FB003D0AC88C63
:0403FC00211E700846
:0403FD0029009096AD
:0403FE0027C3465873
:0403FF002029897AAE
:0404000000000001F7
:0404010036D6F55A9C
:040402002934F9524E
:0404030030AA935B2D
:040404000906BFA680
:0404050037728D4578
:0404060038D67DE087
:0404070031A0C66AF0
:0404080011532F71EC
:040409001A8B0ACF71
:04040A0016FF92DF68
:04040B002FDEB553D8
:04040C00058EF55E06
:04040D002D695833CA
:04040E00070FDE1BDB
:04040F00056C1E4E0C
:0404100001C9D4A1A9
:0404110000B943FAF1
:040412000B8E776A6C
:040413002608717ACC
:0404140004183AFE90
:040415001918FD199C
:040416002894892875
:040417002D2CF8127E
:0404180006492EBFA4
:0404190012A4D2A6B1
:04041A000A3978A47F
:04041B001BCAFBD924
:04041C003A83A84433
:04041D002C8ED459F4
:04041E0003AC96A1F4
:04041F002058250D2F
:040420002E560572DD
:040421000E7F825C6C
:040422002B36ADE8E0
:040423002F0548C693
:04042400060B9C34F3
:040425001FE003725F
:040426000CF5B5F923
:04042700192DC37F49
:040428000C37C56A5E
:040429003B261B0350
:04042A003AE02FEB9A
:04042B002FDC96CE5E
:04042C000340CB17A7
:04042D003763986039
:04042E003BC24A0380
:04042F0012F366FF5F
:040430002682388365
:040431001BF38956DA
:04043200169CA2D49E
:0404330027EE235A33
:0404340013C2409F10
:04043500289453CFE5
:0404360029303857DA
:0404370001E8AA39F5
:040438003D61EA55E3
:04043900154F819842
:04043A00119AC4EF60
:04043B002438B5A507
:04043C00170211A1F1
:04043D002512C20EB4
:04043E00214A9E9F12
:04043F000C17DE7147
:040440003E7672266C
:040441002586EEF22C
:0404420034D73699DC
:040443000DB5D3D050
:040444003E9558EF9A
:040445001FF37685A6
:0404460006F060322A
:040447001CD7596005
:040448002C9485E388
:040449003E391B1706
:04044A003BD0816CB6
:04044B000C2FF6A3D9
:04044C000EA1C678BF
:04044D002F8783F280
:04044E000B41DD1D64
:04044F0018015C2D07
:040450003424257EAD
:04045100287540DEEC
:040452000F88093DC9
:040453002F7C90C5A5
:0404540032E7DCC0EF
:0404550032E1E10CA3
:040456003C77588D0A
:04045700307E915D05
:040458002BB05EAEB9
:0404590016A6B7FD2F
:04045A002E01041358
:04045B0027BF4C115A
:04045C0008F09547C8
:04045D0003721524ED
:04045E0023110D9EBB
:04045F002D42546F67
:040460000A0A03F68B
:040461003246DB5DE7
:040462002F64297763
:040463002FDF31A0B6
:040464002A3BECF54E
:040465001EC3BC599D
:040466001A0FE43550
:040467000A361961D7
:04046800196150B313
:040469001F6B2FEBEB
:04046A00203D1B20F6
:04046B000C8450317C
:04046C0037508AC0BB
:04046D0004F200ADE8
:04046E002998E86D74
:04046F0024DC4259EE
:0404700007A310418D
:0404710024AFA6CD41
:0404720006F05360DD
:040473000721E8BCB9
:040474001A603107D2
:040475000582005E9E
:040476001F058517C2
:040477000678E359C7
:0404780020AE105151
:040479002717D31E50
:04047A001151A9F47F
:04047B00000CCFC9D9
:04047C0025913B414A
:04047D00151CA88C16
:04047E003A045B449D
:04047F0035C7DC336E
:040480003BF0680BDA
:0404810025575E2B72
:0404820022AD60D86F
:040483003D19166F9A
:04048400054B74159B
:040485003569F1AC38
:040486003640B88DB7
:040487002F4C86AEC2
:0404880024DA3ABF79
:040489001DBDC79836
:04048A000F07C2385E
:04048B003A61C411FD
:04048C0007A15F84E1
:04048D0008E81D0658
:04048E001E20FD9F90
:04048F001BFADDB5C2
:040490003018D1A3AC
:04049100069EC248B9
:040492000E361E25DF
:040493003924DCDF4D
:040494001315D13437
:0404950022BC3F172F
:040496002F8C89B46A
:04049700146E2B2E86
:040498003D279B233E
:040499003C55B3A378
:04049A001FEC01F75B
:04049B000A8C01F4D2
:04049C003CD4C97F04
:04049D002C825395C5
:04049E000C60A72C1B
:04049F0004A87549EF
:0404A000087D62C2AF
:0404A1001097930E0F
:0404A200089F0D7C26
:0404A3000ABA3881D8
:0404A4001DCC9306D2
:0404A5000104A36F3C
:0404A6000FA1378EDD
:0404A7001EA26443EA
:0404A8001178F84A85
:0404A90027DE5A2EC2
:0404AA0034BA32101E
:0404AB0030E271DCEE
:0404AC001BF9AB94F9
:0404AD002BE6A8355D
:0404AE0032F363784A
:0404AF0024FD46835F
:0404B0000E57E87289
:0404B1000CE22F71B9
:0404B20016915A1F26
:0404B30029D933D23E
:0404B40028F05005D7
:0404B500173049C4EF
:0404B6001B07A6EF8B
:0404B7000574557BF8
:0404B8002B621FEBA9
:0404B9002DD25229C5
:0404BA0000148E811B
:0404BB001CA99D8952
:0404BC002475A33FC1
:0404BD002234CF0F07
:0404BE003DB1B2B2E8
:0404BF001897520D2B
:0404C000143915B620
:0404C1002D908B13DC
:0404C2001665EAFBD6
:0404C300098A9553BA
:0404C4002F132E4480
:0404C5002A7DBFB914
:0404C6002821F6DA19
:0404C70020A0E07E13
:0404C8002EAB962B96
:0404C900314CC330BF
:0404CA0010DEDD5A09
:0404CB003D05B05FDC
:0404CC001239308F22
:0404CD000D826938FB
:0404CE000CA747111F
:0404CF000C9F31ADA0
:0404D000389C0692BC
:0404D10004CE359D83
:0404D200381871CF96
:0404D3001D66203B47
:0404D4003D256A5800
:0404D5000E4C2EB2E9
:0404D600388A5DB44F
:0404D70038D7CB2126
:0404D8000BF4016BB5
:0404D90015E34CB823
:0404DA000AF4D1CF80
:0404DB002296FA2645
:0404DC0016AA2EC668
:0404DD001B4A1DCDCC
:0404DE000D0493E88E
:0404DF0016F88AEA97
:0404E0003D1A931816
:0404E1000693B8477F
:0404E200220B472C76
:0404E3003A09ECCE18
:0404E40010F13C9542
:0404E5000C109965F9
:0404E60016CC082503
:0404E70030C0E98DAB
:0404E80011E968B5F9
:0404E9001EEE255F7F
:0404EA0004408AEA56
:0404EB002022C36B9D
:0404EC002DCA3F17BF
:0404ED0006FCAC332A
:0404EE000A984B53CA
:0404EF001C2BC6CA32
:0404F0001C1D2C5251
:0404F100285EC4DCE1
:0404F2003B5E260F38
:0404F300089FA4D6E4
:0404F4001FCA0C0E01
:0404F50023253499EE
:0404F6002D16A935E1
:0404F70006376C2C2C
:0404F80025873BF722
:0404F9002E05D023D9
:0404FA00161029E8C7
:0404FB0030A25D0FBF
:0404FC00355A17B3A3
:0404FD002D069F9594
:0404FE0015F1E915F6
:0404FF0010580B2066
:04050000131FF00FC6
:040501003241D9EEBC
:040502002E3ACBCEF4
:0405030007E70D6A8F
:04050400393F8DF8F6
:040505002891B57311
:0405060014AEC90C5A
:04050700119A2C5EBB
:040508003364D2D2B4
:0405090014D68E3C3A
:04050A00013DB9AC4A
:04050B000049978389
:04050C0028EB68FD73
:04050D000E3CB046AA
:04050E000FD215678C
:04050F0009EE69A8E0
:0405100030AC0D04FA
:040511003858F877E7
:040512003A77EEBD89
:040513000971A37354
:040514003DD08AC08C
:040515000BA5C1BDB4
:040516002719AE13E0
:0405170014F97E92C3
:04051800171007CBE6
:0405190002934F7D7D
:04051A0022EF2A3072
:04051B0003F7AD3005
:04051C001B3365F434
:04051D00156D185DE3
:04051E002FD27C5C00
:04051F0008553651F4
:0405200011E6DE03FF
:04052100231B40AFA9
:040522002232A69E3D
:040523000B09381B6D
:0405240035A3DF24F8
:040525003AC77E69EA
:04052600046A5228E9
:0405270025E2AF0218
:0405280002C1F928EB
:0405290033D4BDCC3E
:04052A001830BF299D
:04052B003B32C2D8C5
:04052C0006ECFE419A
:04052D002D223965DD
:04052E0019B3F59078
:04052F001EB286175B
:04053000227EAC8AF1
:040531000DEFCFCD2E
:04053200039675E0D7
:04053300180B3C1451
:040534003AD2517EE8
:040535003D4A2E19F4
:040536000EE89F7FAD
:0405370027EDAE6D91
:040538001D9CBA59F3
:04053900002EA79257
:04053A00260AEBA7FB
:04053B000A5A1657EB
:04053C0025F044A1C1
:04053D00278BE2FC2A
:04053E0006416926E3
:04053F0021B4B645E8
:0405400004FB7562E1
:040541003A72E867BB
:0405420034AB7DDC7D
:04054300152028C394
:040544001AF9036F2E
:040545001F4A211711
:04054600333DDA7AED
:0405470011BB0A17C3
:040548000FD423D5D4
:0405490016C8F6E4F6
:04054A001B38510603
:04054B003897ABD959
:04054C0001651071C4
:04054D0038124C9282
:04054E002E2704D27E
:04054F0032E32F83E1
:040550003963AD7CE2
:0405510008AC972437
:04055200220894F0F7
:0405530004CC321B87
:04055400374D8E038E
:040555001850E0A7B3
:040556001D441464C8
:0405570031083474BF
:0405580018C6988E9B
:04055900103C11AD94
:04055A0035C398BE4F
:04055B003C77707900
:04055C001C9DC174AD
:04055D002DCC849687
:04055E001849AA5A34
:04055F001BD197AB6A
:0405600022A2A5919D
:0405610023B9AA24EC
:0405620032E471F816
:04056300031DEA3159
:0405640026D6DA2895
:04056500248169C9BB
:040566000D6466A713
:040567001E25CC0180
:04056800240D045A00
:040569003AB1182962
:04056A003BC8AC31AD
:04056B002CC65EF349
:04056C002B983993FC
:04056D002C2DE80544
:04056E000C93B3E84F
:04056F0024564DB908
:040570000D96D8AF5D
:04057100346F842D32
:0405720038E43E1318
:0405730011D5271C5B
:0405740026D55648EA
:0405750025DCFF8DF5
:0405760011E2474403
:0405770039E977CA1D
:040578002E3D98D2AA
:040579001FBF830D10
:04057A001738470ADD
:04057B0019B7B68B6B
:04057C00058D4EA4F7
:04057D0007BE29BDCF
:04057E001066A1BFA3
:04057F001CB05397C2
:0405800022732EBFF5
:0405810029A456DE75
:040582001079410AA1
:040583002A90DA558B
:040584002027F172C9
:040585003E4E9B4506
:040586000C98D3DA20
:0405870025A9A9CF2A
:040588000C6019D812
:040589000C8DDD19DF
:04058A003213C689D9
:04058B003A1A87A8E9
:04058C00380DD15203
:04058D0015795993F0
:04058E0004FB655CA9
:04058F003ABB964796
:0405900032849072AF
:0405910015B1110A85
:040592000B3427D827
:0405930033DE8F9D27
:0405940017ACF5B8F3
:040595001FFFD04331
:04059600105BFB9A61
:040597002587CCCF19
:0405980004CAF5A9F3
:040599003858481C6A
:04059A000A2771A813
:04059B0017CF16F46C
:04059C002D4421FDCC
:04059D0034619B1119
:04059E000A56A22A2D
:04059F0038355F7814
:0405A00007872B6638
:0405A1000F23F2F240
:0405A200243E4D1A8C
:0405A3003E03687833
:0405A400159C67CD6E
:0405A50029A74F8DA6
:0405A60002DF91AE31
:0405A7000A8AC68A6C
:0405A80018728781BD
:0405A900265C007953
:0405AA00244B9EC878
:0405AB003AEC05DD44
:0405AC00217413841F
:0405AD003CEFF19D91
:0405AE002AFD70B6FC
:0405AF000762DFAE52
:0405B00030EBE98DB6
:0405B1001EC5E18BF7
:0405B2003CFFF27B9D
:0405B3002EA03D3EFB
:0405B4000B76961F0D
:0405B50031234D732E
:0405B6003D7BC6FCC7
:0405B70027AA552CEE
:0405B8001E0AEBB27A
:0405B9000FA6025334
:0405BA00149A07DDAB
:0405BB00351263E5AD
:0405BC000463D713EA
:0405BD001C3FF89453
:0405BE00148D5F6FCA
:0405BF0008E4F34910
:0405C00030E332DF13
:0405C1002554BD2FD1
:0405C2002E99E798EF
:0405C300218C230C58
:0405C4001D118FBBBB
:0405C5001379EAF0CC
:0405C60026E6DA7BD0
:0405C7001492FEECA0
:0405C80007C6BDEDB8
:0405C90034072DEADC
:0405CA0005FADABC98
:0405CB003AFAC6DE54
:0405CC003C11028359
:0405CD003E9E100737
:0405CE00397E31C978
:0405CF003597A6C4F2
:0405D000300076EE93
:0405D100293AE6F4E9
:0405D2003EBCFBCE62
:0405D3000C1F8C4C21
:0405D4000DA174738E
:0405D500331998EA54
:0405D6003BF0D1E540
:0405D7000D19DA6DB3
:0405D800029A0D4135
:0405D900142292F165
:0405DA002C2DAE3DD9
:0405DB0023F72E06CE
:0405DC000C08698D11
:0405DD0034DAA35811
:0405DE003CDBDCCA5C
:0405DF000C99B62796
:0405E000111424606E
:0405E100354EE71B91
:0405E2000C43D633BD
:0405E300359FD6F575
:0405E4003C4F27B8A9
:0405E500340EA0FF31
:0405E60000D5E8B99B
:0405E7000C742DF46F
:0405E8003D0834F2A4
:0405E90027D448B11A
:0405EA0007A6349A92
:0405EB003878DD1A65
:0405EC003D6279688B
:0405ED0014BC806852
:0405EE002F6BB63287
:0405EF0007510B960F
:0405F00033B1F066CD
:0405F10035FC4AED9E
:0405F200101394D47A
:0405F30013DB5D4F6A
:0405F4002B00EF16D3
:0405F500234220DF9E
:0405F600224579C859
:0405F700235C38FA4F
:0405F8003ED10441AB
:0405F90033C517E807
:0405FA002176E11F66
:0405FB0008651ED1A0
:0405FC000A7338C383
:0405FD00342DCAFFD0
:0405FE000E6179F918
:0405FF00244D32183D
:0406000000000001F5
:040601000FFDB8BA77
:040602002D1D20C9C1
:0406030023FF134E70
:040604003B5946E533
:040605003C46699175
:0406060011FCF0A94A
:040607000CA093F7B9
:0406080006AC3251B9
:040609001E777D8358
:04060A0003536E3CEC
:04060B00386AC08DFC
:04060C0007F05D4155
:04060D002A74C58DF9
:04060E00052EA2749F
:04060F00287A20C362
:0406100006D0866822
:040611001910E1CC0F
:040612002C0D45D393
:040613000E9C4A2CC3
:040614001862989838
:040615001FDB056181
:040616000A9351F200
:04061700367B2CE71B
:040618000403C513FF
:040619003C8C8BCAC0
:04061A000F0DF1735C
:04061B0030954517BA
:04061C001989B798E9
:04061D001C4E838864
:04061E003342FC2443
:04061F0003CAB987CA
:040620001FCC08D40F
:040621002A934AE5E9
:040622002A8301F432
:0406230029BBEEC041
:04062400194F37B182
:0406250017916D1F9D
:040626000110A534E6
:040627000C7616C374
:040628001668A7ECBD
:0406290018B929567D
:04062A000E80BD5928
:04062B003A50A06140
:04062C00298BD656EA
:04062D001E1984F21C
:04062E00137580F3CD
:04062F001ACADD3ACC
:040630001890A580F9
:04063100076570C425
:0406320005536C8878
:040633003125F8DF96
:040634000EA94D03BB
:0406350036ACE1FC02
:0406360014C2CB26F9
:040637001091B23C30
:040638002A0A3A5DF3
:04063900240E17F084
:04063A001C5B4326DC
:04063B00087A87347E
:04063C002FF1C7C310
:04063D003EA7D939C2
:04063E002A87DFCC5C
:04063F003B6120F308
:040640002758E8B59A
:040641001E5B43F207
:040642002DF78FE41D
:04064300391AAC3A7A
:040644001CD6373950
:0406450032A542A2F6
:0406460036C29A8797
:040647000D9C427252
:0406480008E463154A
:0406490017AB577321
:04064A00332EAF8C10
:04064B002A6CFC42D7
:04064C0015B974BBAD
:04064D0009F44A8FD3
:04064E001250154EE3
:04064F001B31A88231
:040650002F89F58079
:04065100288451B7F1
:04065200360CE0661C
:0406530027B4821C2A
:040654000B267714E6
:040655001D7D2EB920
:040656002D78A2A9B0
:040657003ECD2C5612
:040658002BD09D9B6B
:04065900354F3D5587
:04065A002E530636DF
:04065B0012F653053B
:04065C002538C3BBBF
:04065D00356B0DBF2D
:04065E00102B90F4D9
:04065F002B6C432598
:040660002AE0370F46
:0406610038DD39FF48
:040662000D8F6F8FFA
:040663002A3844C924
:040664001ECD95DD35
:040665000C6DEC2804
:0406660004795ED0E5
:0406670033DB311F31
:040668001AFFED90F8
:04066900375AD659CD
:04066A002F6DF4F408
:04066B001A3E6A8148
:04066C0021F7081A50
:04066D002E55F9F815
:04066E0020B01DD5C6
:04066F001BB448FC74
:04067000340D0857E6
:040671001DA3E06382
:040672000D4E11CA4E
:040673001CDE29FE62
:0406740001D2387304
:04067500060423C490
:0406760028DB4CFC35
:04067700371DEB5FE1
:040678001D0B08212D
:040679003EB45DAF7F
:04067A003469BED74A
:04067B00285AE734DE
:04067C0012C2DCC406
:04067D0008CC35E28E
:04067E0027A0FDEBC9
:04067F0038DD29B287
:0406800011F143C26F
:04068100256EE405F9
:040682001357F0BB5F
:040683002C3158A915
:04068400078C9DD270
:04068500199242F391
:040686002A57FF8B65
:040687000B86A5B683
:040688001B630C7272
:040689002FD0835299
:04068A0022AC5C50F2
:04068B0001C9DF7949
:04068C00301DED6DC3
:04068D0027962D700F
:04068E001793082D89
:04068F00169CF4DFE2
:040690000D376DEDC8
:0406910034A504F296
:040692002BA92D0162
:04069300107EC45EB3
:040694000C0AA71095
:040695000F7D28525B
:04069600390A24C534
:04069700283CE80211
:040698002C6D22C6DD
:04069900359C1B84ED
:04069A000335B17003
:04069B0033C083C91C
:04069C00270EF559D7
:04069D003B8B20274C
:04069E002CC707233B
:04069F000151047E83
:0406A000287224E3B5
:0406A10010428D492D
:0406A20010DFD8E3AA
:0406A3000FBD7945C9
:0406A400030A4353AF
:0406A50020FBB55928
:0406A6002B740706A4
:0406A70002EB4724F7
:0406A80011D593DAFB
:0406A900346D5F77D6
:0406AA0035E5AF5D26
:0406AB000F3960564D
:0406AC0019C4F3304A
:0406AD00161800D348
:0406AE0029CB4A6D9D
:0406AF00045943CFD8
:0406B0003E3C03F8D1
:0406B10039AAA0D8EA
:0406B2001BDEE8BAA9
:0406B30021EED2382A
:0406B4001D8C7A24FB
:0406B500101972F5B1
:0406B6001AD8CB057E
:0406B7002CA0C8703B
:0406B8003D6F879972
:0406B9002010F8B461
:0406BA0006AD0CE796
:0406BB00045DE6EC08
:0406BC003385313B16
:0406BD0013D9FF2826
:0406BE00071E1B2FC9
:0406BF002FCB490BE9
:0406C00010A150F73E
:0406C1002384FD9BF6
:0406C2001D6EE4AE17
:0406C30015CF90AD12
:0406C4002654E96C63
:0406C5003DA66ABB29
:0406C60012F87B1794
:0406C700379E4474A2
:0406C800207137E87E
:0406C900224DE07E60
:0406CA002A52FE555D
:0406CB0002AA3A3510
:0406CC000F9FEFFE8F
:0406CD000688001883
:0406CE00328C3BEA45
:0406CF003B7FD5AAEE
:0406D00015F6EF2FFD
:0406D10023D5018CA0
:0406D2000E9BA202D7
:0406D3001EEE64D5DE
:0406D4003D84350527
:0406D50039C357646A
:0406D60019D7E2014D
:0406D7002639EC7064
:0406D80011C85827C6
:0406D9002ACDB4B0C2
:0406DA003079EDA4E2
:0406DB0034AF798F30
:0406DC00051F16944C
:0406DD003BA773D8EC
:0406DE001744DA17CC
:0406DF003CB189356C
:0406E000331291B888
:0406E1002B4A162E5C
:0406E20021A1B3E8B7
:0406E30015F48F3D3E
:0406E4002A5BF6484F
:0406E500031FC10C22
:0406E60007118F0564
:0406E7000F94732DCC
:0406E80009AB03E86F
:0406E90014AA591CDA
:0406EA00065FDDFECC
:0406EB002BCCF91407
:0406EC0028DC98541A
:0406ED0010799511DA
:0406EE0013814291A1
:0406EF000FB21CDE4C
:0406F0002F84FBEA6E
:0406F10030A86E8639
:0406F2002E93BB1A6E
:0406F30005D12D45BB
:0406F40010D6E19C9F
:0406F5003D1E0F3B5C
:0406F60022A8AADDAF
:0406F70033443A4A04
:0406F80027DEE041D8
:0406F9001ED1B079E5
:0406FA002D585666BB
:0406FB000EE6D1C076
:0406FC002B2A8765B9
:0406FD00316483CB16
:0406FE000AD9F5EA36
:0406FF0012A0997A32
:0407000001D8D81A2A
:0407010000277C0150
:040702002C31C6E7E9
:040703000C152AD7D0
:04070400248A428F72
:040705003BBFF158AD
:040706001D1DCF27BF
:04070700158E81EBDF
:0407080035314AB984
:0407090012983E0004
:04070A003E16D16660
:04070B003B5867C12F
:04070C003AB0A22439
:04070D000D1DDD7170
:04070E001EA96AB303
:04070F003A0B91AA66
:0407100001FA2BF4CB
:0407110019E49F49FF
:040712003839F59DE0
:04071300046CD28917
:040714003B166E37EB
:04071500209AE9D16C
:0407160002FB0214CC
:040717000183E66E06
:040718003D69DD97C3
:04071900120773E56B
:04071A000C5C6159B9
:04071B001C693225FE
:04071C002FB8E99E6B
:04071D0021934F8E47
:04071E002B429E8C40
:04071F0026EC3E3650
:040720003AC2BC29F4
:040721002972C2F087
:0407220012F07CE273
:04072300100A822A0C
:040724000BDABBEE43
:040725001B6A1060DB
:040726000B60A5A619
:0407270004F72A0D9C
:040728002BFDB831BC
:040729000836E6BFE9
:04072A0037D54C383B
:04072B002201BEAF3A
:04072C002A8000F629
:04072D0005B769B5EE
:04072E002089D7D275
:04072F001D3DFDD29D
:0407300000602396AC
:040731003DF139D18C
:04073200297FBC2A35
:0407330006A7F4A57C
:040734003A92229043
:0407350036A28CE379
:0407360007E69F77BC
:04073700150A2ACCA9
:040738002F965B8518
:04073900218FE265C5
:04073A0002B1B5C390
:04073B001A4BDE294E
:04073C0027FC64A989
:04073D00193B22EB57
:04073E000219203C40
:04073F0014D7FCF4DB
:040740002FB48E78CC
:04074100200AE17534
:04074200096B6D8C46
:04074300140324D3A4
:040744000042EB6123
:040745001DAAB90D23
:040746002C57EFB786
:040747002F009E6081
:040748003D38EF3613
:0407490021F5FA1686
:04074A0036AF2FB6E1
:04074B001D4A5E5C89
:04074C000CA6524B5A
:04074D0036AD658AD6
:04074E00209A4EE0BF
:04074F002EBE5E5FFD
:0407500017EB8E57BE
:040751003B341DD543
:040752003228868340
:0407530023145A53BE
:040754003465255C87
:040755002FCD27324B
:0407560027D347BDA1
:040757002EF2F34645
:040758000F1767EB25
:0407590010253065D2
:04075A000DA5F24DAA
:04075B0026F019BBB0
:04075C001181D7BA76
:04075D0022B0FA11BB
:04075E0002D7094174
:04075F0006419A595C
:04076000070FECEEA5
:04076100018B90C2B6
:0407620017C60BB9F2
:040763000939305FC1
:040764001BB41FEAB9
:0407650031264BB43A
:0407660014757EB6D2
:04076700072D4FCF3C
:0407680033A2A7A56C
:04076900229EBA9D75
:04076A000F4A32A15F
:04076B0038785EDD9F
:04076C001EB56D0841
:04076D002B484DD0F8
:04076E0002D103A20F
:04076F001055C4C39A
:0407700024BEF4D1DE
:04077100191F7F933A
:040772003872391D83
:04077300229F8FA38F
:0407740031FF12D56A
:04077500130BC7C8D3
:040776003C694CF39B
:040777000275B72D23
:0407780020DA55E549
:040779000C77C8CD64
:04077A002786C4D733
:04077B002B8FFBE0E5
:04077C00058CC1FF28
:04077D000A3405C76E
:04077E0011A228108C
:04077F001E52F16BAA
:040780000921AF7626
:040781000409F85817
:040782003334D061DB
:040783002137602991
:040784000E0C76BA27
:04078500180B98A015
:04078600286AE98C68
:040787001EB5BEC11C
:04078800244B9173FA
:04078900252F1346BF
:04078A000DC8375C03
:04078B00388958321F
:04078C0033885C0C46
:04078D00002184DEE5
:04078E00240B93BAEB
:04078F000DD307B2CD
:040790000157C6DD6A
:040791000D02EDFC6C
:040792000D5930C508
:040793000849408D44
:040794003085F18932
:0407950012B8D7EFD0
:040796003E85273441
:040797002CE8C24D3B
:040798001E929DA26E
:040799002669274F57
:04079A000A54643B5E
:04079B00016FED9F5E
:04079C002D12630EA9
:04079D0017E48C854C
:04079E0032D9A34F5A
:04079F0024B6DF3E5F
:0407A0003A3538EFBF
:0407A1003E69B518E0
:0407A2003D96B4418B
:0407A3003894351D34
:0407A40034C003C793
:0407A500289B8EC639
:0407A60008E91CD36F
:0407A7003EE5A7F094
:0407A8000E7EE20AD5
:0407A900286DF9D2EC
:0407AA0027F71A39DA
:0407AB001529E5E443
:0407AC0013C779C432
:0407AD001C9A05F796
:0407AE003BB35648BB
:0407AF001254D9F710
:0407B00028C1CCF69A
:0407B100376712ADE7
:0407B2000AED0DA19E
:0407B30019EF81CDEC
:0407B4000EC2A515B7
:0407B500215B5D8ED9
:0407B600260F03BA4D
:0407B7001AD55CA350
:0407B8001EB9048DD5
:0407B900117212ABFC
:0407BA00053E078968
:0407BB00203DC00D10
:0407BC0035DD792A84
:0407BD0018066DBDF0
:0407BE000312E8F149
:0407BF003DC1675D74
:0407C00007679C5DCE
:0407C1003BF1847212
:0407C20007BAC57F2E
:0407C300130AB2AAB9
:0407C4003804AB9BAF
:0407C50001C52962DF
:0407C60035A34B59B3
:0407C70034CEB67204
:0407C8001F878A6895
:0407C90013053A5288
:0407CA00022D5FAFEE
:0407CB000D3898AF9E
:0407CC0017D539F113
:0407CD00104F290A96
:0407CE001BA786805F
:0407CF003879D8B5E8
:0407D0001372D3E8E5
:0407D1002956E96656
:0407D200378E5336D5
:0407D30017916E7696
:0407D4000DD9261302
:0407D5000D79031C7B
:0407D600291384AAB5
:0407D700023F24E5D4
:0407D8003A282D5836
:0407D9000145126D57
:0407DA0020B416022F
:0407DB003678EF5528
:0407DC001C6AAAD217
:0407DD0023678F8C73
:0407DE0002E0A1375D
:0407DF0019D062B01B
:0407E000263E1B8C0A
:0407E1000293A22EAF
:0407E2003CA3316C97
:0407E30001ECF72E00
:0407E400014B52F182
:0407E5001EBA3F01F8
:0407E60015919B01CD
:0407E70022AA8B13A4
:0407E8000A7B776FA2
:0407E90032A75239A8
:0407EA003624F01BA6
:0407EB0037F0E59866
:0407EC00365B2A2826
:0407ED00027DA1B533
:0407EE002342797DAC
:0407EF002EFE400F8B
:0407F00005E7CA81CE
:0407F1001C4A7F5EC1
:0407F2000896CB0595
:0407F3000CB116002F
:0407F40002C5F271D7
:0407F50002B3DF76F6
:0407F6002DBF45725C
:0407F70018D2F5100F
:0407F8001521E39450
:0407F9001E5654E84C
:0407FA0012D9F3BC61
:0407FB0016914749C3
:0407FC00071C77015E
:0407FD0020B55A7257
:0407FE002FDCD639DD
:0407FF000CEE7E0E70
:00000001ff
