:020000040000FA
:0400000000000001FB
:0400010031D376BDC4
:04000200267A8137A2
:04000300030FD54FC3
:040004001AE21EB22C
:040005000E697725E4
:04000600352858FA47
:040007002450196404
:040008001434B4D028
:0400090023AA1D7099
:04000A0034BEE46DAF
:04000B0017E8B650EC
:04000C001B00376F2F
:04000D001367F8E598
:04000E00181676B595
:04000F0020D0852454
:0400100016352CA8CD
:0400110026D1A3F25F
:0400120030728C8D2F
:0400130009236EE966
:040014002063867E61
:0400150002611DE285
:0400160038FC0D4461
:0400170017AB297684
:040018000725919D8A
:040019002036909B62
:04001A0027339D8467
:04001B003AF96161EC
:04001C000E1A9A78A6
:04001D00359F3DEDE1
:04001E002429D2AD12
:04001F0006B3828A18
:0400200000000001DB
:04002100202C93F309
:040022000DABC6F864
:0400230010E8EEA152
:040024003836FC94DA
:04002500313CB0308A
:040026001BBD922A42
:0400270002ECEF6C8C
:04002800100CBA42BC
:0400290016847F5A60
:04002A00238E65318B
:04002B00372A95B823
:04002C0001CE2E369D
:04002D001D532D052D
:04002E000B95F56ACF
:04002F00255BDD333D
:04003000245E50B04A
:0400310008DD90E670
:0400320010F64C8EEA
:040033003BA3631375
:0400340022C81325A6
:040035003485612A83
:04003600018A928425
:040037002A21CCD7D7
:04003800232C2B4208
:040039003002A8D415
:04003A000717949E72
:04003B000A6EFC0A43
:04003C00054F17B2A3
:04003D003142ABF2AF
:04003E002FE1E0DBF3
:04003F00176F920A9B
:0400400000000001BB
:0400410011532F71B7
:0400420001C9D4A17B
:0400430006492EBF7D
:040044002E560572BD
:040045000C37C56A45
:040046002682388353
:040047003D61EA55D8
:040048003E76722668
:040049002C9485E38B
:04004A003424257EB7
:04004B002BB05EAECA
:04004C000A0A03F6A3
:04004D00196150B332
:04004E0007A31041B3
:04004F0020AE10517E
:040050003BF0680B0E
:0400510024DA3ABFB4
:040052003018D1A3EE
:040053003D279B2387
:04005400087D62C2FF
:040055001178F84ADC
:040056000E57E872E7
:040057002B621FEB0E
:04005800143915B68C
:040059002EAB962B09
:04005A00389C069236
:04005B000BF4016B36
:04005C003D1A93189E
:04005D0011E968B588
:04005E001C1D2C52E7
:04005F0025873BF7BF
:04006000000000019B
:0400610006AC325166
:0400620006D08668D6
:040063000403C513BA
:040064001FCC08D4D1
:040065001668A7EC86
:040066001890A580C9
:040067002A0A3A5DCA
:040068002758E8B578
:0400690008E463152F
:04006A002F89F58065
:04006B002BD09D9B5E
:04006C002AE0370F40
:04006D001AFFED90F9
:04006E00340D0857EE
:04006F001D0B08213C
:0400700011F143C285
:040071001B630C728F
:040072000D376DEDEC
:040073002C6D22C608
:04007400287224E3E7
:0400750011D593DA34
:040076003E3C03F811
:040077003D6F8799B9
:0400780010A150F78C
:04007900207137E8D3
:04007A0015F6EF2F59
:04007B0011C8582729
:04007C00331291B8F2
:04007D0009AB03E8E0
:04007E002F84FBEAE6
:04007F0027DEE04157
:04008000000000017B
:04008100346BEB28C9
:04008200113F976132
:04008300325FCC77A5
:040084000633C10876
:04008500398A5EA9AD
:040086000570D579B3
:040087002FB69B11E4
:040088000B10A32C8A
:0400890010C82086F5
:04008A003878ABD443
:04008B0037FC466494
:04008C0015BA32D59A
:04008D001C18C8AAC9
:04008E003AEFEBE179
:04008F001C3F91CDB4
:040090002BFB2E47D1
:040091001ABBCC9931
:040092003608886440
:040093001136A67804
:040094002090B70DF4
:0400950031BE7CE21A
:04009600055CDDE741
:04009700001386B21A
:04009800346C2F5D38
:040099000B9DADDD31
:04009A0038FFD4DC7B
:04009B0009487B177E
:04009C000B336E981C
:04009D00334F141FAA
:04009E003482EB3984
:04009F000B670DFFDF
:0400A000000000015B
:0400A100368D5499AB
:0400A2000EF4199AA5
:0400A3000D2F69A90B
:0400A4002EDA5C7B79
:0400A50004017D03D2
:0400A600363F480693
:0400A700046AF7A14F
:0400A8000DD8071F49
:0400A90029EF1C3AE5
:0400AA0037E8B1463C
:0400AB0032FB526270
:0400AC0026FB91544A
:0400AD002C2FC37FB2
:0400AE001BE4BA365F
:0400AF003558BE07FB
:0400B0001A878B9F81
:0400B1003C59DC09D1
:0400B20018F3B1D5B9
:0400B300374A491A65
:0400B4000A1DDBE066
:0400B5000AAA38FE5D
:0400B6003E401DC9E2
:0400B700100EBA9BD2
:0400B80021661D465A
:0400B90030A1320A36
:0400BA002B2B017972
:0400BB0030D6B40483
:0400BC0010AF5CD74E
:0400BD002E63997A9B
:0400BE00193C809FCA
:0400BF00164314616F
:00000001ff
